{
	"LoanLibrary.sol": {
		"LoanLibraryContract": {
			"abi": [
				{
					"inputs": [
						{
							"internalType": "uint256",
							"name": "interestRate",
							"type": "uint256"
						},
						{
							"internalType": "uint256",
							"name": "loanAmount",
							"type": "uint256"
						},
						{
							"internalType": "uint256",
							"name": "daysOfLoan",
							"type": "uint256"
						}
					],
					"name": "interestCalculator",
					"outputs": [
						{
							"internalType": "uint256",
							"name": "",
							"type": "uint256"
						}
					],
					"stateMutability": "pure",
					"type": "function"
				},
				{
					"inputs": [
						{
							"internalType": "uint256",
							"name": "penaltyRate",
							"type": "uint256"
						},
						{
							"internalType": "uint256",
							"name": "loanAmount",
							"type": "uint256"
						},
						{
							"internalType": "uint256",
							"name": "daysOfDelay",
							"type": "uint256"
						}
					],
					"name": "penaltyCalculator",
					"outputs": [
						{
							"internalType": "uint256",
							"name": "",
							"type": "uint256"
						}
					],
					"stateMutability": "pure",
					"type": "function"
				}
			],
			"devdoc": {
				"kind": "dev",
				"methods": {},
				"version": 1
			},
			"evm": {
				"assembly": "    /* \"LoanLibrary.sol\":814:1263  contract LoanLibraryContract {... */\n  mstore(0x40, 0x80)\n  callvalue\n  dup1\n  iszero\n  tag_1\n  jumpi\n  revert(0x00, 0x00)\ntag_1:\n  pop\n  dataSize(sub_0)\n  dup1\n  dataOffset(sub_0)\n  0x00\n  codecopy\n  0x00\n  return\nstop\n\nsub_0: assembly {\n        /* \"LoanLibrary.sol\":814:1263  contract LoanLibraryContract {... */\n      mstore(0x40, 0x80)\n      callvalue\n      dup1\n      iszero\n      tag_1\n      jumpi\n      revert(0x00, 0x00)\n    tag_1:\n      pop\n      jumpi(tag_2, lt(calldatasize, 0x04))\n      shr(0xe0, calldataload(0x00))\n      dup1\n      0x0a64464e\n      eq\n      tag_3\n      jumpi\n      dup1\n      0x3aafc692\n      eq\n      tag_4\n      jumpi\n    tag_2:\n      revert(0x00, 0x00)\n        /* \"LoanLibrary.sol\":850:1052  function interestCalculator(uint interestRate, uint loanAmount, uint daysOfLoan) public pure returns (uint) {... */\n    tag_3:\n      tag_5\n      0x04\n      dup1\n      calldatasize\n      sub\n      dup2\n      add\n      swap1\n      tag_6\n      swap2\n      swap1\n      tag_7\n      jump\t// in\n    tag_6:\n      tag_8\n      jump\t// in\n    tag_5:\n      mload(0x40)\n      tag_9\n      swap2\n      swap1\n      tag_10\n      jump\t// in\n    tag_9:\n      mload(0x40)\n      dup1\n      swap2\n      sub\n      swap1\n      return\n        /* \"LoanLibrary.sol\":1060:1260  function penaltyCalculator(uint penaltyRate, uint loanAmount, uint daysOfDelay) public pure returns (uint) {... */\n    tag_4:\n      tag_11\n      0x04\n      dup1\n      calldatasize\n      sub\n      dup2\n      add\n      swap1\n      tag_12\n      swap2\n      swap1\n      tag_7\n      jump\t// in\n    tag_12:\n      tag_13\n      jump\t// in\n    tag_11:\n      mload(0x40)\n      tag_14\n      swap2\n      swap1\n      tag_10\n      jump\t// in\n    tag_14:\n      mload(0x40)\n      dup1\n      swap2\n      sub\n      swap1\n      return\n        /* \"LoanLibrary.sol\":850:1052  function interestCalculator(uint interestRate, uint loanAmount, uint daysOfLoan) public pure returns (uint) {... */\n    tag_8:\n        /* \"LoanLibrary.sol\":952:956  uint */\n      0x00\n        /* \"LoanLibrary.sol\":976:1044  LoanLibrary.interestCalculator(interestRate, loanAmount, daysOfLoan) */\n      tag_16\n        /* \"LoanLibrary.sol\":1007:1019  interestRate */\n      dup5\n        /* \"LoanLibrary.sol\":1021:1031  loanAmount */\n      dup5\n        /* \"LoanLibrary.sol\":1033:1043  daysOfLoan */\n      dup5\n        /* \"LoanLibrary.sol\":976:1006  LoanLibrary.interestCalculator */\n      tag_17\n        /* \"LoanLibrary.sol\":976:1044  LoanLibrary.interestCalculator(interestRate, loanAmount, daysOfLoan) */\n      jump\t// in\n    tag_16:\n        /* \"LoanLibrary.sol\":969:1044  return LoanLibrary.interestCalculator(interestRate, loanAmount, daysOfLoan) */\n      swap1\n      pop\n        /* \"LoanLibrary.sol\":850:1052  function interestCalculator(uint interestRate, uint loanAmount, uint daysOfLoan) public pure returns (uint) {... */\n      swap4\n      swap3\n      pop\n      pop\n      pop\n      jump\t// out\n        /* \"LoanLibrary.sol\":1060:1260  function penaltyCalculator(uint penaltyRate, uint loanAmount, uint daysOfDelay) public pure returns (uint) {... */\n    tag_13:\n        /* \"LoanLibrary.sol\":1161:1165  uint */\n      0x00\n        /* \"LoanLibrary.sol\":1185:1252  LoanLibrary.penaltyCalculator(penaltyRate, loanAmount, daysOfDelay) */\n      tag_19\n        /* \"LoanLibrary.sol\":1215:1226  penaltyRate */\n      dup5\n        /* \"LoanLibrary.sol\":1228:1238  loanAmount */\n      dup5\n        /* \"LoanLibrary.sol\":1240:1251  daysOfDelay */\n      dup5\n        /* \"LoanLibrary.sol\":1185:1214  LoanLibrary.penaltyCalculator */\n      tag_20\n        /* \"LoanLibrary.sol\":1185:1252  LoanLibrary.penaltyCalculator(penaltyRate, loanAmount, daysOfDelay) */\n      jump\t// in\n    tag_19:\n        /* \"LoanLibrary.sol\":1178:1252  return LoanLibrary.penaltyCalculator(penaltyRate, loanAmount, daysOfDelay) */\n      swap1\n      pop\n        /* \"LoanLibrary.sol\":1060:1260  function penaltyCalculator(uint penaltyRate, uint loanAmount, uint daysOfDelay) public pure returns (uint) {... */\n      swap4\n      swap3\n      pop\n      pop\n      pop\n      jump\t// out\n        /* \"LoanLibrary.sol\":87:442  function interestCalculator(uint annualInterestRate, uint loanAmount, uint daysOfLoan)  internal pure returns(uint){... */\n    tag_17:\n        /* \"LoanLibrary.sol\":197:201  uint */\n      0x00\n        /* \"LoanLibrary.sol\":213:238  uint256 dailyInterestRate */\n      0x00\n        /* \"LoanLibrary.sol\":268:271  365 */\n      0x016d\n        /* \"LoanLibrary.sol\":262:265  100 */\n      0x64\n        /* \"LoanLibrary.sol\":241:259  annualInterestRate */\n      dup7\n        /* \"LoanLibrary.sol\":241:265  annualInterestRate / 100 */\n      tag_22\n      swap2\n      swap1\n      tag_23\n      jump\t// in\n    tag_22:\n        /* \"LoanLibrary.sol\":241:271  annualInterestRate / 100 / 365 */\n      tag_24\n      swap2\n      swap1\n      tag_23\n      jump\t// in\n    tag_24:\n        /* \"LoanLibrary.sol\":213:271  uint256 dailyInterestRate = annualInterestRate / 100 / 365 */\n      swap1\n      pop\n        /* \"LoanLibrary.sol\":289:298  uint256 i */\n      0x00\n        /* \"LoanLibrary.sol\":301:302  0 */\n      0x00\n        /* \"LoanLibrary.sol\":289:302  uint256 i = 0 */\n      swap1\n      pop\n        /* \"LoanLibrary.sol\":284:408  for (uint256 i = 0; i < daysOfLoan; i++) {... */\n    tag_25:\n        /* \"LoanLibrary.sol\":308:318  daysOfLoan */\n      dup4\n        /* \"LoanLibrary.sol\":304:305  i */\n      dup2\n        /* \"LoanLibrary.sol\":304:318  i < daysOfLoan */\n      lt\n        /* \"LoanLibrary.sol\":284:408  for (uint256 i = 0; i < daysOfLoan; i++) {... */\n      iszero\n      tag_26\n      jumpi\n        /* \"LoanLibrary.sol\":395:398  100 */\n      0x64\n        /* \"LoanLibrary.sol\":377:394  dailyInterestRate */\n      dup3\n        /* \"LoanLibrary.sol\":377:398  dailyInterestRate/100 */\n      tag_28\n      swap2\n      swap1\n      tag_23\n      jump\t// in\n    tag_28:\n        /* \"LoanLibrary.sol\":363:373  loanAmount */\n      dup6\n        /* \"LoanLibrary.sol\":363:399  loanAmount * (dailyInterestRate/100) */\n      tag_29\n      swap2\n      swap1\n      tag_30\n      jump\t// in\n    tag_29:\n        /* \"LoanLibrary.sol\":349:359  loanAmount */\n      dup6\n        /* \"LoanLibrary.sol\":349:400  loanAmount + (loanAmount * (dailyInterestRate/100)) */\n      tag_31\n      swap2\n      swap1\n      tag_32\n      jump\t// in\n    tag_31:\n        /* \"LoanLibrary.sol\":336:400  loanAmount = loanAmount + (loanAmount * (dailyInterestRate/100)) */\n      swap5\n      pop\n        /* \"LoanLibrary.sol\":320:323  i++ */\n      dup1\n      dup1\n      0x01\n      add\n      swap2\n      pop\n      pop\n        /* \"LoanLibrary.sol\":284:408  for (uint256 i = 0; i < daysOfLoan; i++) {... */\n      jump(tag_25)\n    tag_26:\n      pop\n        /* \"LoanLibrary.sol\":423:433  loanAmount */\n      dup4\n        /* \"LoanLibrary.sol\":416:433  return loanAmount */\n      swap2\n      pop\n      pop\n        /* \"LoanLibrary.sol\":87:442  function interestCalculator(uint annualInterestRate, uint loanAmount, uint daysOfLoan)  internal pure returns(uint){... */\n      swap4\n      swap3\n      pop\n      pop\n      pop\n      jump\t// out\n        /* \"LoanLibrary.sol\":450:803  function penaltyCalculator(uint annualPenaltyRate, uint loanAmount, uint daysOfDelay) internal pure returns (uint) {... */\n    tag_20:\n        /* \"LoanLibrary.sol\":559:563  uint */\n      0x00\n        /* \"LoanLibrary.sol\":576:600  uint256 dailyPenaltyRate */\n      0x00\n        /* \"LoanLibrary.sol\":629:632  365 */\n      0x016d\n        /* \"LoanLibrary.sol\":623:626  100 */\n      0x64\n        /* \"LoanLibrary.sol\":603:620  annualPenaltyRate */\n      dup7\n        /* \"LoanLibrary.sol\":603:626  annualPenaltyRate / 100 */\n      tag_34\n      swap2\n      swap1\n      tag_23\n      jump\t// in\n    tag_34:\n        /* \"LoanLibrary.sol\":603:632  annualPenaltyRate / 100 / 365 */\n      tag_35\n      swap2\n      swap1\n      tag_23\n      jump\t// in\n    tag_35:\n        /* \"LoanLibrary.sol\":576:632  uint256 dailyPenaltyRate = annualPenaltyRate / 100 / 365 */\n      swap1\n      pop\n        /* \"LoanLibrary.sol\":650:659  uint256 i */\n      0x00\n        /* \"LoanLibrary.sol\":662:663  0 */\n      0x00\n        /* \"LoanLibrary.sol\":650:663  uint256 i = 0 */\n      swap1\n      pop\n        /* \"LoanLibrary.sol\":645:769  for (uint256 i = 0; i < daysOfDelay; i++) {... */\n    tag_36:\n        /* \"LoanLibrary.sol\":669:680  daysOfDelay */\n      dup4\n        /* \"LoanLibrary.sol\":665:666  i */\n      dup2\n        /* \"LoanLibrary.sol\":665:680  i < daysOfDelay */\n      lt\n        /* \"LoanLibrary.sol\":645:769  for (uint256 i = 0; i < daysOfDelay; i++) {... */\n      iszero\n      tag_37\n      jumpi\n        /* \"LoanLibrary.sol\":756:759  100 */\n      0x64\n        /* \"LoanLibrary.sol\":739:755  dailyPenaltyRate */\n      dup3\n        /* \"LoanLibrary.sol\":739:759  dailyPenaltyRate/100 */\n      tag_39\n      swap2\n      swap1\n      tag_23\n      jump\t// in\n    tag_39:\n        /* \"LoanLibrary.sol\":725:735  loanAmount */\n      dup6\n        /* \"LoanLibrary.sol\":725:760  loanAmount * (dailyPenaltyRate/100) */\n      tag_40\n      swap2\n      swap1\n      tag_30\n      jump\t// in\n    tag_40:\n        /* \"LoanLibrary.sol\":711:721  loanAmount */\n      dup6\n        /* \"LoanLibrary.sol\":711:761  loanAmount + (loanAmount * (dailyPenaltyRate/100)) */\n      tag_41\n      swap2\n      swap1\n      tag_32\n      jump\t// in\n    tag_41:\n        /* \"LoanLibrary.sol\":698:761  loanAmount = loanAmount + (loanAmount * (dailyPenaltyRate/100)) */\n      swap5\n      pop\n        /* \"LoanLibrary.sol\":682:685  i++ */\n      dup1\n      dup1\n      0x01\n      add\n      swap2\n      pop\n      pop\n        /* \"LoanLibrary.sol\":645:769  for (uint256 i = 0; i < daysOfDelay; i++) {... */\n      jump(tag_36)\n    tag_37:\n      pop\n        /* \"LoanLibrary.sol\":784:794  loanAmount */\n      dup4\n        /* \"LoanLibrary.sol\":777:794  return loanAmount */\n      swap2\n      pop\n      pop\n        /* \"LoanLibrary.sol\":450:803  function penaltyCalculator(uint annualPenaltyRate, uint loanAmount, uint daysOfDelay) internal pure returns (uint) {... */\n      swap4\n      swap3\n      pop\n      pop\n      pop\n      jump\t// out\n        /* \"#utility.yul\":88:205   */\n    tag_43:\n        /* \"#utility.yul\":197:198   */\n      0x00\n        /* \"#utility.yul\":194:195   */\n      0x00\n        /* \"#utility.yul\":187:199   */\n      revert\n        /* \"#utility.yul\":334:411   */\n    tag_45:\n        /* \"#utility.yul\":371:378   */\n      0x00\n        /* \"#utility.yul\":400:405   */\n      dup2\n        /* \"#utility.yul\":389:405   */\n      swap1\n      pop\n        /* \"#utility.yul\":334:411   */\n      swap2\n      swap1\n      pop\n      jump\t// out\n        /* \"#utility.yul\":417:539   */\n    tag_46:\n        /* \"#utility.yul\":490:514   */\n      tag_57\n        /* \"#utility.yul\":508:513   */\n      dup2\n        /* \"#utility.yul\":490:514   */\n      tag_45\n      jump\t// in\n    tag_57:\n        /* \"#utility.yul\":483:488   */\n      dup2\n        /* \"#utility.yul\":480:515   */\n      eq\n        /* \"#utility.yul\":470:533   */\n      tag_58\n      jumpi\n        /* \"#utility.yul\":529:530   */\n      0x00\n        /* \"#utility.yul\":526:527   */\n      0x00\n        /* \"#utility.yul\":519:531   */\n      revert\n        /* \"#utility.yul\":470:533   */\n    tag_58:\n        /* \"#utility.yul\":417:539   */\n      pop\n      jump\t// out\n        /* \"#utility.yul\":545:684   */\n    tag_47:\n        /* \"#utility.yul\":591:596   */\n      0x00\n        /* \"#utility.yul\":629:635   */\n      dup2\n        /* \"#utility.yul\":616:636   */\n      calldataload\n        /* \"#utility.yul\":607:636   */\n      swap1\n      pop\n        /* \"#utility.yul\":645:678   */\n      tag_60\n        /* \"#utility.yul\":672:677   */\n      dup2\n        /* \"#utility.yul\":645:678   */\n      tag_46\n      jump\t// in\n    tag_60:\n        /* \"#utility.yul\":545:684   */\n      swap3\n      swap2\n      pop\n      pop\n      jump\t// out\n        /* \"#utility.yul\":690:1309   */\n    tag_7:\n        /* \"#utility.yul\":767:773   */\n      0x00\n        /* \"#utility.yul\":775:781   */\n      0x00\n        /* \"#utility.yul\":783:789   */\n      0x00\n        /* \"#utility.yul\":832:834   */\n      0x60\n        /* \"#utility.yul\":820:829   */\n      dup5\n        /* \"#utility.yul\":811:818   */\n      dup7\n        /* \"#utility.yul\":807:830   */\n      sub\n        /* \"#utility.yul\":803:835   */\n      slt\n        /* \"#utility.yul\":800:919   */\n      iszero\n      tag_62\n      jumpi\n        /* \"#utility.yul\":838:917   */\n      tag_63\n      tag_43\n      jump\t// in\n    tag_63:\n        /* \"#utility.yul\":800:919   */\n    tag_62:\n        /* \"#utility.yul\":958:959   */\n      0x00\n        /* \"#utility.yul\":983:1036   */\n      tag_64\n        /* \"#utility.yul\":1028:1035   */\n      dup7\n        /* \"#utility.yul\":1019:1025   */\n      dup3\n        /* \"#utility.yul\":1008:1017   */\n      dup8\n        /* \"#utility.yul\":1004:1026   */\n      add\n        /* \"#utility.yul\":983:1036   */\n      tag_47\n      jump\t// in\n    tag_64:\n        /* \"#utility.yul\":973:1036   */\n      swap4\n      pop\n        /* \"#utility.yul\":929:1046   */\n      pop\n        /* \"#utility.yul\":1085:1087   */\n      0x20\n        /* \"#utility.yul\":1111:1164   */\n      tag_65\n        /* \"#utility.yul\":1156:1163   */\n      dup7\n        /* \"#utility.yul\":1147:1153   */\n      dup3\n        /* \"#utility.yul\":1136:1145   */\n      dup8\n        /* \"#utility.yul\":1132:1154   */\n      add\n        /* \"#utility.yul\":1111:1164   */\n      tag_47\n      jump\t// in\n    tag_65:\n        /* \"#utility.yul\":1101:1164   */\n      swap3\n      pop\n        /* \"#utility.yul\":1056:1174   */\n      pop\n        /* \"#utility.yul\":1213:1215   */\n      0x40\n        /* \"#utility.yul\":1239:1292   */\n      tag_66\n        /* \"#utility.yul\":1284:1291   */\n      dup7\n        /* \"#utility.yul\":1275:1281   */\n      dup3\n        /* \"#utility.yul\":1264:1273   */\n      dup8\n        /* \"#utility.yul\":1260:1282   */\n      add\n        /* \"#utility.yul\":1239:1292   */\n      tag_47\n      jump\t// in\n    tag_66:\n        /* \"#utility.yul\":1229:1292   */\n      swap2\n      pop\n        /* \"#utility.yul\":1184:1302   */\n      pop\n        /* \"#utility.yul\":690:1309   */\n      swap3\n      pop\n      swap3\n      pop\n      swap3\n      jump\t// out\n        /* \"#utility.yul\":1315:1433   */\n    tag_48:\n        /* \"#utility.yul\":1402:1426   */\n      tag_68\n        /* \"#utility.yul\":1420:1425   */\n      dup2\n        /* \"#utility.yul\":1402:1426   */\n      tag_45\n      jump\t// in\n    tag_68:\n        /* \"#utility.yul\":1397:1400   */\n      dup3\n        /* \"#utility.yul\":1390:1427   */\n      mstore\n        /* \"#utility.yul\":1315:1433   */\n      pop\n      pop\n      jump\t// out\n        /* \"#utility.yul\":1439:1661   */\n    tag_10:\n        /* \"#utility.yul\":1532:1536   */\n      0x00\n        /* \"#utility.yul\":1570:1572   */\n      0x20\n        /* \"#utility.yul\":1559:1568   */\n      dup3\n        /* \"#utility.yul\":1555:1573   */\n      add\n        /* \"#utility.yul\":1547:1573   */\n      swap1\n      pop\n        /* \"#utility.yul\":1583:1654   */\n      tag_70\n        /* \"#utility.yul\":1651:1652   */\n      0x00\n        /* \"#utility.yul\":1640:1649   */\n      dup4\n        /* \"#utility.yul\":1636:1653   */\n      add\n        /* \"#utility.yul\":1627:1633   */\n      dup5\n        /* \"#utility.yul\":1583:1654   */\n      tag_48\n      jump\t// in\n    tag_70:\n        /* \"#utility.yul\":1439:1661   */\n      swap3\n      swap2\n      pop\n      pop\n      jump\t// out\n        /* \"#utility.yul\":1667:1847   */\n    tag_49:\n        /* \"#utility.yul\":1715:1792   */\n      0x4e487b7100000000000000000000000000000000000000000000000000000000\n        /* \"#utility.yul\":1712:1713   */\n      0x00\n        /* \"#utility.yul\":1705:1793   */\n      mstore\n        /* \"#utility.yul\":1812:1816   */\n      0x12\n        /* \"#utility.yul\":1809:1810   */\n      0x04\n        /* \"#utility.yul\":1802:1817   */\n      mstore\n        /* \"#utility.yul\":1836:1840   */\n      0x24\n        /* \"#utility.yul\":1833:1834   */\n      0x00\n        /* \"#utility.yul\":1826:1841   */\n      revert\n        /* \"#utility.yul\":1853:2033   */\n    tag_50:\n        /* \"#utility.yul\":1901:1978   */\n      0x4e487b7100000000000000000000000000000000000000000000000000000000\n        /* \"#utility.yul\":1898:1899   */\n      0x00\n        /* \"#utility.yul\":1891:1979   */\n      mstore\n        /* \"#utility.yul\":1998:2002   */\n      0x11\n        /* \"#utility.yul\":1995:1996   */\n      0x04\n        /* \"#utility.yul\":1988:2003   */\n      mstore\n        /* \"#utility.yul\":2022:2026   */\n      0x24\n        /* \"#utility.yul\":2019:2020   */\n      0x00\n        /* \"#utility.yul\":2012:2027   */\n      revert\n        /* \"#utility.yul\":2039:2224   */\n    tag_23:\n        /* \"#utility.yul\":2079:2080   */\n      0x00\n        /* \"#utility.yul\":2096:2116   */\n      tag_74\n        /* \"#utility.yul\":2114:2115   */\n      dup3\n        /* \"#utility.yul\":2096:2116   */\n      tag_45\n      jump\t// in\n    tag_74:\n        /* \"#utility.yul\":2091:2116   */\n      swap2\n      pop\n        /* \"#utility.yul\":2130:2150   */\n      tag_75\n        /* \"#utility.yul\":2148:2149   */\n      dup4\n        /* \"#utility.yul\":2130:2150   */\n      tag_45\n      jump\t// in\n    tag_75:\n        /* \"#utility.yul\":2125:2150   */\n      swap3\n      pop\n        /* \"#utility.yul\":2169:2170   */\n      dup3\n        /* \"#utility.yul\":2159:2194   */\n      tag_76\n      jumpi\n        /* \"#utility.yul\":2174:2192   */\n      tag_77\n      tag_49\n      jump\t// in\n    tag_77:\n        /* \"#utility.yul\":2159:2194   */\n    tag_76:\n        /* \"#utility.yul\":2216:2217   */\n      dup3\n        /* \"#utility.yul\":2213:2214   */\n      dup3\n        /* \"#utility.yul\":2209:2218   */\n      div\n        /* \"#utility.yul\":2204:2218   */\n      swap1\n      pop\n        /* \"#utility.yul\":2039:2224   */\n      swap3\n      swap2\n      pop\n      pop\n      jump\t// out\n        /* \"#utility.yul\":2230:2640   */\n    tag_30:\n        /* \"#utility.yul\":2270:2277   */\n      0x00\n        /* \"#utility.yul\":2293:2313   */\n      tag_79\n        /* \"#utility.yul\":2311:2312   */\n      dup3\n        /* \"#utility.yul\":2293:2313   */\n      tag_45\n      jump\t// in\n    tag_79:\n        /* \"#utility.yul\":2288:2313   */\n      swap2\n      pop\n        /* \"#utility.yul\":2327:2347   */\n      tag_80\n        /* \"#utility.yul\":2345:2346   */\n      dup4\n        /* \"#utility.yul\":2327:2347   */\n      tag_45\n      jump\t// in\n    tag_80:\n        /* \"#utility.yul\":2322:2347   */\n      swap3\n      pop\n        /* \"#utility.yul\":2382:2383   */\n      dup3\n        /* \"#utility.yul\":2379:2380   */\n      dup3\n        /* \"#utility.yul\":2375:2384   */\n      mul\n        /* \"#utility.yul\":2404:2434   */\n      tag_81\n        /* \"#utility.yul\":2422:2433   */\n      dup2\n        /* \"#utility.yul\":2404:2434   */\n      tag_45\n      jump\t// in\n    tag_81:\n        /* \"#utility.yul\":2393:2434   */\n      swap2\n      pop\n        /* \"#utility.yul\":2583:2584   */\n      dup3\n        /* \"#utility.yul\":2574:2581   */\n      dup3\n        /* \"#utility.yul\":2570:2585   */\n      div\n        /* \"#utility.yul\":2567:2568   */\n      dup5\n        /* \"#utility.yul\":2564:2586   */\n      eq\n        /* \"#utility.yul\":2544:2545   */\n      dup4\n        /* \"#utility.yul\":2537:2546   */\n      iszero\n        /* \"#utility.yul\":2517:2600   */\n      or\n        /* \"#utility.yul\":2494:2633   */\n      tag_82\n      jumpi\n        /* \"#utility.yul\":2613:2631   */\n      tag_83\n      tag_50\n      jump\t// in\n    tag_83:\n        /* \"#utility.yul\":2494:2633   */\n    tag_82:\n        /* \"#utility.yul\":2278:2640   */\n      pop\n        /* \"#utility.yul\":2230:2640   */\n      swap3\n      swap2\n      pop\n      pop\n      jump\t// out\n        /* \"#utility.yul\":2646:2837   */\n    tag_32:\n        /* \"#utility.yul\":2686:2689   */\n      0x00\n        /* \"#utility.yul\":2705:2725   */\n      tag_85\n        /* \"#utility.yul\":2723:2724   */\n      dup3\n        /* \"#utility.yul\":2705:2725   */\n      tag_45\n      jump\t// in\n    tag_85:\n        /* \"#utility.yul\":2700:2725   */\n      swap2\n      pop\n        /* \"#utility.yul\":2739:2759   */\n      tag_86\n        /* \"#utility.yul\":2757:2758   */\n      dup4\n        /* \"#utility.yul\":2739:2759   */\n      tag_45\n      jump\t// in\n    tag_86:\n        /* \"#utility.yul\":2734:2759   */\n      swap3\n      pop\n        /* \"#utility.yul\":2782:2783   */\n      dup3\n        /* \"#utility.yul\":2779:2780   */\n      dup3\n        /* \"#utility.yul\":2775:2784   */\n      add\n        /* \"#utility.yul\":2768:2784   */\n      swap1\n      pop\n        /* \"#utility.yul\":2803:2806   */\n      dup1\n        /* \"#utility.yul\":2800:2801   */\n      dup3\n        /* \"#utility.yul\":2797:2807   */\n      gt\n        /* \"#utility.yul\":2794:2830   */\n      iszero\n      tag_87\n      jumpi\n        /* \"#utility.yul\":2810:2828   */\n      tag_88\n      tag_50\n      jump\t// in\n    tag_88:\n        /* \"#utility.yul\":2794:2830   */\n    tag_87:\n        /* \"#utility.yul\":2646:2837   */\n      swap3\n      swap2\n      pop\n      pop\n      jump\t// out\n\n    auxdata: 0xa2646970667358221220ee89f679cb2652f0fd331cc6d55ed2d7dac183013f80218cb52f0a15dd36085964736f6c634300081c0033\n}\n",
				"bytecode": {
					"linkReferences": {},
					"object": "6080604052348015600e575f5ffd5b506103778061001c5f395ff3fe608060405234801561000f575f5ffd5b5060043610610034575f3560e01c80630a64464e146100385780633aafc69214610068575b5f5ffd5b610052600480360381019061004d91906101cb565b610098565b60405161005f919061022a565b60405180910390f35b610082600480360381019061007d91906101cb565b6100ad565b60405161008f919061022a565b60405180910390f35b5f6100a48484846100c2565b90509392505050565b5f6100b984848461012b565b90509392505050565b5f5f61016d6064866100d4919061029d565b6100de919061029d565b90505f5f90505b8381101561011f576064826100fa919061029d565b8561010591906102cd565b85610110919061030e565b945080806001019150506100e5565b50839150509392505050565b5f5f61016d60648661013d919061029d565b610147919061029d565b90505f5f90505b8381101561018857606482610163919061029d565b8561016e91906102cd565b85610179919061030e565b9450808060010191505061014e565b50839150509392505050565b5f5ffd5b5f819050919050565b6101aa81610198565b81146101b4575f5ffd5b50565b5f813590506101c5816101a1565b92915050565b5f5f5f606084860312156101e2576101e1610194565b5b5f6101ef868287016101b7565b9350506020610200868287016101b7565b9250506040610211868287016101b7565b9150509250925092565b61022481610198565b82525050565b5f60208201905061023d5f83018461021b565b92915050565b7f4e487b71000000000000000000000000000000000000000000000000000000005f52601260045260245ffd5b7f4e487b71000000000000000000000000000000000000000000000000000000005f52601160045260245ffd5b5f6102a782610198565b91506102b283610198565b9250826102c2576102c1610243565b5b828204905092915050565b5f6102d782610198565b91506102e283610198565b92508282026102f081610198565b9150828204841483151761030757610306610270565b5b5092915050565b5f61031882610198565b915061032383610198565b925082820190508082111561033b5761033a610270565b5b9291505056fea2646970667358221220ee89f679cb2652f0fd331cc6d55ed2d7dac183013f80218cb52f0a15dd36085964736f6c634300081c0033",
					"opcodes": "PUSH1 0x80 PUSH1 0x40 MSTORE CALLVALUE DUP1 ISZERO PUSH1 0xE JUMPI PUSH0 PUSH0 REVERT JUMPDEST POP PUSH2 0x377 DUP1 PUSH2 0x1C PUSH0 CODECOPY PUSH0 RETURN INVALID PUSH1 0x80 PUSH1 0x40 MSTORE CALLVALUE DUP1 ISZERO PUSH2 0xF JUMPI PUSH0 PUSH0 REVERT JUMPDEST POP PUSH1 0x4 CALLDATASIZE LT PUSH2 0x34 JUMPI PUSH0 CALLDATALOAD PUSH1 0xE0 SHR DUP1 PUSH4 0xA64464E EQ PUSH2 0x38 JUMPI DUP1 PUSH4 0x3AAFC692 EQ PUSH2 0x68 JUMPI JUMPDEST PUSH0 PUSH0 REVERT JUMPDEST PUSH2 0x52 PUSH1 0x4 DUP1 CALLDATASIZE SUB DUP2 ADD SWAP1 PUSH2 0x4D SWAP2 SWAP1 PUSH2 0x1CB JUMP JUMPDEST PUSH2 0x98 JUMP JUMPDEST PUSH1 0x40 MLOAD PUSH2 0x5F SWAP2 SWAP1 PUSH2 0x22A JUMP JUMPDEST PUSH1 0x40 MLOAD DUP1 SWAP2 SUB SWAP1 RETURN JUMPDEST PUSH2 0x82 PUSH1 0x4 DUP1 CALLDATASIZE SUB DUP2 ADD SWAP1 PUSH2 0x7D SWAP2 SWAP1 PUSH2 0x1CB JUMP JUMPDEST PUSH2 0xAD JUMP JUMPDEST PUSH1 0x40 MLOAD PUSH2 0x8F SWAP2 SWAP1 PUSH2 0x22A JUMP JUMPDEST PUSH1 0x40 MLOAD DUP1 SWAP2 SUB SWAP1 RETURN JUMPDEST PUSH0 PUSH2 0xA4 DUP5 DUP5 DUP5 PUSH2 0xC2 JUMP JUMPDEST SWAP1 POP SWAP4 SWAP3 POP POP POP JUMP JUMPDEST PUSH0 PUSH2 0xB9 DUP5 DUP5 DUP5 PUSH2 0x12B JUMP JUMPDEST SWAP1 POP SWAP4 SWAP3 POP POP POP JUMP JUMPDEST PUSH0 PUSH0 PUSH2 0x16D PUSH1 0x64 DUP7 PUSH2 0xD4 SWAP2 SWAP1 PUSH2 0x29D JUMP JUMPDEST PUSH2 0xDE SWAP2 SWAP1 PUSH2 0x29D JUMP JUMPDEST SWAP1 POP PUSH0 PUSH0 SWAP1 POP JUMPDEST DUP4 DUP2 LT ISZERO PUSH2 0x11F JUMPI PUSH1 0x64 DUP3 PUSH2 0xFA SWAP2 SWAP1 PUSH2 0x29D JUMP JUMPDEST DUP6 PUSH2 0x105 SWAP2 SWAP1 PUSH2 0x2CD JUMP JUMPDEST DUP6 PUSH2 0x110 SWAP2 SWAP1 PUSH2 0x30E JUMP JUMPDEST SWAP5 POP DUP1 DUP1 PUSH1 0x1 ADD SWAP2 POP POP PUSH2 0xE5 JUMP JUMPDEST POP DUP4 SWAP2 POP POP SWAP4 SWAP3 POP POP POP JUMP JUMPDEST PUSH0 PUSH0 PUSH2 0x16D PUSH1 0x64 DUP7 PUSH2 0x13D SWAP2 SWAP1 PUSH2 0x29D JUMP JUMPDEST PUSH2 0x147 SWAP2 SWAP1 PUSH2 0x29D JUMP JUMPDEST SWAP1 POP PUSH0 PUSH0 SWAP1 POP JUMPDEST DUP4 DUP2 LT ISZERO PUSH2 0x188 JUMPI PUSH1 0x64 DUP3 PUSH2 0x163 SWAP2 SWAP1 PUSH2 0x29D JUMP JUMPDEST DUP6 PUSH2 0x16E SWAP2 SWAP1 PUSH2 0x2CD JUMP JUMPDEST DUP6 PUSH2 0x179 SWAP2 SWAP1 PUSH2 0x30E JUMP JUMPDEST SWAP5 POP DUP1 DUP1 PUSH1 0x1 ADD SWAP2 POP POP PUSH2 0x14E JUMP JUMPDEST POP DUP4 SWAP2 POP POP SWAP4 SWAP3 POP POP POP JUMP JUMPDEST PUSH0 PUSH0 REVERT JUMPDEST PUSH0 DUP2 SWAP1 POP SWAP2 SWAP1 POP JUMP JUMPDEST PUSH2 0x1AA DUP2 PUSH2 0x198 JUMP JUMPDEST DUP2 EQ PUSH2 0x1B4 JUMPI PUSH0 PUSH0 REVERT JUMPDEST POP JUMP JUMPDEST PUSH0 DUP2 CALLDATALOAD SWAP1 POP PUSH2 0x1C5 DUP2 PUSH2 0x1A1 JUMP JUMPDEST SWAP3 SWAP2 POP POP JUMP JUMPDEST PUSH0 PUSH0 PUSH0 PUSH1 0x60 DUP5 DUP7 SUB SLT ISZERO PUSH2 0x1E2 JUMPI PUSH2 0x1E1 PUSH2 0x194 JUMP JUMPDEST JUMPDEST PUSH0 PUSH2 0x1EF DUP7 DUP3 DUP8 ADD PUSH2 0x1B7 JUMP JUMPDEST SWAP4 POP POP PUSH1 0x20 PUSH2 0x200 DUP7 DUP3 DUP8 ADD PUSH2 0x1B7 JUMP JUMPDEST SWAP3 POP POP PUSH1 0x40 PUSH2 0x211 DUP7 DUP3 DUP8 ADD PUSH2 0x1B7 JUMP JUMPDEST SWAP2 POP POP SWAP3 POP SWAP3 POP SWAP3 JUMP JUMPDEST PUSH2 0x224 DUP2 PUSH2 0x198 JUMP JUMPDEST DUP3 MSTORE POP POP JUMP JUMPDEST PUSH0 PUSH1 0x20 DUP3 ADD SWAP1 POP PUSH2 0x23D PUSH0 DUP4 ADD DUP5 PUSH2 0x21B JUMP JUMPDEST SWAP3 SWAP2 POP POP JUMP JUMPDEST PUSH32 0x4E487B7100000000000000000000000000000000000000000000000000000000 PUSH0 MSTORE PUSH1 0x12 PUSH1 0x4 MSTORE PUSH1 0x24 PUSH0 REVERT JUMPDEST PUSH32 0x4E487B7100000000000000000000000000000000000000000000000000000000 PUSH0 MSTORE PUSH1 0x11 PUSH1 0x4 MSTORE PUSH1 0x24 PUSH0 REVERT JUMPDEST PUSH0 PUSH2 0x2A7 DUP3 PUSH2 0x198 JUMP JUMPDEST SWAP2 POP PUSH2 0x2B2 DUP4 PUSH2 0x198 JUMP JUMPDEST SWAP3 POP DUP3 PUSH2 0x2C2 JUMPI PUSH2 0x2C1 PUSH2 0x243 JUMP JUMPDEST JUMPDEST DUP3 DUP3 DIV SWAP1 POP SWAP3 SWAP2 POP POP JUMP JUMPDEST PUSH0 PUSH2 0x2D7 DUP3 PUSH2 0x198 JUMP JUMPDEST SWAP2 POP PUSH2 0x2E2 DUP4 PUSH2 0x198 JUMP JUMPDEST SWAP3 POP DUP3 DUP3 MUL PUSH2 0x2F0 DUP2 PUSH2 0x198 JUMP JUMPDEST SWAP2 POP DUP3 DUP3 DIV DUP5 EQ DUP4 ISZERO OR PUSH2 0x307 JUMPI PUSH2 0x306 PUSH2 0x270 JUMP JUMPDEST JUMPDEST POP SWAP3 SWAP2 POP POP JUMP JUMPDEST PUSH0 PUSH2 0x318 DUP3 PUSH2 0x198 JUMP JUMPDEST SWAP2 POP PUSH2 0x323 DUP4 PUSH2 0x198 JUMP JUMPDEST SWAP3 POP DUP3 DUP3 ADD SWAP1 POP DUP1 DUP3 GT ISZERO PUSH2 0x33B JUMPI PUSH2 0x33A PUSH2 0x270 JUMP JUMPDEST JUMPDEST SWAP3 SWAP2 POP POP JUMP INVALID LOG2 PUSH5 0x6970667358 0x22 SLT KECCAK256 0xEE DUP10 0xF6 PUSH26 0xCB2652F0FD331CC6D55ED2D7DAC183013F80218CB52F0A15DD36 ADDMOD MSIZE PUSH5 0x736F6C6343 STOP ADDMOD SHR STOP CALLER "
				},
				"gasEstimates": {
					"creation": {
						"codeDepositCost": "177400",
						"executionCost": "218",
						"totalCost": "177618"
					},
					"external": {
						"interestCalculator(uint256,uint256,uint256)": "infinite",
						"penaltyCalculator(uint256,uint256,uint256)": "infinite"
					}
				},
				"methodIdentifiers": {
					"interestCalculator(uint256,uint256,uint256)": "0a64464e",
					"penaltyCalculator(uint256,uint256,uint256)": "3aafc692"
				}
			},
			"storageLayout": {
				"storage": [],
				"types": null
			},
			"userdoc": {
				"kind": "user",
				"methods": {},
				"version": 1
			}
		}
	}
}