{
	"LoanManager.sol": {
		"LoanManager": {
			"abi": [
				{
					"anonymous": false,
					"inputs": [
						{
							"indexed": false,
							"internalType": "uint256",
							"name": "loanId",
							"type": "uint256"
						},
						{
							"indexed": true,
							"internalType": "address",
							"name": "borrower",
							"type": "address"
						},
						{
							"indexed": true,
							"internalType": "uint256",
							"name": "amount",
							"type": "uint256"
						},
						{
							"indexed": false,
							"internalType": "enum LoanManager.LoanStatus",
							"name": "previousStatus",
							"type": "uint8"
						}
					],
					"name": "LoanCanceled",
					"type": "event"
				},
				{
					"anonymous": false,
					"inputs": [
						{
							"indexed": false,
							"internalType": "uint256",
							"name": "loanId",
							"type": "uint256"
						},
						{
							"indexed": false,
							"internalType": "address",
							"name": "lender",
							"type": "address"
						},
						{
							"indexed": false,
							"internalType": "address",
							"name": "borrower",
							"type": "address"
						},
						{
							"indexed": false,
							"internalType": "uint256",
							"name": "amount",
							"type": "uint256"
						},
						{
							"indexed": false,
							"internalType": "uint256",
							"name": "startDate",
							"type": "uint256"
						},
						{
							"indexed": false,
							"internalType": "uint256",
							"name": "dueDate",
							"type": "uint256"
						}
					],
					"name": "LoanFunded",
					"type": "event"
				},
				{
					"anonymous": false,
					"inputs": [
						{
							"indexed": false,
							"internalType": "uint256",
							"name": "loanId",
							"type": "uint256"
						},
						{
							"indexed": true,
							"internalType": "address",
							"name": "borrower",
							"type": "address"
						},
						{
							"indexed": true,
							"internalType": "uint256",
							"name": "amount",
							"type": "uint256"
						},
						{
							"indexed": false,
							"internalType": "enum LoanManager.LoanStatus",
							"name": "status",
							"type": "uint8"
						},
						{
							"indexed": false,
							"internalType": "uint256",
							"name": "repayAmount",
							"type": "uint256"
						}
					],
					"name": "LoanRepaid",
					"type": "event"
				},
				{
					"anonymous": false,
					"inputs": [
						{
							"indexed": false,
							"internalType": "uint256",
							"name": "loanId",
							"type": "uint256"
						},
						{
							"indexed": true,
							"internalType": "address",
							"name": "borrower",
							"type": "address"
						},
						{
							"indexed": true,
							"internalType": "uint256",
							"name": "amount",
							"type": "uint256"
						},
						{
							"indexed": false,
							"internalType": "enum LoanManager.LoanStatus",
							"name": "status",
							"type": "uint8"
						},
						{
							"indexed": true,
							"internalType": "uint256",
							"name": "interestRate",
							"type": "uint256"
						},
						{
							"indexed": false,
							"internalType": "enum LoanManager.LoanDuration",
							"name": "duration",
							"type": "uint8"
						}
					],
					"name": "LoanRequested",
					"type": "event"
				},
				{
					"inputs": [
						{
							"internalType": "address",
							"name": "",
							"type": "address"
						},
						{
							"internalType": "uint256",
							"name": "",
							"type": "uint256"
						}
					],
					"name": "borrowerLoans",
					"outputs": [
						{
							"internalType": "uint256",
							"name": "",
							"type": "uint256"
						}
					],
					"stateMutability": "view",
					"type": "function"
				},
				{
					"inputs": [
						{
							"internalType": "uint256",
							"name": "_loanId",
							"type": "uint256"
						}
					],
					"name": "cancelLoan",
					"outputs": [],
					"stateMutability": "payable",
					"type": "function"
				},
				{
					"inputs": [
						{
							"internalType": "uint256",
							"name": "_loanId",
							"type": "uint256"
						}
					],
					"name": "getLoanFunds",
					"outputs": [],
					"stateMutability": "payable",
					"type": "function"
				},
				{
					"inputs": [
						{
							"internalType": "enum LoanManager.LoanDuration",
							"name": "_duration",
							"type": "uint8"
						}
					],
					"name": "getPendingLoanByDuration",
					"outputs": [
						{
							"components": [
								{
									"internalType": "uint256",
									"name": "loanId",
									"type": "uint256"
								},
								{
									"components": [
										{
											"internalType": "address",
											"name": "borrowerAddress",
											"type": "address"
										},
										{
											"internalType": "uint8",
											"name": "creditScore",
											"type": "uint8"
										},
										{
											"internalType": "uint256[]",
											"name": "loanHistory",
											"type": "uint256[]"
										}
									],
									"internalType": "struct LoanManager.LoanBorrower",
									"name": "borrower",
									"type": "tuple"
								},
								{
									"internalType": "address",
									"name": "lender",
									"type": "address"
								},
								{
									"internalType": "uint256",
									"name": "amount",
									"type": "uint256"
								},
								{
									"internalType": "uint256",
									"name": "interestRate",
									"type": "uint256"
								},
								{
									"internalType": "uint256",
									"name": "penaltyRate",
									"type": "uint256"
								},
								{
									"internalType": "uint256",
									"name": "startDate",
									"type": "uint256"
								},
								{
									"internalType": "uint256",
									"name": "dueDate",
									"type": "uint256"
								},
								{
									"internalType": "uint256",
									"name": "repayAmount",
									"type": "uint256"
								},
								{
									"internalType": "enum LoanManager.LoanStatus",
									"name": "status",
									"type": "uint8"
								},
								{
									"internalType": "enum LoanManager.LoanDuration",
									"name": "duration",
									"type": "uint8"
								}
							],
							"internalType": "struct LoanManager.Loan[]",
							"name": "",
							"type": "tuple[]"
						}
					],
					"stateMutability": "view",
					"type": "function"
				},
				{
					"inputs": [],
					"name": "getPendingLoanDetailsByAmount",
					"outputs": [
						{
							"components": [
								{
									"internalType": "uint256",
									"name": "loanId",
									"type": "uint256"
								},
								{
									"components": [
										{
											"internalType": "address",
											"name": "borrowerAddress",
											"type": "address"
										},
										{
											"internalType": "uint8",
											"name": "creditScore",
											"type": "uint8"
										},
										{
											"internalType": "uint256[]",
											"name": "loanHistory",
											"type": "uint256[]"
										}
									],
									"internalType": "struct LoanManager.LoanBorrower",
									"name": "borrower",
									"type": "tuple"
								},
								{
									"internalType": "address",
									"name": "lender",
									"type": "address"
								},
								{
									"internalType": "uint256",
									"name": "amount",
									"type": "uint256"
								},
								{
									"internalType": "uint256",
									"name": "interestRate",
									"type": "uint256"
								},
								{
									"internalType": "uint256",
									"name": "penaltyRate",
									"type": "uint256"
								},
								{
									"internalType": "uint256",
									"name": "startDate",
									"type": "uint256"
								},
								{
									"internalType": "uint256",
									"name": "dueDate",
									"type": "uint256"
								},
								{
									"internalType": "uint256",
									"name": "repayAmount",
									"type": "uint256"
								},
								{
									"internalType": "enum LoanManager.LoanStatus",
									"name": "status",
									"type": "uint8"
								},
								{
									"internalType": "enum LoanManager.LoanDuration",
									"name": "duration",
									"type": "uint8"
								}
							],
							"internalType": "struct LoanManager.Loan[]",
							"name": "",
							"type": "tuple[]"
						}
					],
					"stateMutability": "view",
					"type": "function"
				},
				{
					"inputs": [],
					"name": "getPendingLoanDetailsByInterestRate",
					"outputs": [
						{
							"components": [
								{
									"internalType": "uint256",
									"name": "loanId",
									"type": "uint256"
								},
								{
									"components": [
										{
											"internalType": "address",
											"name": "borrowerAddress",
											"type": "address"
										},
										{
											"internalType": "uint8",
											"name": "creditScore",
											"type": "uint8"
										},
										{
											"internalType": "uint256[]",
											"name": "loanHistory",
											"type": "uint256[]"
										}
									],
									"internalType": "struct LoanManager.LoanBorrower",
									"name": "borrower",
									"type": "tuple"
								},
								{
									"internalType": "address",
									"name": "lender",
									"type": "address"
								},
								{
									"internalType": "uint256",
									"name": "amount",
									"type": "uint256"
								},
								{
									"internalType": "uint256",
									"name": "interestRate",
									"type": "uint256"
								},
								{
									"internalType": "uint256",
									"name": "penaltyRate",
									"type": "uint256"
								},
								{
									"internalType": "uint256",
									"name": "startDate",
									"type": "uint256"
								},
								{
									"internalType": "uint256",
									"name": "dueDate",
									"type": "uint256"
								},
								{
									"internalType": "uint256",
									"name": "repayAmount",
									"type": "uint256"
								},
								{
									"internalType": "enum LoanManager.LoanStatus",
									"name": "status",
									"type": "uint8"
								},
								{
									"internalType": "enum LoanManager.LoanDuration",
									"name": "duration",
									"type": "uint8"
								}
							],
							"internalType": "struct LoanManager.Loan[]",
							"name": "",
							"type": "tuple[]"
						}
					],
					"stateMutability": "view",
					"type": "function"
				},
				{
					"inputs": [
						{
							"internalType": "uint256",
							"name": "_loanId",
							"type": "uint256"
						}
					],
					"name": "getRepayLoanInfo",
					"outputs": [
						{
							"internalType": "uint256",
							"name": "",
							"type": "uint256"
						},
						{
							"internalType": "enum LoanManager.LoanStatus",
							"name": "",
							"type": "uint8"
						}
					],
					"stateMutability": "view",
					"type": "function"
				},
				{
					"inputs": [
						{
							"internalType": "address",
							"name": "",
							"type": "address"
						}
					],
					"name": "loanBorrowers",
					"outputs": [
						{
							"internalType": "address",
							"name": "borrowerAddress",
							"type": "address"
						},
						{
							"internalType": "uint8",
							"name": "creditScore",
							"type": "uint8"
						}
					],
					"stateMutability": "view",
					"type": "function"
				},
				{
					"inputs": [
						{
							"internalType": "uint256",
							"name": "",
							"type": "uint256"
						}
					],
					"name": "loansById",
					"outputs": [
						{
							"internalType": "uint256",
							"name": "loanId",
							"type": "uint256"
						},
						{
							"components": [
								{
									"internalType": "address",
									"name": "borrowerAddress",
									"type": "address"
								},
								{
									"internalType": "uint8",
									"name": "creditScore",
									"type": "uint8"
								},
								{
									"internalType": "uint256[]",
									"name": "loanHistory",
									"type": "uint256[]"
								}
							],
							"internalType": "struct LoanManager.LoanBorrower",
							"name": "borrower",
							"type": "tuple"
						},
						{
							"internalType": "address",
							"name": "lender",
							"type": "address"
						},
						{
							"internalType": "uint256",
							"name": "amount",
							"type": "uint256"
						},
						{
							"internalType": "uint256",
							"name": "interestRate",
							"type": "uint256"
						},
						{
							"internalType": "uint256",
							"name": "penaltyRate",
							"type": "uint256"
						},
						{
							"internalType": "uint256",
							"name": "startDate",
							"type": "uint256"
						},
						{
							"internalType": "uint256",
							"name": "dueDate",
							"type": "uint256"
						},
						{
							"internalType": "uint256",
							"name": "repayAmount",
							"type": "uint256"
						},
						{
							"internalType": "enum LoanManager.LoanStatus",
							"name": "status",
							"type": "uint8"
						},
						{
							"internalType": "enum LoanManager.LoanDuration",
							"name": "duration",
							"type": "uint8"
						}
					],
					"stateMutability": "view",
					"type": "function"
				},
				{
					"inputs": [
						{
							"internalType": "uint256",
							"name": "_loanId",
							"type": "uint256"
						}
					],
					"name": "repayLoan",
					"outputs": [],
					"stateMutability": "payable",
					"type": "function"
				},
				{
					"inputs": [
						{
							"internalType": "uint256",
							"name": "_amount",
							"type": "uint256"
						},
						{
							"internalType": "enum LoanManager.LoanDuration",
							"name": "_duration",
							"type": "uint8"
						}
					],
					"name": "requestLoan",
					"outputs": [],
					"stateMutability": "nonpayable",
					"type": "function"
				}
			],
			"devdoc": {
				"kind": "dev",
				"methods": {},
				"version": 1
			},
			"evm": {
				"assembly": "    /* \"LoanManager.sol\":159:13236  contract LoanManager is ReentrancyGuard{... */\n  mstore(0x40, 0x80)\n  callvalue\n  dup1\n  iszero\n  tag_1\n  jumpi\n  revert(0x00, 0x00)\ntag_1:\n  pop\n    /* \"@openzeppelin/contracts/security/ReentrancyGuard.sol\":1716:1717  1 */\n  0x01\n    /* \"@openzeppelin/contracts/security/ReentrancyGuard.sol\":1821:1828  _status */\n  0x00\n    /* \"@openzeppelin/contracts/security/ReentrancyGuard.sol\":1821:1843  _status = _NOT_ENTERED */\n  dup2\n  swap1\n  sstore\n  pop\n    /* \"LoanManager.sol\":159:13236  contract LoanManager is ReentrancyGuard{... */\n  dataSize(sub_0)\n  dup1\n  dataOffset(sub_0)\n  0x00\n  codecopy\n  0x00\n  return\nstop\n\nsub_0: assembly {\n        /* \"LoanManager.sol\":159:13236  contract LoanManager is ReentrancyGuard{... */\n      mstore(0x40, 0x80)\n      jumpi(tag_1, lt(calldatasize, 0x04))\n      shr(0xe0, calldataload(0x00))\n      dup1\n      0xab7b1c89\n      gt\n      tag_13\n      jumpi\n      dup1\n      0xab7b1c89\n      eq\n      tag_7\n      jumpi\n      dup1\n      0xb96c5cdd\n      eq\n      tag_8\n      jumpi\n      dup1\n      0xbdbfa3de\n      eq\n      tag_9\n      jumpi\n      dup1\n      0xd46bd137\n      eq\n      tag_10\n      jumpi\n      dup1\n      0xe034f3dc\n      eq\n      tag_11\n      jumpi\n      dup1\n      0xe3ed1902\n      eq\n      tag_12\n      jumpi\n      jump(tag_1)\n    tag_13:\n      dup1\n      0x15e303f3\n      eq\n      tag_2\n      jumpi\n      dup1\n      0x1a26e0b7\n      eq\n      tag_3\n      jumpi\n      dup1\n      0x3ddce5a0\n      eq\n      tag_4\n      jumpi\n      dup1\n      0x6be35c6c\n      eq\n      tag_5\n      jumpi\n      dup1\n      0x8f2c3655\n      eq\n      tag_6\n      jumpi\n    tag_1:\n      revert(0x00, 0x00)\n        /* \"LoanManager.sol\":12243:13233  function getLoanFunds(uint256 _loanId) external payable nonReentrant{... */\n    tag_2:\n      tag_14\n      0x04\n      dup1\n      calldatasize\n      sub\n      dup2\n      add\n      swap1\n      tag_15\n      swap2\n      swap1\n      tag_16\n      jump\t// in\n    tag_15:\n      tag_17\n      jump\t// in\n    tag_14:\n      stop\n        /* \"LoanManager.sol\":10310:10950  function getPendingLoanDetailsByInterestRate() public view returns (Loan[] memory) {... */\n    tag_3:\n      callvalue\n      dup1\n      iszero\n      tag_18\n      jumpi\n      revert(0x00, 0x00)\n    tag_18:\n      pop\n      tag_19\n      tag_20\n      jump\t// in\n    tag_19:\n      mload(0x40)\n      tag_21\n      swap2\n      swap1\n      tag_22\n      jump\t// in\n    tag_21:\n      mload(0x40)\n      dup1\n      swap2\n      sub\n      swap1\n      return\n        /* \"LoanManager.sol\":9680:10302  function getPendingLoanDetailsByAmount() public view returns (Loan[] memory) {... */\n    tag_4:\n      callvalue\n      dup1\n      iszero\n      tag_23\n      jumpi\n      revert(0x00, 0x00)\n    tag_23:\n      pop\n      tag_24\n      tag_25\n      jump\t// in\n    tag_24:\n      mload(0x40)\n      tag_26\n      swap2\n      swap1\n      tag_22\n      jump\t// in\n    tag_26:\n      mload(0x40)\n      dup1\n      swap2\n      sub\n      swap1\n      return\n        /* \"LoanManager.sol\":10958:11725  function getPendingLoanByDuration(LoanDuration _duration) public view returns (Loan[] memory){... */\n    tag_5:\n      callvalue\n      dup1\n      iszero\n      tag_27\n      jumpi\n      revert(0x00, 0x00)\n    tag_27:\n      pop\n      tag_28\n      0x04\n      dup1\n      calldatasize\n      sub\n      dup2\n      add\n      swap1\n      tag_29\n      swap2\n      swap1\n      tag_30\n      jump\t// in\n    tag_29:\n      tag_31\n      jump\t// in\n    tag_28:\n      mload(0x40)\n      tag_32\n      swap2\n      swap1\n      tag_22\n      jump\t// in\n    tag_32:\n      mload(0x40)\n      dup1\n      swap2\n      sub\n      swap1\n      return\n        /* \"LoanManager.sol\":5619:7335  function requestLoan(uint256 _amount, LoanDuration _duration) external {//modificare il fatto che possa solo essere paid... */\n    tag_6:\n      callvalue\n      dup1\n      iszero\n      tag_33\n      jumpi\n      revert(0x00, 0x00)\n    tag_33:\n      pop\n      tag_34\n      0x04\n      dup1\n      calldatasize\n      sub\n      dup2\n      add\n      swap1\n      tag_35\n      swap2\n      swap1\n      tag_36\n      jump\t// in\n    tag_35:\n      tag_37\n      jump\t// in\n    tag_34:\n      stop\n        /* \"LoanManager.sol\":8323:9646  function repayLoan(uint256 _loanId) external payable nonReentrant{... */\n    tag_7:\n      tag_38\n      0x04\n      dup1\n      calldatasize\n      sub\n      dup2\n      add\n      swap1\n      tag_39\n      swap2\n      swap1\n      tag_16\n      jump\t// in\n    tag_39:\n      tag_40\n      jump\t// in\n    tag_38:\n      stop\n        /* \"LoanManager.sol\":1281:1334  mapping(address => LoanBorrower) public loanBorrowers */\n    tag_8:\n      callvalue\n      dup1\n      iszero\n      tag_41\n      jumpi\n      revert(0x00, 0x00)\n    tag_41:\n      pop\n      tag_42\n      0x04\n      dup1\n      calldatasize\n      sub\n      dup2\n      add\n      swap1\n      tag_43\n      swap2\n      swap1\n      tag_44\n      jump\t// in\n    tag_43:\n      tag_45\n      jump\t// in\n    tag_42:\n      mload(0x40)\n      tag_46\n      swap3\n      swap2\n      swap1\n      tag_47\n      jump\t// in\n    tag_46:\n      mload(0x40)\n      dup1\n      swap2\n      sub\n      swap1\n      return\n        /* \"LoanManager.sol\":7343:8315  function cancelLoan(uint256 _loanId) external payable nonReentrant{... */\n    tag_9:\n      tag_48\n      0x04\n      dup1\n      calldatasize\n      sub\n      dup2\n      add\n      swap1\n      tag_49\n      swap2\n      swap1\n      tag_16\n      jump\t// in\n    tag_49:\n      tag_50\n      jump\t// in\n    tag_48:\n      stop\n        /* \"LoanManager.sol\":11733:12215  function getRepayLoanInfo(uint _loanId) public view returns (uint256, LoanStatus){... */\n    tag_10:\n      callvalue\n      dup1\n      iszero\n      tag_51\n      jumpi\n      revert(0x00, 0x00)\n    tag_51:\n      pop\n      tag_52\n      0x04\n      dup1\n      calldatasize\n      sub\n      dup2\n      add\n      swap1\n      tag_53\n      swap2\n      swap1\n      tag_16\n      jump\t// in\n    tag_53:\n      tag_54\n      jump\t// in\n    tag_52:\n      mload(0x40)\n      tag_55\n      swap3\n      swap2\n      swap1\n      tag_56\n      jump\t// in\n    tag_55:\n      mload(0x40)\n      dup1\n      swap2\n      sub\n      swap1\n      return\n        /* \"LoanManager.sol\":1202:1243  mapping(uint256 => Loan) public loansById */\n    tag_11:\n      callvalue\n      dup1\n      iszero\n      tag_57\n      jumpi\n      revert(0x00, 0x00)\n    tag_57:\n      pop\n      tag_58\n      0x04\n      dup1\n      calldatasize\n      sub\n      dup2\n      add\n      swap1\n      tag_59\n      swap2\n      swap1\n      tag_16\n      jump\t// in\n    tag_59:\n      tag_60\n      jump\t// in\n    tag_58:\n      mload(0x40)\n      tag_61\n      swap12\n      swap11\n      swap10\n      swap9\n      swap8\n      swap7\n      swap6\n      swap5\n      swap4\n      swap3\n      swap2\n      swap1\n      tag_62\n      jump\t// in\n    tag_61:\n      mload(0x40)\n      dup1\n      swap2\n      sub\n      swap1\n      return\n        /* \"LoanManager.sol\":1389:1439  mapping(address => uint256[]) public borrowerLoans */\n    tag_12:\n      callvalue\n      dup1\n      iszero\n      tag_63\n      jumpi\n      revert(0x00, 0x00)\n    tag_63:\n      pop\n      tag_64\n      0x04\n      dup1\n      calldatasize\n      sub\n      dup2\n      add\n      swap1\n      tag_65\n      swap2\n      swap1\n      tag_66\n      jump\t// in\n    tag_65:\n      tag_67\n      jump\t// in\n    tag_64:\n      mload(0x40)\n      tag_68\n      swap2\n      swap1\n      tag_69\n      jump\t// in\n    tag_68:\n      mload(0x40)\n      dup1\n      swap2\n      sub\n      swap1\n      return\n        /* \"LoanManager.sol\":12243:13233  function getLoanFunds(uint256 _loanId) external payable nonReentrant{... */\n    tag_17:\n        /* \"@openzeppelin/contracts/security/ReentrancyGuard.sol\":2261:2282  _nonReentrantBefore() */\n      tag_71\n        /* \"@openzeppelin/contracts/security/ReentrancyGuard.sol\":2261:2280  _nonReentrantBefore */\n      tag_72\n        /* \"@openzeppelin/contracts/security/ReentrancyGuard.sol\":2261:2282  _nonReentrantBefore() */\n      jump\t// in\n    tag_71:\n        /* \"LoanManager.sol\":12322:12339  Loan storage loan */\n      0x00\n        /* \"LoanManager.sol\":12342:12351  loansById */\n      0x02\n        /* \"LoanManager.sol\":12342:12360  loansById[_loanId] */\n      0x00\n        /* \"LoanManager.sol\":12352:12359  _loanId */\n      dup4\n        /* \"LoanManager.sol\":12342:12360  loansById[_loanId] */\n      dup2\n      mstore\n      0x20\n      add\n      swap1\n      dup2\n      mstore\n      0x20\n      add\n      0x00\n      keccak256\n        /* \"LoanManager.sol\":12322:12360  Loan storage loan = loansById[_loanId] */\n      swap1\n      pop\n        /* \"LoanManager.sol\":12371:12387  address borrower */\n      0x00\n        /* \"LoanManager.sol\":12390:12394  loan */\n      dup2\n        /* \"LoanManager.sol\":12390:12403  loan.borrower */\n      0x01\n      add\n        /* \"LoanManager.sol\":12390:12419  loan.borrower.borrowerAddress */\n      0x00\n      add\n      0x00\n      swap1\n      sload\n      swap1\n      0x0100\n      exp\n      swap1\n      div\n      0xffffffffffffffffffffffffffffffffffffffff\n      and\n        /* \"LoanManager.sol\":12371:12419  address borrower = loan.borrower.borrowerAddress */\n      swap1\n      pop\n        /* \"LoanManager.sol\":12455:12462  _loanId */\n      dup3\n        /* \"LoanManager.sol\":12440:12444  loan */\n      dup3\n        /* \"LoanManager.sol\":12440:12451  loan.loanId */\n      0x00\n      add\n      sload\n        /* \"LoanManager.sol\":12440:12462  loan.loanId == _loanId */\n      eq\n        /* \"LoanManager.sol\":12432:12481  require(loan.loanId == _loanId, \"Loan not found\") */\n      tag_74\n      jumpi\n      mload(0x40)\n      0x08c379a000000000000000000000000000000000000000000000000000000000\n      dup2\n      mstore\n      0x04\n      add\n      tag_75\n      swap1\n      tag_76\n      jump\t// in\n    tag_75:\n      mload(0x40)\n      dup1\n      swap2\n      sub\n      swap1\n      revert\n    tag_74:\n        /* \"LoanManager.sol\":12515:12533  LoanStatus.Pending */\n      0x01\n        /* \"LoanManager.sol\":12500:12533  loan.status == LoanStatus.Pending */\n      0x04\n      dup2\n      gt\n      iszero\n      tag_77\n      jumpi\n      tag_78\n      tag_79\n      jump\t// in\n    tag_78:\n    tag_77:\n        /* \"LoanManager.sol\":12500:12504  loan */\n      dup3\n        /* \"LoanManager.sol\":12500:12511  loan.status */\n      0x0a\n      add\n      0x00\n      swap1\n      sload\n      swap1\n      0x0100\n      exp\n      swap1\n      div\n      0xff\n      and\n        /* \"LoanManager.sol\":12500:12533  loan.status == LoanStatus.Pending */\n      0x04\n      dup2\n      gt\n      iszero\n      tag_80\n      jumpi\n      tag_81\n      tag_79\n      jump\t// in\n    tag_81:\n    tag_80:\n      eq\n        /* \"LoanManager.sol\":12492:12568  require(loan.status == LoanStatus.Pending, \"This loan doesn't need funding\") */\n      tag_82\n      jumpi\n      mload(0x40)\n      0x08c379a000000000000000000000000000000000000000000000000000000000\n      dup2\n      mstore\n      0x04\n      add\n      tag_83\n      swap1\n      tag_84\n      jump\t// in\n    tag_83:\n      mload(0x40)\n      dup1\n      swap2\n      sub\n      swap1\n      revert\n    tag_82:\n        /* \"LoanManager.sol\":12600:12604  loan */\n      dup2\n        /* \"LoanManager.sol\":12600:12611  loan.amount */\n      0x04\n      add\n      sload\n        /* \"LoanManager.sol\":12587:12596  msg.value */\n      callvalue\n        /* \"LoanManager.sol\":12587:12611  msg.value >= loan.amount */\n      lt\n      iszero\n        /* \"LoanManager.sol\":12579:12672  require(msg.value >= loan.amount, \"The amount sent does not match the requested loan amount\") */\n      tag_85\n      jumpi\n      mload(0x40)\n      0x08c379a000000000000000000000000000000000000000000000000000000000\n      dup2\n      mstore\n      0x04\n      add\n      tag_86\n      swap1\n      tag_87\n      jump\t// in\n    tag_86:\n      mload(0x40)\n      dup1\n      swap2\n      sub\n      swap1\n      revert\n    tag_85:\n        /* \"LoanManager.sol\":12703:12713  msg.sender */\n      caller\n        /* \"LoanManager.sol\":12691:12713  borrower != msg.sender */\n      0xffffffffffffffffffffffffffffffffffffffff\n      and\n        /* \"LoanManager.sol\":12691:12699  borrower */\n      dup2\n        /* \"LoanManager.sol\":12691:12713  borrower != msg.sender */\n      0xffffffffffffffffffffffffffffffffffffffff\n      and\n      sub\n        /* \"LoanManager.sol\":12683:12756  require(borrower != msg.sender, \"Lender and borrower cannot be the same\") */\n      tag_88\n      jumpi\n      mload(0x40)\n      0x08c379a000000000000000000000000000000000000000000000000000000000\n      dup2\n      mstore\n      0x04\n      add\n      tag_89\n      swap1\n      tag_90\n      jump\t// in\n    tag_89:\n      mload(0x40)\n      dup1\n      swap2\n      sub\n      swap1\n      revert\n    tag_88:\n        /* \"LoanManager.sol\":12769:12790  uint loanDurationDays */\n      0x00\n        /* \"LoanManager.sol\":12793:12829  getDaysOfLoanDuration(loan.duration) */\n      tag_91\n        /* \"LoanManager.sol\":12815:12819  loan */\n      dup4\n        /* \"LoanManager.sol\":12815:12828  loan.duration */\n      0x0a\n      add\n      0x01\n      swap1\n      sload\n      swap1\n      0x0100\n      exp\n      swap1\n      div\n      0xff\n      and\n        /* \"LoanManager.sol\":12793:12814  getDaysOfLoanDuration */\n      tag_92\n        /* \"LoanManager.sol\":12793:12829  getDaysOfLoanDuration(loan.duration) */\n      jump\t// in\n    tag_91:\n        /* \"LoanManager.sol\":12769:12829  uint loanDurationDays = getDaysOfLoanDuration(loan.duration) */\n      swap1\n      pop\n        /* \"LoanManager.sol\":12856:12866  msg.sender */\n      caller\n        /* \"LoanManager.sol\":12842:12846  loan */\n      dup4\n        /* \"LoanManager.sol\":12842:12853  loan.lender */\n      0x03\n      add\n      0x00\n        /* \"LoanManager.sol\":12842:12866  loan.lender = msg.sender */\n      0x0100\n      exp\n      dup2\n      sload\n      dup2\n      0xffffffffffffffffffffffffffffffffffffffff\n      mul\n      not\n      and\n      swap1\n      dup4\n      0xffffffffffffffffffffffffffffffffffffffff\n      and\n      mul\n      or\n      swap1\n      sstore\n      pop\n        /* \"LoanManager.sol\":12894:12909  block.timestamp */\n      timestamp\n        /* \"LoanManager.sol\":12877:12881  loan */\n      dup4\n        /* \"LoanManager.sol\":12877:12891  loan.startDate */\n      0x07\n      add\n        /* \"LoanManager.sol\":12877:12909  loan.startDate = block.timestamp */\n      dup2\n      swap1\n      sstore\n      pop\n        /* \"LoanManager.sol\":12973:12979  1 days */\n      0x015180\n        /* \"LoanManager.sol\":12954:12970  loanDurationDays */\n      dup2\n        /* \"LoanManager.sol\":12954:12979  loanDurationDays * 1 days */\n      tag_93\n      swap2\n      swap1\n      tag_94\n      jump\t// in\n    tag_93:\n        /* \"LoanManager.sol\":12935:12950  block.timestamp */\n      timestamp\n        /* \"LoanManager.sol\":12935:12980  block.timestamp + (loanDurationDays * 1 days) */\n      tag_95\n      swap2\n      swap1\n      tag_96\n      jump\t// in\n    tag_95:\n        /* \"LoanManager.sol\":12920:12924  loan */\n      dup4\n        /* \"LoanManager.sol\":12920:12932  loan.dueDate */\n      0x08\n      add\n        /* \"LoanManager.sol\":12920:12980  loan.dueDate = block.timestamp + (loanDurationDays * 1 days) */\n      dup2\n      swap1\n      sstore\n      pop\n        /* \"LoanManager.sol\":13005:13022  LoanStatus.Active */\n      0x00\n        /* \"LoanManager.sol\":12991:12995  loan */\n      dup4\n        /* \"LoanManager.sol\":12991:13002  loan.status */\n      0x0a\n      add\n      0x00\n        /* \"LoanManager.sol\":12991:13022  loan.status = LoanStatus.Active */\n      0x0100\n      exp\n      dup2\n      sload\n      dup2\n      0xff\n      mul\n      not\n      and\n      swap1\n      dup4\n      0x04\n      dup2\n      gt\n      iszero\n      tag_97\n      jumpi\n      tag_98\n      tag_79\n      jump\t// in\n    tag_98:\n    tag_97:\n      mul\n      or\n      swap1\n      sstore\n      pop\n        /* \"LoanManager.sol\":13043:13051  borrower */\n      dup2\n        /* \"LoanManager.sol\":13035:13061  payable(borrower).transfer */\n      0xffffffffffffffffffffffffffffffffffffffff\n      and\n        /* \"LoanManager.sol\":13035:13072  payable(borrower).transfer(msg.value) */\n      0x08fc\n        /* \"LoanManager.sol\":13062:13071  msg.value */\n      callvalue\n        /* \"LoanManager.sol\":13035:13072  payable(borrower).transfer(msg.value) */\n      swap1\n      dup2\n      iszero\n      mul\n      swap1\n      mload(0x40)\n      0x00\n      mload(0x40)\n      dup1\n      dup4\n      sub\n      dup2\n      dup6\n      dup9\n      dup9\n      call\n      swap4\n      pop\n      pop\n      pop\n      pop\n      iszero\n      dup1\n      iszero\n      tag_100\n      jumpi\n      returndatacopy(0x00, 0x00, returndatasize)\n      revert(0x00, returndatasize)\n    tag_100:\n      pop\n        /* \"LoanManager.sol\":13083:13121  refundExcess(loan.amount, loan.lender) */\n      tag_101\n        /* \"LoanManager.sol\":13096:13100  loan */\n      dup4\n        /* \"LoanManager.sol\":13096:13107  loan.amount */\n      0x04\n      add\n      sload\n        /* \"LoanManager.sol\":13109:13113  loan */\n      dup5\n        /* \"LoanManager.sol\":13109:13120  loan.lender */\n      0x03\n      add\n      0x00\n      swap1\n      sload\n      swap1\n      0x0100\n      exp\n      swap1\n      div\n      0xffffffffffffffffffffffffffffffffffffffff\n      and\n        /* \"LoanManager.sol\":13083:13095  refundExcess */\n      tag_102\n        /* \"LoanManager.sol\":13083:13121  refundExcess(loan.amount, loan.lender) */\n      jump\t// in\n    tag_101:\n        /* \"LoanManager.sol\":13139:13225  LoanFunded(loan.loanId, msg.sender, borrower, msg.value, loan.startDate, loan.dueDate) */\n      0x8aa0da3f068a2cb6c8967ae3dcba3c1e23f4035d737fd9cb63fb331e85176051\n        /* \"LoanManager.sol\":13150:13154  loan */\n      dup4\n        /* \"LoanManager.sol\":13150:13161  loan.loanId */\n      0x00\n      add\n      sload\n        /* \"LoanManager.sol\":13163:13173  msg.sender */\n      caller\n        /* \"LoanManager.sol\":13175:13183  borrower */\n      dup5\n        /* \"LoanManager.sol\":13185:13194  msg.value */\n      callvalue\n        /* \"LoanManager.sol\":13196:13200  loan */\n      dup8\n        /* \"LoanManager.sol\":13196:13210  loan.startDate */\n      0x07\n      add\n      sload\n        /* \"LoanManager.sol\":13212:13216  loan */\n      dup9\n        /* \"LoanManager.sol\":13212:13224  loan.dueDate */\n      0x08\n      add\n      sload\n        /* \"LoanManager.sol\":13139:13225  LoanFunded(loan.loanId, msg.sender, borrower, msg.value, loan.startDate, loan.dueDate) */\n      mload(0x40)\n      tag_103\n      swap7\n      swap6\n      swap5\n      swap4\n      swap3\n      swap2\n      swap1\n      tag_104\n      jump\t// in\n    tag_103:\n      mload(0x40)\n      dup1\n      swap2\n      sub\n      swap1\n      log1\n        /* \"LoanManager.sol\":12311:13233  {... */\n      pop\n      pop\n      pop\n        /* \"@openzeppelin/contracts/security/ReentrancyGuard.sol\":2303:2323  _nonReentrantAfter() */\n      tag_105\n        /* \"@openzeppelin/contracts/security/ReentrancyGuard.sol\":2303:2321  _nonReentrantAfter */\n      tag_106\n        /* \"@openzeppelin/contracts/security/ReentrancyGuard.sol\":2303:2323  _nonReentrantAfter() */\n      jump\t// in\n    tag_105:\n        /* \"LoanManager.sol\":12243:13233  function getLoanFunds(uint256 _loanId) external payable nonReentrant{... */\n      pop\n      jump\t// out\n        /* \"LoanManager.sol\":10310:10950  function getPendingLoanDetailsByInterestRate() public view returns (Loan[] memory) {... */\n    tag_20:\n        /* \"LoanManager.sol\":10378:10391  Loan[] memory */\n      0x60\n        /* \"LoanManager.sol\":10405:10431  Loan[] memory pendingLoans */\n      0x00\n        /* \"LoanManager.sol\":10433:10457  uint256 pendingLoanCount */\n      0x00\n        /* \"LoanManager.sol\":10461:10483  getPendingLoansArray() */\n      tag_108\n        /* \"LoanManager.sol\":10461:10481  getPendingLoansArray */\n      tag_109\n        /* \"LoanManager.sol\":10461:10483  getPendingLoansArray() */\n      jump\t// in\n    tag_108:\n        /* \"LoanManager.sol\":10404:10483  (Loan[] memory pendingLoans, uint256 pendingLoanCount) = getPendingLoansArray() */\n      swap2\n      pop\n      swap2\n      pop\n        /* \"LoanManager.sol\":10501:10510  uint256 i */\n      0x00\n        /* \"LoanManager.sol\":10513:10514  0 */\n      0x00\n        /* \"LoanManager.sol\":10501:10514  uint256 i = 0 */\n      swap1\n      pop\n        /* \"LoanManager.sol\":10496:10913  for (uint256 i = 0; i < pendingLoanCount; i++) {... */\n    tag_110:\n        /* \"LoanManager.sol\":10520:10536  pendingLoanCount */\n      dup2\n        /* \"LoanManager.sol\":10516:10517  i */\n      dup2\n        /* \"LoanManager.sol\":10516:10536  i < pendingLoanCount */\n      lt\n        /* \"LoanManager.sol\":10496:10913  for (uint256 i = 0; i < pendingLoanCount; i++) {... */\n      iszero\n      tag_111\n      jumpi\n        /* \"LoanManager.sol\":10563:10572  uint256 j */\n      0x00\n        /* \"LoanManager.sol\":10575:10576  0 */\n      0x00\n        /* \"LoanManager.sol\":10563:10576  uint256 j = 0 */\n      swap1\n      pop\n        /* \"LoanManager.sol\":10558:10902  for (uint256 j = 0; j < pendingLoanCount - 1 - i; j++) {... */\n    tag_113:\n        /* \"LoanManager.sol\":10605:10606  i */\n      dup2\n        /* \"LoanManager.sol\":10601:10602  1 */\n      0x01\n        /* \"LoanManager.sol\":10582:10598  pendingLoanCount */\n      dup5\n        /* \"LoanManager.sol\":10582:10602  pendingLoanCount - 1 */\n      tag_116\n      swap2\n      swap1\n      tag_117\n      jump\t// in\n    tag_116:\n        /* \"LoanManager.sol\":10582:10606  pendingLoanCount - 1 - i */\n      tag_118\n      swap2\n      swap1\n      tag_117\n      jump\t// in\n    tag_118:\n        /* \"LoanManager.sol\":10578:10579  j */\n      dup2\n        /* \"LoanManager.sol\":10578:10606  j < pendingLoanCount - 1 - i */\n      lt\n        /* \"LoanManager.sol\":10558:10902  for (uint256 j = 0; j < pendingLoanCount - 1 - i; j++) {... */\n      iszero\n      tag_114\n      jumpi\n        /* \"LoanManager.sol\":10667:10679  pendingLoans */\n      dup4\n        /* \"LoanManager.sol\":10684:10685  1 */\n      0x01\n        /* \"LoanManager.sol\":10680:10681  j */\n      dup3\n        /* \"LoanManager.sol\":10680:10685  j + 1 */\n      tag_119\n      swap2\n      swap1\n      tag_96\n      jump\t// in\n    tag_119:\n        /* \"LoanManager.sol\":10667:10686  pendingLoans[j + 1] */\n      dup2\n      mload\n      dup2\n      lt\n      tag_120\n      jumpi\n      tag_121\n      tag_122\n      jump\t// in\n    tag_121:\n    tag_120:\n      0x20\n      mul\n      0x20\n      add\n      add\n      mload\n        /* \"LoanManager.sol\":10667:10699  pendingLoans[j + 1].interestRate */\n      0x80\n      add\n      mload\n        /* \"LoanManager.sol\":10636:10648  pendingLoans */\n      dup5\n        /* \"LoanManager.sol\":10649:10650  j */\n      dup3\n        /* \"LoanManager.sol\":10636:10651  pendingLoans[j] */\n      dup2\n      mload\n      dup2\n      lt\n      tag_123\n      jumpi\n      tag_124\n      tag_122\n      jump\t// in\n    tag_124:\n    tag_123:\n      0x20\n      mul\n      0x20\n      add\n      add\n      mload\n        /* \"LoanManager.sol\":10636:10664  pendingLoans[j].interestRate */\n      0x80\n      add\n      mload\n        /* \"LoanManager.sol\":10636:10699  pendingLoans[j].interestRate > pendingLoans[j + 1].interestRate */\n      gt\n        /* \"LoanManager.sol\":10632:10887  if (pendingLoans[j].interestRate > pendingLoans[j + 1].interestRate) {... */\n      iszero\n      tag_125\n      jumpi\n        /* \"LoanManager.sol\":10724:10740  Loan memory temp */\n      0x00\n        /* \"LoanManager.sol\":10743:10755  pendingLoans */\n      dup5\n        /* \"LoanManager.sol\":10756:10757  j */\n      dup3\n        /* \"LoanManager.sol\":10743:10758  pendingLoans[j] */\n      dup2\n      mload\n      dup2\n      lt\n      tag_126\n      jumpi\n      tag_127\n      tag_122\n      jump\t// in\n    tag_127:\n    tag_126:\n      0x20\n      mul\n      0x20\n      add\n      add\n      mload\n        /* \"LoanManager.sol\":10724:10758  Loan memory temp = pendingLoans[j] */\n      swap1\n      pop\n        /* \"LoanManager.sol\":10799:10811  pendingLoans */\n      dup5\n        /* \"LoanManager.sol\":10816:10817  1 */\n      0x01\n        /* \"LoanManager.sol\":10812:10813  j */\n      dup4\n        /* \"LoanManager.sol\":10812:10817  j + 1 */\n      tag_128\n      swap2\n      swap1\n      tag_96\n      jump\t// in\n    tag_128:\n        /* \"LoanManager.sol\":10799:10818  pendingLoans[j + 1] */\n      dup2\n      mload\n      dup2\n      lt\n      tag_129\n      jumpi\n      tag_130\n      tag_122\n      jump\t// in\n    tag_130:\n    tag_129:\n      0x20\n      mul\n      0x20\n      add\n      add\n      mload\n        /* \"LoanManager.sol\":10781:10793  pendingLoans */\n      dup6\n        /* \"LoanManager.sol\":10794:10795  j */\n      dup4\n        /* \"LoanManager.sol\":10781:10796  pendingLoans[j] */\n      dup2\n      mload\n      dup2\n      lt\n      tag_131\n      jumpi\n      tag_132\n      tag_122\n      jump\t// in\n    tag_132:\n    tag_131:\n      0x20\n      mul\n      0x20\n      add\n      add\n        /* \"LoanManager.sol\":10781:10818  pendingLoans[j] = pendingLoans[j + 1] */\n      dup2\n      swap1\n      mstore\n      pop\n        /* \"LoanManager.sol\":10863:10867  temp */\n      dup1\n        /* \"LoanManager.sol\":10841:10853  pendingLoans */\n      dup6\n        /* \"LoanManager.sol\":10858:10859  1 */\n      0x01\n        /* \"LoanManager.sol\":10854:10855  j */\n      dup5\n        /* \"LoanManager.sol\":10854:10859  j + 1 */\n      tag_133\n      swap2\n      swap1\n      tag_96\n      jump\t// in\n    tag_133:\n        /* \"LoanManager.sol\":10841:10860  pendingLoans[j + 1] */\n      dup2\n      mload\n      dup2\n      lt\n      tag_134\n      jumpi\n      tag_135\n      tag_122\n      jump\t// in\n    tag_135:\n    tag_134:\n      0x20\n      mul\n      0x20\n      add\n      add\n        /* \"LoanManager.sol\":10841:10867  pendingLoans[j + 1] = temp */\n      dup2\n      swap1\n      mstore\n      pop\n        /* \"LoanManager.sol\":10701:10887  {... */\n      pop\n        /* \"LoanManager.sol\":10632:10887  if (pendingLoans[j].interestRate > pendingLoans[j + 1].interestRate) {... */\n    tag_125:\n        /* \"LoanManager.sol\":10608:10611  j++ */\n      dup1\n      dup1\n      0x01\n      add\n      swap2\n      pop\n      pop\n        /* \"LoanManager.sol\":10558:10902  for (uint256 j = 0; j < pendingLoanCount - 1 - i; j++) {... */\n      jump(tag_113)\n    tag_114:\n      pop\n        /* \"LoanManager.sol\":10538:10541  i++ */\n      dup1\n      dup1\n      0x01\n      add\n      swap2\n      pop\n      pop\n        /* \"LoanManager.sol\":10496:10913  for (uint256 i = 0; i < pendingLoanCount; i++) {... */\n      jump(tag_110)\n    tag_111:\n      pop\n        /* \"LoanManager.sol\":10930:10942  pendingLoans */\n      dup2\n        /* \"LoanManager.sol\":10923:10942  return pendingLoans */\n      swap3\n      pop\n      pop\n      pop\n        /* \"LoanManager.sol\":10310:10950  function getPendingLoanDetailsByInterestRate() public view returns (Loan[] memory) {... */\n      swap1\n      jump\t// out\n        /* \"LoanManager.sol\":9680:10302  function getPendingLoanDetailsByAmount() public view returns (Loan[] memory) {... */\n    tag_25:\n        /* \"LoanManager.sol\":9742:9755  Loan[] memory */\n      0x60\n        /* \"LoanManager.sol\":9769:9795  Loan[] memory pendingLoans */\n      0x00\n        /* \"LoanManager.sol\":9797:9821  uint256 pendingLoanCount */\n      0x00\n        /* \"LoanManager.sol\":9825:9847  getPendingLoansArray() */\n      tag_137\n        /* \"LoanManager.sol\":9825:9845  getPendingLoansArray */\n      tag_109\n        /* \"LoanManager.sol\":9825:9847  getPendingLoansArray() */\n      jump\t// in\n    tag_137:\n        /* \"LoanManager.sol\":9768:9847  (Loan[] memory pendingLoans, uint256 pendingLoanCount) = getPendingLoansArray() */\n      swap2\n      pop\n      swap2\n      pop\n        /* \"LoanManager.sol\":9865:9874  uint256 i */\n      0x00\n        /* \"LoanManager.sol\":9877:9878  0 */\n      0x00\n        /* \"LoanManager.sol\":9865:9878  uint256 i = 0 */\n      swap1\n      pop\n        /* \"LoanManager.sol\":9860:10265  for (uint256 i = 0; i < pendingLoanCount; i++) {... */\n    tag_138:\n        /* \"LoanManager.sol\":9884:9900  pendingLoanCount */\n      dup2\n        /* \"LoanManager.sol\":9880:9881  i */\n      dup2\n        /* \"LoanManager.sol\":9880:9900  i < pendingLoanCount */\n      lt\n        /* \"LoanManager.sol\":9860:10265  for (uint256 i = 0; i < pendingLoanCount; i++) {... */\n      iszero\n      tag_139\n      jumpi\n        /* \"LoanManager.sol\":9927:9936  uint256 j */\n      0x00\n        /* \"LoanManager.sol\":9939:9940  0 */\n      0x00\n        /* \"LoanManager.sol\":9927:9940  uint256 j = 0 */\n      swap1\n      pop\n        /* \"LoanManager.sol\":9922:10254  for (uint256 j = 0; j < pendingLoanCount - 1 - i; j++) {... */\n    tag_141:\n        /* \"LoanManager.sol\":9969:9970  i */\n      dup2\n        /* \"LoanManager.sol\":9965:9966  1 */\n      0x01\n        /* \"LoanManager.sol\":9946:9962  pendingLoanCount */\n      dup5\n        /* \"LoanManager.sol\":9946:9966  pendingLoanCount - 1 */\n      tag_144\n      swap2\n      swap1\n      tag_117\n      jump\t// in\n    tag_144:\n        /* \"LoanManager.sol\":9946:9970  pendingLoanCount - 1 - i */\n      tag_145\n      swap2\n      swap1\n      tag_117\n      jump\t// in\n    tag_145:\n        /* \"LoanManager.sol\":9942:9943  j */\n      dup2\n        /* \"LoanManager.sol\":9942:9970  j < pendingLoanCount - 1 - i */\n      lt\n        /* \"LoanManager.sol\":9922:10254  for (uint256 j = 0; j < pendingLoanCount - 1 - i; j++) {... */\n      iszero\n      tag_142\n      jumpi\n        /* \"LoanManager.sol\":10025:10037  pendingLoans */\n      dup4\n        /* \"LoanManager.sol\":10042:10043  1 */\n      0x01\n        /* \"LoanManager.sol\":10038:10039  j */\n      dup3\n        /* \"LoanManager.sol\":10038:10043  j + 1 */\n      tag_146\n      swap2\n      swap1\n      tag_96\n      jump\t// in\n    tag_146:\n        /* \"LoanManager.sol\":10025:10044  pendingLoans[j + 1] */\n      dup2\n      mload\n      dup2\n      lt\n      tag_147\n      jumpi\n      tag_148\n      tag_122\n      jump\t// in\n    tag_148:\n    tag_147:\n      0x20\n      mul\n      0x20\n      add\n      add\n      mload\n        /* \"LoanManager.sol\":10025:10051  pendingLoans[j + 1].amount */\n      0x60\n      add\n      mload\n        /* \"LoanManager.sol\":10000:10012  pendingLoans */\n      dup5\n        /* \"LoanManager.sol\":10013:10014  j */\n      dup3\n        /* \"LoanManager.sol\":10000:10015  pendingLoans[j] */\n      dup2\n      mload\n      dup2\n      lt\n      tag_149\n      jumpi\n      tag_150\n      tag_122\n      jump\t// in\n    tag_150:\n    tag_149:\n      0x20\n      mul\n      0x20\n      add\n      add\n      mload\n        /* \"LoanManager.sol\":10000:10022  pendingLoans[j].amount */\n      0x60\n      add\n      mload\n        /* \"LoanManager.sol\":10000:10051  pendingLoans[j].amount > pendingLoans[j + 1].amount */\n      gt\n        /* \"LoanManager.sol\":9996:10239  if (pendingLoans[j].amount > pendingLoans[j + 1].amount) {... */\n      iszero\n      tag_151\n      jumpi\n        /* \"LoanManager.sol\":10076:10092  Loan memory temp */\n      0x00\n        /* \"LoanManager.sol\":10095:10107  pendingLoans */\n      dup5\n        /* \"LoanManager.sol\":10108:10109  j */\n      dup3\n        /* \"LoanManager.sol\":10095:10110  pendingLoans[j] */\n      dup2\n      mload\n      dup2\n      lt\n      tag_152\n      jumpi\n      tag_153\n      tag_122\n      jump\t// in\n    tag_153:\n    tag_152:\n      0x20\n      mul\n      0x20\n      add\n      add\n      mload\n        /* \"LoanManager.sol\":10076:10110  Loan memory temp = pendingLoans[j] */\n      swap1\n      pop\n        /* \"LoanManager.sol\":10151:10163  pendingLoans */\n      dup5\n        /* \"LoanManager.sol\":10168:10169  1 */\n      0x01\n        /* \"LoanManager.sol\":10164:10165  j */\n      dup4\n        /* \"LoanManager.sol\":10164:10169  j + 1 */\n      tag_154\n      swap2\n      swap1\n      tag_96\n      jump\t// in\n    tag_154:\n        /* \"LoanManager.sol\":10151:10170  pendingLoans[j + 1] */\n      dup2\n      mload\n      dup2\n      lt\n      tag_155\n      jumpi\n      tag_156\n      tag_122\n      jump\t// in\n    tag_156:\n    tag_155:\n      0x20\n      mul\n      0x20\n      add\n      add\n      mload\n        /* \"LoanManager.sol\":10133:10145  pendingLoans */\n      dup6\n        /* \"LoanManager.sol\":10146:10147  j */\n      dup4\n        /* \"LoanManager.sol\":10133:10148  pendingLoans[j] */\n      dup2\n      mload\n      dup2\n      lt\n      tag_157\n      jumpi\n      tag_158\n      tag_122\n      jump\t// in\n    tag_158:\n    tag_157:\n      0x20\n      mul\n      0x20\n      add\n      add\n        /* \"LoanManager.sol\":10133:10170  pendingLoans[j] = pendingLoans[j + 1] */\n      dup2\n      swap1\n      mstore\n      pop\n        /* \"LoanManager.sol\":10215:10219  temp */\n      dup1\n        /* \"LoanManager.sol\":10193:10205  pendingLoans */\n      dup6\n        /* \"LoanManager.sol\":10210:10211  1 */\n      0x01\n        /* \"LoanManager.sol\":10206:10207  j */\n      dup5\n        /* \"LoanManager.sol\":10206:10211  j + 1 */\n      tag_159\n      swap2\n      swap1\n      tag_96\n      jump\t// in\n    tag_159:\n        /* \"LoanManager.sol\":10193:10212  pendingLoans[j + 1] */\n      dup2\n      mload\n      dup2\n      lt\n      tag_160\n      jumpi\n      tag_161\n      tag_122\n      jump\t// in\n    tag_161:\n    tag_160:\n      0x20\n      mul\n      0x20\n      add\n      add\n        /* \"LoanManager.sol\":10193:10219  pendingLoans[j + 1] = temp */\n      dup2\n      swap1\n      mstore\n      pop\n        /* \"LoanManager.sol\":10053:10239  {... */\n      pop\n        /* \"LoanManager.sol\":9996:10239  if (pendingLoans[j].amount > pendingLoans[j + 1].amount) {... */\n    tag_151:\n        /* \"LoanManager.sol\":9972:9975  j++ */\n      dup1\n      dup1\n      0x01\n      add\n      swap2\n      pop\n      pop\n        /* \"LoanManager.sol\":9922:10254  for (uint256 j = 0; j < pendingLoanCount - 1 - i; j++) {... */\n      jump(tag_141)\n    tag_142:\n      pop\n        /* \"LoanManager.sol\":9902:9905  i++ */\n      dup1\n      dup1\n      0x01\n      add\n      swap2\n      pop\n      pop\n        /* \"LoanManager.sol\":9860:10265  for (uint256 i = 0; i < pendingLoanCount; i++) {... */\n      jump(tag_138)\n    tag_139:\n      pop\n        /* \"LoanManager.sol\":10282:10294  pendingLoans */\n      dup2\n        /* \"LoanManager.sol\":10275:10294  return pendingLoans */\n      swap3\n      pop\n      pop\n      pop\n        /* \"LoanManager.sol\":9680:10302  function getPendingLoanDetailsByAmount() public view returns (Loan[] memory) {... */\n      swap1\n      jump\t// out\n        /* \"LoanManager.sol\":10958:11725  function getPendingLoanByDuration(LoanDuration _duration) public view returns (Loan[] memory){... */\n    tag_31:\n        /* \"LoanManager.sol\":11037:11050  Loan[] memory */\n      0x60\n        /* \"LoanManager.sol\":11063:11089  Loan[] memory pendingLoans */\n      0x00\n        /* \"LoanManager.sol\":11091:11115  uint256 pendingLoanCount */\n      0x00\n        /* \"LoanManager.sol\":11119:11141  getPendingLoansArray() */\n      tag_163\n        /* \"LoanManager.sol\":11119:11139  getPendingLoansArray */\n      tag_109\n        /* \"LoanManager.sol\":11119:11141  getPendingLoansArray() */\n      jump\t// in\n    tag_163:\n        /* \"LoanManager.sol\":11062:11141  (Loan[] memory pendingLoans, uint256 pendingLoanCount) = getPendingLoansArray() */\n      swap2\n      pop\n      swap2\n      pop\n        /* \"LoanManager.sol\":11152:11177  uint256 matchingLoanCount */\n      0x00\n        /* \"LoanManager.sol\":11180:11181  0 */\n      0x00\n        /* \"LoanManager.sol\":11152:11181  uint256 matchingLoanCount = 0 */\n      swap1\n      pop\n        /* \"LoanManager.sol\":11197:11206  uint256 i */\n      0x00\n        /* \"LoanManager.sol\":11209:11210  0 */\n      0x00\n        /* \"LoanManager.sol\":11197:11210  uint256 i = 0 */\n      swap1\n      pop\n        /* \"LoanManager.sol\":11192:11361  for (uint256 i = 0; i < pendingLoanCount; i++) {... */\n    tag_164:\n        /* \"LoanManager.sol\":11216:11232  pendingLoanCount */\n      dup3\n        /* \"LoanManager.sol\":11212:11213  i */\n      dup2\n        /* \"LoanManager.sol\":11212:11232  i < pendingLoanCount */\n      lt\n        /* \"LoanManager.sol\":11192:11361  for (uint256 i = 0; i < pendingLoanCount; i++) {... */\n      iszero\n      tag_165\n      jumpi\n        /* \"LoanManager.sol\":11286:11295  _duration */\n      dup6\n        /* \"LoanManager.sol\":11258:11295  pendingLoans[i].duration == _duration */\n      0x02\n      dup2\n      gt\n      iszero\n      tag_167\n      jumpi\n      tag_168\n      tag_79\n      jump\t// in\n    tag_168:\n    tag_167:\n        /* \"LoanManager.sol\":11258:11270  pendingLoans */\n      dup5\n        /* \"LoanManager.sol\":11271:11272  i */\n      dup3\n        /* \"LoanManager.sol\":11258:11273  pendingLoans[i] */\n      dup2\n      mload\n      dup2\n      lt\n      tag_169\n      jumpi\n      tag_170\n      tag_122\n      jump\t// in\n    tag_170:\n    tag_169:\n      0x20\n      mul\n      0x20\n      add\n      add\n      mload\n        /* \"LoanManager.sol\":11258:11282  pendingLoans[i].duration */\n      0x0140\n      add\n      mload\n        /* \"LoanManager.sol\":11258:11295  pendingLoans[i].duration == _duration */\n      0x02\n      dup2\n      gt\n      iszero\n      tag_171\n      jumpi\n      tag_172\n      tag_79\n      jump\t// in\n    tag_172:\n    tag_171:\n      sub\n        /* \"LoanManager.sol\":11254:11350  if (pendingLoans[i].duration == _duration) {... */\n      tag_173\n      jumpi\n        /* \"LoanManager.sol\":11315:11334  matchingLoanCount++ */\n      dup2\n      dup1\n      tag_174\n      swap1\n      tag_175\n      jump\t// in\n    tag_174:\n      swap3\n      pop\n      pop\n        /* \"LoanManager.sol\":11254:11350  if (pendingLoans[i].duration == _duration) {... */\n    tag_173:\n        /* \"LoanManager.sol\":11234:11237  i++ */\n      dup1\n      dup1\n      0x01\n      add\n      swap2\n      pop\n      pop\n        /* \"LoanManager.sol\":11192:11361  for (uint256 i = 0; i < pendingLoanCount; i++) {... */\n      jump(tag_164)\n    tag_165:\n      pop\n        /* \"LoanManager.sol\":11373:11400  Loan[] memory matchingLoans */\n      0x00\n        /* \"LoanManager.sol\":11414:11431  matchingLoanCount */\n      dup2\n        /* \"LoanManager.sol\":11403:11432  new Loan[](matchingLoanCount) */\n      0xffffffffffffffff\n      dup2\n      gt\n      iszero\n      tag_176\n      jumpi\n      tag_177\n      tag_178\n      jump\t// in\n    tag_177:\n    tag_176:\n      mload(0x40)\n      swap1\n      dup1\n      dup3\n      mstore\n      dup1\n      0x20\n      mul\n      0x20\n      add\n      dup3\n      add\n      0x40\n      mstore\n      dup1\n      iszero\n      tag_179\n      jumpi\n      dup2\n      0x20\n      add\n    tag_180:\n      tag_181\n      tag_182\n      jump\t// in\n    tag_181:\n      dup2\n      mstore\n      0x20\n      add\n      swap1\n      0x01\n      swap1\n      sub\n      swap1\n      dup2\n      tag_180\n      jumpi\n      swap1\n      pop\n    tag_179:\n      pop\n        /* \"LoanManager.sol\":11373:11432  Loan[] memory matchingLoans = new Loan[](matchingLoanCount) */\n      swap1\n      pop\n        /* \"LoanManager.sol\":11443:11456  uint256 index */\n      0x00\n        /* \"LoanManager.sol\":11459:11460  0 */\n      0x00\n        /* \"LoanManager.sol\":11443:11460  uint256 index = 0 */\n      swap1\n      pop\n        /* \"LoanManager.sol\":11477:11486  uint256 i */\n      0x00\n        /* \"LoanManager.sol\":11489:11490  0 */\n      0x00\n        /* \"LoanManager.sol\":11477:11490  uint256 i = 0 */\n      swap1\n      pop\n        /* \"LoanManager.sol\":11473:11687  for(uint256 i = 0; i < pendingLoanCount; i++){... */\n    tag_183:\n        /* \"LoanManager.sol\":11496:11512  pendingLoanCount */\n      dup5\n        /* \"LoanManager.sol\":11492:11493  i */\n      dup2\n        /* \"LoanManager.sol\":11492:11512  i < pendingLoanCount */\n      lt\n        /* \"LoanManager.sol\":11473:11687  for(uint256 i = 0; i < pendingLoanCount; i++){... */\n      iszero\n      tag_184\n      jumpi\n        /* \"LoanManager.sol\":11564:11573  _duration */\n      dup8\n        /* \"LoanManager.sol\":11536:11573  pendingLoans[i].duration == _duration */\n      0x02\n      dup2\n      gt\n      iszero\n      tag_186\n      jumpi\n      tag_187\n      tag_79\n      jump\t// in\n    tag_187:\n    tag_186:\n        /* \"LoanManager.sol\":11536:11548  pendingLoans */\n      dup7\n        /* \"LoanManager.sol\":11549:11550  i */\n      dup3\n        /* \"LoanManager.sol\":11536:11551  pendingLoans[i] */\n      dup2\n      mload\n      dup2\n      lt\n      tag_188\n      jumpi\n      tag_189\n      tag_122\n      jump\t// in\n    tag_189:\n    tag_188:\n      0x20\n      mul\n      0x20\n      add\n      add\n      mload\n        /* \"LoanManager.sol\":11536:11560  pendingLoans[i].duration */\n      0x0140\n      add\n      mload\n        /* \"LoanManager.sol\":11536:11573  pendingLoans[i].duration == _duration */\n      0x02\n      dup2\n      gt\n      iszero\n      tag_190\n      jumpi\n      tag_191\n      tag_79\n      jump\t// in\n    tag_191:\n    tag_190:\n      sub\n        /* \"LoanManager.sol\":11533:11673  if(pendingLoans[i].duration == _duration){... */\n      tag_192\n      jumpi\n        /* \"LoanManager.sol\":11616:11628  pendingLoans */\n      dup6\n        /* \"LoanManager.sol\":11629:11630  i */\n      dup2\n        /* \"LoanManager.sol\":11616:11631  pendingLoans[i] */\n      dup2\n      mload\n      dup2\n      lt\n      tag_193\n      jumpi\n      tag_194\n      tag_122\n      jump\t// in\n    tag_194:\n    tag_193:\n      0x20\n      mul\n      0x20\n      add\n      add\n      mload\n        /* \"LoanManager.sol\":11593:11606  matchingLoans */\n      dup4\n        /* \"LoanManager.sol\":11607:11612  index */\n      dup4\n        /* \"LoanManager.sol\":11593:11613  matchingLoans[index] */\n      dup2\n      mload\n      dup2\n      lt\n      tag_195\n      jumpi\n      tag_196\n      tag_122\n      jump\t// in\n    tag_196:\n    tag_195:\n      0x20\n      mul\n      0x20\n      add\n      add\n        /* \"LoanManager.sol\":11593:11631  matchingLoans[index] = pendingLoans[i] */\n      dup2\n      swap1\n      mstore\n      pop\n        /* \"LoanManager.sol\":11650:11657  index++ */\n      dup2\n      dup1\n      tag_197\n      swap1\n      tag_175\n      jump\t// in\n    tag_197:\n      swap3\n      pop\n      pop\n        /* \"LoanManager.sol\":11533:11673  if(pendingLoans[i].duration == _duration){... */\n    tag_192:\n        /* \"LoanManager.sol\":11514:11517  i++ */\n      dup1\n      dup1\n      0x01\n      add\n      swap2\n      pop\n      pop\n        /* \"LoanManager.sol\":11473:11687  for(uint256 i = 0; i < pendingLoanCount; i++){... */\n      jump(tag_183)\n    tag_184:\n      pop\n        /* \"LoanManager.sol\":11704:11717  matchingLoans */\n      dup2\n        /* \"LoanManager.sol\":11697:11717  return matchingLoans */\n      swap6\n      pop\n      pop\n      pop\n      pop\n      pop\n      pop\n        /* \"LoanManager.sol\":10958:11725  function getPendingLoanByDuration(LoanDuration _duration) public view returns (Loan[] memory){... */\n      swap2\n      swap1\n      pop\n      jump\t// out\n        /* \"LoanManager.sol\":5619:7335  function requestLoan(uint256 _amount, LoanDuration _duration) external {//modificare il fatto che possa solo essere paid... */\n    tag_37:\n        /* \"LoanManager.sol\":5767:5768  0 */\n      0x00\n        /* \"LoanManager.sol\":5757:5764  _amount */\n      dup3\n        /* \"LoanManager.sol\":5757:5768  _amount > 0 */\n      gt\n        /* \"LoanManager.sol\":5749:5814  require(_amount > 0, \"The loan amount must be greater than zero\") */\n      tag_199\n      jumpi\n      mload(0x40)\n      0x08c379a000000000000000000000000000000000000000000000000000000000\n      dup2\n      mstore\n      0x04\n      add\n      tag_200\n      swap1\n      tag_201\n      jump\t// in\n    tag_200:\n      mload(0x40)\n      dup1\n      swap2\n      sub\n      swap1\n      revert\n    tag_199:\n        /* \"LoanManager.sol\":5830:5855  uint256 pendingLoansCount */\n      0x00\n        /* \"LoanManager.sol\":5859:5881  getPendingLoansArray() */\n      tag_202\n        /* \"LoanManager.sol\":5859:5879  getPendingLoansArray */\n      tag_109\n        /* \"LoanManager.sol\":5859:5881  getPendingLoansArray() */\n      jump\t// in\n    tag_202:\n        /* \"LoanManager.sol\":5827:5881  (, uint256 pendingLoansCount) = getPendingLoansArray() */\n      swap2\n      pop\n      pop\n        /* \"LoanManager.sol\":5921:5924  500 */\n      0x01f4\n        /* \"LoanManager.sol\":5900:5917  pendingLoansCount */\n      dup2\n        /* \"LoanManager.sol\":5900:5924  pendingLoansCount <= 500 */\n      gt\n      iszero\n        /* \"LoanManager.sol\":5892:5981  require(pendingLoansCount <= 500, \"Loan limit reached, please wait for a loan to close.\") */\n      tag_203\n      jumpi\n      mload(0x40)\n      0x08c379a000000000000000000000000000000000000000000000000000000000\n      dup2\n      mstore\n      0x04\n      add\n      tag_204\n      swap1\n      tag_205\n      jump\t// in\n    tag_204:\n      mload(0x40)\n      dup1\n      swap2\n      sub\n      swap1\n      revert\n    tag_203:\n        /* \"LoanManager.sol\":5994:6016  uint256[] memory loans */\n      0x00\n        /* \"LoanManager.sol\":6019:6032  borrowerLoans */\n      0x04\n        /* \"LoanManager.sol\":6019:6044  borrowerLoans[msg.sender] */\n      0x00\n        /* \"LoanManager.sol\":6033:6043  msg.sender */\n      caller\n        /* \"LoanManager.sol\":6019:6044  borrowerLoans[msg.sender] */\n      0xffffffffffffffffffffffffffffffffffffffff\n      and\n      0xffffffffffffffffffffffffffffffffffffffff\n      and\n      dup2\n      mstore\n      0x20\n      add\n      swap1\n      dup2\n      mstore\n      0x20\n      add\n      0x00\n      keccak256\n        /* \"LoanManager.sol\":5994:6044  uint256[] memory loans = borrowerLoans[msg.sender] */\n      dup1\n      sload\n      dup1\n      0x20\n      mul\n      0x20\n      add\n      mload(0x40)\n      swap1\n      dup2\n      add\n      0x40\n      mstore\n      dup1\n      swap3\n      swap2\n      swap1\n      dup2\n      dup2\n      mstore\n      0x20\n      add\n      dup3\n      dup1\n      sload\n      dup1\n      iszero\n      tag_206\n      jumpi\n      0x20\n      mul\n      dup3\n      add\n      swap2\n      swap1\n      0x00\n      mstore\n      keccak256(0x00, 0x20)\n      swap1\n    tag_207:\n      dup2\n      sload\n      dup2\n      mstore\n      0x20\n      add\n      swap1\n      0x01\n      add\n      swap1\n      dup1\n      dup4\n      gt\n      tag_207\n      jumpi\n    tag_206:\n      pop\n      pop\n      pop\n      pop\n      pop\n      swap1\n      pop\n        /* \"LoanManager.sol\":6060:6066  uint i */\n      0x00\n        /* \"LoanManager.sol\":6069:6070  0 */\n      0x00\n        /* \"LoanManager.sol\":6060:6070  uint i = 0 */\n      swap1\n      pop\n        /* \"LoanManager.sol\":6055:6341  for (uint i = 0; i < loans.length; i++) {... */\n    tag_208:\n        /* \"LoanManager.sol\":6076:6081  loans */\n      dup2\n        /* \"LoanManager.sol\":6076:6088  loans.length */\n      mload\n        /* \"LoanManager.sol\":6072:6073  i */\n      dup2\n        /* \"LoanManager.sol\":6072:6088  i < loans.length */\n      lt\n        /* \"LoanManager.sol\":6055:6341  for (uint i = 0; i < loans.length; i++) {... */\n      iszero\n      tag_209\n      jumpi\n        /* \"LoanManager.sol\":6110:6124  uint256 loanId */\n      0x00\n        /* \"LoanManager.sol\":6127:6132  loans */\n      dup3\n        /* \"LoanManager.sol\":6133:6134  i */\n      dup3\n        /* \"LoanManager.sol\":6127:6135  loans[i] */\n      dup2\n      mload\n      dup2\n      lt\n      tag_211\n      jumpi\n      tag_212\n      tag_122\n      jump\t// in\n    tag_212:\n    tag_211:\n      0x20\n      mul\n      0x20\n      add\n      add\n      mload\n        /* \"LoanManager.sol\":6110:6135  uint256 loanId = loans[i] */\n      swap1\n      pop\n        /* \"LoanManager.sol\":6150:6170  Loan memory userLoan */\n      0x00\n        /* \"LoanManager.sol\":6173:6182  loansById */\n      0x02\n        /* \"LoanManager.sol\":6173:6190  loansById[loanId] */\n      0x00\n        /* \"LoanManager.sol\":6183:6189  loanId */\n      dup4\n        /* \"LoanManager.sol\":6173:6190  loansById[loanId] */\n      dup2\n      mstore\n      0x20\n      add\n      swap1\n      dup2\n      mstore\n      0x20\n      add\n      0x00\n      keccak256\n        /* \"LoanManager.sol\":6150:6190  Loan memory userLoan = loansById[loanId] */\n      mload(0x40)\n      dup1\n      0x0160\n      add\n      0x40\n      mstore\n      swap1\n      dup2\n      0x00\n      dup3\n      add\n      sload\n      dup2\n      mstore\n      0x20\n      add\n      0x01\n      dup3\n      add\n      mload(0x40)\n      dup1\n      0x60\n      add\n      0x40\n      mstore\n      swap1\n      dup2\n      0x00\n      dup3\n      add\n      0x00\n      swap1\n      sload\n      swap1\n      0x0100\n      exp\n      swap1\n      div\n      0xffffffffffffffffffffffffffffffffffffffff\n      and\n      0xffffffffffffffffffffffffffffffffffffffff\n      and\n      0xffffffffffffffffffffffffffffffffffffffff\n      and\n      dup2\n      mstore\n      0x20\n      add\n      0x00\n      dup3\n      add\n      0x14\n      swap1\n      sload\n      swap1\n      0x0100\n      exp\n      swap1\n      div\n      0xff\n      and\n      0xff\n      and\n      0xff\n      and\n      dup2\n      mstore\n      0x20\n      add\n      0x01\n      dup3\n      add\n      dup1\n      sload\n      dup1\n      0x20\n      mul\n      0x20\n      add\n      mload(0x40)\n      swap1\n      dup2\n      add\n      0x40\n      mstore\n      dup1\n      swap3\n      swap2\n      swap1\n      dup2\n      dup2\n      mstore\n      0x20\n      add\n      dup3\n      dup1\n      sload\n      dup1\n      iszero\n      tag_213\n      jumpi\n      0x20\n      mul\n      dup3\n      add\n      swap2\n      swap1\n      0x00\n      mstore\n      keccak256(0x00, 0x20)\n      swap1\n    tag_214:\n      dup2\n      sload\n      dup2\n      mstore\n      0x20\n      add\n      swap1\n      0x01\n      add\n      swap1\n      dup1\n      dup4\n      gt\n      tag_214\n      jumpi\n    tag_213:\n      pop\n      pop\n      pop\n      pop\n      pop\n      dup2\n      mstore\n      pop\n      pop\n      dup2\n      mstore\n      0x20\n      add\n      0x03\n      dup3\n      add\n      0x00\n      swap1\n      sload\n      swap1\n      0x0100\n      exp\n      swap1\n      div\n      0xffffffffffffffffffffffffffffffffffffffff\n      and\n      0xffffffffffffffffffffffffffffffffffffffff\n      and\n      0xffffffffffffffffffffffffffffffffffffffff\n      and\n      dup2\n      mstore\n      0x20\n      add\n      0x04\n      dup3\n      add\n      sload\n      dup2\n      mstore\n      0x20\n      add\n      0x05\n      dup3\n      add\n      sload\n      dup2\n      mstore\n      0x20\n      add\n      0x06\n      dup3\n      add\n      sload\n      dup2\n      mstore\n      0x20\n      add\n      0x07\n      dup3\n      add\n      sload\n      dup2\n      mstore\n      0x20\n      add\n      0x08\n      dup3\n      add\n      sload\n      dup2\n      mstore\n      0x20\n      add\n      0x09\n      dup3\n      add\n      sload\n      dup2\n      mstore\n      0x20\n      add\n      0x0a\n      dup3\n      add\n      0x00\n      swap1\n      sload\n      swap1\n      0x0100\n      exp\n      swap1\n      div\n      0xff\n      and\n      0x04\n      dup2\n      gt\n      iszero\n      tag_215\n      jumpi\n      tag_216\n      tag_79\n      jump\t// in\n    tag_216:\n    tag_215:\n      0x04\n      dup2\n      gt\n      iszero\n      tag_217\n      jumpi\n      tag_218\n      tag_79\n      jump\t// in\n    tag_218:\n    tag_217:\n      dup2\n      mstore\n      0x20\n      add\n      0x0a\n      dup3\n      add\n      0x01\n      swap1\n      sload\n      swap1\n      0x0100\n      exp\n      swap1\n      div\n      0xff\n      and\n      0x02\n      dup2\n      gt\n      iszero\n      tag_219\n      jumpi\n      tag_220\n      tag_79\n      jump\t// in\n    tag_220:\n    tag_219:\n      0x02\n      dup2\n      gt\n      iszero\n      tag_221\n      jumpi\n      tag_222\n      tag_79\n      jump\t// in\n    tag_222:\n    tag_221:\n      dup2\n      mstore\n      pop\n      pop\n      swap1\n      pop\n        /* \"LoanManager.sol\":6232:6247  LoanStatus.Paid */\n      0x02\n        /* \"LoanManager.sol\":6213:6247  userLoan.status == LoanStatus.Paid */\n      0x04\n      dup2\n      gt\n      iszero\n      tag_223\n      jumpi\n      tag_224\n      tag_79\n      jump\t// in\n    tag_224:\n    tag_223:\n        /* \"LoanManager.sol\":6213:6221  userLoan */\n      dup2\n        /* \"LoanManager.sol\":6213:6228  userLoan.status */\n      0x0120\n      add\n      mload\n        /* \"LoanManager.sol\":6213:6247  userLoan.status == LoanStatus.Paid */\n      0x04\n      dup2\n      gt\n      iszero\n      tag_225\n      jumpi\n      tag_226\n      tag_79\n      jump\t// in\n    tag_226:\n    tag_225:\n      eq\n        /* \"LoanManager.sol\":6205:6328  require(userLoan.status == LoanStatus.Paid, \"You cannot request a new loan if you have pending, active, or overdue loans.\") */\n      tag_227\n      jumpi\n      mload(0x40)\n      0x08c379a000000000000000000000000000000000000000000000000000000000\n      dup2\n      mstore\n      0x04\n      add\n      tag_228\n      swap1\n      tag_229\n      jump\t// in\n    tag_228:\n      mload(0x40)\n      dup1\n      swap2\n      sub\n      swap1\n      revert\n    tag_227:\n        /* \"LoanManager.sol\":6095:6341  {... */\n      pop\n      pop\n        /* \"LoanManager.sol\":6090:6093  i++ */\n      dup1\n      dup1\n      0x01\n      add\n      swap2\n      pop\n      pop\n        /* \"LoanManager.sol\":6055:6341  for (uint i = 0; i < loans.length; i++) {... */\n      jump(tag_208)\n    tag_209:\n      pop\n        /* \"LoanManager.sol\":6353:6364  loanCounter */\n      0x01\n      0x00\n        /* \"LoanManager.sol\":6353:6366  loanCounter++ */\n      dup2\n      sload\n      dup1\n      swap3\n      swap2\n      swap1\n      tag_230\n      swap1\n      tag_175\n      jump\t// in\n    tag_230:\n      swap2\n      swap1\n      pop\n      sstore\n      pop\n        /* \"LoanManager.sol\":6387:6408  uint256 numberOfLoans */\n      0x00\n        /* \"LoanManager.sol\":6411:6424  borrowerLoans */\n      0x04\n        /* \"LoanManager.sol\":6411:6436  borrowerLoans[msg.sender] */\n      0x00\n        /* \"LoanManager.sol\":6425:6435  msg.sender */\n      caller\n        /* \"LoanManager.sol\":6411:6436  borrowerLoans[msg.sender] */\n      0xffffffffffffffffffffffffffffffffffffffff\n      and\n      0xffffffffffffffffffffffffffffffffffffffff\n      and\n      dup2\n      mstore\n      0x20\n      add\n      swap1\n      dup2\n      mstore\n      0x20\n      add\n      0x00\n      keccak256\n        /* \"LoanManager.sol\":6411:6443  borrowerLoans[msg.sender].length */\n      dup1\n      sload\n      swap1\n      pop\n        /* \"LoanManager.sol\":6387:6443  uint256 numberOfLoans = borrowerLoans[msg.sender].length */\n      swap1\n      pop\n        /* \"LoanManager.sol\":6454:6479  uint8 borrowerCreditScore */\n      0x00\n        /* \"LoanManager.sol\":6500:6501  0 */\n      0x00\n        /* \"LoanManager.sol\":6483:6496  numberOfLoans */\n      dup3\n        /* \"LoanManager.sol\":6483:6501  numberOfLoans == 0 */\n      eq\n        /* \"LoanManager.sol\":6482:6546  (numberOfLoans == 0) ? 1 : loanBorrowers[msg.sender].creditScore */\n      tag_231\n      jumpi\n        /* \"LoanManager.sol\":6509:6522  loanBorrowers */\n      0x03\n        /* \"LoanManager.sol\":6509:6534  loanBorrowers[msg.sender] */\n      0x00\n        /* \"LoanManager.sol\":6523:6533  msg.sender */\n      caller\n        /* \"LoanManager.sol\":6509:6534  loanBorrowers[msg.sender] */\n      0xffffffffffffffffffffffffffffffffffffffff\n      and\n      0xffffffffffffffffffffffffffffffffffffffff\n      and\n      dup2\n      mstore\n      0x20\n      add\n      swap1\n      dup2\n      mstore\n      0x20\n      add\n      0x00\n      keccak256\n        /* \"LoanManager.sol\":6509:6546  loanBorrowers[msg.sender].creditScore */\n      0x00\n      add\n      0x14\n      swap1\n      sload\n      swap1\n      0x0100\n      exp\n      swap1\n      div\n      0xff\n      and\n        /* \"LoanManager.sol\":6482:6546  (numberOfLoans == 0) ? 1 : loanBorrowers[msg.sender].creditScore */\n      jump(tag_232)\n    tag_231:\n        /* \"LoanManager.sol\":6505:6506  1 */\n      0x01\n        /* \"LoanManager.sol\":6482:6546  (numberOfLoans == 0) ? 1 : loanBorrowers[msg.sender].creditScore */\n    tag_232:\n        /* \"LoanManager.sol\":6454:6546  uint8 borrowerCreditScore = (numberOfLoans == 0) ? 1 : loanBorrowers[msg.sender].creditScore */\n      swap1\n      pop\n        /* \"LoanManager.sol\":6560:6590  uint256 annualizedInterestRate */\n      0x00\n        /* \"LoanManager.sol\":6592:6621  uint256 annualizedPenaltyRate */\n      0x00\n        /* \"LoanManager.sol\":6625:6672  loanInterestRateCalculator(borrowerCreditScore) */\n      tag_233\n        /* \"LoanManager.sol\":6652:6671  borrowerCreditScore */\n      dup4\n        /* \"LoanManager.sol\":6625:6651  loanInterestRateCalculator */\n      tag_234\n        /* \"LoanManager.sol\":6625:6672  loanInterestRateCalculator(borrowerCreditScore) */\n      jump\t// in\n    tag_233:\n        /* \"LoanManager.sol\":6559:6672  (uint256 annualizedInterestRate, uint256 annualizedPenaltyRate) = loanInterestRateCalculator(borrowerCreditScore) */\n      swap2\n      pop\n      swap2\n      pop\n        /* \"LoanManager.sol\":6685:6704  Loan memory newLoan */\n      0x00\n        /* \"LoanManager.sol\":6707:7175  Loan({... */\n      mload(0x40)\n      dup1\n      0x0160\n      add\n      0x40\n      mstore\n      dup1\n        /* \"LoanManager.sol\":6735:6746  loanCounter */\n      sload(0x01)\n        /* \"LoanManager.sol\":6707:7175  Loan({... */\n      dup2\n      mstore\n      0x20\n      add\n        /* \"LoanManager.sol\":6771:6843  LoanBorrower(msg.sender, borrowerCreditScore, borrowerLoans[msg.sender]) */\n      mload(0x40)\n      dup1\n      0x60\n      add\n      0x40\n      mstore\n      dup1\n        /* \"LoanManager.sol\":6784:6794  msg.sender */\n      caller\n        /* \"LoanManager.sol\":6771:6843  LoanBorrower(msg.sender, borrowerCreditScore, borrowerLoans[msg.sender]) */\n      0xffffffffffffffffffffffffffffffffffffffff\n      and\n      dup2\n      mstore\n      0x20\n      add\n        /* \"LoanManager.sol\":6796:6815  borrowerCreditScore */\n      dup8\n        /* \"LoanManager.sol\":6771:6843  LoanBorrower(msg.sender, borrowerCreditScore, borrowerLoans[msg.sender]) */\n      0xff\n      and\n      dup2\n      mstore\n      0x20\n      add\n        /* \"LoanManager.sol\":6817:6830  borrowerLoans */\n      0x04\n        /* \"LoanManager.sol\":6817:6842  borrowerLoans[msg.sender] */\n      0x00\n        /* \"LoanManager.sol\":6831:6841  msg.sender */\n      caller\n        /* \"LoanManager.sol\":6817:6842  borrowerLoans[msg.sender] */\n      0xffffffffffffffffffffffffffffffffffffffff\n      and\n      0xffffffffffffffffffffffffffffffffffffffff\n      and\n      dup2\n      mstore\n      0x20\n      add\n      swap1\n      dup2\n      mstore\n      0x20\n      add\n      0x00\n      keccak256\n        /* \"LoanManager.sol\":6771:6843  LoanBorrower(msg.sender, borrowerCreditScore, borrowerLoans[msg.sender]) */\n      dup1\n      sload\n      dup1\n      0x20\n      mul\n      0x20\n      add\n      mload(0x40)\n      swap1\n      dup2\n      add\n      0x40\n      mstore\n      dup1\n      swap3\n      swap2\n      swap1\n      dup2\n      dup2\n      mstore\n      0x20\n      add\n      dup3\n      dup1\n      sload\n      dup1\n      iszero\n      tag_235\n      jumpi\n      0x20\n      mul\n      dup3\n      add\n      swap2\n      swap1\n      0x00\n      mstore\n      keccak256(0x00, 0x20)\n      swap1\n    tag_236:\n      dup2\n      sload\n      dup2\n      mstore\n      0x20\n      add\n      swap1\n      0x01\n      add\n      swap1\n      dup1\n      dup4\n      gt\n      tag_236\n      jumpi\n    tag_235:\n      pop\n      pop\n      pop\n      pop\n      pop\n      dup2\n      mstore\n      pop\n        /* \"LoanManager.sol\":6707:7175  Loan({... */\n      dup2\n      mstore\n      0x20\n      add\n        /* \"LoanManager.sol\":6875:6876  0 */\n      0x00\n        /* \"LoanManager.sol\":6707:7175  Loan({... */\n      0xffffffffffffffffffffffffffffffffffffffff\n      and\n      dup2\n      mstore\n      0x20\n      add\n        /* \"LoanManager.sol\":6900:6907  _amount */\n      dup11\n        /* \"LoanManager.sol\":6707:7175  Loan({... */\n      dup2\n      mstore\n      0x20\n      add\n        /* \"LoanManager.sol\":6936:6958  annualizedInterestRate */\n      dup5\n        /* \"LoanManager.sol\":6707:7175  Loan({... */\n      dup2\n      mstore\n      0x20\n      add\n        /* \"LoanManager.sol\":6986:7007  annualizedPenaltyRate */\n      dup4\n        /* \"LoanManager.sol\":6707:7175  Loan({... */\n      dup2\n      mstore\n      0x20\n      add\n        /* \"LoanManager.sol\":7033:7034  0 */\n      0x00\n        /* \"LoanManager.sol\":6707:7175  Loan({... */\n      dup2\n      mstore\n      0x20\n      add\n        /* \"LoanManager.sol\":7058:7059  0 */\n      0x00\n        /* \"LoanManager.sol\":6707:7175  Loan({... */\n      dup2\n      mstore\n      0x20\n      add\n        /* \"LoanManager.sol\":7087:7088  0 */\n      0x00\n        /* \"LoanManager.sol\":6707:7175  Loan({... */\n      dup2\n      mstore\n      0x20\n      add\n        /* \"LoanManager.sol\":7111:7129  LoanStatus.Pending */\n      0x01\n        /* \"LoanManager.sol\":6707:7175  Loan({... */\n      0x04\n      dup2\n      gt\n      iszero\n      tag_237\n      jumpi\n      tag_238\n      tag_79\n      jump\t// in\n    tag_238:\n    tag_237:\n      dup2\n      mstore\n      0x20\n      add\n        /* \"LoanManager.sol\":7154:7163  _duration */\n      dup10\n        /* \"LoanManager.sol\":6707:7175  Loan({... */\n      0x02\n      dup2\n      gt\n      iszero\n      tag_239\n      jumpi\n      tag_240\n      tag_79\n      jump\t// in\n    tag_240:\n    tag_239:\n      dup2\n      mstore\n      pop\n        /* \"LoanManager.sol\":6685:7175  Loan memory newLoan = Loan({... */\n      swap1\n      pop\n        /* \"LoanManager.sol\":7188:7207  addNewLoan(newLoan) */\n      tag_241\n        /* \"LoanManager.sol\":7199:7206  newLoan */\n      dup2\n        /* \"LoanManager.sol\":7188:7198  addNewLoan */\n      tag_242\n        /* \"LoanManager.sol\":7188:7207  addNewLoan(newLoan) */\n      jump\t// in\n    tag_241:\n        /* \"LoanManager.sol\":7293:7315  annualizedInterestRate */\n      dup3\n        /* \"LoanManager.sol\":7264:7271  _amount */\n      dup10\n        /* \"LoanManager.sol\":7252:7262  msg.sender */\n      caller\n        /* \"LoanManager.sol\":7225:7327  LoanRequested(loanCounter, msg.sender, _amount, LoanStatus.Pending, annualizedInterestRate, _duration) */\n      0xffffffffffffffffffffffffffffffffffffffff\n      and\n      0x8c5be3bc7c6d15ac2f78c4515185b40c4c09e598b09da542512dba3cf0f49407\n        /* \"LoanManager.sol\":7239:7250  loanCounter */\n      sload(0x01)\n        /* \"LoanManager.sol\":7273:7291  LoanStatus.Pending */\n      0x01\n        /* \"LoanManager.sol\":7317:7326  _duration */\n      dup14\n        /* \"LoanManager.sol\":7225:7327  LoanRequested(loanCounter, msg.sender, _amount, LoanStatus.Pending, annualizedInterestRate, _duration) */\n      mload(0x40)\n      tag_243\n      swap4\n      swap3\n      swap2\n      swap1\n      tag_244\n      jump\t// in\n    tag_243:\n      mload(0x40)\n      dup1\n      swap2\n      sub\n      swap1\n      log4\n        /* \"LoanManager.sol\":5690:7335  {//modificare il fatto che possa solo essere paid... */\n      pop\n      pop\n      pop\n      pop\n      pop\n      pop\n      pop\n        /* \"LoanManager.sol\":5619:7335  function requestLoan(uint256 _amount, LoanDuration _duration) external {//modificare il fatto che possa solo essere paid... */\n      pop\n      pop\n      jump\t// out\n        /* \"LoanManager.sol\":8323:9646  function repayLoan(uint256 _loanId) external payable nonReentrant{... */\n    tag_40:\n        /* \"@openzeppelin/contracts/security/ReentrancyGuard.sol\":2261:2282  _nonReentrantBefore() */\n      tag_246\n        /* \"@openzeppelin/contracts/security/ReentrancyGuard.sol\":2261:2280  _nonReentrantBefore */\n      tag_72\n        /* \"@openzeppelin/contracts/security/ReentrancyGuard.sol\":2261:2282  _nonReentrantBefore() */\n      jump\t// in\n    tag_246:\n        /* \"LoanManager.sol\":8399:8416  Loan storage loan */\n      0x00\n        /* \"LoanManager.sol\":8419:8428  loansById */\n      0x02\n        /* \"LoanManager.sol\":8419:8437  loansById[_loanId] */\n      0x00\n        /* \"LoanManager.sol\":8429:8436  _loanId */\n      dup4\n        /* \"LoanManager.sol\":8419:8437  loansById[_loanId] */\n      dup2\n      mstore\n      0x20\n      add\n      swap1\n      dup2\n      mstore\n      0x20\n      add\n      0x00\n      keccak256\n        /* \"LoanManager.sol\":8399:8437  Loan storage loan = loansById[_loanId] */\n      swap1\n      pop\n        /* \"LoanManager.sol\":8448:8481  LoanBorrower storage loanBorrower */\n      0x00\n        /* \"LoanManager.sol\":8484:8488  loan */\n      dup2\n        /* \"LoanManager.sol\":8484:8497  loan.borrower */\n      0x01\n      add\n        /* \"LoanManager.sol\":8448:8497  LoanBorrower storage loanBorrower = loan.borrower */\n      swap1\n      pop\n        /* \"LoanManager.sol\":8532:8536  loan */\n      dup2\n        /* \"LoanManager.sol\":8532:8545  loan.borrower */\n      0x01\n      add\n        /* \"LoanManager.sol\":8532:8561  loan.borrower.borrowerAddress */\n      0x00\n      add\n      0x00\n      swap1\n      sload\n      swap1\n      0x0100\n      exp\n      swap1\n      div\n      0xffffffffffffffffffffffffffffffffffffffff\n      and\n        /* \"LoanManager.sol\":8518:8561  msg.sender == loan.borrower.borrowerAddress */\n      0xffffffffffffffffffffffffffffffffffffffff\n      and\n        /* \"LoanManager.sol\":8518:8528  msg.sender */\n      caller\n        /* \"LoanManager.sol\":8518:8561  msg.sender == loan.borrower.borrowerAddress */\n      0xffffffffffffffffffffffffffffffffffffffff\n      and\n      eq\n        /* \"LoanManager.sol\":8510:8603  require(msg.sender == loan.borrower.borrowerAddress, \"Only the borrower can repay this loan\") */\n      tag_248\n      jumpi\n      mload(0x40)\n      0x08c379a000000000000000000000000000000000000000000000000000000000\n      dup2\n      mstore\n      0x04\n      add\n      tag_249\n      swap1\n      tag_250\n      jump\t// in\n    tag_249:\n      mload(0x40)\n      dup1\n      swap2\n      sub\n      swap1\n      revert\n    tag_248:\n        /* \"LoanManager.sol\":8637:8654  LoanStatus.Active */\n      0x00\n        /* \"LoanManager.sol\":8622:8654  loan.status == LoanStatus.Active */\n      0x04\n      dup2\n      gt\n      iszero\n      tag_251\n      jumpi\n      tag_252\n      tag_79\n      jump\t// in\n    tag_252:\n    tag_251:\n        /* \"LoanManager.sol\":8622:8626  loan */\n      dup3\n        /* \"LoanManager.sol\":8622:8633  loan.status */\n      0x0a\n      add\n      0x00\n      swap1\n      sload\n      swap1\n      0x0100\n      exp\n      swap1\n      div\n      0xff\n      and\n        /* \"LoanManager.sol\":8622:8654  loan.status == LoanStatus.Active */\n      0x04\n      dup2\n      gt\n      iszero\n      tag_253\n      jumpi\n      tag_254\n      tag_79\n      jump\t// in\n    tag_254:\n    tag_253:\n      eq\n        /* \"LoanManager.sol\":8622:8691  loan.status == LoanStatus.Active || loan.status == LoanStatus.Overdue */\n      dup1\n      tag_255\n      jumpi\n      pop\n        /* \"LoanManager.sol\":8673:8691  LoanStatus.Overdue */\n      0x03\n        /* \"LoanManager.sol\":8658:8691  loan.status == LoanStatus.Overdue */\n      0x04\n      dup2\n      gt\n      iszero\n      tag_256\n      jumpi\n      tag_257\n      tag_79\n      jump\t// in\n    tag_257:\n    tag_256:\n        /* \"LoanManager.sol\":8658:8662  loan */\n      dup3\n        /* \"LoanManager.sol\":8658:8669  loan.status */\n      0x0a\n      add\n      0x00\n      swap1\n      sload\n      swap1\n      0x0100\n      exp\n      swap1\n      div\n      0xff\n      and\n        /* \"LoanManager.sol\":8658:8691  loan.status == LoanStatus.Overdue */\n      0x04\n      dup2\n      gt\n      iszero\n      tag_258\n      jumpi\n      tag_259\n      tag_79\n      jump\t// in\n    tag_259:\n    tag_258:\n      eq\n        /* \"LoanManager.sol\":8622:8691  loan.status == LoanStatus.Active || loan.status == LoanStatus.Overdue */\n    tag_255:\n        /* \"LoanManager.sol\":8614:8721  require(loan.status == LoanStatus.Active || loan.status == LoanStatus.Overdue, \"There is no loan to repay\") */\n      tag_260\n      jumpi\n      mload(0x40)\n      0x08c379a000000000000000000000000000000000000000000000000000000000\n      dup2\n      mstore\n      0x04\n      add\n      tag_261\n      swap1\n      tag_262\n      jump\t// in\n    tag_261:\n      mload(0x40)\n      dup1\n      swap2\n      sub\n      swap1\n      revert\n    tag_260:\n        /* \"LoanManager.sol\":8735:8751  uint repayAmount */\n      0x00\n        /* \"LoanManager.sol\":8757:8784  checkRepayLoanInfo(_loanId) */\n      tag_263\n        /* \"LoanManager.sol\":8776:8783  _loanId */\n      dup5\n        /* \"LoanManager.sol\":8757:8775  checkRepayLoanInfo */\n      tag_264\n        /* \"LoanManager.sol\":8757:8784  checkRepayLoanInfo(_loanId) */\n      jump\t// in\n    tag_263:\n        /* \"LoanManager.sol\":8734:8784  (uint repayAmount, ) = checkRepayLoanInfo(_loanId) */\n      pop\n      swap1\n      pop\n        /* \"LoanManager.sol\":8813:8824  repayAmount */\n      dup1\n        /* \"LoanManager.sol\":8800:8809  msg.value */\n      callvalue\n        /* \"LoanManager.sol\":8800:8824  msg.value >= repayAmount */\n      lt\n        /* \"LoanManager.sol\":8797:9519  if(msg.value >= repayAmount){... */\n      tag_265\n      jumpi\n        /* \"LoanManager.sol\":8864:8868  loan */\n      dup3\n        /* \"LoanManager.sol\":8864:8876  loan.dueDate */\n      0x08\n      add\n      sload\n        /* \"LoanManager.sol\":8845:8860  block.timestamp */\n      timestamp\n        /* \"LoanManager.sol\":8845:8876  block.timestamp <= loan.dueDate */\n      gt\n        /* \"LoanManager.sol\":8842:9295  if(block.timestamp <= loan.dueDate){... */\n      tag_266\n      jumpi\n        /* \"LoanManager.sol\":8925:8926  4 */\n      0x04\n        /* \"LoanManager.sol\":8899:8911  loanBorrower */\n      dup3\n        /* \"LoanManager.sol\":8899:8923  loanBorrower.creditScore */\n      0x00\n      add\n      0x14\n      swap1\n      sload\n      swap1\n      0x0100\n      exp\n      swap1\n      div\n      0xff\n      and\n        /* \"LoanManager.sol\":8899:8926  loanBorrower.creditScore <4 */\n      0xff\n      and\n      lt\n        /* \"LoanManager.sol\":8896:8999  if(loanBorrower.creditScore <4){... */\n      iszero\n      tag_267\n      jumpi\n        /* \"LoanManager.sol\":8978:8979  1 */\n      0x01\n        /* \"LoanManager.sol\":8950:8962  loanBorrower */\n      dup3\n        /* \"LoanManager.sol\":8950:8974  loanBorrower.creditScore */\n      0x00\n      add\n      0x14\n        /* \"LoanManager.sol\":8950:8979  loanBorrower.creditScore += 1 */\n      dup3\n      dup3\n      dup3\n      swap1\n      sload\n      swap1\n      0x0100\n      exp\n      swap1\n      div\n      0xff\n      and\n      tag_268\n      swap2\n      swap1\n      tag_269\n      jump\t// in\n    tag_268:\n      swap3\n      pop\n      0x0100\n      exp\n      dup2\n      sload\n      dup2\n      0xff\n      mul\n      not\n      and\n      swap1\n      dup4\n      0xff\n      and\n      mul\n      or\n      swap1\n      sstore\n      pop\n        /* \"LoanManager.sol\":8896:8999  if(loanBorrower.creditScore <4){... */\n    tag_267:\n        /* \"LoanManager.sol\":9031:9046  LoanStatus.Paid */\n      0x02\n        /* \"LoanManager.sol\":9017:9021  loan */\n      dup4\n        /* \"LoanManager.sol\":9017:9028  loan.status */\n      0x0a\n      add\n      0x00\n        /* \"LoanManager.sol\":9017:9046  loan.status = LoanStatus.Paid */\n      0x0100\n      exp\n      dup2\n      sload\n      dup2\n      0xff\n      mul\n      not\n      and\n      swap1\n      dup4\n      0x04\n      dup2\n      gt\n      iszero\n      tag_270\n      jumpi\n      tag_271\n      tag_79\n      jump\t// in\n    tag_271:\n    tag_270:\n      mul\n      or\n      swap1\n      sstore\n      pop\n        /* \"LoanManager.sol\":8842:9295  if(block.timestamp <= loan.dueDate){... */\n      jump(tag_272)\n    tag_266:\n        /* \"LoanManager.sol\":9091:9095  loan */\n      dup3\n        /* \"LoanManager.sol\":9091:9103  loan.dueDate */\n      0x08\n      add\n      sload\n        /* \"LoanManager.sol\":9073:9088  block.timestamp */\n      timestamp\n        /* \"LoanManager.sol\":9073:9103  block.timestamp > loan.dueDate */\n      gt\n        /* \"LoanManager.sol\":9070:9295  if(block.timestamp > loan.dueDate){... */\n      iszero\n      tag_273\n      jumpi\n        /* \"LoanManager.sol\":9154:9155  1 */\n      0x01\n        /* \"LoanManager.sol\":9126:9138  loanBorrower */\n      dup3\n        /* \"LoanManager.sol\":9126:9150  loanBorrower.creditScore */\n      0x00\n      add\n      0x14\n      swap1\n      sload\n      swap1\n      0x0100\n      exp\n      swap1\n      div\n      0xff\n      and\n        /* \"LoanManager.sol\":9126:9155  loanBorrower.creditScore >= 1 */\n      0xff\n      and\n      lt\n        /* \"LoanManager.sol\":9123:9228  if(loanBorrower.creditScore >= 1){... */\n      tag_274\n      jumpi\n        /* \"LoanManager.sol\":9207:9208  1 */\n      0x01\n        /* \"LoanManager.sol\":9179:9191  loanBorrower */\n      dup3\n        /* \"LoanManager.sol\":9179:9203  loanBorrower.creditScore */\n      0x00\n      add\n      0x14\n        /* \"LoanManager.sol\":9179:9208  loanBorrower.creditScore -= 1 */\n      dup3\n      dup3\n      dup3\n      swap1\n      sload\n      swap1\n      0x0100\n      exp\n      swap1\n      div\n      0xff\n      and\n      tag_275\n      swap2\n      swap1\n      tag_276\n      jump\t// in\n    tag_275:\n      swap3\n      pop\n      0x0100\n      exp\n      dup2\n      sload\n      dup2\n      0xff\n      mul\n      not\n      and\n      swap1\n      dup4\n      0xff\n      and\n      mul\n      or\n      swap1\n      sstore\n      pop\n        /* \"LoanManager.sol\":9123:9228  if(loanBorrower.creditScore >= 1){... */\n    tag_274:\n        /* \"LoanManager.sol\":9260:9278  LoanStatus.Overdue */\n      0x03\n        /* \"LoanManager.sol\":9246:9250  loan */\n      dup4\n        /* \"LoanManager.sol\":9246:9257  loan.status */\n      0x0a\n      add\n      0x00\n        /* \"LoanManager.sol\":9246:9278  loan.status = LoanStatus.Overdue */\n      0x0100\n      exp\n      dup2\n      sload\n      dup2\n      0xff\n      mul\n      not\n      and\n      swap1\n      dup4\n      0x04\n      dup2\n      gt\n      iszero\n      tag_277\n      jumpi\n      tag_278\n      tag_79\n      jump\t// in\n    tag_278:\n    tag_277:\n      mul\n      or\n      swap1\n      sstore\n      pop\n        /* \"LoanManager.sol\":9070:9295  if(block.timestamp > loan.dueDate){... */\n    tag_273:\n        /* \"LoanManager.sol\":8842:9295  if(block.timestamp <= loan.dueDate){... */\n    tag_272:\n        /* \"LoanManager.sol\":9328:9339  repayAmount */\n      dup1\n        /* \"LoanManager.sol\":9309:9313  loan */\n      dup4\n        /* \"LoanManager.sol\":9309:9325  loan.repayAmount */\n      0x09\n      add\n        /* \"LoanManager.sol\":9309:9339  loan.repayAmount = repayAmount */\n      dup2\n      swap1\n      sstore\n      pop\n        /* \"LoanManager.sol\":9362:9366  loan */\n      dup3\n        /* \"LoanManager.sol\":9362:9373  loan.lender */\n      0x03\n      add\n      0x00\n      swap1\n      sload\n      swap1\n      0x0100\n      exp\n      swap1\n      div\n      0xffffffffffffffffffffffffffffffffffffffff\n      and\n        /* \"LoanManager.sol\":9354:9383  payable(loan.lender).transfer */\n      0xffffffffffffffffffffffffffffffffffffffff\n      and\n        /* \"LoanManager.sol\":9354:9394  payable(loan.lender).transfer(msg.value) */\n      0x08fc\n        /* \"LoanManager.sol\":9384:9393  msg.value */\n      callvalue\n        /* \"LoanManager.sol\":9354:9394  payable(loan.lender).transfer(msg.value) */\n      swap1\n      dup2\n      iszero\n      mul\n      swap1\n      mload(0x40)\n      0x00\n      mload(0x40)\n      dup1\n      dup4\n      sub\n      dup2\n      dup6\n      dup9\n      dup9\n      call\n      swap4\n      pop\n      pop\n      pop\n      pop\n      iszero\n      dup1\n      iszero\n      tag_280\n      jumpi\n      returndatacopy(0x00, 0x00, returndatasize)\n      revert(0x00, returndatasize)\n    tag_280:\n      pop\n        /* \"LoanManager.sol\":9409:9447  refundExcess(repayAmount, loan.lender) */\n      tag_281\n        /* \"LoanManager.sol\":9422:9433  repayAmount */\n      dup2\n        /* \"LoanManager.sol\":9435:9439  loan */\n      dup5\n        /* \"LoanManager.sol\":9435:9446  loan.lender */\n      0x03\n      add\n      0x00\n      swap1\n      sload\n      swap1\n      0x0100\n      exp\n      swap1\n      div\n      0xffffffffffffffffffffffffffffffffffffffff\n      and\n        /* \"LoanManager.sol\":9409:9421  refundExcess */\n      tag_102\n        /* \"LoanManager.sol\":9409:9447  refundExcess(repayAmount, loan.lender) */\n      jump\t// in\n    tag_281:\n        /* \"LoanManager.sol\":8797:9519  if(msg.value >= repayAmount){... */\n      jump(tag_282)\n    tag_265:\n        /* \"LoanManager.sol\":9465:9519  revert(\"Insufficient funds to repay the overdue loan\") */\n      mload(0x40)\n      0x08c379a000000000000000000000000000000000000000000000000000000000\n      dup2\n      mstore\n      0x04\n      add\n      tag_283\n      swap1\n      tag_284\n      jump\t// in\n    tag_283:\n      mload(0x40)\n      dup1\n      swap2\n      sub\n      swap1\n      revert\n        /* \"LoanManager.sol\":8797:9519  if(msg.value >= repayAmount){... */\n    tag_282:\n        /* \"LoanManager.sol\":9587:9591  loan */\n      dup3\n        /* \"LoanManager.sol\":9587:9603  loan.repayAmount */\n      0x09\n      add\n      sload\n        /* \"LoanManager.sol\":9557:9569  loanBorrower */\n      dup3\n        /* \"LoanManager.sol\":9557:9585  loanBorrower.borrowerAddress */\n      0x00\n      add\n      0x00\n      swap1\n      sload\n      swap1\n      0x0100\n      exp\n      swap1\n      div\n      0xffffffffffffffffffffffffffffffffffffffff\n      and\n        /* \"LoanManager.sol\":9537:9635  LoanRepaid(_loanId, loanBorrower.borrowerAddress, loan.repayAmount, loan.status, loan.repayAmount) */\n      0xffffffffffffffffffffffffffffffffffffffff\n      and\n      0xe0ca2d8c0146cf465a705f2d977a1340819eded9e7f875ad64c402fc67634a41\n        /* \"LoanManager.sol\":9548:9555  _loanId */\n      dup7\n        /* \"LoanManager.sol\":9605:9609  loan */\n      dup7\n        /* \"LoanManager.sol\":9605:9616  loan.status */\n      0x0a\n      add\n      0x00\n      swap1\n      sload\n      swap1\n      0x0100\n      exp\n      swap1\n      div\n      0xff\n      and\n        /* \"LoanManager.sol\":9618:9622  loan */\n      dup8\n        /* \"LoanManager.sol\":9618:9634  loan.repayAmount */\n      0x09\n      add\n      sload\n        /* \"LoanManager.sol\":9537:9635  LoanRepaid(_loanId, loanBorrower.borrowerAddress, loan.repayAmount, loan.status, loan.repayAmount) */\n      mload(0x40)\n      tag_285\n      swap4\n      swap3\n      swap2\n      swap1\n      tag_286\n      jump\t// in\n    tag_285:\n      mload(0x40)\n      dup1\n      swap2\n      sub\n      swap1\n      log3\n        /* \"LoanManager.sol\":8388:9646  {... */\n      pop\n      pop\n      pop\n        /* \"@openzeppelin/contracts/security/ReentrancyGuard.sol\":2303:2323  _nonReentrantAfter() */\n      tag_287\n        /* \"@openzeppelin/contracts/security/ReentrancyGuard.sol\":2303:2321  _nonReentrantAfter */\n      tag_106\n        /* \"@openzeppelin/contracts/security/ReentrancyGuard.sol\":2303:2323  _nonReentrantAfter() */\n      jump\t// in\n    tag_287:\n        /* \"LoanManager.sol\":8323:9646  function repayLoan(uint256 _loanId) external payable nonReentrant{... */\n      pop\n      jump\t// out\n        /* \"LoanManager.sol\":1281:1334  mapping(address => LoanBorrower) public loanBorrowers */\n    tag_45:\n      mstore(0x20, 0x03)\n      dup1\n      0x00\n      mstore\n      keccak256(0x00, 0x40)\n      0x00\n      swap2\n      pop\n      swap1\n      pop\n      dup1\n      0x00\n      add\n      0x00\n      swap1\n      sload\n      swap1\n      0x0100\n      exp\n      swap1\n      div\n      0xffffffffffffffffffffffffffffffffffffffff\n      and\n      swap1\n      dup1\n      0x00\n      add\n      0x14\n      swap1\n      sload\n      swap1\n      0x0100\n      exp\n      swap1\n      div\n      0xff\n      and\n      swap1\n      pop\n      dup3\n      jump\t// out\n        /* \"LoanManager.sol\":7343:8315  function cancelLoan(uint256 _loanId) external payable nonReentrant{... */\n    tag_50:\n        /* \"@openzeppelin/contracts/security/ReentrancyGuard.sol\":2261:2282  _nonReentrantBefore() */\n      tag_289\n        /* \"@openzeppelin/contracts/security/ReentrancyGuard.sol\":2261:2280  _nonReentrantBefore */\n      tag_72\n        /* \"@openzeppelin/contracts/security/ReentrancyGuard.sol\":2261:2282  _nonReentrantBefore() */\n      jump\t// in\n    tag_289:\n        /* \"LoanManager.sol\":7420:7437  Loan storage loan */\n      0x00\n        /* \"LoanManager.sol\":7440:7449  loansById */\n      0x02\n        /* \"LoanManager.sol\":7440:7458  loansById[_loanId] */\n      0x00\n        /* \"LoanManager.sol\":7450:7457  _loanId */\n      dup4\n        /* \"LoanManager.sol\":7440:7458  loansById[_loanId] */\n      dup2\n      mstore\n      0x20\n      add\n      swap1\n      dup2\n      mstore\n      0x20\n      add\n      0x00\n      keccak256\n        /* \"LoanManager.sol\":7420:7458  Loan storage loan = loansById[_loanId] */\n      swap1\n      pop\n        /* \"LoanManager.sol\":7469:7485  address borrower */\n      0x00\n        /* \"LoanManager.sol\":7488:7492  loan */\n      dup2\n        /* \"LoanManager.sol\":7488:7501  loan.borrower */\n      0x01\n      add\n        /* \"LoanManager.sol\":7488:7517  loan.borrower.borrowerAddress */\n      0x00\n      add\n      0x00\n      swap1\n      sload\n      swap1\n      0x0100\n      exp\n      swap1\n      div\n      0xffffffffffffffffffffffffffffffffffffffff\n      and\n        /* \"LoanManager.sol\":7469:7517  address borrower = loan.borrower.borrowerAddress */\n      swap1\n      pop\n        /* \"LoanManager.sol\":7528:7550  uint256 cancelDeadline */\n      0x00\n        /* \"LoanManager.sol\":7570:7576  1 days */\n      0x015180\n        /* \"LoanManager.sol\":7553:7557  loan */\n      dup4\n        /* \"LoanManager.sol\":7553:7567  loan.startDate */\n      0x07\n      add\n      sload\n        /* \"LoanManager.sol\":7553:7576  loan.startDate + 1 days */\n      tag_291\n      swap2\n      swap1\n      tag_96\n      jump\t// in\n    tag_291:\n        /* \"LoanManager.sol\":7528:7576  uint256 cancelDeadline = loan.startDate + 1 days */\n      swap1\n      pop\n        /* \"LoanManager.sol\":7609:7619  msg.sender */\n      caller\n        /* \"LoanManager.sol\":7597:7619  borrower == msg.sender */\n      0xffffffffffffffffffffffffffffffffffffffff\n      and\n        /* \"LoanManager.sol\":7597:7605  borrower */\n      dup3\n        /* \"LoanManager.sol\":7597:7619  borrower == msg.sender */\n      0xffffffffffffffffffffffffffffffffffffffff\n      and\n      eq\n        /* \"LoanManager.sol\":7589:7662  require(borrower == msg.sender, \"Only the borrower can cancel this loan\") */\n      tag_292\n      jumpi\n      mload(0x40)\n      0x08c379a000000000000000000000000000000000000000000000000000000000\n      dup2\n      mstore\n      0x04\n      add\n      tag_293\n      swap1\n      tag_294\n      jump\t// in\n    tag_293:\n      mload(0x40)\n      dup1\n      swap2\n      sub\n      swap1\n      revert\n    tag_292:\n        /* \"LoanManager.sol\":7683:7708  LoanStatus previousStatus */\n      0x00\n        /* \"LoanManager.sol\":7711:7715  loan */\n      dup4\n        /* \"LoanManager.sol\":7711:7722  loan.status */\n      0x0a\n      add\n      0x00\n      swap1\n      sload\n      swap1\n      0x0100\n      exp\n      swap1\n      div\n      0xff\n      and\n        /* \"LoanManager.sol\":7683:7722  LoanStatus previousStatus = loan.status */\n      swap1\n      pop\n        /* \"LoanManager.sol\":7762:7780  LoanStatus.Pending */\n      0x01\n        /* \"LoanManager.sol\":7747:7780  loan.status == LoanStatus.Pending */\n      0x04\n      dup2\n      gt\n      iszero\n      tag_295\n      jumpi\n      tag_296\n      tag_79\n      jump\t// in\n    tag_296:\n    tag_295:\n        /* \"LoanManager.sol\":7747:7751  loan */\n      dup5\n        /* \"LoanManager.sol\":7747:7758  loan.status */\n      0x0a\n      add\n      0x00\n      swap1\n      sload\n      swap1\n      0x0100\n      exp\n      swap1\n      div\n      0xff\n      and\n        /* \"LoanManager.sol\":7747:7780  loan.status == LoanStatus.Pending */\n      0x04\n      dup2\n      gt\n      iszero\n      tag_297\n      jumpi\n      tag_298\n      tag_79\n      jump\t// in\n    tag_298:\n    tag_297:\n      sub\n        /* \"LoanManager.sol\":7743:8230  if (loan.status == LoanStatus.Pending) {... */\n      tag_299\n      jumpi\n        /* \"LoanManager.sol\":7811:7830  LoanStatus.Canceled */\n      0x04\n        /* \"LoanManager.sol\":7797:7801  loan */\n      dup5\n        /* \"LoanManager.sol\":7797:7808  loan.status */\n      0x0a\n      add\n      0x00\n        /* \"LoanManager.sol\":7797:7830  loan.status = LoanStatus.Canceled */\n      0x0100\n      exp\n      dup2\n      sload\n      dup2\n      0xff\n      mul\n      not\n      and\n      swap1\n      dup4\n      0x04\n      dup2\n      gt\n      iszero\n      tag_300\n      jumpi\n      tag_301\n      tag_79\n      jump\t// in\n    tag_301:\n    tag_300:\n      mul\n      or\n      swap1\n      sstore\n      pop\n        /* \"LoanManager.sol\":7743:8230  if (loan.status == LoanStatus.Pending) {... */\n      jump(tag_302)\n    tag_299:\n        /* \"LoanManager.sol\":7867:7882  LoanStatus.Paid */\n      0x02\n        /* \"LoanManager.sol\":7852:7882  loan.status == LoanStatus.Paid */\n      0x04\n      dup2\n      gt\n      iszero\n      tag_303\n      jumpi\n      tag_304\n      tag_79\n      jump\t// in\n    tag_304:\n    tag_303:\n        /* \"LoanManager.sol\":7852:7856  loan */\n      dup5\n        /* \"LoanManager.sol\":7852:7863  loan.status */\n      0x0a\n      add\n      0x00\n      swap1\n      sload\n      swap1\n      0x0100\n      exp\n      swap1\n      div\n      0xff\n      and\n        /* \"LoanManager.sol\":7852:7882  loan.status == LoanStatus.Paid */\n      0x04\n      dup2\n      gt\n      iszero\n      tag_305\n      jumpi\n      tag_306\n      tag_79\n      jump\t// in\n    tag_306:\n    tag_305:\n      eq\n        /* \"LoanManager.sol\":7852:7917  loan.status == LoanStatus.Paid && loan.startDate < cancelDeadline */\n      dup1\n      iszero\n      tag_307\n      jumpi\n      pop\n        /* \"LoanManager.sol\":7903:7917  cancelDeadline */\n      dup2\n        /* \"LoanManager.sol\":7886:7890  loan */\n      dup5\n        /* \"LoanManager.sol\":7886:7900  loan.startDate */\n      0x07\n      add\n      sload\n        /* \"LoanManager.sol\":7886:7917  loan.startDate < cancelDeadline */\n      lt\n        /* \"LoanManager.sol\":7852:7917  loan.status == LoanStatus.Paid && loan.startDate < cancelDeadline */\n    tag_307:\n        /* \"LoanManager.sol\":7848:8230  if (loan.status == LoanStatus.Paid && loan.startDate < cancelDeadline) {... */\n      iszero\n      tag_308\n      jumpi\n        /* \"LoanManager.sol\":7958:7967  msg.value */\n      callvalue\n        /* \"LoanManager.sol\":7943:7947  loan */\n      dup5\n        /* \"LoanManager.sol\":7943:7954  loan.amount */\n      0x04\n      add\n      sload\n        /* \"LoanManager.sol\":7943:7967  loan.amount >= msg.value */\n      lt\n      iszero\n        /* \"LoanManager.sol\":7934:8002  require( loan.amount >= msg.value,\"You haven't reached loan import\") */\n      tag_309\n      jumpi\n      mload(0x40)\n      0x08c379a000000000000000000000000000000000000000000000000000000000\n      dup2\n      mstore\n      0x04\n      add\n      tag_310\n      swap1\n      tag_311\n      jump\t// in\n    tag_310:\n      mload(0x40)\n      dup1\n      swap2\n      sub\n      swap1\n      revert\n    tag_309:\n        /* \"LoanManager.sol\":8031:8050  LoanStatus.Canceled */\n      0x04\n        /* \"LoanManager.sol\":8017:8021  loan */\n      dup5\n        /* \"LoanManager.sol\":8017:8028  loan.status */\n      0x0a\n      add\n      0x00\n        /* \"LoanManager.sol\":8017:8050  loan.status = LoanStatus.Canceled */\n      0x0100\n      exp\n      dup2\n      sload\n      dup2\n      0xff\n      mul\n      not\n      and\n      swap1\n      dup4\n      0x04\n      dup2\n      gt\n      iszero\n      tag_312\n      jumpi\n      tag_313\n      tag_79\n      jump\t// in\n    tag_313:\n    tag_312:\n      mul\n      or\n      swap1\n      sstore\n      pop\n        /* \"LoanManager.sol\":8073:8077  loan */\n      dup4\n        /* \"LoanManager.sol\":8073:8084  loan.lender */\n      0x03\n      add\n      0x00\n      swap1\n      sload\n      swap1\n      0x0100\n      exp\n      swap1\n      div\n      0xffffffffffffffffffffffffffffffffffffffff\n      and\n        /* \"LoanManager.sol\":8065:8094  payable(loan.lender).transfer */\n      0xffffffffffffffffffffffffffffffffffffffff\n      and\n        /* \"LoanManager.sol\":8065:8105  payable(loan.lender).transfer(msg.value) */\n      0x08fc\n        /* \"LoanManager.sol\":8095:8104  msg.value */\n      callvalue\n        /* \"LoanManager.sol\":8065:8105  payable(loan.lender).transfer(msg.value) */\n      swap1\n      dup2\n      iszero\n      mul\n      swap1\n      mload(0x40)\n      0x00\n      mload(0x40)\n      dup1\n      dup4\n      sub\n      dup2\n      dup6\n      dup9\n      dup9\n      call\n      swap4\n      pop\n      pop\n      pop\n      pop\n      iszero\n      dup1\n      iszero\n      tag_315\n      jumpi\n      returndatacopy(0x00, 0x00, returndatasize)\n      revert(0x00, returndatasize)\n    tag_315:\n      pop\n        /* \"LoanManager.sol\":8120:8157  refundExcess(loan.amount,loan.lender) */\n      tag_316\n        /* \"LoanManager.sol\":8133:8137  loan */\n      dup5\n        /* \"LoanManager.sol\":8133:8144  loan.amount */\n      0x04\n      add\n      sload\n        /* \"LoanManager.sol\":8145:8149  loan */\n      dup6\n        /* \"LoanManager.sol\":8145:8156  loan.lender */\n      0x03\n      add\n      0x00\n      swap1\n      sload\n      swap1\n      0x0100\n      exp\n      swap1\n      div\n      0xffffffffffffffffffffffffffffffffffffffff\n      and\n        /* \"LoanManager.sol\":8120:8132  refundExcess */\n      tag_102\n        /* \"LoanManager.sol\":8120:8157  refundExcess(loan.amount,loan.lender) */\n      jump\t// in\n    tag_316:\n        /* \"LoanManager.sol\":7848:8230  if (loan.status == LoanStatus.Paid && loan.startDate < cancelDeadline) {... */\n      jump(tag_317)\n    tag_308:\n        /* \"LoanManager.sol\":8190:8218  revert(\"No loan to cancel.\") */\n      mload(0x40)\n      0x08c379a000000000000000000000000000000000000000000000000000000000\n      dup2\n      mstore\n      0x04\n      add\n      tag_318\n      swap1\n      tag_319\n      jump\t// in\n    tag_318:\n      mload(0x40)\n      dup1\n      swap2\n      sub\n      swap1\n      revert\n        /* \"LoanManager.sol\":7848:8230  if (loan.status == LoanStatus.Paid && loan.startDate < cancelDeadline) {... */\n    tag_317:\n        /* \"LoanManager.sol\":7743:8230  if (loan.status == LoanStatus.Pending) {... */\n    tag_302:\n        /* \"LoanManager.sol\":8279:8283  loan */\n      dup4\n        /* \"LoanManager.sol\":8279:8290  loan.amount */\n      0x04\n      add\n      sload\n        /* \"LoanManager.sol\":8269:8277  borrower */\n      dup4\n        /* \"LoanManager.sol\":8247:8307  LoanCanceled(_loanId, borrower, loan.amount, previousStatus) */\n      0xffffffffffffffffffffffffffffffffffffffff\n      and\n      0xadbee1a5cfde1da4d21e11a94728ae86436e2a1c5cd2269d7bcf3f30cea4ed79\n        /* \"LoanManager.sol\":8260:8267  _loanId */\n      dup8\n        /* \"LoanManager.sol\":8292:8306  previousStatus */\n      dup5\n        /* \"LoanManager.sol\":8247:8307  LoanCanceled(_loanId, borrower, loan.amount, previousStatus) */\n      mload(0x40)\n      tag_320\n      swap3\n      swap2\n      swap1\n      tag_56\n      jump\t// in\n    tag_320:\n      mload(0x40)\n      dup1\n      swap2\n      sub\n      swap1\n      log3\n        /* \"LoanManager.sol\":7409:8315  {... */\n      pop\n      pop\n      pop\n      pop\n        /* \"@openzeppelin/contracts/security/ReentrancyGuard.sol\":2303:2323  _nonReentrantAfter() */\n      tag_321\n        /* \"@openzeppelin/contracts/security/ReentrancyGuard.sol\":2303:2321  _nonReentrantAfter */\n      tag_106\n        /* \"@openzeppelin/contracts/security/ReentrancyGuard.sol\":2303:2323  _nonReentrantAfter() */\n      jump\t// in\n    tag_321:\n        /* \"LoanManager.sol\":7343:8315  function cancelLoan(uint256 _loanId) external payable nonReentrant{... */\n      pop\n      jump\t// out\n        /* \"LoanManager.sol\":11733:12215  function getRepayLoanInfo(uint _loanId) public view returns (uint256, LoanStatus){... */\n    tag_54:\n        /* \"LoanManager.sol\":11794:11801  uint256 */\n      0x00\n        /* \"LoanManager.sol\":11803:11813  LoanStatus */\n      0x00\n        /* \"LoanManager.sol\":11836:11855  uint256 repayAmount */\n      0x00\n        /* \"LoanManager.sol\":11861:11888  checkRepayLoanInfo(_loanId) */\n      tag_323\n        /* \"LoanManager.sol\":11880:11887  _loanId */\n      dup5\n        /* \"LoanManager.sol\":11861:11879  checkRepayLoanInfo */\n      tag_264\n        /* \"LoanManager.sol\":11861:11888  checkRepayLoanInfo(_loanId) */\n      jump\t// in\n    tag_323:\n        /* \"LoanManager.sol\":11835:11888  (uint256 repayAmount, ) = checkRepayLoanInfo(_loanId) */\n      pop\n      swap1\n      pop\n        /* \"LoanManager.sol\":11902:11918  bool overdueLoan */\n      0x00\n        /* \"LoanManager.sol\":11922:11949  checkRepayLoanInfo(_loanId) */\n      tag_324\n        /* \"LoanManager.sol\":11941:11948  _loanId */\n      dup6\n        /* \"LoanManager.sol\":11922:11940  checkRepayLoanInfo */\n      tag_264\n        /* \"LoanManager.sol\":11922:11949  checkRepayLoanInfo(_loanId) */\n      jump\t// in\n    tag_324:\n        /* \"LoanManager.sol\":11899:11949  (, bool overdueLoan) = checkRepayLoanInfo(_loanId) */\n      swap2\n      pop\n      pop\n        /* \"LoanManager.sol\":11960:11986  LoanStatus loanStatusCheck */\n      0x00\n        /* \"LoanManager.sol\":12002:12013  overdueLoan */\n      dup2\n        /* \"LoanManager.sol\":11999:12161  if(overdueLoan){... */\n      iszero\n      tag_325\n      jumpi\n        /* \"LoanManager.sol\":12047:12064  LoanStatus.Active */\n      0x00\n        /* \"LoanManager.sol\":12029:12064  loanStatusCheck = LoanStatus.Active */\n      swap1\n      pop\n        /* \"LoanManager.sol\":11999:12161  if(overdueLoan){... */\n      jump(tag_326)\n    tag_325:\n        /* \"LoanManager.sol\":12086:12097  overdueLoan */\n      dup2\n        /* \"LoanManager.sol\":12082:12161  if(!overdueLoan){... */\n      tag_327\n      jumpi\n        /* \"LoanManager.sol\":12131:12149  LoanStatus.Overdue */\n      0x03\n        /* \"LoanManager.sol\":12113:12149  loanStatusCheck = LoanStatus.Overdue */\n      swap1\n      pop\n        /* \"LoanManager.sol\":12082:12161  if(!overdueLoan){... */\n    tag_327:\n        /* \"LoanManager.sol\":11999:12161  if(overdueLoan){... */\n    tag_326:\n        /* \"LoanManager.sol\":12178:12189  repayAmount */\n      dup3\n        /* \"LoanManager.sol\":12191:12206  loanStatusCheck */\n      dup2\n        /* \"LoanManager.sol\":12171:12207  return(repayAmount, loanStatusCheck) */\n      swap5\n      pop\n      swap5\n      pop\n      pop\n      pop\n      pop\n        /* \"LoanManager.sol\":11733:12215  function getRepayLoanInfo(uint _loanId) public view returns (uint256, LoanStatus){... */\n      swap2\n      pop\n      swap2\n      jump\t// out\n        /* \"LoanManager.sol\":1202:1243  mapping(uint256 => Loan) public loansById */\n    tag_60:\n      mstore(0x20, 0x02)\n      dup1\n      0x00\n      mstore\n      keccak256(0x00, 0x40)\n      0x00\n      swap2\n      pop\n      swap1\n      pop\n      dup1\n      0x00\n      add\n      sload\n      swap1\n      dup1\n      0x01\n      add\n      mload(0x40)\n      dup1\n      0x60\n      add\n      0x40\n      mstore\n      swap1\n      dup2\n      0x00\n      dup3\n      add\n      0x00\n      swap1\n      sload\n      swap1\n      0x0100\n      exp\n      swap1\n      div\n      0xffffffffffffffffffffffffffffffffffffffff\n      and\n      0xffffffffffffffffffffffffffffffffffffffff\n      and\n      0xffffffffffffffffffffffffffffffffffffffff\n      and\n      dup2\n      mstore\n      0x20\n      add\n      0x00\n      dup3\n      add\n      0x14\n      swap1\n      sload\n      swap1\n      0x0100\n      exp\n      swap1\n      div\n      0xff\n      and\n      0xff\n      and\n      0xff\n      and\n      dup2\n      mstore\n      0x20\n      add\n      0x01\n      dup3\n      add\n      dup1\n      sload\n      dup1\n      0x20\n      mul\n      0x20\n      add\n      mload(0x40)\n      swap1\n      dup2\n      add\n      0x40\n      mstore\n      dup1\n      swap3\n      swap2\n      swap1\n      dup2\n      dup2\n      mstore\n      0x20\n      add\n      dup3\n      dup1\n      sload\n      dup1\n      iszero\n      tag_328\n      jumpi\n      0x20\n      mul\n      dup3\n      add\n      swap2\n      swap1\n      0x00\n      mstore\n      keccak256(0x00, 0x20)\n      swap1\n    tag_329:\n      dup2\n      sload\n      dup2\n      mstore\n      0x20\n      add\n      swap1\n      0x01\n      add\n      swap1\n      dup1\n      dup4\n      gt\n      tag_329\n      jumpi\n    tag_328:\n      pop\n      pop\n      pop\n      pop\n      pop\n      dup2\n      mstore\n      pop\n      pop\n      swap1\n      dup1\n      0x03\n      add\n      0x00\n      swap1\n      sload\n      swap1\n      0x0100\n      exp\n      swap1\n      div\n      0xffffffffffffffffffffffffffffffffffffffff\n      and\n      swap1\n      dup1\n      0x04\n      add\n      sload\n      swap1\n      dup1\n      0x05\n      add\n      sload\n      swap1\n      dup1\n      0x06\n      add\n      sload\n      swap1\n      dup1\n      0x07\n      add\n      sload\n      swap1\n      dup1\n      0x08\n      add\n      sload\n      swap1\n      dup1\n      0x09\n      add\n      sload\n      swap1\n      dup1\n      0x0a\n      add\n      0x00\n      swap1\n      sload\n      swap1\n      0x0100\n      exp\n      swap1\n      div\n      0xff\n      and\n      swap1\n      dup1\n      0x0a\n      add\n      0x01\n      swap1\n      sload\n      swap1\n      0x0100\n      exp\n      swap1\n      div\n      0xff\n      and\n      swap1\n      pop\n      dup12\n      jump\t// out\n        /* \"LoanManager.sol\":1389:1439  mapping(address => uint256[]) public borrowerLoans */\n    tag_67:\n      mstore(0x20, 0x04)\n      dup2\n      0x00\n      mstore\n      keccak256(0x00, 0x40)\n      dup2\n      dup2\n      sload\n      dup2\n      lt\n      tag_330\n      jumpi\n      0x00\n      dup1\n      revert\n    tag_330:\n      swap1\n      0x00\n      mstore\n      keccak256(0x00, 0x20)\n      add\n      0x00\n      swap2\n      pop\n      swap2\n      pop\n      pop\n      sload\n      dup2\n      jump\t// out\n        /* \"@openzeppelin/contracts/security/ReentrancyGuard.sol\":2336:2623  function _nonReentrantBefore() private {... */\n    tag_72:\n        /* \"@openzeppelin/contracts/security/ReentrancyGuard.sol\":1759:1760  2 */\n      0x02\n        /* \"@openzeppelin/contracts/security/ReentrancyGuard.sol\":2468:2475  _status */\n      sload(0x00)\n        /* \"@openzeppelin/contracts/security/ReentrancyGuard.sol\":2468:2487  _status != _ENTERED */\n      sub\n        /* \"@openzeppelin/contracts/security/ReentrancyGuard.sol\":2460:2523  require(_status != _ENTERED, \"ReentrancyGuard: reentrant call\") */\n      tag_333\n      jumpi\n      mload(0x40)\n      0x08c379a000000000000000000000000000000000000000000000000000000000\n      dup2\n      mstore\n      0x04\n      add\n      tag_334\n      swap1\n      tag_335\n      jump\t// in\n    tag_334:\n      mload(0x40)\n      dup1\n      swap2\n      sub\n      swap1\n      revert\n    tag_333:\n        /* \"@openzeppelin/contracts/security/ReentrancyGuard.sol\":1759:1760  2 */\n      0x02\n        /* \"@openzeppelin/contracts/security/ReentrancyGuard.sol\":2598:2605  _status */\n      0x00\n        /* \"@openzeppelin/contracts/security/ReentrancyGuard.sol\":2598:2616  _status = _ENTERED */\n      dup2\n      swap1\n      sstore\n      pop\n        /* \"@openzeppelin/contracts/security/ReentrancyGuard.sol\":2336:2623  function _nonReentrantBefore() private {... */\n      jump\t// out\n        /* \"LoanManager.sol\":4046:4437  function getDaysOfLoanDuration(LoanDuration duration) private pure returns (uint256){... */\n    tag_92:\n        /* \"LoanManager.sol\":4122:4129  uint256 */\n      0x00\n        /* \"LoanManager.sol\":4156:4174  LoanDuration.Month */\n      0x00\n        /* \"LoanManager.sol\":4144:4174  duration == LoanDuration.Month */\n      0x02\n      dup2\n      gt\n      iszero\n      tag_337\n      jumpi\n      tag_338\n      tag_79\n      jump\t// in\n    tag_338:\n    tag_337:\n        /* \"LoanManager.sol\":4144:4152  duration */\n      dup3\n        /* \"LoanManager.sol\":4144:4174  duration == LoanDuration.Month */\n      0x02\n      dup2\n      gt\n      iszero\n      tag_339\n      jumpi\n      tag_340\n      tag_79\n      jump\t// in\n    tag_340:\n    tag_339:\n      sub\n        /* \"LoanManager.sol\":4141:4430  if(duration == LoanDuration.Month){... */\n      tag_341\n      jumpi\n        /* \"LoanManager.sol\":4197:4199  30 */\n      0x1e\n        /* \"LoanManager.sol\":4190:4199  return 30 */\n      swap1\n      pop\n      jump(tag_336)\n        /* \"LoanManager.sol\":4141:4430  if(duration == LoanDuration.Month){... */\n    tag_341:\n        /* \"LoanManager.sol\":4233:4255  LoanDuration.SixMonths */\n      0x01\n        /* \"LoanManager.sol\":4221:4255  duration == LoanDuration.SixMonths */\n      0x02\n      dup2\n      gt\n      iszero\n      tag_343\n      jumpi\n      tag_344\n      tag_79\n      jump\t// in\n    tag_344:\n    tag_343:\n        /* \"LoanManager.sol\":4221:4229  duration */\n      dup3\n        /* \"LoanManager.sol\":4221:4255  duration == LoanDuration.SixMonths */\n      0x02\n      dup2\n      gt\n      iszero\n      tag_345\n      jumpi\n      tag_346\n      tag_79\n      jump\t// in\n    tag_346:\n    tag_345:\n      sub\n        /* \"LoanManager.sol\":4217:4430  if (duration == LoanDuration.SixMonths){... */\n      tag_347\n      jumpi\n        /* \"LoanManager.sol\":4278:4281  180 */\n      0xb4\n        /* \"LoanManager.sol\":4271:4281  return 180 */\n      swap1\n      pop\n      jump(tag_336)\n        /* \"LoanManager.sol\":4217:4430  if (duration == LoanDuration.SixMonths){... */\n    tag_347:\n        /* \"LoanManager.sol\":4315:4332  LoanDuration.Year */\n      0x02\n        /* \"LoanManager.sol\":4303:4332  duration == LoanDuration.Year */\n      dup1\n      dup2\n      gt\n      iszero\n      tag_349\n      jumpi\n      tag_350\n      tag_79\n      jump\t// in\n    tag_350:\n    tag_349:\n        /* \"LoanManager.sol\":4303:4311  duration */\n      dup3\n        /* \"LoanManager.sol\":4303:4332  duration == LoanDuration.Year */\n      0x02\n      dup2\n      gt\n      iszero\n      tag_351\n      jumpi\n      tag_352\n      tag_79\n      jump\t// in\n    tag_352:\n    tag_351:\n      sub\n        /* \"LoanManager.sol\":4299:4430  if (duration == LoanDuration.Year){... */\n      tag_353\n      jumpi\n        /* \"LoanManager.sol\":4355:4358  365 */\n      0x016d\n        /* \"LoanManager.sol\":4348:4358  return 365 */\n      swap1\n      pop\n      jump(tag_336)\n        /* \"LoanManager.sol\":4299:4430  if (duration == LoanDuration.Year){... */\n    tag_353:\n        /* \"LoanManager.sol\":4387:4418  revert(\"Invalid loan duration\") */\n      mload(0x40)\n      0x08c379a000000000000000000000000000000000000000000000000000000000\n      dup2\n      mstore\n      0x04\n      add\n      tag_355\n      swap1\n      tag_356\n      jump\t// in\n    tag_355:\n      mload(0x40)\n      dup1\n      swap2\n      sub\n      swap1\n      revert\n        /* \"LoanManager.sol\":4046:4437  function getDaysOfLoanDuration(LoanDuration duration) private pure returns (uint256){... */\n    tag_336:\n      swap2\n      swap1\n      pop\n      jump\t// out\n        /* \"LoanManager.sol\":5358:5588  function refundExcess(uint256 amount, address destination) internal {... */\n    tag_102:\n        /* \"LoanManager.sol\":5437:5457  uint256 excessAmount */\n      0x00\n        /* \"LoanManager.sol\":5472:5478  amount */\n      dup3\n        /* \"LoanManager.sol\":5460:5469  msg.value */\n      callvalue\n        /* \"LoanManager.sol\":5460:5478  msg.value - amount */\n      tag_358\n      swap2\n      swap1\n      tag_117\n      jump\t// in\n    tag_358:\n        /* \"LoanManager.sol\":5437:5478  uint256 excessAmount = msg.value - amount */\n      swap1\n      pop\n        /* \"LoanManager.sol\":5508:5509  0 */\n      0x00\n        /* \"LoanManager.sol\":5493:5505  excessAmount */\n      dup2\n        /* \"LoanManager.sol\":5493:5509  excessAmount > 0 */\n      gt\n        /* \"LoanManager.sol\":5489:5581  if (excessAmount > 0) {... */\n      iszero\n      tag_359\n      jumpi\n        /* \"LoanManager.sol\":5534:5545  destination */\n      dup2\n        /* \"LoanManager.sol\":5526:5555  payable(destination).transfer */\n      0xffffffffffffffffffffffffffffffffffffffff\n      and\n        /* \"LoanManager.sol\":5526:5569  payable(destination).transfer(excessAmount) */\n      0x08fc\n        /* \"LoanManager.sol\":5556:5568  excessAmount */\n      dup3\n        /* \"LoanManager.sol\":5526:5569  payable(destination).transfer(excessAmount) */\n      swap1\n      dup2\n      iszero\n      mul\n      swap1\n      mload(0x40)\n      0x00\n      mload(0x40)\n      dup1\n      dup4\n      sub\n      dup2\n      dup6\n      dup9\n      dup9\n      call\n      swap4\n      pop\n      pop\n      pop\n      pop\n      iszero\n      dup1\n      iszero\n      tag_361\n      jumpi\n      returndatacopy(0x00, 0x00, returndatasize)\n      revert(0x00, returndatasize)\n    tag_361:\n      pop\n        /* \"LoanManager.sol\":5489:5581  if (excessAmount > 0) {... */\n    tag_359:\n        /* \"LoanManager.sol\":5426:5588  {... */\n      pop\n        /* \"LoanManager.sol\":5358:5588  function refundExcess(uint256 amount, address destination) internal {... */\n      pop\n      pop\n      jump\t// out\n        /* \"@openzeppelin/contracts/security/ReentrancyGuard.sol\":2629:2838  function _nonReentrantAfter() private {... */\n    tag_106:\n        /* \"@openzeppelin/contracts/security/ReentrancyGuard.sol\":1716:1717  1 */\n      0x01\n        /* \"@openzeppelin/contracts/security/ReentrancyGuard.sol\":2809:2816  _status */\n      0x00\n        /* \"@openzeppelin/contracts/security/ReentrancyGuard.sol\":2809:2831  _status = _NOT_ENTERED */\n      dup2\n      swap1\n      sstore\n      pop\n        /* \"@openzeppelin/contracts/security/ReentrancyGuard.sol\":2629:2838  function _nonReentrantAfter() private {... */\n      jump\t// out\n        /* \"LoanManager.sol\":2067:2746  function getPendingLoansArray() private view returns (Loan[] memory, uint256) {... */\n    tag_109:\n        /* \"LoanManager.sol\":2121:2134  Loan[] memory */\n      0x60\n        /* \"LoanManager.sol\":2136:2143  uint256 */\n      0x00\n        /* \"LoanManager.sol\":2156:2180  uint256 pendingLoanCount */\n      0x00\n        /* \"LoanManager.sol\":2183:2184  0 */\n      0x00\n        /* \"LoanManager.sol\":2156:2184  uint256 pendingLoanCount = 0 */\n      swap1\n      pop\n        /* \"LoanManager.sol\":2202:2211  uint256 i */\n      0x00\n        /* \"LoanManager.sol\":2214:2215  1 */\n      0x01\n        /* \"LoanManager.sol\":2202:2215  uint256 i = 1 */\n      swap1\n      pop\n        /* \"LoanManager.sol\":2197:2366  for (uint256 i = 1; i <= loanCounter; i++) {... */\n    tag_364:\n        /* \"LoanManager.sol\":2222:2233  loanCounter */\n      sload(0x01)\n        /* \"LoanManager.sol\":2217:2218  i */\n      dup2\n        /* \"LoanManager.sol\":2217:2233  i <= loanCounter */\n      gt\n        /* \"LoanManager.sol\":2197:2366  for (uint256 i = 1; i <= loanCounter; i++) {... */\n      tag_365\n      jumpi\n        /* \"LoanManager.sol\":2282:2300  LoanStatus.Pending */\n      0x01\n        /* \"LoanManager.sol\":2259:2300  loansById[i].status == LoanStatus.Pending */\n      0x04\n      dup2\n      gt\n      iszero\n      tag_367\n      jumpi\n      tag_368\n      tag_79\n      jump\t// in\n    tag_368:\n    tag_367:\n        /* \"LoanManager.sol\":2259:2268  loansById */\n      0x02\n        /* \"LoanManager.sol\":2259:2271  loansById[i] */\n      0x00\n        /* \"LoanManager.sol\":2269:2270  i */\n      dup4\n        /* \"LoanManager.sol\":2259:2271  loansById[i] */\n      dup2\n      mstore\n      0x20\n      add\n      swap1\n      dup2\n      mstore\n      0x20\n      add\n      0x00\n      keccak256\n        /* \"LoanManager.sol\":2259:2278  loansById[i].status */\n      0x0a\n      add\n      0x00\n      swap1\n      sload\n      swap1\n      0x0100\n      exp\n      swap1\n      div\n      0xff\n      and\n        /* \"LoanManager.sol\":2259:2300  loansById[i].status == LoanStatus.Pending */\n      0x04\n      dup2\n      gt\n      iszero\n      tag_369\n      jumpi\n      tag_370\n      tag_79\n      jump\t// in\n    tag_370:\n    tag_369:\n      sub\n        /* \"LoanManager.sol\":2255:2355  if (loansById[i].status == LoanStatus.Pending) {... */\n      tag_371\n      jumpi\n        /* \"LoanManager.sol\":2321:2339  pendingLoanCount++ */\n      dup2\n      dup1\n      tag_372\n      swap1\n      tag_175\n      jump\t// in\n    tag_372:\n      swap3\n      pop\n      pop\n        /* \"LoanManager.sol\":2255:2355  if (loansById[i].status == LoanStatus.Pending) {... */\n    tag_371:\n        /* \"LoanManager.sol\":2235:2238  i++ */\n      dup1\n      dup1\n      tag_373\n      swap1\n      tag_175\n      jump\t// in\n    tag_373:\n      swap2\n      pop\n      pop\n        /* \"LoanManager.sol\":2197:2366  for (uint256 i = 1; i <= loanCounter; i++) {... */\n      jump(tag_364)\n    tag_365:\n      pop\n        /* \"LoanManager.sol\":2378:2404  Loan[] memory pendingLoans */\n      0x00\n        /* \"LoanManager.sol\":2418:2434  pendingLoanCount */\n      dup2\n        /* \"LoanManager.sol\":2407:2435  new Loan[](pendingLoanCount) */\n      0xffffffffffffffff\n      dup2\n      gt\n      iszero\n      tag_374\n      jumpi\n      tag_375\n      tag_178\n      jump\t// in\n    tag_375:\n    tag_374:\n      mload(0x40)\n      swap1\n      dup1\n      dup3\n      mstore\n      dup1\n      0x20\n      mul\n      0x20\n      add\n      dup3\n      add\n      0x40\n      mstore\n      dup1\n      iszero\n      tag_376\n      jumpi\n      dup2\n      0x20\n      add\n    tag_377:\n      tag_378\n      tag_182\n      jump\t// in\n    tag_378:\n      dup2\n      mstore\n      0x20\n      add\n      swap1\n      0x01\n      swap1\n      sub\n      swap1\n      dup2\n      tag_377\n      jumpi\n      swap1\n      pop\n    tag_376:\n      pop\n        /* \"LoanManager.sol\":2378:2435  Loan[] memory pendingLoans = new Loan[](pendingLoanCount) */\n      swap1\n      pop\n        /* \"LoanManager.sol\":2446:2459  uint256 index */\n      0x00\n        /* \"LoanManager.sol\":2462:2463  0 */\n      0x00\n        /* \"LoanManager.sol\":2446:2463  uint256 index = 0 */\n      swap1\n      pop\n        /* \"LoanManager.sol\":2481:2490  uint256 i */\n      0x00\n        /* \"LoanManager.sol\":2493:2494  1 */\n      0x01\n        /* \"LoanManager.sol\":2481:2494  uint256 i = 1 */\n      swap1\n      pop\n        /* \"LoanManager.sol\":2476:2687  for (uint256 i = 1; i <= loanCounter; i++) {... */\n    tag_379:\n        /* \"LoanManager.sol\":2501:2512  loanCounter */\n      sload(0x01)\n        /* \"LoanManager.sol\":2496:2497  i */\n      dup2\n        /* \"LoanManager.sol\":2496:2512  i <= loanCounter */\n      gt\n        /* \"LoanManager.sol\":2476:2687  for (uint256 i = 1; i <= loanCounter; i++) {... */\n      tag_380\n      jumpi\n        /* \"LoanManager.sol\":2561:2579  LoanStatus.Pending */\n      0x01\n        /* \"LoanManager.sol\":2538:2579  loansById[i].status == LoanStatus.Pending */\n      0x04\n      dup2\n      gt\n      iszero\n      tag_382\n      jumpi\n      tag_383\n      tag_79\n      jump\t// in\n    tag_383:\n    tag_382:\n        /* \"LoanManager.sol\":2538:2547  loansById */\n      0x02\n        /* \"LoanManager.sol\":2538:2550  loansById[i] */\n      0x00\n        /* \"LoanManager.sol\":2548:2549  i */\n      dup4\n        /* \"LoanManager.sol\":2538:2550  loansById[i] */\n      dup2\n      mstore\n      0x20\n      add\n      swap1\n      dup2\n      mstore\n      0x20\n      add\n      0x00\n      keccak256\n        /* \"LoanManager.sol\":2538:2557  loansById[i].status */\n      0x0a\n      add\n      0x00\n      swap1\n      sload\n      swap1\n      0x0100\n      exp\n      swap1\n      div\n      0xff\n      and\n        /* \"LoanManager.sol\":2538:2579  loansById[i].status == LoanStatus.Pending */\n      0x04\n      dup2\n      gt\n      iszero\n      tag_384\n      jumpi\n      tag_385\n      tag_79\n      jump\t// in\n    tag_385:\n    tag_384:\n      sub\n        /* \"LoanManager.sol\":2534:2676  if (loansById[i].status == LoanStatus.Pending) {... */\n      tag_386\n      jumpi\n        /* \"LoanManager.sol\":2622:2631  loansById */\n      0x02\n        /* \"LoanManager.sol\":2622:2634  loansById[i] */\n      0x00\n        /* \"LoanManager.sol\":2632:2633  i */\n      dup3\n        /* \"LoanManager.sol\":2622:2634  loansById[i] */\n      dup2\n      mstore\n      0x20\n      add\n      swap1\n      dup2\n      mstore\n      0x20\n      add\n      0x00\n      keccak256\n        /* \"LoanManager.sol\":2600:2634  pendingLoans[index] = loansById[i] */\n      mload(0x40)\n      dup1\n      0x0160\n      add\n      0x40\n      mstore\n      swap1\n      dup2\n      0x00\n      dup3\n      add\n      sload\n      dup2\n      mstore\n      0x20\n      add\n      0x01\n      dup3\n      add\n      mload(0x40)\n      dup1\n      0x60\n      add\n      0x40\n      mstore\n      swap1\n      dup2\n      0x00\n      dup3\n      add\n      0x00\n      swap1\n      sload\n      swap1\n      0x0100\n      exp\n      swap1\n      div\n      0xffffffffffffffffffffffffffffffffffffffff\n      and\n      0xffffffffffffffffffffffffffffffffffffffff\n      and\n      0xffffffffffffffffffffffffffffffffffffffff\n      and\n      dup2\n      mstore\n      0x20\n      add\n      0x00\n      dup3\n      add\n      0x14\n      swap1\n      sload\n      swap1\n      0x0100\n      exp\n      swap1\n      div\n      0xff\n      and\n      0xff\n      and\n      0xff\n      and\n      dup2\n      mstore\n      0x20\n      add\n      0x01\n      dup3\n      add\n      dup1\n      sload\n      dup1\n      0x20\n      mul\n      0x20\n      add\n      mload(0x40)\n      swap1\n      dup2\n      add\n      0x40\n      mstore\n      dup1\n      swap3\n      swap2\n      swap1\n      dup2\n      dup2\n      mstore\n      0x20\n      add\n      dup3\n      dup1\n      sload\n      dup1\n      iszero\n      tag_387\n      jumpi\n      0x20\n      mul\n      dup3\n      add\n      swap2\n      swap1\n      0x00\n      mstore\n      keccak256(0x00, 0x20)\n      swap1\n    tag_388:\n      dup2\n      sload\n      dup2\n      mstore\n      0x20\n      add\n      swap1\n      0x01\n      add\n      swap1\n      dup1\n      dup4\n      gt\n      tag_388\n      jumpi\n    tag_387:\n      pop\n      pop\n      pop\n      pop\n      pop\n      dup2\n      mstore\n      pop\n      pop\n      dup2\n      mstore\n      0x20\n      add\n      0x03\n      dup3\n      add\n      0x00\n      swap1\n      sload\n      swap1\n      0x0100\n      exp\n      swap1\n      div\n      0xffffffffffffffffffffffffffffffffffffffff\n      and\n      0xffffffffffffffffffffffffffffffffffffffff\n      and\n      0xffffffffffffffffffffffffffffffffffffffff\n      and\n      dup2\n      mstore\n      0x20\n      add\n      0x04\n      dup3\n      add\n      sload\n      dup2\n      mstore\n      0x20\n      add\n      0x05\n      dup3\n      add\n      sload\n      dup2\n      mstore\n      0x20\n      add\n      0x06\n      dup3\n      add\n      sload\n      dup2\n      mstore\n      0x20\n      add\n      0x07\n      dup3\n      add\n      sload\n      dup2\n      mstore\n      0x20\n      add\n      0x08\n      dup3\n      add\n      sload\n      dup2\n      mstore\n      0x20\n      add\n      0x09\n      dup3\n      add\n      sload\n      dup2\n      mstore\n      0x20\n      add\n      0x0a\n      dup3\n      add\n      0x00\n      swap1\n      sload\n      swap1\n      0x0100\n      exp\n      swap1\n      div\n      0xff\n      and\n      0x04\n      dup2\n      gt\n      iszero\n      tag_389\n      jumpi\n      tag_390\n      tag_79\n      jump\t// in\n    tag_390:\n    tag_389:\n      0x04\n      dup2\n      gt\n      iszero\n      tag_391\n      jumpi\n      tag_392\n      tag_79\n      jump\t// in\n    tag_392:\n    tag_391:\n      dup2\n      mstore\n      0x20\n      add\n      0x0a\n      dup3\n      add\n      0x01\n      swap1\n      sload\n      swap1\n      0x0100\n      exp\n      swap1\n      div\n      0xff\n      and\n      0x02\n      dup2\n      gt\n      iszero\n      tag_393\n      jumpi\n      tag_394\n      tag_79\n      jump\t// in\n    tag_394:\n    tag_393:\n      0x02\n      dup2\n      gt\n      iszero\n      tag_395\n      jumpi\n      tag_396\n      tag_79\n      jump\t// in\n    tag_396:\n    tag_395:\n      dup2\n      mstore\n      pop\n      pop\n        /* \"LoanManager.sol\":2600:2612  pendingLoans */\n      dup4\n        /* \"LoanManager.sol\":2613:2618  index */\n      dup4\n        /* \"LoanManager.sol\":2600:2619  pendingLoans[index] */\n      dup2\n      mload\n      dup2\n      lt\n      tag_397\n      jumpi\n      tag_398\n      tag_122\n      jump\t// in\n    tag_398:\n    tag_397:\n      0x20\n      mul\n      0x20\n      add\n      add\n        /* \"LoanManager.sol\":2600:2634  pendingLoans[index] = loansById[i] */\n      dup2\n      swap1\n      mstore\n      pop\n        /* \"LoanManager.sol\":2653:2660  index++ */\n      dup2\n      dup1\n      tag_399\n      swap1\n      tag_175\n      jump\t// in\n    tag_399:\n      swap3\n      pop\n      pop\n        /* \"LoanManager.sol\":2534:2676  if (loansById[i].status == LoanStatus.Pending) {... */\n    tag_386:\n        /* \"LoanManager.sol\":2514:2517  i++ */\n      dup1\n      dup1\n      tag_400\n      swap1\n      tag_175\n      jump\t// in\n    tag_400:\n      swap2\n      pop\n      pop\n        /* \"LoanManager.sol\":2476:2687  for (uint256 i = 1; i <= loanCounter; i++) {... */\n      jump(tag_379)\n    tag_380:\n      pop\n        /* \"LoanManager.sol\":2707:2719  pendingLoans */\n      dup2\n        /* \"LoanManager.sol\":2721:2737  pendingLoanCount */\n      dup4\n        /* \"LoanManager.sol\":2699:2738  return (pendingLoans, pendingLoanCount) */\n      swap5\n      pop\n      swap5\n      pop\n      pop\n      pop\n      pop\n        /* \"LoanManager.sol\":2067:2746  function getPendingLoansArray() private view returns (Loan[] memory, uint256) {... */\n      swap1\n      swap2\n      jump\t// out\n        /* \"LoanManager.sol\":2754:3858  function loanInterestRateCalculator(uint8 _creditScore) private pure returns (uint256, uint256) {... */\n    tag_234:\n        /* \"LoanManager.sol\":2832:2839  uint256 */\n      0x00\n        /* \"LoanManager.sol\":2841:2848  uint256 */\n      0x00\n        /* \"LoanManager.sol\":2885:2886  4 */\n      0x04\n        /* \"LoanManager.sol\":2869:2881  _creditScore */\n      dup4\n        /* \"LoanManager.sol\":2869:2886  _creditScore <= 4 */\n      0xff\n      and\n      gt\n      iszero\n        /* \"LoanManager.sol\":2861:2911  require(_creditScore <= 4, \"Invalid credit score\") */\n      tag_402\n      jumpi\n      mload(0x40)\n      0x08c379a000000000000000000000000000000000000000000000000000000000\n      dup2\n      mstore\n      0x04\n      add\n      tag_403\n      swap1\n      tag_404\n      jump\t// in\n    tag_403:\n      mload(0x40)\n      dup1\n      swap2\n      sub\n      swap1\n      revert\n    tag_402:\n        /* \"LoanManager.sol\":2951:2981  uint256 annualizedInterestRate */\n      0x00\n        /* \"LoanManager.sol\":2992:3021  uint256 annualizedPenaltyRate */\n      0x00\n        /* \"LoanManager.sol\":3054:3055  0 */\n      0x00\n        /* \"LoanManager.sol\":3038:3050  _creditScore */\n      dup6\n        /* \"LoanManager.sol\":3038:3055  _creditScore == 0 */\n      0xff\n      and\n      sub\n        /* \"LoanManager.sol\":3034:3784  if (_creditScore == 0) {... */\n      tag_405\n      jumpi\n        /* \"LoanManager.sol\":3097:3101  2000 */\n      0x07d0\n        /* \"LoanManager.sol\":3072:3101  annualizedInterestRate = 2000 */\n      swap2\n      pop\n        /* \"LoanManager.sol\":3147:3151  5000 */\n      0x1388\n        /* \"LoanManager.sol\":3123:3151  annualizedPenaltyRate = 5000 */\n      swap1\n      pop\n        /* \"LoanManager.sol\":3034:3784  if (_creditScore == 0) {... */\n      jump(tag_406)\n    tag_405:\n        /* \"LoanManager.sol\":3207:3208  1 */\n      0x01\n        /* \"LoanManager.sol\":3191:3203  _creditScore */\n      dup6\n        /* \"LoanManager.sol\":3191:3208  _creditScore == 1 */\n      0xff\n      and\n      sub\n        /* \"LoanManager.sol\":3187:3784  if (_creditScore == 1) {... */\n      tag_407\n      jumpi\n        /* \"LoanManager.sol\":3250:3254  1200 */\n      0x04b0\n        /* \"LoanManager.sol\":3225:3254  annualizedInterestRate = 1200 */\n      swap2\n      pop\n        /* \"LoanManager.sol\":3300:3304  4000 */\n      0x0fa0\n        /* \"LoanManager.sol\":3276:3304  annualizedPenaltyRate = 4000 */\n      swap1\n      pop\n        /* \"LoanManager.sol\":3187:3784  if (_creditScore == 1) {... */\n      jump(tag_408)\n    tag_407:\n        /* \"LoanManager.sol\":3360:3361  2 */\n      0x02\n        /* \"LoanManager.sol\":3344:3356  _creditScore */\n      dup6\n        /* \"LoanManager.sol\":3344:3361  _creditScore == 2 */\n      0xff\n      and\n      sub\n        /* \"LoanManager.sol\":3340:3784  if (_creditScore == 2) {... */\n      tag_409\n      jumpi\n        /* \"LoanManager.sol\":3403:3407  1000 */\n      0x03e8\n        /* \"LoanManager.sol\":3378:3407  annualizedInterestRate = 1000 */\n      swap2\n      pop\n        /* \"LoanManager.sol\":3453:3457  3500 */\n      0x0dac\n        /* \"LoanManager.sol\":3429:3457  annualizedPenaltyRate = 3500 */\n      swap1\n      pop\n        /* \"LoanManager.sol\":3340:3784  if (_creditScore == 2) {... */\n      jump(tag_410)\n    tag_409:\n        /* \"LoanManager.sol\":3514:3515  3 */\n      0x03\n        /* \"LoanManager.sol\":3498:3510  _creditScore */\n      dup6\n        /* \"LoanManager.sol\":3498:3515  _creditScore == 3 */\n      0xff\n      and\n      sub\n        /* \"LoanManager.sol\":3494:3784  if (_creditScore == 3) {... */\n      tag_411\n      jumpi\n        /* \"LoanManager.sol\":3557:3560  800 */\n      0x0320\n        /* \"LoanManager.sol\":3532:3560  annualizedInterestRate = 800 */\n      swap2\n      pop\n        /* \"LoanManager.sol\":3606:3610  2500 */\n      0x09c4\n        /* \"LoanManager.sol\":3582:3610  annualizedPenaltyRate = 2500 */\n      swap1\n      pop\n        /* \"LoanManager.sol\":3494:3784  if (_creditScore == 3) {... */\n      jump(tag_412)\n    tag_411:\n        /* \"LoanManager.sol\":3666:3667  4 */\n      0x04\n        /* \"LoanManager.sol\":3650:3662  _creditScore */\n      dup6\n        /* \"LoanManager.sol\":3650:3667  _creditScore >= 4 */\n      0xff\n      and\n      lt\n        /* \"LoanManager.sol\":3646:3784  if (_creditScore >= 4) {  ... */\n      tag_413\n      jumpi\n        /* \"LoanManager.sol\":3711:3714  600 */\n      0x0258\n        /* \"LoanManager.sol\":3686:3714  annualizedInterestRate = 600 */\n      swap2\n      pop\n        /* \"LoanManager.sol\":3760:3764  1500 */\n      0x05dc\n        /* \"LoanManager.sol\":3736:3764  annualizedPenaltyRate = 1500 */\n      swap1\n      pop\n        /* \"LoanManager.sol\":3646:3784  if (_creditScore >= 4) {  ... */\n    tag_413:\n        /* \"LoanManager.sol\":3494:3784  if (_creditScore == 3) {... */\n    tag_412:\n        /* \"LoanManager.sol\":3340:3784  if (_creditScore == 2) {... */\n    tag_410:\n        /* \"LoanManager.sol\":3187:3784  if (_creditScore == 1) {... */\n    tag_408:\n        /* \"LoanManager.sol\":3034:3784  if (_creditScore == 0) {... */\n    tag_406:\n        /* \"LoanManager.sol\":3804:3826  annualizedInterestRate */\n      dup2\n        /* \"LoanManager.sol\":3828:3849  annualizedPenaltyRate */\n      dup2\n        /* \"LoanManager.sol\":3796:3850  return (annualizedInterestRate, annualizedPenaltyRate) */\n      swap4\n      pop\n      swap4\n      pop\n      pop\n      pop\n        /* \"LoanManager.sol\":2754:3858  function loanInterestRateCalculator(uint8 _creditScore) private pure returns (uint256, uint256) {... */\n      swap2\n      pop\n      swap2\n      jump\t// out\n        /* \"LoanManager.sol\":3866:4038  function addNewLoan(Loan memory _loan) private {... */\n    tag_242:\n        /* \"LoanManager.sol\":3950:3955  _loan */\n      dup1\n        /* \"LoanManager.sol\":3924:3933  loansById */\n      0x02\n        /* \"LoanManager.sol\":3924:3947  loansById[_loan.loanId] */\n      0x00\n        /* \"LoanManager.sol\":3934:3939  _loan */\n      dup4\n        /* \"LoanManager.sol\":3934:3946  _loan.loanId */\n      0x00\n      add\n      mload\n        /* \"LoanManager.sol\":3924:3947  loansById[_loan.loanId] */\n      dup2\n      mstore\n      0x20\n      add\n      swap1\n      dup2\n      mstore\n      0x20\n      add\n      0x00\n      keccak256\n        /* \"LoanManager.sol\":3924:3955  loansById[_loan.loanId] = _loan */\n      0x00\n      dup3\n      add\n      mload\n      dup2\n      0x00\n      add\n      sstore\n      0x20\n      dup3\n      add\n      mload\n      dup2\n      0x01\n      add\n      0x00\n      dup3\n      add\n      mload\n      dup2\n      0x00\n      add\n      exp(0x0100, 0x00)\n      dup2\n      sload\n      dup2\n      0xffffffffffffffffffffffffffffffffffffffff\n      mul\n      not\n      and\n      swap1\n      dup4\n      0xffffffffffffffffffffffffffffffffffffffff\n      and\n      mul\n      or\n      swap1\n      sstore\n      pop\n      0x20\n      dup3\n      add\n      mload\n      dup2\n      0x00\n      add\n      exp(0x0100, 0x14)\n      dup2\n      sload\n      dup2\n      0xff\n      mul\n      not\n      and\n      swap1\n      dup4\n      0xff\n      and\n      mul\n      or\n      swap1\n      sstore\n      pop\n      0x40\n      dup3\n      add\n      mload\n      dup2\n      0x01\n      add\n      swap1\n      dup1\n      mload\n      swap1\n      0x20\n      add\n      swap1\n      tag_415\n      swap3\n      swap2\n      swap1\n      tag_416\n      jump\t// in\n    tag_415:\n      pop\n      pop\n      pop\n      0x40\n      dup3\n      add\n      mload\n      dup2\n      0x03\n      add\n      exp(0x0100, 0x00)\n      dup2\n      sload\n      dup2\n      0xffffffffffffffffffffffffffffffffffffffff\n      mul\n      not\n      and\n      swap1\n      dup4\n      0xffffffffffffffffffffffffffffffffffffffff\n      and\n      mul\n      or\n      swap1\n      sstore\n      pop\n      0x60\n      dup3\n      add\n      mload\n      dup2\n      0x04\n      add\n      sstore\n      0x80\n      dup3\n      add\n      mload\n      dup2\n      0x05\n      add\n      sstore\n      0xa0\n      dup3\n      add\n      mload\n      dup2\n      0x06\n      add\n      sstore\n      0xc0\n      dup3\n      add\n      mload\n      dup2\n      0x07\n      add\n      sstore\n      0xe0\n      dup3\n      add\n      mload\n      dup2\n      0x08\n      add\n      sstore\n      0x0100\n      dup3\n      add\n      mload\n      dup2\n      0x09\n      add\n      sstore\n      0x0120\n      dup3\n      add\n      mload\n      dup2\n      0x0a\n      add\n      exp(0x0100, 0x00)\n      dup2\n      sload\n      dup2\n      0xff\n      mul\n      not\n      and\n      swap1\n      dup4\n      0x04\n      dup2\n      gt\n      iszero\n      tag_417\n      jumpi\n      tag_418\n      tag_79\n      jump\t// in\n    tag_418:\n    tag_417:\n      mul\n      or\n      swap1\n      sstore\n      pop\n      0x0140\n      dup3\n      add\n      mload\n      dup2\n      0x0a\n      add\n      exp(0x0100, 0x01)\n      dup2\n      sload\n      dup2\n      0xff\n      mul\n      not\n      and\n      swap1\n      dup4\n      0x02\n      dup2\n      gt\n      iszero\n      tag_419\n      jumpi\n      tag_420\n      tag_79\n      jump\t// in\n    tag_420:\n    tag_419:\n      mul\n      or\n      swap1\n      sstore\n      pop\n      swap1\n      pop\n      pop\n        /* \"LoanManager.sol\":3966:3979  borrowerLoans */\n      0x04\n        /* \"LoanManager.sol\":3966:4011  borrowerLoans[_loan.borrower.borrowerAddress] */\n      0x00\n        /* \"LoanManager.sol\":3980:3985  _loan */\n      dup3\n        /* \"LoanManager.sol\":3980:3994  _loan.borrower */\n      0x20\n      add\n      mload\n        /* \"LoanManager.sol\":3980:4010  _loan.borrower.borrowerAddress */\n      0x00\n      add\n      mload\n        /* \"LoanManager.sol\":3966:4011  borrowerLoans[_loan.borrower.borrowerAddress] */\n      0xffffffffffffffffffffffffffffffffffffffff\n      and\n      0xffffffffffffffffffffffffffffffffffffffff\n      and\n      dup2\n      mstore\n      0x20\n      add\n      swap1\n      dup2\n      mstore\n      0x20\n      add\n      0x00\n      keccak256\n        /* \"LoanManager.sol\":4017:4022  _loan */\n      dup2\n        /* \"LoanManager.sol\":4017:4029  _loan.loanId */\n      0x00\n      add\n      mload\n        /* \"LoanManager.sol\":3966:4030  borrowerLoans[_loan.borrower.borrowerAddress].push(_loan.loanId) */\n      swap1\n      dup1\n      0x01\n      dup2\n      sload\n      add\n      dup1\n      dup3\n      sstore\n      dup1\n      swap2\n      pop\n      pop\n      0x01\n      swap1\n      sub\n      swap1\n      0x00\n      mstore\n      keccak256(0x00, 0x20)\n      add\n      0x00\n      swap1\n      swap2\n      swap1\n      swap2\n      swap1\n      swap2\n      pop\n      sstore\n        /* \"LoanManager.sol\":3866:4038  function addNewLoan(Loan memory _loan) private {... */\n      pop\n      jump\t// out\n        /* \"LoanManager.sol\":4445:5350  function checkRepayLoanInfo(uint _loanId) private view returns(uint256, bool){... */\n    tag_264:\n        /* \"LoanManager.sol\":4508:4515  uint256 */\n      0x00\n        /* \"LoanManager.sol\":4517:4521  bool */\n      0x00\n        /* \"LoanManager.sol\":4533:4550  Loan storage loan */\n      0x00\n        /* \"LoanManager.sol\":4553:4562  loansById */\n      0x02\n        /* \"LoanManager.sol\":4553:4571  loansById[_loanId] */\n      0x00\n        /* \"LoanManager.sol\":4563:4570  _loanId */\n      dup6\n        /* \"LoanManager.sol\":4553:4571  loansById[_loanId] */\n      dup2\n      mstore\n      0x20\n      add\n      swap1\n      dup2\n      mstore\n      0x20\n      add\n      0x00\n      keccak256\n        /* \"LoanManager.sol\":4533:4571  Loan storage loan = loansById[_loanId] */\n      swap1\n      pop\n        /* \"LoanManager.sol\":4584:4600  uint repayAmount */\n      0x00\n        /* \"LoanManager.sol\":4611:4632  uint loanDurationDays */\n      0x00\n        /* \"LoanManager.sol\":4635:4671  getDaysOfLoanDuration(loan.duration) */\n      tag_423\n        /* \"LoanManager.sol\":4657:4661  loan */\n      dup4\n        /* \"LoanManager.sol\":4657:4670  loan.duration */\n      0x0a\n      add\n      0x01\n      swap1\n      sload\n      swap1\n      0x0100\n      exp\n      swap1\n      div\n      0xff\n      and\n        /* \"LoanManager.sol\":4635:4656  getDaysOfLoanDuration */\n      tag_92\n        /* \"LoanManager.sol\":4635:4671  getDaysOfLoanDuration(loan.duration) */\n      jump\t// in\n    tag_423:\n        /* \"LoanManager.sol\":4611:4671  uint loanDurationDays = getDaysOfLoanDuration(loan.duration) */\n      swap1\n      pop\n        /* \"LoanManager.sol\":4682:4700  uint loanDelayDays */\n      0x00\n        /* \"LoanManager.sol\":4746:4751  86400 */\n      0x015180\n        /* \"LoanManager.sol\":4737:4742  86399 */\n      0x01517f\n        /* \"LoanManager.sol\":4722:4726  loan */\n      dup6\n        /* \"LoanManager.sol\":4722:4734  loan.dueDate */\n      0x08\n      add\n      sload\n        /* \"LoanManager.sol\":4704:4719  block.timestamp */\n      timestamp\n        /* \"LoanManager.sol\":4704:4734  block.timestamp - loan.dueDate */\n      tag_424\n      swap2\n      swap1\n      tag_117\n      jump\t// in\n    tag_424:\n        /* \"LoanManager.sol\":4704:4742  block.timestamp - loan.dueDate + 86399 */\n      tag_425\n      swap2\n      swap1\n      tag_96\n      jump\t// in\n    tag_425:\n        /* \"LoanManager.sol\":4703:4751  (block.timestamp - loan.dueDate + 86399) / 86400 */\n      tag_426\n      swap2\n      swap1\n      tag_427\n      jump\t// in\n    tag_426:\n        /* \"LoanManager.sol\":4682:4751  uint loanDelayDays = (block.timestamp - loan.dueDate + 86399) / 86400 */\n      swap1\n      pop\n        /* \"LoanManager.sol\":4762:4778  bool overdueLoan */\n      0x00\n        /* \"LoanManager.sol\":4813:4817  loan */\n      dup5\n        /* \"LoanManager.sol\":4813:4825  loan.dueDate */\n      0x08\n      add\n      sload\n        /* \"LoanManager.sol\":4794:4809  block.timestamp */\n      timestamp\n        /* \"LoanManager.sol\":4794:4825  block.timestamp <= loan.dueDate */\n      gt\n        /* \"LoanManager.sol\":4791:5297  if(block.timestamp <= loan.dueDate){... */\n      tag_428\n      jumpi\n        /* \"LoanManager.sol\":4855:4935  LoanLibrary.interestCalculator(loan.interestRate, loan.amount, loanDurationDays) */\n      tag_429\n        /* \"LoanManager.sol\":4886:4890  loan */\n      dup6\n        /* \"LoanManager.sol\":4886:4903  loan.interestRate */\n      0x05\n      add\n      sload\n        /* \"LoanManager.sol\":4905:4909  loan */\n      dup7\n        /* \"LoanManager.sol\":4905:4916  loan.amount */\n      0x04\n      add\n      sload\n        /* \"LoanManager.sol\":4918:4934  loanDurationDays */\n      dup6\n        /* \"LoanManager.sol\":4855:4885  LoanLibrary.interestCalculator */\n      tag_430\n        /* \"LoanManager.sol\":4855:4935  LoanLibrary.interestCalculator(loan.interestRate, loan.amount, loanDurationDays) */\n      jump\t// in\n    tag_429:\n        /* \"LoanManager.sol\":4841:4935  repayAmount = LoanLibrary.interestCalculator(loan.interestRate, loan.amount, loanDurationDays) */\n      swap4\n      pop\n        /* \"LoanManager.sol\":4964:4969  false */\n      0x00\n        /* \"LoanManager.sol\":4950:4969  overdueLoan = false */\n      swap1\n      pop\n        /* \"LoanManager.sol\":4791:5297  if(block.timestamp <= loan.dueDate){... */\n      jump(tag_431)\n    tag_428:\n        /* \"LoanManager.sol\":5008:5012  loan */\n      dup5\n        /* \"LoanManager.sol\":5008:5020  loan.dueDate */\n      0x08\n      add\n      sload\n        /* \"LoanManager.sol\":4990:5005  block.timestamp */\n      timestamp\n        /* \"LoanManager.sol\":4990:5020  block.timestamp > loan.dueDate */\n      gt\n        /* \"LoanManager.sol\":4987:5297  if(block.timestamp > loan.dueDate){... */\n      iszero\n      tag_432\n      jumpi\n        /* \"LoanManager.sol\":5036:5059  uint regularRepayAmount */\n      0x00\n        /* \"LoanManager.sol\":5062:5142  LoanLibrary.interestCalculator(loan.interestRate, loan.amount, loanDurationDays) */\n      tag_433\n        /* \"LoanManager.sol\":5093:5097  loan */\n      dup7\n        /* \"LoanManager.sol\":5093:5110  loan.interestRate */\n      0x05\n      add\n      sload\n        /* \"LoanManager.sol\":5112:5116  loan */\n      dup8\n        /* \"LoanManager.sol\":5112:5123  loan.amount */\n      0x04\n      add\n      sload\n        /* \"LoanManager.sol\":5125:5141  loanDurationDays */\n      dup7\n        /* \"LoanManager.sol\":5062:5092  LoanLibrary.interestCalculator */\n      tag_430\n        /* \"LoanManager.sol\":5062:5142  LoanLibrary.interestCalculator(loan.interestRate, loan.amount, loanDurationDays) */\n      jump\t// in\n    tag_433:\n        /* \"LoanManager.sol\":5036:5142  uint regularRepayAmount = LoanLibrary.interestCalculator(loan.interestRate, loan.amount, loanDurationDays) */\n      swap1\n      pop\n        /* \"LoanManager.sol\":5171:5252  LoanLibrary.penaltyCalculator(loan.penaltyRate,regularRepayAmount, loanDelayDays) */\n      tag_434\n        /* \"LoanManager.sol\":5201:5205  loan */\n      dup7\n        /* \"LoanManager.sol\":5201:5217  loan.penaltyRate */\n      0x06\n      add\n      sload\n        /* \"LoanManager.sol\":5218:5236  regularRepayAmount */\n      dup3\n        /* \"LoanManager.sol\":5238:5251  loanDelayDays */\n      dup6\n        /* \"LoanManager.sol\":5171:5200  LoanLibrary.penaltyCalculator */\n      tag_435\n        /* \"LoanManager.sol\":5171:5252  LoanLibrary.penaltyCalculator(loan.penaltyRate,regularRepayAmount, loanDelayDays) */\n      jump\t// in\n    tag_434:\n        /* \"LoanManager.sol\":5157:5252  repayAmount = LoanLibrary.penaltyCalculator(loan.penaltyRate,regularRepayAmount, loanDelayDays) */\n      swap5\n      pop\n        /* \"LoanManager.sol\":5281:5285  true */\n      0x01\n        /* \"LoanManager.sol\":5267:5285  overdueLoan = true */\n      swap2\n      pop\n        /* \"LoanManager.sol\":5021:5297  {... */\n      pop\n        /* \"LoanManager.sol\":4987:5297  if(block.timestamp > loan.dueDate){... */\n    tag_432:\n        /* \"LoanManager.sol\":4791:5297  if(block.timestamp <= loan.dueDate){... */\n    tag_431:\n        /* \"LoanManager.sol\":5317:5328  repayAmount */\n      dup4\n        /* \"LoanManager.sol\":5330:5341  overdueLoan */\n      dup2\n        /* \"LoanManager.sol\":5309:5342  return (repayAmount, overdueLoan) */\n      swap7\n      pop\n      swap7\n      pop\n      pop\n      pop\n      pop\n      pop\n      pop\n        /* \"LoanManager.sol\":4445:5350  function checkRepayLoanInfo(uint _loanId) private view returns(uint256, bool){... */\n      swap2\n      pop\n      swap2\n      jump\t// out\n        /* \"LoanLibrary.sol\":87:442  function interestCalculator(uint annualInterestRate, uint loanAmount, uint daysOfLoan)  internal pure returns(uint){... */\n    tag_430:\n        /* \"LoanLibrary.sol\":197:201  uint */\n      0x00\n        /* \"LoanLibrary.sol\":213:238  uint256 dailyInterestRate */\n      0x00\n        /* \"LoanLibrary.sol\":268:271  365 */\n      0x016d\n        /* \"LoanLibrary.sol\":262:265  100 */\n      0x64\n        /* \"LoanLibrary.sol\":241:259  annualInterestRate */\n      dup7\n        /* \"LoanLibrary.sol\":241:265  annualInterestRate / 100 */\n      tag_437\n      swap2\n      swap1\n      tag_427\n      jump\t// in\n    tag_437:\n        /* \"LoanLibrary.sol\":241:271  annualInterestRate / 100 / 365 */\n      tag_438\n      swap2\n      swap1\n      tag_427\n      jump\t// in\n    tag_438:\n        /* \"LoanLibrary.sol\":213:271  uint256 dailyInterestRate = annualInterestRate / 100 / 365 */\n      swap1\n      pop\n        /* \"LoanLibrary.sol\":289:298  uint256 i */\n      0x00\n        /* \"LoanLibrary.sol\":301:302  0 */\n      0x00\n        /* \"LoanLibrary.sol\":289:302  uint256 i = 0 */\n      swap1\n      pop\n        /* \"LoanLibrary.sol\":284:408  for (uint256 i = 0; i < daysOfLoan; i++) {... */\n    tag_439:\n        /* \"LoanLibrary.sol\":308:318  daysOfLoan */\n      dup4\n        /* \"LoanLibrary.sol\":304:305  i */\n      dup2\n        /* \"LoanLibrary.sol\":304:318  i < daysOfLoan */\n      lt\n        /* \"LoanLibrary.sol\":284:408  for (uint256 i = 0; i < daysOfLoan; i++) {... */\n      iszero\n      tag_440\n      jumpi\n        /* \"LoanLibrary.sol\":395:398  100 */\n      0x64\n        /* \"LoanLibrary.sol\":377:394  dailyInterestRate */\n      dup3\n        /* \"LoanLibrary.sol\":377:398  dailyInterestRate/100 */\n      tag_442\n      swap2\n      swap1\n      tag_427\n      jump\t// in\n    tag_442:\n        /* \"LoanLibrary.sol\":363:373  loanAmount */\n      dup6\n        /* \"LoanLibrary.sol\":363:399  loanAmount * (dailyInterestRate/100) */\n      tag_443\n      swap2\n      swap1\n      tag_94\n      jump\t// in\n    tag_443:\n        /* \"LoanLibrary.sol\":349:359  loanAmount */\n      dup6\n        /* \"LoanLibrary.sol\":349:400  loanAmount + (loanAmount * (dailyInterestRate/100)) */\n      tag_444\n      swap2\n      swap1\n      tag_96\n      jump\t// in\n    tag_444:\n        /* \"LoanLibrary.sol\":336:400  loanAmount = loanAmount + (loanAmount * (dailyInterestRate/100)) */\n      swap5\n      pop\n        /* \"LoanLibrary.sol\":320:323  i++ */\n      dup1\n      dup1\n      0x01\n      add\n      swap2\n      pop\n      pop\n        /* \"LoanLibrary.sol\":284:408  for (uint256 i = 0; i < daysOfLoan; i++) {... */\n      jump(tag_439)\n    tag_440:\n      pop\n        /* \"LoanLibrary.sol\":423:433  loanAmount */\n      dup4\n        /* \"LoanLibrary.sol\":416:433  return loanAmount */\n      swap2\n      pop\n      pop\n        /* \"LoanLibrary.sol\":87:442  function interestCalculator(uint annualInterestRate, uint loanAmount, uint daysOfLoan)  internal pure returns(uint){... */\n      swap4\n      swap3\n      pop\n      pop\n      pop\n      jump\t// out\n        /* \"LoanLibrary.sol\":450:803  function penaltyCalculator(uint annualPenaltyRate, uint loanAmount, uint daysOfDelay) internal pure returns (uint) {... */\n    tag_435:\n        /* \"LoanLibrary.sol\":559:563  uint */\n      0x00\n        /* \"LoanLibrary.sol\":576:600  uint256 dailyPenaltyRate */\n      0x00\n        /* \"LoanLibrary.sol\":629:632  365 */\n      0x016d\n        /* \"LoanLibrary.sol\":623:626  100 */\n      0x64\n        /* \"LoanLibrary.sol\":603:620  annualPenaltyRate */\n      dup7\n        /* \"LoanLibrary.sol\":603:626  annualPenaltyRate / 100 */\n      tag_446\n      swap2\n      swap1\n      tag_427\n      jump\t// in\n    tag_446:\n        /* \"LoanLibrary.sol\":603:632  annualPenaltyRate / 100 / 365 */\n      tag_447\n      swap2\n      swap1\n      tag_427\n      jump\t// in\n    tag_447:\n        /* \"LoanLibrary.sol\":576:632  uint256 dailyPenaltyRate = annualPenaltyRate / 100 / 365 */\n      swap1\n      pop\n        /* \"LoanLibrary.sol\":650:659  uint256 i */\n      0x00\n        /* \"LoanLibrary.sol\":662:663  0 */\n      0x00\n        /* \"LoanLibrary.sol\":650:663  uint256 i = 0 */\n      swap1\n      pop\n        /* \"LoanLibrary.sol\":645:769  for (uint256 i = 0; i < daysOfDelay; i++) {... */\n    tag_448:\n        /* \"LoanLibrary.sol\":669:680  daysOfDelay */\n      dup4\n        /* \"LoanLibrary.sol\":665:666  i */\n      dup2\n        /* \"LoanLibrary.sol\":665:680  i < daysOfDelay */\n      lt\n        /* \"LoanLibrary.sol\":645:769  for (uint256 i = 0; i < daysOfDelay; i++) {... */\n      iszero\n      tag_449\n      jumpi\n        /* \"LoanLibrary.sol\":756:759  100 */\n      0x64\n        /* \"LoanLibrary.sol\":739:755  dailyPenaltyRate */\n      dup3\n        /* \"LoanLibrary.sol\":739:759  dailyPenaltyRate/100 */\n      tag_451\n      swap2\n      swap1\n      tag_427\n      jump\t// in\n    tag_451:\n        /* \"LoanLibrary.sol\":725:735  loanAmount */\n      dup6\n        /* \"LoanLibrary.sol\":725:760  loanAmount * (dailyPenaltyRate/100) */\n      tag_452\n      swap2\n      swap1\n      tag_94\n      jump\t// in\n    tag_452:\n        /* \"LoanLibrary.sol\":711:721  loanAmount */\n      dup6\n        /* \"LoanLibrary.sol\":711:761  loanAmount + (loanAmount * (dailyPenaltyRate/100)) */\n      tag_453\n      swap2\n      swap1\n      tag_96\n      jump\t// in\n    tag_453:\n        /* \"LoanLibrary.sol\":698:761  loanAmount = loanAmount + (loanAmount * (dailyPenaltyRate/100)) */\n      swap5\n      pop\n        /* \"LoanLibrary.sol\":682:685  i++ */\n      dup1\n      dup1\n      0x01\n      add\n      swap2\n      pop\n      pop\n        /* \"LoanLibrary.sol\":645:769  for (uint256 i = 0; i < daysOfDelay; i++) {... */\n      jump(tag_448)\n    tag_449:\n      pop\n        /* \"LoanLibrary.sol\":784:794  loanAmount */\n      dup4\n        /* \"LoanLibrary.sol\":777:794  return loanAmount */\n      swap2\n      pop\n      pop\n        /* \"LoanLibrary.sol\":450:803  function penaltyCalculator(uint annualPenaltyRate, uint loanAmount, uint daysOfDelay) internal pure returns (uint) {... */\n      swap4\n      swap3\n      pop\n      pop\n      pop\n      jump\t// out\n    tag_182:\n      mload(0x40)\n      dup1\n      0x0160\n      add\n      0x40\n      mstore\n      dup1\n      0x00\n      dup2\n      mstore\n      0x20\n      add\n      tag_454\n      tag_455\n      jump\t// in\n    tag_454:\n      dup2\n      mstore\n      0x20\n      add\n      and(0xffffffffffffffffffffffffffffffffffffffff, 0x00)\n      dup2\n      mstore\n      0x20\n      add\n      0x00\n      dup2\n      mstore\n      0x20\n      add\n      0x00\n      dup2\n      mstore\n      0x20\n      add\n      0x00\n      dup2\n      mstore\n      0x20\n      add\n      0x00\n      dup2\n      mstore\n      0x20\n      add\n      0x00\n      dup2\n      mstore\n      0x20\n      add\n      0x00\n      dup2\n      mstore\n      0x20\n      add\n      0x00\n      0x04\n      dup2\n      gt\n      iszero\n      tag_456\n      jumpi\n      tag_457\n      tag_79\n      jump\t// in\n    tag_457:\n    tag_456:\n      dup2\n      mstore\n      0x20\n      add\n      0x00\n      0x02\n      dup2\n      gt\n      iszero\n      tag_458\n      jumpi\n      tag_459\n      tag_79\n      jump\t// in\n    tag_459:\n    tag_458:\n      dup2\n      mstore\n      pop\n      swap1\n      jump\t// out\n    tag_416:\n      dup3\n      dup1\n      sload\n      dup3\n      dup3\n      sstore\n      swap1\n      0x00\n      mstore\n      keccak256(0x00, 0x20)\n      swap1\n      dup2\n      add\n      swap3\n      dup3\n      iszero\n      tag_460\n      jumpi\n      swap2\n      0x20\n      mul\n      dup3\n      add\n    tag_461:\n      dup3\n      dup2\n      gt\n      iszero\n      tag_462\n      jumpi\n      dup3\n      mload\n      dup3\n      sstore\n      swap2\n      0x20\n      add\n      swap2\n      swap1\n      0x01\n      add\n      swap1\n      jump(tag_461)\n    tag_462:\n    tag_460:\n      pop\n      swap1\n      pop\n      tag_463\n      swap2\n      swap1\n      tag_464\n      jump\t// in\n    tag_463:\n      pop\n      swap1\n      jump\t// out\n    tag_455:\n      mload(0x40)\n      dup1\n      0x60\n      add\n      0x40\n      mstore\n      dup1\n      and(0xffffffffffffffffffffffffffffffffffffffff, 0x00)\n      dup2\n      mstore\n      0x20\n      add\n      and(0xff, 0x00)\n      dup2\n      mstore\n      0x20\n      add\n      0x60\n      dup2\n      mstore\n      pop\n      swap1\n      jump\t// out\n    tag_464:\n    tag_465:\n      dup1\n      dup3\n      gt\n      iszero\n      tag_466\n      jumpi\n      0x00\n      dup2\n      0x00\n      swap1\n      sstore\n      pop\n      0x01\n      add\n      jump(tag_465)\n    tag_466:\n      pop\n      swap1\n      jump\t// out\n        /* \"#utility.yul\":88:205   */\n    tag_468:\n        /* \"#utility.yul\":197:198   */\n      0x00\n        /* \"#utility.yul\":194:195   */\n      0x00\n        /* \"#utility.yul\":187:199   */\n      revert\n        /* \"#utility.yul\":334:411   */\n    tag_470:\n        /* \"#utility.yul\":371:378   */\n      0x00\n        /* \"#utility.yul\":400:405   */\n      dup2\n        /* \"#utility.yul\":389:405   */\n      swap1\n      pop\n        /* \"#utility.yul\":334:411   */\n      swap2\n      swap1\n      pop\n      jump\t// out\n        /* \"#utility.yul\":417:539   */\n    tag_471:\n        /* \"#utility.yul\":490:514   */\n      tag_552\n        /* \"#utility.yul\":508:513   */\n      dup2\n        /* \"#utility.yul\":490:514   */\n      tag_470\n      jump\t// in\n    tag_552:\n        /* \"#utility.yul\":483:488   */\n      dup2\n        /* \"#utility.yul\":480:515   */\n      eq\n        /* \"#utility.yul\":470:533   */\n      tag_553\n      jumpi\n        /* \"#utility.yul\":529:530   */\n      0x00\n        /* \"#utility.yul\":526:527   */\n      0x00\n        /* \"#utility.yul\":519:531   */\n      revert\n        /* \"#utility.yul\":470:533   */\n    tag_553:\n        /* \"#utility.yul\":417:539   */\n      pop\n      jump\t// out\n        /* \"#utility.yul\":545:684   */\n    tag_472:\n        /* \"#utility.yul\":591:596   */\n      0x00\n        /* \"#utility.yul\":629:635   */\n      dup2\n        /* \"#utility.yul\":616:636   */\n      calldataload\n        /* \"#utility.yul\":607:636   */\n      swap1\n      pop\n        /* \"#utility.yul\":645:678   */\n      tag_555\n        /* \"#utility.yul\":672:677   */\n      dup2\n        /* \"#utility.yul\":645:678   */\n      tag_471\n      jump\t// in\n    tag_555:\n        /* \"#utility.yul\":545:684   */\n      swap3\n      swap2\n      pop\n      pop\n      jump\t// out\n        /* \"#utility.yul\":690:1019   */\n    tag_16:\n        /* \"#utility.yul\":749:755   */\n      0x00\n        /* \"#utility.yul\":798:800   */\n      0x20\n        /* \"#utility.yul\":786:795   */\n      dup3\n        /* \"#utility.yul\":777:784   */\n      dup5\n        /* \"#utility.yul\":773:796   */\n      sub\n        /* \"#utility.yul\":769:801   */\n      slt\n        /* \"#utility.yul\":766:885   */\n      iszero\n      tag_557\n      jumpi\n        /* \"#utility.yul\":804:883   */\n      tag_558\n      tag_468\n      jump\t// in\n    tag_558:\n        /* \"#utility.yul\":766:885   */\n    tag_557:\n        /* \"#utility.yul\":924:925   */\n      0x00\n        /* \"#utility.yul\":949:1002   */\n      tag_559\n        /* \"#utility.yul\":994:1001   */\n      dup5\n        /* \"#utility.yul\":985:991   */\n      dup3\n        /* \"#utility.yul\":974:983   */\n      dup6\n        /* \"#utility.yul\":970:992   */\n      add\n        /* \"#utility.yul\":949:1002   */\n      tag_472\n      jump\t// in\n    tag_559:\n        /* \"#utility.yul\":939:1002   */\n      swap2\n      pop\n        /* \"#utility.yul\":895:1012   */\n      pop\n        /* \"#utility.yul\":690:1019   */\n      swap3\n      swap2\n      pop\n      pop\n      jump\t// out\n        /* \"#utility.yul\":1025:1160   */\n    tag_473:\n        /* \"#utility.yul\":1113:1119   */\n      0x00\n        /* \"#utility.yul\":1147:1152   */\n      dup2\n        /* \"#utility.yul\":1141:1153   */\n      mload\n        /* \"#utility.yul\":1131:1153   */\n      swap1\n      pop\n        /* \"#utility.yul\":1025:1160   */\n      swap2\n      swap1\n      pop\n      jump\t// out\n        /* \"#utility.yul\":1166:1371   */\n    tag_474:\n        /* \"#utility.yul\":1286:1297   */\n      0x00\n        /* \"#utility.yul\":1320:1326   */\n      dup3\n        /* \"#utility.yul\":1315:1318   */\n      dup3\n        /* \"#utility.yul\":1308:1327   */\n      mstore\n        /* \"#utility.yul\":1360:1364   */\n      0x20\n        /* \"#utility.yul\":1355:1358   */\n      dup3\n        /* \"#utility.yul\":1351:1365   */\n      add\n        /* \"#utility.yul\":1336:1365   */\n      swap1\n      pop\n        /* \"#utility.yul\":1166:1371   */\n      swap3\n      swap2\n      pop\n      pop\n      jump\t// out\n        /* \"#utility.yul\":1377:1530   */\n    tag_475:\n        /* \"#utility.yul\":1465:1469   */\n      0x00\n        /* \"#utility.yul\":1488:1491   */\n      dup2\n        /* \"#utility.yul\":1480:1491   */\n      swap1\n      pop\n        /* \"#utility.yul\":1518:1522   */\n      0x20\n        /* \"#utility.yul\":1513:1516   */\n      dup3\n        /* \"#utility.yul\":1509:1523   */\n      add\n        /* \"#utility.yul\":1501:1523   */\n      swap1\n      pop\n        /* \"#utility.yul\":1377:1530   */\n      swap2\n      swap1\n      pop\n      jump\t// out\n        /* \"#utility.yul\":1536:1644   */\n    tag_476:\n        /* \"#utility.yul\":1613:1637   */\n      tag_564\n        /* \"#utility.yul\":1631:1636   */\n      dup2\n        /* \"#utility.yul\":1613:1637   */\n      tag_470\n      jump\t// in\n    tag_564:\n        /* \"#utility.yul\":1608:1611   */\n      dup3\n        /* \"#utility.yul\":1601:1638   */\n      mstore\n        /* \"#utility.yul\":1536:1644   */\n      pop\n      pop\n      jump\t// out\n        /* \"#utility.yul\":1650:1776   */\n    tag_477:\n        /* \"#utility.yul\":1687:1694   */\n      0x00\n        /* \"#utility.yul\":1727:1769   */\n      0xffffffffffffffffffffffffffffffffffffffff\n        /* \"#utility.yul\":1720:1725   */\n      dup3\n        /* \"#utility.yul\":1716:1770   */\n      and\n        /* \"#utility.yul\":1705:1770   */\n      swap1\n      pop\n        /* \"#utility.yul\":1650:1776   */\n      swap2\n      swap1\n      pop\n      jump\t// out\n        /* \"#utility.yul\":1782:1878   */\n    tag_478:\n        /* \"#utility.yul\":1819:1826   */\n      0x00\n        /* \"#utility.yul\":1848:1872   */\n      tag_567\n        /* \"#utility.yul\":1866:1871   */\n      dup3\n        /* \"#utility.yul\":1848:1872   */\n      tag_477\n      jump\t// in\n    tag_567:\n        /* \"#utility.yul\":1837:1872   */\n      swap1\n      pop\n        /* \"#utility.yul\":1782:1878   */\n      swap2\n      swap1\n      pop\n      jump\t// out\n        /* \"#utility.yul\":1884:1992   */\n    tag_479:\n        /* \"#utility.yul\":1961:1985   */\n      tag_569\n        /* \"#utility.yul\":1979:1984   */\n      dup2\n        /* \"#utility.yul\":1961:1985   */\n      tag_478\n      jump\t// in\n    tag_569:\n        /* \"#utility.yul\":1956:1959   */\n      dup3\n        /* \"#utility.yul\":1949:1986   */\n      mstore\n        /* \"#utility.yul\":1884:1992   */\n      pop\n      pop\n      jump\t// out\n        /* \"#utility.yul\":1998:2084   */\n    tag_480:\n        /* \"#utility.yul\":2033:2040   */\n      0x00\n        /* \"#utility.yul\":2073:2077   */\n      0xff\n        /* \"#utility.yul\":2066:2071   */\n      dup3\n        /* \"#utility.yul\":2062:2078   */\n      and\n        /* \"#utility.yul\":2051:2078   */\n      swap1\n      pop\n        /* \"#utility.yul\":1998:2084   */\n      swap2\n      swap1\n      pop\n      jump\t// out\n        /* \"#utility.yul\":2090:2192   */\n    tag_481:\n        /* \"#utility.yul\":2163:2185   */\n      tag_572\n        /* \"#utility.yul\":2179:2184   */\n      dup2\n        /* \"#utility.yul\":2163:2185   */\n      tag_480\n      jump\t// in\n    tag_572:\n        /* \"#utility.yul\":2158:2161   */\n      dup3\n        /* \"#utility.yul\":2151:2186   */\n      mstore\n        /* \"#utility.yul\":2090:2192   */\n      pop\n      pop\n      jump\t// out\n        /* \"#utility.yul\":2198:2312   */\n    tag_482:\n        /* \"#utility.yul\":2265:2271   */\n      0x00\n        /* \"#utility.yul\":2299:2304   */\n      dup2\n        /* \"#utility.yul\":2293:2305   */\n      mload\n        /* \"#utility.yul\":2283:2305   */\n      swap1\n      pop\n        /* \"#utility.yul\":2198:2312   */\n      swap2\n      swap1\n      pop\n      jump\t// out\n        /* \"#utility.yul\":2318:2492   */\n    tag_483:\n        /* \"#utility.yul\":2407:2418   */\n      0x00\n        /* \"#utility.yul\":2441:2447   */\n      dup3\n        /* \"#utility.yul\":2436:2439   */\n      dup3\n        /* \"#utility.yul\":2429:2448   */\n      mstore\n        /* \"#utility.yul\":2481:2485   */\n      0x20\n        /* \"#utility.yul\":2476:2479   */\n      dup3\n        /* \"#utility.yul\":2472:2486   */\n      add\n        /* \"#utility.yul\":2457:2486   */\n      swap1\n      pop\n        /* \"#utility.yul\":2318:2492   */\n      swap3\n      swap2\n      pop\n      pop\n      jump\t// out\n        /* \"#utility.yul\":2498:2630   */\n    tag_484:\n        /* \"#utility.yul\":2565:2569   */\n      0x00\n        /* \"#utility.yul\":2588:2591   */\n      dup2\n        /* \"#utility.yul\":2580:2591   */\n      swap1\n      pop\n        /* \"#utility.yul\":2618:2622   */\n      0x20\n        /* \"#utility.yul\":2613:2616   */\n      dup3\n        /* \"#utility.yul\":2609:2623   */\n      add\n        /* \"#utility.yul\":2601:2623   */\n      swap1\n      pop\n        /* \"#utility.yul\":2498:2630   */\n      swap2\n      swap1\n      pop\n      jump\t// out\n        /* \"#utility.yul\":2636:2815   */\n    tag_485:\n        /* \"#utility.yul\":2705:2715   */\n      0x00\n        /* \"#utility.yul\":2726:2772   */\n      tag_577\n        /* \"#utility.yul\":2768:2771   */\n      dup4\n        /* \"#utility.yul\":2760:2766   */\n      dup4\n        /* \"#utility.yul\":2726:2772   */\n      tag_476\n      jump\t// in\n    tag_577:\n        /* \"#utility.yul\":2804:2808   */\n      0x20\n        /* \"#utility.yul\":2799:2802   */\n      dup4\n        /* \"#utility.yul\":2795:2809   */\n      add\n        /* \"#utility.yul\":2781:2809   */\n      swap1\n      pop\n        /* \"#utility.yul\":2636:2815   */\n      swap3\n      swap2\n      pop\n      pop\n      jump\t// out\n        /* \"#utility.yul\":2821:2934   */\n    tag_486:\n        /* \"#utility.yul\":2891:2895   */\n      0x00\n        /* \"#utility.yul\":2923:2927   */\n      0x20\n        /* \"#utility.yul\":2918:2921   */\n      dup3\n        /* \"#utility.yul\":2914:2928   */\n      add\n        /* \"#utility.yul\":2906:2928   */\n      swap1\n      pop\n        /* \"#utility.yul\":2821:2934   */\n      swap2\n      swap1\n      pop\n      jump\t// out\n        /* \"#utility.yul\":2970:3682   */\n    tag_487:\n        /* \"#utility.yul\":3079:3082   */\n      0x00\n        /* \"#utility.yul\":3108:3162   */\n      tag_580\n        /* \"#utility.yul\":3156:3161   */\n      dup3\n        /* \"#utility.yul\":3108:3162   */\n      tag_482\n      jump\t// in\n    tag_580:\n        /* \"#utility.yul\":3178:3254   */\n      tag_581\n        /* \"#utility.yul\":3247:3253   */\n      dup2\n        /* \"#utility.yul\":3242:3245   */\n      dup6\n        /* \"#utility.yul\":3178:3254   */\n      tag_483\n      jump\t// in\n    tag_581:\n        /* \"#utility.yul\":3171:3254   */\n      swap4\n      pop\n        /* \"#utility.yul\":3278:3334   */\n      tag_582\n        /* \"#utility.yul\":3328:3333   */\n      dup4\n        /* \"#utility.yul\":3278:3334   */\n      tag_484\n      jump\t// in\n    tag_582:\n        /* \"#utility.yul\":3357:3364   */\n      dup1\n        /* \"#utility.yul\":3388:3389   */\n      0x00\n        /* \"#utility.yul\":3373:3657   */\n    tag_583:\n        /* \"#utility.yul\":3398:3404   */\n      dup4\n        /* \"#utility.yul\":3395:3396   */\n      dup2\n        /* \"#utility.yul\":3392:3405   */\n      lt\n        /* \"#utility.yul\":3373:3657   */\n      iszero\n      tag_585\n      jumpi\n        /* \"#utility.yul\":3474:3480   */\n      dup2\n        /* \"#utility.yul\":3468:3481   */\n      mload\n        /* \"#utility.yul\":3501:3564   */\n      tag_586\n        /* \"#utility.yul\":3560:3563   */\n      dup9\n        /* \"#utility.yul\":3545:3558   */\n      dup3\n        /* \"#utility.yul\":3501:3564   */\n      tag_485\n      jump\t// in\n    tag_586:\n        /* \"#utility.yul\":3494:3564   */\n      swap8\n      pop\n        /* \"#utility.yul\":3587:3647   */\n      tag_587\n        /* \"#utility.yul\":3640:3646   */\n      dup4\n        /* \"#utility.yul\":3587:3647   */\n      tag_486\n      jump\t// in\n    tag_587:\n        /* \"#utility.yul\":3577:3647   */\n      swap3\n      pop\n        /* \"#utility.yul\":3433:3657   */\n      pop\n        /* \"#utility.yul\":3420:3421   */\n      0x01\n        /* \"#utility.yul\":3417:3418   */\n      dup2\n        /* \"#utility.yul\":3413:3422   */\n      add\n        /* \"#utility.yul\":3408:3422   */\n      swap1\n      pop\n        /* \"#utility.yul\":3373:3657   */\n      jump(tag_583)\n    tag_585:\n        /* \"#utility.yul\":3377:3391   */\n      pop\n        /* \"#utility.yul\":3673:3676   */\n      dup6\n        /* \"#utility.yul\":3666:3676   */\n      swap4\n      pop\n        /* \"#utility.yul\":3084:3682   */\n      pop\n      pop\n      pop\n        /* \"#utility.yul\":2970:3682   */\n      swap3\n      swap2\n      pop\n      pop\n      jump\t// out\n        /* \"#utility.yul\":3762:4591   */\n    tag_488:\n        /* \"#utility.yul\":3879:3882   */\n      0x00\n        /* \"#utility.yul\":3915:3919   */\n      0x60\n        /* \"#utility.yul\":3910:3913   */\n      dup4\n        /* \"#utility.yul\":3906:3920   */\n      add\n        /* \"#utility.yul\":4013:4017   */\n      0x00\n        /* \"#utility.yul\":4006:4011   */\n      dup4\n        /* \"#utility.yul\":4002:4018   */\n      add\n        /* \"#utility.yul\":3996:4019   */\n      mload\n        /* \"#utility.yul\":4032:4095   */\n      tag_589\n        /* \"#utility.yul\":4089:4093   */\n      0x00\n        /* \"#utility.yul\":4084:4087   */\n      dup7\n        /* \"#utility.yul\":4080:4094   */\n      add\n        /* \"#utility.yul\":4066:4078   */\n      dup3\n        /* \"#utility.yul\":4032:4095   */\n      tag_479\n      jump\t// in\n    tag_589:\n        /* \"#utility.yul\":3930:4105   */\n      pop\n        /* \"#utility.yul\":4194:4198   */\n      0x20\n        /* \"#utility.yul\":4187:4192   */\n      dup4\n        /* \"#utility.yul\":4183:4199   */\n      add\n        /* \"#utility.yul\":4177:4200   */\n      mload\n        /* \"#utility.yul\":4213:4272   */\n      tag_590\n        /* \"#utility.yul\":4266:4270   */\n      0x20\n        /* \"#utility.yul\":4261:4264   */\n      dup7\n        /* \"#utility.yul\":4257:4271   */\n      add\n        /* \"#utility.yul\":4243:4255   */\n      dup3\n        /* \"#utility.yul\":4213:4272   */\n      tag_481\n      jump\t// in\n    tag_590:\n        /* \"#utility.yul\":4115:4282   */\n      pop\n        /* \"#utility.yul\":4371:4375   */\n      0x40\n        /* \"#utility.yul\":4364:4369   */\n      dup4\n        /* \"#utility.yul\":4360:4376   */\n      add\n        /* \"#utility.yul\":4354:4377   */\n      mload\n        /* \"#utility.yul\":4424:4427   */\n      dup5\n        /* \"#utility.yul\":4418:4422   */\n      dup3\n        /* \"#utility.yul\":4414:4428   */\n      sub\n        /* \"#utility.yul\":4407:4411   */\n      0x40\n        /* \"#utility.yul\":4402:4405   */\n      dup7\n        /* \"#utility.yul\":4398:4412   */\n      add\n        /* \"#utility.yul\":4391:4429   */\n      mstore\n        /* \"#utility.yul\":4450:4553   */\n      tag_591\n        /* \"#utility.yul\":4548:4552   */\n      dup3\n        /* \"#utility.yul\":4534:4546   */\n      dup3\n        /* \"#utility.yul\":4450:4553   */\n      tag_487\n      jump\t// in\n    tag_591:\n        /* \"#utility.yul\":4442:4553   */\n      swap2\n      pop\n        /* \"#utility.yul\":4292:4564   */\n      pop\n        /* \"#utility.yul\":4581:4585   */\n      dup1\n        /* \"#utility.yul\":4574:4585   */\n      swap2\n      pop\n        /* \"#utility.yul\":3884:4591   */\n      pop\n        /* \"#utility.yul\":3762:4591   */\n      swap3\n      swap2\n      pop\n      pop\n      jump\t// out\n        /* \"#utility.yul\":4597:4777   */\n    tag_79:\n        /* \"#utility.yul\":4645:4722   */\n      0x4e487b7100000000000000000000000000000000000000000000000000000000\n        /* \"#utility.yul\":4642:4643   */\n      0x00\n        /* \"#utility.yul\":4635:4723   */\n      mstore\n        /* \"#utility.yul\":4742:4746   */\n      0x21\n        /* \"#utility.yul\":4739:4740   */\n      0x04\n        /* \"#utility.yul\":4732:4747   */\n      mstore\n        /* \"#utility.yul\":4766:4770   */\n      0x24\n        /* \"#utility.yul\":4763:4764   */\n      0x00\n        /* \"#utility.yul\":4756:4771   */\n      revert\n        /* \"#utility.yul\":4783:4902   */\n    tag_489:\n        /* \"#utility.yul\":4870:4871   */\n      0x05\n        /* \"#utility.yul\":4863:4868   */\n      dup2\n        /* \"#utility.yul\":4860:4872   */\n      lt\n        /* \"#utility.yul\":4850:4896   */\n      tag_594\n      jumpi\n        /* \"#utility.yul\":4876:4894   */\n      tag_595\n      tag_79\n      jump\t// in\n    tag_595:\n        /* \"#utility.yul\":4850:4896   */\n    tag_594:\n        /* \"#utility.yul\":4783:4902   */\n      pop\n      jump\t// out\n        /* \"#utility.yul\":4908:5047   */\n    tag_490:\n        /* \"#utility.yul\":4959:4966   */\n      0x00\n        /* \"#utility.yul\":4988:4993   */\n      dup2\n        /* \"#utility.yul\":4977:4993   */\n      swap1\n      pop\n        /* \"#utility.yul\":4994:5041   */\n      tag_597\n        /* \"#utility.yul\":5035:5040   */\n      dup3\n        /* \"#utility.yul\":4994:5041   */\n      tag_489\n      jump\t// in\n    tag_597:\n        /* \"#utility.yul\":4908:5047   */\n      swap2\n      swap1\n      pop\n      jump\t// out\n        /* \"#utility.yul\":5053:5192   */\n    tag_491:\n        /* \"#utility.yul\":5115:5124   */\n      0x00\n        /* \"#utility.yul\":5148:5186   */\n      tag_599\n        /* \"#utility.yul\":5180:5185   */\n      dup3\n        /* \"#utility.yul\":5148:5186   */\n      tag_490\n      jump\t// in\n    tag_599:\n        /* \"#utility.yul\":5135:5186   */\n      swap1\n      pop\n        /* \"#utility.yul\":5053:5192   */\n      swap2\n      swap1\n      pop\n      jump\t// out\n        /* \"#utility.yul\":5198:5343   */\n    tag_492:\n        /* \"#utility.yul\":5287:5336   */\n      tag_601\n        /* \"#utility.yul\":5330:5335   */\n      dup2\n        /* \"#utility.yul\":5287:5336   */\n      tag_491\n      jump\t// in\n    tag_601:\n        /* \"#utility.yul\":5282:5285   */\n      dup3\n        /* \"#utility.yul\":5275:5337   */\n      mstore\n        /* \"#utility.yul\":5198:5343   */\n      pop\n      pop\n      jump\t// out\n        /* \"#utility.yul\":5349:5470   */\n    tag_493:\n        /* \"#utility.yul\":5438:5439   */\n      0x03\n        /* \"#utility.yul\":5431:5436   */\n      dup2\n        /* \"#utility.yul\":5428:5440   */\n      lt\n        /* \"#utility.yul\":5418:5464   */\n      tag_603\n      jumpi\n        /* \"#utility.yul\":5444:5462   */\n      tag_604\n      tag_79\n      jump\t// in\n    tag_604:\n        /* \"#utility.yul\":5418:5464   */\n    tag_603:\n        /* \"#utility.yul\":5349:5470   */\n      pop\n      jump\t// out\n        /* \"#utility.yul\":5476:5619   */\n    tag_494:\n        /* \"#utility.yul\":5529:5536   */\n      0x00\n        /* \"#utility.yul\":5558:5563   */\n      dup2\n        /* \"#utility.yul\":5547:5563   */\n      swap1\n      pop\n        /* \"#utility.yul\":5564:5613   */\n      tag_606\n        /* \"#utility.yul\":5607:5612   */\n      dup3\n        /* \"#utility.yul\":5564:5613   */\n      tag_493\n      jump\t// in\n    tag_606:\n        /* \"#utility.yul\":5476:5619   */\n      swap2\n      swap1\n      pop\n      jump\t// out\n        /* \"#utility.yul\":5625:5768   */\n    tag_495:\n        /* \"#utility.yul\":5689:5698   */\n      0x00\n        /* \"#utility.yul\":5722:5762   */\n      tag_608\n        /* \"#utility.yul\":5756:5761   */\n      dup3\n        /* \"#utility.yul\":5722:5762   */\n      tag_494\n      jump\t// in\n    tag_608:\n        /* \"#utility.yul\":5709:5762   */\n      swap1\n      pop\n        /* \"#utility.yul\":5625:5768   */\n      swap2\n      swap1\n      pop\n      jump\t// out\n        /* \"#utility.yul\":5774:5923   */\n    tag_496:\n        /* \"#utility.yul\":5865:5916   */\n      tag_610\n        /* \"#utility.yul\":5910:5915   */\n      dup2\n        /* \"#utility.yul\":5865:5916   */\n      tag_495\n      jump\t// in\n    tag_610:\n        /* \"#utility.yul\":5860:5863   */\n      dup3\n        /* \"#utility.yul\":5853:5917   */\n      mstore\n        /* \"#utility.yul\":5774:5923   */\n      pop\n      pop\n      jump\t// out\n        /* \"#utility.yul\":5987:8265   */\n    tag_497:\n        /* \"#utility.yul\":6088:6091   */\n      0x00\n        /* \"#utility.yul\":6124:6130   */\n      0x0160\n        /* \"#utility.yul\":6119:6122   */\n      dup4\n        /* \"#utility.yul\":6115:6131   */\n      add\n        /* \"#utility.yul\":6215:6219   */\n      0x00\n        /* \"#utility.yul\":6208:6213   */\n      dup4\n        /* \"#utility.yul\":6204:6220   */\n      add\n        /* \"#utility.yul\":6198:6221   */\n      mload\n        /* \"#utility.yul\":6234:6297   */\n      tag_612\n        /* \"#utility.yul\":6291:6295   */\n      0x00\n        /* \"#utility.yul\":6286:6289   */\n      dup7\n        /* \"#utility.yul\":6282:6296   */\n      add\n        /* \"#utility.yul\":6268:6280   */\n      dup3\n        /* \"#utility.yul\":6234:6297   */\n      tag_476\n      jump\t// in\n    tag_612:\n        /* \"#utility.yul\":6141:6307   */\n      pop\n        /* \"#utility.yul\":6393:6397   */\n      0x20\n        /* \"#utility.yul\":6386:6391   */\n      dup4\n        /* \"#utility.yul\":6382:6398   */\n      add\n        /* \"#utility.yul\":6376:6399   */\n      mload\n        /* \"#utility.yul\":6446:6449   */\n      dup5\n        /* \"#utility.yul\":6440:6444   */\n      dup3\n        /* \"#utility.yul\":6436:6450   */\n      sub\n        /* \"#utility.yul\":6429:6433   */\n      0x20\n        /* \"#utility.yul\":6424:6427   */\n      dup7\n        /* \"#utility.yul\":6420:6434   */\n      add\n        /* \"#utility.yul\":6413:6451   */\n      mstore\n        /* \"#utility.yul\":6472:6583   */\n      tag_613\n        /* \"#utility.yul\":6578:6582   */\n      dup3\n        /* \"#utility.yul\":6564:6576   */\n      dup3\n        /* \"#utility.yul\":6472:6583   */\n      tag_488\n      jump\t// in\n    tag_613:\n        /* \"#utility.yul\":6464:6583   */\n      swap2\n      pop\n        /* \"#utility.yul\":6317:6594   */\n      pop\n        /* \"#utility.yul\":6678:6682   */\n      0x40\n        /* \"#utility.yul\":6671:6676   */\n      dup4\n        /* \"#utility.yul\":6667:6683   */\n      add\n        /* \"#utility.yul\":6661:6684   */\n      mload\n        /* \"#utility.yul\":6697:6760   */\n      tag_614\n        /* \"#utility.yul\":6754:6758   */\n      0x40\n        /* \"#utility.yul\":6749:6752   */\n      dup7\n        /* \"#utility.yul\":6745:6759   */\n      add\n        /* \"#utility.yul\":6731:6743   */\n      dup3\n        /* \"#utility.yul\":6697:6760   */\n      tag_479\n      jump\t// in\n    tag_614:\n        /* \"#utility.yul\":6604:6770   */\n      pop\n        /* \"#utility.yul\":6854:6858   */\n      0x60\n        /* \"#utility.yul\":6847:6852   */\n      dup4\n        /* \"#utility.yul\":6843:6859   */\n      add\n        /* \"#utility.yul\":6837:6860   */\n      mload\n        /* \"#utility.yul\":6873:6936   */\n      tag_615\n        /* \"#utility.yul\":6930:6934   */\n      0x60\n        /* \"#utility.yul\":6925:6928   */\n      dup7\n        /* \"#utility.yul\":6921:6935   */\n      add\n        /* \"#utility.yul\":6907:6919   */\n      dup3\n        /* \"#utility.yul\":6873:6936   */\n      tag_476\n      jump\t// in\n    tag_615:\n        /* \"#utility.yul\":6780:6946   */\n      pop\n        /* \"#utility.yul\":7036:7040   */\n      0x80\n        /* \"#utility.yul\":7029:7034   */\n      dup4\n        /* \"#utility.yul\":7025:7041   */\n      add\n        /* \"#utility.yul\":7019:7042   */\n      mload\n        /* \"#utility.yul\":7055:7118   */\n      tag_616\n        /* \"#utility.yul\":7112:7116   */\n      0x80\n        /* \"#utility.yul\":7107:7110   */\n      dup7\n        /* \"#utility.yul\":7103:7117   */\n      add\n        /* \"#utility.yul\":7089:7101   */\n      dup3\n        /* \"#utility.yul\":7055:7118   */\n      tag_476\n      jump\t// in\n    tag_616:\n        /* \"#utility.yul\":6956:7128   */\n      pop\n        /* \"#utility.yul\":7217:7221   */\n      0xa0\n        /* \"#utility.yul\":7210:7215   */\n      dup4\n        /* \"#utility.yul\":7206:7222   */\n      add\n        /* \"#utility.yul\":7200:7223   */\n      mload\n        /* \"#utility.yul\":7236:7299   */\n      tag_617\n        /* \"#utility.yul\":7293:7297   */\n      0xa0\n        /* \"#utility.yul\":7288:7291   */\n      dup7\n        /* \"#utility.yul\":7284:7298   */\n      add\n        /* \"#utility.yul\":7270:7282   */\n      dup3\n        /* \"#utility.yul\":7236:7299   */\n      tag_476\n      jump\t// in\n    tag_617:\n        /* \"#utility.yul\":7138:7309   */\n      pop\n        /* \"#utility.yul\":7396:7400   */\n      0xc0\n        /* \"#utility.yul\":7389:7394   */\n      dup4\n        /* \"#utility.yul\":7385:7401   */\n      add\n        /* \"#utility.yul\":7379:7402   */\n      mload\n        /* \"#utility.yul\":7415:7478   */\n      tag_618\n        /* \"#utility.yul\":7472:7476   */\n      0xc0\n        /* \"#utility.yul\":7467:7470   */\n      dup7\n        /* \"#utility.yul\":7463:7477   */\n      add\n        /* \"#utility.yul\":7449:7461   */\n      dup3\n        /* \"#utility.yul\":7415:7478   */\n      tag_476\n      jump\t// in\n    tag_618:\n        /* \"#utility.yul\":7319:7488   */\n      pop\n        /* \"#utility.yul\":7573:7577   */\n      0xe0\n        /* \"#utility.yul\":7566:7571   */\n      dup4\n        /* \"#utility.yul\":7562:7578   */\n      add\n        /* \"#utility.yul\":7556:7579   */\n      mload\n        /* \"#utility.yul\":7592:7655   */\n      tag_619\n        /* \"#utility.yul\":7649:7653   */\n      0xe0\n        /* \"#utility.yul\":7644:7647   */\n      dup7\n        /* \"#utility.yul\":7640:7654   */\n      add\n        /* \"#utility.yul\":7626:7638   */\n      dup3\n        /* \"#utility.yul\":7592:7655   */\n      tag_476\n      jump\t// in\n    tag_619:\n        /* \"#utility.yul\":7498:7665   */\n      pop\n        /* \"#utility.yul\":7754:7760   */\n      0x0100\n        /* \"#utility.yul\":7747:7752   */\n      dup4\n        /* \"#utility.yul\":7743:7761   */\n      add\n        /* \"#utility.yul\":7737:7762   */\n      mload\n        /* \"#utility.yul\":7775:7840   */\n      tag_620\n        /* \"#utility.yul\":7832:7838   */\n      0x0100\n        /* \"#utility.yul\":7827:7830   */\n      dup7\n        /* \"#utility.yul\":7823:7839   */\n      add\n        /* \"#utility.yul\":7809:7821   */\n      dup3\n        /* \"#utility.yul\":7775:7840   */\n      tag_476\n      jump\t// in\n    tag_620:\n        /* \"#utility.yul\":7675:7850   */\n      pop\n        /* \"#utility.yul\":7934:7940   */\n      0x0120\n        /* \"#utility.yul\":7927:7932   */\n      dup4\n        /* \"#utility.yul\":7923:7941   */\n      add\n        /* \"#utility.yul\":7917:7942   */\n      mload\n        /* \"#utility.yul\":7955:8032   */\n      tag_621\n        /* \"#utility.yul\":8024:8030   */\n      0x0120\n        /* \"#utility.yul\":8019:8022   */\n      dup7\n        /* \"#utility.yul\":8015:8031   */\n      add\n        /* \"#utility.yul\":8001:8013   */\n      dup3\n        /* \"#utility.yul\":7955:8032   */\n      tag_492\n      jump\t// in\n    tag_621:\n        /* \"#utility.yul\":7860:8042   */\n      pop\n        /* \"#utility.yul\":8128:8134   */\n      0x0140\n        /* \"#utility.yul\":8121:8126   */\n      dup4\n        /* \"#utility.yul\":8117:8135   */\n      add\n        /* \"#utility.yul\":8111:8136   */\n      mload\n        /* \"#utility.yul\":8149:8228   */\n      tag_622\n        /* \"#utility.yul\":8220:8226   */\n      0x0140\n        /* \"#utility.yul\":8215:8218   */\n      dup7\n        /* \"#utility.yul\":8211:8227   */\n      add\n        /* \"#utility.yul\":8197:8209   */\n      dup3\n        /* \"#utility.yul\":8149:8228   */\n      tag_496\n      jump\t// in\n    tag_622:\n        /* \"#utility.yul\":8052:8238   */\n      pop\n        /* \"#utility.yul\":8255:8259   */\n      dup1\n        /* \"#utility.yul\":8248:8259   */\n      swap2\n      pop\n        /* \"#utility.yul\":6093:8265   */\n      pop\n        /* \"#utility.yul\":5987:8265   */\n      swap3\n      swap2\n      pop\n      pop\n      jump\t// out\n        /* \"#utility.yul\":8271:8511   */\n    tag_498:\n        /* \"#utility.yul\":8382:8392   */\n      0x00\n        /* \"#utility.yul\":8417:8505   */\n      tag_624\n        /* \"#utility.yul\":8501:8504   */\n      dup4\n        /* \"#utility.yul\":8493:8499   */\n      dup4\n        /* \"#utility.yul\":8417:8505   */\n      tag_497\n      jump\t// in\n    tag_624:\n        /* \"#utility.yul\":8403:8505   */\n      swap1\n      pop\n        /* \"#utility.yul\":8271:8511   */\n      swap3\n      swap2\n      pop\n      pop\n      jump\t// out\n        /* \"#utility.yul\":8517:8651   */\n    tag_499:\n        /* \"#utility.yul\":8608:8612   */\n      0x00\n        /* \"#utility.yul\":8640:8644   */\n      0x20\n        /* \"#utility.yul\":8635:8638   */\n      dup3\n        /* \"#utility.yul\":8631:8645   */\n      add\n        /* \"#utility.yul\":8623:8645   */\n      swap1\n      pop\n        /* \"#utility.yul\":8517:8651   */\n      swap2\n      swap1\n      pop\n      jump\t// out\n        /* \"#utility.yul\":8719:9798   */\n    tag_500:\n        /* \"#utility.yul\":8880:8883   */\n      0x00\n        /* \"#utility.yul\":8909:8984   */\n      tag_627\n        /* \"#utility.yul\":8978:8983   */\n      dup3\n        /* \"#utility.yul\":8909:8984   */\n      tag_473\n      jump\t// in\n    tag_627:\n        /* \"#utility.yul\":9000:9107   */\n      tag_628\n        /* \"#utility.yul\":9100:9106   */\n      dup2\n        /* \"#utility.yul\":9095:9098   */\n      dup6\n        /* \"#utility.yul\":9000:9107   */\n      tag_474\n      jump\t// in\n    tag_628:\n        /* \"#utility.yul\":8993:9107   */\n      swap4\n      pop\n        /* \"#utility.yul\":9133:9136   */\n      dup4\n        /* \"#utility.yul\":9178:9182   */\n      0x20\n        /* \"#utility.yul\":9170:9176   */\n      dup3\n        /* \"#utility.yul\":9166:9183   */\n      mul\n        /* \"#utility.yul\":9161:9164   */\n      dup6\n        /* \"#utility.yul\":9157:9184   */\n      add\n        /* \"#utility.yul\":9208:9285   */\n      tag_629\n        /* \"#utility.yul\":9279:9284   */\n      dup6\n        /* \"#utility.yul\":9208:9285   */\n      tag_475\n      jump\t// in\n    tag_629:\n        /* \"#utility.yul\":9308:9315   */\n      dup1\n        /* \"#utility.yul\":9339:9340   */\n      0x00\n        /* \"#utility.yul\":9324:9753   */\n    tag_630:\n        /* \"#utility.yul\":9349:9355   */\n      dup6\n        /* \"#utility.yul\":9346:9347   */\n      dup2\n        /* \"#utility.yul\":9343:9356   */\n      lt\n        /* \"#utility.yul\":9324:9753   */\n      iszero\n      tag_632\n      jumpi\n        /* \"#utility.yul\":9420:9429   */\n      dup5\n        /* \"#utility.yul\":9414:9418   */\n      dup5\n        /* \"#utility.yul\":9410:9430   */\n      sub\n        /* \"#utility.yul\":9405:9408   */\n      dup10\n        /* \"#utility.yul\":9398:9431   */\n      mstore\n        /* \"#utility.yul\":9471:9477   */\n      dup2\n        /* \"#utility.yul\":9465:9478   */\n      mload\n        /* \"#utility.yul\":9499:9605   */\n      tag_633\n        /* \"#utility.yul\":9600:9604   */\n      dup6\n        /* \"#utility.yul\":9585:9598   */\n      dup3\n        /* \"#utility.yul\":9499:9605   */\n      tag_498\n      jump\t// in\n    tag_633:\n        /* \"#utility.yul\":9491:9605   */\n      swap5\n      pop\n        /* \"#utility.yul\":9628:9709   */\n      tag_634\n        /* \"#utility.yul\":9702:9708   */\n      dup4\n        /* \"#utility.yul\":9628:9709   */\n      tag_499\n      jump\t// in\n    tag_634:\n        /* \"#utility.yul\":9618:9709   */\n      swap3\n      pop\n        /* \"#utility.yul\":9738:9742   */\n      0x20\n        /* \"#utility.yul\":9733:9736   */\n      dup11\n        /* \"#utility.yul\":9729:9743   */\n      add\n        /* \"#utility.yul\":9722:9743   */\n      swap10\n      pop\n        /* \"#utility.yul\":9384:9753   */\n      pop\n        /* \"#utility.yul\":9371:9372   */\n      0x01\n        /* \"#utility.yul\":9368:9369   */\n      dup2\n        /* \"#utility.yul\":9364:9373   */\n      add\n        /* \"#utility.yul\":9359:9373   */\n      swap1\n      pop\n        /* \"#utility.yul\":9324:9753   */\n      jump(tag_630)\n    tag_632:\n        /* \"#utility.yul\":9328:9342   */\n      pop\n        /* \"#utility.yul\":9769:9773   */\n      dup3\n        /* \"#utility.yul\":9762:9773   */\n      swap8\n      pop\n        /* \"#utility.yul\":9789:9792   */\n      dup8\n        /* \"#utility.yul\":9782:9792   */\n      swap6\n      pop\n        /* \"#utility.yul\":8885:9798   */\n      pop\n      pop\n      pop\n      pop\n      pop\n        /* \"#utility.yul\":8719:9798   */\n      swap3\n      swap2\n      pop\n      pop\n      jump\t// out\n        /* \"#utility.yul\":9804:10261   */\n    tag_22:\n        /* \"#utility.yul\":9989:9993   */\n      0x00\n        /* \"#utility.yul\":10027:10029   */\n      0x20\n        /* \"#utility.yul\":10016:10025   */\n      dup3\n        /* \"#utility.yul\":10012:10030   */\n      add\n        /* \"#utility.yul\":10004:10030   */\n      swap1\n      pop\n        /* \"#utility.yul\":10076:10085   */\n      dup2\n        /* \"#utility.yul\":10070:10074   */\n      dup2\n        /* \"#utility.yul\":10066:10086   */\n      sub\n        /* \"#utility.yul\":10062:10063   */\n      0x00\n        /* \"#utility.yul\":10051:10060   */\n      dup4\n        /* \"#utility.yul\":10047:10064   */\n      add\n        /* \"#utility.yul\":10040:10087   */\n      mstore\n        /* \"#utility.yul\":10104:10254   */\n      tag_636\n        /* \"#utility.yul\":10249:10253   */\n      dup2\n        /* \"#utility.yul\":10240:10246   */\n      dup5\n        /* \"#utility.yul\":10104:10254   */\n      tag_500\n      jump\t// in\n    tag_636:\n        /* \"#utility.yul\":10096:10254   */\n      swap1\n      pop\n        /* \"#utility.yul\":9804:10261   */\n      swap3\n      swap2\n      pop\n      pop\n      jump\t// out\n        /* \"#utility.yul\":10267:10382   */\n    tag_501:\n        /* \"#utility.yul\":10356:10357   */\n      0x03\n        /* \"#utility.yul\":10349:10354   */\n      dup2\n        /* \"#utility.yul\":10346:10358   */\n      lt\n        /* \"#utility.yul\":10336:10376   */\n      tag_638\n      jumpi\n        /* \"#utility.yul\":10372:10373   */\n      0x00\n        /* \"#utility.yul\":10369:10370   */\n      0x00\n        /* \"#utility.yul\":10362:10374   */\n      revert\n        /* \"#utility.yul\":10336:10376   */\n    tag_638:\n        /* \"#utility.yul\":10267:10382   */\n      pop\n      jump\t// out\n        /* \"#utility.yul\":10388:10559   */\n    tag_502:\n        /* \"#utility.yul\":10450:10455   */\n      0x00\n        /* \"#utility.yul\":10488:10494   */\n      dup2\n        /* \"#utility.yul\":10475:10495   */\n      calldataload\n        /* \"#utility.yul\":10466:10495   */\n      swap1\n      pop\n        /* \"#utility.yul\":10504:10553   */\n      tag_640\n        /* \"#utility.yul\":10547:10552   */\n      dup2\n        /* \"#utility.yul\":10504:10553   */\n      tag_501\n      jump\t// in\n    tag_640:\n        /* \"#utility.yul\":10388:10559   */\n      swap3\n      swap2\n      pop\n      pop\n      jump\t// out\n        /* \"#utility.yul\":10565:10926   */\n    tag_30:\n        /* \"#utility.yul\":10640:10646   */\n      0x00\n        /* \"#utility.yul\":10689:10691   */\n      0x20\n        /* \"#utility.yul\":10677:10686   */\n      dup3\n        /* \"#utility.yul\":10668:10675   */\n      dup5\n        /* \"#utility.yul\":10664:10687   */\n      sub\n        /* \"#utility.yul\":10660:10692   */\n      slt\n        /* \"#utility.yul\":10657:10776   */\n      iszero\n      tag_642\n      jumpi\n        /* \"#utility.yul\":10695:10774   */\n      tag_643\n      tag_468\n      jump\t// in\n    tag_643:\n        /* \"#utility.yul\":10657:10776   */\n    tag_642:\n        /* \"#utility.yul\":10815:10816   */\n      0x00\n        /* \"#utility.yul\":10840:10909   */\n      tag_644\n        /* \"#utility.yul\":10901:10908   */\n      dup5\n        /* \"#utility.yul\":10892:10898   */\n      dup3\n        /* \"#utility.yul\":10881:10890   */\n      dup6\n        /* \"#utility.yul\":10877:10899   */\n      add\n        /* \"#utility.yul\":10840:10909   */\n      tag_502\n      jump\t// in\n    tag_644:\n        /* \"#utility.yul\":10830:10909   */\n      swap2\n      pop\n        /* \"#utility.yul\":10786:10919   */\n      pop\n        /* \"#utility.yul\":10565:10926   */\n      swap3\n      swap2\n      pop\n      pop\n      jump\t// out\n        /* \"#utility.yul\":10932:11438   */\n    tag_36:\n        /* \"#utility.yul\":11016:11022   */\n      0x00\n        /* \"#utility.yul\":11024:11030   */\n      0x00\n        /* \"#utility.yul\":11073:11075   */\n      0x40\n        /* \"#utility.yul\":11061:11070   */\n      dup4\n        /* \"#utility.yul\":11052:11059   */\n      dup6\n        /* \"#utility.yul\":11048:11071   */\n      sub\n        /* \"#utility.yul\":11044:11076   */\n      slt\n        /* \"#utility.yul\":11041:11160   */\n      iszero\n      tag_646\n      jumpi\n        /* \"#utility.yul\":11079:11158   */\n      tag_647\n      tag_468\n      jump\t// in\n    tag_647:\n        /* \"#utility.yul\":11041:11160   */\n    tag_646:\n        /* \"#utility.yul\":11199:11200   */\n      0x00\n        /* \"#utility.yul\":11224:11277   */\n      tag_648\n        /* \"#utility.yul\":11269:11276   */\n      dup6\n        /* \"#utility.yul\":11260:11266   */\n      dup3\n        /* \"#utility.yul\":11249:11258   */\n      dup7\n        /* \"#utility.yul\":11245:11267   */\n      add\n        /* \"#utility.yul\":11224:11277   */\n      tag_472\n      jump\t// in\n    tag_648:\n        /* \"#utility.yul\":11214:11277   */\n      swap3\n      pop\n        /* \"#utility.yul\":11170:11287   */\n      pop\n        /* \"#utility.yul\":11326:11328   */\n      0x20\n        /* \"#utility.yul\":11352:11421   */\n      tag_649\n        /* \"#utility.yul\":11413:11420   */\n      dup6\n        /* \"#utility.yul\":11404:11410   */\n      dup3\n        /* \"#utility.yul\":11393:11402   */\n      dup7\n        /* \"#utility.yul\":11389:11411   */\n      add\n        /* \"#utility.yul\":11352:11421   */\n      tag_502\n      jump\t// in\n    tag_649:\n        /* \"#utility.yul\":11342:11421   */\n      swap2\n      pop\n        /* \"#utility.yul\":11297:11431   */\n      pop\n        /* \"#utility.yul\":10932:11438   */\n      swap3\n      pop\n      swap3\n      swap1\n      pop\n      jump\t// out\n        /* \"#utility.yul\":11444:11566   */\n    tag_503:\n        /* \"#utility.yul\":11517:11541   */\n      tag_651\n        /* \"#utility.yul\":11535:11540   */\n      dup2\n        /* \"#utility.yul\":11517:11541   */\n      tag_478\n      jump\t// in\n    tag_651:\n        /* \"#utility.yul\":11510:11515   */\n      dup2\n        /* \"#utility.yul\":11507:11542   */\n      eq\n        /* \"#utility.yul\":11497:11560   */\n      tag_652\n      jumpi\n        /* \"#utility.yul\":11556:11557   */\n      0x00\n        /* \"#utility.yul\":11553:11554   */\n      0x00\n        /* \"#utility.yul\":11546:11558   */\n      revert\n        /* \"#utility.yul\":11497:11560   */\n    tag_652:\n        /* \"#utility.yul\":11444:11566   */\n      pop\n      jump\t// out\n        /* \"#utility.yul\":11572:11711   */\n    tag_504:\n        /* \"#utility.yul\":11618:11623   */\n      0x00\n        /* \"#utility.yul\":11656:11662   */\n      dup2\n        /* \"#utility.yul\":11643:11663   */\n      calldataload\n        /* \"#utility.yul\":11634:11663   */\n      swap1\n      pop\n        /* \"#utility.yul\":11672:11705   */\n      tag_654\n        /* \"#utility.yul\":11699:11704   */\n      dup2\n        /* \"#utility.yul\":11672:11705   */\n      tag_503\n      jump\t// in\n    tag_654:\n        /* \"#utility.yul\":11572:11711   */\n      swap3\n      swap2\n      pop\n      pop\n      jump\t// out\n        /* \"#utility.yul\":11717:12046   */\n    tag_44:\n        /* \"#utility.yul\":11776:11782   */\n      0x00\n        /* \"#utility.yul\":11825:11827   */\n      0x20\n        /* \"#utility.yul\":11813:11822   */\n      dup3\n        /* \"#utility.yul\":11804:11811   */\n      dup5\n        /* \"#utility.yul\":11800:11823   */\n      sub\n        /* \"#utility.yul\":11796:11828   */\n      slt\n        /* \"#utility.yul\":11793:11912   */\n      iszero\n      tag_656\n      jumpi\n        /* \"#utility.yul\":11831:11910   */\n      tag_657\n      tag_468\n      jump\t// in\n    tag_657:\n        /* \"#utility.yul\":11793:11912   */\n    tag_656:\n        /* \"#utility.yul\":11951:11952   */\n      0x00\n        /* \"#utility.yul\":11976:12029   */\n      tag_658\n        /* \"#utility.yul\":12021:12028   */\n      dup5\n        /* \"#utility.yul\":12012:12018   */\n      dup3\n        /* \"#utility.yul\":12001:12010   */\n      dup6\n        /* \"#utility.yul\":11997:12019   */\n      add\n        /* \"#utility.yul\":11976:12029   */\n      tag_504\n      jump\t// in\n    tag_658:\n        /* \"#utility.yul\":11966:12029   */\n      swap2\n      pop\n        /* \"#utility.yul\":11922:12039   */\n      pop\n        /* \"#utility.yul\":11717:12046   */\n      swap3\n      swap2\n      pop\n      pop\n      jump\t// out\n        /* \"#utility.yul\":12052:12170   */\n    tag_505:\n        /* \"#utility.yul\":12139:12163   */\n      tag_660\n        /* \"#utility.yul\":12157:12162   */\n      dup2\n        /* \"#utility.yul\":12139:12163   */\n      tag_478\n      jump\t// in\n    tag_660:\n        /* \"#utility.yul\":12134:12137   */\n      dup3\n        /* \"#utility.yul\":12127:12164   */\n      mstore\n        /* \"#utility.yul\":12052:12170   */\n      pop\n      pop\n      jump\t// out\n        /* \"#utility.yul\":12176:12288   */\n    tag_506:\n        /* \"#utility.yul\":12259:12281   */\n      tag_662\n        /* \"#utility.yul\":12275:12280   */\n      dup2\n        /* \"#utility.yul\":12259:12281   */\n      tag_480\n      jump\t// in\n    tag_662:\n        /* \"#utility.yul\":12254:12257   */\n      dup3\n        /* \"#utility.yul\":12247:12282   */\n      mstore\n        /* \"#utility.yul\":12176:12288   */\n      pop\n      pop\n      jump\t// out\n        /* \"#utility.yul\":12294:12618   */\n    tag_47:\n        /* \"#utility.yul\":12411:12415   */\n      0x00\n        /* \"#utility.yul\":12449:12451   */\n      0x40\n        /* \"#utility.yul\":12438:12447   */\n      dup3\n        /* \"#utility.yul\":12434:12452   */\n      add\n        /* \"#utility.yul\":12426:12452   */\n      swap1\n      pop\n        /* \"#utility.yul\":12462:12533   */\n      tag_664\n        /* \"#utility.yul\":12530:12531   */\n      0x00\n        /* \"#utility.yul\":12519:12528   */\n      dup4\n        /* \"#utility.yul\":12515:12532   */\n      add\n        /* \"#utility.yul\":12506:12512   */\n      dup6\n        /* \"#utility.yul\":12462:12533   */\n      tag_505\n      jump\t// in\n    tag_664:\n        /* \"#utility.yul\":12543:12611   */\n      tag_665\n        /* \"#utility.yul\":12607:12609   */\n      0x20\n        /* \"#utility.yul\":12596:12605   */\n      dup4\n        /* \"#utility.yul\":12592:12610   */\n      add\n        /* \"#utility.yul\":12583:12589   */\n      dup5\n        /* \"#utility.yul\":12543:12611   */\n      tag_506\n      jump\t// in\n    tag_665:\n        /* \"#utility.yul\":12294:12618   */\n      swap4\n      swap3\n      pop\n      pop\n      pop\n      jump\t// out\n        /* \"#utility.yul\":12624:12742   */\n    tag_507:\n        /* \"#utility.yul\":12711:12735   */\n      tag_667\n        /* \"#utility.yul\":12729:12734   */\n      dup2\n        /* \"#utility.yul\":12711:12735   */\n      tag_470\n      jump\t// in\n    tag_667:\n        /* \"#utility.yul\":12706:12709   */\n      dup3\n        /* \"#utility.yul\":12699:12736   */\n      mstore\n        /* \"#utility.yul\":12624:12742   */\n      pop\n      pop\n      jump\t// out\n        /* \"#utility.yul\":12748:12903   */\n    tag_508:\n        /* \"#utility.yul\":12847:12896   */\n      tag_669\n        /* \"#utility.yul\":12890:12895   */\n      dup2\n        /* \"#utility.yul\":12847:12896   */\n      tag_491\n      jump\t// in\n    tag_669:\n        /* \"#utility.yul\":12842:12845   */\n      dup3\n        /* \"#utility.yul\":12835:12897   */\n      mstore\n        /* \"#utility.yul\":12748:12903   */\n      pop\n      pop\n      jump\t// out\n        /* \"#utility.yul\":12909:13265   */\n    tag_56:\n        /* \"#utility.yul\":13042:13046   */\n      0x00\n        /* \"#utility.yul\":13080:13082   */\n      0x40\n        /* \"#utility.yul\":13069:13078   */\n      dup3\n        /* \"#utility.yul\":13065:13083   */\n      add\n        /* \"#utility.yul\":13057:13083   */\n      swap1\n      pop\n        /* \"#utility.yul\":13093:13164   */\n      tag_671\n        /* \"#utility.yul\":13161:13162   */\n      0x00\n        /* \"#utility.yul\":13150:13159   */\n      dup4\n        /* \"#utility.yul\":13146:13163   */\n      add\n        /* \"#utility.yul\":13137:13143   */\n      dup6\n        /* \"#utility.yul\":13093:13164   */\n      tag_507\n      jump\t// in\n    tag_671:\n        /* \"#utility.yul\":13174:13258   */\n      tag_672\n        /* \"#utility.yul\":13254:13256   */\n      0x20\n        /* \"#utility.yul\":13243:13252   */\n      dup4\n        /* \"#utility.yul\":13239:13257   */\n      add\n        /* \"#utility.yul\":13230:13236   */\n      dup5\n        /* \"#utility.yul\":13174:13258   */\n      tag_508\n      jump\t// in\n    tag_672:\n        /* \"#utility.yul\":12909:13265   */\n      swap4\n      swap3\n      pop\n      pop\n      pop\n      jump\t// out\n        /* \"#utility.yul\":13345:14184   */\n    tag_509:\n        /* \"#utility.yul\":13472:13475   */\n      0x00\n        /* \"#utility.yul\":13508:13512   */\n      0x60\n        /* \"#utility.yul\":13503:13506   */\n      dup4\n        /* \"#utility.yul\":13499:13513   */\n      add\n        /* \"#utility.yul\":13606:13610   */\n      0x00\n        /* \"#utility.yul\":13599:13604   */\n      dup4\n        /* \"#utility.yul\":13595:13611   */\n      add\n        /* \"#utility.yul\":13589:13612   */\n      mload\n        /* \"#utility.yul\":13625:13688   */\n      tag_674\n        /* \"#utility.yul\":13682:13686   */\n      0x00\n        /* \"#utility.yul\":13677:13680   */\n      dup7\n        /* \"#utility.yul\":13673:13687   */\n      add\n        /* \"#utility.yul\":13659:13671   */\n      dup3\n        /* \"#utility.yul\":13625:13688   */\n      tag_479\n      jump\t// in\n    tag_674:\n        /* \"#utility.yul\":13523:13698   */\n      pop\n        /* \"#utility.yul\":13787:13791   */\n      0x20\n        /* \"#utility.yul\":13780:13785   */\n      dup4\n        /* \"#utility.yul\":13776:13792   */\n      add\n        /* \"#utility.yul\":13770:13793   */\n      mload\n        /* \"#utility.yul\":13806:13865   */\n      tag_675\n        /* \"#utility.yul\":13859:13863   */\n      0x20\n        /* \"#utility.yul\":13854:13857   */\n      dup7\n        /* \"#utility.yul\":13850:13864   */\n      add\n        /* \"#utility.yul\":13836:13848   */\n      dup3\n        /* \"#utility.yul\":13806:13865   */\n      tag_481\n      jump\t// in\n    tag_675:\n        /* \"#utility.yul\":13708:13875   */\n      pop\n        /* \"#utility.yul\":13964:13968   */\n      0x40\n        /* \"#utility.yul\":13957:13962   */\n      dup4\n        /* \"#utility.yul\":13953:13969   */\n      add\n        /* \"#utility.yul\":13947:13970   */\n      mload\n        /* \"#utility.yul\":14017:14020   */\n      dup5\n        /* \"#utility.yul\":14011:14015   */\n      dup3\n        /* \"#utility.yul\":14007:14021   */\n      sub\n        /* \"#utility.yul\":14000:14004   */\n      0x40\n        /* \"#utility.yul\":13995:13998   */\n      dup7\n        /* \"#utility.yul\":13991:14005   */\n      add\n        /* \"#utility.yul\":13984:14022   */\n      mstore\n        /* \"#utility.yul\":14043:14146   */\n      tag_676\n        /* \"#utility.yul\":14141:14145   */\n      dup3\n        /* \"#utility.yul\":14127:14139   */\n      dup3\n        /* \"#utility.yul\":14043:14146   */\n      tag_487\n      jump\t// in\n    tag_676:\n        /* \"#utility.yul\":14035:14146   */\n      swap2\n      pop\n        /* \"#utility.yul\":13885:14157   */\n      pop\n        /* \"#utility.yul\":14174:14178   */\n      dup1\n        /* \"#utility.yul\":14167:14178   */\n      swap2\n      pop\n        /* \"#utility.yul\":13477:14184   */\n      pop\n        /* \"#utility.yul\":13345:14184   */\n      swap3\n      swap2\n      pop\n      pop\n      jump\t// out\n        /* \"#utility.yul\":14190:14349   */\n    tag_510:\n        /* \"#utility.yul\":14291:14342   */\n      tag_678\n        /* \"#utility.yul\":14336:14341   */\n      dup2\n        /* \"#utility.yul\":14291:14342   */\n      tag_495\n      jump\t// in\n    tag_678:\n        /* \"#utility.yul\":14286:14289   */\n      dup3\n        /* \"#utility.yul\":14279:14343   */\n      mstore\n        /* \"#utility.yul\":14190:14349   */\n      pop\n      pop\n      jump\t// out\n        /* \"#utility.yul\":14355:15906   */\n    tag_62:\n        /* \"#utility.yul\":14813:14817   */\n      0x00\n        /* \"#utility.yul\":14851:14854   */\n      0x0160\n        /* \"#utility.yul\":14840:14849   */\n      dup3\n        /* \"#utility.yul\":14836:14855   */\n      add\n        /* \"#utility.yul\":14828:14855   */\n      swap1\n      pop\n        /* \"#utility.yul\":14865:14936   */\n      tag_680\n        /* \"#utility.yul\":14933:14934   */\n      0x00\n        /* \"#utility.yul\":14922:14931   */\n      dup4\n        /* \"#utility.yul\":14918:14935   */\n      add\n        /* \"#utility.yul\":14909:14915   */\n      dup15\n        /* \"#utility.yul\":14865:14936   */\n      tag_507\n      jump\t// in\n    tag_680:\n        /* \"#utility.yul\":14983:14992   */\n      dup2\n        /* \"#utility.yul\":14977:14981   */\n      dup2\n        /* \"#utility.yul\":14973:14993   */\n      sub\n        /* \"#utility.yul\":14968:14970   */\n      0x20\n        /* \"#utility.yul\":14957:14966   */\n      dup4\n        /* \"#utility.yul\":14953:14971   */\n      add\n        /* \"#utility.yul\":14946:14994   */\n      mstore\n        /* \"#utility.yul\":15011:15127   */\n      tag_681\n        /* \"#utility.yul\":15122:15126   */\n      dup2\n        /* \"#utility.yul\":15113:15119   */\n      dup14\n        /* \"#utility.yul\":15011:15127   */\n      tag_509\n      jump\t// in\n    tag_681:\n        /* \"#utility.yul\":15003:15127   */\n      swap1\n      pop\n        /* \"#utility.yul\":15137:15209   */\n      tag_682\n        /* \"#utility.yul\":15205:15207   */\n      0x40\n        /* \"#utility.yul\":15194:15203   */\n      dup4\n        /* \"#utility.yul\":15190:15208   */\n      add\n        /* \"#utility.yul\":15181:15187   */\n      dup13\n        /* \"#utility.yul\":15137:15209   */\n      tag_505\n      jump\t// in\n    tag_682:\n        /* \"#utility.yul\":15219:15291   */\n      tag_683\n        /* \"#utility.yul\":15287:15289   */\n      0x60\n        /* \"#utility.yul\":15276:15285   */\n      dup4\n        /* \"#utility.yul\":15272:15290   */\n      add\n        /* \"#utility.yul\":15263:15269   */\n      dup12\n        /* \"#utility.yul\":15219:15291   */\n      tag_507\n      jump\t// in\n    tag_683:\n        /* \"#utility.yul\":15301:15374   */\n      tag_684\n        /* \"#utility.yul\":15369:15372   */\n      0x80\n        /* \"#utility.yul\":15358:15367   */\n      dup4\n        /* \"#utility.yul\":15354:15373   */\n      add\n        /* \"#utility.yul\":15345:15351   */\n      dup11\n        /* \"#utility.yul\":15301:15374   */\n      tag_507\n      jump\t// in\n    tag_684:\n        /* \"#utility.yul\":15384:15457   */\n      tag_685\n        /* \"#utility.yul\":15452:15455   */\n      0xa0\n        /* \"#utility.yul\":15441:15450   */\n      dup4\n        /* \"#utility.yul\":15437:15456   */\n      add\n        /* \"#utility.yul\":15428:15434   */\n      dup10\n        /* \"#utility.yul\":15384:15457   */\n      tag_507\n      jump\t// in\n    tag_685:\n        /* \"#utility.yul\":15467:15540   */\n      tag_686\n        /* \"#utility.yul\":15535:15538   */\n      0xc0\n        /* \"#utility.yul\":15524:15533   */\n      dup4\n        /* \"#utility.yul\":15520:15539   */\n      add\n        /* \"#utility.yul\":15511:15517   */\n      dup9\n        /* \"#utility.yul\":15467:15540   */\n      tag_507\n      jump\t// in\n    tag_686:\n        /* \"#utility.yul\":15550:15623   */\n      tag_687\n        /* \"#utility.yul\":15618:15621   */\n      0xe0\n        /* \"#utility.yul\":15607:15616   */\n      dup4\n        /* \"#utility.yul\":15603:15622   */\n      add\n        /* \"#utility.yul\":15594:15600   */\n      dup8\n        /* \"#utility.yul\":15550:15623   */\n      tag_507\n      jump\t// in\n    tag_687:\n        /* \"#utility.yul\":15633:15706   */\n      tag_688\n        /* \"#utility.yul\":15701:15704   */\n      0x0100\n        /* \"#utility.yul\":15690:15699   */\n      dup4\n        /* \"#utility.yul\":15686:15705   */\n      add\n        /* \"#utility.yul\":15677:15683   */\n      dup7\n        /* \"#utility.yul\":15633:15706   */\n      tag_507\n      jump\t// in\n    tag_688:\n        /* \"#utility.yul\":15716:15801   */\n      tag_689\n        /* \"#utility.yul\":15796:15799   */\n      0x0120\n        /* \"#utility.yul\":15785:15794   */\n      dup4\n        /* \"#utility.yul\":15781:15800   */\n      add\n        /* \"#utility.yul\":15772:15778   */\n      dup6\n        /* \"#utility.yul\":15716:15801   */\n      tag_508\n      jump\t// in\n    tag_689:\n        /* \"#utility.yul\":15811:15899   */\n      tag_690\n        /* \"#utility.yul\":15894:15897   */\n      0x0140\n        /* \"#utility.yul\":15883:15892   */\n      dup4\n        /* \"#utility.yul\":15879:15898   */\n      add\n        /* \"#utility.yul\":15869:15876   */\n      dup5\n        /* \"#utility.yul\":15811:15899   */\n      tag_510\n      jump\t// in\n    tag_690:\n        /* \"#utility.yul\":14355:15906   */\n      swap13\n      swap12\n      pop\n      pop\n      pop\n      pop\n      pop\n      pop\n      pop\n      pop\n      pop\n      pop\n      pop\n      pop\n      jump\t// out\n        /* \"#utility.yul\":15912:16386   */\n    tag_66:\n        /* \"#utility.yul\":15980:15986   */\n      0x00\n        /* \"#utility.yul\":15988:15994   */\n      0x00\n        /* \"#utility.yul\":16037:16039   */\n      0x40\n        /* \"#utility.yul\":16025:16034   */\n      dup4\n        /* \"#utility.yul\":16016:16023   */\n      dup6\n        /* \"#utility.yul\":16012:16035   */\n      sub\n        /* \"#utility.yul\":16008:16040   */\n      slt\n        /* \"#utility.yul\":16005:16124   */\n      iszero\n      tag_692\n      jumpi\n        /* \"#utility.yul\":16043:16122   */\n      tag_693\n      tag_468\n      jump\t// in\n    tag_693:\n        /* \"#utility.yul\":16005:16124   */\n    tag_692:\n        /* \"#utility.yul\":16163:16164   */\n      0x00\n        /* \"#utility.yul\":16188:16241   */\n      tag_694\n        /* \"#utility.yul\":16233:16240   */\n      dup6\n        /* \"#utility.yul\":16224:16230   */\n      dup3\n        /* \"#utility.yul\":16213:16222   */\n      dup7\n        /* \"#utility.yul\":16209:16231   */\n      add\n        /* \"#utility.yul\":16188:16241   */\n      tag_504\n      jump\t// in\n    tag_694:\n        /* \"#utility.yul\":16178:16241   */\n      swap3\n      pop\n        /* \"#utility.yul\":16134:16251   */\n      pop\n        /* \"#utility.yul\":16290:16292   */\n      0x20\n        /* \"#utility.yul\":16316:16369   */\n      tag_695\n        /* \"#utility.yul\":16361:16368   */\n      dup6\n        /* \"#utility.yul\":16352:16358   */\n      dup3\n        /* \"#utility.yul\":16341:16350   */\n      dup7\n        /* \"#utility.yul\":16337:16359   */\n      add\n        /* \"#utility.yul\":16316:16369   */\n      tag_472\n      jump\t// in\n    tag_695:\n        /* \"#utility.yul\":16306:16369   */\n      swap2\n      pop\n        /* \"#utility.yul\":16261:16379   */\n      pop\n        /* \"#utility.yul\":15912:16386   */\n      swap3\n      pop\n      swap3\n      swap1\n      pop\n      jump\t// out\n        /* \"#utility.yul\":16392:16614   */\n    tag_69:\n        /* \"#utility.yul\":16485:16489   */\n      0x00\n        /* \"#utility.yul\":16523:16525   */\n      0x20\n        /* \"#utility.yul\":16512:16521   */\n      dup3\n        /* \"#utility.yul\":16508:16526   */\n      add\n        /* \"#utility.yul\":16500:16526   */\n      swap1\n      pop\n        /* \"#utility.yul\":16536:16607   */\n      tag_697\n        /* \"#utility.yul\":16604:16605   */\n      0x00\n        /* \"#utility.yul\":16593:16602   */\n      dup4\n        /* \"#utility.yul\":16589:16606   */\n      add\n        /* \"#utility.yul\":16580:16586   */\n      dup5\n        /* \"#utility.yul\":16536:16607   */\n      tag_507\n      jump\t// in\n    tag_697:\n        /* \"#utility.yul\":16392:16614   */\n      swap3\n      swap2\n      pop\n      pop\n      jump\t// out\n        /* \"#utility.yul\":16620:16789   */\n    tag_511:\n        /* \"#utility.yul\":16704:16715   */\n      0x00\n        /* \"#utility.yul\":16738:16744   */\n      dup3\n        /* \"#utility.yul\":16733:16736   */\n      dup3\n        /* \"#utility.yul\":16726:16745   */\n      mstore\n        /* \"#utility.yul\":16778:16782   */\n      0x20\n        /* \"#utility.yul\":16773:16776   */\n      dup3\n        /* \"#utility.yul\":16769:16783   */\n      add\n        /* \"#utility.yul\":16754:16783   */\n      swap1\n      pop\n        /* \"#utility.yul\":16620:16789   */\n      swap3\n      swap2\n      pop\n      pop\n      jump\t// out\n        /* \"#utility.yul\":16795:16959   */\n    tag_512:\n        /* \"#utility.yul\":16935:16951   */\n      0x4c6f616e206e6f7420666f756e64000000000000000000000000000000000000\n        /* \"#utility.yul\":16931:16932   */\n      0x00\n        /* \"#utility.yul\":16923:16929   */\n      dup3\n        /* \"#utility.yul\":16919:16933   */\n      add\n        /* \"#utility.yul\":16912:16952   */\n      mstore\n        /* \"#utility.yul\":16795:16959   */\n      pop\n      jump\t// out\n        /* \"#utility.yul\":16965:17331   */\n    tag_513:\n        /* \"#utility.yul\":17107:17110   */\n      0x00\n        /* \"#utility.yul\":17128:17195   */\n      tag_701\n        /* \"#utility.yul\":17192:17194   */\n      0x0e\n        /* \"#utility.yul\":17187:17190   */\n      dup4\n        /* \"#utility.yul\":17128:17195   */\n      tag_511\n      jump\t// in\n    tag_701:\n        /* \"#utility.yul\":17121:17195   */\n      swap2\n      pop\n        /* \"#utility.yul\":17204:17297   */\n      tag_702\n        /* \"#utility.yul\":17293:17296   */\n      dup3\n        /* \"#utility.yul\":17204:17297   */\n      tag_512\n      jump\t// in\n    tag_702:\n        /* \"#utility.yul\":17322:17324   */\n      0x20\n        /* \"#utility.yul\":17317:17320   */\n      dup3\n        /* \"#utility.yul\":17313:17325   */\n      add\n        /* \"#utility.yul\":17306:17325   */\n      swap1\n      pop\n        /* \"#utility.yul\":16965:17331   */\n      swap2\n      swap1\n      pop\n      jump\t// out\n        /* \"#utility.yul\":17337:17756   */\n    tag_76:\n        /* \"#utility.yul\":17503:17507   */\n      0x00\n        /* \"#utility.yul\":17541:17543   */\n      0x20\n        /* \"#utility.yul\":17530:17539   */\n      dup3\n        /* \"#utility.yul\":17526:17544   */\n      add\n        /* \"#utility.yul\":17518:17544   */\n      swap1\n      pop\n        /* \"#utility.yul\":17590:17599   */\n      dup2\n        /* \"#utility.yul\":17584:17588   */\n      dup2\n        /* \"#utility.yul\":17580:17600   */\n      sub\n        /* \"#utility.yul\":17576:17577   */\n      0x00\n        /* \"#utility.yul\":17565:17574   */\n      dup4\n        /* \"#utility.yul\":17561:17578   */\n      add\n        /* \"#utility.yul\":17554:17601   */\n      mstore\n        /* \"#utility.yul\":17618:17749   */\n      tag_704\n        /* \"#utility.yul\":17744:17748   */\n      dup2\n        /* \"#utility.yul\":17618:17749   */\n      tag_513\n      jump\t// in\n    tag_704:\n        /* \"#utility.yul\":17610:17749   */\n      swap1\n      pop\n        /* \"#utility.yul\":17337:17756   */\n      swap2\n      swap1\n      pop\n      jump\t// out\n        /* \"#utility.yul\":17762:17942   */\n    tag_514:\n        /* \"#utility.yul\":17902:17934   */\n      0x54686973206c6f616e20646f65736e2774206e6565642066756e64696e670000\n        /* \"#utility.yul\":17898:17899   */\n      0x00\n        /* \"#utility.yul\":17890:17896   */\n      dup3\n        /* \"#utility.yul\":17886:17900   */\n      add\n        /* \"#utility.yul\":17879:17935   */\n      mstore\n        /* \"#utility.yul\":17762:17942   */\n      pop\n      jump\t// out\n        /* \"#utility.yul\":17948:18314   */\n    tag_515:\n        /* \"#utility.yul\":18090:18093   */\n      0x00\n        /* \"#utility.yul\":18111:18178   */\n      tag_707\n        /* \"#utility.yul\":18175:18177   */\n      0x1e\n        /* \"#utility.yul\":18170:18173   */\n      dup4\n        /* \"#utility.yul\":18111:18178   */\n      tag_511\n      jump\t// in\n    tag_707:\n        /* \"#utility.yul\":18104:18178   */\n      swap2\n      pop\n        /* \"#utility.yul\":18187:18280   */\n      tag_708\n        /* \"#utility.yul\":18276:18279   */\n      dup3\n        /* \"#utility.yul\":18187:18280   */\n      tag_514\n      jump\t// in\n    tag_708:\n        /* \"#utility.yul\":18305:18307   */\n      0x20\n        /* \"#utility.yul\":18300:18303   */\n      dup3\n        /* \"#utility.yul\":18296:18308   */\n      add\n        /* \"#utility.yul\":18289:18308   */\n      swap1\n      pop\n        /* \"#utility.yul\":17948:18314   */\n      swap2\n      swap1\n      pop\n      jump\t// out\n        /* \"#utility.yul\":18320:18739   */\n    tag_84:\n        /* \"#utility.yul\":18486:18490   */\n      0x00\n        /* \"#utility.yul\":18524:18526   */\n      0x20\n        /* \"#utility.yul\":18513:18522   */\n      dup3\n        /* \"#utility.yul\":18509:18527   */\n      add\n        /* \"#utility.yul\":18501:18527   */\n      swap1\n      pop\n        /* \"#utility.yul\":18573:18582   */\n      dup2\n        /* \"#utility.yul\":18567:18571   */\n      dup2\n        /* \"#utility.yul\":18563:18583   */\n      sub\n        /* \"#utility.yul\":18559:18560   */\n      0x00\n        /* \"#utility.yul\":18548:18557   */\n      dup4\n        /* \"#utility.yul\":18544:18561   */\n      add\n        /* \"#utility.yul\":18537:18584   */\n      mstore\n        /* \"#utility.yul\":18601:18732   */\n      tag_710\n        /* \"#utility.yul\":18727:18731   */\n      dup2\n        /* \"#utility.yul\":18601:18732   */\n      tag_515\n      jump\t// in\n    tag_710:\n        /* \"#utility.yul\":18593:18732   */\n      swap1\n      pop\n        /* \"#utility.yul\":18320:18739   */\n      swap2\n      swap1\n      pop\n      jump\t// out\n        /* \"#utility.yul\":18745:18988   */\n    tag_516:\n        /* \"#utility.yul\":18885:18919   */\n      0x54686520616d6f756e742073656e7420646f6573206e6f74206d617463682074\n        /* \"#utility.yul\":18881:18882   */\n      0x00\n        /* \"#utility.yul\":18873:18879   */\n      dup3\n        /* \"#utility.yul\":18869:18883   */\n      add\n        /* \"#utility.yul\":18862:18920   */\n      mstore\n        /* \"#utility.yul\":18954:18980   */\n      0x686520726571756573746564206c6f616e20616d6f756e740000000000000000\n        /* \"#utility.yul\":18949:18951   */\n      0x20\n        /* \"#utility.yul\":18941:18947   */\n      dup3\n        /* \"#utility.yul\":18937:18952   */\n      add\n        /* \"#utility.yul\":18930:18981   */\n      mstore\n        /* \"#utility.yul\":18745:18988   */\n      pop\n      jump\t// out\n        /* \"#utility.yul\":18994:19360   */\n    tag_517:\n        /* \"#utility.yul\":19136:19139   */\n      0x00\n        /* \"#utility.yul\":19157:19224   */\n      tag_713\n        /* \"#utility.yul\":19221:19223   */\n      0x38\n        /* \"#utility.yul\":19216:19219   */\n      dup4\n        /* \"#utility.yul\":19157:19224   */\n      tag_511\n      jump\t// in\n    tag_713:\n        /* \"#utility.yul\":19150:19224   */\n      swap2\n      pop\n        /* \"#utility.yul\":19233:19326   */\n      tag_714\n        /* \"#utility.yul\":19322:19325   */\n      dup3\n        /* \"#utility.yul\":19233:19326   */\n      tag_516\n      jump\t// in\n    tag_714:\n        /* \"#utility.yul\":19351:19353   */\n      0x40\n        /* \"#utility.yul\":19346:19349   */\n      dup3\n        /* \"#utility.yul\":19342:19354   */\n      add\n        /* \"#utility.yul\":19335:19354   */\n      swap1\n      pop\n        /* \"#utility.yul\":18994:19360   */\n      swap2\n      swap1\n      pop\n      jump\t// out\n        /* \"#utility.yul\":19366:19785   */\n    tag_87:\n        /* \"#utility.yul\":19532:19536   */\n      0x00\n        /* \"#utility.yul\":19570:19572   */\n      0x20\n        /* \"#utility.yul\":19559:19568   */\n      dup3\n        /* \"#utility.yul\":19555:19573   */\n      add\n        /* \"#utility.yul\":19547:19573   */\n      swap1\n      pop\n        /* \"#utility.yul\":19619:19628   */\n      dup2\n        /* \"#utility.yul\":19613:19617   */\n      dup2\n        /* \"#utility.yul\":19609:19629   */\n      sub\n        /* \"#utility.yul\":19605:19606   */\n      0x00\n        /* \"#utility.yul\":19594:19603   */\n      dup4\n        /* \"#utility.yul\":19590:19607   */\n      add\n        /* \"#utility.yul\":19583:19630   */\n      mstore\n        /* \"#utility.yul\":19647:19778   */\n      tag_716\n        /* \"#utility.yul\":19773:19777   */\n      dup2\n        /* \"#utility.yul\":19647:19778   */\n      tag_517\n      jump\t// in\n    tag_716:\n        /* \"#utility.yul\":19639:19778   */\n      swap1\n      pop\n        /* \"#utility.yul\":19366:19785   */\n      swap2\n      swap1\n      pop\n      jump\t// out\n        /* \"#utility.yul\":19791:20016   */\n    tag_518:\n        /* \"#utility.yul\":19931:19965   */\n      0x4c656e64657220616e6420626f72726f7765722063616e6e6f74206265207468\n        /* \"#utility.yul\":19927:19928   */\n      0x00\n        /* \"#utility.yul\":19919:19925   */\n      dup3\n        /* \"#utility.yul\":19915:19929   */\n      add\n        /* \"#utility.yul\":19908:19966   */\n      mstore\n        /* \"#utility.yul\":20000:20008   */\n      0x652073616d650000000000000000000000000000000000000000000000000000\n        /* \"#utility.yul\":19995:19997   */\n      0x20\n        /* \"#utility.yul\":19987:19993   */\n      dup3\n        /* \"#utility.yul\":19983:19998   */\n      add\n        /* \"#utility.yul\":19976:20009   */\n      mstore\n        /* \"#utility.yul\":19791:20016   */\n      pop\n      jump\t// out\n        /* \"#utility.yul\":20022:20388   */\n    tag_519:\n        /* \"#utility.yul\":20164:20167   */\n      0x00\n        /* \"#utility.yul\":20185:20252   */\n      tag_719\n        /* \"#utility.yul\":20249:20251   */\n      0x26\n        /* \"#utility.yul\":20244:20247   */\n      dup4\n        /* \"#utility.yul\":20185:20252   */\n      tag_511\n      jump\t// in\n    tag_719:\n        /* \"#utility.yul\":20178:20252   */\n      swap2\n      pop\n        /* \"#utility.yul\":20261:20354   */\n      tag_720\n        /* \"#utility.yul\":20350:20353   */\n      dup3\n        /* \"#utility.yul\":20261:20354   */\n      tag_518\n      jump\t// in\n    tag_720:\n        /* \"#utility.yul\":20379:20381   */\n      0x40\n        /* \"#utility.yul\":20374:20377   */\n      dup3\n        /* \"#utility.yul\":20370:20382   */\n      add\n        /* \"#utility.yul\":20363:20382   */\n      swap1\n      pop\n        /* \"#utility.yul\":20022:20388   */\n      swap2\n      swap1\n      pop\n      jump\t// out\n        /* \"#utility.yul\":20394:20813   */\n    tag_90:\n        /* \"#utility.yul\":20560:20564   */\n      0x00\n        /* \"#utility.yul\":20598:20600   */\n      0x20\n        /* \"#utility.yul\":20587:20596   */\n      dup3\n        /* \"#utility.yul\":20583:20601   */\n      add\n        /* \"#utility.yul\":20575:20601   */\n      swap1\n      pop\n        /* \"#utility.yul\":20647:20656   */\n      dup2\n        /* \"#utility.yul\":20641:20645   */\n      dup2\n        /* \"#utility.yul\":20637:20657   */\n      sub\n        /* \"#utility.yul\":20633:20634   */\n      0x00\n        /* \"#utility.yul\":20622:20631   */\n      dup4\n        /* \"#utility.yul\":20618:20635   */\n      add\n        /* \"#utility.yul\":20611:20658   */\n      mstore\n        /* \"#utility.yul\":20675:20806   */\n      tag_722\n        /* \"#utility.yul\":20801:20805   */\n      dup2\n        /* \"#utility.yul\":20675:20806   */\n      tag_519\n      jump\t// in\n    tag_722:\n        /* \"#utility.yul\":20667:20806   */\n      swap1\n      pop\n        /* \"#utility.yul\":20394:20813   */\n      swap2\n      swap1\n      pop\n      jump\t// out\n        /* \"#utility.yul\":20819:20999   */\n    tag_520:\n        /* \"#utility.yul\":20867:20944   */\n      0x4e487b7100000000000000000000000000000000000000000000000000000000\n        /* \"#utility.yul\":20864:20865   */\n      0x00\n        /* \"#utility.yul\":20857:20945   */\n      mstore\n        /* \"#utility.yul\":20964:20968   */\n      0x11\n        /* \"#utility.yul\":20961:20962   */\n      0x04\n        /* \"#utility.yul\":20954:20969   */\n      mstore\n        /* \"#utility.yul\":20988:20992   */\n      0x24\n        /* \"#utility.yul\":20985:20986   */\n      0x00\n        /* \"#utility.yul\":20978:20993   */\n      revert\n        /* \"#utility.yul\":21005:21415   */\n    tag_94:\n        /* \"#utility.yul\":21045:21052   */\n      0x00\n        /* \"#utility.yul\":21068:21088   */\n      tag_725\n        /* \"#utility.yul\":21086:21087   */\n      dup3\n        /* \"#utility.yul\":21068:21088   */\n      tag_470\n      jump\t// in\n    tag_725:\n        /* \"#utility.yul\":21063:21088   */\n      swap2\n      pop\n        /* \"#utility.yul\":21102:21122   */\n      tag_726\n        /* \"#utility.yul\":21120:21121   */\n      dup4\n        /* \"#utility.yul\":21102:21122   */\n      tag_470\n      jump\t// in\n    tag_726:\n        /* \"#utility.yul\":21097:21122   */\n      swap3\n      pop\n        /* \"#utility.yul\":21157:21158   */\n      dup3\n        /* \"#utility.yul\":21154:21155   */\n      dup3\n        /* \"#utility.yul\":21150:21159   */\n      mul\n        /* \"#utility.yul\":21179:21209   */\n      tag_727\n        /* \"#utility.yul\":21197:21208   */\n      dup2\n        /* \"#utility.yul\":21179:21209   */\n      tag_470\n      jump\t// in\n    tag_727:\n        /* \"#utility.yul\":21168:21209   */\n      swap2\n      pop\n        /* \"#utility.yul\":21358:21359   */\n      dup3\n        /* \"#utility.yul\":21349:21356   */\n      dup3\n        /* \"#utility.yul\":21345:21360   */\n      div\n        /* \"#utility.yul\":21342:21343   */\n      dup5\n        /* \"#utility.yul\":21339:21361   */\n      eq\n        /* \"#utility.yul\":21319:21320   */\n      dup4\n        /* \"#utility.yul\":21312:21321   */\n      iszero\n        /* \"#utility.yul\":21292:21375   */\n      or\n        /* \"#utility.yul\":21269:21408   */\n      tag_728\n      jumpi\n        /* \"#utility.yul\":21388:21406   */\n      tag_729\n      tag_520\n      jump\t// in\n    tag_729:\n        /* \"#utility.yul\":21269:21408   */\n    tag_728:\n        /* \"#utility.yul\":21053:21415   */\n      pop\n        /* \"#utility.yul\":21005:21415   */\n      swap3\n      swap2\n      pop\n      pop\n      jump\t// out\n        /* \"#utility.yul\":21421:21612   */\n    tag_96:\n        /* \"#utility.yul\":21461:21464   */\n      0x00\n        /* \"#utility.yul\":21480:21500   */\n      tag_731\n        /* \"#utility.yul\":21498:21499   */\n      dup3\n        /* \"#utility.yul\":21480:21500   */\n      tag_470\n      jump\t// in\n    tag_731:\n        /* \"#utility.yul\":21475:21500   */\n      swap2\n      pop\n        /* \"#utility.yul\":21514:21534   */\n      tag_732\n        /* \"#utility.yul\":21532:21533   */\n      dup4\n        /* \"#utility.yul\":21514:21534   */\n      tag_470\n      jump\t// in\n    tag_732:\n        /* \"#utility.yul\":21509:21534   */\n      swap3\n      pop\n        /* \"#utility.yul\":21557:21558   */\n      dup3\n        /* \"#utility.yul\":21554:21555   */\n      dup3\n        /* \"#utility.yul\":21550:21559   */\n      add\n        /* \"#utility.yul\":21543:21559   */\n      swap1\n      pop\n        /* \"#utility.yul\":21578:21581   */\n      dup1\n        /* \"#utility.yul\":21575:21576   */\n      dup3\n        /* \"#utility.yul\":21572:21582   */\n      gt\n        /* \"#utility.yul\":21569:21605   */\n      iszero\n      tag_733\n      jumpi\n        /* \"#utility.yul\":21585:21603   */\n      tag_734\n      tag_520\n      jump\t// in\n    tag_734:\n        /* \"#utility.yul\":21569:21605   */\n    tag_733:\n        /* \"#utility.yul\":21421:21612   */\n      swap3\n      swap2\n      pop\n      pop\n      jump\t// out\n        /* \"#utility.yul\":21618:22393   */\n    tag_104:\n        /* \"#utility.yul\":21851:21855   */\n      0x00\n        /* \"#utility.yul\":21889:21892   */\n      0xc0\n        /* \"#utility.yul\":21878:21887   */\n      dup3\n        /* \"#utility.yul\":21874:21893   */\n      add\n        /* \"#utility.yul\":21866:21893   */\n      swap1\n      pop\n        /* \"#utility.yul\":21903:21974   */\n      tag_736\n        /* \"#utility.yul\":21971:21972   */\n      0x00\n        /* \"#utility.yul\":21960:21969   */\n      dup4\n        /* \"#utility.yul\":21956:21973   */\n      add\n        /* \"#utility.yul\":21947:21953   */\n      dup10\n        /* \"#utility.yul\":21903:21974   */\n      tag_507\n      jump\t// in\n    tag_736:\n        /* \"#utility.yul\":21984:22056   */\n      tag_737\n        /* \"#utility.yul\":22052:22054   */\n      0x20\n        /* \"#utility.yul\":22041:22050   */\n      dup4\n        /* \"#utility.yul\":22037:22055   */\n      add\n        /* \"#utility.yul\":22028:22034   */\n      dup9\n        /* \"#utility.yul\":21984:22056   */\n      tag_505\n      jump\t// in\n    tag_737:\n        /* \"#utility.yul\":22066:22138   */\n      tag_738\n        /* \"#utility.yul\":22134:22136   */\n      0x40\n        /* \"#utility.yul\":22123:22132   */\n      dup4\n        /* \"#utility.yul\":22119:22137   */\n      add\n        /* \"#utility.yul\":22110:22116   */\n      dup8\n        /* \"#utility.yul\":22066:22138   */\n      tag_505\n      jump\t// in\n    tag_738:\n        /* \"#utility.yul\":22148:22220   */\n      tag_739\n        /* \"#utility.yul\":22216:22218   */\n      0x60\n        /* \"#utility.yul\":22205:22214   */\n      dup4\n        /* \"#utility.yul\":22201:22219   */\n      add\n        /* \"#utility.yul\":22192:22198   */\n      dup7\n        /* \"#utility.yul\":22148:22220   */\n      tag_507\n      jump\t// in\n    tag_739:\n        /* \"#utility.yul\":22230:22303   */\n      tag_740\n        /* \"#utility.yul\":22298:22301   */\n      0x80\n        /* \"#utility.yul\":22287:22296   */\n      dup4\n        /* \"#utility.yul\":22283:22302   */\n      add\n        /* \"#utility.yul\":22274:22280   */\n      dup6\n        /* \"#utility.yul\":22230:22303   */\n      tag_507\n      jump\t// in\n    tag_740:\n        /* \"#utility.yul\":22313:22386   */\n      tag_741\n        /* \"#utility.yul\":22381:22384   */\n      0xa0\n        /* \"#utility.yul\":22370:22379   */\n      dup4\n        /* \"#utility.yul\":22366:22385   */\n      add\n        /* \"#utility.yul\":22357:22363   */\n      dup5\n        /* \"#utility.yul\":22313:22386   */\n      tag_507\n      jump\t// in\n    tag_741:\n        /* \"#utility.yul\":21618:22393   */\n      swap8\n      swap7\n      pop\n      pop\n      pop\n      pop\n      pop\n      pop\n      pop\n      jump\t// out\n        /* \"#utility.yul\":22399:22593   */\n    tag_117:\n        /* \"#utility.yul\":22439:22443   */\n      0x00\n        /* \"#utility.yul\":22459:22479   */\n      tag_743\n        /* \"#utility.yul\":22477:22478   */\n      dup3\n        /* \"#utility.yul\":22459:22479   */\n      tag_470\n      jump\t// in\n    tag_743:\n        /* \"#utility.yul\":22454:22479   */\n      swap2\n      pop\n        /* \"#utility.yul\":22493:22513   */\n      tag_744\n        /* \"#utility.yul\":22511:22512   */\n      dup4\n        /* \"#utility.yul\":22493:22513   */\n      tag_470\n      jump\t// in\n    tag_744:\n        /* \"#utility.yul\":22488:22513   */\n      swap3\n      pop\n        /* \"#utility.yul\":22537:22538   */\n      dup3\n        /* \"#utility.yul\":22534:22535   */\n      dup3\n        /* \"#utility.yul\":22530:22539   */\n      sub\n        /* \"#utility.yul\":22522:22539   */\n      swap1\n      pop\n        /* \"#utility.yul\":22561:22562   */\n      dup2\n        /* \"#utility.yul\":22555:22559   */\n      dup2\n        /* \"#utility.yul\":22552:22563   */\n      gt\n        /* \"#utility.yul\":22549:22586   */\n      iszero\n      tag_745\n      jumpi\n        /* \"#utility.yul\":22566:22584   */\n      tag_746\n      tag_520\n      jump\t// in\n    tag_746:\n        /* \"#utility.yul\":22549:22586   */\n    tag_745:\n        /* \"#utility.yul\":22399:22593   */\n      swap3\n      swap2\n      pop\n      pop\n      jump\t// out\n        /* \"#utility.yul\":22599:22779   */\n    tag_122:\n        /* \"#utility.yul\":22647:22724   */\n      0x4e487b7100000000000000000000000000000000000000000000000000000000\n        /* \"#utility.yul\":22644:22645   */\n      0x00\n        /* \"#utility.yul\":22637:22725   */\n      mstore\n        /* \"#utility.yul\":22744:22748   */\n      0x32\n        /* \"#utility.yul\":22741:22742   */\n      0x04\n        /* \"#utility.yul\":22734:22749   */\n      mstore\n        /* \"#utility.yul\":22768:22772   */\n      0x24\n        /* \"#utility.yul\":22765:22766   */\n      0x00\n        /* \"#utility.yul\":22758:22773   */\n      revert\n        /* \"#utility.yul\":22785:23018   */\n    tag_175:\n        /* \"#utility.yul\":22824:22827   */\n      0x00\n        /* \"#utility.yul\":22847:22871   */\n      tag_749\n        /* \"#utility.yul\":22865:22870   */\n      dup3\n        /* \"#utility.yul\":22847:22871   */\n      tag_470\n      jump\t// in\n    tag_749:\n        /* \"#utility.yul\":22838:22871   */\n      swap2\n      pop\n        /* \"#utility.yul\":22893:22959   */\n      0xffffffffffffffffffffffffffffffffffffffffffffffffffffffffffffffff\n        /* \"#utility.yul\":22886:22891   */\n      dup3\n        /* \"#utility.yul\":22883:22960   */\n      sub\n        /* \"#utility.yul\":22880:22983   */\n      tag_750\n      jumpi\n        /* \"#utility.yul\":22963:22981   */\n      tag_751\n      tag_520\n      jump\t// in\n    tag_751:\n        /* \"#utility.yul\":22880:22983   */\n    tag_750:\n        /* \"#utility.yul\":23010:23011   */\n      0x01\n        /* \"#utility.yul\":23003:23008   */\n      dup3\n        /* \"#utility.yul\":22999:23012   */\n      add\n        /* \"#utility.yul\":22992:23012   */\n      swap1\n      pop\n        /* \"#utility.yul\":22785:23018   */\n      swap2\n      swap1\n      pop\n      jump\t// out\n        /* \"#utility.yul\":23024:23204   */\n    tag_178:\n        /* \"#utility.yul\":23072:23149   */\n      0x4e487b7100000000000000000000000000000000000000000000000000000000\n        /* \"#utility.yul\":23069:23070   */\n      0x00\n        /* \"#utility.yul\":23062:23150   */\n      mstore\n        /* \"#utility.yul\":23169:23173   */\n      0x41\n        /* \"#utility.yul\":23166:23167   */\n      0x04\n        /* \"#utility.yul\":23159:23174   */\n      mstore\n        /* \"#utility.yul\":23193:23197   */\n      0x24\n        /* \"#utility.yul\":23190:23191   */\n      0x00\n        /* \"#utility.yul\":23183:23198   */\n      revert\n        /* \"#utility.yul\":23210:23438   */\n    tag_521:\n        /* \"#utility.yul\":23350:23384   */\n      0x546865206c6f616e20616d6f756e74206d757374206265206772656174657220\n        /* \"#utility.yul\":23346:23347   */\n      0x00\n        /* \"#utility.yul\":23338:23344   */\n      dup3\n        /* \"#utility.yul\":23334:23348   */\n      add\n        /* \"#utility.yul\":23327:23385   */\n      mstore\n        /* \"#utility.yul\":23419:23430   */\n      0x7468616e207a65726f0000000000000000000000000000000000000000000000\n        /* \"#utility.yul\":23414:23416   */\n      0x20\n        /* \"#utility.yul\":23406:23412   */\n      dup3\n        /* \"#utility.yul\":23402:23417   */\n      add\n        /* \"#utility.yul\":23395:23431   */\n      mstore\n        /* \"#utility.yul\":23210:23438   */\n      pop\n      jump\t// out\n        /* \"#utility.yul\":23444:23810   */\n    tag_522:\n        /* \"#utility.yul\":23586:23589   */\n      0x00\n        /* \"#utility.yul\":23607:23674   */\n      tag_755\n        /* \"#utility.yul\":23671:23673   */\n      0x29\n        /* \"#utility.yul\":23666:23669   */\n      dup4\n        /* \"#utility.yul\":23607:23674   */\n      tag_511\n      jump\t// in\n    tag_755:\n        /* \"#utility.yul\":23600:23674   */\n      swap2\n      pop\n        /* \"#utility.yul\":23683:23776   */\n      tag_756\n        /* \"#utility.yul\":23772:23775   */\n      dup3\n        /* \"#utility.yul\":23683:23776   */\n      tag_521\n      jump\t// in\n    tag_756:\n        /* \"#utility.yul\":23801:23803   */\n      0x40\n        /* \"#utility.yul\":23796:23799   */\n      dup3\n        /* \"#utility.yul\":23792:23804   */\n      add\n        /* \"#utility.yul\":23785:23804   */\n      swap1\n      pop\n        /* \"#utility.yul\":23444:23810   */\n      swap2\n      swap1\n      pop\n      jump\t// out\n        /* \"#utility.yul\":23816:24235   */\n    tag_201:\n        /* \"#utility.yul\":23982:23986   */\n      0x00\n        /* \"#utility.yul\":24020:24022   */\n      0x20\n        /* \"#utility.yul\":24009:24018   */\n      dup3\n        /* \"#utility.yul\":24005:24023   */\n      add\n        /* \"#utility.yul\":23997:24023   */\n      swap1\n      pop\n        /* \"#utility.yul\":24069:24078   */\n      dup2\n        /* \"#utility.yul\":24063:24067   */\n      dup2\n        /* \"#utility.yul\":24059:24079   */\n      sub\n        /* \"#utility.yul\":24055:24056   */\n      0x00\n        /* \"#utility.yul\":24044:24053   */\n      dup4\n        /* \"#utility.yul\":24040:24057   */\n      add\n        /* \"#utility.yul\":24033:24080   */\n      mstore\n        /* \"#utility.yul\":24097:24228   */\n      tag_758\n        /* \"#utility.yul\":24223:24227   */\n      dup2\n        /* \"#utility.yul\":24097:24228   */\n      tag_522\n      jump\t// in\n    tag_758:\n        /* \"#utility.yul\":24089:24228   */\n      swap1\n      pop\n        /* \"#utility.yul\":23816:24235   */\n      swap2\n      swap1\n      pop\n      jump\t// out\n        /* \"#utility.yul\":24241:24480   */\n    tag_523:\n        /* \"#utility.yul\":24381:24415   */\n      0x4c6f616e206c696d697420726561636865642c20706c65617365207761697420\n        /* \"#utility.yul\":24377:24378   */\n      0x00\n        /* \"#utility.yul\":24369:24375   */\n      dup3\n        /* \"#utility.yul\":24365:24379   */\n      add\n        /* \"#utility.yul\":24358:24416   */\n      mstore\n        /* \"#utility.yul\":24450:24472   */\n      0x666f722061206c6f616e20746f20636c6f73652e000000000000000000000000\n        /* \"#utility.yul\":24445:24447   */\n      0x20\n        /* \"#utility.yul\":24437:24443   */\n      dup3\n        /* \"#utility.yul\":24433:24448   */\n      add\n        /* \"#utility.yul\":24426:24473   */\n      mstore\n        /* \"#utility.yul\":24241:24480   */\n      pop\n      jump\t// out\n        /* \"#utility.yul\":24486:24852   */\n    tag_524:\n        /* \"#utility.yul\":24628:24631   */\n      0x00\n        /* \"#utility.yul\":24649:24716   */\n      tag_761\n        /* \"#utility.yul\":24713:24715   */\n      0x34\n        /* \"#utility.yul\":24708:24711   */\n      dup4\n        /* \"#utility.yul\":24649:24716   */\n      tag_511\n      jump\t// in\n    tag_761:\n        /* \"#utility.yul\":24642:24716   */\n      swap2\n      pop\n        /* \"#utility.yul\":24725:24818   */\n      tag_762\n        /* \"#utility.yul\":24814:24817   */\n      dup3\n        /* \"#utility.yul\":24725:24818   */\n      tag_523\n      jump\t// in\n    tag_762:\n        /* \"#utility.yul\":24843:24845   */\n      0x40\n        /* \"#utility.yul\":24838:24841   */\n      dup3\n        /* \"#utility.yul\":24834:24846   */\n      add\n        /* \"#utility.yul\":24827:24846   */\n      swap1\n      pop\n        /* \"#utility.yul\":24486:24852   */\n      swap2\n      swap1\n      pop\n      jump\t// out\n        /* \"#utility.yul\":24858:25277   */\n    tag_205:\n        /* \"#utility.yul\":25024:25028   */\n      0x00\n        /* \"#utility.yul\":25062:25064   */\n      0x20\n        /* \"#utility.yul\":25051:25060   */\n      dup3\n        /* \"#utility.yul\":25047:25065   */\n      add\n        /* \"#utility.yul\":25039:25065   */\n      swap1\n      pop\n        /* \"#utility.yul\":25111:25120   */\n      dup2\n        /* \"#utility.yul\":25105:25109   */\n      dup2\n        /* \"#utility.yul\":25101:25121   */\n      sub\n        /* \"#utility.yul\":25097:25098   */\n      0x00\n        /* \"#utility.yul\":25086:25095   */\n      dup4\n        /* \"#utility.yul\":25082:25099   */\n      add\n        /* \"#utility.yul\":25075:25122   */\n      mstore\n        /* \"#utility.yul\":25139:25270   */\n      tag_764\n        /* \"#utility.yul\":25265:25269   */\n      dup2\n        /* \"#utility.yul\":25139:25270   */\n      tag_524\n      jump\t// in\n    tag_764:\n        /* \"#utility.yul\":25131:25270   */\n      swap1\n      pop\n        /* \"#utility.yul\":24858:25277   */\n      swap2\n      swap1\n      pop\n      jump\t// out\n        /* \"#utility.yul\":25283:25583   */\n    tag_525:\n        /* \"#utility.yul\":25423:25457   */\n      0x596f752063616e6e6f7420726571756573742061206e6577206c6f616e206966\n        /* \"#utility.yul\":25419:25420   */\n      0x00\n        /* \"#utility.yul\":25411:25417   */\n      dup3\n        /* \"#utility.yul\":25407:25421   */\n      add\n        /* \"#utility.yul\":25400:25458   */\n      mstore\n        /* \"#utility.yul\":25492:25526   */\n      0x20796f7520686176652070656e64696e672c206163746976652c206f72206f76\n        /* \"#utility.yul\":25487:25489   */\n      0x20\n        /* \"#utility.yul\":25479:25485   */\n      dup3\n        /* \"#utility.yul\":25475:25490   */\n      add\n        /* \"#utility.yul\":25468:25527   */\n      mstore\n        /* \"#utility.yul\":25561:25575   */\n      0x6572647565206c6f616e732e0000000000000000000000000000000000000000\n        /* \"#utility.yul\":25556:25558   */\n      0x40\n        /* \"#utility.yul\":25548:25554   */\n      dup3\n        /* \"#utility.yul\":25544:25559   */\n      add\n        /* \"#utility.yul\":25537:25576   */\n      mstore\n        /* \"#utility.yul\":25283:25583   */\n      pop\n      jump\t// out\n        /* \"#utility.yul\":25589:25955   */\n    tag_526:\n        /* \"#utility.yul\":25731:25734   */\n      0x00\n        /* \"#utility.yul\":25752:25819   */\n      tag_767\n        /* \"#utility.yul\":25816:25818   */\n      0x4c\n        /* \"#utility.yul\":25811:25814   */\n      dup4\n        /* \"#utility.yul\":25752:25819   */\n      tag_511\n      jump\t// in\n    tag_767:\n        /* \"#utility.yul\":25745:25819   */\n      swap2\n      pop\n        /* \"#utility.yul\":25828:25921   */\n      tag_768\n        /* \"#utility.yul\":25917:25920   */\n      dup3\n        /* \"#utility.yul\":25828:25921   */\n      tag_525\n      jump\t// in\n    tag_768:\n        /* \"#utility.yul\":25946:25948   */\n      0x60\n        /* \"#utility.yul\":25941:25944   */\n      dup3\n        /* \"#utility.yul\":25937:25949   */\n      add\n        /* \"#utility.yul\":25930:25949   */\n      swap1\n      pop\n        /* \"#utility.yul\":25589:25955   */\n      swap2\n      swap1\n      pop\n      jump\t// out\n        /* \"#utility.yul\":25961:26380   */\n    tag_229:\n        /* \"#utility.yul\":26127:26131   */\n      0x00\n        /* \"#utility.yul\":26165:26167   */\n      0x20\n        /* \"#utility.yul\":26154:26163   */\n      dup3\n        /* \"#utility.yul\":26150:26168   */\n      add\n        /* \"#utility.yul\":26142:26168   */\n      swap1\n      pop\n        /* \"#utility.yul\":26214:26223   */\n      dup2\n        /* \"#utility.yul\":26208:26212   */\n      dup2\n        /* \"#utility.yul\":26204:26224   */\n      sub\n        /* \"#utility.yul\":26200:26201   */\n      0x00\n        /* \"#utility.yul\":26189:26198   */\n      dup4\n        /* \"#utility.yul\":26185:26202   */\n      add\n        /* \"#utility.yul\":26178:26225   */\n      mstore\n        /* \"#utility.yul\":26242:26373   */\n      tag_770\n        /* \"#utility.yul\":26368:26372   */\n      dup2\n        /* \"#utility.yul\":26242:26373   */\n      tag_526\n      jump\t// in\n    tag_770:\n        /* \"#utility.yul\":26234:26373   */\n      swap1\n      pop\n        /* \"#utility.yul\":25961:26380   */\n      swap2\n      swap1\n      pop\n      jump\t// out\n        /* \"#utility.yul\":26386:26880   */\n    tag_244:\n        /* \"#utility.yul\":26561:26565   */\n      0x00\n        /* \"#utility.yul\":26599:26601   */\n      0x60\n        /* \"#utility.yul\":26588:26597   */\n      dup3\n        /* \"#utility.yul\":26584:26602   */\n      add\n        /* \"#utility.yul\":26576:26602   */\n      swap1\n      pop\n        /* \"#utility.yul\":26612:26683   */\n      tag_772\n        /* \"#utility.yul\":26680:26681   */\n      0x00\n        /* \"#utility.yul\":26669:26678   */\n      dup4\n        /* \"#utility.yul\":26665:26682   */\n      add\n        /* \"#utility.yul\":26656:26662   */\n      dup7\n        /* \"#utility.yul\":26612:26683   */\n      tag_507\n      jump\t// in\n    tag_772:\n        /* \"#utility.yul\":26693:26777   */\n      tag_773\n        /* \"#utility.yul\":26773:26775   */\n      0x20\n        /* \"#utility.yul\":26762:26771   */\n      dup4\n        /* \"#utility.yul\":26758:26776   */\n      add\n        /* \"#utility.yul\":26749:26755   */\n      dup6\n        /* \"#utility.yul\":26693:26777   */\n      tag_508\n      jump\t// in\n    tag_773:\n        /* \"#utility.yul\":26787:26873   */\n      tag_774\n        /* \"#utility.yul\":26869:26871   */\n      0x40\n        /* \"#utility.yul\":26858:26867   */\n      dup4\n        /* \"#utility.yul\":26854:26872   */\n      add\n        /* \"#utility.yul\":26845:26851   */\n      dup5\n        /* \"#utility.yul\":26787:26873   */\n      tag_510\n      jump\t// in\n    tag_774:\n        /* \"#utility.yul\":26386:26880   */\n      swap5\n      swap4\n      pop\n      pop\n      pop\n      pop\n      jump\t// out\n        /* \"#utility.yul\":26886:27110   */\n    tag_527:\n        /* \"#utility.yul\":27026:27060   */\n      0x4f6e6c792074686520626f72726f7765722063616e2072657061792074686973\n        /* \"#utility.yul\":27022:27023   */\n      0x00\n        /* \"#utility.yul\":27014:27020   */\n      dup3\n        /* \"#utility.yul\":27010:27024   */\n      add\n        /* \"#utility.yul\":27003:27061   */\n      mstore\n        /* \"#utility.yul\":27095:27102   */\n      0x206c6f616e000000000000000000000000000000000000000000000000000000\n        /* \"#utility.yul\":27090:27092   */\n      0x20\n        /* \"#utility.yul\":27082:27088   */\n      dup3\n        /* \"#utility.yul\":27078:27093   */\n      add\n        /* \"#utility.yul\":27071:27103   */\n      mstore\n        /* \"#utility.yul\":26886:27110   */\n      pop\n      jump\t// out\n        /* \"#utility.yul\":27116:27482   */\n    tag_528:\n        /* \"#utility.yul\":27258:27261   */\n      0x00\n        /* \"#utility.yul\":27279:27346   */\n      tag_777\n        /* \"#utility.yul\":27343:27345   */\n      0x25\n        /* \"#utility.yul\":27338:27341   */\n      dup4\n        /* \"#utility.yul\":27279:27346   */\n      tag_511\n      jump\t// in\n    tag_777:\n        /* \"#utility.yul\":27272:27346   */\n      swap2\n      pop\n        /* \"#utility.yul\":27355:27448   */\n      tag_778\n        /* \"#utility.yul\":27444:27447   */\n      dup3\n        /* \"#utility.yul\":27355:27448   */\n      tag_527\n      jump\t// in\n    tag_778:\n        /* \"#utility.yul\":27473:27475   */\n      0x40\n        /* \"#utility.yul\":27468:27471   */\n      dup3\n        /* \"#utility.yul\":27464:27476   */\n      add\n        /* \"#utility.yul\":27457:27476   */\n      swap1\n      pop\n        /* \"#utility.yul\":27116:27482   */\n      swap2\n      swap1\n      pop\n      jump\t// out\n        /* \"#utility.yul\":27488:27907   */\n    tag_250:\n        /* \"#utility.yul\":27654:27658   */\n      0x00\n        /* \"#utility.yul\":27692:27694   */\n      0x20\n        /* \"#utility.yul\":27681:27690   */\n      dup3\n        /* \"#utility.yul\":27677:27695   */\n      add\n        /* \"#utility.yul\":27669:27695   */\n      swap1\n      pop\n        /* \"#utility.yul\":27741:27750   */\n      dup2\n        /* \"#utility.yul\":27735:27739   */\n      dup2\n        /* \"#utility.yul\":27731:27751   */\n      sub\n        /* \"#utility.yul\":27727:27728   */\n      0x00\n        /* \"#utility.yul\":27716:27725   */\n      dup4\n        /* \"#utility.yul\":27712:27729   */\n      add\n        /* \"#utility.yul\":27705:27752   */\n      mstore\n        /* \"#utility.yul\":27769:27900   */\n      tag_780\n        /* \"#utility.yul\":27895:27899   */\n      dup2\n        /* \"#utility.yul\":27769:27900   */\n      tag_528\n      jump\t// in\n    tag_780:\n        /* \"#utility.yul\":27761:27900   */\n      swap1\n      pop\n        /* \"#utility.yul\":27488:27907   */\n      swap2\n      swap1\n      pop\n      jump\t// out\n        /* \"#utility.yul\":27913:28088   */\n    tag_529:\n        /* \"#utility.yul\":28053:28080   */\n      0x5468657265206973206e6f206c6f616e20746f20726570617900000000000000\n        /* \"#utility.yul\":28049:28050   */\n      0x00\n        /* \"#utility.yul\":28041:28047   */\n      dup3\n        /* \"#utility.yul\":28037:28051   */\n      add\n        /* \"#utility.yul\":28030:28081   */\n      mstore\n        /* \"#utility.yul\":27913:28088   */\n      pop\n      jump\t// out\n        /* \"#utility.yul\":28094:28460   */\n    tag_530:\n        /* \"#utility.yul\":28236:28239   */\n      0x00\n        /* \"#utility.yul\":28257:28324   */\n      tag_783\n        /* \"#utility.yul\":28321:28323   */\n      0x19\n        /* \"#utility.yul\":28316:28319   */\n      dup4\n        /* \"#utility.yul\":28257:28324   */\n      tag_511\n      jump\t// in\n    tag_783:\n        /* \"#utility.yul\":28250:28324   */\n      swap2\n      pop\n        /* \"#utility.yul\":28333:28426   */\n      tag_784\n        /* \"#utility.yul\":28422:28425   */\n      dup3\n        /* \"#utility.yul\":28333:28426   */\n      tag_529\n      jump\t// in\n    tag_784:\n        /* \"#utility.yul\":28451:28453   */\n      0x20\n        /* \"#utility.yul\":28446:28449   */\n      dup3\n        /* \"#utility.yul\":28442:28454   */\n      add\n        /* \"#utility.yul\":28435:28454   */\n      swap1\n      pop\n        /* \"#utility.yul\":28094:28460   */\n      swap2\n      swap1\n      pop\n      jump\t// out\n        /* \"#utility.yul\":28466:28885   */\n    tag_262:\n        /* \"#utility.yul\":28632:28636   */\n      0x00\n        /* \"#utility.yul\":28670:28672   */\n      0x20\n        /* \"#utility.yul\":28659:28668   */\n      dup3\n        /* \"#utility.yul\":28655:28673   */\n      add\n        /* \"#utility.yul\":28647:28673   */\n      swap1\n      pop\n        /* \"#utility.yul\":28719:28728   */\n      dup2\n        /* \"#utility.yul\":28713:28717   */\n      dup2\n        /* \"#utility.yul\":28709:28729   */\n      sub\n        /* \"#utility.yul\":28705:28706   */\n      0x00\n        /* \"#utility.yul\":28694:28703   */\n      dup4\n        /* \"#utility.yul\":28690:28707   */\n      add\n        /* \"#utility.yul\":28683:28730   */\n      mstore\n        /* \"#utility.yul\":28747:28878   */\n      tag_786\n        /* \"#utility.yul\":28873:28877   */\n      dup2\n        /* \"#utility.yul\":28747:28878   */\n      tag_530\n      jump\t// in\n    tag_786:\n        /* \"#utility.yul\":28739:28878   */\n      swap1\n      pop\n        /* \"#utility.yul\":28466:28885   */\n      swap2\n      swap1\n      pop\n      jump\t// out\n        /* \"#utility.yul\":28891:29079   */\n    tag_269:\n        /* \"#utility.yul\":28929:28932   */\n      0x00\n        /* \"#utility.yul\":28948:28966   */\n      tag_788\n        /* \"#utility.yul\":28964:28965   */\n      dup3\n        /* \"#utility.yul\":28948:28966   */\n      tag_480\n      jump\t// in\n    tag_788:\n        /* \"#utility.yul\":28943:28966   */\n      swap2\n      pop\n        /* \"#utility.yul\":28980:28998   */\n      tag_789\n        /* \"#utility.yul\":28996:28997   */\n      dup4\n        /* \"#utility.yul\":28980:28998   */\n      tag_480\n      jump\t// in\n    tag_789:\n        /* \"#utility.yul\":28975:28998   */\n      swap3\n      pop\n        /* \"#utility.yul\":29021:29022   */\n      dup3\n        /* \"#utility.yul\":29018:29019   */\n      dup3\n        /* \"#utility.yul\":29014:29023   */\n      add\n        /* \"#utility.yul\":29007:29023   */\n      swap1\n      pop\n        /* \"#utility.yul\":29044:29048   */\n      0xff\n        /* \"#utility.yul\":29039:29042   */\n      dup2\n        /* \"#utility.yul\":29036:29049   */\n      gt\n        /* \"#utility.yul\":29033:29072   */\n      iszero\n      tag_790\n      jumpi\n        /* \"#utility.yul\":29052:29070   */\n      tag_791\n      tag_520\n      jump\t// in\n    tag_791:\n        /* \"#utility.yul\":29033:29072   */\n    tag_790:\n        /* \"#utility.yul\":28891:29079   */\n      swap3\n      swap2\n      pop\n      pop\n      jump\t// out\n        /* \"#utility.yul\":29085:29276   */\n    tag_276:\n        /* \"#utility.yul\":29123:29127   */\n      0x00\n        /* \"#utility.yul\":29143:29161   */\n      tag_793\n        /* \"#utility.yul\":29159:29160   */\n      dup3\n        /* \"#utility.yul\":29143:29161   */\n      tag_480\n      jump\t// in\n    tag_793:\n        /* \"#utility.yul\":29138:29161   */\n      swap2\n      pop\n        /* \"#utility.yul\":29175:29193   */\n      tag_794\n        /* \"#utility.yul\":29191:29192   */\n      dup4\n        /* \"#utility.yul\":29175:29193   */\n      tag_480\n      jump\t// in\n    tag_794:\n        /* \"#utility.yul\":29170:29193   */\n      swap3\n      pop\n        /* \"#utility.yul\":29217:29218   */\n      dup3\n        /* \"#utility.yul\":29214:29215   */\n      dup3\n        /* \"#utility.yul\":29210:29219   */\n      sub\n        /* \"#utility.yul\":29202:29219   */\n      swap1\n      pop\n        /* \"#utility.yul\":29241:29245   */\n      0xff\n        /* \"#utility.yul\":29235:29239   */\n      dup2\n        /* \"#utility.yul\":29232:29246   */\n      gt\n        /* \"#utility.yul\":29229:29269   */\n      iszero\n      tag_795\n      jumpi\n        /* \"#utility.yul\":29249:29267   */\n      tag_796\n      tag_520\n      jump\t// in\n    tag_796:\n        /* \"#utility.yul\":29229:29269   */\n    tag_795:\n        /* \"#utility.yul\":29085:29276   */\n      swap3\n      swap2\n      pop\n      pop\n      jump\t// out\n        /* \"#utility.yul\":29282:29513   */\n    tag_531:\n        /* \"#utility.yul\":29422:29456   */\n      0x496e73756666696369656e742066756e647320746f2072657061792074686520\n        /* \"#utility.yul\":29418:29419   */\n      0x00\n        /* \"#utility.yul\":29410:29416   */\n      dup3\n        /* \"#utility.yul\":29406:29420   */\n      add\n        /* \"#utility.yul\":29399:29457   */\n      mstore\n        /* \"#utility.yul\":29491:29505   */\n      0x6f766572647565206c6f616e0000000000000000000000000000000000000000\n        /* \"#utility.yul\":29486:29488   */\n      0x20\n        /* \"#utility.yul\":29478:29484   */\n      dup3\n        /* \"#utility.yul\":29474:29489   */\n      add\n        /* \"#utility.yul\":29467:29506   */\n      mstore\n        /* \"#utility.yul\":29282:29513   */\n      pop\n      jump\t// out\n        /* \"#utility.yul\":29519:29885   */\n    tag_532:\n        /* \"#utility.yul\":29661:29664   */\n      0x00\n        /* \"#utility.yul\":29682:29749   */\n      tag_799\n        /* \"#utility.yul\":29746:29748   */\n      0x2c\n        /* \"#utility.yul\":29741:29744   */\n      dup4\n        /* \"#utility.yul\":29682:29749   */\n      tag_511\n      jump\t// in\n    tag_799:\n        /* \"#utility.yul\":29675:29749   */\n      swap2\n      pop\n        /* \"#utility.yul\":29758:29851   */\n      tag_800\n        /* \"#utility.yul\":29847:29850   */\n      dup3\n        /* \"#utility.yul\":29758:29851   */\n      tag_531\n      jump\t// in\n    tag_800:\n        /* \"#utility.yul\":29876:29878   */\n      0x40\n        /* \"#utility.yul\":29871:29874   */\n      dup3\n        /* \"#utility.yul\":29867:29879   */\n      add\n        /* \"#utility.yul\":29860:29879   */\n      swap1\n      pop\n        /* \"#utility.yul\":29519:29885   */\n      swap2\n      swap1\n      pop\n      jump\t// out\n        /* \"#utility.yul\":29891:30310   */\n    tag_284:\n        /* \"#utility.yul\":30057:30061   */\n      0x00\n        /* \"#utility.yul\":30095:30097   */\n      0x20\n        /* \"#utility.yul\":30084:30093   */\n      dup3\n        /* \"#utility.yul\":30080:30098   */\n      add\n        /* \"#utility.yul\":30072:30098   */\n      swap1\n      pop\n        /* \"#utility.yul\":30144:30153   */\n      dup2\n        /* \"#utility.yul\":30138:30142   */\n      dup2\n        /* \"#utility.yul\":30134:30154   */\n      sub\n        /* \"#utility.yul\":30130:30131   */\n      0x00\n        /* \"#utility.yul\":30119:30128   */\n      dup4\n        /* \"#utility.yul\":30115:30132   */\n      add\n        /* \"#utility.yul\":30108:30155   */\n      mstore\n        /* \"#utility.yul\":30172:30303   */\n      tag_802\n        /* \"#utility.yul\":30298:30302   */\n      dup2\n        /* \"#utility.yul\":30172:30303   */\n      tag_532\n      jump\t// in\n    tag_802:\n        /* \"#utility.yul\":30164:30303   */\n      swap1\n      pop\n        /* \"#utility.yul\":29891:30310   */\n      swap2\n      swap1\n      pop\n      jump\t// out\n        /* \"#utility.yul\":30316:30782   */\n    tag_286:\n        /* \"#utility.yul\":30477:30481   */\n      0x00\n        /* \"#utility.yul\":30515:30517   */\n      0x60\n        /* \"#utility.yul\":30504:30513   */\n      dup3\n        /* \"#utility.yul\":30500:30518   */\n      add\n        /* \"#utility.yul\":30492:30518   */\n      swap1\n      pop\n        /* \"#utility.yul\":30528:30599   */\n      tag_804\n        /* \"#utility.yul\":30596:30597   */\n      0x00\n        /* \"#utility.yul\":30585:30594   */\n      dup4\n        /* \"#utility.yul\":30581:30598   */\n      add\n        /* \"#utility.yul\":30572:30578   */\n      dup7\n        /* \"#utility.yul\":30528:30599   */\n      tag_507\n      jump\t// in\n    tag_804:\n        /* \"#utility.yul\":30609:30693   */\n      tag_805\n        /* \"#utility.yul\":30689:30691   */\n      0x20\n        /* \"#utility.yul\":30678:30687   */\n      dup4\n        /* \"#utility.yul\":30674:30692   */\n      add\n        /* \"#utility.yul\":30665:30671   */\n      dup6\n        /* \"#utility.yul\":30609:30693   */\n      tag_508\n      jump\t// in\n    tag_805:\n        /* \"#utility.yul\":30703:30775   */\n      tag_806\n        /* \"#utility.yul\":30771:30773   */\n      0x40\n        /* \"#utility.yul\":30760:30769   */\n      dup4\n        /* \"#utility.yul\":30756:30774   */\n      add\n        /* \"#utility.yul\":30747:30753   */\n      dup5\n        /* \"#utility.yul\":30703:30775   */\n      tag_507\n      jump\t// in\n    tag_806:\n        /* \"#utility.yul\":30316:30782   */\n      swap5\n      swap4\n      pop\n      pop\n      pop\n      pop\n      jump\t// out\n        /* \"#utility.yul\":30788:31013   */\n    tag_533:\n        /* \"#utility.yul\":30928:30962   */\n      0x4f6e6c792074686520626f72726f7765722063616e2063616e63656c20746869\n        /* \"#utility.yul\":30924:30925   */\n      0x00\n        /* \"#utility.yul\":30916:30922   */\n      dup3\n        /* \"#utility.yul\":30912:30926   */\n      add\n        /* \"#utility.yul\":30905:30963   */\n      mstore\n        /* \"#utility.yul\":30997:31005   */\n      0x73206c6f616e0000000000000000000000000000000000000000000000000000\n        /* \"#utility.yul\":30992:30994   */\n      0x20\n        /* \"#utility.yul\":30984:30990   */\n      dup3\n        /* \"#utility.yul\":30980:30995   */\n      add\n        /* \"#utility.yul\":30973:31006   */\n      mstore\n        /* \"#utility.yul\":30788:31013   */\n      pop\n      jump\t// out\n        /* \"#utility.yul\":31019:31385   */\n    tag_534:\n        /* \"#utility.yul\":31161:31164   */\n      0x00\n        /* \"#utility.yul\":31182:31249   */\n      tag_809\n        /* \"#utility.yul\":31246:31248   */\n      0x26\n        /* \"#utility.yul\":31241:31244   */\n      dup4\n        /* \"#utility.yul\":31182:31249   */\n      tag_511\n      jump\t// in\n    tag_809:\n        /* \"#utility.yul\":31175:31249   */\n      swap2\n      pop\n        /* \"#utility.yul\":31258:31351   */\n      tag_810\n        /* \"#utility.yul\":31347:31350   */\n      dup3\n        /* \"#utility.yul\":31258:31351   */\n      tag_533\n      jump\t// in\n    tag_810:\n        /* \"#utility.yul\":31376:31378   */\n      0x40\n        /* \"#utility.yul\":31371:31374   */\n      dup3\n        /* \"#utility.yul\":31367:31379   */\n      add\n        /* \"#utility.yul\":31360:31379   */\n      swap1\n      pop\n        /* \"#utility.yul\":31019:31385   */\n      swap2\n      swap1\n      pop\n      jump\t// out\n        /* \"#utility.yul\":31391:31810   */\n    tag_294:\n        /* \"#utility.yul\":31557:31561   */\n      0x00\n        /* \"#utility.yul\":31595:31597   */\n      0x20\n        /* \"#utility.yul\":31584:31593   */\n      dup3\n        /* \"#utility.yul\":31580:31598   */\n      add\n        /* \"#utility.yul\":31572:31598   */\n      swap1\n      pop\n        /* \"#utility.yul\":31644:31653   */\n      dup2\n        /* \"#utility.yul\":31638:31642   */\n      dup2\n        /* \"#utility.yul\":31634:31654   */\n      sub\n        /* \"#utility.yul\":31630:31631   */\n      0x00\n        /* \"#utility.yul\":31619:31628   */\n      dup4\n        /* \"#utility.yul\":31615:31632   */\n      add\n        /* \"#utility.yul\":31608:31655   */\n      mstore\n        /* \"#utility.yul\":31672:31803   */\n      tag_812\n        /* \"#utility.yul\":31798:31802   */\n      dup2\n        /* \"#utility.yul\":31672:31803   */\n      tag_534\n      jump\t// in\n    tag_812:\n        /* \"#utility.yul\":31664:31803   */\n      swap1\n      pop\n        /* \"#utility.yul\":31391:31810   */\n      swap2\n      swap1\n      pop\n      jump\t// out\n        /* \"#utility.yul\":31816:31997   */\n    tag_535:\n        /* \"#utility.yul\":31956:31989   */\n      0x596f7520686176656e27742072656163686564206c6f616e20696d706f727400\n        /* \"#utility.yul\":31952:31953   */\n      0x00\n        /* \"#utility.yul\":31944:31950   */\n      dup3\n        /* \"#utility.yul\":31940:31954   */\n      add\n        /* \"#utility.yul\":31933:31990   */\n      mstore\n        /* \"#utility.yul\":31816:31997   */\n      pop\n      jump\t// out\n        /* \"#utility.yul\":32003:32369   */\n    tag_536:\n        /* \"#utility.yul\":32145:32148   */\n      0x00\n        /* \"#utility.yul\":32166:32233   */\n      tag_815\n        /* \"#utility.yul\":32230:32232   */\n      0x1f\n        /* \"#utility.yul\":32225:32228   */\n      dup4\n        /* \"#utility.yul\":32166:32233   */\n      tag_511\n      jump\t// in\n    tag_815:\n        /* \"#utility.yul\":32159:32233   */\n      swap2\n      pop\n        /* \"#utility.yul\":32242:32335   */\n      tag_816\n        /* \"#utility.yul\":32331:32334   */\n      dup3\n        /* \"#utility.yul\":32242:32335   */\n      tag_535\n      jump\t// in\n    tag_816:\n        /* \"#utility.yul\":32360:32362   */\n      0x20\n        /* \"#utility.yul\":32355:32358   */\n      dup3\n        /* \"#utility.yul\":32351:32363   */\n      add\n        /* \"#utility.yul\":32344:32363   */\n      swap1\n      pop\n        /* \"#utility.yul\":32003:32369   */\n      swap2\n      swap1\n      pop\n      jump\t// out\n        /* \"#utility.yul\":32375:32794   */\n    tag_311:\n        /* \"#utility.yul\":32541:32545   */\n      0x00\n        /* \"#utility.yul\":32579:32581   */\n      0x20\n        /* \"#utility.yul\":32568:32577   */\n      dup3\n        /* \"#utility.yul\":32564:32582   */\n      add\n        /* \"#utility.yul\":32556:32582   */\n      swap1\n      pop\n        /* \"#utility.yul\":32628:32637   */\n      dup2\n        /* \"#utility.yul\":32622:32626   */\n      dup2\n        /* \"#utility.yul\":32618:32638   */\n      sub\n        /* \"#utility.yul\":32614:32615   */\n      0x00\n        /* \"#utility.yul\":32603:32612   */\n      dup4\n        /* \"#utility.yul\":32599:32616   */\n      add\n        /* \"#utility.yul\":32592:32639   */\n      mstore\n        /* \"#utility.yul\":32656:32787   */\n      tag_818\n        /* \"#utility.yul\":32782:32786   */\n      dup2\n        /* \"#utility.yul\":32656:32787   */\n      tag_536\n      jump\t// in\n    tag_818:\n        /* \"#utility.yul\":32648:32787   */\n      swap1\n      pop\n        /* \"#utility.yul\":32375:32794   */\n      swap2\n      swap1\n      pop\n      jump\t// out\n        /* \"#utility.yul\":32800:32968   */\n    tag_537:\n        /* \"#utility.yul\":32940:32960   */\n      0x4e6f206c6f616e20746f2063616e63656c2e0000000000000000000000000000\n        /* \"#utility.yul\":32936:32937   */\n      0x00\n        /* \"#utility.yul\":32928:32934   */\n      dup3\n        /* \"#utility.yul\":32924:32938   */\n      add\n        /* \"#utility.yul\":32917:32961   */\n      mstore\n        /* \"#utility.yul\":32800:32968   */\n      pop\n      jump\t// out\n        /* \"#utility.yul\":32974:33340   */\n    tag_538:\n        /* \"#utility.yul\":33116:33119   */\n      0x00\n        /* \"#utility.yul\":33137:33204   */\n      tag_821\n        /* \"#utility.yul\":33201:33203   */\n      0x12\n        /* \"#utility.yul\":33196:33199   */\n      dup4\n        /* \"#utility.yul\":33137:33204   */\n      tag_511\n      jump\t// in\n    tag_821:\n        /* \"#utility.yul\":33130:33204   */\n      swap2\n      pop\n        /* \"#utility.yul\":33213:33306   */\n      tag_822\n        /* \"#utility.yul\":33302:33305   */\n      dup3\n        /* \"#utility.yul\":33213:33306   */\n      tag_537\n      jump\t// in\n    tag_822:\n        /* \"#utility.yul\":33331:33333   */\n      0x20\n        /* \"#utility.yul\":33326:33329   */\n      dup3\n        /* \"#utility.yul\":33322:33334   */\n      add\n        /* \"#utility.yul\":33315:33334   */\n      swap1\n      pop\n        /* \"#utility.yul\":32974:33340   */\n      swap2\n      swap1\n      pop\n      jump\t// out\n        /* \"#utility.yul\":33346:33765   */\n    tag_319:\n        /* \"#utility.yul\":33512:33516   */\n      0x00\n        /* \"#utility.yul\":33550:33552   */\n      0x20\n        /* \"#utility.yul\":33539:33548   */\n      dup3\n        /* \"#utility.yul\":33535:33553   */\n      add\n        /* \"#utility.yul\":33527:33553   */\n      swap1\n      pop\n        /* \"#utility.yul\":33599:33608   */\n      dup2\n        /* \"#utility.yul\":33593:33597   */\n      dup2\n        /* \"#utility.yul\":33589:33609   */\n      sub\n        /* \"#utility.yul\":33585:33586   */\n      0x00\n        /* \"#utility.yul\":33574:33583   */\n      dup4\n        /* \"#utility.yul\":33570:33587   */\n      add\n        /* \"#utility.yul\":33563:33610   */\n      mstore\n        /* \"#utility.yul\":33627:33758   */\n      tag_824\n        /* \"#utility.yul\":33753:33757   */\n      dup2\n        /* \"#utility.yul\":33627:33758   */\n      tag_538\n      jump\t// in\n    tag_824:\n        /* \"#utility.yul\":33619:33758   */\n      swap1\n      pop\n        /* \"#utility.yul\":33346:33765   */\n      swap2\n      swap1\n      pop\n      jump\t// out\n        /* \"#utility.yul\":33771:33952   */\n    tag_539:\n        /* \"#utility.yul\":33911:33944   */\n      0x5265656e7472616e637947756172643a207265656e7472616e742063616c6c00\n        /* \"#utility.yul\":33907:33908   */\n      0x00\n        /* \"#utility.yul\":33899:33905   */\n      dup3\n        /* \"#utility.yul\":33895:33909   */\n      add\n        /* \"#utility.yul\":33888:33945   */\n      mstore\n        /* \"#utility.yul\":33771:33952   */\n      pop\n      jump\t// out\n        /* \"#utility.yul\":33958:34324   */\n    tag_540:\n        /* \"#utility.yul\":34100:34103   */\n      0x00\n        /* \"#utility.yul\":34121:34188   */\n      tag_827\n        /* \"#utility.yul\":34185:34187   */\n      0x1f\n        /* \"#utility.yul\":34180:34183   */\n      dup4\n        /* \"#utility.yul\":34121:34188   */\n      tag_511\n      jump\t// in\n    tag_827:\n        /* \"#utility.yul\":34114:34188   */\n      swap2\n      pop\n        /* \"#utility.yul\":34197:34290   */\n      tag_828\n        /* \"#utility.yul\":34286:34289   */\n      dup3\n        /* \"#utility.yul\":34197:34290   */\n      tag_539\n      jump\t// in\n    tag_828:\n        /* \"#utility.yul\":34315:34317   */\n      0x20\n        /* \"#utility.yul\":34310:34313   */\n      dup3\n        /* \"#utility.yul\":34306:34318   */\n      add\n        /* \"#utility.yul\":34299:34318   */\n      swap1\n      pop\n        /* \"#utility.yul\":33958:34324   */\n      swap2\n      swap1\n      pop\n      jump\t// out\n        /* \"#utility.yul\":34330:34749   */\n    tag_335:\n        /* \"#utility.yul\":34496:34500   */\n      0x00\n        /* \"#utility.yul\":34534:34536   */\n      0x20\n        /* \"#utility.yul\":34523:34532   */\n      dup3\n        /* \"#utility.yul\":34519:34537   */\n      add\n        /* \"#utility.yul\":34511:34537   */\n      swap1\n      pop\n        /* \"#utility.yul\":34583:34592   */\n      dup2\n        /* \"#utility.yul\":34577:34581   */\n      dup2\n        /* \"#utility.yul\":34573:34593   */\n      sub\n        /* \"#utility.yul\":34569:34570   */\n      0x00\n        /* \"#utility.yul\":34558:34567   */\n      dup4\n        /* \"#utility.yul\":34554:34571   */\n      add\n        /* \"#utility.yul\":34547:34594   */\n      mstore\n        /* \"#utility.yul\":34611:34742   */\n      tag_830\n        /* \"#utility.yul\":34737:34741   */\n      dup2\n        /* \"#utility.yul\":34611:34742   */\n      tag_540\n      jump\t// in\n    tag_830:\n        /* \"#utility.yul\":34603:34742   */\n      swap1\n      pop\n        /* \"#utility.yul\":34330:34749   */\n      swap2\n      swap1\n      pop\n      jump\t// out\n        /* \"#utility.yul\":34755:34926   */\n    tag_541:\n        /* \"#utility.yul\":34895:34918   */\n      0x496e76616c6964206c6f616e206475726174696f6e0000000000000000000000\n        /* \"#utility.yul\":34891:34892   */\n      0x00\n        /* \"#utility.yul\":34883:34889   */\n      dup3\n        /* \"#utility.yul\":34879:34893   */\n      add\n        /* \"#utility.yul\":34872:34919   */\n      mstore\n        /* \"#utility.yul\":34755:34926   */\n      pop\n      jump\t// out\n        /* \"#utility.yul\":34932:35298   */\n    tag_542:\n        /* \"#utility.yul\":35074:35077   */\n      0x00\n        /* \"#utility.yul\":35095:35162   */\n      tag_833\n        /* \"#utility.yul\":35159:35161   */\n      0x15\n        /* \"#utility.yul\":35154:35157   */\n      dup4\n        /* \"#utility.yul\":35095:35162   */\n      tag_511\n      jump\t// in\n    tag_833:\n        /* \"#utility.yul\":35088:35162   */\n      swap2\n      pop\n        /* \"#utility.yul\":35171:35264   */\n      tag_834\n        /* \"#utility.yul\":35260:35263   */\n      dup3\n        /* \"#utility.yul\":35171:35264   */\n      tag_541\n      jump\t// in\n    tag_834:\n        /* \"#utility.yul\":35289:35291   */\n      0x20\n        /* \"#utility.yul\":35284:35287   */\n      dup3\n        /* \"#utility.yul\":35280:35292   */\n      add\n        /* \"#utility.yul\":35273:35292   */\n      swap1\n      pop\n        /* \"#utility.yul\":34932:35298   */\n      swap2\n      swap1\n      pop\n      jump\t// out\n        /* \"#utility.yul\":35304:35723   */\n    tag_356:\n        /* \"#utility.yul\":35470:35474   */\n      0x00\n        /* \"#utility.yul\":35508:35510   */\n      0x20\n        /* \"#utility.yul\":35497:35506   */\n      dup3\n        /* \"#utility.yul\":35493:35511   */\n      add\n        /* \"#utility.yul\":35485:35511   */\n      swap1\n      pop\n        /* \"#utility.yul\":35557:35566   */\n      dup2\n        /* \"#utility.yul\":35551:35555   */\n      dup2\n        /* \"#utility.yul\":35547:35567   */\n      sub\n        /* \"#utility.yul\":35543:35544   */\n      0x00\n        /* \"#utility.yul\":35532:35541   */\n      dup4\n        /* \"#utility.yul\":35528:35545   */\n      add\n        /* \"#utility.yul\":35521:35568   */\n      mstore\n        /* \"#utility.yul\":35585:35716   */\n      tag_836\n        /* \"#utility.yul\":35711:35715   */\n      dup2\n        /* \"#utility.yul\":35585:35716   */\n      tag_542\n      jump\t// in\n    tag_836:\n        /* \"#utility.yul\":35577:35716   */\n      swap1\n      pop\n        /* \"#utility.yul\":35304:35723   */\n      swap2\n      swap1\n      pop\n      jump\t// out\n        /* \"#utility.yul\":35729:35899   */\n    tag_543:\n        /* \"#utility.yul\":35869:35891   */\n      0x496e76616c6964206372656469742073636f7265000000000000000000000000\n        /* \"#utility.yul\":35865:35866   */\n      0x00\n        /* \"#utility.yul\":35857:35863   */\n      dup3\n        /* \"#utility.yul\":35853:35867   */\n      add\n        /* \"#utility.yul\":35846:35892   */\n      mstore\n        /* \"#utility.yul\":35729:35899   */\n      pop\n      jump\t// out\n        /* \"#utility.yul\":35905:36271   */\n    tag_544:\n        /* \"#utility.yul\":36047:36050   */\n      0x00\n        /* \"#utility.yul\":36068:36135   */\n      tag_839\n        /* \"#utility.yul\":36132:36134   */\n      0x14\n        /* \"#utility.yul\":36127:36130   */\n      dup4\n        /* \"#utility.yul\":36068:36135   */\n      tag_511\n      jump\t// in\n    tag_839:\n        /* \"#utility.yul\":36061:36135   */\n      swap2\n      pop\n        /* \"#utility.yul\":36144:36237   */\n      tag_840\n        /* \"#utility.yul\":36233:36236   */\n      dup3\n        /* \"#utility.yul\":36144:36237   */\n      tag_543\n      jump\t// in\n    tag_840:\n        /* \"#utility.yul\":36262:36264   */\n      0x20\n        /* \"#utility.yul\":36257:36260   */\n      dup3\n        /* \"#utility.yul\":36253:36265   */\n      add\n        /* \"#utility.yul\":36246:36265   */\n      swap1\n      pop\n        /* \"#utility.yul\":35905:36271   */\n      swap2\n      swap1\n      pop\n      jump\t// out\n        /* \"#utility.yul\":36277:36696   */\n    tag_404:\n        /* \"#utility.yul\":36443:36447   */\n      0x00\n        /* \"#utility.yul\":36481:36483   */\n      0x20\n        /* \"#utility.yul\":36470:36479   */\n      dup3\n        /* \"#utility.yul\":36466:36484   */\n      add\n        /* \"#utility.yul\":36458:36484   */\n      swap1\n      pop\n        /* \"#utility.yul\":36530:36539   */\n      dup2\n        /* \"#utility.yul\":36524:36528   */\n      dup2\n        /* \"#utility.yul\":36520:36540   */\n      sub\n        /* \"#utility.yul\":36516:36517   */\n      0x00\n        /* \"#utility.yul\":36505:36514   */\n      dup4\n        /* \"#utility.yul\":36501:36518   */\n      add\n        /* \"#utility.yul\":36494:36541   */\n      mstore\n        /* \"#utility.yul\":36558:36689   */\n      tag_842\n        /* \"#utility.yul\":36684:36688   */\n      dup2\n        /* \"#utility.yul\":36558:36689   */\n      tag_544\n      jump\t// in\n    tag_842:\n        /* \"#utility.yul\":36550:36689   */\n      swap1\n      pop\n        /* \"#utility.yul\":36277:36696   */\n      swap2\n      swap1\n      pop\n      jump\t// out\n        /* \"#utility.yul\":36702:36882   */\n    tag_545:\n        /* \"#utility.yul\":36750:36827   */\n      0x4e487b7100000000000000000000000000000000000000000000000000000000\n        /* \"#utility.yul\":36747:36748   */\n      0x00\n        /* \"#utility.yul\":36740:36828   */\n      mstore\n        /* \"#utility.yul\":36847:36851   */\n      0x12\n        /* \"#utility.yul\":36844:36845   */\n      0x04\n        /* \"#utility.yul\":36837:36852   */\n      mstore\n        /* \"#utility.yul\":36871:36875   */\n      0x24\n        /* \"#utility.yul\":36868:36869   */\n      0x00\n        /* \"#utility.yul\":36861:36876   */\n      revert\n        /* \"#utility.yul\":36888:37073   */\n    tag_427:\n        /* \"#utility.yul\":36928:36929   */\n      0x00\n        /* \"#utility.yul\":36945:36965   */\n      tag_845\n        /* \"#utility.yul\":36963:36964   */\n      dup3\n        /* \"#utility.yul\":36945:36965   */\n      tag_470\n      jump\t// in\n    tag_845:\n        /* \"#utility.yul\":36940:36965   */\n      swap2\n      pop\n        /* \"#utility.yul\":36979:36999   */\n      tag_846\n        /* \"#utility.yul\":36997:36998   */\n      dup4\n        /* \"#utility.yul\":36979:36999   */\n      tag_470\n      jump\t// in\n    tag_846:\n        /* \"#utility.yul\":36974:36999   */\n      swap3\n      pop\n        /* \"#utility.yul\":37018:37019   */\n      dup3\n        /* \"#utility.yul\":37008:37043   */\n      tag_847\n      jumpi\n        /* \"#utility.yul\":37023:37041   */\n      tag_848\n      tag_545\n      jump\t// in\n    tag_848:\n        /* \"#utility.yul\":37008:37043   */\n    tag_847:\n        /* \"#utility.yul\":37065:37066   */\n      dup3\n        /* \"#utility.yul\":37062:37063   */\n      dup3\n        /* \"#utility.yul\":37058:37067   */\n      div\n        /* \"#utility.yul\":37053:37067   */\n      swap1\n      pop\n        /* \"#utility.yul\":36888:37073   */\n      swap3\n      swap2\n      pop\n      pop\n      jump\t// out\n\n    auxdata: 0xa26469706673582212204db7fb05c598b6d670d1fb2b7e611c423d407212d8134e2ffb641c0a8a893e3764736f6c634300081c0033\n}\n",
				"bytecode": {
					"linkReferences": {},
					"object": "6080604052348015600e575f5ffd5b5060015f819055506136c8806100235f395ff3fe60806040526004361061009b575f3560e01c8063ab7b1c8911610063578063ab7b1c8914610173578063b96c5cdd1461018f578063bdbfa3de146101cc578063d46bd137146101e8578063e034f3dc14610225578063e3ed19021461026b5761009b565b806315e303f31461009f5780631a26e0b7146100bb5780633ddce5a0146100e55780636be35c6c1461010f5780638f2c36551461014b575b5f5ffd5b6100b960048036038101906100b491906124d2565b6102a7565b005b3480156100c6575f5ffd5b506100cf6105e1565b6040516100dc91906128bb565b60405180910390f35b3480156100f0575f5ffd5b506100f9610726565b60405161010691906128bb565b60405180910390f35b34801561011a575f5ffd5b50610135600480360381019061013091906128fe565b61086b565b60405161014291906128bb565b60405180910390f35b348015610156575f5ffd5b50610171600480360381019061016c9190612929565b610a08565b005b61018d600480360381019061018891906124d2565b611055565b005b34801561019a575f5ffd5b506101b560048036038101906101b09190612991565b61146b565b6040516101c39291906129da565b60405180910390f35b6101e660048036038101906101e191906124d2565b6114b6565b005b3480156101f3575f5ffd5b5061020e600480360381019061020991906124d2565b6117fc565b60405161021c929190612a1f565b60405180910390f35b348015610230575f5ffd5b5061024b600480360381019061024691906124d2565b611840565b6040516102629b9a99989796959493929190612aa2565b60405180910390f35b348015610276575f5ffd5b50610291600480360381019061028c9190612b52565b61199e565b60405161029e9190612b90565b60405180910390f35b6102af6119c9565b5f60025f8381526020019081526020015f2090505f816001015f015f9054906101000a900473ffffffffffffffffffffffffffffffffffffffff16905082825f015414610331576040517f08c379a000000000000000000000000000000000000000000000000000000000815260040161032890612c03565b60405180910390fd5b6001600481111561034557610344612684565b5b82600a015f9054906101000a900460ff16600481111561036857610367612684565b5b146103a8576040517f08c379a000000000000000000000000000000000000000000000000000000000815260040161039f90612c6b565b60405180910390fd5b81600401543410156103ef576040517f08c379a00000000000000000000000000000000000000000000000000000000081526004016103e690612cf9565b60405180910390fd5b3373ffffffffffffffffffffffffffffffffffffffff168173ffffffffffffffffffffffffffffffffffffffff160361045d576040517f08c379a000000000000000000000000000000000000000000000000000000000815260040161045490612d87565b60405180910390fd5b5f61047883600a0160019054906101000a900460ff16611a16565b905033836003015f6101000a81548173ffffffffffffffffffffffffffffffffffffffff021916908373ffffffffffffffffffffffffffffffffffffffff16021790555042836007018190555062015180816104d49190612dd2565b426104df9190612e13565b83600801819055505f83600a015f6101000a81548160ff0219169083600481111561050d5761050c612684565b5b02179055508173ffffffffffffffffffffffffffffffffffffffff166108fc3490811502906040515f60405180830381858888f19350505050158015610555573d5f5f3e3d5ffd5b506105878360040154846003015f9054906101000a900473ffffffffffffffffffffffffffffffffffffffff16611af5565b7f8aa0da3f068a2cb6c8967ae3dcba3c1e23f4035d737fd9cb63fb331e85176051835f0154338434876007015488600801546040516105cb96959493929190612e46565b60405180910390a15050506105de611b56565b50565b60605f5f6105ed611b5f565b915091505f5f90505b8181101561071d575f5f90505b816001846106119190612ea5565b61061b9190612ea5565b81101561070f57836001826106309190612e13565b8151811061064157610640612ed8565b5b6020026020010151608001518482815181106106605761065f612ed8565b5b6020026020010151608001511115610702575f84828151811061068657610685612ed8565b5b602002602001015190508460018361069e9190612e13565b815181106106af576106ae612ed8565b5b60200260200101518583815181106106ca576106c9612ed8565b5b602002602001018190525080856001846106e49190612e13565b815181106106f5576106f4612ed8565b5b6020026020010181905250505b8080600101915050610603565b5080806001019150506105f6565b50819250505090565b60605f5f610732611b5f565b915091505f5f90505b81811015610862575f5f90505b816001846107569190612ea5565b6107609190612ea5565b81101561085457836001826107759190612e13565b8151811061078657610785612ed8565b5b6020026020010151606001518482815181106107a5576107a4612ed8565b5b6020026020010151606001511115610847575f8482815181106107cb576107ca612ed8565b5b60200260200101519050846001836107e39190612e13565b815181106107f4576107f3612ed8565b5b602002602001015185838151811061080f5761080e612ed8565b5b602002602001018190525080856001846108299190612e13565b8151811061083a57610839612ed8565b5b6020026020010181905250505b8080600101915050610748565b50808060010191505061073b565b50819250505090565b60605f5f610877611b5f565b915091505f5f90505f5f90505b828110156108f25785600281111561089f5761089e612684565b5b8482815181106108b2576108b1612ed8565b5b6020026020010151610140015160028111156108d1576108d0612684565b5b036108e55781806108e190612f05565b9250505b8080600101915050610884565b505f8167ffffffffffffffff81111561090e5761090d612f4c565b5b60405190808252806020026020018201604052801561094757816020015b61093461236d565b81526020019060019003908161092c5790505b5090505f5f90505f5f90505b848110156109fa5787600281111561096e5761096d612684565b5b86828151811061098157610980612ed8565b5b6020026020010151610140015160028111156109a05761099f612684565b5b036109ed578581815181106109b8576109b7612ed8565b5b60200260200101518383815181106109d3576109d2612ed8565b5b602002602001018190525081806109e990612f05565b9250505b8080600101915050610953565b508195505050505050919050565b5f8211610a4a576040517f08c379a0000000000000000000000000000000000000000000000000000000008152600401610a4190612fe9565b60405180910390fd5b5f610a53611b5f565b9150506101f4811115610a9b576040517f08c379a0000000000000000000000000000000000000000000000000000000008152600401610a9290613077565b60405180910390fd5b5f60045f3373ffffffffffffffffffffffffffffffffffffffff1673ffffffffffffffffffffffffffffffffffffffff1681526020019081526020015f20805480602002602001604051908101604052809291908181526020018280548015610b2157602002820191905f5260205f20905b815481526020019060010190808311610b0d575b505050505090505f5f90505b8151811015610dd8575f828281518110610b4a57610b49612ed8565b5b602002602001015190505f60025f8381526020019081526020015f20604051806101600160405290815f8201548152602001600182016040518060600160405290815f82015f9054906101000a900473ffffffffffffffffffffffffffffffffffffffff1673ffffffffffffffffffffffffffffffffffffffff1673ffffffffffffffffffffffffffffffffffffffff1681526020015f820160149054906101000a900460ff1660ff1660ff16815260200160018201805480602002602001604051908101604052809291908181526020018280548015610c4857602002820191905f5260205f20905b815481526020019060010190808311610c34575b5050505050815250508152602001600382015f9054906101000a900473ffffffffffffffffffffffffffffffffffffffff1673ffffffffffffffffffffffffffffffffffffffff1673ffffffffffffffffffffffffffffffffffffffff168152602001600482015481526020016005820154815260200160068201548152602001600782015481526020016008820154815260200160098201548152602001600a82015f9054906101000a900460ff166004811115610d0a57610d09612684565b5b6004811115610d1c57610d1b612684565b5b8152602001600a820160019054906101000a900460ff166002811115610d4557610d44612684565b5b6002811115610d5757610d56612684565b5b81525050905060026004811115610d7157610d70612684565b5b8161012001516004811115610d8957610d88612684565b5b14610dc9576040517f08c379a0000000000000000000000000000000000000000000000000000000008152600401610dc09061312b565b60405180910390fd5b50508080600101915050610b2d565b5060015f815480929190610deb90612f05565b91905055505f60045f3373ffffffffffffffffffffffffffffffffffffffff1673ffffffffffffffffffffffffffffffffffffffff1681526020019081526020015f208054905090505f5f8214610e8e5760035f3373ffffffffffffffffffffffffffffffffffffffff1673ffffffffffffffffffffffffffffffffffffffff1681526020019081526020015f205f0160149054906101000a900460ff16610e91565b60015b90505f5f610e9e83611eee565b915091505f604051806101600160405280600154815260200160405180606001604052803373ffffffffffffffffffffffffffffffffffffffff1681526020018760ff16815260200160045f3373ffffffffffffffffffffffffffffffffffffffff1673ffffffffffffffffffffffffffffffffffffffff1681526020019081526020015f20805480602002602001604051908101604052809291908181526020018280548015610f6c57602002820191905f5260205f20905b815481526020019060010190808311610f58575b505050505081525081526020015f73ffffffffffffffffffffffffffffffffffffffff1681526020018a81526020018481526020018381526020015f81526020015f81526020015f815260200160016004811115610fcd57610fcc612684565b5b8152602001896002811115610fe557610fe4612684565b5b8152509050610ff381611fc7565b82893373ffffffffffffffffffffffffffffffffffffffff167f8c5be3bc7c6d15ac2f78c4515185b40c4c09e598b09da542512dba3cf0f4940760015460018d60405161104293929190613149565b60405180910390a4505050505050505050565b61105d6119c9565b5f60025f8381526020019081526020015f2090505f816001019050816001015f015f9054906101000a900473ffffffffffffffffffffffffffffffffffffffff1673ffffffffffffffffffffffffffffffffffffffff163373ffffffffffffffffffffffffffffffffffffffff161461110b576040517f08c379a0000000000000000000000000000000000000000000000000000000008152600401611102906131ee565b60405180910390fd5b5f600481111561111e5761111d612684565b5b82600a015f9054906101000a900460ff16600481111561114157611140612684565b5b148061118157506003600481111561115c5761115b612684565b5b82600a015f9054906101000a900460ff16600481111561117f5761117e612684565b5b145b6111c0576040517f08c379a00000000000000000000000000000000000000000000000000000000081526004016111b790613256565b60405180910390fd5b5f6111ca846121c5565b5090508034106113955782600801544211611265576004825f0160149054906101000a900460ff1660ff161015611234576001825f0160148282829054906101000a900460ff1661121b9190613274565b92506101000a81548160ff021916908360ff1602179055505b600283600a015f6101000a81548160ff0219169083600481111561125b5761125a612684565b5b02179055506112f3565b82600801544211156112f2576001825f0160149054906101000a900460ff1660ff16106112c5576001825f0160148282829054906101000a900460ff166112ac91906132a8565b92506101000a81548160ff021916908360ff1602179055505b600383600a015f6101000a81548160ff021916908360048111156112ec576112eb612684565b5b02179055505b5b808360090181905550826003015f9054906101000a900473ffffffffffffffffffffffffffffffffffffffff1673ffffffffffffffffffffffffffffffffffffffff166108fc3490811502906040515f60405180830381858888f19350505050158015611362573d5f5f3e3d5ffd5b5061139081846003015f9054906101000a900473ffffffffffffffffffffffffffffffffffffffff16611af5565b6113d0565b6040517f08c379a00000000000000000000000000000000000000000000000000000000081526004016113c79061334c565b60405180910390fd5b8260090154825f015f9054906101000a900473ffffffffffffffffffffffffffffffffffffffff1673ffffffffffffffffffffffffffffffffffffffff167fe0ca2d8c0146cf465a705f2d977a1340819eded9e7f875ad64c402fc67634a418686600a015f9054906101000a900460ff1687600901546040516114559392919061336a565b60405180910390a3505050611468611b56565b50565b6003602052805f5260405f205f91509050805f015f9054906101000a900473ffffffffffffffffffffffffffffffffffffffff1690805f0160149054906101000a900460ff16905082565b6114be6119c9565b5f60025f8381526020019081526020015f2090505f816001015f015f9054906101000a900473ffffffffffffffffffffffffffffffffffffffff1690505f62015180836007015461150f9190612e13565b90503373ffffffffffffffffffffffffffffffffffffffff168273ffffffffffffffffffffffffffffffffffffffff161461157f576040517f08c379a00000000000000000000000000000000000000000000000000000000081526004016115769061340f565b60405180910390fd5b5f83600a015f9054906101000a900460ff169050600160048111156115a7576115a6612684565b5b84600a015f9054906101000a900460ff1660048111156115ca576115c9612684565b5b0361160057600484600a015f6101000a81548160ff021916908360048111156115f6576115f5612684565b5b0217905550611798565b6002600481111561161457611613612684565b5b84600a015f9054906101000a900460ff16600481111561163757611636612684565b5b1480156116475750818460070154105b1561175c573484600401541015611693576040517f08c379a000000000000000000000000000000000000000000000000000000000815260040161168a90613477565b60405180910390fd5b600484600a015f6101000a81548160ff021916908360048111156116ba576116b9612684565b5b0217905550836003015f9054906101000a900473ffffffffffffffffffffffffffffffffffffffff1673ffffffffffffffffffffffffffffffffffffffff166108fc3490811502906040515f60405180830381858888f19350505050158015611725573d5f5f3e3d5ffd5b506117578460040154856003015f9054906101000a900473ffffffffffffffffffffffffffffffffffffffff16611af5565b611797565b6040517f08c379a000000000000000000000000000000000000000000000000000000000815260040161178e906134df565b60405180910390fd5b5b83600401548373ffffffffffffffffffffffffffffffffffffffff167fadbee1a5cfde1da4d21e11a94728ae86436e2a1c5cd2269d7bcf3f30cea4ed7987846040516117e5929190612a1f565b60405180910390a3505050506117f9611b56565b50565b5f5f5f611808846121c5565b5090505f611815856121c5565b9150505f8115611827575f9050611832565b8161183157600390505b5b828194509450505050915091565b6002602052805f5260405f205f91509050805f015490806001016040518060600160405290815f82015f9054906101000a900473ffffffffffffffffffffffffffffffffffffffff1673ffffffffffffffffffffffffffffffffffffffff1673ffffffffffffffffffffffffffffffffffffffff1681526020015f820160149054906101000a900460ff1660ff1660ff1681526020016001820180548060200260200160405190810160405280929190818152602001828054801561192257602002820191905f5260205f20905b81548152602001906001019080831161190e575b50505050508152505090806003015f9054906101000a900473ffffffffffffffffffffffffffffffffffffffff169080600401549080600501549080600601549080600701549080600801549080600901549080600a015f9054906101000a900460ff169080600a0160019054906101000a900460ff1690508b565b6004602052815f5260405f2081815481106119b7575f80fd5b905f5260205f20015f91509150505481565b60025f5403611a0d576040517f08c379a0000000000000000000000000000000000000000000000000000000008152600401611a0490613547565b60405180910390fd5b60025f81905550565b5f5f6002811115611a2a57611a29612684565b5b826002811115611a3d57611a3c612684565b5b03611a4b57601e9050611af0565b60016002811115611a5f57611a5e612684565b5b826002811115611a7257611a71612684565b5b03611a805760b49050611af0565b600280811115611a9357611a92612684565b5b826002811115611aa657611aa5612684565b5b03611ab55761016d9050611af0565b6040517f08c379a0000000000000000000000000000000000000000000000000000000008152600401611ae7906135af565b60405180910390fd5b919050565b5f8234611b029190612ea5565b90505f811115611b51578173ffffffffffffffffffffffffffffffffffffffff166108fc8290811502906040515f60405180830381858888f19350505050158015611b4f573d5f5f3e3d5ffd5b505b505050565b60015f81905550565b60605f5f5f90505f600190505b6001548111611be35760016004811115611b8957611b88612684565b5b60025f8381526020019081526020015f20600a015f9054906101000a900460ff166004811115611bbc57611bbb612684565b5b03611bd0578180611bcc90612f05565b9250505b8080611bdb90612f05565b915050611b6c565b505f8167ffffffffffffffff811115611bff57611bfe612f4c565b5b604051908082528060200260200182016040528015611c3857816020015b611c2561236d565b815260200190600190039081611c1d5790505b5090505f5f90505f600190505b6001548111611ee05760016004811115611c6257611c61612684565b5b60025f8381526020019081526020015f20600a015f9054906101000a900460ff166004811115611c9557611c94612684565b5b03611ecd5760025f8281526020019081526020015f20604051806101600160405290815f8201548152602001600182016040518060600160405290815f82015f9054906101000a900473ffffffffffffffffffffffffffffffffffffffff1673ffffffffffffffffffffffffffffffffffffffff1673ffffffffffffffffffffffffffffffffffffffff1681526020015f820160149054906101000a900460ff1660ff1660ff16815260200160018201805480602002602001604051908101604052809291908181526020018280548015611d8d57602002820191905f5260205f20905b815481526020019060010190808311611d79575b5050505050815250508152602001600382015f9054906101000a900473ffffffffffffffffffffffffffffffffffffffff1673ffffffffffffffffffffffffffffffffffffffff1673ffffffffffffffffffffffffffffffffffffffff168152602001600482015481526020016005820154815260200160068201548152602001600782015481526020016008820154815260200160098201548152602001600a82015f9054906101000a900460ff166004811115611e4f57611e4e612684565b5b6004811115611e6157611e60612684565b5b8152602001600a820160019054906101000a900460ff166002811115611e8a57611e89612684565b5b6002811115611e9c57611e9b612684565b5b81525050838381518110611eb357611eb2612ed8565b5b60200260200101819052508180611ec990612f05565b9250505b8080611ed890612f05565b915050611c45565b508183945094505050509091565b5f5f60048360ff161115611f37576040517f08c379a0000000000000000000000000000000000000000000000000000000008152600401611f2e90613617565b60405180910390fd5b5f5f5f8560ff1603611f52576107d091506113889050611fba565b60018560ff1603611f6c576104b09150610fa09050611fb9565b60028560ff1603611f86576103e89150610dac9050611fb8565b60038560ff1603611fa05761032091506109c49050611fb7565b60048560ff1610611fb65761025891506105dc90505b5b5b5b5b8181935093505050915091565b8060025f835f015181526020019081526020015f205f820151815f01556020820151816001015f820151815f015f6101000a81548173ffffffffffffffffffffffffffffffffffffffff021916908373ffffffffffffffffffffffffffffffffffffffff1602179055506020820151815f0160146101000a81548160ff021916908360ff160217905550604082015181600101908051906020019061206d9291906123fd565b5050506040820151816003015f6101000a81548173ffffffffffffffffffffffffffffffffffffffff021916908373ffffffffffffffffffffffffffffffffffffffff160217905550606082015181600401556080820151816005015560a0820151816006015560c0820151816007015560e08201518160080155610100820151816009015561012082015181600a015f6101000a81548160ff0219169083600481111561211e5761211d612684565b5b021790555061014082015181600a0160016101000a81548160ff0219169083600281111561214f5761214e612684565b5b021790555090505060045f82602001515f015173ffffffffffffffffffffffffffffffffffffffff1673ffffffffffffffffffffffffffffffffffffffff1681526020019081526020015f20815f0151908060018154018082558091505060019003905f5260205f20015f909190919091505550565b5f5f5f60025f8581526020019081526020015f2090505f5f6121f783600a0160019054906101000a900460ff16611a16565b90505f620151806201517f8560080154426122129190612ea5565b61221c9190612e13565b6122269190613662565b90505f8460080154421161225157612247856005015486600401548561229b565b93505f905061228b565b846008015442111561228a575f612271866005015487600401548661229b565b905061228286600601548285612304565b945060019150505b5b8381965096505050505050915091565b5f5f61016d6064866122ad9190613662565b6122b79190613662565b90505f5f90505b838110156122f8576064826122d39190613662565b856122de9190612dd2565b856122e99190612e13565b945080806001019150506122be565b50839150509392505050565b5f5f61016d6064866123169190613662565b6123209190613662565b90505f5f90505b838110156123615760648261233c9190613662565b856123479190612dd2565b856123529190612e13565b94508080600101915050612327565b50839150509392505050565b6040518061016001604052805f8152602001612387612448565b81526020015f73ffffffffffffffffffffffffffffffffffffffff1681526020015f81526020015f81526020015f81526020015f81526020015f81526020015f81526020015f60048111156123df576123de612684565b5b81526020015f60028111156123f7576123f6612684565b5b81525090565b828054828255905f5260205f20908101928215612437579160200282015b8281111561243657825182559160200191906001019061241b565b5b5090506124449190612480565b5090565b60405180606001604052805f73ffffffffffffffffffffffffffffffffffffffff1681526020015f60ff168152602001606081525090565b5b80821115612497575f815f905550600101612481565b5090565b5f5ffd5b5f819050919050565b6124b18161249f565b81146124bb575f5ffd5b50565b5f813590506124cc816124a8565b92915050565b5f602082840312156124e7576124e661249b565b5b5f6124f4848285016124be565b91505092915050565b5f81519050919050565b5f82825260208201905092915050565b5f819050602082019050919050565b61252f8161249f565b82525050565b5f73ffffffffffffffffffffffffffffffffffffffff82169050919050565b5f61255e82612535565b9050919050565b61256e81612554565b82525050565b5f60ff82169050919050565b61258981612574565b82525050565b5f81519050919050565b5f82825260208201905092915050565b5f819050602082019050919050565b5f6125c38383612526565b60208301905092915050565b5f602082019050919050565b5f6125e58261258f565b6125ef8185612599565b93506125fa836125a9565b805f5b8381101561262a57815161261188826125b8565b975061261c836125cf565b9250506001810190506125fd565b5085935050505092915050565b5f606083015f83015161264c5f860182612565565b50602083015161265f6020860182612580565b506040830151848203604086015261267782826125db565b9150508091505092915050565b7f4e487b71000000000000000000000000000000000000000000000000000000005f52602160045260245ffd5b600581106126c2576126c1612684565b5b50565b5f8190506126d2826126b1565b919050565b5f6126e1826126c5565b9050919050565b6126f1816126d7565b82525050565b6003811061270857612707612684565b5b50565b5f819050612718826126f7565b919050565b5f6127278261270b565b9050919050565b6127378161271d565b82525050565b5f61016083015f8301516127535f860182612526565b506020830151848203602086015261276b8282612637565b91505060408301516127806040860182612565565b5060608301516127936060860182612526565b5060808301516127a66080860182612526565b5060a08301516127b960a0860182612526565b5060c08301516127cc60c0860182612526565b5060e08301516127df60e0860182612526565b506101008301516127f4610100860182612526565b506101208301516128096101208601826126e8565b5061014083015161281e61014086018261272e565b508091505092915050565b5f612834838361273d565b905092915050565b5f602082019050919050565b5f612852826124fd565b61285c8185612507565b93508360208202850161286e85612517565b805f5b858110156128a9578484038952815161288a8582612829565b94506128958361283c565b925060208a01995050600181019050612871565b50829750879550505050505092915050565b5f6020820190508181035f8301526128d38184612848565b905092915050565b600381106128e7575f5ffd5b50565b5f813590506128f8816128db565b92915050565b5f602082840312156129135761291261249b565b5b5f612920848285016128ea565b91505092915050565b5f5f6040838503121561293f5761293e61249b565b5b5f61294c858286016124be565b925050602061295d858286016128ea565b9150509250929050565b61297081612554565b811461297a575f5ffd5b50565b5f8135905061298b81612967565b92915050565b5f602082840312156129a6576129a561249b565b5b5f6129b38482850161297d565b91505092915050565b6129c581612554565b82525050565b6129d481612574565b82525050565b5f6040820190506129ed5f8301856129bc565b6129fa60208301846129cb565b9392505050565b612a0a8161249f565b82525050565b612a19816126d7565b82525050565b5f604082019050612a325f830185612a01565b612a3f6020830184612a10565b9392505050565b5f606083015f830151612a5b5f860182612565565b506020830151612a6e6020860182612580565b5060408301518482036040860152612a8682826125db565b9150508091505092915050565b612a9c8161271d565b82525050565b5f61016082019050612ab65f83018e612a01565b8181036020830152612ac8818d612a46565b9050612ad7604083018c6129bc565b612ae4606083018b612a01565b612af1608083018a612a01565b612afe60a0830189612a01565b612b0b60c0830188612a01565b612b1860e0830187612a01565b612b26610100830186612a01565b612b34610120830185612a10565b612b42610140830184612a93565b9c9b505050505050505050505050565b5f5f60408385031215612b6857612b6761249b565b5b5f612b758582860161297d565b9250506020612b86858286016124be565b9150509250929050565b5f602082019050612ba35f830184612a01565b92915050565b5f82825260208201905092915050565b7f4c6f616e206e6f7420666f756e640000000000000000000000000000000000005f82015250565b5f612bed600e83612ba9565b9150612bf882612bb9565b602082019050919050565b5f6020820190508181035f830152612c1a81612be1565b9050919050565b7f54686973206c6f616e20646f65736e2774206e6565642066756e64696e6700005f82015250565b5f612c55601e83612ba9565b9150612c6082612c21565b602082019050919050565b5f6020820190508181035f830152612c8281612c49565b9050919050565b7f54686520616d6f756e742073656e7420646f6573206e6f74206d6174636820745f8201527f686520726571756573746564206c6f616e20616d6f756e740000000000000000602082015250565b5f612ce3603883612ba9565b9150612cee82612c89565b604082019050919050565b5f6020820190508181035f830152612d1081612cd7565b9050919050565b7f4c656e64657220616e6420626f72726f7765722063616e6e6f742062652074685f8201527f652073616d650000000000000000000000000000000000000000000000000000602082015250565b5f612d71602683612ba9565b9150612d7c82612d17565b604082019050919050565b5f6020820190508181035f830152612d9e81612d65565b9050919050565b7f4e487b71000000000000000000000000000000000000000000000000000000005f52601160045260245ffd5b5f612ddc8261249f565b9150612de78361249f565b9250828202612df58161249f565b91508282048414831517612e0c57612e0b612da5565b5b5092915050565b5f612e1d8261249f565b9150612e288361249f565b9250828201905080821115612e4057612e3f612da5565b5b92915050565b5f60c082019050612e595f830189612a01565b612e6660208301886129bc565b612e7360408301876129bc565b612e806060830186612a01565b612e8d6080830185612a01565b612e9a60a0830184612a01565b979650505050505050565b5f612eaf8261249f565b9150612eba8361249f565b9250828203905081811115612ed257612ed1612da5565b5b92915050565b7f4e487b71000000000000000000000000000000000000000000000000000000005f52603260045260245ffd5b5f612f0f8261249f565b91507fffffffffffffffffffffffffffffffffffffffffffffffffffffffffffffffff8203612f4157612f40612da5565b5b600182019050919050565b7f4e487b71000000000000000000000000000000000000000000000000000000005f52604160045260245ffd5b7f546865206c6f616e20616d6f756e74206d7573742062652067726561746572205f8201527f7468616e207a65726f0000000000000000000000000000000000000000000000602082015250565b5f612fd3602983612ba9565b9150612fde82612f79565b604082019050919050565b5f6020820190508181035f83015261300081612fc7565b9050919050565b7f4c6f616e206c696d697420726561636865642c20706c656173652077616974205f8201527f666f722061206c6f616e20746f20636c6f73652e000000000000000000000000602082015250565b5f613061603483612ba9565b915061306c82613007565b604082019050919050565b5f6020820190508181035f83015261308e81613055565b9050919050565b7f596f752063616e6e6f7420726571756573742061206e6577206c6f616e2069665f8201527f20796f7520686176652070656e64696e672c206163746976652c206f72206f7660208201527f6572647565206c6f616e732e0000000000000000000000000000000000000000604082015250565b5f613115604c83612ba9565b915061312082613095565b606082019050919050565b5f6020820190508181035f83015261314281613109565b9050919050565b5f60608201905061315c5f830186612a01565b6131696020830185612a10565b6131766040830184612a93565b949350505050565b7f4f6e6c792074686520626f72726f7765722063616e20726570617920746869735f8201527f206c6f616e000000000000000000000000000000000000000000000000000000602082015250565b5f6131d8602583612ba9565b91506131e38261317e565b604082019050919050565b5f6020820190508181035f830152613205816131cc565b9050919050565b7f5468657265206973206e6f206c6f616e20746f207265706179000000000000005f82015250565b5f613240601983612ba9565b915061324b8261320c565b602082019050919050565b5f6020820190508181035f83015261326d81613234565b9050919050565b5f61327e82612574565b915061328983612574565b9250828201905060ff8111156132a2576132a1612da5565b5b92915050565b5f6132b282612574565b91506132bd83612574565b9250828203905060ff8111156132d6576132d5612da5565b5b92915050565b7f496e73756666696369656e742066756e647320746f20726570617920746865205f8201527f6f766572647565206c6f616e0000000000000000000000000000000000000000602082015250565b5f613336602c83612ba9565b9150613341826132dc565b604082019050919050565b5f6020820190508181035f8301526133638161332a565b9050919050565b5f60608201905061337d5f830186612a01565b61338a6020830185612a10565b6133976040830184612a01565b949350505050565b7f4f6e6c792074686520626f72726f7765722063616e2063616e63656c207468695f8201527f73206c6f616e0000000000000000000000000000000000000000000000000000602082015250565b5f6133f9602683612ba9565b91506134048261339f565b604082019050919050565b5f6020820190508181035f830152613426816133ed565b9050919050565b7f596f7520686176656e27742072656163686564206c6f616e20696d706f7274005f82015250565b5f613461601f83612ba9565b915061346c8261342d565b602082019050919050565b5f6020820190508181035f83015261348e81613455565b9050919050565b7f4e6f206c6f616e20746f2063616e63656c2e00000000000000000000000000005f82015250565b5f6134c9601283612ba9565b91506134d482613495565b602082019050919050565b5f6020820190508181035f8301526134f6816134bd565b9050919050565b7f5265656e7472616e637947756172643a207265656e7472616e742063616c6c005f82015250565b5f613531601f83612ba9565b915061353c826134fd565b602082019050919050565b5f6020820190508181035f83015261355e81613525565b9050919050565b7f496e76616c6964206c6f616e206475726174696f6e00000000000000000000005f82015250565b5f613599601583612ba9565b91506135a482613565565b602082019050919050565b5f6020820190508181035f8301526135c68161358d565b9050919050565b7f496e76616c6964206372656469742073636f72650000000000000000000000005f82015250565b5f613601601483612ba9565b915061360c826135cd565b602082019050919050565b5f6020820190508181035f83015261362e816135f5565b9050919050565b7f4e487b71000000000000000000000000000000000000000000000000000000005f52601260045260245ffd5b5f61366c8261249f565b91506136778361249f565b92508261368757613686613635565b5b82820490509291505056fea26469706673582212204db7fb05c598b6d670d1fb2b7e611c423d407212d8134e2ffb641c0a8a893e3764736f6c634300081c0033",
					"opcodes": "PUSH1 0x80 PUSH1 0x40 MSTORE CALLVALUE DUP1 ISZERO PUSH1 0xE JUMPI PUSH0 PUSH0 REVERT JUMPDEST POP PUSH1 0x1 PUSH0 DUP2 SWAP1 SSTORE POP PUSH2 0x36C8 DUP1 PUSH2 0x23 PUSH0 CODECOPY PUSH0 RETURN INVALID PUSH1 0x80 PUSH1 0x40 MSTORE PUSH1 0x4 CALLDATASIZE LT PUSH2 0x9B JUMPI PUSH0 CALLDATALOAD PUSH1 0xE0 SHR DUP1 PUSH4 0xAB7B1C89 GT PUSH2 0x63 JUMPI DUP1 PUSH4 0xAB7B1C89 EQ PUSH2 0x173 JUMPI DUP1 PUSH4 0xB96C5CDD EQ PUSH2 0x18F JUMPI DUP1 PUSH4 0xBDBFA3DE EQ PUSH2 0x1CC JUMPI DUP1 PUSH4 0xD46BD137 EQ PUSH2 0x1E8 JUMPI DUP1 PUSH4 0xE034F3DC EQ PUSH2 0x225 JUMPI DUP1 PUSH4 0xE3ED1902 EQ PUSH2 0x26B JUMPI PUSH2 0x9B JUMP JUMPDEST DUP1 PUSH4 0x15E303F3 EQ PUSH2 0x9F JUMPI DUP1 PUSH4 0x1A26E0B7 EQ PUSH2 0xBB JUMPI DUP1 PUSH4 0x3DDCE5A0 EQ PUSH2 0xE5 JUMPI DUP1 PUSH4 0x6BE35C6C EQ PUSH2 0x10F JUMPI DUP1 PUSH4 0x8F2C3655 EQ PUSH2 0x14B JUMPI JUMPDEST PUSH0 PUSH0 REVERT JUMPDEST PUSH2 0xB9 PUSH1 0x4 DUP1 CALLDATASIZE SUB DUP2 ADD SWAP1 PUSH2 0xB4 SWAP2 SWAP1 PUSH2 0x24D2 JUMP JUMPDEST PUSH2 0x2A7 JUMP JUMPDEST STOP JUMPDEST CALLVALUE DUP1 ISZERO PUSH2 0xC6 JUMPI PUSH0 PUSH0 REVERT JUMPDEST POP PUSH2 0xCF PUSH2 0x5E1 JUMP JUMPDEST PUSH1 0x40 MLOAD PUSH2 0xDC SWAP2 SWAP1 PUSH2 0x28BB JUMP JUMPDEST PUSH1 0x40 MLOAD DUP1 SWAP2 SUB SWAP1 RETURN JUMPDEST CALLVALUE DUP1 ISZERO PUSH2 0xF0 JUMPI PUSH0 PUSH0 REVERT JUMPDEST POP PUSH2 0xF9 PUSH2 0x726 JUMP JUMPDEST PUSH1 0x40 MLOAD PUSH2 0x106 SWAP2 SWAP1 PUSH2 0x28BB JUMP JUMPDEST PUSH1 0x40 MLOAD DUP1 SWAP2 SUB SWAP1 RETURN JUMPDEST CALLVALUE DUP1 ISZERO PUSH2 0x11A JUMPI PUSH0 PUSH0 REVERT JUMPDEST POP PUSH2 0x135 PUSH1 0x4 DUP1 CALLDATASIZE SUB DUP2 ADD SWAP1 PUSH2 0x130 SWAP2 SWAP1 PUSH2 0x28FE JUMP JUMPDEST PUSH2 0x86B JUMP JUMPDEST PUSH1 0x40 MLOAD PUSH2 0x142 SWAP2 SWAP1 PUSH2 0x28BB JUMP JUMPDEST PUSH1 0x40 MLOAD DUP1 SWAP2 SUB SWAP1 RETURN JUMPDEST CALLVALUE DUP1 ISZERO PUSH2 0x156 JUMPI PUSH0 PUSH0 REVERT JUMPDEST POP PUSH2 0x171 PUSH1 0x4 DUP1 CALLDATASIZE SUB DUP2 ADD SWAP1 PUSH2 0x16C SWAP2 SWAP1 PUSH2 0x2929 JUMP JUMPDEST PUSH2 0xA08 JUMP JUMPDEST STOP JUMPDEST PUSH2 0x18D PUSH1 0x4 DUP1 CALLDATASIZE SUB DUP2 ADD SWAP1 PUSH2 0x188 SWAP2 SWAP1 PUSH2 0x24D2 JUMP JUMPDEST PUSH2 0x1055 JUMP JUMPDEST STOP JUMPDEST CALLVALUE DUP1 ISZERO PUSH2 0x19A JUMPI PUSH0 PUSH0 REVERT JUMPDEST POP PUSH2 0x1B5 PUSH1 0x4 DUP1 CALLDATASIZE SUB DUP2 ADD SWAP1 PUSH2 0x1B0 SWAP2 SWAP1 PUSH2 0x2991 JUMP JUMPDEST PUSH2 0x146B JUMP JUMPDEST PUSH1 0x40 MLOAD PUSH2 0x1C3 SWAP3 SWAP2 SWAP1 PUSH2 0x29DA JUMP JUMPDEST PUSH1 0x40 MLOAD DUP1 SWAP2 SUB SWAP1 RETURN JUMPDEST PUSH2 0x1E6 PUSH1 0x4 DUP1 CALLDATASIZE SUB DUP2 ADD SWAP1 PUSH2 0x1E1 SWAP2 SWAP1 PUSH2 0x24D2 JUMP JUMPDEST PUSH2 0x14B6 JUMP JUMPDEST STOP JUMPDEST CALLVALUE DUP1 ISZERO PUSH2 0x1F3 JUMPI PUSH0 PUSH0 REVERT JUMPDEST POP PUSH2 0x20E PUSH1 0x4 DUP1 CALLDATASIZE SUB DUP2 ADD SWAP1 PUSH2 0x209 SWAP2 SWAP1 PUSH2 0x24D2 JUMP JUMPDEST PUSH2 0x17FC JUMP JUMPDEST PUSH1 0x40 MLOAD PUSH2 0x21C SWAP3 SWAP2 SWAP1 PUSH2 0x2A1F JUMP JUMPDEST PUSH1 0x40 MLOAD DUP1 SWAP2 SUB SWAP1 RETURN JUMPDEST CALLVALUE DUP1 ISZERO PUSH2 0x230 JUMPI PUSH0 PUSH0 REVERT JUMPDEST POP PUSH2 0x24B PUSH1 0x4 DUP1 CALLDATASIZE SUB DUP2 ADD SWAP1 PUSH2 0x246 SWAP2 SWAP1 PUSH2 0x24D2 JUMP JUMPDEST PUSH2 0x1840 JUMP JUMPDEST PUSH1 0x40 MLOAD PUSH2 0x262 SWAP12 SWAP11 SWAP10 SWAP9 SWAP8 SWAP7 SWAP6 SWAP5 SWAP4 SWAP3 SWAP2 SWAP1 PUSH2 0x2AA2 JUMP JUMPDEST PUSH1 0x40 MLOAD DUP1 SWAP2 SUB SWAP1 RETURN JUMPDEST CALLVALUE DUP1 ISZERO PUSH2 0x276 JUMPI PUSH0 PUSH0 REVERT JUMPDEST POP PUSH2 0x291 PUSH1 0x4 DUP1 CALLDATASIZE SUB DUP2 ADD SWAP1 PUSH2 0x28C SWAP2 SWAP1 PUSH2 0x2B52 JUMP JUMPDEST PUSH2 0x199E JUMP JUMPDEST PUSH1 0x40 MLOAD PUSH2 0x29E SWAP2 SWAP1 PUSH2 0x2B90 JUMP JUMPDEST PUSH1 0x40 MLOAD DUP1 SWAP2 SUB SWAP1 RETURN JUMPDEST PUSH2 0x2AF PUSH2 0x19C9 JUMP JUMPDEST PUSH0 PUSH1 0x2 PUSH0 DUP4 DUP2 MSTORE PUSH1 0x20 ADD SWAP1 DUP2 MSTORE PUSH1 0x20 ADD PUSH0 KECCAK256 SWAP1 POP PUSH0 DUP2 PUSH1 0x1 ADD PUSH0 ADD PUSH0 SWAP1 SLOAD SWAP1 PUSH2 0x100 EXP SWAP1 DIV PUSH20 0xFFFFFFFFFFFFFFFFFFFFFFFFFFFFFFFFFFFFFFFF AND SWAP1 POP DUP3 DUP3 PUSH0 ADD SLOAD EQ PUSH2 0x331 JUMPI PUSH1 0x40 MLOAD PUSH32 0x8C379A000000000000000000000000000000000000000000000000000000000 DUP2 MSTORE PUSH1 0x4 ADD PUSH2 0x328 SWAP1 PUSH2 0x2C03 JUMP JUMPDEST PUSH1 0x40 MLOAD DUP1 SWAP2 SUB SWAP1 REVERT JUMPDEST PUSH1 0x1 PUSH1 0x4 DUP2 GT ISZERO PUSH2 0x345 JUMPI PUSH2 0x344 PUSH2 0x2684 JUMP JUMPDEST JUMPDEST DUP3 PUSH1 0xA ADD PUSH0 SWAP1 SLOAD SWAP1 PUSH2 0x100 EXP SWAP1 DIV PUSH1 0xFF AND PUSH1 0x4 DUP2 GT ISZERO PUSH2 0x368 JUMPI PUSH2 0x367 PUSH2 0x2684 JUMP JUMPDEST JUMPDEST EQ PUSH2 0x3A8 JUMPI PUSH1 0x40 MLOAD PUSH32 0x8C379A000000000000000000000000000000000000000000000000000000000 DUP2 MSTORE PUSH1 0x4 ADD PUSH2 0x39F SWAP1 PUSH2 0x2C6B JUMP JUMPDEST PUSH1 0x40 MLOAD DUP1 SWAP2 SUB SWAP1 REVERT JUMPDEST DUP2 PUSH1 0x4 ADD SLOAD CALLVALUE LT ISZERO PUSH2 0x3EF JUMPI PUSH1 0x40 MLOAD PUSH32 0x8C379A000000000000000000000000000000000000000000000000000000000 DUP2 MSTORE PUSH1 0x4 ADD PUSH2 0x3E6 SWAP1 PUSH2 0x2CF9 JUMP JUMPDEST PUSH1 0x40 MLOAD DUP1 SWAP2 SUB SWAP1 REVERT JUMPDEST CALLER PUSH20 0xFFFFFFFFFFFFFFFFFFFFFFFFFFFFFFFFFFFFFFFF AND DUP2 PUSH20 0xFFFFFFFFFFFFFFFFFFFFFFFFFFFFFFFFFFFFFFFF AND SUB PUSH2 0x45D JUMPI PUSH1 0x40 MLOAD PUSH32 0x8C379A000000000000000000000000000000000000000000000000000000000 DUP2 MSTORE PUSH1 0x4 ADD PUSH2 0x454 SWAP1 PUSH2 0x2D87 JUMP JUMPDEST PUSH1 0x40 MLOAD DUP1 SWAP2 SUB SWAP1 REVERT JUMPDEST PUSH0 PUSH2 0x478 DUP4 PUSH1 0xA ADD PUSH1 0x1 SWAP1 SLOAD SWAP1 PUSH2 0x100 EXP SWAP1 DIV PUSH1 0xFF AND PUSH2 0x1A16 JUMP JUMPDEST SWAP1 POP CALLER DUP4 PUSH1 0x3 ADD PUSH0 PUSH2 0x100 EXP DUP2 SLOAD DUP2 PUSH20 0xFFFFFFFFFFFFFFFFFFFFFFFFFFFFFFFFFFFFFFFF MUL NOT AND SWAP1 DUP4 PUSH20 0xFFFFFFFFFFFFFFFFFFFFFFFFFFFFFFFFFFFFFFFF AND MUL OR SWAP1 SSTORE POP TIMESTAMP DUP4 PUSH1 0x7 ADD DUP2 SWAP1 SSTORE POP PUSH3 0x15180 DUP2 PUSH2 0x4D4 SWAP2 SWAP1 PUSH2 0x2DD2 JUMP JUMPDEST TIMESTAMP PUSH2 0x4DF SWAP2 SWAP1 PUSH2 0x2E13 JUMP JUMPDEST DUP4 PUSH1 0x8 ADD DUP2 SWAP1 SSTORE POP PUSH0 DUP4 PUSH1 0xA ADD PUSH0 PUSH2 0x100 EXP DUP2 SLOAD DUP2 PUSH1 0xFF MUL NOT AND SWAP1 DUP4 PUSH1 0x4 DUP2 GT ISZERO PUSH2 0x50D JUMPI PUSH2 0x50C PUSH2 0x2684 JUMP JUMPDEST JUMPDEST MUL OR SWAP1 SSTORE POP DUP2 PUSH20 0xFFFFFFFFFFFFFFFFFFFFFFFFFFFFFFFFFFFFFFFF AND PUSH2 0x8FC CALLVALUE SWAP1 DUP2 ISZERO MUL SWAP1 PUSH1 0x40 MLOAD PUSH0 PUSH1 0x40 MLOAD DUP1 DUP4 SUB DUP2 DUP6 DUP9 DUP9 CALL SWAP4 POP POP POP POP ISZERO DUP1 ISZERO PUSH2 0x555 JUMPI RETURNDATASIZE PUSH0 PUSH0 RETURNDATACOPY RETURNDATASIZE PUSH0 REVERT JUMPDEST POP PUSH2 0x587 DUP4 PUSH1 0x4 ADD SLOAD DUP5 PUSH1 0x3 ADD PUSH0 SWAP1 SLOAD SWAP1 PUSH2 0x100 EXP SWAP1 DIV PUSH20 0xFFFFFFFFFFFFFFFFFFFFFFFFFFFFFFFFFFFFFFFF AND PUSH2 0x1AF5 JUMP JUMPDEST PUSH32 0x8AA0DA3F068A2CB6C8967AE3DCBA3C1E23F4035D737FD9CB63FB331E85176051 DUP4 PUSH0 ADD SLOAD CALLER DUP5 CALLVALUE DUP8 PUSH1 0x7 ADD SLOAD DUP9 PUSH1 0x8 ADD SLOAD PUSH1 0x40 MLOAD PUSH2 0x5CB SWAP7 SWAP6 SWAP5 SWAP4 SWAP3 SWAP2 SWAP1 PUSH2 0x2E46 JUMP JUMPDEST PUSH1 0x40 MLOAD DUP1 SWAP2 SUB SWAP1 LOG1 POP POP POP PUSH2 0x5DE PUSH2 0x1B56 JUMP JUMPDEST POP JUMP JUMPDEST PUSH1 0x60 PUSH0 PUSH0 PUSH2 0x5ED PUSH2 0x1B5F JUMP JUMPDEST SWAP2 POP SWAP2 POP PUSH0 PUSH0 SWAP1 POP JUMPDEST DUP2 DUP2 LT ISZERO PUSH2 0x71D JUMPI PUSH0 PUSH0 SWAP1 POP JUMPDEST DUP2 PUSH1 0x1 DUP5 PUSH2 0x611 SWAP2 SWAP1 PUSH2 0x2EA5 JUMP JUMPDEST PUSH2 0x61B SWAP2 SWAP1 PUSH2 0x2EA5 JUMP JUMPDEST DUP2 LT ISZERO PUSH2 0x70F JUMPI DUP4 PUSH1 0x1 DUP3 PUSH2 0x630 SWAP2 SWAP1 PUSH2 0x2E13 JUMP JUMPDEST DUP2 MLOAD DUP2 LT PUSH2 0x641 JUMPI PUSH2 0x640 PUSH2 0x2ED8 JUMP JUMPDEST JUMPDEST PUSH1 0x20 MUL PUSH1 0x20 ADD ADD MLOAD PUSH1 0x80 ADD MLOAD DUP5 DUP3 DUP2 MLOAD DUP2 LT PUSH2 0x660 JUMPI PUSH2 0x65F PUSH2 0x2ED8 JUMP JUMPDEST JUMPDEST PUSH1 0x20 MUL PUSH1 0x20 ADD ADD MLOAD PUSH1 0x80 ADD MLOAD GT ISZERO PUSH2 0x702 JUMPI PUSH0 DUP5 DUP3 DUP2 MLOAD DUP2 LT PUSH2 0x686 JUMPI PUSH2 0x685 PUSH2 0x2ED8 JUMP JUMPDEST JUMPDEST PUSH1 0x20 MUL PUSH1 0x20 ADD ADD MLOAD SWAP1 POP DUP5 PUSH1 0x1 DUP4 PUSH2 0x69E SWAP2 SWAP1 PUSH2 0x2E13 JUMP JUMPDEST DUP2 MLOAD DUP2 LT PUSH2 0x6AF JUMPI PUSH2 0x6AE PUSH2 0x2ED8 JUMP JUMPDEST JUMPDEST PUSH1 0x20 MUL PUSH1 0x20 ADD ADD MLOAD DUP6 DUP4 DUP2 MLOAD DUP2 LT PUSH2 0x6CA JUMPI PUSH2 0x6C9 PUSH2 0x2ED8 JUMP JUMPDEST JUMPDEST PUSH1 0x20 MUL PUSH1 0x20 ADD ADD DUP2 SWAP1 MSTORE POP DUP1 DUP6 PUSH1 0x1 DUP5 PUSH2 0x6E4 SWAP2 SWAP1 PUSH2 0x2E13 JUMP JUMPDEST DUP2 MLOAD DUP2 LT PUSH2 0x6F5 JUMPI PUSH2 0x6F4 PUSH2 0x2ED8 JUMP JUMPDEST JUMPDEST PUSH1 0x20 MUL PUSH1 0x20 ADD ADD DUP2 SWAP1 MSTORE POP POP JUMPDEST DUP1 DUP1 PUSH1 0x1 ADD SWAP2 POP POP PUSH2 0x603 JUMP JUMPDEST POP DUP1 DUP1 PUSH1 0x1 ADD SWAP2 POP POP PUSH2 0x5F6 JUMP JUMPDEST POP DUP2 SWAP3 POP POP POP SWAP1 JUMP JUMPDEST PUSH1 0x60 PUSH0 PUSH0 PUSH2 0x732 PUSH2 0x1B5F JUMP JUMPDEST SWAP2 POP SWAP2 POP PUSH0 PUSH0 SWAP1 POP JUMPDEST DUP2 DUP2 LT ISZERO PUSH2 0x862 JUMPI PUSH0 PUSH0 SWAP1 POP JUMPDEST DUP2 PUSH1 0x1 DUP5 PUSH2 0x756 SWAP2 SWAP1 PUSH2 0x2EA5 JUMP JUMPDEST PUSH2 0x760 SWAP2 SWAP1 PUSH2 0x2EA5 JUMP JUMPDEST DUP2 LT ISZERO PUSH2 0x854 JUMPI DUP4 PUSH1 0x1 DUP3 PUSH2 0x775 SWAP2 SWAP1 PUSH2 0x2E13 JUMP JUMPDEST DUP2 MLOAD DUP2 LT PUSH2 0x786 JUMPI PUSH2 0x785 PUSH2 0x2ED8 JUMP JUMPDEST JUMPDEST PUSH1 0x20 MUL PUSH1 0x20 ADD ADD MLOAD PUSH1 0x60 ADD MLOAD DUP5 DUP3 DUP2 MLOAD DUP2 LT PUSH2 0x7A5 JUMPI PUSH2 0x7A4 PUSH2 0x2ED8 JUMP JUMPDEST JUMPDEST PUSH1 0x20 MUL PUSH1 0x20 ADD ADD MLOAD PUSH1 0x60 ADD MLOAD GT ISZERO PUSH2 0x847 JUMPI PUSH0 DUP5 DUP3 DUP2 MLOAD DUP2 LT PUSH2 0x7CB JUMPI PUSH2 0x7CA PUSH2 0x2ED8 JUMP JUMPDEST JUMPDEST PUSH1 0x20 MUL PUSH1 0x20 ADD ADD MLOAD SWAP1 POP DUP5 PUSH1 0x1 DUP4 PUSH2 0x7E3 SWAP2 SWAP1 PUSH2 0x2E13 JUMP JUMPDEST DUP2 MLOAD DUP2 LT PUSH2 0x7F4 JUMPI PUSH2 0x7F3 PUSH2 0x2ED8 JUMP JUMPDEST JUMPDEST PUSH1 0x20 MUL PUSH1 0x20 ADD ADD MLOAD DUP6 DUP4 DUP2 MLOAD DUP2 LT PUSH2 0x80F JUMPI PUSH2 0x80E PUSH2 0x2ED8 JUMP JUMPDEST JUMPDEST PUSH1 0x20 MUL PUSH1 0x20 ADD ADD DUP2 SWAP1 MSTORE POP DUP1 DUP6 PUSH1 0x1 DUP5 PUSH2 0x829 SWAP2 SWAP1 PUSH2 0x2E13 JUMP JUMPDEST DUP2 MLOAD DUP2 LT PUSH2 0x83A JUMPI PUSH2 0x839 PUSH2 0x2ED8 JUMP JUMPDEST JUMPDEST PUSH1 0x20 MUL PUSH1 0x20 ADD ADD DUP2 SWAP1 MSTORE POP POP JUMPDEST DUP1 DUP1 PUSH1 0x1 ADD SWAP2 POP POP PUSH2 0x748 JUMP JUMPDEST POP DUP1 DUP1 PUSH1 0x1 ADD SWAP2 POP POP PUSH2 0x73B JUMP JUMPDEST POP DUP2 SWAP3 POP POP POP SWAP1 JUMP JUMPDEST PUSH1 0x60 PUSH0 PUSH0 PUSH2 0x877 PUSH2 0x1B5F JUMP JUMPDEST SWAP2 POP SWAP2 POP PUSH0 PUSH0 SWAP1 POP PUSH0 PUSH0 SWAP1 POP JUMPDEST DUP3 DUP2 LT ISZERO PUSH2 0x8F2 JUMPI DUP6 PUSH1 0x2 DUP2 GT ISZERO PUSH2 0x89F JUMPI PUSH2 0x89E PUSH2 0x2684 JUMP JUMPDEST JUMPDEST DUP5 DUP3 DUP2 MLOAD DUP2 LT PUSH2 0x8B2 JUMPI PUSH2 0x8B1 PUSH2 0x2ED8 JUMP JUMPDEST JUMPDEST PUSH1 0x20 MUL PUSH1 0x20 ADD ADD MLOAD PUSH2 0x140 ADD MLOAD PUSH1 0x2 DUP2 GT ISZERO PUSH2 0x8D1 JUMPI PUSH2 0x8D0 PUSH2 0x2684 JUMP JUMPDEST JUMPDEST SUB PUSH2 0x8E5 JUMPI DUP2 DUP1 PUSH2 0x8E1 SWAP1 PUSH2 0x2F05 JUMP JUMPDEST SWAP3 POP POP JUMPDEST DUP1 DUP1 PUSH1 0x1 ADD SWAP2 POP POP PUSH2 0x884 JUMP JUMPDEST POP PUSH0 DUP2 PUSH8 0xFFFFFFFFFFFFFFFF DUP2 GT ISZERO PUSH2 0x90E JUMPI PUSH2 0x90D PUSH2 0x2F4C JUMP JUMPDEST JUMPDEST PUSH1 0x40 MLOAD SWAP1 DUP1 DUP3 MSTORE DUP1 PUSH1 0x20 MUL PUSH1 0x20 ADD DUP3 ADD PUSH1 0x40 MSTORE DUP1 ISZERO PUSH2 0x947 JUMPI DUP2 PUSH1 0x20 ADD JUMPDEST PUSH2 0x934 PUSH2 0x236D JUMP JUMPDEST DUP2 MSTORE PUSH1 0x20 ADD SWAP1 PUSH1 0x1 SWAP1 SUB SWAP1 DUP2 PUSH2 0x92C JUMPI SWAP1 POP JUMPDEST POP SWAP1 POP PUSH0 PUSH0 SWAP1 POP PUSH0 PUSH0 SWAP1 POP JUMPDEST DUP5 DUP2 LT ISZERO PUSH2 0x9FA JUMPI DUP8 PUSH1 0x2 DUP2 GT ISZERO PUSH2 0x96E JUMPI PUSH2 0x96D PUSH2 0x2684 JUMP JUMPDEST JUMPDEST DUP7 DUP3 DUP2 MLOAD DUP2 LT PUSH2 0x981 JUMPI PUSH2 0x980 PUSH2 0x2ED8 JUMP JUMPDEST JUMPDEST PUSH1 0x20 MUL PUSH1 0x20 ADD ADD MLOAD PUSH2 0x140 ADD MLOAD PUSH1 0x2 DUP2 GT ISZERO PUSH2 0x9A0 JUMPI PUSH2 0x99F PUSH2 0x2684 JUMP JUMPDEST JUMPDEST SUB PUSH2 0x9ED JUMPI DUP6 DUP2 DUP2 MLOAD DUP2 LT PUSH2 0x9B8 JUMPI PUSH2 0x9B7 PUSH2 0x2ED8 JUMP JUMPDEST JUMPDEST PUSH1 0x20 MUL PUSH1 0x20 ADD ADD MLOAD DUP4 DUP4 DUP2 MLOAD DUP2 LT PUSH2 0x9D3 JUMPI PUSH2 0x9D2 PUSH2 0x2ED8 JUMP JUMPDEST JUMPDEST PUSH1 0x20 MUL PUSH1 0x20 ADD ADD DUP2 SWAP1 MSTORE POP DUP2 DUP1 PUSH2 0x9E9 SWAP1 PUSH2 0x2F05 JUMP JUMPDEST SWAP3 POP POP JUMPDEST DUP1 DUP1 PUSH1 0x1 ADD SWAP2 POP POP PUSH2 0x953 JUMP JUMPDEST POP DUP2 SWAP6 POP POP POP POP POP POP SWAP2 SWAP1 POP JUMP JUMPDEST PUSH0 DUP3 GT PUSH2 0xA4A JUMPI PUSH1 0x40 MLOAD PUSH32 0x8C379A000000000000000000000000000000000000000000000000000000000 DUP2 MSTORE PUSH1 0x4 ADD PUSH2 0xA41 SWAP1 PUSH2 0x2FE9 JUMP JUMPDEST PUSH1 0x40 MLOAD DUP1 SWAP2 SUB SWAP1 REVERT JUMPDEST PUSH0 PUSH2 0xA53 PUSH2 0x1B5F JUMP JUMPDEST SWAP2 POP POP PUSH2 0x1F4 DUP2 GT ISZERO PUSH2 0xA9B JUMPI PUSH1 0x40 MLOAD PUSH32 0x8C379A000000000000000000000000000000000000000000000000000000000 DUP2 MSTORE PUSH1 0x4 ADD PUSH2 0xA92 SWAP1 PUSH2 0x3077 JUMP JUMPDEST PUSH1 0x40 MLOAD DUP1 SWAP2 SUB SWAP1 REVERT JUMPDEST PUSH0 PUSH1 0x4 PUSH0 CALLER PUSH20 0xFFFFFFFFFFFFFFFFFFFFFFFFFFFFFFFFFFFFFFFF AND PUSH20 0xFFFFFFFFFFFFFFFFFFFFFFFFFFFFFFFFFFFFFFFF AND DUP2 MSTORE PUSH1 0x20 ADD SWAP1 DUP2 MSTORE PUSH1 0x20 ADD PUSH0 KECCAK256 DUP1 SLOAD DUP1 PUSH1 0x20 MUL PUSH1 0x20 ADD PUSH1 0x40 MLOAD SWAP1 DUP2 ADD PUSH1 0x40 MSTORE DUP1 SWAP3 SWAP2 SWAP1 DUP2 DUP2 MSTORE PUSH1 0x20 ADD DUP3 DUP1 SLOAD DUP1 ISZERO PUSH2 0xB21 JUMPI PUSH1 0x20 MUL DUP3 ADD SWAP2 SWAP1 PUSH0 MSTORE PUSH1 0x20 PUSH0 KECCAK256 SWAP1 JUMPDEST DUP2 SLOAD DUP2 MSTORE PUSH1 0x20 ADD SWAP1 PUSH1 0x1 ADD SWAP1 DUP1 DUP4 GT PUSH2 0xB0D JUMPI JUMPDEST POP POP POP POP POP SWAP1 POP PUSH0 PUSH0 SWAP1 POP JUMPDEST DUP2 MLOAD DUP2 LT ISZERO PUSH2 0xDD8 JUMPI PUSH0 DUP3 DUP3 DUP2 MLOAD DUP2 LT PUSH2 0xB4A JUMPI PUSH2 0xB49 PUSH2 0x2ED8 JUMP JUMPDEST JUMPDEST PUSH1 0x20 MUL PUSH1 0x20 ADD ADD MLOAD SWAP1 POP PUSH0 PUSH1 0x2 PUSH0 DUP4 DUP2 MSTORE PUSH1 0x20 ADD SWAP1 DUP2 MSTORE PUSH1 0x20 ADD PUSH0 KECCAK256 PUSH1 0x40 MLOAD DUP1 PUSH2 0x160 ADD PUSH1 0x40 MSTORE SWAP1 DUP2 PUSH0 DUP3 ADD SLOAD DUP2 MSTORE PUSH1 0x20 ADD PUSH1 0x1 DUP3 ADD PUSH1 0x40 MLOAD DUP1 PUSH1 0x60 ADD PUSH1 0x40 MSTORE SWAP1 DUP2 PUSH0 DUP3 ADD PUSH0 SWAP1 SLOAD SWAP1 PUSH2 0x100 EXP SWAP1 DIV PUSH20 0xFFFFFFFFFFFFFFFFFFFFFFFFFFFFFFFFFFFFFFFF AND PUSH20 0xFFFFFFFFFFFFFFFFFFFFFFFFFFFFFFFFFFFFFFFF AND PUSH20 0xFFFFFFFFFFFFFFFFFFFFFFFFFFFFFFFFFFFFFFFF AND DUP2 MSTORE PUSH1 0x20 ADD PUSH0 DUP3 ADD PUSH1 0x14 SWAP1 SLOAD SWAP1 PUSH2 0x100 EXP SWAP1 DIV PUSH1 0xFF AND PUSH1 0xFF AND PUSH1 0xFF AND DUP2 MSTORE PUSH1 0x20 ADD PUSH1 0x1 DUP3 ADD DUP1 SLOAD DUP1 PUSH1 0x20 MUL PUSH1 0x20 ADD PUSH1 0x40 MLOAD SWAP1 DUP2 ADD PUSH1 0x40 MSTORE DUP1 SWAP3 SWAP2 SWAP1 DUP2 DUP2 MSTORE PUSH1 0x20 ADD DUP3 DUP1 SLOAD DUP1 ISZERO PUSH2 0xC48 JUMPI PUSH1 0x20 MUL DUP3 ADD SWAP2 SWAP1 PUSH0 MSTORE PUSH1 0x20 PUSH0 KECCAK256 SWAP1 JUMPDEST DUP2 SLOAD DUP2 MSTORE PUSH1 0x20 ADD SWAP1 PUSH1 0x1 ADD SWAP1 DUP1 DUP4 GT PUSH2 0xC34 JUMPI JUMPDEST POP POP POP POP POP DUP2 MSTORE POP POP DUP2 MSTORE PUSH1 0x20 ADD PUSH1 0x3 DUP3 ADD PUSH0 SWAP1 SLOAD SWAP1 PUSH2 0x100 EXP SWAP1 DIV PUSH20 0xFFFFFFFFFFFFFFFFFFFFFFFFFFFFFFFFFFFFFFFF AND PUSH20 0xFFFFFFFFFFFFFFFFFFFFFFFFFFFFFFFFFFFFFFFF AND PUSH20 0xFFFFFFFFFFFFFFFFFFFFFFFFFFFFFFFFFFFFFFFF AND DUP2 MSTORE PUSH1 0x20 ADD PUSH1 0x4 DUP3 ADD SLOAD DUP2 MSTORE PUSH1 0x20 ADD PUSH1 0x5 DUP3 ADD SLOAD DUP2 MSTORE PUSH1 0x20 ADD PUSH1 0x6 DUP3 ADD SLOAD DUP2 MSTORE PUSH1 0x20 ADD PUSH1 0x7 DUP3 ADD SLOAD DUP2 MSTORE PUSH1 0x20 ADD PUSH1 0x8 DUP3 ADD SLOAD DUP2 MSTORE PUSH1 0x20 ADD PUSH1 0x9 DUP3 ADD SLOAD DUP2 MSTORE PUSH1 0x20 ADD PUSH1 0xA DUP3 ADD PUSH0 SWAP1 SLOAD SWAP1 PUSH2 0x100 EXP SWAP1 DIV PUSH1 0xFF AND PUSH1 0x4 DUP2 GT ISZERO PUSH2 0xD0A JUMPI PUSH2 0xD09 PUSH2 0x2684 JUMP JUMPDEST JUMPDEST PUSH1 0x4 DUP2 GT ISZERO PUSH2 0xD1C JUMPI PUSH2 0xD1B PUSH2 0x2684 JUMP JUMPDEST JUMPDEST DUP2 MSTORE PUSH1 0x20 ADD PUSH1 0xA DUP3 ADD PUSH1 0x1 SWAP1 SLOAD SWAP1 PUSH2 0x100 EXP SWAP1 DIV PUSH1 0xFF AND PUSH1 0x2 DUP2 GT ISZERO PUSH2 0xD45 JUMPI PUSH2 0xD44 PUSH2 0x2684 JUMP JUMPDEST JUMPDEST PUSH1 0x2 DUP2 GT ISZERO PUSH2 0xD57 JUMPI PUSH2 0xD56 PUSH2 0x2684 JUMP JUMPDEST JUMPDEST DUP2 MSTORE POP POP SWAP1 POP PUSH1 0x2 PUSH1 0x4 DUP2 GT ISZERO PUSH2 0xD71 JUMPI PUSH2 0xD70 PUSH2 0x2684 JUMP JUMPDEST JUMPDEST DUP2 PUSH2 0x120 ADD MLOAD PUSH1 0x4 DUP2 GT ISZERO PUSH2 0xD89 JUMPI PUSH2 0xD88 PUSH2 0x2684 JUMP JUMPDEST JUMPDEST EQ PUSH2 0xDC9 JUMPI PUSH1 0x40 MLOAD PUSH32 0x8C379A000000000000000000000000000000000000000000000000000000000 DUP2 MSTORE PUSH1 0x4 ADD PUSH2 0xDC0 SWAP1 PUSH2 0x312B JUMP JUMPDEST PUSH1 0x40 MLOAD DUP1 SWAP2 SUB SWAP1 REVERT JUMPDEST POP POP DUP1 DUP1 PUSH1 0x1 ADD SWAP2 POP POP PUSH2 0xB2D JUMP JUMPDEST POP PUSH1 0x1 PUSH0 DUP2 SLOAD DUP1 SWAP3 SWAP2 SWAP1 PUSH2 0xDEB SWAP1 PUSH2 0x2F05 JUMP JUMPDEST SWAP2 SWAP1 POP SSTORE POP PUSH0 PUSH1 0x4 PUSH0 CALLER PUSH20 0xFFFFFFFFFFFFFFFFFFFFFFFFFFFFFFFFFFFFFFFF AND PUSH20 0xFFFFFFFFFFFFFFFFFFFFFFFFFFFFFFFFFFFFFFFF AND DUP2 MSTORE PUSH1 0x20 ADD SWAP1 DUP2 MSTORE PUSH1 0x20 ADD PUSH0 KECCAK256 DUP1 SLOAD SWAP1 POP SWAP1 POP PUSH0 PUSH0 DUP3 EQ PUSH2 0xE8E JUMPI PUSH1 0x3 PUSH0 CALLER PUSH20 0xFFFFFFFFFFFFFFFFFFFFFFFFFFFFFFFFFFFFFFFF AND PUSH20 0xFFFFFFFFFFFFFFFFFFFFFFFFFFFFFFFFFFFFFFFF AND DUP2 MSTORE PUSH1 0x20 ADD SWAP1 DUP2 MSTORE PUSH1 0x20 ADD PUSH0 KECCAK256 PUSH0 ADD PUSH1 0x14 SWAP1 SLOAD SWAP1 PUSH2 0x100 EXP SWAP1 DIV PUSH1 0xFF AND PUSH2 0xE91 JUMP JUMPDEST PUSH1 0x1 JUMPDEST SWAP1 POP PUSH0 PUSH0 PUSH2 0xE9E DUP4 PUSH2 0x1EEE JUMP JUMPDEST SWAP2 POP SWAP2 POP PUSH0 PUSH1 0x40 MLOAD DUP1 PUSH2 0x160 ADD PUSH1 0x40 MSTORE DUP1 PUSH1 0x1 SLOAD DUP2 MSTORE PUSH1 0x20 ADD PUSH1 0x40 MLOAD DUP1 PUSH1 0x60 ADD PUSH1 0x40 MSTORE DUP1 CALLER PUSH20 0xFFFFFFFFFFFFFFFFFFFFFFFFFFFFFFFFFFFFFFFF AND DUP2 MSTORE PUSH1 0x20 ADD DUP8 PUSH1 0xFF AND DUP2 MSTORE PUSH1 0x20 ADD PUSH1 0x4 PUSH0 CALLER PUSH20 0xFFFFFFFFFFFFFFFFFFFFFFFFFFFFFFFFFFFFFFFF AND PUSH20 0xFFFFFFFFFFFFFFFFFFFFFFFFFFFFFFFFFFFFFFFF AND DUP2 MSTORE PUSH1 0x20 ADD SWAP1 DUP2 MSTORE PUSH1 0x20 ADD PUSH0 KECCAK256 DUP1 SLOAD DUP1 PUSH1 0x20 MUL PUSH1 0x20 ADD PUSH1 0x40 MLOAD SWAP1 DUP2 ADD PUSH1 0x40 MSTORE DUP1 SWAP3 SWAP2 SWAP1 DUP2 DUP2 MSTORE PUSH1 0x20 ADD DUP3 DUP1 SLOAD DUP1 ISZERO PUSH2 0xF6C JUMPI PUSH1 0x20 MUL DUP3 ADD SWAP2 SWAP1 PUSH0 MSTORE PUSH1 0x20 PUSH0 KECCAK256 SWAP1 JUMPDEST DUP2 SLOAD DUP2 MSTORE PUSH1 0x20 ADD SWAP1 PUSH1 0x1 ADD SWAP1 DUP1 DUP4 GT PUSH2 0xF58 JUMPI JUMPDEST POP POP POP POP POP DUP2 MSTORE POP DUP2 MSTORE PUSH1 0x20 ADD PUSH0 PUSH20 0xFFFFFFFFFFFFFFFFFFFFFFFFFFFFFFFFFFFFFFFF AND DUP2 MSTORE PUSH1 0x20 ADD DUP11 DUP2 MSTORE PUSH1 0x20 ADD DUP5 DUP2 MSTORE PUSH1 0x20 ADD DUP4 DUP2 MSTORE PUSH1 0x20 ADD PUSH0 DUP2 MSTORE PUSH1 0x20 ADD PUSH0 DUP2 MSTORE PUSH1 0x20 ADD PUSH0 DUP2 MSTORE PUSH1 0x20 ADD PUSH1 0x1 PUSH1 0x4 DUP2 GT ISZERO PUSH2 0xFCD JUMPI PUSH2 0xFCC PUSH2 0x2684 JUMP JUMPDEST JUMPDEST DUP2 MSTORE PUSH1 0x20 ADD DUP10 PUSH1 0x2 DUP2 GT ISZERO PUSH2 0xFE5 JUMPI PUSH2 0xFE4 PUSH2 0x2684 JUMP JUMPDEST JUMPDEST DUP2 MSTORE POP SWAP1 POP PUSH2 0xFF3 DUP2 PUSH2 0x1FC7 JUMP JUMPDEST DUP3 DUP10 CALLER PUSH20 0xFFFFFFFFFFFFFFFFFFFFFFFFFFFFFFFFFFFFFFFF AND PUSH32 0x8C5BE3BC7C6D15AC2F78C4515185B40C4C09E598B09DA542512DBA3CF0F49407 PUSH1 0x1 SLOAD PUSH1 0x1 DUP14 PUSH1 0x40 MLOAD PUSH2 0x1042 SWAP4 SWAP3 SWAP2 SWAP1 PUSH2 0x3149 JUMP JUMPDEST PUSH1 0x40 MLOAD DUP1 SWAP2 SUB SWAP1 LOG4 POP POP POP POP POP POP POP POP POP JUMP JUMPDEST PUSH2 0x105D PUSH2 0x19C9 JUMP JUMPDEST PUSH0 PUSH1 0x2 PUSH0 DUP4 DUP2 MSTORE PUSH1 0x20 ADD SWAP1 DUP2 MSTORE PUSH1 0x20 ADD PUSH0 KECCAK256 SWAP1 POP PUSH0 DUP2 PUSH1 0x1 ADD SWAP1 POP DUP2 PUSH1 0x1 ADD PUSH0 ADD PUSH0 SWAP1 SLOAD SWAP1 PUSH2 0x100 EXP SWAP1 DIV PUSH20 0xFFFFFFFFFFFFFFFFFFFFFFFFFFFFFFFFFFFFFFFF AND PUSH20 0xFFFFFFFFFFFFFFFFFFFFFFFFFFFFFFFFFFFFFFFF AND CALLER PUSH20 0xFFFFFFFFFFFFFFFFFFFFFFFFFFFFFFFFFFFFFFFF AND EQ PUSH2 0x110B JUMPI PUSH1 0x40 MLOAD PUSH32 0x8C379A000000000000000000000000000000000000000000000000000000000 DUP2 MSTORE PUSH1 0x4 ADD PUSH2 0x1102 SWAP1 PUSH2 0x31EE JUMP JUMPDEST PUSH1 0x40 MLOAD DUP1 SWAP2 SUB SWAP1 REVERT JUMPDEST PUSH0 PUSH1 0x4 DUP2 GT ISZERO PUSH2 0x111E JUMPI PUSH2 0x111D PUSH2 0x2684 JUMP JUMPDEST JUMPDEST DUP3 PUSH1 0xA ADD PUSH0 SWAP1 SLOAD SWAP1 PUSH2 0x100 EXP SWAP1 DIV PUSH1 0xFF AND PUSH1 0x4 DUP2 GT ISZERO PUSH2 0x1141 JUMPI PUSH2 0x1140 PUSH2 0x2684 JUMP JUMPDEST JUMPDEST EQ DUP1 PUSH2 0x1181 JUMPI POP PUSH1 0x3 PUSH1 0x4 DUP2 GT ISZERO PUSH2 0x115C JUMPI PUSH2 0x115B PUSH2 0x2684 JUMP JUMPDEST JUMPDEST DUP3 PUSH1 0xA ADD PUSH0 SWAP1 SLOAD SWAP1 PUSH2 0x100 EXP SWAP1 DIV PUSH1 0xFF AND PUSH1 0x4 DUP2 GT ISZERO PUSH2 0x117F JUMPI PUSH2 0x117E PUSH2 0x2684 JUMP JUMPDEST JUMPDEST EQ JUMPDEST PUSH2 0x11C0 JUMPI PUSH1 0x40 MLOAD PUSH32 0x8C379A000000000000000000000000000000000000000000000000000000000 DUP2 MSTORE PUSH1 0x4 ADD PUSH2 0x11B7 SWAP1 PUSH2 0x3256 JUMP JUMPDEST PUSH1 0x40 MLOAD DUP1 SWAP2 SUB SWAP1 REVERT JUMPDEST PUSH0 PUSH2 0x11CA DUP5 PUSH2 0x21C5 JUMP JUMPDEST POP SWAP1 POP DUP1 CALLVALUE LT PUSH2 0x1395 JUMPI DUP3 PUSH1 0x8 ADD SLOAD TIMESTAMP GT PUSH2 0x1265 JUMPI PUSH1 0x4 DUP3 PUSH0 ADD PUSH1 0x14 SWAP1 SLOAD SWAP1 PUSH2 0x100 EXP SWAP1 DIV PUSH1 0xFF AND PUSH1 0xFF AND LT ISZERO PUSH2 0x1234 JUMPI PUSH1 0x1 DUP3 PUSH0 ADD PUSH1 0x14 DUP3 DUP3 DUP3 SWAP1 SLOAD SWAP1 PUSH2 0x100 EXP SWAP1 DIV PUSH1 0xFF AND PUSH2 0x121B SWAP2 SWAP1 PUSH2 0x3274 JUMP JUMPDEST SWAP3 POP PUSH2 0x100 EXP DUP2 SLOAD DUP2 PUSH1 0xFF MUL NOT AND SWAP1 DUP4 PUSH1 0xFF AND MUL OR SWAP1 SSTORE POP JUMPDEST PUSH1 0x2 DUP4 PUSH1 0xA ADD PUSH0 PUSH2 0x100 EXP DUP2 SLOAD DUP2 PUSH1 0xFF MUL NOT AND SWAP1 DUP4 PUSH1 0x4 DUP2 GT ISZERO PUSH2 0x125B JUMPI PUSH2 0x125A PUSH2 0x2684 JUMP JUMPDEST JUMPDEST MUL OR SWAP1 SSTORE POP PUSH2 0x12F3 JUMP JUMPDEST DUP3 PUSH1 0x8 ADD SLOAD TIMESTAMP GT ISZERO PUSH2 0x12F2 JUMPI PUSH1 0x1 DUP3 PUSH0 ADD PUSH1 0x14 SWAP1 SLOAD SWAP1 PUSH2 0x100 EXP SWAP1 DIV PUSH1 0xFF AND PUSH1 0xFF AND LT PUSH2 0x12C5 JUMPI PUSH1 0x1 DUP3 PUSH0 ADD PUSH1 0x14 DUP3 DUP3 DUP3 SWAP1 SLOAD SWAP1 PUSH2 0x100 EXP SWAP1 DIV PUSH1 0xFF AND PUSH2 0x12AC SWAP2 SWAP1 PUSH2 0x32A8 JUMP JUMPDEST SWAP3 POP PUSH2 0x100 EXP DUP2 SLOAD DUP2 PUSH1 0xFF MUL NOT AND SWAP1 DUP4 PUSH1 0xFF AND MUL OR SWAP1 SSTORE POP JUMPDEST PUSH1 0x3 DUP4 PUSH1 0xA ADD PUSH0 PUSH2 0x100 EXP DUP2 SLOAD DUP2 PUSH1 0xFF MUL NOT AND SWAP1 DUP4 PUSH1 0x4 DUP2 GT ISZERO PUSH2 0x12EC JUMPI PUSH2 0x12EB PUSH2 0x2684 JUMP JUMPDEST JUMPDEST MUL OR SWAP1 SSTORE POP JUMPDEST JUMPDEST DUP1 DUP4 PUSH1 0x9 ADD DUP2 SWAP1 SSTORE POP DUP3 PUSH1 0x3 ADD PUSH0 SWAP1 SLOAD SWAP1 PUSH2 0x100 EXP SWAP1 DIV PUSH20 0xFFFFFFFFFFFFFFFFFFFFFFFFFFFFFFFFFFFFFFFF AND PUSH20 0xFFFFFFFFFFFFFFFFFFFFFFFFFFFFFFFFFFFFFFFF AND PUSH2 0x8FC CALLVALUE SWAP1 DUP2 ISZERO MUL SWAP1 PUSH1 0x40 MLOAD PUSH0 PUSH1 0x40 MLOAD DUP1 DUP4 SUB DUP2 DUP6 DUP9 DUP9 CALL SWAP4 POP POP POP POP ISZERO DUP1 ISZERO PUSH2 0x1362 JUMPI RETURNDATASIZE PUSH0 PUSH0 RETURNDATACOPY RETURNDATASIZE PUSH0 REVERT JUMPDEST POP PUSH2 0x1390 DUP2 DUP5 PUSH1 0x3 ADD PUSH0 SWAP1 SLOAD SWAP1 PUSH2 0x100 EXP SWAP1 DIV PUSH20 0xFFFFFFFFFFFFFFFFFFFFFFFFFFFFFFFFFFFFFFFF AND PUSH2 0x1AF5 JUMP JUMPDEST PUSH2 0x13D0 JUMP JUMPDEST PUSH1 0x40 MLOAD PUSH32 0x8C379A000000000000000000000000000000000000000000000000000000000 DUP2 MSTORE PUSH1 0x4 ADD PUSH2 0x13C7 SWAP1 PUSH2 0x334C JUMP JUMPDEST PUSH1 0x40 MLOAD DUP1 SWAP2 SUB SWAP1 REVERT JUMPDEST DUP3 PUSH1 0x9 ADD SLOAD DUP3 PUSH0 ADD PUSH0 SWAP1 SLOAD SWAP1 PUSH2 0x100 EXP SWAP1 DIV PUSH20 0xFFFFFFFFFFFFFFFFFFFFFFFFFFFFFFFFFFFFFFFF AND PUSH20 0xFFFFFFFFFFFFFFFFFFFFFFFFFFFFFFFFFFFFFFFF AND PUSH32 0xE0CA2D8C0146CF465A705F2D977A1340819EDED9E7F875AD64C402FC67634A41 DUP7 DUP7 PUSH1 0xA ADD PUSH0 SWAP1 SLOAD SWAP1 PUSH2 0x100 EXP SWAP1 DIV PUSH1 0xFF AND DUP8 PUSH1 0x9 ADD SLOAD PUSH1 0x40 MLOAD PUSH2 0x1455 SWAP4 SWAP3 SWAP2 SWAP1 PUSH2 0x336A JUMP JUMPDEST PUSH1 0x40 MLOAD DUP1 SWAP2 SUB SWAP1 LOG3 POP POP POP PUSH2 0x1468 PUSH2 0x1B56 JUMP JUMPDEST POP JUMP JUMPDEST PUSH1 0x3 PUSH1 0x20 MSTORE DUP1 PUSH0 MSTORE PUSH1 0x40 PUSH0 KECCAK256 PUSH0 SWAP2 POP SWAP1 POP DUP1 PUSH0 ADD PUSH0 SWAP1 SLOAD SWAP1 PUSH2 0x100 EXP SWAP1 DIV PUSH20 0xFFFFFFFFFFFFFFFFFFFFFFFFFFFFFFFFFFFFFFFF AND SWAP1 DUP1 PUSH0 ADD PUSH1 0x14 SWAP1 SLOAD SWAP1 PUSH2 0x100 EXP SWAP1 DIV PUSH1 0xFF AND SWAP1 POP DUP3 JUMP JUMPDEST PUSH2 0x14BE PUSH2 0x19C9 JUMP JUMPDEST PUSH0 PUSH1 0x2 PUSH0 DUP4 DUP2 MSTORE PUSH1 0x20 ADD SWAP1 DUP2 MSTORE PUSH1 0x20 ADD PUSH0 KECCAK256 SWAP1 POP PUSH0 DUP2 PUSH1 0x1 ADD PUSH0 ADD PUSH0 SWAP1 SLOAD SWAP1 PUSH2 0x100 EXP SWAP1 DIV PUSH20 0xFFFFFFFFFFFFFFFFFFFFFFFFFFFFFFFFFFFFFFFF AND SWAP1 POP PUSH0 PUSH3 0x15180 DUP4 PUSH1 0x7 ADD SLOAD PUSH2 0x150F SWAP2 SWAP1 PUSH2 0x2E13 JUMP JUMPDEST SWAP1 POP CALLER PUSH20 0xFFFFFFFFFFFFFFFFFFFFFFFFFFFFFFFFFFFFFFFF AND DUP3 PUSH20 0xFFFFFFFFFFFFFFFFFFFFFFFFFFFFFFFFFFFFFFFF AND EQ PUSH2 0x157F JUMPI PUSH1 0x40 MLOAD PUSH32 0x8C379A000000000000000000000000000000000000000000000000000000000 DUP2 MSTORE PUSH1 0x4 ADD PUSH2 0x1576 SWAP1 PUSH2 0x340F JUMP JUMPDEST PUSH1 0x40 MLOAD DUP1 SWAP2 SUB SWAP1 REVERT JUMPDEST PUSH0 DUP4 PUSH1 0xA ADD PUSH0 SWAP1 SLOAD SWAP1 PUSH2 0x100 EXP SWAP1 DIV PUSH1 0xFF AND SWAP1 POP PUSH1 0x1 PUSH1 0x4 DUP2 GT ISZERO PUSH2 0x15A7 JUMPI PUSH2 0x15A6 PUSH2 0x2684 JUMP JUMPDEST JUMPDEST DUP5 PUSH1 0xA ADD PUSH0 SWAP1 SLOAD SWAP1 PUSH2 0x100 EXP SWAP1 DIV PUSH1 0xFF AND PUSH1 0x4 DUP2 GT ISZERO PUSH2 0x15CA JUMPI PUSH2 0x15C9 PUSH2 0x2684 JUMP JUMPDEST JUMPDEST SUB PUSH2 0x1600 JUMPI PUSH1 0x4 DUP5 PUSH1 0xA ADD PUSH0 PUSH2 0x100 EXP DUP2 SLOAD DUP2 PUSH1 0xFF MUL NOT AND SWAP1 DUP4 PUSH1 0x4 DUP2 GT ISZERO PUSH2 0x15F6 JUMPI PUSH2 0x15F5 PUSH2 0x2684 JUMP JUMPDEST JUMPDEST MUL OR SWAP1 SSTORE POP PUSH2 0x1798 JUMP JUMPDEST PUSH1 0x2 PUSH1 0x4 DUP2 GT ISZERO PUSH2 0x1614 JUMPI PUSH2 0x1613 PUSH2 0x2684 JUMP JUMPDEST JUMPDEST DUP5 PUSH1 0xA ADD PUSH0 SWAP1 SLOAD SWAP1 PUSH2 0x100 EXP SWAP1 DIV PUSH1 0xFF AND PUSH1 0x4 DUP2 GT ISZERO PUSH2 0x1637 JUMPI PUSH2 0x1636 PUSH2 0x2684 JUMP JUMPDEST JUMPDEST EQ DUP1 ISZERO PUSH2 0x1647 JUMPI POP DUP2 DUP5 PUSH1 0x7 ADD SLOAD LT JUMPDEST ISZERO PUSH2 0x175C JUMPI CALLVALUE DUP5 PUSH1 0x4 ADD SLOAD LT ISZERO PUSH2 0x1693 JUMPI PUSH1 0x40 MLOAD PUSH32 0x8C379A000000000000000000000000000000000000000000000000000000000 DUP2 MSTORE PUSH1 0x4 ADD PUSH2 0x168A SWAP1 PUSH2 0x3477 JUMP JUMPDEST PUSH1 0x40 MLOAD DUP1 SWAP2 SUB SWAP1 REVERT JUMPDEST PUSH1 0x4 DUP5 PUSH1 0xA ADD PUSH0 PUSH2 0x100 EXP DUP2 SLOAD DUP2 PUSH1 0xFF MUL NOT AND SWAP1 DUP4 PUSH1 0x4 DUP2 GT ISZERO PUSH2 0x16BA JUMPI PUSH2 0x16B9 PUSH2 0x2684 JUMP JUMPDEST JUMPDEST MUL OR SWAP1 SSTORE POP DUP4 PUSH1 0x3 ADD PUSH0 SWAP1 SLOAD SWAP1 PUSH2 0x100 EXP SWAP1 DIV PUSH20 0xFFFFFFFFFFFFFFFFFFFFFFFFFFFFFFFFFFFFFFFF AND PUSH20 0xFFFFFFFFFFFFFFFFFFFFFFFFFFFFFFFFFFFFFFFF AND PUSH2 0x8FC CALLVALUE SWAP1 DUP2 ISZERO MUL SWAP1 PUSH1 0x40 MLOAD PUSH0 PUSH1 0x40 MLOAD DUP1 DUP4 SUB DUP2 DUP6 DUP9 DUP9 CALL SWAP4 POP POP POP POP ISZERO DUP1 ISZERO PUSH2 0x1725 JUMPI RETURNDATASIZE PUSH0 PUSH0 RETURNDATACOPY RETURNDATASIZE PUSH0 REVERT JUMPDEST POP PUSH2 0x1757 DUP5 PUSH1 0x4 ADD SLOAD DUP6 PUSH1 0x3 ADD PUSH0 SWAP1 SLOAD SWAP1 PUSH2 0x100 EXP SWAP1 DIV PUSH20 0xFFFFFFFFFFFFFFFFFFFFFFFFFFFFFFFFFFFFFFFF AND PUSH2 0x1AF5 JUMP JUMPDEST PUSH2 0x1797 JUMP JUMPDEST PUSH1 0x40 MLOAD PUSH32 0x8C379A000000000000000000000000000000000000000000000000000000000 DUP2 MSTORE PUSH1 0x4 ADD PUSH2 0x178E SWAP1 PUSH2 0x34DF JUMP JUMPDEST PUSH1 0x40 MLOAD DUP1 SWAP2 SUB SWAP1 REVERT JUMPDEST JUMPDEST DUP4 PUSH1 0x4 ADD SLOAD DUP4 PUSH20 0xFFFFFFFFFFFFFFFFFFFFFFFFFFFFFFFFFFFFFFFF AND PUSH32 0xADBEE1A5CFDE1DA4D21E11A94728AE86436E2A1C5CD2269D7BCF3F30CEA4ED79 DUP8 DUP5 PUSH1 0x40 MLOAD PUSH2 0x17E5 SWAP3 SWAP2 SWAP1 PUSH2 0x2A1F JUMP JUMPDEST PUSH1 0x40 MLOAD DUP1 SWAP2 SUB SWAP1 LOG3 POP POP POP POP PUSH2 0x17F9 PUSH2 0x1B56 JUMP JUMPDEST POP JUMP JUMPDEST PUSH0 PUSH0 PUSH0 PUSH2 0x1808 DUP5 PUSH2 0x21C5 JUMP JUMPDEST POP SWAP1 POP PUSH0 PUSH2 0x1815 DUP6 PUSH2 0x21C5 JUMP JUMPDEST SWAP2 POP POP PUSH0 DUP2 ISZERO PUSH2 0x1827 JUMPI PUSH0 SWAP1 POP PUSH2 0x1832 JUMP JUMPDEST DUP2 PUSH2 0x1831 JUMPI PUSH1 0x3 SWAP1 POP JUMPDEST JUMPDEST DUP3 DUP2 SWAP5 POP SWAP5 POP POP POP POP SWAP2 POP SWAP2 JUMP JUMPDEST PUSH1 0x2 PUSH1 0x20 MSTORE DUP1 PUSH0 MSTORE PUSH1 0x40 PUSH0 KECCAK256 PUSH0 SWAP2 POP SWAP1 POP DUP1 PUSH0 ADD SLOAD SWAP1 DUP1 PUSH1 0x1 ADD PUSH1 0x40 MLOAD DUP1 PUSH1 0x60 ADD PUSH1 0x40 MSTORE SWAP1 DUP2 PUSH0 DUP3 ADD PUSH0 SWAP1 SLOAD SWAP1 PUSH2 0x100 EXP SWAP1 DIV PUSH20 0xFFFFFFFFFFFFFFFFFFFFFFFFFFFFFFFFFFFFFFFF AND PUSH20 0xFFFFFFFFFFFFFFFFFFFFFFFFFFFFFFFFFFFFFFFF AND PUSH20 0xFFFFFFFFFFFFFFFFFFFFFFFFFFFFFFFFFFFFFFFF AND DUP2 MSTORE PUSH1 0x20 ADD PUSH0 DUP3 ADD PUSH1 0x14 SWAP1 SLOAD SWAP1 PUSH2 0x100 EXP SWAP1 DIV PUSH1 0xFF AND PUSH1 0xFF AND PUSH1 0xFF AND DUP2 MSTORE PUSH1 0x20 ADD PUSH1 0x1 DUP3 ADD DUP1 SLOAD DUP1 PUSH1 0x20 MUL PUSH1 0x20 ADD PUSH1 0x40 MLOAD SWAP1 DUP2 ADD PUSH1 0x40 MSTORE DUP1 SWAP3 SWAP2 SWAP1 DUP2 DUP2 MSTORE PUSH1 0x20 ADD DUP3 DUP1 SLOAD DUP1 ISZERO PUSH2 0x1922 JUMPI PUSH1 0x20 MUL DUP3 ADD SWAP2 SWAP1 PUSH0 MSTORE PUSH1 0x20 PUSH0 KECCAK256 SWAP1 JUMPDEST DUP2 SLOAD DUP2 MSTORE PUSH1 0x20 ADD SWAP1 PUSH1 0x1 ADD SWAP1 DUP1 DUP4 GT PUSH2 0x190E JUMPI JUMPDEST POP POP POP POP POP DUP2 MSTORE POP POP SWAP1 DUP1 PUSH1 0x3 ADD PUSH0 SWAP1 SLOAD SWAP1 PUSH2 0x100 EXP SWAP1 DIV PUSH20 0xFFFFFFFFFFFFFFFFFFFFFFFFFFFFFFFFFFFFFFFF AND SWAP1 DUP1 PUSH1 0x4 ADD SLOAD SWAP1 DUP1 PUSH1 0x5 ADD SLOAD SWAP1 DUP1 PUSH1 0x6 ADD SLOAD SWAP1 DUP1 PUSH1 0x7 ADD SLOAD SWAP1 DUP1 PUSH1 0x8 ADD SLOAD SWAP1 DUP1 PUSH1 0x9 ADD SLOAD SWAP1 DUP1 PUSH1 0xA ADD PUSH0 SWAP1 SLOAD SWAP1 PUSH2 0x100 EXP SWAP1 DIV PUSH1 0xFF AND SWAP1 DUP1 PUSH1 0xA ADD PUSH1 0x1 SWAP1 SLOAD SWAP1 PUSH2 0x100 EXP SWAP1 DIV PUSH1 0xFF AND SWAP1 POP DUP12 JUMP JUMPDEST PUSH1 0x4 PUSH1 0x20 MSTORE DUP2 PUSH0 MSTORE PUSH1 0x40 PUSH0 KECCAK256 DUP2 DUP2 SLOAD DUP2 LT PUSH2 0x19B7 JUMPI PUSH0 DUP1 REVERT JUMPDEST SWAP1 PUSH0 MSTORE PUSH1 0x20 PUSH0 KECCAK256 ADD PUSH0 SWAP2 POP SWAP2 POP POP SLOAD DUP2 JUMP JUMPDEST PUSH1 0x2 PUSH0 SLOAD SUB PUSH2 0x1A0D JUMPI PUSH1 0x40 MLOAD PUSH32 0x8C379A000000000000000000000000000000000000000000000000000000000 DUP2 MSTORE PUSH1 0x4 ADD PUSH2 0x1A04 SWAP1 PUSH2 0x3547 JUMP JUMPDEST PUSH1 0x40 MLOAD DUP1 SWAP2 SUB SWAP1 REVERT JUMPDEST PUSH1 0x2 PUSH0 DUP2 SWAP1 SSTORE POP JUMP JUMPDEST PUSH0 PUSH0 PUSH1 0x2 DUP2 GT ISZERO PUSH2 0x1A2A JUMPI PUSH2 0x1A29 PUSH2 0x2684 JUMP JUMPDEST JUMPDEST DUP3 PUSH1 0x2 DUP2 GT ISZERO PUSH2 0x1A3D JUMPI PUSH2 0x1A3C PUSH2 0x2684 JUMP JUMPDEST JUMPDEST SUB PUSH2 0x1A4B JUMPI PUSH1 0x1E SWAP1 POP PUSH2 0x1AF0 JUMP JUMPDEST PUSH1 0x1 PUSH1 0x2 DUP2 GT ISZERO PUSH2 0x1A5F JUMPI PUSH2 0x1A5E PUSH2 0x2684 JUMP JUMPDEST JUMPDEST DUP3 PUSH1 0x2 DUP2 GT ISZERO PUSH2 0x1A72 JUMPI PUSH2 0x1A71 PUSH2 0x2684 JUMP JUMPDEST JUMPDEST SUB PUSH2 0x1A80 JUMPI PUSH1 0xB4 SWAP1 POP PUSH2 0x1AF0 JUMP JUMPDEST PUSH1 0x2 DUP1 DUP2 GT ISZERO PUSH2 0x1A93 JUMPI PUSH2 0x1A92 PUSH2 0x2684 JUMP JUMPDEST JUMPDEST DUP3 PUSH1 0x2 DUP2 GT ISZERO PUSH2 0x1AA6 JUMPI PUSH2 0x1AA5 PUSH2 0x2684 JUMP JUMPDEST JUMPDEST SUB PUSH2 0x1AB5 JUMPI PUSH2 0x16D SWAP1 POP PUSH2 0x1AF0 JUMP JUMPDEST PUSH1 0x40 MLOAD PUSH32 0x8C379A000000000000000000000000000000000000000000000000000000000 DUP2 MSTORE PUSH1 0x4 ADD PUSH2 0x1AE7 SWAP1 PUSH2 0x35AF JUMP JUMPDEST PUSH1 0x40 MLOAD DUP1 SWAP2 SUB SWAP1 REVERT JUMPDEST SWAP2 SWAP1 POP JUMP JUMPDEST PUSH0 DUP3 CALLVALUE PUSH2 0x1B02 SWAP2 SWAP1 PUSH2 0x2EA5 JUMP JUMPDEST SWAP1 POP PUSH0 DUP2 GT ISZERO PUSH2 0x1B51 JUMPI DUP2 PUSH20 0xFFFFFFFFFFFFFFFFFFFFFFFFFFFFFFFFFFFFFFFF AND PUSH2 0x8FC DUP3 SWAP1 DUP2 ISZERO MUL SWAP1 PUSH1 0x40 MLOAD PUSH0 PUSH1 0x40 MLOAD DUP1 DUP4 SUB DUP2 DUP6 DUP9 DUP9 CALL SWAP4 POP POP POP POP ISZERO DUP1 ISZERO PUSH2 0x1B4F JUMPI RETURNDATASIZE PUSH0 PUSH0 RETURNDATACOPY RETURNDATASIZE PUSH0 REVERT JUMPDEST POP JUMPDEST POP POP POP JUMP JUMPDEST PUSH1 0x1 PUSH0 DUP2 SWAP1 SSTORE POP JUMP JUMPDEST PUSH1 0x60 PUSH0 PUSH0 PUSH0 SWAP1 POP PUSH0 PUSH1 0x1 SWAP1 POP JUMPDEST PUSH1 0x1 SLOAD DUP2 GT PUSH2 0x1BE3 JUMPI PUSH1 0x1 PUSH1 0x4 DUP2 GT ISZERO PUSH2 0x1B89 JUMPI PUSH2 0x1B88 PUSH2 0x2684 JUMP JUMPDEST JUMPDEST PUSH1 0x2 PUSH0 DUP4 DUP2 MSTORE PUSH1 0x20 ADD SWAP1 DUP2 MSTORE PUSH1 0x20 ADD PUSH0 KECCAK256 PUSH1 0xA ADD PUSH0 SWAP1 SLOAD SWAP1 PUSH2 0x100 EXP SWAP1 DIV PUSH1 0xFF AND PUSH1 0x4 DUP2 GT ISZERO PUSH2 0x1BBC JUMPI PUSH2 0x1BBB PUSH2 0x2684 JUMP JUMPDEST JUMPDEST SUB PUSH2 0x1BD0 JUMPI DUP2 DUP1 PUSH2 0x1BCC SWAP1 PUSH2 0x2F05 JUMP JUMPDEST SWAP3 POP POP JUMPDEST DUP1 DUP1 PUSH2 0x1BDB SWAP1 PUSH2 0x2F05 JUMP JUMPDEST SWAP2 POP POP PUSH2 0x1B6C JUMP JUMPDEST POP PUSH0 DUP2 PUSH8 0xFFFFFFFFFFFFFFFF DUP2 GT ISZERO PUSH2 0x1BFF JUMPI PUSH2 0x1BFE PUSH2 0x2F4C JUMP JUMPDEST JUMPDEST PUSH1 0x40 MLOAD SWAP1 DUP1 DUP3 MSTORE DUP1 PUSH1 0x20 MUL PUSH1 0x20 ADD DUP3 ADD PUSH1 0x40 MSTORE DUP1 ISZERO PUSH2 0x1C38 JUMPI DUP2 PUSH1 0x20 ADD JUMPDEST PUSH2 0x1C25 PUSH2 0x236D JUMP JUMPDEST DUP2 MSTORE PUSH1 0x20 ADD SWAP1 PUSH1 0x1 SWAP1 SUB SWAP1 DUP2 PUSH2 0x1C1D JUMPI SWAP1 POP JUMPDEST POP SWAP1 POP PUSH0 PUSH0 SWAP1 POP PUSH0 PUSH1 0x1 SWAP1 POP JUMPDEST PUSH1 0x1 SLOAD DUP2 GT PUSH2 0x1EE0 JUMPI PUSH1 0x1 PUSH1 0x4 DUP2 GT ISZERO PUSH2 0x1C62 JUMPI PUSH2 0x1C61 PUSH2 0x2684 JUMP JUMPDEST JUMPDEST PUSH1 0x2 PUSH0 DUP4 DUP2 MSTORE PUSH1 0x20 ADD SWAP1 DUP2 MSTORE PUSH1 0x20 ADD PUSH0 KECCAK256 PUSH1 0xA ADD PUSH0 SWAP1 SLOAD SWAP1 PUSH2 0x100 EXP SWAP1 DIV PUSH1 0xFF AND PUSH1 0x4 DUP2 GT ISZERO PUSH2 0x1C95 JUMPI PUSH2 0x1C94 PUSH2 0x2684 JUMP JUMPDEST JUMPDEST SUB PUSH2 0x1ECD JUMPI PUSH1 0x2 PUSH0 DUP3 DUP2 MSTORE PUSH1 0x20 ADD SWAP1 DUP2 MSTORE PUSH1 0x20 ADD PUSH0 KECCAK256 PUSH1 0x40 MLOAD DUP1 PUSH2 0x160 ADD PUSH1 0x40 MSTORE SWAP1 DUP2 PUSH0 DUP3 ADD SLOAD DUP2 MSTORE PUSH1 0x20 ADD PUSH1 0x1 DUP3 ADD PUSH1 0x40 MLOAD DUP1 PUSH1 0x60 ADD PUSH1 0x40 MSTORE SWAP1 DUP2 PUSH0 DUP3 ADD PUSH0 SWAP1 SLOAD SWAP1 PUSH2 0x100 EXP SWAP1 DIV PUSH20 0xFFFFFFFFFFFFFFFFFFFFFFFFFFFFFFFFFFFFFFFF AND PUSH20 0xFFFFFFFFFFFFFFFFFFFFFFFFFFFFFFFFFFFFFFFF AND PUSH20 0xFFFFFFFFFFFFFFFFFFFFFFFFFFFFFFFFFFFFFFFF AND DUP2 MSTORE PUSH1 0x20 ADD PUSH0 DUP3 ADD PUSH1 0x14 SWAP1 SLOAD SWAP1 PUSH2 0x100 EXP SWAP1 DIV PUSH1 0xFF AND PUSH1 0xFF AND PUSH1 0xFF AND DUP2 MSTORE PUSH1 0x20 ADD PUSH1 0x1 DUP3 ADD DUP1 SLOAD DUP1 PUSH1 0x20 MUL PUSH1 0x20 ADD PUSH1 0x40 MLOAD SWAP1 DUP2 ADD PUSH1 0x40 MSTORE DUP1 SWAP3 SWAP2 SWAP1 DUP2 DUP2 MSTORE PUSH1 0x20 ADD DUP3 DUP1 SLOAD DUP1 ISZERO PUSH2 0x1D8D JUMPI PUSH1 0x20 MUL DUP3 ADD SWAP2 SWAP1 PUSH0 MSTORE PUSH1 0x20 PUSH0 KECCAK256 SWAP1 JUMPDEST DUP2 SLOAD DUP2 MSTORE PUSH1 0x20 ADD SWAP1 PUSH1 0x1 ADD SWAP1 DUP1 DUP4 GT PUSH2 0x1D79 JUMPI JUMPDEST POP POP POP POP POP DUP2 MSTORE POP POP DUP2 MSTORE PUSH1 0x20 ADD PUSH1 0x3 DUP3 ADD PUSH0 SWAP1 SLOAD SWAP1 PUSH2 0x100 EXP SWAP1 DIV PUSH20 0xFFFFFFFFFFFFFFFFFFFFFFFFFFFFFFFFFFFFFFFF AND PUSH20 0xFFFFFFFFFFFFFFFFFFFFFFFFFFFFFFFFFFFFFFFF AND PUSH20 0xFFFFFFFFFFFFFFFFFFFFFFFFFFFFFFFFFFFFFFFF AND DUP2 MSTORE PUSH1 0x20 ADD PUSH1 0x4 DUP3 ADD SLOAD DUP2 MSTORE PUSH1 0x20 ADD PUSH1 0x5 DUP3 ADD SLOAD DUP2 MSTORE PUSH1 0x20 ADD PUSH1 0x6 DUP3 ADD SLOAD DUP2 MSTORE PUSH1 0x20 ADD PUSH1 0x7 DUP3 ADD SLOAD DUP2 MSTORE PUSH1 0x20 ADD PUSH1 0x8 DUP3 ADD SLOAD DUP2 MSTORE PUSH1 0x20 ADD PUSH1 0x9 DUP3 ADD SLOAD DUP2 MSTORE PUSH1 0x20 ADD PUSH1 0xA DUP3 ADD PUSH0 SWAP1 SLOAD SWAP1 PUSH2 0x100 EXP SWAP1 DIV PUSH1 0xFF AND PUSH1 0x4 DUP2 GT ISZERO PUSH2 0x1E4F JUMPI PUSH2 0x1E4E PUSH2 0x2684 JUMP JUMPDEST JUMPDEST PUSH1 0x4 DUP2 GT ISZERO PUSH2 0x1E61 JUMPI PUSH2 0x1E60 PUSH2 0x2684 JUMP JUMPDEST JUMPDEST DUP2 MSTORE PUSH1 0x20 ADD PUSH1 0xA DUP3 ADD PUSH1 0x1 SWAP1 SLOAD SWAP1 PUSH2 0x100 EXP SWAP1 DIV PUSH1 0xFF AND PUSH1 0x2 DUP2 GT ISZERO PUSH2 0x1E8A JUMPI PUSH2 0x1E89 PUSH2 0x2684 JUMP JUMPDEST JUMPDEST PUSH1 0x2 DUP2 GT ISZERO PUSH2 0x1E9C JUMPI PUSH2 0x1E9B PUSH2 0x2684 JUMP JUMPDEST JUMPDEST DUP2 MSTORE POP POP DUP4 DUP4 DUP2 MLOAD DUP2 LT PUSH2 0x1EB3 JUMPI PUSH2 0x1EB2 PUSH2 0x2ED8 JUMP JUMPDEST JUMPDEST PUSH1 0x20 MUL PUSH1 0x20 ADD ADD DUP2 SWAP1 MSTORE POP DUP2 DUP1 PUSH2 0x1EC9 SWAP1 PUSH2 0x2F05 JUMP JUMPDEST SWAP3 POP POP JUMPDEST DUP1 DUP1 PUSH2 0x1ED8 SWAP1 PUSH2 0x2F05 JUMP JUMPDEST SWAP2 POP POP PUSH2 0x1C45 JUMP JUMPDEST POP DUP2 DUP4 SWAP5 POP SWAP5 POP POP POP POP SWAP1 SWAP2 JUMP JUMPDEST PUSH0 PUSH0 PUSH1 0x4 DUP4 PUSH1 0xFF AND GT ISZERO PUSH2 0x1F37 JUMPI PUSH1 0x40 MLOAD PUSH32 0x8C379A000000000000000000000000000000000000000000000000000000000 DUP2 MSTORE PUSH1 0x4 ADD PUSH2 0x1F2E SWAP1 PUSH2 0x3617 JUMP JUMPDEST PUSH1 0x40 MLOAD DUP1 SWAP2 SUB SWAP1 REVERT JUMPDEST PUSH0 PUSH0 PUSH0 DUP6 PUSH1 0xFF AND SUB PUSH2 0x1F52 JUMPI PUSH2 0x7D0 SWAP2 POP PUSH2 0x1388 SWAP1 POP PUSH2 0x1FBA JUMP JUMPDEST PUSH1 0x1 DUP6 PUSH1 0xFF AND SUB PUSH2 0x1F6C JUMPI PUSH2 0x4B0 SWAP2 POP PUSH2 0xFA0 SWAP1 POP PUSH2 0x1FB9 JUMP JUMPDEST PUSH1 0x2 DUP6 PUSH1 0xFF AND SUB PUSH2 0x1F86 JUMPI PUSH2 0x3E8 SWAP2 POP PUSH2 0xDAC SWAP1 POP PUSH2 0x1FB8 JUMP JUMPDEST PUSH1 0x3 DUP6 PUSH1 0xFF AND SUB PUSH2 0x1FA0 JUMPI PUSH2 0x320 SWAP2 POP PUSH2 0x9C4 SWAP1 POP PUSH2 0x1FB7 JUMP JUMPDEST PUSH1 0x4 DUP6 PUSH1 0xFF AND LT PUSH2 0x1FB6 JUMPI PUSH2 0x258 SWAP2 POP PUSH2 0x5DC SWAP1 POP JUMPDEST JUMPDEST JUMPDEST JUMPDEST JUMPDEST DUP2 DUP2 SWAP4 POP SWAP4 POP POP POP SWAP2 POP SWAP2 JUMP JUMPDEST DUP1 PUSH1 0x2 PUSH0 DUP4 PUSH0 ADD MLOAD DUP2 MSTORE PUSH1 0x20 ADD SWAP1 DUP2 MSTORE PUSH1 0x20 ADD PUSH0 KECCAK256 PUSH0 DUP3 ADD MLOAD DUP2 PUSH0 ADD SSTORE PUSH1 0x20 DUP3 ADD MLOAD DUP2 PUSH1 0x1 ADD PUSH0 DUP3 ADD MLOAD DUP2 PUSH0 ADD PUSH0 PUSH2 0x100 EXP DUP2 SLOAD DUP2 PUSH20 0xFFFFFFFFFFFFFFFFFFFFFFFFFFFFFFFFFFFFFFFF MUL NOT AND SWAP1 DUP4 PUSH20 0xFFFFFFFFFFFFFFFFFFFFFFFFFFFFFFFFFFFFFFFF AND MUL OR SWAP1 SSTORE POP PUSH1 0x20 DUP3 ADD MLOAD DUP2 PUSH0 ADD PUSH1 0x14 PUSH2 0x100 EXP DUP2 SLOAD DUP2 PUSH1 0xFF MUL NOT AND SWAP1 DUP4 PUSH1 0xFF AND MUL OR SWAP1 SSTORE POP PUSH1 0x40 DUP3 ADD MLOAD DUP2 PUSH1 0x1 ADD SWAP1 DUP1 MLOAD SWAP1 PUSH1 0x20 ADD SWAP1 PUSH2 0x206D SWAP3 SWAP2 SWAP1 PUSH2 0x23FD JUMP JUMPDEST POP POP POP PUSH1 0x40 DUP3 ADD MLOAD DUP2 PUSH1 0x3 ADD PUSH0 PUSH2 0x100 EXP DUP2 SLOAD DUP2 PUSH20 0xFFFFFFFFFFFFFFFFFFFFFFFFFFFFFFFFFFFFFFFF MUL NOT AND SWAP1 DUP4 PUSH20 0xFFFFFFFFFFFFFFFFFFFFFFFFFFFFFFFFFFFFFFFF AND MUL OR SWAP1 SSTORE POP PUSH1 0x60 DUP3 ADD MLOAD DUP2 PUSH1 0x4 ADD SSTORE PUSH1 0x80 DUP3 ADD MLOAD DUP2 PUSH1 0x5 ADD SSTORE PUSH1 0xA0 DUP3 ADD MLOAD DUP2 PUSH1 0x6 ADD SSTORE PUSH1 0xC0 DUP3 ADD MLOAD DUP2 PUSH1 0x7 ADD SSTORE PUSH1 0xE0 DUP3 ADD MLOAD DUP2 PUSH1 0x8 ADD SSTORE PUSH2 0x100 DUP3 ADD MLOAD DUP2 PUSH1 0x9 ADD SSTORE PUSH2 0x120 DUP3 ADD MLOAD DUP2 PUSH1 0xA ADD PUSH0 PUSH2 0x100 EXP DUP2 SLOAD DUP2 PUSH1 0xFF MUL NOT AND SWAP1 DUP4 PUSH1 0x4 DUP2 GT ISZERO PUSH2 0x211E JUMPI PUSH2 0x211D PUSH2 0x2684 JUMP JUMPDEST JUMPDEST MUL OR SWAP1 SSTORE POP PUSH2 0x140 DUP3 ADD MLOAD DUP2 PUSH1 0xA ADD PUSH1 0x1 PUSH2 0x100 EXP DUP2 SLOAD DUP2 PUSH1 0xFF MUL NOT AND SWAP1 DUP4 PUSH1 0x2 DUP2 GT ISZERO PUSH2 0x214F JUMPI PUSH2 0x214E PUSH2 0x2684 JUMP JUMPDEST JUMPDEST MUL OR SWAP1 SSTORE POP SWAP1 POP POP PUSH1 0x4 PUSH0 DUP3 PUSH1 0x20 ADD MLOAD PUSH0 ADD MLOAD PUSH20 0xFFFFFFFFFFFFFFFFFFFFFFFFFFFFFFFFFFFFFFFF AND PUSH20 0xFFFFFFFFFFFFFFFFFFFFFFFFFFFFFFFFFFFFFFFF AND DUP2 MSTORE PUSH1 0x20 ADD SWAP1 DUP2 MSTORE PUSH1 0x20 ADD PUSH0 KECCAK256 DUP2 PUSH0 ADD MLOAD SWAP1 DUP1 PUSH1 0x1 DUP2 SLOAD ADD DUP1 DUP3 SSTORE DUP1 SWAP2 POP POP PUSH1 0x1 SWAP1 SUB SWAP1 PUSH0 MSTORE PUSH1 0x20 PUSH0 KECCAK256 ADD PUSH0 SWAP1 SWAP2 SWAP1 SWAP2 SWAP1 SWAP2 POP SSTORE POP JUMP JUMPDEST PUSH0 PUSH0 PUSH0 PUSH1 0x2 PUSH0 DUP6 DUP2 MSTORE PUSH1 0x20 ADD SWAP1 DUP2 MSTORE PUSH1 0x20 ADD PUSH0 KECCAK256 SWAP1 POP PUSH0 PUSH0 PUSH2 0x21F7 DUP4 PUSH1 0xA ADD PUSH1 0x1 SWAP1 SLOAD SWAP1 PUSH2 0x100 EXP SWAP1 DIV PUSH1 0xFF AND PUSH2 0x1A16 JUMP JUMPDEST SWAP1 POP PUSH0 PUSH3 0x15180 PUSH3 0x1517F DUP6 PUSH1 0x8 ADD SLOAD TIMESTAMP PUSH2 0x2212 SWAP2 SWAP1 PUSH2 0x2EA5 JUMP JUMPDEST PUSH2 0x221C SWAP2 SWAP1 PUSH2 0x2E13 JUMP JUMPDEST PUSH2 0x2226 SWAP2 SWAP1 PUSH2 0x3662 JUMP JUMPDEST SWAP1 POP PUSH0 DUP5 PUSH1 0x8 ADD SLOAD TIMESTAMP GT PUSH2 0x2251 JUMPI PUSH2 0x2247 DUP6 PUSH1 0x5 ADD SLOAD DUP7 PUSH1 0x4 ADD SLOAD DUP6 PUSH2 0x229B JUMP JUMPDEST SWAP4 POP PUSH0 SWAP1 POP PUSH2 0x228B JUMP JUMPDEST DUP5 PUSH1 0x8 ADD SLOAD TIMESTAMP GT ISZERO PUSH2 0x228A JUMPI PUSH0 PUSH2 0x2271 DUP7 PUSH1 0x5 ADD SLOAD DUP8 PUSH1 0x4 ADD SLOAD DUP7 PUSH2 0x229B JUMP JUMPDEST SWAP1 POP PUSH2 0x2282 DUP7 PUSH1 0x6 ADD SLOAD DUP3 DUP6 PUSH2 0x2304 JUMP JUMPDEST SWAP5 POP PUSH1 0x1 SWAP2 POP POP JUMPDEST JUMPDEST DUP4 DUP2 SWAP7 POP SWAP7 POP POP POP POP POP POP SWAP2 POP SWAP2 JUMP JUMPDEST PUSH0 PUSH0 PUSH2 0x16D PUSH1 0x64 DUP7 PUSH2 0x22AD SWAP2 SWAP1 PUSH2 0x3662 JUMP JUMPDEST PUSH2 0x22B7 SWAP2 SWAP1 PUSH2 0x3662 JUMP JUMPDEST SWAP1 POP PUSH0 PUSH0 SWAP1 POP JUMPDEST DUP4 DUP2 LT ISZERO PUSH2 0x22F8 JUMPI PUSH1 0x64 DUP3 PUSH2 0x22D3 SWAP2 SWAP1 PUSH2 0x3662 JUMP JUMPDEST DUP6 PUSH2 0x22DE SWAP2 SWAP1 PUSH2 0x2DD2 JUMP JUMPDEST DUP6 PUSH2 0x22E9 SWAP2 SWAP1 PUSH2 0x2E13 JUMP JUMPDEST SWAP5 POP DUP1 DUP1 PUSH1 0x1 ADD SWAP2 POP POP PUSH2 0x22BE JUMP JUMPDEST POP DUP4 SWAP2 POP POP SWAP4 SWAP3 POP POP POP JUMP JUMPDEST PUSH0 PUSH0 PUSH2 0x16D PUSH1 0x64 DUP7 PUSH2 0x2316 SWAP2 SWAP1 PUSH2 0x3662 JUMP JUMPDEST PUSH2 0x2320 SWAP2 SWAP1 PUSH2 0x3662 JUMP JUMPDEST SWAP1 POP PUSH0 PUSH0 SWAP1 POP JUMPDEST DUP4 DUP2 LT ISZERO PUSH2 0x2361 JUMPI PUSH1 0x64 DUP3 PUSH2 0x233C SWAP2 SWAP1 PUSH2 0x3662 JUMP JUMPDEST DUP6 PUSH2 0x2347 SWAP2 SWAP1 PUSH2 0x2DD2 JUMP JUMPDEST DUP6 PUSH2 0x2352 SWAP2 SWAP1 PUSH2 0x2E13 JUMP JUMPDEST SWAP5 POP DUP1 DUP1 PUSH1 0x1 ADD SWAP2 POP POP PUSH2 0x2327 JUMP JUMPDEST POP DUP4 SWAP2 POP POP SWAP4 SWAP3 POP POP POP JUMP JUMPDEST PUSH1 0x40 MLOAD DUP1 PUSH2 0x160 ADD PUSH1 0x40 MSTORE DUP1 PUSH0 DUP2 MSTORE PUSH1 0x20 ADD PUSH2 0x2387 PUSH2 0x2448 JUMP JUMPDEST DUP2 MSTORE PUSH1 0x20 ADD PUSH0 PUSH20 0xFFFFFFFFFFFFFFFFFFFFFFFFFFFFFFFFFFFFFFFF AND DUP2 MSTORE PUSH1 0x20 ADD PUSH0 DUP2 MSTORE PUSH1 0x20 ADD PUSH0 DUP2 MSTORE PUSH1 0x20 ADD PUSH0 DUP2 MSTORE PUSH1 0x20 ADD PUSH0 DUP2 MSTORE PUSH1 0x20 ADD PUSH0 DUP2 MSTORE PUSH1 0x20 ADD PUSH0 DUP2 MSTORE PUSH1 0x20 ADD PUSH0 PUSH1 0x4 DUP2 GT ISZERO PUSH2 0x23DF JUMPI PUSH2 0x23DE PUSH2 0x2684 JUMP JUMPDEST JUMPDEST DUP2 MSTORE PUSH1 0x20 ADD PUSH0 PUSH1 0x2 DUP2 GT ISZERO PUSH2 0x23F7 JUMPI PUSH2 0x23F6 PUSH2 0x2684 JUMP JUMPDEST JUMPDEST DUP2 MSTORE POP SWAP1 JUMP JUMPDEST DUP3 DUP1 SLOAD DUP3 DUP3 SSTORE SWAP1 PUSH0 MSTORE PUSH1 0x20 PUSH0 KECCAK256 SWAP1 DUP2 ADD SWAP3 DUP3 ISZERO PUSH2 0x2437 JUMPI SWAP2 PUSH1 0x20 MUL DUP3 ADD JUMPDEST DUP3 DUP2 GT ISZERO PUSH2 0x2436 JUMPI DUP3 MLOAD DUP3 SSTORE SWAP2 PUSH1 0x20 ADD SWAP2 SWAP1 PUSH1 0x1 ADD SWAP1 PUSH2 0x241B JUMP JUMPDEST JUMPDEST POP SWAP1 POP PUSH2 0x2444 SWAP2 SWAP1 PUSH2 0x2480 JUMP JUMPDEST POP SWAP1 JUMP JUMPDEST PUSH1 0x40 MLOAD DUP1 PUSH1 0x60 ADD PUSH1 0x40 MSTORE DUP1 PUSH0 PUSH20 0xFFFFFFFFFFFFFFFFFFFFFFFFFFFFFFFFFFFFFFFF AND DUP2 MSTORE PUSH1 0x20 ADD PUSH0 PUSH1 0xFF AND DUP2 MSTORE PUSH1 0x20 ADD PUSH1 0x60 DUP2 MSTORE POP SWAP1 JUMP JUMPDEST JUMPDEST DUP1 DUP3 GT ISZERO PUSH2 0x2497 JUMPI PUSH0 DUP2 PUSH0 SWAP1 SSTORE POP PUSH1 0x1 ADD PUSH2 0x2481 JUMP JUMPDEST POP SWAP1 JUMP JUMPDEST PUSH0 PUSH0 REVERT JUMPDEST PUSH0 DUP2 SWAP1 POP SWAP2 SWAP1 POP JUMP JUMPDEST PUSH2 0x24B1 DUP2 PUSH2 0x249F JUMP JUMPDEST DUP2 EQ PUSH2 0x24BB JUMPI PUSH0 PUSH0 REVERT JUMPDEST POP JUMP JUMPDEST PUSH0 DUP2 CALLDATALOAD SWAP1 POP PUSH2 0x24CC DUP2 PUSH2 0x24A8 JUMP JUMPDEST SWAP3 SWAP2 POP POP JUMP JUMPDEST PUSH0 PUSH1 0x20 DUP3 DUP5 SUB SLT ISZERO PUSH2 0x24E7 JUMPI PUSH2 0x24E6 PUSH2 0x249B JUMP JUMPDEST JUMPDEST PUSH0 PUSH2 0x24F4 DUP5 DUP3 DUP6 ADD PUSH2 0x24BE JUMP JUMPDEST SWAP2 POP POP SWAP3 SWAP2 POP POP JUMP JUMPDEST PUSH0 DUP2 MLOAD SWAP1 POP SWAP2 SWAP1 POP JUMP JUMPDEST PUSH0 DUP3 DUP3 MSTORE PUSH1 0x20 DUP3 ADD SWAP1 POP SWAP3 SWAP2 POP POP JUMP JUMPDEST PUSH0 DUP2 SWAP1 POP PUSH1 0x20 DUP3 ADD SWAP1 POP SWAP2 SWAP1 POP JUMP JUMPDEST PUSH2 0x252F DUP2 PUSH2 0x249F JUMP JUMPDEST DUP3 MSTORE POP POP JUMP JUMPDEST PUSH0 PUSH20 0xFFFFFFFFFFFFFFFFFFFFFFFFFFFFFFFFFFFFFFFF DUP3 AND SWAP1 POP SWAP2 SWAP1 POP JUMP JUMPDEST PUSH0 PUSH2 0x255E DUP3 PUSH2 0x2535 JUMP JUMPDEST SWAP1 POP SWAP2 SWAP1 POP JUMP JUMPDEST PUSH2 0x256E DUP2 PUSH2 0x2554 JUMP JUMPDEST DUP3 MSTORE POP POP JUMP JUMPDEST PUSH0 PUSH1 0xFF DUP3 AND SWAP1 POP SWAP2 SWAP1 POP JUMP JUMPDEST PUSH2 0x2589 DUP2 PUSH2 0x2574 JUMP JUMPDEST DUP3 MSTORE POP POP JUMP JUMPDEST PUSH0 DUP2 MLOAD SWAP1 POP SWAP2 SWAP1 POP JUMP JUMPDEST PUSH0 DUP3 DUP3 MSTORE PUSH1 0x20 DUP3 ADD SWAP1 POP SWAP3 SWAP2 POP POP JUMP JUMPDEST PUSH0 DUP2 SWAP1 POP PUSH1 0x20 DUP3 ADD SWAP1 POP SWAP2 SWAP1 POP JUMP JUMPDEST PUSH0 PUSH2 0x25C3 DUP4 DUP4 PUSH2 0x2526 JUMP JUMPDEST PUSH1 0x20 DUP4 ADD SWAP1 POP SWAP3 SWAP2 POP POP JUMP JUMPDEST PUSH0 PUSH1 0x20 DUP3 ADD SWAP1 POP SWAP2 SWAP1 POP JUMP JUMPDEST PUSH0 PUSH2 0x25E5 DUP3 PUSH2 0x258F JUMP JUMPDEST PUSH2 0x25EF DUP2 DUP6 PUSH2 0x2599 JUMP JUMPDEST SWAP4 POP PUSH2 0x25FA DUP4 PUSH2 0x25A9 JUMP JUMPDEST DUP1 PUSH0 JUMPDEST DUP4 DUP2 LT ISZERO PUSH2 0x262A JUMPI DUP2 MLOAD PUSH2 0x2611 DUP9 DUP3 PUSH2 0x25B8 JUMP JUMPDEST SWAP8 POP PUSH2 0x261C DUP4 PUSH2 0x25CF JUMP JUMPDEST SWAP3 POP POP PUSH1 0x1 DUP2 ADD SWAP1 POP PUSH2 0x25FD JUMP JUMPDEST POP DUP6 SWAP4 POP POP POP POP SWAP3 SWAP2 POP POP JUMP JUMPDEST PUSH0 PUSH1 0x60 DUP4 ADD PUSH0 DUP4 ADD MLOAD PUSH2 0x264C PUSH0 DUP7 ADD DUP3 PUSH2 0x2565 JUMP JUMPDEST POP PUSH1 0x20 DUP4 ADD MLOAD PUSH2 0x265F PUSH1 0x20 DUP7 ADD DUP3 PUSH2 0x2580 JUMP JUMPDEST POP PUSH1 0x40 DUP4 ADD MLOAD DUP5 DUP3 SUB PUSH1 0x40 DUP7 ADD MSTORE PUSH2 0x2677 DUP3 DUP3 PUSH2 0x25DB JUMP JUMPDEST SWAP2 POP POP DUP1 SWAP2 POP POP SWAP3 SWAP2 POP POP JUMP JUMPDEST PUSH32 0x4E487B7100000000000000000000000000000000000000000000000000000000 PUSH0 MSTORE PUSH1 0x21 PUSH1 0x4 MSTORE PUSH1 0x24 PUSH0 REVERT JUMPDEST PUSH1 0x5 DUP2 LT PUSH2 0x26C2 JUMPI PUSH2 0x26C1 PUSH2 0x2684 JUMP JUMPDEST JUMPDEST POP JUMP JUMPDEST PUSH0 DUP2 SWAP1 POP PUSH2 0x26D2 DUP3 PUSH2 0x26B1 JUMP JUMPDEST SWAP2 SWAP1 POP JUMP JUMPDEST PUSH0 PUSH2 0x26E1 DUP3 PUSH2 0x26C5 JUMP JUMPDEST SWAP1 POP SWAP2 SWAP1 POP JUMP JUMPDEST PUSH2 0x26F1 DUP2 PUSH2 0x26D7 JUMP JUMPDEST DUP3 MSTORE POP POP JUMP JUMPDEST PUSH1 0x3 DUP2 LT PUSH2 0x2708 JUMPI PUSH2 0x2707 PUSH2 0x2684 JUMP JUMPDEST JUMPDEST POP JUMP JUMPDEST PUSH0 DUP2 SWAP1 POP PUSH2 0x2718 DUP3 PUSH2 0x26F7 JUMP JUMPDEST SWAP2 SWAP1 POP JUMP JUMPDEST PUSH0 PUSH2 0x2727 DUP3 PUSH2 0x270B JUMP JUMPDEST SWAP1 POP SWAP2 SWAP1 POP JUMP JUMPDEST PUSH2 0x2737 DUP2 PUSH2 0x271D JUMP JUMPDEST DUP3 MSTORE POP POP JUMP JUMPDEST PUSH0 PUSH2 0x160 DUP4 ADD PUSH0 DUP4 ADD MLOAD PUSH2 0x2753 PUSH0 DUP7 ADD DUP3 PUSH2 0x2526 JUMP JUMPDEST POP PUSH1 0x20 DUP4 ADD MLOAD DUP5 DUP3 SUB PUSH1 0x20 DUP7 ADD MSTORE PUSH2 0x276B DUP3 DUP3 PUSH2 0x2637 JUMP JUMPDEST SWAP2 POP POP PUSH1 0x40 DUP4 ADD MLOAD PUSH2 0x2780 PUSH1 0x40 DUP7 ADD DUP3 PUSH2 0x2565 JUMP JUMPDEST POP PUSH1 0x60 DUP4 ADD MLOAD PUSH2 0x2793 PUSH1 0x60 DUP7 ADD DUP3 PUSH2 0x2526 JUMP JUMPDEST POP PUSH1 0x80 DUP4 ADD MLOAD PUSH2 0x27A6 PUSH1 0x80 DUP7 ADD DUP3 PUSH2 0x2526 JUMP JUMPDEST POP PUSH1 0xA0 DUP4 ADD MLOAD PUSH2 0x27B9 PUSH1 0xA0 DUP7 ADD DUP3 PUSH2 0x2526 JUMP JUMPDEST POP PUSH1 0xC0 DUP4 ADD MLOAD PUSH2 0x27CC PUSH1 0xC0 DUP7 ADD DUP3 PUSH2 0x2526 JUMP JUMPDEST POP PUSH1 0xE0 DUP4 ADD MLOAD PUSH2 0x27DF PUSH1 0xE0 DUP7 ADD DUP3 PUSH2 0x2526 JUMP JUMPDEST POP PUSH2 0x100 DUP4 ADD MLOAD PUSH2 0x27F4 PUSH2 0x100 DUP7 ADD DUP3 PUSH2 0x2526 JUMP JUMPDEST POP PUSH2 0x120 DUP4 ADD MLOAD PUSH2 0x2809 PUSH2 0x120 DUP7 ADD DUP3 PUSH2 0x26E8 JUMP JUMPDEST POP PUSH2 0x140 DUP4 ADD MLOAD PUSH2 0x281E PUSH2 0x140 DUP7 ADD DUP3 PUSH2 0x272E JUMP JUMPDEST POP DUP1 SWAP2 POP POP SWAP3 SWAP2 POP POP JUMP JUMPDEST PUSH0 PUSH2 0x2834 DUP4 DUP4 PUSH2 0x273D JUMP JUMPDEST SWAP1 POP SWAP3 SWAP2 POP POP JUMP JUMPDEST PUSH0 PUSH1 0x20 DUP3 ADD SWAP1 POP SWAP2 SWAP1 POP JUMP JUMPDEST PUSH0 PUSH2 0x2852 DUP3 PUSH2 0x24FD JUMP JUMPDEST PUSH2 0x285C DUP2 DUP6 PUSH2 0x2507 JUMP JUMPDEST SWAP4 POP DUP4 PUSH1 0x20 DUP3 MUL DUP6 ADD PUSH2 0x286E DUP6 PUSH2 0x2517 JUMP JUMPDEST DUP1 PUSH0 JUMPDEST DUP6 DUP2 LT ISZERO PUSH2 0x28A9 JUMPI DUP5 DUP5 SUB DUP10 MSTORE DUP2 MLOAD PUSH2 0x288A DUP6 DUP3 PUSH2 0x2829 JUMP JUMPDEST SWAP5 POP PUSH2 0x2895 DUP4 PUSH2 0x283C JUMP JUMPDEST SWAP3 POP PUSH1 0x20 DUP11 ADD SWAP10 POP POP PUSH1 0x1 DUP2 ADD SWAP1 POP PUSH2 0x2871 JUMP JUMPDEST POP DUP3 SWAP8 POP DUP8 SWAP6 POP POP POP POP POP POP SWAP3 SWAP2 POP POP JUMP JUMPDEST PUSH0 PUSH1 0x20 DUP3 ADD SWAP1 POP DUP2 DUP2 SUB PUSH0 DUP4 ADD MSTORE PUSH2 0x28D3 DUP2 DUP5 PUSH2 0x2848 JUMP JUMPDEST SWAP1 POP SWAP3 SWAP2 POP POP JUMP JUMPDEST PUSH1 0x3 DUP2 LT PUSH2 0x28E7 JUMPI PUSH0 PUSH0 REVERT JUMPDEST POP JUMP JUMPDEST PUSH0 DUP2 CALLDATALOAD SWAP1 POP PUSH2 0x28F8 DUP2 PUSH2 0x28DB JUMP JUMPDEST SWAP3 SWAP2 POP POP JUMP JUMPDEST PUSH0 PUSH1 0x20 DUP3 DUP5 SUB SLT ISZERO PUSH2 0x2913 JUMPI PUSH2 0x2912 PUSH2 0x249B JUMP JUMPDEST JUMPDEST PUSH0 PUSH2 0x2920 DUP5 DUP3 DUP6 ADD PUSH2 0x28EA JUMP JUMPDEST SWAP2 POP POP SWAP3 SWAP2 POP POP JUMP JUMPDEST PUSH0 PUSH0 PUSH1 0x40 DUP4 DUP6 SUB SLT ISZERO PUSH2 0x293F JUMPI PUSH2 0x293E PUSH2 0x249B JUMP JUMPDEST JUMPDEST PUSH0 PUSH2 0x294C DUP6 DUP3 DUP7 ADD PUSH2 0x24BE JUMP JUMPDEST SWAP3 POP POP PUSH1 0x20 PUSH2 0x295D DUP6 DUP3 DUP7 ADD PUSH2 0x28EA JUMP JUMPDEST SWAP2 POP POP SWAP3 POP SWAP3 SWAP1 POP JUMP JUMPDEST PUSH2 0x2970 DUP2 PUSH2 0x2554 JUMP JUMPDEST DUP2 EQ PUSH2 0x297A JUMPI PUSH0 PUSH0 REVERT JUMPDEST POP JUMP JUMPDEST PUSH0 DUP2 CALLDATALOAD SWAP1 POP PUSH2 0x298B DUP2 PUSH2 0x2967 JUMP JUMPDEST SWAP3 SWAP2 POP POP JUMP JUMPDEST PUSH0 PUSH1 0x20 DUP3 DUP5 SUB SLT ISZERO PUSH2 0x29A6 JUMPI PUSH2 0x29A5 PUSH2 0x249B JUMP JUMPDEST JUMPDEST PUSH0 PUSH2 0x29B3 DUP5 DUP3 DUP6 ADD PUSH2 0x297D JUMP JUMPDEST SWAP2 POP POP SWAP3 SWAP2 POP POP JUMP JUMPDEST PUSH2 0x29C5 DUP2 PUSH2 0x2554 JUMP JUMPDEST DUP3 MSTORE POP POP JUMP JUMPDEST PUSH2 0x29D4 DUP2 PUSH2 0x2574 JUMP JUMPDEST DUP3 MSTORE POP POP JUMP JUMPDEST PUSH0 PUSH1 0x40 DUP3 ADD SWAP1 POP PUSH2 0x29ED PUSH0 DUP4 ADD DUP6 PUSH2 0x29BC JUMP JUMPDEST PUSH2 0x29FA PUSH1 0x20 DUP4 ADD DUP5 PUSH2 0x29CB JUMP JUMPDEST SWAP4 SWAP3 POP POP POP JUMP JUMPDEST PUSH2 0x2A0A DUP2 PUSH2 0x249F JUMP JUMPDEST DUP3 MSTORE POP POP JUMP JUMPDEST PUSH2 0x2A19 DUP2 PUSH2 0x26D7 JUMP JUMPDEST DUP3 MSTORE POP POP JUMP JUMPDEST PUSH0 PUSH1 0x40 DUP3 ADD SWAP1 POP PUSH2 0x2A32 PUSH0 DUP4 ADD DUP6 PUSH2 0x2A01 JUMP JUMPDEST PUSH2 0x2A3F PUSH1 0x20 DUP4 ADD DUP5 PUSH2 0x2A10 JUMP JUMPDEST SWAP4 SWAP3 POP POP POP JUMP JUMPDEST PUSH0 PUSH1 0x60 DUP4 ADD PUSH0 DUP4 ADD MLOAD PUSH2 0x2A5B PUSH0 DUP7 ADD DUP3 PUSH2 0x2565 JUMP JUMPDEST POP PUSH1 0x20 DUP4 ADD MLOAD PUSH2 0x2A6E PUSH1 0x20 DUP7 ADD DUP3 PUSH2 0x2580 JUMP JUMPDEST POP PUSH1 0x40 DUP4 ADD MLOAD DUP5 DUP3 SUB PUSH1 0x40 DUP7 ADD MSTORE PUSH2 0x2A86 DUP3 DUP3 PUSH2 0x25DB JUMP JUMPDEST SWAP2 POP POP DUP1 SWAP2 POP POP SWAP3 SWAP2 POP POP JUMP JUMPDEST PUSH2 0x2A9C DUP2 PUSH2 0x271D JUMP JUMPDEST DUP3 MSTORE POP POP JUMP JUMPDEST PUSH0 PUSH2 0x160 DUP3 ADD SWAP1 POP PUSH2 0x2AB6 PUSH0 DUP4 ADD DUP15 PUSH2 0x2A01 JUMP JUMPDEST DUP2 DUP2 SUB PUSH1 0x20 DUP4 ADD MSTORE PUSH2 0x2AC8 DUP2 DUP14 PUSH2 0x2A46 JUMP JUMPDEST SWAP1 POP PUSH2 0x2AD7 PUSH1 0x40 DUP4 ADD DUP13 PUSH2 0x29BC JUMP JUMPDEST PUSH2 0x2AE4 PUSH1 0x60 DUP4 ADD DUP12 PUSH2 0x2A01 JUMP JUMPDEST PUSH2 0x2AF1 PUSH1 0x80 DUP4 ADD DUP11 PUSH2 0x2A01 JUMP JUMPDEST PUSH2 0x2AFE PUSH1 0xA0 DUP4 ADD DUP10 PUSH2 0x2A01 JUMP JUMPDEST PUSH2 0x2B0B PUSH1 0xC0 DUP4 ADD DUP9 PUSH2 0x2A01 JUMP JUMPDEST PUSH2 0x2B18 PUSH1 0xE0 DUP4 ADD DUP8 PUSH2 0x2A01 JUMP JUMPDEST PUSH2 0x2B26 PUSH2 0x100 DUP4 ADD DUP7 PUSH2 0x2A01 JUMP JUMPDEST PUSH2 0x2B34 PUSH2 0x120 DUP4 ADD DUP6 PUSH2 0x2A10 JUMP JUMPDEST PUSH2 0x2B42 PUSH2 0x140 DUP4 ADD DUP5 PUSH2 0x2A93 JUMP JUMPDEST SWAP13 SWAP12 POP POP POP POP POP POP POP POP POP POP POP POP JUMP JUMPDEST PUSH0 PUSH0 PUSH1 0x40 DUP4 DUP6 SUB SLT ISZERO PUSH2 0x2B68 JUMPI PUSH2 0x2B67 PUSH2 0x249B JUMP JUMPDEST JUMPDEST PUSH0 PUSH2 0x2B75 DUP6 DUP3 DUP7 ADD PUSH2 0x297D JUMP JUMPDEST SWAP3 POP POP PUSH1 0x20 PUSH2 0x2B86 DUP6 DUP3 DUP7 ADD PUSH2 0x24BE JUMP JUMPDEST SWAP2 POP POP SWAP3 POP SWAP3 SWAP1 POP JUMP JUMPDEST PUSH0 PUSH1 0x20 DUP3 ADD SWAP1 POP PUSH2 0x2BA3 PUSH0 DUP4 ADD DUP5 PUSH2 0x2A01 JUMP JUMPDEST SWAP3 SWAP2 POP POP JUMP JUMPDEST PUSH0 DUP3 DUP3 MSTORE PUSH1 0x20 DUP3 ADD SWAP1 POP SWAP3 SWAP2 POP POP JUMP JUMPDEST PUSH32 0x4C6F616E206E6F7420666F756E64000000000000000000000000000000000000 PUSH0 DUP3 ADD MSTORE POP JUMP JUMPDEST PUSH0 PUSH2 0x2BED PUSH1 0xE DUP4 PUSH2 0x2BA9 JUMP JUMPDEST SWAP2 POP PUSH2 0x2BF8 DUP3 PUSH2 0x2BB9 JUMP JUMPDEST PUSH1 0x20 DUP3 ADD SWAP1 POP SWAP2 SWAP1 POP JUMP JUMPDEST PUSH0 PUSH1 0x20 DUP3 ADD SWAP1 POP DUP2 DUP2 SUB PUSH0 DUP4 ADD MSTORE PUSH2 0x2C1A DUP2 PUSH2 0x2BE1 JUMP JUMPDEST SWAP1 POP SWAP2 SWAP1 POP JUMP JUMPDEST PUSH32 0x54686973206C6F616E20646F65736E2774206E6565642066756E64696E670000 PUSH0 DUP3 ADD MSTORE POP JUMP JUMPDEST PUSH0 PUSH2 0x2C55 PUSH1 0x1E DUP4 PUSH2 0x2BA9 JUMP JUMPDEST SWAP2 POP PUSH2 0x2C60 DUP3 PUSH2 0x2C21 JUMP JUMPDEST PUSH1 0x20 DUP3 ADD SWAP1 POP SWAP2 SWAP1 POP JUMP JUMPDEST PUSH0 PUSH1 0x20 DUP3 ADD SWAP1 POP DUP2 DUP2 SUB PUSH0 DUP4 ADD MSTORE PUSH2 0x2C82 DUP2 PUSH2 0x2C49 JUMP JUMPDEST SWAP1 POP SWAP2 SWAP1 POP JUMP JUMPDEST PUSH32 0x54686520616D6F756E742073656E7420646F6573206E6F74206D617463682074 PUSH0 DUP3 ADD MSTORE PUSH32 0x686520726571756573746564206C6F616E20616D6F756E740000000000000000 PUSH1 0x20 DUP3 ADD MSTORE POP JUMP JUMPDEST PUSH0 PUSH2 0x2CE3 PUSH1 0x38 DUP4 PUSH2 0x2BA9 JUMP JUMPDEST SWAP2 POP PUSH2 0x2CEE DUP3 PUSH2 0x2C89 JUMP JUMPDEST PUSH1 0x40 DUP3 ADD SWAP1 POP SWAP2 SWAP1 POP JUMP JUMPDEST PUSH0 PUSH1 0x20 DUP3 ADD SWAP1 POP DUP2 DUP2 SUB PUSH0 DUP4 ADD MSTORE PUSH2 0x2D10 DUP2 PUSH2 0x2CD7 JUMP JUMPDEST SWAP1 POP SWAP2 SWAP1 POP JUMP JUMPDEST PUSH32 0x4C656E64657220616E6420626F72726F7765722063616E6E6F74206265207468 PUSH0 DUP3 ADD MSTORE PUSH32 0x652073616D650000000000000000000000000000000000000000000000000000 PUSH1 0x20 DUP3 ADD MSTORE POP JUMP JUMPDEST PUSH0 PUSH2 0x2D71 PUSH1 0x26 DUP4 PUSH2 0x2BA9 JUMP JUMPDEST SWAP2 POP PUSH2 0x2D7C DUP3 PUSH2 0x2D17 JUMP JUMPDEST PUSH1 0x40 DUP3 ADD SWAP1 POP SWAP2 SWAP1 POP JUMP JUMPDEST PUSH0 PUSH1 0x20 DUP3 ADD SWAP1 POP DUP2 DUP2 SUB PUSH0 DUP4 ADD MSTORE PUSH2 0x2D9E DUP2 PUSH2 0x2D65 JUMP JUMPDEST SWAP1 POP SWAP2 SWAP1 POP JUMP JUMPDEST PUSH32 0x4E487B7100000000000000000000000000000000000000000000000000000000 PUSH0 MSTORE PUSH1 0x11 PUSH1 0x4 MSTORE PUSH1 0x24 PUSH0 REVERT JUMPDEST PUSH0 PUSH2 0x2DDC DUP3 PUSH2 0x249F JUMP JUMPDEST SWAP2 POP PUSH2 0x2DE7 DUP4 PUSH2 0x249F JUMP JUMPDEST SWAP3 POP DUP3 DUP3 MUL PUSH2 0x2DF5 DUP2 PUSH2 0x249F JUMP JUMPDEST SWAP2 POP DUP3 DUP3 DIV DUP5 EQ DUP4 ISZERO OR PUSH2 0x2E0C JUMPI PUSH2 0x2E0B PUSH2 0x2DA5 JUMP JUMPDEST JUMPDEST POP SWAP3 SWAP2 POP POP JUMP JUMPDEST PUSH0 PUSH2 0x2E1D DUP3 PUSH2 0x249F JUMP JUMPDEST SWAP2 POP PUSH2 0x2E28 DUP4 PUSH2 0x249F JUMP JUMPDEST SWAP3 POP DUP3 DUP3 ADD SWAP1 POP DUP1 DUP3 GT ISZERO PUSH2 0x2E40 JUMPI PUSH2 0x2E3F PUSH2 0x2DA5 JUMP JUMPDEST JUMPDEST SWAP3 SWAP2 POP POP JUMP JUMPDEST PUSH0 PUSH1 0xC0 DUP3 ADD SWAP1 POP PUSH2 0x2E59 PUSH0 DUP4 ADD DUP10 PUSH2 0x2A01 JUMP JUMPDEST PUSH2 0x2E66 PUSH1 0x20 DUP4 ADD DUP9 PUSH2 0x29BC JUMP JUMPDEST PUSH2 0x2E73 PUSH1 0x40 DUP4 ADD DUP8 PUSH2 0x29BC JUMP JUMPDEST PUSH2 0x2E80 PUSH1 0x60 DUP4 ADD DUP7 PUSH2 0x2A01 JUMP JUMPDEST PUSH2 0x2E8D PUSH1 0x80 DUP4 ADD DUP6 PUSH2 0x2A01 JUMP JUMPDEST PUSH2 0x2E9A PUSH1 0xA0 DUP4 ADD DUP5 PUSH2 0x2A01 JUMP JUMPDEST SWAP8 SWAP7 POP POP POP POP POP POP POP JUMP JUMPDEST PUSH0 PUSH2 0x2EAF DUP3 PUSH2 0x249F JUMP JUMPDEST SWAP2 POP PUSH2 0x2EBA DUP4 PUSH2 0x249F JUMP JUMPDEST SWAP3 POP DUP3 DUP3 SUB SWAP1 POP DUP2 DUP2 GT ISZERO PUSH2 0x2ED2 JUMPI PUSH2 0x2ED1 PUSH2 0x2DA5 JUMP JUMPDEST JUMPDEST SWAP3 SWAP2 POP POP JUMP JUMPDEST PUSH32 0x4E487B7100000000000000000000000000000000000000000000000000000000 PUSH0 MSTORE PUSH1 0x32 PUSH1 0x4 MSTORE PUSH1 0x24 PUSH0 REVERT JUMPDEST PUSH0 PUSH2 0x2F0F DUP3 PUSH2 0x249F JUMP JUMPDEST SWAP2 POP PUSH32 0xFFFFFFFFFFFFFFFFFFFFFFFFFFFFFFFFFFFFFFFFFFFFFFFFFFFFFFFFFFFFFFFF DUP3 SUB PUSH2 0x2F41 JUMPI PUSH2 0x2F40 PUSH2 0x2DA5 JUMP JUMPDEST JUMPDEST PUSH1 0x1 DUP3 ADD SWAP1 POP SWAP2 SWAP1 POP JUMP JUMPDEST PUSH32 0x4E487B7100000000000000000000000000000000000000000000000000000000 PUSH0 MSTORE PUSH1 0x41 PUSH1 0x4 MSTORE PUSH1 0x24 PUSH0 REVERT JUMPDEST PUSH32 0x546865206C6F616E20616D6F756E74206D757374206265206772656174657220 PUSH0 DUP3 ADD MSTORE PUSH32 0x7468616E207A65726F0000000000000000000000000000000000000000000000 PUSH1 0x20 DUP3 ADD MSTORE POP JUMP JUMPDEST PUSH0 PUSH2 0x2FD3 PUSH1 0x29 DUP4 PUSH2 0x2BA9 JUMP JUMPDEST SWAP2 POP PUSH2 0x2FDE DUP3 PUSH2 0x2F79 JUMP JUMPDEST PUSH1 0x40 DUP3 ADD SWAP1 POP SWAP2 SWAP1 POP JUMP JUMPDEST PUSH0 PUSH1 0x20 DUP3 ADD SWAP1 POP DUP2 DUP2 SUB PUSH0 DUP4 ADD MSTORE PUSH2 0x3000 DUP2 PUSH2 0x2FC7 JUMP JUMPDEST SWAP1 POP SWAP2 SWAP1 POP JUMP JUMPDEST PUSH32 0x4C6F616E206C696D697420726561636865642C20706C65617365207761697420 PUSH0 DUP3 ADD MSTORE PUSH32 0x666F722061206C6F616E20746F20636C6F73652E000000000000000000000000 PUSH1 0x20 DUP3 ADD MSTORE POP JUMP JUMPDEST PUSH0 PUSH2 0x3061 PUSH1 0x34 DUP4 PUSH2 0x2BA9 JUMP JUMPDEST SWAP2 POP PUSH2 0x306C DUP3 PUSH2 0x3007 JUMP JUMPDEST PUSH1 0x40 DUP3 ADD SWAP1 POP SWAP2 SWAP1 POP JUMP JUMPDEST PUSH0 PUSH1 0x20 DUP3 ADD SWAP1 POP DUP2 DUP2 SUB PUSH0 DUP4 ADD MSTORE PUSH2 0x308E DUP2 PUSH2 0x3055 JUMP JUMPDEST SWAP1 POP SWAP2 SWAP1 POP JUMP JUMPDEST PUSH32 0x596F752063616E6E6F7420726571756573742061206E6577206C6F616E206966 PUSH0 DUP3 ADD MSTORE PUSH32 0x20796F7520686176652070656E64696E672C206163746976652C206F72206F76 PUSH1 0x20 DUP3 ADD MSTORE PUSH32 0x6572647565206C6F616E732E0000000000000000000000000000000000000000 PUSH1 0x40 DUP3 ADD MSTORE POP JUMP JUMPDEST PUSH0 PUSH2 0x3115 PUSH1 0x4C DUP4 PUSH2 0x2BA9 JUMP JUMPDEST SWAP2 POP PUSH2 0x3120 DUP3 PUSH2 0x3095 JUMP JUMPDEST PUSH1 0x60 DUP3 ADD SWAP1 POP SWAP2 SWAP1 POP JUMP JUMPDEST PUSH0 PUSH1 0x20 DUP3 ADD SWAP1 POP DUP2 DUP2 SUB PUSH0 DUP4 ADD MSTORE PUSH2 0x3142 DUP2 PUSH2 0x3109 JUMP JUMPDEST SWAP1 POP SWAP2 SWAP1 POP JUMP JUMPDEST PUSH0 PUSH1 0x60 DUP3 ADD SWAP1 POP PUSH2 0x315C PUSH0 DUP4 ADD DUP7 PUSH2 0x2A01 JUMP JUMPDEST PUSH2 0x3169 PUSH1 0x20 DUP4 ADD DUP6 PUSH2 0x2A10 JUMP JUMPDEST PUSH2 0x3176 PUSH1 0x40 DUP4 ADD DUP5 PUSH2 0x2A93 JUMP JUMPDEST SWAP5 SWAP4 POP POP POP POP JUMP JUMPDEST PUSH32 0x4F6E6C792074686520626F72726F7765722063616E2072657061792074686973 PUSH0 DUP3 ADD MSTORE PUSH32 0x206C6F616E000000000000000000000000000000000000000000000000000000 PUSH1 0x20 DUP3 ADD MSTORE POP JUMP JUMPDEST PUSH0 PUSH2 0x31D8 PUSH1 0x25 DUP4 PUSH2 0x2BA9 JUMP JUMPDEST SWAP2 POP PUSH2 0x31E3 DUP3 PUSH2 0x317E JUMP JUMPDEST PUSH1 0x40 DUP3 ADD SWAP1 POP SWAP2 SWAP1 POP JUMP JUMPDEST PUSH0 PUSH1 0x20 DUP3 ADD SWAP1 POP DUP2 DUP2 SUB PUSH0 DUP4 ADD MSTORE PUSH2 0x3205 DUP2 PUSH2 0x31CC JUMP JUMPDEST SWAP1 POP SWAP2 SWAP1 POP JUMP JUMPDEST PUSH32 0x5468657265206973206E6F206C6F616E20746F20726570617900000000000000 PUSH0 DUP3 ADD MSTORE POP JUMP JUMPDEST PUSH0 PUSH2 0x3240 PUSH1 0x19 DUP4 PUSH2 0x2BA9 JUMP JUMPDEST SWAP2 POP PUSH2 0x324B DUP3 PUSH2 0x320C JUMP JUMPDEST PUSH1 0x20 DUP3 ADD SWAP1 POP SWAP2 SWAP1 POP JUMP JUMPDEST PUSH0 PUSH1 0x20 DUP3 ADD SWAP1 POP DUP2 DUP2 SUB PUSH0 DUP4 ADD MSTORE PUSH2 0x326D DUP2 PUSH2 0x3234 JUMP JUMPDEST SWAP1 POP SWAP2 SWAP1 POP JUMP JUMPDEST PUSH0 PUSH2 0x327E DUP3 PUSH2 0x2574 JUMP JUMPDEST SWAP2 POP PUSH2 0x3289 DUP4 PUSH2 0x2574 JUMP JUMPDEST SWAP3 POP DUP3 DUP3 ADD SWAP1 POP PUSH1 0xFF DUP2 GT ISZERO PUSH2 0x32A2 JUMPI PUSH2 0x32A1 PUSH2 0x2DA5 JUMP JUMPDEST JUMPDEST SWAP3 SWAP2 POP POP JUMP JUMPDEST PUSH0 PUSH2 0x32B2 DUP3 PUSH2 0x2574 JUMP JUMPDEST SWAP2 POP PUSH2 0x32BD DUP4 PUSH2 0x2574 JUMP JUMPDEST SWAP3 POP DUP3 DUP3 SUB SWAP1 POP PUSH1 0xFF DUP2 GT ISZERO PUSH2 0x32D6 JUMPI PUSH2 0x32D5 PUSH2 0x2DA5 JUMP JUMPDEST JUMPDEST SWAP3 SWAP2 POP POP JUMP JUMPDEST PUSH32 0x496E73756666696369656E742066756E647320746F2072657061792074686520 PUSH0 DUP3 ADD MSTORE PUSH32 0x6F766572647565206C6F616E0000000000000000000000000000000000000000 PUSH1 0x20 DUP3 ADD MSTORE POP JUMP JUMPDEST PUSH0 PUSH2 0x3336 PUSH1 0x2C DUP4 PUSH2 0x2BA9 JUMP JUMPDEST SWAP2 POP PUSH2 0x3341 DUP3 PUSH2 0x32DC JUMP JUMPDEST PUSH1 0x40 DUP3 ADD SWAP1 POP SWAP2 SWAP1 POP JUMP JUMPDEST PUSH0 PUSH1 0x20 DUP3 ADD SWAP1 POP DUP2 DUP2 SUB PUSH0 DUP4 ADD MSTORE PUSH2 0x3363 DUP2 PUSH2 0x332A JUMP JUMPDEST SWAP1 POP SWAP2 SWAP1 POP JUMP JUMPDEST PUSH0 PUSH1 0x60 DUP3 ADD SWAP1 POP PUSH2 0x337D PUSH0 DUP4 ADD DUP7 PUSH2 0x2A01 JUMP JUMPDEST PUSH2 0x338A PUSH1 0x20 DUP4 ADD DUP6 PUSH2 0x2A10 JUMP JUMPDEST PUSH2 0x3397 PUSH1 0x40 DUP4 ADD DUP5 PUSH2 0x2A01 JUMP JUMPDEST SWAP5 SWAP4 POP POP POP POP JUMP JUMPDEST PUSH32 0x4F6E6C792074686520626F72726F7765722063616E2063616E63656C20746869 PUSH0 DUP3 ADD MSTORE PUSH32 0x73206C6F616E0000000000000000000000000000000000000000000000000000 PUSH1 0x20 DUP3 ADD MSTORE POP JUMP JUMPDEST PUSH0 PUSH2 0x33F9 PUSH1 0x26 DUP4 PUSH2 0x2BA9 JUMP JUMPDEST SWAP2 POP PUSH2 0x3404 DUP3 PUSH2 0x339F JUMP JUMPDEST PUSH1 0x40 DUP3 ADD SWAP1 POP SWAP2 SWAP1 POP JUMP JUMPDEST PUSH0 PUSH1 0x20 DUP3 ADD SWAP1 POP DUP2 DUP2 SUB PUSH0 DUP4 ADD MSTORE PUSH2 0x3426 DUP2 PUSH2 0x33ED JUMP JUMPDEST SWAP1 POP SWAP2 SWAP1 POP JUMP JUMPDEST PUSH32 0x596F7520686176656E27742072656163686564206C6F616E20696D706F727400 PUSH0 DUP3 ADD MSTORE POP JUMP JUMPDEST PUSH0 PUSH2 0x3461 PUSH1 0x1F DUP4 PUSH2 0x2BA9 JUMP JUMPDEST SWAP2 POP PUSH2 0x346C DUP3 PUSH2 0x342D JUMP JUMPDEST PUSH1 0x20 DUP3 ADD SWAP1 POP SWAP2 SWAP1 POP JUMP JUMPDEST PUSH0 PUSH1 0x20 DUP3 ADD SWAP1 POP DUP2 DUP2 SUB PUSH0 DUP4 ADD MSTORE PUSH2 0x348E DUP2 PUSH2 0x3455 JUMP JUMPDEST SWAP1 POP SWAP2 SWAP1 POP JUMP JUMPDEST PUSH32 0x4E6F206C6F616E20746F2063616E63656C2E0000000000000000000000000000 PUSH0 DUP3 ADD MSTORE POP JUMP JUMPDEST PUSH0 PUSH2 0x34C9 PUSH1 0x12 DUP4 PUSH2 0x2BA9 JUMP JUMPDEST SWAP2 POP PUSH2 0x34D4 DUP3 PUSH2 0x3495 JUMP JUMPDEST PUSH1 0x20 DUP3 ADD SWAP1 POP SWAP2 SWAP1 POP JUMP JUMPDEST PUSH0 PUSH1 0x20 DUP3 ADD SWAP1 POP DUP2 DUP2 SUB PUSH0 DUP4 ADD MSTORE PUSH2 0x34F6 DUP2 PUSH2 0x34BD JUMP JUMPDEST SWAP1 POP SWAP2 SWAP1 POP JUMP JUMPDEST PUSH32 0x5265656E7472616E637947756172643A207265656E7472616E742063616C6C00 PUSH0 DUP3 ADD MSTORE POP JUMP JUMPDEST PUSH0 PUSH2 0x3531 PUSH1 0x1F DUP4 PUSH2 0x2BA9 JUMP JUMPDEST SWAP2 POP PUSH2 0x353C DUP3 PUSH2 0x34FD JUMP JUMPDEST PUSH1 0x20 DUP3 ADD SWAP1 POP SWAP2 SWAP1 POP JUMP JUMPDEST PUSH0 PUSH1 0x20 DUP3 ADD SWAP1 POP DUP2 DUP2 SUB PUSH0 DUP4 ADD MSTORE PUSH2 0x355E DUP2 PUSH2 0x3525 JUMP JUMPDEST SWAP1 POP SWAP2 SWAP1 POP JUMP JUMPDEST PUSH32 0x496E76616C6964206C6F616E206475726174696F6E0000000000000000000000 PUSH0 DUP3 ADD MSTORE POP JUMP JUMPDEST PUSH0 PUSH2 0x3599 PUSH1 0x15 DUP4 PUSH2 0x2BA9 JUMP JUMPDEST SWAP2 POP PUSH2 0x35A4 DUP3 PUSH2 0x3565 JUMP JUMPDEST PUSH1 0x20 DUP3 ADD SWAP1 POP SWAP2 SWAP1 POP JUMP JUMPDEST PUSH0 PUSH1 0x20 DUP3 ADD SWAP1 POP DUP2 DUP2 SUB PUSH0 DUP4 ADD MSTORE PUSH2 0x35C6 DUP2 PUSH2 0x358D JUMP JUMPDEST SWAP1 POP SWAP2 SWAP1 POP JUMP JUMPDEST PUSH32 0x496E76616C6964206372656469742073636F7265000000000000000000000000 PUSH0 DUP3 ADD MSTORE POP JUMP JUMPDEST PUSH0 PUSH2 0x3601 PUSH1 0x14 DUP4 PUSH2 0x2BA9 JUMP JUMPDEST SWAP2 POP PUSH2 0x360C DUP3 PUSH2 0x35CD JUMP JUMPDEST PUSH1 0x20 DUP3 ADD SWAP1 POP SWAP2 SWAP1 POP JUMP JUMPDEST PUSH0 PUSH1 0x20 DUP3 ADD SWAP1 POP DUP2 DUP2 SUB PUSH0 DUP4 ADD MSTORE PUSH2 0x362E DUP2 PUSH2 0x35F5 JUMP JUMPDEST SWAP1 POP SWAP2 SWAP1 POP JUMP JUMPDEST PUSH32 0x4E487B7100000000000000000000000000000000000000000000000000000000 PUSH0 MSTORE PUSH1 0x12 PUSH1 0x4 MSTORE PUSH1 0x24 PUSH0 REVERT JUMPDEST PUSH0 PUSH2 0x366C DUP3 PUSH2 0x249F JUMP JUMPDEST SWAP2 POP PUSH2 0x3677 DUP4 PUSH2 0x249F JUMP JUMPDEST SWAP3 POP DUP3 PUSH2 0x3687 JUMPI PUSH2 0x3686 PUSH2 0x3635 JUMP JUMPDEST JUMPDEST DUP3 DUP3 DIV SWAP1 POP SWAP3 SWAP2 POP POP JUMP INVALID LOG2 PUSH5 0x6970667358 0x22 SLT KECCAK256 0x4D 0xB7 0xFB SDIV 0xC5 SWAP9 0xB6 0xD6 PUSH17 0xD1FB2B7E611C423D407212D8134E2FFB64 SHR EXP DUP11 DUP10 RETURNDATACOPY CALLDATACOPY PUSH5 0x736F6C6343 STOP ADDMOD SHR STOP CALLER "
				},
				"gasEstimates": {
					"creation": {
						"codeDepositCost": "2804800",
						"executionCost": "25172",
						"totalCost": "2829972"
					},
					"external": {
						"borrowerLoans(address,uint256)": "infinite",
						"cancelLoan(uint256)": "infinite",
						"getLoanFunds(uint256)": "infinite",
						"getPendingLoanByDuration(uint8)": "infinite",
						"getPendingLoanDetailsByAmount()": "infinite",
						"getPendingLoanDetailsByInterestRate()": "infinite",
						"getRepayLoanInfo(uint256)": "infinite",
						"loanBorrowers(address)": "infinite",
						"loansById(uint256)": "infinite",
						"repayLoan(uint256)": "infinite",
						"requestLoan(uint256,uint8)": "infinite"
					},
					"internal": {
						"addNewLoan(struct LoanManager.Loan memory)": "infinite",
						"checkRepayLoanInfo(uint256)": "infinite",
						"getDaysOfLoanDuration(enum LoanManager.LoanDuration)": "infinite",
						"getPendingLoansArray()": "infinite",
						"loanInterestRateCalculator(uint8)": "infinite",
						"refundExcess(uint256,address)": "infinite"
					}
				},
				"methodIdentifiers": {
					"borrowerLoans(address,uint256)": "e3ed1902",
					"cancelLoan(uint256)": "bdbfa3de",
					"getLoanFunds(uint256)": "15e303f3",
					"getPendingLoanByDuration(uint8)": "6be35c6c",
					"getPendingLoanDetailsByAmount()": "3ddce5a0",
					"getPendingLoanDetailsByInterestRate()": "1a26e0b7",
					"getRepayLoanInfo(uint256)": "d46bd137",
					"loanBorrowers(address)": "b96c5cdd",
					"loansById(uint256)": "e034f3dc",
					"repayLoan(uint256)": "ab7b1c89",
					"requestLoan(uint256,uint8)": "8f2c3655"
				}
			},
			"storageLayout": {
				"storage": [
					{
						"astId": 10,
						"contract": "LoanManager.sol:LoanManager",
						"label": "_status",
						"offset": 0,
						"slot": "0",
						"type": "t_uint256"
					},
					{
						"astId": 250,
						"contract": "LoanManager.sol:LoanManager",
						"label": "loanCounter",
						"offset": 0,
						"slot": "1",
						"type": "t_uint256"
					},
					{
						"astId": 255,
						"contract": "LoanManager.sol:LoanManager",
						"label": "loansById",
						"offset": 0,
						"slot": "2",
						"type": "t_mapping(t_uint256,t_struct(Loan)248_storage)"
					},
					{
						"astId": 260,
						"contract": "LoanManager.sol:LoanManager",
						"label": "loanBorrowers",
						"offset": 0,
						"slot": "3",
						"type": "t_mapping(t_address,t_struct(LoanBorrower)222_storage)"
					},
					{
						"astId": 265,
						"contract": "LoanManager.sol:LoanManager",
						"label": "borrowerLoans",
						"offset": 0,
						"slot": "4",
						"type": "t_mapping(t_address,t_array(t_uint256)dyn_storage)"
					}
				],
				"types": {
					"t_address": {
						"encoding": "inplace",
						"label": "address",
						"numberOfBytes": "20"
					},
					"t_array(t_uint256)dyn_storage": {
						"base": "t_uint256",
						"encoding": "dynamic_array",
						"label": "uint256[]",
						"numberOfBytes": "32"
					},
					"t_enum(LoanDuration)214": {
						"encoding": "inplace",
						"label": "enum LoanManager.LoanDuration",
						"numberOfBytes": "1"
					},
					"t_enum(LoanStatus)210": {
						"encoding": "inplace",
						"label": "enum LoanManager.LoanStatus",
						"numberOfBytes": "1"
					},
					"t_mapping(t_address,t_array(t_uint256)dyn_storage)": {
						"encoding": "mapping",
						"key": "t_address",
						"label": "mapping(address => uint256[])",
						"numberOfBytes": "32",
						"value": "t_array(t_uint256)dyn_storage"
					},
					"t_mapping(t_address,t_struct(LoanBorrower)222_storage)": {
						"encoding": "mapping",
						"key": "t_address",
						"label": "mapping(address => struct LoanManager.LoanBorrower)",
						"numberOfBytes": "32",
						"value": "t_struct(LoanBorrower)222_storage"
					},
					"t_mapping(t_uint256,t_struct(Loan)248_storage)": {
						"encoding": "mapping",
						"key": "t_uint256",
						"label": "mapping(uint256 => struct LoanManager.Loan)",
						"numberOfBytes": "32",
						"value": "t_struct(Loan)248_storage"
					},
					"t_struct(Loan)248_storage": {
						"encoding": "inplace",
						"label": "struct LoanManager.Loan",
						"members": [
							{
								"astId": 224,
								"contract": "LoanManager.sol:LoanManager",
								"label": "loanId",
								"offset": 0,
								"slot": "0",
								"type": "t_uint256"
							},
							{
								"astId": 227,
								"contract": "LoanManager.sol:LoanManager",
								"label": "borrower",
								"offset": 0,
								"slot": "1",
								"type": "t_struct(LoanBorrower)222_storage"
							},
							{
								"astId": 229,
								"contract": "LoanManager.sol:LoanManager",
								"label": "lender",
								"offset": 0,
								"slot": "3",
								"type": "t_address"
							},
							{
								"astId": 231,
								"contract": "LoanManager.sol:LoanManager",
								"label": "amount",
								"offset": 0,
								"slot": "4",
								"type": "t_uint256"
							},
							{
								"astId": 233,
								"contract": "LoanManager.sol:LoanManager",
								"label": "interestRate",
								"offset": 0,
								"slot": "5",
								"type": "t_uint256"
							},
							{
								"astId": 235,
								"contract": "LoanManager.sol:LoanManager",
								"label": "penaltyRate",
								"offset": 0,
								"slot": "6",
								"type": "t_uint256"
							},
							{
								"astId": 237,
								"contract": "LoanManager.sol:LoanManager",
								"label": "startDate",
								"offset": 0,
								"slot": "7",
								"type": "t_uint256"
							},
							{
								"astId": 239,
								"contract": "LoanManager.sol:LoanManager",
								"label": "dueDate",
								"offset": 0,
								"slot": "8",
								"type": "t_uint256"
							},
							{
								"astId": 241,
								"contract": "LoanManager.sol:LoanManager",
								"label": "repayAmount",
								"offset": 0,
								"slot": "9",
								"type": "t_uint256"
							},
							{
								"astId": 244,
								"contract": "LoanManager.sol:LoanManager",
								"label": "status",
								"offset": 0,
								"slot": "10",
								"type": "t_enum(LoanStatus)210"
							},
							{
								"astId": 247,
								"contract": "LoanManager.sol:LoanManager",
								"label": "duration",
								"offset": 1,
								"slot": "10",
								"type": "t_enum(LoanDuration)214"
							}
						],
						"numberOfBytes": "352"
					},
					"t_struct(LoanBorrower)222_storage": {
						"encoding": "inplace",
						"label": "struct LoanManager.LoanBorrower",
						"members": [
							{
								"astId": 216,
								"contract": "LoanManager.sol:LoanManager",
								"label": "borrowerAddress",
								"offset": 0,
								"slot": "0",
								"type": "t_address"
							},
							{
								"astId": 218,
								"contract": "LoanManager.sol:LoanManager",
								"label": "creditScore",
								"offset": 20,
								"slot": "0",
								"type": "t_uint8"
							},
							{
								"astId": 221,
								"contract": "LoanManager.sol:LoanManager",
								"label": "loanHistory",
								"offset": 0,
								"slot": "1",
								"type": "t_array(t_uint256)dyn_storage"
							}
						],
						"numberOfBytes": "64"
					},
					"t_uint256": {
						"encoding": "inplace",
						"label": "uint256",
						"numberOfBytes": "32"
					},
					"t_uint8": {
						"encoding": "inplace",
						"label": "uint8",
						"numberOfBytes": "1"
					}
				}
			},
			"userdoc": {
				"kind": "user",
				"methods": {},
				"version": 1
			}
		}
	}
}