{
	"scritturatemporanea.sol": {
		"LoanManager": {
			"abi": [
				{
					"anonymous": false,
					"inputs": [
						{
							"indexed": false,
							"internalType": "uint256",
							"name": "loanId",
							"type": "uint256"
						},
						{
							"indexed": false,
							"internalType": "address",
							"name": "lender",
							"type": "address"
						},
						{
							"indexed": false,
							"internalType": "address",
							"name": "borrower",
							"type": "address"
						},
						{
							"indexed": false,
							"internalType": "uint256",
							"name": "amount",
							"type": "uint256"
						},
						{
							"indexed": false,
							"internalType": "uint256",
							"name": "startDate",
							"type": "uint256"
						},
						{
							"indexed": false,
							"internalType": "uint256",
							"name": "dueDate",
							"type": "uint256"
						}
					],
					"name": "LoanFunded",
					"type": "event"
				},
				{
					"anonymous": false,
					"inputs": [
						{
							"indexed": false,
							"internalType": "uint256",
							"name": "loanId",
							"type": "uint256"
						},
						{
							"indexed": true,
							"internalType": "address",
							"name": "borrower",
							"type": "address"
						},
						{
							"indexed": true,
							"internalType": "uint256",
							"name": "amount",
							"type": "uint256"
						},
						{
							"indexed": false,
							"internalType": "enum LoanManager.LoanStatus",
							"name": "status",
							"type": "uint8"
						},
						{
							"indexed": true,
							"internalType": "uint256",
							"name": "interestRate",
							"type": "uint256"
						}
					],
					"name": "LoanRequested",
					"type": "event"
				},
				{
					"inputs": [
						{
							"internalType": "address",
							"name": "",
							"type": "address"
						},
						{
							"internalType": "uint256",
							"name": "",
							"type": "uint256"
						}
					],
					"name": "borrowerLoans",
					"outputs": [
						{
							"internalType": "uint256",
							"name": "",
							"type": "uint256"
						}
					],
					"stateMutability": "view",
					"type": "function"
				},
				{
					"inputs": [
						{
							"internalType": "uint256",
							"name": "_loanId",
							"type": "uint256"
						}
					],
					"name": "cancelLoan",
					"outputs": [],
					"stateMutability": "payable",
					"type": "function"
				},
				{
					"inputs": [
						{
							"internalType": "uint256",
							"name": "_loanId",
							"type": "uint256"
						}
					],
					"name": "getLoanFunds",
					"outputs": [],
					"stateMutability": "payable",
					"type": "function"
				},
				{
					"inputs": [],
					"name": "getPendingLoanDetailsByAmount",
					"outputs": [
						{
							"components": [
								{
									"internalType": "uint256",
									"name": "loanId",
									"type": "uint256"
								},
								{
									"components": [
										{
											"internalType": "address",
											"name": "borrowerAddress",
											"type": "address"
										},
										{
											"internalType": "uint8",
											"name": "creditScore",
											"type": "uint8"
										},
										{
											"internalType": "uint256[]",
											"name": "loanHistory",
											"type": "uint256[]"
										}
									],
									"internalType": "struct LoanManager.LoanBorrower",
									"name": "borrower",
									"type": "tuple"
								},
								{
									"internalType": "address",
									"name": "lender",
									"type": "address"
								},
								{
									"internalType": "uint256",
									"name": "amount",
									"type": "uint256"
								},
								{
									"internalType": "uint256",
									"name": "interestRate",
									"type": "uint256"
								},
								{
									"internalType": "uint256",
									"name": "penaltyRate",
									"type": "uint256"
								},
								{
									"internalType": "uint256",
									"name": "startDate",
									"type": "uint256"
								},
								{
									"internalType": "uint256",
									"name": "dueDate",
									"type": "uint256"
								},
								{
									"internalType": "enum LoanManager.LoanStatus",
									"name": "status",
									"type": "uint8"
								}
							],
							"internalType": "struct LoanManager.Loan[]",
							"name": "",
							"type": "tuple[]"
						}
					],
					"stateMutability": "view",
					"type": "function"
				},
				{
					"inputs": [],
					"name": "getPendingLoanDetailsByInterestRate",
					"outputs": [
						{
							"components": [
								{
									"internalType": "uint256",
									"name": "loanId",
									"type": "uint256"
								},
								{
									"components": [
										{
											"internalType": "address",
											"name": "borrowerAddress",
											"type": "address"
										},
										{
											"internalType": "uint8",
											"name": "creditScore",
											"type": "uint8"
										},
										{
											"internalType": "uint256[]",
											"name": "loanHistory",
											"type": "uint256[]"
										}
									],
									"internalType": "struct LoanManager.LoanBorrower",
									"name": "borrower",
									"type": "tuple"
								},
								{
									"internalType": "address",
									"name": "lender",
									"type": "address"
								},
								{
									"internalType": "uint256",
									"name": "amount",
									"type": "uint256"
								},
								{
									"internalType": "uint256",
									"name": "interestRate",
									"type": "uint256"
								},
								{
									"internalType": "uint256",
									"name": "penaltyRate",
									"type": "uint256"
								},
								{
									"internalType": "uint256",
									"name": "startDate",
									"type": "uint256"
								},
								{
									"internalType": "uint256",
									"name": "dueDate",
									"type": "uint256"
								},
								{
									"internalType": "enum LoanManager.LoanStatus",
									"name": "status",
									"type": "uint8"
								}
							],
							"internalType": "struct LoanManager.Loan[]",
							"name": "",
							"type": "tuple[]"
						}
					],
					"stateMutability": "view",
					"type": "function"
				},
				{
					"inputs": [
						{
							"internalType": "address",
							"name": "",
							"type": "address"
						}
					],
					"name": "loanBorrowers",
					"outputs": [
						{
							"internalType": "address",
							"name": "borrowerAddress",
							"type": "address"
						},
						{
							"internalType": "uint8",
							"name": "creditScore",
							"type": "uint8"
						}
					],
					"stateMutability": "view",
					"type": "function"
				},
				{
					"inputs": [
						{
							"internalType": "uint256",
							"name": "",
							"type": "uint256"
						}
					],
					"name": "loansById",
					"outputs": [
						{
							"internalType": "uint256",
							"name": "loanId",
							"type": "uint256"
						},
						{
							"components": [
								{
									"internalType": "address",
									"name": "borrowerAddress",
									"type": "address"
								},
								{
									"internalType": "uint8",
									"name": "creditScore",
									"type": "uint8"
								},
								{
									"internalType": "uint256[]",
									"name": "loanHistory",
									"type": "uint256[]"
								}
							],
							"internalType": "struct LoanManager.LoanBorrower",
							"name": "borrower",
							"type": "tuple"
						},
						{
							"internalType": "address",
							"name": "lender",
							"type": "address"
						},
						{
							"internalType": "uint256",
							"name": "amount",
							"type": "uint256"
						},
						{
							"internalType": "uint256",
							"name": "interestRate",
							"type": "uint256"
						},
						{
							"internalType": "uint256",
							"name": "penaltyRate",
							"type": "uint256"
						},
						{
							"internalType": "uint256",
							"name": "startDate",
							"type": "uint256"
						},
						{
							"internalType": "uint256",
							"name": "dueDate",
							"type": "uint256"
						},
						{
							"internalType": "enum LoanManager.LoanStatus",
							"name": "status",
							"type": "uint8"
						}
					],
					"stateMutability": "view",
					"type": "function"
				},
				{
					"inputs": [
						{
							"internalType": "uint256",
							"name": "_amount",
							"type": "uint256"
						}
					],
					"name": "requestLoan",
					"outputs": [],
					"stateMutability": "nonpayable",
					"type": "function"
				}
			],
			"devdoc": {
				"kind": "dev",
				"methods": {},
				"version": 1
			},
			"evm": {
				"assembly": "    /* \"scritturatemporanea.sol\":64:8069  contract LoanManager {... */\n  mstore(0x40, 0x80)\n  callvalue\n  dup1\n  iszero\n  tag_1\n  jumpi\n  revert(0x00, 0x00)\ntag_1:\n  pop\n  dataSize(sub_0)\n  dup1\n  dataOffset(sub_0)\n  0x00\n  codecopy\n  0x00\n  return\nstop\n\nsub_0: assembly {\n        /* \"scritturatemporanea.sol\":64:8069  contract LoanManager {... */\n      mstore(0x40, 0x80)\n      jumpi(tag_1, lt(calldatasize, 0x04))\n      shr(0xe0, calldataload(0x00))\n      dup1\n      0xb96c5cdd\n      gt\n      tag_10\n      jumpi\n      dup1\n      0xb96c5cdd\n      eq\n      tag_6\n      jumpi\n      dup1\n      0xbdbfa3de\n      eq\n      tag_7\n      jumpi\n      dup1\n      0xe034f3dc\n      eq\n      tag_8\n      jumpi\n      dup1\n      0xe3ed1902\n      eq\n      tag_9\n      jumpi\n      jump(tag_1)\n    tag_10:\n      dup1\n      0x15e303f3\n      eq\n      tag_2\n      jumpi\n      dup1\n      0x1a26e0b7\n      eq\n      tag_3\n      jumpi\n      dup1\n      0x3ddce5a0\n      eq\n      tag_4\n      jumpi\n      dup1\n      0x8d5d3429\n      eq\n      tag_5\n      jumpi\n    tag_1:\n      revert(0x00, 0x00)\n        /* \"scritturatemporanea.sol\":7210:8066  function getLoanFunds(uint256 _loanId) external payable {... */\n    tag_2:\n      tag_11\n      0x04\n      dup1\n      calldatasize\n      sub\n      dup2\n      add\n      swap1\n      tag_12\n      swap2\n      swap1\n      tag_13\n      jump\t// in\n    tag_12:\n      tag_14\n      jump\t// in\n    tag_11:\n      stop\n        /* \"scritturatemporanea.sol\":6562:7202  function getPendingLoanDetailsByInterestRate() public view returns (Loan[] memory) {... */\n    tag_3:\n      callvalue\n      dup1\n      iszero\n      tag_15\n      jumpi\n      revert(0x00, 0x00)\n    tag_15:\n      pop\n      tag_16\n      tag_17\n      jump\t// in\n    tag_16:\n      mload(0x40)\n      tag_18\n      swap2\n      swap1\n      tag_19\n      jump\t// in\n    tag_18:\n      mload(0x40)\n      dup1\n      swap2\n      sub\n      swap1\n      return\n        /* \"scritturatemporanea.sol\":5932:6554  function getPendingLoanDetailsByAmount() public view returns (Loan[] memory) {... */\n    tag_4:\n      callvalue\n      dup1\n      iszero\n      tag_20\n      jumpi\n      revert(0x00, 0x00)\n    tag_20:\n      pop\n      tag_21\n      tag_22\n      jump\t// in\n    tag_21:\n      mload(0x40)\n      tag_23\n      swap2\n      swap1\n      tag_19\n      jump\t// in\n    tag_23:\n      mload(0x40)\n      dup1\n      swap2\n      sub\n      swap1\n      return\n        /* \"scritturatemporanea.sol\":3675:5240  function requestLoan(uint256 _amount) external {... */\n    tag_5:\n      callvalue\n      dup1\n      iszero\n      tag_24\n      jumpi\n      revert(0x00, 0x00)\n    tag_24:\n      pop\n      tag_25\n      0x04\n      dup1\n      calldatasize\n      sub\n      dup2\n      add\n      swap1\n      tag_26\n      swap2\n      swap1\n      tag_13\n      jump\t// in\n    tag_26:\n      tag_27\n      jump\t// in\n    tag_25:\n      stop\n        /* \"scritturatemporanea.sol\":1031:1084  mapping(address => LoanBorrower) public loanBorrowers */\n    tag_6:\n      callvalue\n      dup1\n      iszero\n      tag_28\n      jumpi\n      revert(0x00, 0x00)\n    tag_28:\n      pop\n      tag_29\n      0x04\n      dup1\n      calldatasize\n      sub\n      dup2\n      add\n      swap1\n      tag_30\n      swap2\n      swap1\n      tag_31\n      jump\t// in\n    tag_30:\n      tag_32\n      jump\t// in\n    tag_29:\n      mload(0x40)\n      tag_33\n      swap3\n      swap2\n      swap1\n      tag_34\n      jump\t// in\n    tag_33:\n      mload(0x40)\n      dup1\n      swap2\n      sub\n      swap1\n      return\n        /* \"scritturatemporanea.sol\":5248:5897  function cancelLoan(uint256 _loanId) external payable {... */\n    tag_7:\n      tag_35\n      0x04\n      dup1\n      calldatasize\n      sub\n      dup2\n      add\n      swap1\n      tag_36\n      swap2\n      swap1\n      tag_13\n      jump\t// in\n    tag_36:\n      tag_37\n      jump\t// in\n    tag_35:\n      stop\n        /* \"scritturatemporanea.sol\":952:993  mapping(uint256 => Loan) public loansById */\n    tag_8:\n      callvalue\n      dup1\n      iszero\n      tag_38\n      jumpi\n      revert(0x00, 0x00)\n    tag_38:\n      pop\n      tag_39\n      0x04\n      dup1\n      calldatasize\n      sub\n      dup2\n      add\n      swap1\n      tag_40\n      swap2\n      swap1\n      tag_13\n      jump\t// in\n    tag_40:\n      tag_41\n      jump\t// in\n    tag_39:\n      mload(0x40)\n      tag_42\n      swap10\n      swap9\n      swap8\n      swap7\n      swap6\n      swap5\n      swap4\n      swap3\n      swap2\n      swap1\n      tag_43\n      jump\t// in\n    tag_42:\n      mload(0x40)\n      dup1\n      swap2\n      sub\n      swap1\n      return\n        /* \"scritturatemporanea.sol\":1139:1189  mapping(address => uint256[]) public borrowerLoans */\n    tag_9:\n      callvalue\n      dup1\n      iszero\n      tag_44\n      jumpi\n      revert(0x00, 0x00)\n    tag_44:\n      pop\n      tag_45\n      0x04\n      dup1\n      calldatasize\n      sub\n      dup2\n      add\n      swap1\n      tag_46\n      swap2\n      swap1\n      tag_47\n      jump\t// in\n    tag_46:\n      tag_48\n      jump\t// in\n    tag_45:\n      mload(0x40)\n      tag_49\n      swap2\n      swap1\n      tag_50\n      jump\t// in\n    tag_49:\n      mload(0x40)\n      dup1\n      swap2\n      sub\n      swap1\n      return\n        /* \"scritturatemporanea.sol\":7210:8066  function getLoanFunds(uint256 _loanId) external payable {... */\n    tag_14:\n        /* \"scritturatemporanea.sol\":7277:7294  Loan storage loan */\n      0x00\n        /* \"scritturatemporanea.sol\":7297:7306  loansById */\n      0x01\n        /* \"scritturatemporanea.sol\":7297:7315  loansById[_loanId] */\n      0x00\n        /* \"scritturatemporanea.sol\":7307:7314  _loanId */\n      dup4\n        /* \"scritturatemporanea.sol\":7297:7315  loansById[_loanId] */\n      dup2\n      mstore\n      0x20\n      add\n      swap1\n      dup2\n      mstore\n      0x20\n      add\n      0x00\n      keccak256\n        /* \"scritturatemporanea.sol\":7277:7315  Loan storage loan = loansById[_loanId] */\n      swap1\n      pop\n        /* \"scritturatemporanea.sol\":7326:7342  address borrower */\n      0x00\n        /* \"scritturatemporanea.sol\":7345:7349  loan */\n      dup2\n        /* \"scritturatemporanea.sol\":7345:7358  loan.borrower */\n      0x01\n      add\n        /* \"scritturatemporanea.sol\":7345:7374  loan.borrower.borrowerAddress */\n      0x00\n      add\n      0x00\n      swap1\n      sload\n      swap1\n      0x0100\n      exp\n      swap1\n      div\n      0xffffffffffffffffffffffffffffffffffffffff\n      and\n        /* \"scritturatemporanea.sol\":7326:7374  address borrower = loan.borrower.borrowerAddress */\n      swap1\n      pop\n        /* \"scritturatemporanea.sol\":7410:7417  _loanId */\n      dup3\n        /* \"scritturatemporanea.sol\":7395:7399  loan */\n      dup3\n        /* \"scritturatemporanea.sol\":7395:7406  loan.loanId */\n      0x00\n      add\n      sload\n        /* \"scritturatemporanea.sol\":7395:7417  loan.loanId == _loanId */\n      eq\n        /* \"scritturatemporanea.sol\":7387:7436  require(loan.loanId == _loanId, \"Loan not found\") */\n      tag_52\n      jumpi\n      mload(0x40)\n      0x08c379a000000000000000000000000000000000000000000000000000000000\n      dup2\n      mstore\n      0x04\n      add\n      tag_53\n      swap1\n      tag_54\n      jump\t// in\n    tag_53:\n      mload(0x40)\n      dup1\n      swap2\n      sub\n      swap1\n      revert\n    tag_52:\n        /* \"scritturatemporanea.sol\":7470:7488  LoanStatus.Pending */\n      0x01\n        /* \"scritturatemporanea.sol\":7455:7488  loan.status == LoanStatus.Pending */\n      0x04\n      dup2\n      gt\n      iszero\n      tag_55\n      jumpi\n      tag_56\n      tag_57\n      jump\t// in\n    tag_56:\n    tag_55:\n        /* \"scritturatemporanea.sol\":7455:7459  loan */\n      dup3\n        /* \"scritturatemporanea.sol\":7455:7466  loan.status */\n      0x09\n      add\n      0x00\n      swap1\n      sload\n      swap1\n      0x0100\n      exp\n      swap1\n      div\n      0xff\n      and\n        /* \"scritturatemporanea.sol\":7455:7488  loan.status == LoanStatus.Pending */\n      0x04\n      dup2\n      gt\n      iszero\n      tag_58\n      jumpi\n      tag_59\n      tag_57\n      jump\t// in\n    tag_59:\n    tag_58:\n      eq\n        /* \"scritturatemporanea.sol\":7447:7523  require(loan.status == LoanStatus.Pending, \"This loan doesn't need funding\") */\n      tag_60\n      jumpi\n      mload(0x40)\n      0x08c379a000000000000000000000000000000000000000000000000000000000\n      dup2\n      mstore\n      0x04\n      add\n      tag_61\n      swap1\n      tag_62\n      jump\t// in\n    tag_61:\n      mload(0x40)\n      dup1\n      swap2\n      sub\n      swap1\n      revert\n    tag_60:\n        /* \"scritturatemporanea.sol\":7555:7559  loan */\n      dup2\n        /* \"scritturatemporanea.sol\":7555:7566  loan.amount */\n      0x04\n      add\n      sload\n        /* \"scritturatemporanea.sol\":7542:7551  msg.value */\n      callvalue\n        /* \"scritturatemporanea.sol\":7542:7566  msg.value == loan.amount */\n      eq\n        /* \"scritturatemporanea.sol\":7534:7627  require(msg.value == loan.amount, \"The amount sent does not match the requested loan amount\") */\n      tag_63\n      jumpi\n      mload(0x40)\n      0x08c379a000000000000000000000000000000000000000000000000000000000\n      dup2\n      mstore\n      0x04\n      add\n      tag_64\n      swap1\n      tag_65\n      jump\t// in\n    tag_64:\n      mload(0x40)\n      dup1\n      swap2\n      sub\n      swap1\n      revert\n    tag_63:\n        /* \"scritturatemporanea.sol\":7658:7668  msg.sender */\n      caller\n        /* \"scritturatemporanea.sol\":7646:7668  borrower != msg.sender */\n      0xffffffffffffffffffffffffffffffffffffffff\n      and\n        /* \"scritturatemporanea.sol\":7646:7654  borrower */\n      dup2\n        /* \"scritturatemporanea.sol\":7646:7668  borrower != msg.sender */\n      0xffffffffffffffffffffffffffffffffffffffff\n      and\n      sub\n        /* \"scritturatemporanea.sol\":7638:7711  require(borrower != msg.sender, \"Lender and borrower cannot be the same\") */\n      tag_66\n      jumpi\n      mload(0x40)\n      0x08c379a000000000000000000000000000000000000000000000000000000000\n      dup2\n      mstore\n      0x04\n      add\n      tag_67\n      swap1\n      tag_68\n      jump\t// in\n    tag_67:\n      mload(0x40)\n      dup1\n      swap2\n      sub\n      swap1\n      revert\n    tag_66:\n        /* \"scritturatemporanea.sol\":7738:7748  msg.sender */\n      caller\n        /* \"scritturatemporanea.sol\":7724:7728  loan */\n      dup3\n        /* \"scritturatemporanea.sol\":7724:7735  loan.lender */\n      0x03\n      add\n      0x00\n        /* \"scritturatemporanea.sol\":7724:7748  loan.lender = msg.sender */\n      0x0100\n      exp\n      dup2\n      sload\n      dup2\n      0xffffffffffffffffffffffffffffffffffffffff\n      mul\n      not\n      and\n      swap1\n      dup4\n      0xffffffffffffffffffffffffffffffffffffffff\n      and\n      mul\n      or\n      swap1\n      sstore\n      pop\n        /* \"scritturatemporanea.sol\":7776:7791  block.timestamp */\n      timestamp\n        /* \"scritturatemporanea.sol\":7759:7763  loan */\n      dup3\n        /* \"scritturatemporanea.sol\":7759:7773  loan.startDate */\n      0x07\n      add\n        /* \"scritturatemporanea.sol\":7759:7791  loan.startDate = block.timestamp */\n      dup2\n      swap1\n      sstore\n      pop\n        /* \"scritturatemporanea.sol\":7855:7861  1 days */\n      0x015180\n        /* \"scritturatemporanea.sol\":894:897  365 */\n      0x016d\n        /* \"scritturatemporanea.sol\":7836:7861  loanDurationDays * 1 days */\n      0xffff\n      and\n      tag_69\n      swap2\n      swap1\n      tag_70\n      jump\t// in\n    tag_69:\n        /* \"scritturatemporanea.sol\":7817:7862  block.timestamp + (loanDurationDays * 1 days) */\n      0xffffff\n      and\n        /* \"scritturatemporanea.sol\":7817:7832  block.timestamp */\n      timestamp\n        /* \"scritturatemporanea.sol\":7817:7862  block.timestamp + (loanDurationDays * 1 days) */\n      tag_71\n      swap2\n      swap1\n      tag_72\n      jump\t// in\n    tag_71:\n        /* \"scritturatemporanea.sol\":7802:7806  loan */\n      dup3\n        /* \"scritturatemporanea.sol\":7802:7814  loan.dueDate */\n      0x08\n      add\n        /* \"scritturatemporanea.sol\":7802:7862  loan.dueDate = block.timestamp + (loanDurationDays * 1 days) */\n      dup2\n      swap1\n      sstore\n      pop\n        /* \"scritturatemporanea.sol\":7887:7904  LoanStatus.Active */\n      0x00\n        /* \"scritturatemporanea.sol\":7873:7877  loan */\n      dup3\n        /* \"scritturatemporanea.sol\":7873:7884  loan.status */\n      0x09\n      add\n      0x00\n        /* \"scritturatemporanea.sol\":7873:7904  loan.status = LoanStatus.Active */\n      0x0100\n      exp\n      dup2\n      sload\n      dup2\n      0xff\n      mul\n      not\n      and\n      swap1\n      dup4\n      0x04\n      dup2\n      gt\n      iszero\n      tag_73\n      jumpi\n      tag_74\n      tag_57\n      jump\t// in\n    tag_74:\n    tag_73:\n      mul\n      or\n      swap1\n      sstore\n      pop\n        /* \"scritturatemporanea.sol\":7925:7933  borrower */\n      dup1\n        /* \"scritturatemporanea.sol\":7917:7943  payable(borrower).transfer */\n      0xffffffffffffffffffffffffffffffffffffffff\n      and\n        /* \"scritturatemporanea.sol\":7917:7954  payable(borrower).transfer(msg.value) */\n      0x08fc\n        /* \"scritturatemporanea.sol\":7944:7953  msg.value */\n      callvalue\n        /* \"scritturatemporanea.sol\":7917:7954  payable(borrower).transfer(msg.value) */\n      swap1\n      dup2\n      iszero\n      mul\n      swap1\n      mload(0x40)\n      0x00\n      mload(0x40)\n      dup1\n      dup4\n      sub\n      dup2\n      dup6\n      dup9\n      dup9\n      call\n      swap4\n      pop\n      pop\n      pop\n      pop\n      iszero\n      dup1\n      iszero\n      tag_76\n      jumpi\n      returndatacopy(0x00, 0x00, returndatasize)\n      revert(0x00, returndatasize)\n    tag_76:\n      pop\n        /* \"scritturatemporanea.sol\":7972:8058  LoanFunded(loan.loanId, msg.sender, borrower, msg.value, loan.startDate, loan.dueDate) */\n      0x8aa0da3f068a2cb6c8967ae3dcba3c1e23f4035d737fd9cb63fb331e85176051\n        /* \"scritturatemporanea.sol\":7983:7987  loan */\n      dup3\n        /* \"scritturatemporanea.sol\":7983:7994  loan.loanId */\n      0x00\n      add\n      sload\n        /* \"scritturatemporanea.sol\":7996:8006  msg.sender */\n      caller\n        /* \"scritturatemporanea.sol\":8008:8016  borrower */\n      dup4\n        /* \"scritturatemporanea.sol\":8018:8027  msg.value */\n      callvalue\n        /* \"scritturatemporanea.sol\":8029:8033  loan */\n      dup7\n        /* \"scritturatemporanea.sol\":8029:8043  loan.startDate */\n      0x07\n      add\n      sload\n        /* \"scritturatemporanea.sol\":8045:8049  loan */\n      dup8\n        /* \"scritturatemporanea.sol\":8045:8057  loan.dueDate */\n      0x08\n      add\n      sload\n        /* \"scritturatemporanea.sol\":7972:8058  LoanFunded(loan.loanId, msg.sender, borrower, msg.value, loan.startDate, loan.dueDate) */\n      mload(0x40)\n      tag_77\n      swap7\n      swap6\n      swap5\n      swap4\n      swap3\n      swap2\n      swap1\n      tag_78\n      jump\t// in\n    tag_77:\n      mload(0x40)\n      dup1\n      swap2\n      sub\n      swap1\n      log1\n        /* \"scritturatemporanea.sol\":7266:8066  {... */\n      pop\n      pop\n        /* \"scritturatemporanea.sol\":7210:8066  function getLoanFunds(uint256 _loanId) external payable {... */\n      pop\n      jump\t// out\n        /* \"scritturatemporanea.sol\":6562:7202  function getPendingLoanDetailsByInterestRate() public view returns (Loan[] memory) {... */\n    tag_17:\n        /* \"scritturatemporanea.sol\":6630:6643  Loan[] memory */\n      0x60\n        /* \"scritturatemporanea.sol\":6657:6683  Loan[] memory pendingLoans */\n      0x00\n        /* \"scritturatemporanea.sol\":6685:6709  uint256 pendingLoanCount */\n      0x00\n        /* \"scritturatemporanea.sol\":6713:6735  getPendingLoansArray() */\n      tag_80\n        /* \"scritturatemporanea.sol\":6713:6733  getPendingLoansArray */\n      tag_81\n        /* \"scritturatemporanea.sol\":6713:6735  getPendingLoansArray() */\n      jump\t// in\n    tag_80:\n        /* \"scritturatemporanea.sol\":6656:6735  (Loan[] memory pendingLoans, uint256 pendingLoanCount) = getPendingLoansArray() */\n      swap2\n      pop\n      swap2\n      pop\n        /* \"scritturatemporanea.sol\":6753:6762  uint256 i */\n      0x00\n        /* \"scritturatemporanea.sol\":6765:6766  0 */\n      0x00\n        /* \"scritturatemporanea.sol\":6753:6766  uint256 i = 0 */\n      swap1\n      pop\n        /* \"scritturatemporanea.sol\":6748:7165  for (uint256 i = 0; i < pendingLoanCount; i++) {... */\n    tag_82:\n        /* \"scritturatemporanea.sol\":6772:6788  pendingLoanCount */\n      dup2\n        /* \"scritturatemporanea.sol\":6768:6769  i */\n      dup2\n        /* \"scritturatemporanea.sol\":6768:6788  i < pendingLoanCount */\n      lt\n        /* \"scritturatemporanea.sol\":6748:7165  for (uint256 i = 0; i < pendingLoanCount; i++) {... */\n      iszero\n      tag_83\n      jumpi\n        /* \"scritturatemporanea.sol\":6815:6824  uint256 j */\n      0x00\n        /* \"scritturatemporanea.sol\":6827:6828  0 */\n      0x00\n        /* \"scritturatemporanea.sol\":6815:6828  uint256 j = 0 */\n      swap1\n      pop\n        /* \"scritturatemporanea.sol\":6810:7154  for (uint256 j = 0; j < pendingLoanCount - 1 - i; j++) {... */\n    tag_85:\n        /* \"scritturatemporanea.sol\":6857:6858  i */\n      dup2\n        /* \"scritturatemporanea.sol\":6853:6854  1 */\n      0x01\n        /* \"scritturatemporanea.sol\":6834:6850  pendingLoanCount */\n      dup5\n        /* \"scritturatemporanea.sol\":6834:6854  pendingLoanCount - 1 */\n      tag_88\n      swap2\n      swap1\n      tag_89\n      jump\t// in\n    tag_88:\n        /* \"scritturatemporanea.sol\":6834:6858  pendingLoanCount - 1 - i */\n      tag_90\n      swap2\n      swap1\n      tag_89\n      jump\t// in\n    tag_90:\n        /* \"scritturatemporanea.sol\":6830:6831  j */\n      dup2\n        /* \"scritturatemporanea.sol\":6830:6858  j < pendingLoanCount - 1 - i */\n      lt\n        /* \"scritturatemporanea.sol\":6810:7154  for (uint256 j = 0; j < pendingLoanCount - 1 - i; j++) {... */\n      iszero\n      tag_86\n      jumpi\n        /* \"scritturatemporanea.sol\":6919:6931  pendingLoans */\n      dup4\n        /* \"scritturatemporanea.sol\":6936:6937  1 */\n      0x01\n        /* \"scritturatemporanea.sol\":6932:6933  j */\n      dup3\n        /* \"scritturatemporanea.sol\":6932:6937  j + 1 */\n      tag_91\n      swap2\n      swap1\n      tag_72\n      jump\t// in\n    tag_91:\n        /* \"scritturatemporanea.sol\":6919:6938  pendingLoans[j + 1] */\n      dup2\n      mload\n      dup2\n      lt\n      tag_92\n      jumpi\n      tag_93\n      tag_94\n      jump\t// in\n    tag_93:\n    tag_92:\n      0x20\n      mul\n      0x20\n      add\n      add\n      mload\n        /* \"scritturatemporanea.sol\":6919:6951  pendingLoans[j + 1].interestRate */\n      0x80\n      add\n      mload\n        /* \"scritturatemporanea.sol\":6888:6900  pendingLoans */\n      dup5\n        /* \"scritturatemporanea.sol\":6901:6902  j */\n      dup3\n        /* \"scritturatemporanea.sol\":6888:6903  pendingLoans[j] */\n      dup2\n      mload\n      dup2\n      lt\n      tag_95\n      jumpi\n      tag_96\n      tag_94\n      jump\t// in\n    tag_96:\n    tag_95:\n      0x20\n      mul\n      0x20\n      add\n      add\n      mload\n        /* \"scritturatemporanea.sol\":6888:6916  pendingLoans[j].interestRate */\n      0x80\n      add\n      mload\n        /* \"scritturatemporanea.sol\":6888:6951  pendingLoans[j].interestRate > pendingLoans[j + 1].interestRate */\n      gt\n        /* \"scritturatemporanea.sol\":6884:7139  if (pendingLoans[j].interestRate > pendingLoans[j + 1].interestRate) {... */\n      iszero\n      tag_97\n      jumpi\n        /* \"scritturatemporanea.sol\":6976:6992  Loan memory temp */\n      0x00\n        /* \"scritturatemporanea.sol\":6995:7007  pendingLoans */\n      dup5\n        /* \"scritturatemporanea.sol\":7008:7009  j */\n      dup3\n        /* \"scritturatemporanea.sol\":6995:7010  pendingLoans[j] */\n      dup2\n      mload\n      dup2\n      lt\n      tag_98\n      jumpi\n      tag_99\n      tag_94\n      jump\t// in\n    tag_99:\n    tag_98:\n      0x20\n      mul\n      0x20\n      add\n      add\n      mload\n        /* \"scritturatemporanea.sol\":6976:7010  Loan memory temp = pendingLoans[j] */\n      swap1\n      pop\n        /* \"scritturatemporanea.sol\":7051:7063  pendingLoans */\n      dup5\n        /* \"scritturatemporanea.sol\":7068:7069  1 */\n      0x01\n        /* \"scritturatemporanea.sol\":7064:7065  j */\n      dup4\n        /* \"scritturatemporanea.sol\":7064:7069  j + 1 */\n      tag_100\n      swap2\n      swap1\n      tag_72\n      jump\t// in\n    tag_100:\n        /* \"scritturatemporanea.sol\":7051:7070  pendingLoans[j + 1] */\n      dup2\n      mload\n      dup2\n      lt\n      tag_101\n      jumpi\n      tag_102\n      tag_94\n      jump\t// in\n    tag_102:\n    tag_101:\n      0x20\n      mul\n      0x20\n      add\n      add\n      mload\n        /* \"scritturatemporanea.sol\":7033:7045  pendingLoans */\n      dup6\n        /* \"scritturatemporanea.sol\":7046:7047  j */\n      dup4\n        /* \"scritturatemporanea.sol\":7033:7048  pendingLoans[j] */\n      dup2\n      mload\n      dup2\n      lt\n      tag_103\n      jumpi\n      tag_104\n      tag_94\n      jump\t// in\n    tag_104:\n    tag_103:\n      0x20\n      mul\n      0x20\n      add\n      add\n        /* \"scritturatemporanea.sol\":7033:7070  pendingLoans[j] = pendingLoans[j + 1] */\n      dup2\n      swap1\n      mstore\n      pop\n        /* \"scritturatemporanea.sol\":7115:7119  temp */\n      dup1\n        /* \"scritturatemporanea.sol\":7093:7105  pendingLoans */\n      dup6\n        /* \"scritturatemporanea.sol\":7110:7111  1 */\n      0x01\n        /* \"scritturatemporanea.sol\":7106:7107  j */\n      dup5\n        /* \"scritturatemporanea.sol\":7106:7111  j + 1 */\n      tag_105\n      swap2\n      swap1\n      tag_72\n      jump\t// in\n    tag_105:\n        /* \"scritturatemporanea.sol\":7093:7112  pendingLoans[j + 1] */\n      dup2\n      mload\n      dup2\n      lt\n      tag_106\n      jumpi\n      tag_107\n      tag_94\n      jump\t// in\n    tag_107:\n    tag_106:\n      0x20\n      mul\n      0x20\n      add\n      add\n        /* \"scritturatemporanea.sol\":7093:7119  pendingLoans[j + 1] = temp */\n      dup2\n      swap1\n      mstore\n      pop\n        /* \"scritturatemporanea.sol\":6953:7139  {... */\n      pop\n        /* \"scritturatemporanea.sol\":6884:7139  if (pendingLoans[j].interestRate > pendingLoans[j + 1].interestRate) {... */\n    tag_97:\n        /* \"scritturatemporanea.sol\":6860:6863  j++ */\n      dup1\n      dup1\n      0x01\n      add\n      swap2\n      pop\n      pop\n        /* \"scritturatemporanea.sol\":6810:7154  for (uint256 j = 0; j < pendingLoanCount - 1 - i; j++) {... */\n      jump(tag_85)\n    tag_86:\n      pop\n        /* \"scritturatemporanea.sol\":6790:6793  i++ */\n      dup1\n      dup1\n      0x01\n      add\n      swap2\n      pop\n      pop\n        /* \"scritturatemporanea.sol\":6748:7165  for (uint256 i = 0; i < pendingLoanCount; i++) {... */\n      jump(tag_82)\n    tag_83:\n      pop\n        /* \"scritturatemporanea.sol\":7182:7194  pendingLoans */\n      dup2\n        /* \"scritturatemporanea.sol\":7175:7194  return pendingLoans */\n      swap3\n      pop\n      pop\n      pop\n        /* \"scritturatemporanea.sol\":6562:7202  function getPendingLoanDetailsByInterestRate() public view returns (Loan[] memory) {... */\n      swap1\n      jump\t// out\n        /* \"scritturatemporanea.sol\":5932:6554  function getPendingLoanDetailsByAmount() public view returns (Loan[] memory) {... */\n    tag_22:\n        /* \"scritturatemporanea.sol\":5994:6007  Loan[] memory */\n      0x60\n        /* \"scritturatemporanea.sol\":6021:6047  Loan[] memory pendingLoans */\n      0x00\n        /* \"scritturatemporanea.sol\":6049:6073  uint256 pendingLoanCount */\n      0x00\n        /* \"scritturatemporanea.sol\":6077:6099  getPendingLoansArray() */\n      tag_109\n        /* \"scritturatemporanea.sol\":6077:6097  getPendingLoansArray */\n      tag_81\n        /* \"scritturatemporanea.sol\":6077:6099  getPendingLoansArray() */\n      jump\t// in\n    tag_109:\n        /* \"scritturatemporanea.sol\":6020:6099  (Loan[] memory pendingLoans, uint256 pendingLoanCount) = getPendingLoansArray() */\n      swap2\n      pop\n      swap2\n      pop\n        /* \"scritturatemporanea.sol\":6117:6126  uint256 i */\n      0x00\n        /* \"scritturatemporanea.sol\":6129:6130  0 */\n      0x00\n        /* \"scritturatemporanea.sol\":6117:6130  uint256 i = 0 */\n      swap1\n      pop\n        /* \"scritturatemporanea.sol\":6112:6517  for (uint256 i = 0; i < pendingLoanCount; i++) {... */\n    tag_110:\n        /* \"scritturatemporanea.sol\":6136:6152  pendingLoanCount */\n      dup2\n        /* \"scritturatemporanea.sol\":6132:6133  i */\n      dup2\n        /* \"scritturatemporanea.sol\":6132:6152  i < pendingLoanCount */\n      lt\n        /* \"scritturatemporanea.sol\":6112:6517  for (uint256 i = 0; i < pendingLoanCount; i++) {... */\n      iszero\n      tag_111\n      jumpi\n        /* \"scritturatemporanea.sol\":6179:6188  uint256 j */\n      0x00\n        /* \"scritturatemporanea.sol\":6191:6192  0 */\n      0x00\n        /* \"scritturatemporanea.sol\":6179:6192  uint256 j = 0 */\n      swap1\n      pop\n        /* \"scritturatemporanea.sol\":6174:6506  for (uint256 j = 0; j < pendingLoanCount - 1 - i; j++) {... */\n    tag_113:\n        /* \"scritturatemporanea.sol\":6221:6222  i */\n      dup2\n        /* \"scritturatemporanea.sol\":6217:6218  1 */\n      0x01\n        /* \"scritturatemporanea.sol\":6198:6214  pendingLoanCount */\n      dup5\n        /* \"scritturatemporanea.sol\":6198:6218  pendingLoanCount - 1 */\n      tag_116\n      swap2\n      swap1\n      tag_89\n      jump\t// in\n    tag_116:\n        /* \"scritturatemporanea.sol\":6198:6222  pendingLoanCount - 1 - i */\n      tag_117\n      swap2\n      swap1\n      tag_89\n      jump\t// in\n    tag_117:\n        /* \"scritturatemporanea.sol\":6194:6195  j */\n      dup2\n        /* \"scritturatemporanea.sol\":6194:6222  j < pendingLoanCount - 1 - i */\n      lt\n        /* \"scritturatemporanea.sol\":6174:6506  for (uint256 j = 0; j < pendingLoanCount - 1 - i; j++) {... */\n      iszero\n      tag_114\n      jumpi\n        /* \"scritturatemporanea.sol\":6277:6289  pendingLoans */\n      dup4\n        /* \"scritturatemporanea.sol\":6294:6295  1 */\n      0x01\n        /* \"scritturatemporanea.sol\":6290:6291  j */\n      dup3\n        /* \"scritturatemporanea.sol\":6290:6295  j + 1 */\n      tag_118\n      swap2\n      swap1\n      tag_72\n      jump\t// in\n    tag_118:\n        /* \"scritturatemporanea.sol\":6277:6296  pendingLoans[j + 1] */\n      dup2\n      mload\n      dup2\n      lt\n      tag_119\n      jumpi\n      tag_120\n      tag_94\n      jump\t// in\n    tag_120:\n    tag_119:\n      0x20\n      mul\n      0x20\n      add\n      add\n      mload\n        /* \"scritturatemporanea.sol\":6277:6303  pendingLoans[j + 1].amount */\n      0x60\n      add\n      mload\n        /* \"scritturatemporanea.sol\":6252:6264  pendingLoans */\n      dup5\n        /* \"scritturatemporanea.sol\":6265:6266  j */\n      dup3\n        /* \"scritturatemporanea.sol\":6252:6267  pendingLoans[j] */\n      dup2\n      mload\n      dup2\n      lt\n      tag_121\n      jumpi\n      tag_122\n      tag_94\n      jump\t// in\n    tag_122:\n    tag_121:\n      0x20\n      mul\n      0x20\n      add\n      add\n      mload\n        /* \"scritturatemporanea.sol\":6252:6274  pendingLoans[j].amount */\n      0x60\n      add\n      mload\n        /* \"scritturatemporanea.sol\":6252:6303  pendingLoans[j].amount > pendingLoans[j + 1].amount */\n      gt\n        /* \"scritturatemporanea.sol\":6248:6491  if (pendingLoans[j].amount > pendingLoans[j + 1].amount) {... */\n      iszero\n      tag_123\n      jumpi\n        /* \"scritturatemporanea.sol\":6328:6344  Loan memory temp */\n      0x00\n        /* \"scritturatemporanea.sol\":6347:6359  pendingLoans */\n      dup5\n        /* \"scritturatemporanea.sol\":6360:6361  j */\n      dup3\n        /* \"scritturatemporanea.sol\":6347:6362  pendingLoans[j] */\n      dup2\n      mload\n      dup2\n      lt\n      tag_124\n      jumpi\n      tag_125\n      tag_94\n      jump\t// in\n    tag_125:\n    tag_124:\n      0x20\n      mul\n      0x20\n      add\n      add\n      mload\n        /* \"scritturatemporanea.sol\":6328:6362  Loan memory temp = pendingLoans[j] */\n      swap1\n      pop\n        /* \"scritturatemporanea.sol\":6403:6415  pendingLoans */\n      dup5\n        /* \"scritturatemporanea.sol\":6420:6421  1 */\n      0x01\n        /* \"scritturatemporanea.sol\":6416:6417  j */\n      dup4\n        /* \"scritturatemporanea.sol\":6416:6421  j + 1 */\n      tag_126\n      swap2\n      swap1\n      tag_72\n      jump\t// in\n    tag_126:\n        /* \"scritturatemporanea.sol\":6403:6422  pendingLoans[j + 1] */\n      dup2\n      mload\n      dup2\n      lt\n      tag_127\n      jumpi\n      tag_128\n      tag_94\n      jump\t// in\n    tag_128:\n    tag_127:\n      0x20\n      mul\n      0x20\n      add\n      add\n      mload\n        /* \"scritturatemporanea.sol\":6385:6397  pendingLoans */\n      dup6\n        /* \"scritturatemporanea.sol\":6398:6399  j */\n      dup4\n        /* \"scritturatemporanea.sol\":6385:6400  pendingLoans[j] */\n      dup2\n      mload\n      dup2\n      lt\n      tag_129\n      jumpi\n      tag_130\n      tag_94\n      jump\t// in\n    tag_130:\n    tag_129:\n      0x20\n      mul\n      0x20\n      add\n      add\n        /* \"scritturatemporanea.sol\":6385:6422  pendingLoans[j] = pendingLoans[j + 1] */\n      dup2\n      swap1\n      mstore\n      pop\n        /* \"scritturatemporanea.sol\":6467:6471  temp */\n      dup1\n        /* \"scritturatemporanea.sol\":6445:6457  pendingLoans */\n      dup6\n        /* \"scritturatemporanea.sol\":6462:6463  1 */\n      0x01\n        /* \"scritturatemporanea.sol\":6458:6459  j */\n      dup5\n        /* \"scritturatemporanea.sol\":6458:6463  j + 1 */\n      tag_131\n      swap2\n      swap1\n      tag_72\n      jump\t// in\n    tag_131:\n        /* \"scritturatemporanea.sol\":6445:6464  pendingLoans[j + 1] */\n      dup2\n      mload\n      dup2\n      lt\n      tag_132\n      jumpi\n      tag_133\n      tag_94\n      jump\t// in\n    tag_133:\n    tag_132:\n      0x20\n      mul\n      0x20\n      add\n      add\n        /* \"scritturatemporanea.sol\":6445:6471  pendingLoans[j + 1] = temp */\n      dup2\n      swap1\n      mstore\n      pop\n        /* \"scritturatemporanea.sol\":6305:6491  {... */\n      pop\n        /* \"scritturatemporanea.sol\":6248:6491  if (pendingLoans[j].amount > pendingLoans[j + 1].amount) {... */\n    tag_123:\n        /* \"scritturatemporanea.sol\":6224:6227  j++ */\n      dup1\n      dup1\n      0x01\n      add\n      swap2\n      pop\n      pop\n        /* \"scritturatemporanea.sol\":6174:6506  for (uint256 j = 0; j < pendingLoanCount - 1 - i; j++) {... */\n      jump(tag_113)\n    tag_114:\n      pop\n        /* \"scritturatemporanea.sol\":6154:6157  i++ */\n      dup1\n      dup1\n      0x01\n      add\n      swap2\n      pop\n      pop\n        /* \"scritturatemporanea.sol\":6112:6517  for (uint256 i = 0; i < pendingLoanCount; i++) {... */\n      jump(tag_110)\n    tag_111:\n      pop\n        /* \"scritturatemporanea.sol\":6534:6546  pendingLoans */\n      dup2\n        /* \"scritturatemporanea.sol\":6527:6546  return pendingLoans */\n      swap3\n      pop\n      pop\n      pop\n        /* \"scritturatemporanea.sol\":5932:6554  function getPendingLoanDetailsByAmount() public view returns (Loan[] memory) {... */\n      swap1\n      jump\t// out\n        /* \"scritturatemporanea.sol\":3675:5240  function requestLoan(uint256 _amount) external {... */\n    tag_27:\n        /* \"scritturatemporanea.sol\":3751:3752  0 */\n      0x00\n        /* \"scritturatemporanea.sol\":3741:3748  _amount */\n      dup2\n        /* \"scritturatemporanea.sol\":3741:3752  _amount > 0 */\n      gt\n        /* \"scritturatemporanea.sol\":3733:3798  require(_amount > 0, \"The loan amount must be greater than zero\") */\n      tag_135\n      jumpi\n      mload(0x40)\n      0x08c379a000000000000000000000000000000000000000000000000000000000\n      dup2\n      mstore\n      0x04\n      add\n      tag_136\n      swap1\n      tag_137\n      jump\t// in\n    tag_136:\n      mload(0x40)\n      dup1\n      swap2\n      sub\n      swap1\n      revert\n    tag_135:\n        /* \"scritturatemporanea.sol\":3814:3839  uint256 pendingLoansCount */\n      0x00\n        /* \"scritturatemporanea.sol\":3843:3865  getPendingLoansArray() */\n      tag_138\n        /* \"scritturatemporanea.sol\":3843:3863  getPendingLoansArray */\n      tag_81\n        /* \"scritturatemporanea.sol\":3843:3865  getPendingLoansArray() */\n      jump\t// in\n    tag_138:\n        /* \"scritturatemporanea.sol\":3811:3865  (, uint256 pendingLoansCount) = getPendingLoansArray() */\n      swap2\n      pop\n      pop\n        /* \"scritturatemporanea.sol\":3905:3908  500 */\n      0x01f4\n        /* \"scritturatemporanea.sol\":3884:3901  pendingLoansCount */\n      dup2\n        /* \"scritturatemporanea.sol\":3884:3908  pendingLoansCount <= 500 */\n      gt\n      iszero\n        /* \"scritturatemporanea.sol\":3876:3965  require(pendingLoansCount <= 500, \"Loan limit reached, please wait for a loan to close.\") */\n      tag_139\n      jumpi\n      mload(0x40)\n      0x08c379a000000000000000000000000000000000000000000000000000000000\n      dup2\n      mstore\n      0x04\n      add\n      tag_140\n      swap1\n      tag_141\n      jump\t// in\n    tag_140:\n      mload(0x40)\n      dup1\n      swap2\n      sub\n      swap1\n      revert\n    tag_139:\n        /* \"scritturatemporanea.sol\":3978:4000  uint256[] memory loans */\n      0x00\n        /* \"scritturatemporanea.sol\":4003:4016  borrowerLoans */\n      0x03\n        /* \"scritturatemporanea.sol\":4003:4028  borrowerLoans[msg.sender] */\n      0x00\n        /* \"scritturatemporanea.sol\":4017:4027  msg.sender */\n      caller\n        /* \"scritturatemporanea.sol\":4003:4028  borrowerLoans[msg.sender] */\n      0xffffffffffffffffffffffffffffffffffffffff\n      and\n      0xffffffffffffffffffffffffffffffffffffffff\n      and\n      dup2\n      mstore\n      0x20\n      add\n      swap1\n      dup2\n      mstore\n      0x20\n      add\n      0x00\n      keccak256\n        /* \"scritturatemporanea.sol\":3978:4028  uint256[] memory loans = borrowerLoans[msg.sender] */\n      dup1\n      sload\n      dup1\n      0x20\n      mul\n      0x20\n      add\n      mload(0x40)\n      swap1\n      dup2\n      add\n      0x40\n      mstore\n      dup1\n      swap3\n      swap2\n      swap1\n      dup2\n      dup2\n      mstore\n      0x20\n      add\n      dup3\n      dup1\n      sload\n      dup1\n      iszero\n      tag_142\n      jumpi\n      0x20\n      mul\n      dup3\n      add\n      swap2\n      swap1\n      0x00\n      mstore\n      keccak256(0x00, 0x20)\n      swap1\n    tag_143:\n      dup2\n      sload\n      dup2\n      mstore\n      0x20\n      add\n      swap1\n      0x01\n      add\n      swap1\n      dup1\n      dup4\n      gt\n      tag_143\n      jumpi\n    tag_142:\n      pop\n      pop\n      pop\n      pop\n      pop\n      swap1\n      pop\n        /* \"scritturatemporanea.sol\":4044:4050  uint i */\n      0x00\n        /* \"scritturatemporanea.sol\":4053:4054  0 */\n      0x00\n        /* \"scritturatemporanea.sol\":4044:4054  uint i = 0 */\n      swap1\n      pop\n        /* \"scritturatemporanea.sol\":4039:4324  for (uint i = 0; i < loans.length; i++) {... */\n    tag_144:\n        /* \"scritturatemporanea.sol\":4060:4065  loans */\n      dup2\n        /* \"scritturatemporanea.sol\":4060:4072  loans.length */\n      mload\n        /* \"scritturatemporanea.sol\":4056:4057  i */\n      dup2\n        /* \"scritturatemporanea.sol\":4056:4072  i < loans.length */\n      lt\n        /* \"scritturatemporanea.sol\":4039:4324  for (uint i = 0; i < loans.length; i++) {... */\n      iszero\n      tag_145\n      jumpi\n        /* \"scritturatemporanea.sol\":4094:4108  uint256 loanId */\n      0x00\n        /* \"scritturatemporanea.sol\":4111:4116  loans */\n      dup3\n        /* \"scritturatemporanea.sol\":4117:4118  i */\n      dup3\n        /* \"scritturatemporanea.sol\":4111:4119  loans[i] */\n      dup2\n      mload\n      dup2\n      lt\n      tag_147\n      jumpi\n      tag_148\n      tag_94\n      jump\t// in\n    tag_148:\n    tag_147:\n      0x20\n      mul\n      0x20\n      add\n      add\n      mload\n        /* \"scritturatemporanea.sol\":4094:4119  uint256 loanId = loans[i] */\n      swap1\n      pop\n        /* \"scritturatemporanea.sol\":4134:4154  Loan memory userLoan */\n      0x00\n        /* \"scritturatemporanea.sol\":4157:4166  loansById */\n      0x01\n        /* \"scritturatemporanea.sol\":4157:4174  loansById[loanId] */\n      0x00\n        /* \"scritturatemporanea.sol\":4167:4173  loanId */\n      dup4\n        /* \"scritturatemporanea.sol\":4157:4174  loansById[loanId] */\n      dup2\n      mstore\n      0x20\n      add\n      swap1\n      dup2\n      mstore\n      0x20\n      add\n      0x00\n      keccak256\n        /* \"scritturatemporanea.sol\":4134:4174  Loan memory userLoan = loansById[loanId] */\n      mload(0x40)\n      dup1\n      0x0120\n      add\n      0x40\n      mstore\n      swap1\n      dup2\n      0x00\n      dup3\n      add\n      sload\n      dup2\n      mstore\n      0x20\n      add\n      0x01\n      dup3\n      add\n      mload(0x40)\n      dup1\n      0x60\n      add\n      0x40\n      mstore\n      swap1\n      dup2\n      0x00\n      dup3\n      add\n      0x00\n      swap1\n      sload\n      swap1\n      0x0100\n      exp\n      swap1\n      div\n      0xffffffffffffffffffffffffffffffffffffffff\n      and\n      0xffffffffffffffffffffffffffffffffffffffff\n      and\n      0xffffffffffffffffffffffffffffffffffffffff\n      and\n      dup2\n      mstore\n      0x20\n      add\n      0x00\n      dup3\n      add\n      0x14\n      swap1\n      sload\n      swap1\n      0x0100\n      exp\n      swap1\n      div\n      0xff\n      and\n      0xff\n      and\n      0xff\n      and\n      dup2\n      mstore\n      0x20\n      add\n      0x01\n      dup3\n      add\n      dup1\n      sload\n      dup1\n      0x20\n      mul\n      0x20\n      add\n      mload(0x40)\n      swap1\n      dup2\n      add\n      0x40\n      mstore\n      dup1\n      swap3\n      swap2\n      swap1\n      dup2\n      dup2\n      mstore\n      0x20\n      add\n      dup3\n      dup1\n      sload\n      dup1\n      iszero\n      tag_149\n      jumpi\n      0x20\n      mul\n      dup3\n      add\n      swap2\n      swap1\n      0x00\n      mstore\n      keccak256(0x00, 0x20)\n      swap1\n    tag_150:\n      dup2\n      sload\n      dup2\n      mstore\n      0x20\n      add\n      swap1\n      0x01\n      add\n      swap1\n      dup1\n      dup4\n      gt\n      tag_150\n      jumpi\n    tag_149:\n      pop\n      pop\n      pop\n      pop\n      pop\n      dup2\n      mstore\n      pop\n      pop\n      dup2\n      mstore\n      0x20\n      add\n      0x03\n      dup3\n      add\n      0x00\n      swap1\n      sload\n      swap1\n      0x0100\n      exp\n      swap1\n      div\n      0xffffffffffffffffffffffffffffffffffffffff\n      and\n      0xffffffffffffffffffffffffffffffffffffffff\n      and\n      0xffffffffffffffffffffffffffffffffffffffff\n      and\n      dup2\n      mstore\n      0x20\n      add\n      0x04\n      dup3\n      add\n      sload\n      dup2\n      mstore\n      0x20\n      add\n      0x05\n      dup3\n      add\n      sload\n      dup2\n      mstore\n      0x20\n      add\n      0x06\n      dup3\n      add\n      sload\n      dup2\n      mstore\n      0x20\n      add\n      0x07\n      dup3\n      add\n      sload\n      dup2\n      mstore\n      0x20\n      add\n      0x08\n      dup3\n      add\n      sload\n      dup2\n      mstore\n      0x20\n      add\n      0x09\n      dup3\n      add\n      0x00\n      swap1\n      sload\n      swap1\n      0x0100\n      exp\n      swap1\n      div\n      0xff\n      and\n      0x04\n      dup2\n      gt\n      iszero\n      tag_151\n      jumpi\n      tag_152\n      tag_57\n      jump\t// in\n    tag_152:\n    tag_151:\n      0x04\n      dup2\n      gt\n      iszero\n      tag_153\n      jumpi\n      tag_154\n      tag_57\n      jump\t// in\n    tag_154:\n    tag_153:\n      dup2\n      mstore\n      pop\n      pop\n      swap1\n      pop\n        /* \"scritturatemporanea.sol\":4216:4231  LoanStatus.Paid */\n      0x02\n        /* \"scritturatemporanea.sol\":4197:4231  userLoan.status == LoanStatus.Paid */\n      0x04\n      dup2\n      gt\n      iszero\n      tag_155\n      jumpi\n      tag_156\n      tag_57\n      jump\t// in\n    tag_156:\n    tag_155:\n        /* \"scritturatemporanea.sol\":4197:4205  userLoan */\n      dup2\n        /* \"scritturatemporanea.sol\":4197:4212  userLoan.status */\n      0x0100\n      add\n      mload\n        /* \"scritturatemporanea.sol\":4197:4231  userLoan.status == LoanStatus.Paid */\n      0x04\n      dup2\n      gt\n      iszero\n      tag_157\n      jumpi\n      tag_158\n      tag_57\n      jump\t// in\n    tag_158:\n    tag_157:\n      eq\n        /* \"scritturatemporanea.sol\":4189:4312  require(userLoan.status == LoanStatus.Paid, \"You cannot request a new loan if you have pending, active, or overdue loans.\") */\n      tag_159\n      jumpi\n      mload(0x40)\n      0x08c379a000000000000000000000000000000000000000000000000000000000\n      dup2\n      mstore\n      0x04\n      add\n      tag_160\n      swap1\n      tag_161\n      jump\t// in\n    tag_160:\n      mload(0x40)\n      dup1\n      swap2\n      sub\n      swap1\n      revert\n    tag_159:\n        /* \"scritturatemporanea.sol\":4079:4324  {... */\n      pop\n      pop\n        /* \"scritturatemporanea.sol\":4074:4077  i++ */\n      dup1\n      dup1\n      0x01\n      add\n      swap2\n      pop\n      pop\n        /* \"scritturatemporanea.sol\":4039:4324  for (uint i = 0; i < loans.length; i++) {... */\n      jump(tag_144)\n    tag_145:\n      pop\n        /* \"scritturatemporanea.sol\":4336:4347  loanCounter */\n      0x00\n      0x00\n        /* \"scritturatemporanea.sol\":4336:4349  loanCounter++ */\n      dup2\n      sload\n      dup1\n      swap3\n      swap2\n      swap1\n      tag_162\n      swap1\n      tag_163\n      jump\t// in\n    tag_162:\n      swap2\n      swap1\n      pop\n      sstore\n      pop\n        /* \"scritturatemporanea.sol\":4370:4391  uint256 numberOfLoans */\n      0x00\n        /* \"scritturatemporanea.sol\":4394:4407  borrowerLoans */\n      0x03\n        /* \"scritturatemporanea.sol\":4394:4419  borrowerLoans[msg.sender] */\n      0x00\n        /* \"scritturatemporanea.sol\":4408:4418  msg.sender */\n      caller\n        /* \"scritturatemporanea.sol\":4394:4419  borrowerLoans[msg.sender] */\n      0xffffffffffffffffffffffffffffffffffffffff\n      and\n      0xffffffffffffffffffffffffffffffffffffffff\n      and\n      dup2\n      mstore\n      0x20\n      add\n      swap1\n      dup2\n      mstore\n      0x20\n      add\n      0x00\n      keccak256\n        /* \"scritturatemporanea.sol\":4394:4426  borrowerLoans[msg.sender].length */\n      dup1\n      sload\n      swap1\n      pop\n        /* \"scritturatemporanea.sol\":4370:4426  uint256 numberOfLoans = borrowerLoans[msg.sender].length */\n      swap1\n      pop\n        /* \"scritturatemporanea.sol\":4437:4462  uint8 borrowerCreditScore */\n      0x00\n        /* \"scritturatemporanea.sol\":4483:4484  0 */\n      0x00\n        /* \"scritturatemporanea.sol\":4466:4479  numberOfLoans */\n      dup3\n        /* \"scritturatemporanea.sol\":4466:4484  numberOfLoans == 0 */\n      eq\n        /* \"scritturatemporanea.sol\":4465:4529  (numberOfLoans == 0) ? 1 : loanBorrowers[msg.sender].creditScore */\n      tag_164\n      jumpi\n        /* \"scritturatemporanea.sol\":4492:4505  loanBorrowers */\n      0x02\n        /* \"scritturatemporanea.sol\":4492:4517  loanBorrowers[msg.sender] */\n      0x00\n        /* \"scritturatemporanea.sol\":4506:4516  msg.sender */\n      caller\n        /* \"scritturatemporanea.sol\":4492:4517  loanBorrowers[msg.sender] */\n      0xffffffffffffffffffffffffffffffffffffffff\n      and\n      0xffffffffffffffffffffffffffffffffffffffff\n      and\n      dup2\n      mstore\n      0x20\n      add\n      swap1\n      dup2\n      mstore\n      0x20\n      add\n      0x00\n      keccak256\n        /* \"scritturatemporanea.sol\":4492:4529  loanBorrowers[msg.sender].creditScore */\n      0x00\n      add\n      0x14\n      swap1\n      sload\n      swap1\n      0x0100\n      exp\n      swap1\n      div\n      0xff\n      and\n        /* \"scritturatemporanea.sol\":4465:4529  (numberOfLoans == 0) ? 1 : loanBorrowers[msg.sender].creditScore */\n      jump(tag_165)\n    tag_164:\n        /* \"scritturatemporanea.sol\":4488:4489  1 */\n      0x01\n        /* \"scritturatemporanea.sol\":4465:4529  (numberOfLoans == 0) ? 1 : loanBorrowers[msg.sender].creditScore */\n    tag_165:\n        /* \"scritturatemporanea.sol\":4437:4529  uint8 borrowerCreditScore = (numberOfLoans == 0) ? 1 : loanBorrowers[msg.sender].creditScore */\n      swap1\n      pop\n        /* \"scritturatemporanea.sol\":4543:4573  uint256 annualizedInterestRate */\n      0x00\n        /* \"scritturatemporanea.sol\":4575:4604  uint256 annualizedPenaltyRate */\n      0x00\n        /* \"scritturatemporanea.sol\":4608:4651  loanInterestCalculator(borrowerCreditScore) */\n      tag_166\n        /* \"scritturatemporanea.sol\":4631:4650  borrowerCreditScore */\n      dup4\n        /* \"scritturatemporanea.sol\":4608:4630  loanInterestCalculator */\n      tag_167\n        /* \"scritturatemporanea.sol\":4608:4651  loanInterestCalculator(borrowerCreditScore) */\n      jump\t// in\n    tag_166:\n        /* \"scritturatemporanea.sol\":4542:4651  (uint256 annualizedInterestRate, uint256 annualizedPenaltyRate) = loanInterestCalculator(borrowerCreditScore) */\n      swap2\n      pop\n      swap2\n      pop\n        /* \"scritturatemporanea.sol\":4664:4683  Loan memory newLoan */\n      0x00\n        /* \"scritturatemporanea.sol\":4686:5091  Loan({... */\n      mload(0x40)\n      dup1\n      0x0120\n      add\n      0x40\n      mstore\n      dup1\n        /* \"scritturatemporanea.sol\":4714:4725  loanCounter */\n      sload(0x00)\n        /* \"scritturatemporanea.sol\":4686:5091  Loan({... */\n      dup2\n      mstore\n      0x20\n      add\n        /* \"scritturatemporanea.sol\":4750:4822  LoanBorrower(msg.sender, borrowerCreditScore, borrowerLoans[msg.sender]) */\n      mload(0x40)\n      dup1\n      0x60\n      add\n      0x40\n      mstore\n      dup1\n        /* \"scritturatemporanea.sol\":4763:4773  msg.sender */\n      caller\n        /* \"scritturatemporanea.sol\":4750:4822  LoanBorrower(msg.sender, borrowerCreditScore, borrowerLoans[msg.sender]) */\n      0xffffffffffffffffffffffffffffffffffffffff\n      and\n      dup2\n      mstore\n      0x20\n      add\n        /* \"scritturatemporanea.sol\":4775:4794  borrowerCreditScore */\n      dup8\n        /* \"scritturatemporanea.sol\":4750:4822  LoanBorrower(msg.sender, borrowerCreditScore, borrowerLoans[msg.sender]) */\n      0xff\n      and\n      dup2\n      mstore\n      0x20\n      add\n        /* \"scritturatemporanea.sol\":4796:4809  borrowerLoans */\n      0x03\n        /* \"scritturatemporanea.sol\":4796:4821  borrowerLoans[msg.sender] */\n      0x00\n        /* \"scritturatemporanea.sol\":4810:4820  msg.sender */\n      caller\n        /* \"scritturatemporanea.sol\":4796:4821  borrowerLoans[msg.sender] */\n      0xffffffffffffffffffffffffffffffffffffffff\n      and\n      0xffffffffffffffffffffffffffffffffffffffff\n      and\n      dup2\n      mstore\n      0x20\n      add\n      swap1\n      dup2\n      mstore\n      0x20\n      add\n      0x00\n      keccak256\n        /* \"scritturatemporanea.sol\":4750:4822  LoanBorrower(msg.sender, borrowerCreditScore, borrowerLoans[msg.sender]) */\n      dup1\n      sload\n      dup1\n      0x20\n      mul\n      0x20\n      add\n      mload(0x40)\n      swap1\n      dup2\n      add\n      0x40\n      mstore\n      dup1\n      swap3\n      swap2\n      swap1\n      dup2\n      dup2\n      mstore\n      0x20\n      add\n      dup3\n      dup1\n      sload\n      dup1\n      iszero\n      tag_168\n      jumpi\n      0x20\n      mul\n      dup3\n      add\n      swap2\n      swap1\n      0x00\n      mstore\n      keccak256(0x00, 0x20)\n      swap1\n    tag_169:\n      dup2\n      sload\n      dup2\n      mstore\n      0x20\n      add\n      swap1\n      0x01\n      add\n      swap1\n      dup1\n      dup4\n      gt\n      tag_169\n      jumpi\n    tag_168:\n      pop\n      pop\n      pop\n      pop\n      pop\n      dup2\n      mstore\n      pop\n        /* \"scritturatemporanea.sol\":4686:5091  Loan({... */\n      dup2\n      mstore\n      0x20\n      add\n        /* \"scritturatemporanea.sol\":4854:4855  0 */\n      0x00\n        /* \"scritturatemporanea.sol\":4686:5091  Loan({... */\n      0xffffffffffffffffffffffffffffffffffffffff\n      and\n      dup2\n      mstore\n      0x20\n      add\n        /* \"scritturatemporanea.sol\":4879:4886  _amount */\n      dup10\n        /* \"scritturatemporanea.sol\":4686:5091  Loan({... */\n      dup2\n      mstore\n      0x20\n      add\n        /* \"scritturatemporanea.sol\":4915:4937  annualizedInterestRate */\n      dup5\n        /* \"scritturatemporanea.sol\":4686:5091  Loan({... */\n      dup2\n      mstore\n      0x20\n      add\n        /* \"scritturatemporanea.sol\":4965:4986  annualizedPenaltyRate */\n      dup4\n        /* \"scritturatemporanea.sol\":4686:5091  Loan({... */\n      dup2\n      mstore\n      0x20\n      add\n        /* \"scritturatemporanea.sol\":5012:5013  0 */\n      0x00\n        /* \"scritturatemporanea.sol\":4686:5091  Loan({... */\n      dup2\n      mstore\n      0x20\n      add\n        /* \"scritturatemporanea.sol\":5037:5038  0 */\n      0x00\n        /* \"scritturatemporanea.sol\":4686:5091  Loan({... */\n      dup2\n      mstore\n      0x20\n      add\n        /* \"scritturatemporanea.sol\":5061:5079  LoanStatus.Pending */\n      0x01\n        /* \"scritturatemporanea.sol\":4686:5091  Loan({... */\n      0x04\n      dup2\n      gt\n      iszero\n      tag_170\n      jumpi\n      tag_171\n      tag_57\n      jump\t// in\n    tag_171:\n    tag_170:\n      dup2\n      mstore\n      pop\n        /* \"scritturatemporanea.sol\":4664:5091  Loan memory newLoan = Loan({... */\n      swap1\n      pop\n        /* \"scritturatemporanea.sol\":5104:5123  addNewLoan(newLoan) */\n      tag_172\n        /* \"scritturatemporanea.sol\":5115:5122  newLoan */\n      dup2\n        /* \"scritturatemporanea.sol\":5104:5114  addNewLoan */\n      tag_173\n        /* \"scritturatemporanea.sol\":5104:5123  addNewLoan(newLoan) */\n      jump\t// in\n    tag_172:\n        /* \"scritturatemporanea.sol\":5209:5231  annualizedInterestRate */\n      dup3\n        /* \"scritturatemporanea.sol\":5180:5187  _amount */\n      dup9\n        /* \"scritturatemporanea.sol\":5168:5178  msg.sender */\n      caller\n        /* \"scritturatemporanea.sol\":5141:5232  LoanRequested(loanCounter, msg.sender, _amount, LoanStatus.Pending, annualizedInterestRate) */\n      0xffffffffffffffffffffffffffffffffffffffff\n      and\n      0x04fb50f9f9196efcf6c3a31384ff5137cbe3b5da82f608087126caaaffbcafdb\n        /* \"scritturatemporanea.sol\":5155:5166  loanCounter */\n      sload(0x00)\n        /* \"scritturatemporanea.sol\":5189:5207  LoanStatus.Pending */\n      0x01\n        /* \"scritturatemporanea.sol\":5141:5232  LoanRequested(loanCounter, msg.sender, _amount, LoanStatus.Pending, annualizedInterestRate) */\n      mload(0x40)\n      tag_174\n      swap3\n      swap2\n      swap1\n      tag_175\n      jump\t// in\n    tag_174:\n      mload(0x40)\n      dup1\n      swap2\n      sub\n      swap1\n      log4\n        /* \"scritturatemporanea.sol\":3722:5240  {... */\n      pop\n      pop\n      pop\n      pop\n      pop\n      pop\n      pop\n        /* \"scritturatemporanea.sol\":3675:5240  function requestLoan(uint256 _amount) external {... */\n      pop\n      jump\t// out\n        /* \"scritturatemporanea.sol\":1031:1084  mapping(address => LoanBorrower) public loanBorrowers */\n    tag_32:\n      mstore(0x20, 0x02)\n      dup1\n      0x00\n      mstore\n      keccak256(0x00, 0x40)\n      0x00\n      swap2\n      pop\n      swap1\n      pop\n      dup1\n      0x00\n      add\n      0x00\n      swap1\n      sload\n      swap1\n      0x0100\n      exp\n      swap1\n      div\n      0xffffffffffffffffffffffffffffffffffffffff\n      and\n      swap1\n      dup1\n      0x00\n      add\n      0x14\n      swap1\n      sload\n      swap1\n      0x0100\n      exp\n      swap1\n      div\n      0xff\n      and\n      swap1\n      pop\n      dup3\n      jump\t// out\n        /* \"scritturatemporanea.sol\":5248:5897  function cancelLoan(uint256 _loanId) external payable {... */\n    tag_37:\n        /* \"scritturatemporanea.sol\":5313:5330  Loan storage loan */\n      0x00\n        /* \"scritturatemporanea.sol\":5333:5342  loansById */\n      0x01\n        /* \"scritturatemporanea.sol\":5333:5351  loansById[_loanId] */\n      0x00\n        /* \"scritturatemporanea.sol\":5343:5350  _loanId */\n      dup4\n        /* \"scritturatemporanea.sol\":5333:5351  loansById[_loanId] */\n      dup2\n      mstore\n      0x20\n      add\n      swap1\n      dup2\n      mstore\n      0x20\n      add\n      0x00\n      keccak256\n        /* \"scritturatemporanea.sol\":5313:5351  Loan storage loan = loansById[_loanId] */\n      swap1\n      pop\n        /* \"scritturatemporanea.sol\":5362:5378  address borrower */\n      0x00\n        /* \"scritturatemporanea.sol\":5381:5385  loan */\n      dup2\n        /* \"scritturatemporanea.sol\":5381:5394  loan.borrower */\n      0x01\n      add\n        /* \"scritturatemporanea.sol\":5381:5410  loan.borrower.borrowerAddress */\n      0x00\n      add\n      0x00\n      swap1\n      sload\n      swap1\n      0x0100\n      exp\n      swap1\n      div\n      0xffffffffffffffffffffffffffffffffffffffff\n      and\n        /* \"scritturatemporanea.sol\":5362:5410  address borrower = loan.borrower.borrowerAddress */\n      swap1\n      pop\n        /* \"scritturatemporanea.sol\":5421:5443  uint256 cancelDeadline */\n      0x00\n        /* \"scritturatemporanea.sol\":5463:5469  1 days */\n      0x015180\n        /* \"scritturatemporanea.sol\":5446:5450  loan */\n      dup4\n        /* \"scritturatemporanea.sol\":5446:5460  loan.startDate */\n      0x07\n      add\n      sload\n        /* \"scritturatemporanea.sol\":5446:5469  loan.startDate + 1 days */\n      tag_177\n      swap2\n      swap1\n      tag_72\n      jump\t// in\n    tag_177:\n        /* \"scritturatemporanea.sol\":5421:5469  uint256 cancelDeadline = loan.startDate + 1 days */\n      swap1\n      pop\n        /* \"scritturatemporanea.sol\":5502:5512  msg.sender */\n      caller\n        /* \"scritturatemporanea.sol\":5490:5512  borrower == msg.sender */\n      0xffffffffffffffffffffffffffffffffffffffff\n      and\n        /* \"scritturatemporanea.sol\":5490:5498  borrower */\n      dup3\n        /* \"scritturatemporanea.sol\":5490:5512  borrower == msg.sender */\n      0xffffffffffffffffffffffffffffffffffffffff\n      and\n      eq\n        /* \"scritturatemporanea.sol\":5482:5555  require(borrower == msg.sender, \"Only the borrower can cancel this loan\") */\n      tag_178\n      jumpi\n      mload(0x40)\n      0x08c379a000000000000000000000000000000000000000000000000000000000\n      dup2\n      mstore\n      0x04\n      add\n      tag_179\n      swap1\n      tag_180\n      jump\t// in\n    tag_179:\n      mload(0x40)\n      dup1\n      swap2\n      sub\n      swap1\n      revert\n    tag_178:\n        /* \"scritturatemporanea.sol\":5595:5613  LoanStatus.Pending */\n      0x01\n        /* \"scritturatemporanea.sol\":5580:5613  loan.status == LoanStatus.Pending */\n      0x04\n      dup2\n      gt\n      iszero\n      tag_181\n      jumpi\n      tag_182\n      tag_57\n      jump\t// in\n    tag_182:\n    tag_181:\n        /* \"scritturatemporanea.sol\":5580:5584  loan */\n      dup4\n        /* \"scritturatemporanea.sol\":5580:5591  loan.status */\n      0x09\n      add\n      0x00\n      swap1\n      sload\n      swap1\n      0x0100\n      exp\n      swap1\n      div\n      0xff\n      and\n        /* \"scritturatemporanea.sol\":5580:5613  loan.status == LoanStatus.Pending */\n      0x04\n      dup2\n      gt\n      iszero\n      tag_183\n      jumpi\n      tag_184\n      tag_57\n      jump\t// in\n    tag_184:\n    tag_183:\n      sub\n        /* \"scritturatemporanea.sol\":5576:5890  if (loan.status == LoanStatus.Pending) {... */\n      tag_185\n      jumpi\n        /* \"scritturatemporanea.sol\":5630:5653  cancelPendingLoan(loan) */\n      tag_186\n        /* \"scritturatemporanea.sol\":5648:5652  loan */\n      dup4\n        /* \"scritturatemporanea.sol\":5630:5647  cancelPendingLoan */\n      tag_187\n        /* \"scritturatemporanea.sol\":5630:5653  cancelPendingLoan(loan) */\n      jump\t// in\n    tag_186:\n        /* \"scritturatemporanea.sol\":5576:5890  if (loan.status == LoanStatus.Pending) {... */\n      jump(tag_188)\n    tag_185:\n        /* \"scritturatemporanea.sol\":5690:5705  LoanStatus.Paid */\n      0x02\n        /* \"scritturatemporanea.sol\":5675:5705  loan.status == LoanStatus.Paid */\n      0x04\n      dup2\n      gt\n      iszero\n      tag_189\n      jumpi\n      tag_190\n      tag_57\n      jump\t// in\n    tag_190:\n    tag_189:\n        /* \"scritturatemporanea.sol\":5675:5679  loan */\n      dup4\n        /* \"scritturatemporanea.sol\":5675:5686  loan.status */\n      0x09\n      add\n      0x00\n      swap1\n      sload\n      swap1\n      0x0100\n      exp\n      swap1\n      div\n      0xff\n      and\n        /* \"scritturatemporanea.sol\":5675:5705  loan.status == LoanStatus.Paid */\n      0x04\n      dup2\n      gt\n      iszero\n      tag_191\n      jumpi\n      tag_192\n      tag_57\n      jump\t// in\n    tag_192:\n    tag_191:\n      eq\n        /* \"scritturatemporanea.sol\":5675:5740  loan.status == LoanStatus.Paid && loan.startDate < cancelDeadline */\n      dup1\n      iszero\n      tag_193\n      jumpi\n      pop\n        /* \"scritturatemporanea.sol\":5726:5740  cancelDeadline */\n      dup1\n        /* \"scritturatemporanea.sol\":5709:5713  loan */\n      dup4\n        /* \"scritturatemporanea.sol\":5709:5723  loan.startDate */\n      0x07\n      add\n      sload\n        /* \"scritturatemporanea.sol\":5709:5740  loan.startDate < cancelDeadline */\n      lt\n        /* \"scritturatemporanea.sol\":5675:5740  loan.status == LoanStatus.Paid && loan.startDate < cancelDeadline */\n    tag_193:\n        /* \"scritturatemporanea.sol\":5671:5890  if (loan.status == LoanStatus.Paid && loan.startDate < cancelDeadline) {... */\n      tag_195\n      jumpi\n        /* \"scritturatemporanea.sol\":5850:5878  revert(\"No loan to cancel.\") */\n      mload(0x40)\n      0x08c379a000000000000000000000000000000000000000000000000000000000\n      dup2\n      mstore\n      0x04\n      add\n      tag_196\n      swap1\n      tag_197\n      jump\t// in\n    tag_196:\n      mload(0x40)\n      dup1\n      swap2\n      sub\n      swap1\n      revert\n        /* \"scritturatemporanea.sol\":5671:5890  if (loan.status == LoanStatus.Paid && loan.startDate < cancelDeadline) {... */\n    tag_195:\n        /* \"scritturatemporanea.sol\":5576:5890  if (loan.status == LoanStatus.Pending) {... */\n    tag_188:\n        /* \"scritturatemporanea.sol\":5302:5897  {... */\n      pop\n      pop\n      pop\n        /* \"scritturatemporanea.sol\":5248:5897  function cancelLoan(uint256 _loanId) external payable {... */\n      pop\n      jump\t// out\n        /* \"scritturatemporanea.sol\":952:993  mapping(uint256 => Loan) public loansById */\n    tag_41:\n      mstore(0x20, 0x01)\n      dup1\n      0x00\n      mstore\n      keccak256(0x00, 0x40)\n      0x00\n      swap2\n      pop\n      swap1\n      pop\n      dup1\n      0x00\n      add\n      sload\n      swap1\n      dup1\n      0x01\n      add\n      mload(0x40)\n      dup1\n      0x60\n      add\n      0x40\n      mstore\n      swap1\n      dup2\n      0x00\n      dup3\n      add\n      0x00\n      swap1\n      sload\n      swap1\n      0x0100\n      exp\n      swap1\n      div\n      0xffffffffffffffffffffffffffffffffffffffff\n      and\n      0xffffffffffffffffffffffffffffffffffffffff\n      and\n      0xffffffffffffffffffffffffffffffffffffffff\n      and\n      dup2\n      mstore\n      0x20\n      add\n      0x00\n      dup3\n      add\n      0x14\n      swap1\n      sload\n      swap1\n      0x0100\n      exp\n      swap1\n      div\n      0xff\n      and\n      0xff\n      and\n      0xff\n      and\n      dup2\n      mstore\n      0x20\n      add\n      0x01\n      dup3\n      add\n      dup1\n      sload\n      dup1\n      0x20\n      mul\n      0x20\n      add\n      mload(0x40)\n      swap1\n      dup2\n      add\n      0x40\n      mstore\n      dup1\n      swap3\n      swap2\n      swap1\n      dup2\n      dup2\n      mstore\n      0x20\n      add\n      dup3\n      dup1\n      sload\n      dup1\n      iszero\n      tag_198\n      jumpi\n      0x20\n      mul\n      dup3\n      add\n      swap2\n      swap1\n      0x00\n      mstore\n      keccak256(0x00, 0x20)\n      swap1\n    tag_199:\n      dup2\n      sload\n      dup2\n      mstore\n      0x20\n      add\n      swap1\n      0x01\n      add\n      swap1\n      dup1\n      dup4\n      gt\n      tag_199\n      jumpi\n    tag_198:\n      pop\n      pop\n      pop\n      pop\n      pop\n      dup2\n      mstore\n      pop\n      pop\n      swap1\n      dup1\n      0x03\n      add\n      0x00\n      swap1\n      sload\n      swap1\n      0x0100\n      exp\n      swap1\n      div\n      0xffffffffffffffffffffffffffffffffffffffff\n      and\n      swap1\n      dup1\n      0x04\n      add\n      sload\n      swap1\n      dup1\n      0x05\n      add\n      sload\n      swap1\n      dup1\n      0x06\n      add\n      sload\n      swap1\n      dup1\n      0x07\n      add\n      sload\n      swap1\n      dup1\n      0x08\n      add\n      sload\n      swap1\n      dup1\n      0x09\n      add\n      0x00\n      swap1\n      sload\n      swap1\n      0x0100\n      exp\n      swap1\n      div\n      0xff\n      and\n      swap1\n      pop\n      dup10\n      jump\t// out\n        /* \"scritturatemporanea.sol\":1139:1189  mapping(address => uint256[]) public borrowerLoans */\n    tag_48:\n      mstore(0x20, 0x03)\n      dup2\n      0x00\n      mstore\n      keccak256(0x00, 0x40)\n      dup2\n      dup2\n      sload\n      dup2\n      lt\n      tag_200\n      jumpi\n      0x00\n      dup1\n      revert\n    tag_200:\n      swap1\n      0x00\n      mstore\n      keccak256(0x00, 0x20)\n      add\n      0x00\n      swap2\n      pop\n      swap2\n      pop\n      pop\n      sload\n      dup2\n      jump\t// out\n        /* \"scritturatemporanea.sol\":1558:2237  function getPendingLoansArray() private view returns (Loan[] memory, uint256) {... */\n    tag_81:\n        /* \"scritturatemporanea.sol\":1612:1625  Loan[] memory */\n      0x60\n        /* \"scritturatemporanea.sol\":1627:1634  uint256 */\n      0x00\n        /* \"scritturatemporanea.sol\":1647:1671  uint256 pendingLoanCount */\n      0x00\n        /* \"scritturatemporanea.sol\":1674:1675  0 */\n      0x00\n        /* \"scritturatemporanea.sol\":1647:1675  uint256 pendingLoanCount = 0 */\n      swap1\n      pop\n        /* \"scritturatemporanea.sol\":1693:1702  uint256 i */\n      0x00\n        /* \"scritturatemporanea.sol\":1705:1706  1 */\n      0x01\n        /* \"scritturatemporanea.sol\":1693:1706  uint256 i = 1 */\n      swap1\n      pop\n        /* \"scritturatemporanea.sol\":1688:1857  for (uint256 i = 1; i <= loanCounter; i++) {... */\n    tag_203:\n        /* \"scritturatemporanea.sol\":1713:1724  loanCounter */\n      sload(0x00)\n        /* \"scritturatemporanea.sol\":1708:1709  i */\n      dup2\n        /* \"scritturatemporanea.sol\":1708:1724  i <= loanCounter */\n      gt\n        /* \"scritturatemporanea.sol\":1688:1857  for (uint256 i = 1; i <= loanCounter; i++) {... */\n      tag_204\n      jumpi\n        /* \"scritturatemporanea.sol\":1773:1791  LoanStatus.Pending */\n      0x01\n        /* \"scritturatemporanea.sol\":1750:1791  loansById[i].status == LoanStatus.Pending */\n      0x04\n      dup2\n      gt\n      iszero\n      tag_206\n      jumpi\n      tag_207\n      tag_57\n      jump\t// in\n    tag_207:\n    tag_206:\n        /* \"scritturatemporanea.sol\":1750:1759  loansById */\n      0x01\n        /* \"scritturatemporanea.sol\":1750:1762  loansById[i] */\n      0x00\n        /* \"scritturatemporanea.sol\":1760:1761  i */\n      dup4\n        /* \"scritturatemporanea.sol\":1750:1762  loansById[i] */\n      dup2\n      mstore\n      0x20\n      add\n      swap1\n      dup2\n      mstore\n      0x20\n      add\n      0x00\n      keccak256\n        /* \"scritturatemporanea.sol\":1750:1769  loansById[i].status */\n      0x09\n      add\n      0x00\n      swap1\n      sload\n      swap1\n      0x0100\n      exp\n      swap1\n      div\n      0xff\n      and\n        /* \"scritturatemporanea.sol\":1750:1791  loansById[i].status == LoanStatus.Pending */\n      0x04\n      dup2\n      gt\n      iszero\n      tag_208\n      jumpi\n      tag_209\n      tag_57\n      jump\t// in\n    tag_209:\n    tag_208:\n      sub\n        /* \"scritturatemporanea.sol\":1746:1846  if (loansById[i].status == LoanStatus.Pending) {... */\n      tag_210\n      jumpi\n        /* \"scritturatemporanea.sol\":1812:1830  pendingLoanCount++ */\n      dup2\n      dup1\n      tag_211\n      swap1\n      tag_163\n      jump\t// in\n    tag_211:\n      swap3\n      pop\n      pop\n        /* \"scritturatemporanea.sol\":1746:1846  if (loansById[i].status == LoanStatus.Pending) {... */\n    tag_210:\n        /* \"scritturatemporanea.sol\":1726:1729  i++ */\n      dup1\n      dup1\n      tag_212\n      swap1\n      tag_163\n      jump\t// in\n    tag_212:\n      swap2\n      pop\n      pop\n        /* \"scritturatemporanea.sol\":1688:1857  for (uint256 i = 1; i <= loanCounter; i++) {... */\n      jump(tag_203)\n    tag_204:\n      pop\n        /* \"scritturatemporanea.sol\":1869:1895  Loan[] memory pendingLoans */\n      0x00\n        /* \"scritturatemporanea.sol\":1909:1925  pendingLoanCount */\n      dup2\n        /* \"scritturatemporanea.sol\":1898:1926  new Loan[](pendingLoanCount) */\n      0xffffffffffffffff\n      dup2\n      gt\n      iszero\n      tag_213\n      jumpi\n      tag_214\n      tag_215\n      jump\t// in\n    tag_214:\n    tag_213:\n      mload(0x40)\n      swap1\n      dup1\n      dup3\n      mstore\n      dup1\n      0x20\n      mul\n      0x20\n      add\n      dup3\n      add\n      0x40\n      mstore\n      dup1\n      iszero\n      tag_216\n      jumpi\n      dup2\n      0x20\n      add\n    tag_217:\n      tag_218\n      tag_219\n      jump\t// in\n    tag_218:\n      dup2\n      mstore\n      0x20\n      add\n      swap1\n      0x01\n      swap1\n      sub\n      swap1\n      dup2\n      tag_217\n      jumpi\n      swap1\n      pop\n    tag_216:\n      pop\n        /* \"scritturatemporanea.sol\":1869:1926  Loan[] memory pendingLoans = new Loan[](pendingLoanCount) */\n      swap1\n      pop\n        /* \"scritturatemporanea.sol\":1937:1950  uint256 index */\n      0x00\n        /* \"scritturatemporanea.sol\":1953:1954  0 */\n      0x00\n        /* \"scritturatemporanea.sol\":1937:1954  uint256 index = 0 */\n      swap1\n      pop\n        /* \"scritturatemporanea.sol\":1972:1981  uint256 i */\n      0x00\n        /* \"scritturatemporanea.sol\":1984:1985  1 */\n      0x01\n        /* \"scritturatemporanea.sol\":1972:1985  uint256 i = 1 */\n      swap1\n      pop\n        /* \"scritturatemporanea.sol\":1967:2178  for (uint256 i = 1; i <= loanCounter; i++) {... */\n    tag_220:\n        /* \"scritturatemporanea.sol\":1992:2003  loanCounter */\n      sload(0x00)\n        /* \"scritturatemporanea.sol\":1987:1988  i */\n      dup2\n        /* \"scritturatemporanea.sol\":1987:2003  i <= loanCounter */\n      gt\n        /* \"scritturatemporanea.sol\":1967:2178  for (uint256 i = 1; i <= loanCounter; i++) {... */\n      tag_221\n      jumpi\n        /* \"scritturatemporanea.sol\":2052:2070  LoanStatus.Pending */\n      0x01\n        /* \"scritturatemporanea.sol\":2029:2070  loansById[i].status == LoanStatus.Pending */\n      0x04\n      dup2\n      gt\n      iszero\n      tag_223\n      jumpi\n      tag_224\n      tag_57\n      jump\t// in\n    tag_224:\n    tag_223:\n        /* \"scritturatemporanea.sol\":2029:2038  loansById */\n      0x01\n        /* \"scritturatemporanea.sol\":2029:2041  loansById[i] */\n      0x00\n        /* \"scritturatemporanea.sol\":2039:2040  i */\n      dup4\n        /* \"scritturatemporanea.sol\":2029:2041  loansById[i] */\n      dup2\n      mstore\n      0x20\n      add\n      swap1\n      dup2\n      mstore\n      0x20\n      add\n      0x00\n      keccak256\n        /* \"scritturatemporanea.sol\":2029:2048  loansById[i].status */\n      0x09\n      add\n      0x00\n      swap1\n      sload\n      swap1\n      0x0100\n      exp\n      swap1\n      div\n      0xff\n      and\n        /* \"scritturatemporanea.sol\":2029:2070  loansById[i].status == LoanStatus.Pending */\n      0x04\n      dup2\n      gt\n      iszero\n      tag_225\n      jumpi\n      tag_226\n      tag_57\n      jump\t// in\n    tag_226:\n    tag_225:\n      sub\n        /* \"scritturatemporanea.sol\":2025:2167  if (loansById[i].status == LoanStatus.Pending) {... */\n      tag_227\n      jumpi\n        /* \"scritturatemporanea.sol\":2113:2122  loansById */\n      0x01\n        /* \"scritturatemporanea.sol\":2113:2125  loansById[i] */\n      0x00\n        /* \"scritturatemporanea.sol\":2123:2124  i */\n      dup3\n        /* \"scritturatemporanea.sol\":2113:2125  loansById[i] */\n      dup2\n      mstore\n      0x20\n      add\n      swap1\n      dup2\n      mstore\n      0x20\n      add\n      0x00\n      keccak256\n        /* \"scritturatemporanea.sol\":2091:2125  pendingLoans[index] = loansById[i] */\n      mload(0x40)\n      dup1\n      0x0120\n      add\n      0x40\n      mstore\n      swap1\n      dup2\n      0x00\n      dup3\n      add\n      sload\n      dup2\n      mstore\n      0x20\n      add\n      0x01\n      dup3\n      add\n      mload(0x40)\n      dup1\n      0x60\n      add\n      0x40\n      mstore\n      swap1\n      dup2\n      0x00\n      dup3\n      add\n      0x00\n      swap1\n      sload\n      swap1\n      0x0100\n      exp\n      swap1\n      div\n      0xffffffffffffffffffffffffffffffffffffffff\n      and\n      0xffffffffffffffffffffffffffffffffffffffff\n      and\n      0xffffffffffffffffffffffffffffffffffffffff\n      and\n      dup2\n      mstore\n      0x20\n      add\n      0x00\n      dup3\n      add\n      0x14\n      swap1\n      sload\n      swap1\n      0x0100\n      exp\n      swap1\n      div\n      0xff\n      and\n      0xff\n      and\n      0xff\n      and\n      dup2\n      mstore\n      0x20\n      add\n      0x01\n      dup3\n      add\n      dup1\n      sload\n      dup1\n      0x20\n      mul\n      0x20\n      add\n      mload(0x40)\n      swap1\n      dup2\n      add\n      0x40\n      mstore\n      dup1\n      swap3\n      swap2\n      swap1\n      dup2\n      dup2\n      mstore\n      0x20\n      add\n      dup3\n      dup1\n      sload\n      dup1\n      iszero\n      tag_228\n      jumpi\n      0x20\n      mul\n      dup3\n      add\n      swap2\n      swap1\n      0x00\n      mstore\n      keccak256(0x00, 0x20)\n      swap1\n    tag_229:\n      dup2\n      sload\n      dup2\n      mstore\n      0x20\n      add\n      swap1\n      0x01\n      add\n      swap1\n      dup1\n      dup4\n      gt\n      tag_229\n      jumpi\n    tag_228:\n      pop\n      pop\n      pop\n      pop\n      pop\n      dup2\n      mstore\n      pop\n      pop\n      dup2\n      mstore\n      0x20\n      add\n      0x03\n      dup3\n      add\n      0x00\n      swap1\n      sload\n      swap1\n      0x0100\n      exp\n      swap1\n      div\n      0xffffffffffffffffffffffffffffffffffffffff\n      and\n      0xffffffffffffffffffffffffffffffffffffffff\n      and\n      0xffffffffffffffffffffffffffffffffffffffff\n      and\n      dup2\n      mstore\n      0x20\n      add\n      0x04\n      dup3\n      add\n      sload\n      dup2\n      mstore\n      0x20\n      add\n      0x05\n      dup3\n      add\n      sload\n      dup2\n      mstore\n      0x20\n      add\n      0x06\n      dup3\n      add\n      sload\n      dup2\n      mstore\n      0x20\n      add\n      0x07\n      dup3\n      add\n      sload\n      dup2\n      mstore\n      0x20\n      add\n      0x08\n      dup3\n      add\n      sload\n      dup2\n      mstore\n      0x20\n      add\n      0x09\n      dup3\n      add\n      0x00\n      swap1\n      sload\n      swap1\n      0x0100\n      exp\n      swap1\n      div\n      0xff\n      and\n      0x04\n      dup2\n      gt\n      iszero\n      tag_230\n      jumpi\n      tag_231\n      tag_57\n      jump\t// in\n    tag_231:\n    tag_230:\n      0x04\n      dup2\n      gt\n      iszero\n      tag_232\n      jumpi\n      tag_233\n      tag_57\n      jump\t// in\n    tag_233:\n    tag_232:\n      dup2\n      mstore\n      pop\n      pop\n        /* \"scritturatemporanea.sol\":2091:2103  pendingLoans */\n      dup4\n        /* \"scritturatemporanea.sol\":2104:2109  index */\n      dup4\n        /* \"scritturatemporanea.sol\":2091:2110  pendingLoans[index] */\n      dup2\n      mload\n      dup2\n      lt\n      tag_234\n      jumpi\n      tag_235\n      tag_94\n      jump\t// in\n    tag_235:\n    tag_234:\n      0x20\n      mul\n      0x20\n      add\n      add\n        /* \"scritturatemporanea.sol\":2091:2125  pendingLoans[index] = loansById[i] */\n      dup2\n      swap1\n      mstore\n      pop\n        /* \"scritturatemporanea.sol\":2144:2151  index++ */\n      dup2\n      dup1\n      tag_236\n      swap1\n      tag_163\n      jump\t// in\n    tag_236:\n      swap3\n      pop\n      pop\n        /* \"scritturatemporanea.sol\":2025:2167  if (loansById[i].status == LoanStatus.Pending) {... */\n    tag_227:\n        /* \"scritturatemporanea.sol\":2005:2008  i++ */\n      dup1\n      dup1\n      tag_237\n      swap1\n      tag_163\n      jump\t// in\n    tag_237:\n      swap2\n      pop\n      pop\n        /* \"scritturatemporanea.sol\":1967:2178  for (uint256 i = 1; i <= loanCounter; i++) {... */\n      jump(tag_220)\n    tag_221:\n      pop\n        /* \"scritturatemporanea.sol\":2198:2210  pendingLoans */\n      dup2\n        /* \"scritturatemporanea.sol\":2212:2228  pendingLoanCount */\n      dup4\n        /* \"scritturatemporanea.sol\":2190:2229  return (pendingLoans, pendingLoanCount) */\n      swap5\n      pop\n      swap5\n      pop\n      pop\n      pop\n      pop\n        /* \"scritturatemporanea.sol\":1558:2237  function getPendingLoansArray() private view returns (Loan[] memory, uint256) {... */\n      swap1\n      swap2\n      jump\t// out\n        /* \"scritturatemporanea.sol\":2245:3344  function loanInterestCalculator(uint8 _creditScore) private pure returns (uint256, uint256) {... */\n    tag_167:\n        /* \"scritturatemporanea.sol\":2319:2326  uint256 */\n      0x00\n        /* \"scritturatemporanea.sol\":2328:2335  uint256 */\n      0x00\n        /* \"scritturatemporanea.sol\":2372:2373  4 */\n      0x04\n        /* \"scritturatemporanea.sol\":2356:2368  _creditScore */\n      dup4\n        /* \"scritturatemporanea.sol\":2356:2373  _creditScore <= 4 */\n      0xff\n      and\n      gt\n      iszero\n        /* \"scritturatemporanea.sol\":2348:2398  require(_creditScore <= 4, \"Invalid credit score\") */\n      tag_239\n      jumpi\n      mload(0x40)\n      0x08c379a000000000000000000000000000000000000000000000000000000000\n      dup2\n      mstore\n      0x04\n      add\n      tag_240\n      swap1\n      tag_241\n      jump\t// in\n    tag_240:\n      mload(0x40)\n      dup1\n      swap2\n      sub\n      swap1\n      revert\n    tag_239:\n        /* \"scritturatemporanea.sol\":2438:2468  uint256 annualizedInterestRate */\n      0x00\n        /* \"scritturatemporanea.sol\":2479:2508  uint256 annualizedPenaltyRate */\n      0x00\n        /* \"scritturatemporanea.sol\":2541:2542  0 */\n      0x00\n        /* \"scritturatemporanea.sol\":2525:2537  _creditScore */\n      dup6\n        /* \"scritturatemporanea.sol\":2525:2542  _creditScore == 0 */\n      0xff\n      and\n      sub\n        /* \"scritturatemporanea.sol\":2521:3270  if (_creditScore == 0) {... */\n      tag_242\n      jumpi\n        /* \"scritturatemporanea.sol\":2584:2588  2000 */\n      0x07d0\n        /* \"scritturatemporanea.sol\":2559:2588  annualizedInterestRate = 2000 */\n      swap2\n      pop\n        /* \"scritturatemporanea.sol\":2634:2638  3000 */\n      0x0bb8\n        /* \"scritturatemporanea.sol\":2610:2638  annualizedPenaltyRate = 3000 */\n      swap1\n      pop\n        /* \"scritturatemporanea.sol\":2521:3270  if (_creditScore == 0) {... */\n      jump(tag_243)\n    tag_242:\n        /* \"scritturatemporanea.sol\":2694:2695  1 */\n      0x01\n        /* \"scritturatemporanea.sol\":2678:2690  _creditScore */\n      dup6\n        /* \"scritturatemporanea.sol\":2678:2695  _creditScore == 1 */\n      0xff\n      and\n      sub\n        /* \"scritturatemporanea.sol\":2674:3270  if (_creditScore == 1) {... */\n      tag_244\n      jumpi\n        /* \"scritturatemporanea.sol\":2737:2741  1200 */\n      0x04b0\n        /* \"scritturatemporanea.sol\":2712:2741  annualizedInterestRate = 1200 */\n      swap2\n      pop\n        /* \"scritturatemporanea.sol\":2787:2791  2000 */\n      0x07d0\n        /* \"scritturatemporanea.sol\":2763:2791  annualizedPenaltyRate = 2000 */\n      swap1\n      pop\n        /* \"scritturatemporanea.sol\":2674:3270  if (_creditScore == 1) {... */\n      jump(tag_245)\n    tag_244:\n        /* \"scritturatemporanea.sol\":2847:2848  2 */\n      0x02\n        /* \"scritturatemporanea.sol\":2831:2843  _creditScore */\n      dup6\n        /* \"scritturatemporanea.sol\":2831:2848  _creditScore == 2 */\n      0xff\n      and\n      sub\n        /* \"scritturatemporanea.sol\":2827:3270  if (_creditScore == 2) {... */\n      tag_246\n      jumpi\n        /* \"scritturatemporanea.sol\":2890:2894  1000 */\n      0x03e8\n        /* \"scritturatemporanea.sol\":2865:2894  annualizedInterestRate = 1000 */\n      swap2\n      pop\n        /* \"scritturatemporanea.sol\":2940:2944  1500 */\n      0x05dc\n        /* \"scritturatemporanea.sol\":2916:2944  annualizedPenaltyRate = 1500 */\n      swap1\n      pop\n        /* \"scritturatemporanea.sol\":2827:3270  if (_creditScore == 2) {... */\n      jump(tag_247)\n    tag_246:\n        /* \"scritturatemporanea.sol\":3001:3002  3 */\n      0x03\n        /* \"scritturatemporanea.sol\":2985:2997  _creditScore */\n      dup6\n        /* \"scritturatemporanea.sol\":2985:3002  _creditScore == 3 */\n      0xff\n      and\n      sub\n        /* \"scritturatemporanea.sol\":2981:3270  if (_creditScore == 3) {... */\n      tag_248\n      jumpi\n        /* \"scritturatemporanea.sol\":3044:3047  800 */\n      0x0320\n        /* \"scritturatemporanea.sol\":3019:3047  annualizedInterestRate = 800 */\n      swap2\n      pop\n        /* \"scritturatemporanea.sol\":3093:3097  1300 */\n      0x0514\n        /* \"scritturatemporanea.sol\":3069:3097  annualizedPenaltyRate = 1300 */\n      swap1\n      pop\n        /* \"scritturatemporanea.sol\":2981:3270  if (_creditScore == 3) {... */\n      jump(tag_249)\n    tag_248:\n        /* \"scritturatemporanea.sol\":3153:3154  4 */\n      0x04\n        /* \"scritturatemporanea.sol\":3137:3149  _creditScore */\n      dup6\n        /* \"scritturatemporanea.sol\":3137:3154  _creditScore >= 4 */\n      0xff\n      and\n      lt\n        /* \"scritturatemporanea.sol\":3133:3270  if (_creditScore >= 4) {  ... */\n      tag_250\n      jumpi\n        /* \"scritturatemporanea.sol\":3198:3201  600 */\n      0x0258\n        /* \"scritturatemporanea.sol\":3173:3201  annualizedInterestRate = 600 */\n      swap2\n      pop\n        /* \"scritturatemporanea.sol\":3247:3250  900 */\n      0x0384\n        /* \"scritturatemporanea.sol\":3223:3250  annualizedPenaltyRate = 900 */\n      swap1\n      pop\n        /* \"scritturatemporanea.sol\":3133:3270  if (_creditScore >= 4) {  ... */\n    tag_250:\n        /* \"scritturatemporanea.sol\":2981:3270  if (_creditScore == 3) {... */\n    tag_249:\n        /* \"scritturatemporanea.sol\":2827:3270  if (_creditScore == 2) {... */\n    tag_247:\n        /* \"scritturatemporanea.sol\":2674:3270  if (_creditScore == 1) {... */\n    tag_245:\n        /* \"scritturatemporanea.sol\":2521:3270  if (_creditScore == 0) {... */\n    tag_243:\n        /* \"scritturatemporanea.sol\":3290:3312  annualizedInterestRate */\n      dup2\n        /* \"scritturatemporanea.sol\":3314:3335  annualizedPenaltyRate */\n      dup2\n        /* \"scritturatemporanea.sol\":3282:3336  return (annualizedInterestRate, annualizedPenaltyRate) */\n      swap4\n      pop\n      swap4\n      pop\n      pop\n      pop\n        /* \"scritturatemporanea.sol\":2245:3344  function loanInterestCalculator(uint8 _creditScore) private pure returns (uint256, uint256) {... */\n      swap2\n      pop\n      swap2\n      jump\t// out\n        /* \"scritturatemporanea.sol\":3352:3524  function addNewLoan(Loan memory _loan) private {... */\n    tag_173:\n        /* \"scritturatemporanea.sol\":3436:3441  _loan */\n      dup1\n        /* \"scritturatemporanea.sol\":3410:3419  loansById */\n      0x01\n        /* \"scritturatemporanea.sol\":3410:3433  loansById[_loan.loanId] */\n      0x00\n        /* \"scritturatemporanea.sol\":3420:3425  _loan */\n      dup4\n        /* \"scritturatemporanea.sol\":3420:3432  _loan.loanId */\n      0x00\n      add\n      mload\n        /* \"scritturatemporanea.sol\":3410:3433  loansById[_loan.loanId] */\n      dup2\n      mstore\n      0x20\n      add\n      swap1\n      dup2\n      mstore\n      0x20\n      add\n      0x00\n      keccak256\n        /* \"scritturatemporanea.sol\":3410:3441  loansById[_loan.loanId] = _loan */\n      0x00\n      dup3\n      add\n      mload\n      dup2\n      0x00\n      add\n      sstore\n      0x20\n      dup3\n      add\n      mload\n      dup2\n      0x01\n      add\n      0x00\n      dup3\n      add\n      mload\n      dup2\n      0x00\n      add\n      exp(0x0100, 0x00)\n      dup2\n      sload\n      dup2\n      0xffffffffffffffffffffffffffffffffffffffff\n      mul\n      not\n      and\n      swap1\n      dup4\n      0xffffffffffffffffffffffffffffffffffffffff\n      and\n      mul\n      or\n      swap1\n      sstore\n      pop\n      0x20\n      dup3\n      add\n      mload\n      dup2\n      0x00\n      add\n      exp(0x0100, 0x14)\n      dup2\n      sload\n      dup2\n      0xff\n      mul\n      not\n      and\n      swap1\n      dup4\n      0xff\n      and\n      mul\n      or\n      swap1\n      sstore\n      pop\n      0x40\n      dup3\n      add\n      mload\n      dup2\n      0x01\n      add\n      swap1\n      dup1\n      mload\n      swap1\n      0x20\n      add\n      swap1\n      tag_252\n      swap3\n      swap2\n      swap1\n      tag_253\n      jump\t// in\n    tag_252:\n      pop\n      pop\n      pop\n      0x40\n      dup3\n      add\n      mload\n      dup2\n      0x03\n      add\n      exp(0x0100, 0x00)\n      dup2\n      sload\n      dup2\n      0xffffffffffffffffffffffffffffffffffffffff\n      mul\n      not\n      and\n      swap1\n      dup4\n      0xffffffffffffffffffffffffffffffffffffffff\n      and\n      mul\n      or\n      swap1\n      sstore\n      pop\n      0x60\n      dup3\n      add\n      mload\n      dup2\n      0x04\n      add\n      sstore\n      0x80\n      dup3\n      add\n      mload\n      dup2\n      0x05\n      add\n      sstore\n      0xa0\n      dup3\n      add\n      mload\n      dup2\n      0x06\n      add\n      sstore\n      0xc0\n      dup3\n      add\n      mload\n      dup2\n      0x07\n      add\n      sstore\n      0xe0\n      dup3\n      add\n      mload\n      dup2\n      0x08\n      add\n      sstore\n      0x0100\n      dup3\n      add\n      mload\n      dup2\n      0x09\n      add\n      exp(0x0100, 0x00)\n      dup2\n      sload\n      dup2\n      0xff\n      mul\n      not\n      and\n      swap1\n      dup4\n      0x04\n      dup2\n      gt\n      iszero\n      tag_254\n      jumpi\n      tag_255\n      tag_57\n      jump\t// in\n    tag_255:\n    tag_254:\n      mul\n      or\n      swap1\n      sstore\n      pop\n      swap1\n      pop\n      pop\n        /* \"scritturatemporanea.sol\":3452:3465  borrowerLoans */\n      0x03\n        /* \"scritturatemporanea.sol\":3452:3497  borrowerLoans[_loan.borrower.borrowerAddress] */\n      0x00\n        /* \"scritturatemporanea.sol\":3466:3471  _loan */\n      dup3\n        /* \"scritturatemporanea.sol\":3466:3480  _loan.borrower */\n      0x20\n      add\n      mload\n        /* \"scritturatemporanea.sol\":3466:3496  _loan.borrower.borrowerAddress */\n      0x00\n      add\n      mload\n        /* \"scritturatemporanea.sol\":3452:3497  borrowerLoans[_loan.borrower.borrowerAddress] */\n      0xffffffffffffffffffffffffffffffffffffffff\n      and\n      0xffffffffffffffffffffffffffffffffffffffff\n      and\n      dup2\n      mstore\n      0x20\n      add\n      swap1\n      dup2\n      mstore\n      0x20\n      add\n      0x00\n      keccak256\n        /* \"scritturatemporanea.sol\":3503:3508  _loan */\n      dup2\n        /* \"scritturatemporanea.sol\":3503:3515  _loan.loanId */\n      0x00\n      add\n      mload\n        /* \"scritturatemporanea.sol\":3452:3516  borrowerLoans[_loan.borrower.borrowerAddress].push(_loan.loanId) */\n      swap1\n      dup1\n      0x01\n      dup2\n      sload\n      add\n      dup1\n      dup3\n      sstore\n      dup1\n      swap2\n      pop\n      pop\n      0x01\n      swap1\n      sub\n      swap1\n      0x00\n      mstore\n      keccak256(0x00, 0x20)\n      add\n      0x00\n      swap1\n      swap2\n      swap1\n      swap2\n      swap1\n      swap2\n      pop\n      sstore\n        /* \"scritturatemporanea.sol\":3352:3524  function addNewLoan(Loan memory _loan) private {... */\n      pop\n      jump\t// out\n        /* \"scritturatemporanea.sol\":3532:3638  function cancelPendingLoan(Loan storage loan) private {... */\n    tag_187:\n        /* \"scritturatemporanea.sol\":3611:3630  LoanStatus.Canceled */\n      0x04\n        /* \"scritturatemporanea.sol\":3597:3601  loan */\n      dup2\n        /* \"scritturatemporanea.sol\":3597:3608  loan.status */\n      0x09\n      add\n      0x00\n        /* \"scritturatemporanea.sol\":3597:3630  loan.status = LoanStatus.Canceled */\n      0x0100\n      exp\n      dup2\n      sload\n      dup2\n      0xff\n      mul\n      not\n      and\n      swap1\n      dup4\n      0x04\n      dup2\n      gt\n      iszero\n      tag_258\n      jumpi\n      tag_259\n      tag_57\n      jump\t// in\n    tag_259:\n    tag_258:\n      mul\n      or\n      swap1\n      sstore\n      pop\n        /* \"scritturatemporanea.sol\":3532:3638  function cancelPendingLoan(Loan storage loan) private {... */\n      pop\n      jump\t// out\n    tag_219:\n      mload(0x40)\n      dup1\n      0x0120\n      add\n      0x40\n      mstore\n      dup1\n      0x00\n      dup2\n      mstore\n      0x20\n      add\n      tag_260\n      tag_261\n      jump\t// in\n    tag_260:\n      dup2\n      mstore\n      0x20\n      add\n      and(0xffffffffffffffffffffffffffffffffffffffff, 0x00)\n      dup2\n      mstore\n      0x20\n      add\n      0x00\n      dup2\n      mstore\n      0x20\n      add\n      0x00\n      dup2\n      mstore\n      0x20\n      add\n      0x00\n      dup2\n      mstore\n      0x20\n      add\n      0x00\n      dup2\n      mstore\n      0x20\n      add\n      0x00\n      dup2\n      mstore\n      0x20\n      add\n      0x00\n      0x04\n      dup2\n      gt\n      iszero\n      tag_262\n      jumpi\n      tag_263\n      tag_57\n      jump\t// in\n    tag_263:\n    tag_262:\n      dup2\n      mstore\n      pop\n      swap1\n      jump\t// out\n    tag_253:\n      dup3\n      dup1\n      sload\n      dup3\n      dup3\n      sstore\n      swap1\n      0x00\n      mstore\n      keccak256(0x00, 0x20)\n      swap1\n      dup2\n      add\n      swap3\n      dup3\n      iszero\n      tag_264\n      jumpi\n      swap2\n      0x20\n      mul\n      dup3\n      add\n    tag_265:\n      dup3\n      dup2\n      gt\n      iszero\n      tag_266\n      jumpi\n      dup3\n      mload\n      dup3\n      sstore\n      swap2\n      0x20\n      add\n      swap2\n      swap1\n      0x01\n      add\n      swap1\n      jump(tag_265)\n    tag_266:\n    tag_264:\n      pop\n      swap1\n      pop\n      tag_267\n      swap2\n      swap1\n      tag_268\n      jump\t// in\n    tag_267:\n      pop\n      swap1\n      jump\t// out\n    tag_261:\n      mload(0x40)\n      dup1\n      0x60\n      add\n      0x40\n      mstore\n      dup1\n      and(0xffffffffffffffffffffffffffffffffffffffff, 0x00)\n      dup2\n      mstore\n      0x20\n      add\n      and(0xff, 0x00)\n      dup2\n      mstore\n      0x20\n      add\n      0x60\n      dup2\n      mstore\n      pop\n      swap1\n      jump\t// out\n    tag_268:\n    tag_269:\n      dup1\n      dup3\n      gt\n      iszero\n      tag_270\n      jumpi\n      0x00\n      dup2\n      0x00\n      swap1\n      sstore\n      pop\n      0x01\n      add\n      jump(tag_269)\n    tag_270:\n      pop\n      swap1\n      jump\t// out\n        /* \"#utility.yul\":88:205   */\n    tag_272:\n        /* \"#utility.yul\":197:198   */\n      0x00\n        /* \"#utility.yul\":194:195   */\n      0x00\n        /* \"#utility.yul\":187:199   */\n      revert\n        /* \"#utility.yul\":334:411   */\n    tag_274:\n        /* \"#utility.yul\":371:378   */\n      0x00\n        /* \"#utility.yul\":400:405   */\n      dup2\n        /* \"#utility.yul\":389:405   */\n      swap1\n      pop\n        /* \"#utility.yul\":334:411   */\n      swap2\n      swap1\n      pop\n      jump\t// out\n        /* \"#utility.yul\":417:539   */\n    tag_275:\n        /* \"#utility.yul\":490:514   */\n      tag_337\n        /* \"#utility.yul\":508:513   */\n      dup2\n        /* \"#utility.yul\":490:514   */\n      tag_274\n      jump\t// in\n    tag_337:\n        /* \"#utility.yul\":483:488   */\n      dup2\n        /* \"#utility.yul\":480:515   */\n      eq\n        /* \"#utility.yul\":470:533   */\n      tag_338\n      jumpi\n        /* \"#utility.yul\":529:530   */\n      0x00\n        /* \"#utility.yul\":526:527   */\n      0x00\n        /* \"#utility.yul\":519:531   */\n      revert\n        /* \"#utility.yul\":470:533   */\n    tag_338:\n        /* \"#utility.yul\":417:539   */\n      pop\n      jump\t// out\n        /* \"#utility.yul\":545:684   */\n    tag_276:\n        /* \"#utility.yul\":591:596   */\n      0x00\n        /* \"#utility.yul\":629:635   */\n      dup2\n        /* \"#utility.yul\":616:636   */\n      calldataload\n        /* \"#utility.yul\":607:636   */\n      swap1\n      pop\n        /* \"#utility.yul\":645:678   */\n      tag_340\n        /* \"#utility.yul\":672:677   */\n      dup2\n        /* \"#utility.yul\":645:678   */\n      tag_275\n      jump\t// in\n    tag_340:\n        /* \"#utility.yul\":545:684   */\n      swap3\n      swap2\n      pop\n      pop\n      jump\t// out\n        /* \"#utility.yul\":690:1019   */\n    tag_13:\n        /* \"#utility.yul\":749:755   */\n      0x00\n        /* \"#utility.yul\":798:800   */\n      0x20\n        /* \"#utility.yul\":786:795   */\n      dup3\n        /* \"#utility.yul\":777:784   */\n      dup5\n        /* \"#utility.yul\":773:796   */\n      sub\n        /* \"#utility.yul\":769:801   */\n      slt\n        /* \"#utility.yul\":766:885   */\n      iszero\n      tag_342\n      jumpi\n        /* \"#utility.yul\":804:883   */\n      tag_343\n      tag_272\n      jump\t// in\n    tag_343:\n        /* \"#utility.yul\":766:885   */\n    tag_342:\n        /* \"#utility.yul\":924:925   */\n      0x00\n        /* \"#utility.yul\":949:1002   */\n      tag_344\n        /* \"#utility.yul\":994:1001   */\n      dup5\n        /* \"#utility.yul\":985:991   */\n      dup3\n        /* \"#utility.yul\":974:983   */\n      dup6\n        /* \"#utility.yul\":970:992   */\n      add\n        /* \"#utility.yul\":949:1002   */\n      tag_276\n      jump\t// in\n    tag_344:\n        /* \"#utility.yul\":939:1002   */\n      swap2\n      pop\n        /* \"#utility.yul\":895:1012   */\n      pop\n        /* \"#utility.yul\":690:1019   */\n      swap3\n      swap2\n      pop\n      pop\n      jump\t// out\n        /* \"#utility.yul\":1025:1159   */\n    tag_277:\n        /* \"#utility.yul\":1112:1118   */\n      0x00\n        /* \"#utility.yul\":1146:1151   */\n      dup2\n        /* \"#utility.yul\":1140:1152   */\n      mload\n        /* \"#utility.yul\":1130:1152   */\n      swap1\n      pop\n        /* \"#utility.yul\":1025:1159   */\n      swap2\n      swap1\n      pop\n      jump\t// out\n        /* \"#utility.yul\":1165:1369   */\n    tag_278:\n        /* \"#utility.yul\":1284:1295   */\n      0x00\n        /* \"#utility.yul\":1318:1324   */\n      dup3\n        /* \"#utility.yul\":1313:1316   */\n      dup3\n        /* \"#utility.yul\":1306:1325   */\n      mstore\n        /* \"#utility.yul\":1358:1362   */\n      0x20\n        /* \"#utility.yul\":1353:1356   */\n      dup3\n        /* \"#utility.yul\":1349:1363   */\n      add\n        /* \"#utility.yul\":1334:1363   */\n      swap1\n      pop\n        /* \"#utility.yul\":1165:1369   */\n      swap3\n      swap2\n      pop\n      pop\n      jump\t// out\n        /* \"#utility.yul\":1375:1527   */\n    tag_279:\n        /* \"#utility.yul\":1462:1466   */\n      0x00\n        /* \"#utility.yul\":1485:1488   */\n      dup2\n        /* \"#utility.yul\":1477:1488   */\n      swap1\n      pop\n        /* \"#utility.yul\":1515:1519   */\n      0x20\n        /* \"#utility.yul\":1510:1513   */\n      dup3\n        /* \"#utility.yul\":1506:1520   */\n      add\n        /* \"#utility.yul\":1498:1520   */\n      swap1\n      pop\n        /* \"#utility.yul\":1375:1527   */\n      swap2\n      swap1\n      pop\n      jump\t// out\n        /* \"#utility.yul\":1533:1641   */\n    tag_280:\n        /* \"#utility.yul\":1610:1634   */\n      tag_349\n        /* \"#utility.yul\":1628:1633   */\n      dup2\n        /* \"#utility.yul\":1610:1634   */\n      tag_274\n      jump\t// in\n    tag_349:\n        /* \"#utility.yul\":1605:1608   */\n      dup3\n        /* \"#utility.yul\":1598:1635   */\n      mstore\n        /* \"#utility.yul\":1533:1641   */\n      pop\n      pop\n      jump\t// out\n        /* \"#utility.yul\":1647:1773   */\n    tag_281:\n        /* \"#utility.yul\":1684:1691   */\n      0x00\n        /* \"#utility.yul\":1724:1766   */\n      0xffffffffffffffffffffffffffffffffffffffff\n        /* \"#utility.yul\":1717:1722   */\n      dup3\n        /* \"#utility.yul\":1713:1767   */\n      and\n        /* \"#utility.yul\":1702:1767   */\n      swap1\n      pop\n        /* \"#utility.yul\":1647:1773   */\n      swap2\n      swap1\n      pop\n      jump\t// out\n        /* \"#utility.yul\":1779:1875   */\n    tag_282:\n        /* \"#utility.yul\":1816:1823   */\n      0x00\n        /* \"#utility.yul\":1845:1869   */\n      tag_352\n        /* \"#utility.yul\":1863:1868   */\n      dup3\n        /* \"#utility.yul\":1845:1869   */\n      tag_281\n      jump\t// in\n    tag_352:\n        /* \"#utility.yul\":1834:1869   */\n      swap1\n      pop\n        /* \"#utility.yul\":1779:1875   */\n      swap2\n      swap1\n      pop\n      jump\t// out\n        /* \"#utility.yul\":1881:1989   */\n    tag_283:\n        /* \"#utility.yul\":1958:1982   */\n      tag_354\n        /* \"#utility.yul\":1976:1981   */\n      dup2\n        /* \"#utility.yul\":1958:1982   */\n      tag_282\n      jump\t// in\n    tag_354:\n        /* \"#utility.yul\":1953:1956   */\n      dup3\n        /* \"#utility.yul\":1946:1983   */\n      mstore\n        /* \"#utility.yul\":1881:1989   */\n      pop\n      pop\n      jump\t// out\n        /* \"#utility.yul\":1995:2081   */\n    tag_284:\n        /* \"#utility.yul\":2030:2037   */\n      0x00\n        /* \"#utility.yul\":2070:2074   */\n      0xff\n        /* \"#utility.yul\":2063:2068   */\n      dup3\n        /* \"#utility.yul\":2059:2075   */\n      and\n        /* \"#utility.yul\":2048:2075   */\n      swap1\n      pop\n        /* \"#utility.yul\":1995:2081   */\n      swap2\n      swap1\n      pop\n      jump\t// out\n        /* \"#utility.yul\":2087:2189   */\n    tag_285:\n        /* \"#utility.yul\":2160:2182   */\n      tag_357\n        /* \"#utility.yul\":2176:2181   */\n      dup2\n        /* \"#utility.yul\":2160:2182   */\n      tag_284\n      jump\t// in\n    tag_357:\n        /* \"#utility.yul\":2155:2158   */\n      dup3\n        /* \"#utility.yul\":2148:2183   */\n      mstore\n        /* \"#utility.yul\":2087:2189   */\n      pop\n      pop\n      jump\t// out\n        /* \"#utility.yul\":2195:2309   */\n    tag_286:\n        /* \"#utility.yul\":2262:2268   */\n      0x00\n        /* \"#utility.yul\":2296:2301   */\n      dup2\n        /* \"#utility.yul\":2290:2302   */\n      mload\n        /* \"#utility.yul\":2280:2302   */\n      swap1\n      pop\n        /* \"#utility.yul\":2195:2309   */\n      swap2\n      swap1\n      pop\n      jump\t// out\n        /* \"#utility.yul\":2315:2489   */\n    tag_287:\n        /* \"#utility.yul\":2404:2415   */\n      0x00\n        /* \"#utility.yul\":2438:2444   */\n      dup3\n        /* \"#utility.yul\":2433:2436   */\n      dup3\n        /* \"#utility.yul\":2426:2445   */\n      mstore\n        /* \"#utility.yul\":2478:2482   */\n      0x20\n        /* \"#utility.yul\":2473:2476   */\n      dup3\n        /* \"#utility.yul\":2469:2483   */\n      add\n        /* \"#utility.yul\":2454:2483   */\n      swap1\n      pop\n        /* \"#utility.yul\":2315:2489   */\n      swap3\n      swap2\n      pop\n      pop\n      jump\t// out\n        /* \"#utility.yul\":2495:2627   */\n    tag_288:\n        /* \"#utility.yul\":2562:2566   */\n      0x00\n        /* \"#utility.yul\":2585:2588   */\n      dup2\n        /* \"#utility.yul\":2577:2588   */\n      swap1\n      pop\n        /* \"#utility.yul\":2615:2619   */\n      0x20\n        /* \"#utility.yul\":2610:2613   */\n      dup3\n        /* \"#utility.yul\":2606:2620   */\n      add\n        /* \"#utility.yul\":2598:2620   */\n      swap1\n      pop\n        /* \"#utility.yul\":2495:2627   */\n      swap2\n      swap1\n      pop\n      jump\t// out\n        /* \"#utility.yul\":2633:2812   */\n    tag_289:\n        /* \"#utility.yul\":2702:2712   */\n      0x00\n        /* \"#utility.yul\":2723:2769   */\n      tag_362\n        /* \"#utility.yul\":2765:2768   */\n      dup4\n        /* \"#utility.yul\":2757:2763   */\n      dup4\n        /* \"#utility.yul\":2723:2769   */\n      tag_280\n      jump\t// in\n    tag_362:\n        /* \"#utility.yul\":2801:2805   */\n      0x20\n        /* \"#utility.yul\":2796:2799   */\n      dup4\n        /* \"#utility.yul\":2792:2806   */\n      add\n        /* \"#utility.yul\":2778:2806   */\n      swap1\n      pop\n        /* \"#utility.yul\":2633:2812   */\n      swap3\n      swap2\n      pop\n      pop\n      jump\t// out\n        /* \"#utility.yul\":2818:2931   */\n    tag_290:\n        /* \"#utility.yul\":2888:2892   */\n      0x00\n        /* \"#utility.yul\":2920:2924   */\n      0x20\n        /* \"#utility.yul\":2915:2918   */\n      dup3\n        /* \"#utility.yul\":2911:2925   */\n      add\n        /* \"#utility.yul\":2903:2925   */\n      swap1\n      pop\n        /* \"#utility.yul\":2818:2931   */\n      swap2\n      swap1\n      pop\n      jump\t// out\n        /* \"#utility.yul\":2967:3679   */\n    tag_291:\n        /* \"#utility.yul\":3076:3079   */\n      0x00\n        /* \"#utility.yul\":3105:3159   */\n      tag_365\n        /* \"#utility.yul\":3153:3158   */\n      dup3\n        /* \"#utility.yul\":3105:3159   */\n      tag_286\n      jump\t// in\n    tag_365:\n        /* \"#utility.yul\":3175:3251   */\n      tag_366\n        /* \"#utility.yul\":3244:3250   */\n      dup2\n        /* \"#utility.yul\":3239:3242   */\n      dup6\n        /* \"#utility.yul\":3175:3251   */\n      tag_287\n      jump\t// in\n    tag_366:\n        /* \"#utility.yul\":3168:3251   */\n      swap4\n      pop\n        /* \"#utility.yul\":3275:3331   */\n      tag_367\n        /* \"#utility.yul\":3325:3330   */\n      dup4\n        /* \"#utility.yul\":3275:3331   */\n      tag_288\n      jump\t// in\n    tag_367:\n        /* \"#utility.yul\":3354:3361   */\n      dup1\n        /* \"#utility.yul\":3385:3386   */\n      0x00\n        /* \"#utility.yul\":3370:3654   */\n    tag_368:\n        /* \"#utility.yul\":3395:3401   */\n      dup4\n        /* \"#utility.yul\":3392:3393   */\n      dup2\n        /* \"#utility.yul\":3389:3402   */\n      lt\n        /* \"#utility.yul\":3370:3654   */\n      iszero\n      tag_370\n      jumpi\n        /* \"#utility.yul\":3471:3477   */\n      dup2\n        /* \"#utility.yul\":3465:3478   */\n      mload\n        /* \"#utility.yul\":3498:3561   */\n      tag_371\n        /* \"#utility.yul\":3557:3560   */\n      dup9\n        /* \"#utility.yul\":3542:3555   */\n      dup3\n        /* \"#utility.yul\":3498:3561   */\n      tag_289\n      jump\t// in\n    tag_371:\n        /* \"#utility.yul\":3491:3561   */\n      swap8\n      pop\n        /* \"#utility.yul\":3584:3644   */\n      tag_372\n        /* \"#utility.yul\":3637:3643   */\n      dup4\n        /* \"#utility.yul\":3584:3644   */\n      tag_290\n      jump\t// in\n    tag_372:\n        /* \"#utility.yul\":3574:3644   */\n      swap3\n      pop\n        /* \"#utility.yul\":3430:3654   */\n      pop\n        /* \"#utility.yul\":3417:3418   */\n      0x01\n        /* \"#utility.yul\":3414:3415   */\n      dup2\n        /* \"#utility.yul\":3410:3419   */\n      add\n        /* \"#utility.yul\":3405:3419   */\n      swap1\n      pop\n        /* \"#utility.yul\":3370:3654   */\n      jump(tag_368)\n    tag_370:\n        /* \"#utility.yul\":3374:3388   */\n      pop\n        /* \"#utility.yul\":3670:3673   */\n      dup6\n        /* \"#utility.yul\":3663:3673   */\n      swap4\n      pop\n        /* \"#utility.yul\":3081:3679   */\n      pop\n      pop\n      pop\n        /* \"#utility.yul\":2967:3679   */\n      swap3\n      swap2\n      pop\n      pop\n      jump\t// out\n        /* \"#utility.yul\":3759:4586   */\n    tag_292:\n        /* \"#utility.yul\":3874:3877   */\n      0x00\n        /* \"#utility.yul\":3910:3914   */\n      0x60\n        /* \"#utility.yul\":3905:3908   */\n      dup4\n        /* \"#utility.yul\":3901:3915   */\n      add\n        /* \"#utility.yul\":4008:4012   */\n      0x00\n        /* \"#utility.yul\":4001:4006   */\n      dup4\n        /* \"#utility.yul\":3997:4013   */\n      add\n        /* \"#utility.yul\":3991:4014   */\n      mload\n        /* \"#utility.yul\":4027:4090   */\n      tag_374\n        /* \"#utility.yul\":4084:4088   */\n      0x00\n        /* \"#utility.yul\":4079:4082   */\n      dup7\n        /* \"#utility.yul\":4075:4089   */\n      add\n        /* \"#utility.yul\":4061:4073   */\n      dup3\n        /* \"#utility.yul\":4027:4090   */\n      tag_283\n      jump\t// in\n    tag_374:\n        /* \"#utility.yul\":3925:4100   */\n      pop\n        /* \"#utility.yul\":4189:4193   */\n      0x20\n        /* \"#utility.yul\":4182:4187   */\n      dup4\n        /* \"#utility.yul\":4178:4194   */\n      add\n        /* \"#utility.yul\":4172:4195   */\n      mload\n        /* \"#utility.yul\":4208:4267   */\n      tag_375\n        /* \"#utility.yul\":4261:4265   */\n      0x20\n        /* \"#utility.yul\":4256:4259   */\n      dup7\n        /* \"#utility.yul\":4252:4266   */\n      add\n        /* \"#utility.yul\":4238:4250   */\n      dup3\n        /* \"#utility.yul\":4208:4267   */\n      tag_285\n      jump\t// in\n    tag_375:\n        /* \"#utility.yul\":4110:4277   */\n      pop\n        /* \"#utility.yul\":4366:4370   */\n      0x40\n        /* \"#utility.yul\":4359:4364   */\n      dup4\n        /* \"#utility.yul\":4355:4371   */\n      add\n        /* \"#utility.yul\":4349:4372   */\n      mload\n        /* \"#utility.yul\":4419:4422   */\n      dup5\n        /* \"#utility.yul\":4413:4417   */\n      dup3\n        /* \"#utility.yul\":4409:4423   */\n      sub\n        /* \"#utility.yul\":4402:4406   */\n      0x40\n        /* \"#utility.yul\":4397:4400   */\n      dup7\n        /* \"#utility.yul\":4393:4407   */\n      add\n        /* \"#utility.yul\":4386:4424   */\n      mstore\n        /* \"#utility.yul\":4445:4548   */\n      tag_376\n        /* \"#utility.yul\":4543:4547   */\n      dup3\n        /* \"#utility.yul\":4529:4541   */\n      dup3\n        /* \"#utility.yul\":4445:4548   */\n      tag_291\n      jump\t// in\n    tag_376:\n        /* \"#utility.yul\":4437:4548   */\n      swap2\n      pop\n        /* \"#utility.yul\":4287:4559   */\n      pop\n        /* \"#utility.yul\":4576:4580   */\n      dup1\n        /* \"#utility.yul\":4569:4580   */\n      swap2\n      pop\n        /* \"#utility.yul\":3879:4586   */\n      pop\n        /* \"#utility.yul\":3759:4586   */\n      swap3\n      swap2\n      pop\n      pop\n      jump\t// out\n        /* \"#utility.yul\":4592:4772   */\n    tag_57:\n        /* \"#utility.yul\":4640:4717   */\n      0x4e487b7100000000000000000000000000000000000000000000000000000000\n        /* \"#utility.yul\":4637:4638   */\n      0x00\n        /* \"#utility.yul\":4630:4718   */\n      mstore\n        /* \"#utility.yul\":4737:4741   */\n      0x21\n        /* \"#utility.yul\":4734:4735   */\n      0x04\n        /* \"#utility.yul\":4727:4742   */\n      mstore\n        /* \"#utility.yul\":4761:4765   */\n      0x24\n        /* \"#utility.yul\":4758:4759   */\n      0x00\n        /* \"#utility.yul\":4751:4766   */\n      revert\n        /* \"#utility.yul\":4778:4895   */\n    tag_293:\n        /* \"#utility.yul\":4863:4864   */\n      0x05\n        /* \"#utility.yul\":4856:4861   */\n      dup2\n        /* \"#utility.yul\":4853:4865   */\n      lt\n        /* \"#utility.yul\":4843:4889   */\n      tag_379\n      jumpi\n        /* \"#utility.yul\":4869:4887   */\n      tag_380\n      tag_57\n      jump\t// in\n    tag_380:\n        /* \"#utility.yul\":4843:4889   */\n    tag_379:\n        /* \"#utility.yul\":4778:4895   */\n      pop\n      jump\t// out\n        /* \"#utility.yul\":4901:5036   */\n    tag_294:\n        /* \"#utility.yul\":4950:4957   */\n      0x00\n        /* \"#utility.yul\":4979:4984   */\n      dup2\n        /* \"#utility.yul\":4968:4984   */\n      swap1\n      pop\n        /* \"#utility.yul\":4985:5030   */\n      tag_382\n        /* \"#utility.yul\":5024:5029   */\n      dup3\n        /* \"#utility.yul\":4985:5030   */\n      tag_293\n      jump\t// in\n    tag_382:\n        /* \"#utility.yul\":4901:5036   */\n      swap2\n      swap1\n      pop\n      jump\t// out\n        /* \"#utility.yul\":5042:5177   */\n    tag_295:\n        /* \"#utility.yul\":5102:5111   */\n      0x00\n        /* \"#utility.yul\":5135:5171   */\n      tag_384\n        /* \"#utility.yul\":5165:5170   */\n      dup3\n        /* \"#utility.yul\":5135:5171   */\n      tag_294\n      jump\t// in\n    tag_384:\n        /* \"#utility.yul\":5122:5171   */\n      swap1\n      pop\n        /* \"#utility.yul\":5042:5177   */\n      swap2\n      swap1\n      pop\n      jump\t// out\n        /* \"#utility.yul\":5183:5324   */\n    tag_296:\n        /* \"#utility.yul\":5270:5317   */\n      tag_386\n        /* \"#utility.yul\":5311:5316   */\n      dup2\n        /* \"#utility.yul\":5270:5317   */\n      tag_295\n      jump\t// in\n    tag_386:\n        /* \"#utility.yul\":5265:5268   */\n      dup3\n        /* \"#utility.yul\":5258:5318   */\n      mstore\n        /* \"#utility.yul\":5183:5324   */\n      pop\n      pop\n      jump\t// out\n        /* \"#utility.yul\":5388:7279   */\n    tag_297:\n        /* \"#utility.yul\":5487:5490   */\n      0x00\n        /* \"#utility.yul\":5523:5529   */\n      0x0120\n        /* \"#utility.yul\":5518:5521   */\n      dup4\n        /* \"#utility.yul\":5514:5530   */\n      add\n        /* \"#utility.yul\":5614:5618   */\n      0x00\n        /* \"#utility.yul\":5607:5612   */\n      dup4\n        /* \"#utility.yul\":5603:5619   */\n      add\n        /* \"#utility.yul\":5597:5620   */\n      mload\n        /* \"#utility.yul\":5633:5696   */\n      tag_388\n        /* \"#utility.yul\":5690:5694   */\n      0x00\n        /* \"#utility.yul\":5685:5688   */\n      dup7\n        /* \"#utility.yul\":5681:5695   */\n      add\n        /* \"#utility.yul\":5667:5679   */\n      dup3\n        /* \"#utility.yul\":5633:5696   */\n      tag_280\n      jump\t// in\n    tag_388:\n        /* \"#utility.yul\":5540:5706   */\n      pop\n        /* \"#utility.yul\":5792:5796   */\n      0x20\n        /* \"#utility.yul\":5785:5790   */\n      dup4\n        /* \"#utility.yul\":5781:5797   */\n      add\n        /* \"#utility.yul\":5775:5798   */\n      mload\n        /* \"#utility.yul\":5845:5848   */\n      dup5\n        /* \"#utility.yul\":5839:5843   */\n      dup3\n        /* \"#utility.yul\":5835:5849   */\n      sub\n        /* \"#utility.yul\":5828:5832   */\n      0x20\n        /* \"#utility.yul\":5823:5826   */\n      dup7\n        /* \"#utility.yul\":5819:5833   */\n      add\n        /* \"#utility.yul\":5812:5850   */\n      mstore\n        /* \"#utility.yul\":5871:5980   */\n      tag_389\n        /* \"#utility.yul\":5975:5979   */\n      dup3\n        /* \"#utility.yul\":5961:5973   */\n      dup3\n        /* \"#utility.yul\":5871:5980   */\n      tag_292\n      jump\t// in\n    tag_389:\n        /* \"#utility.yul\":5863:5980   */\n      swap2\n      pop\n        /* \"#utility.yul\":5716:5991   */\n      pop\n        /* \"#utility.yul\":6075:6079   */\n      0x40\n        /* \"#utility.yul\":6068:6073   */\n      dup4\n        /* \"#utility.yul\":6064:6080   */\n      add\n        /* \"#utility.yul\":6058:6081   */\n      mload\n        /* \"#utility.yul\":6094:6157   */\n      tag_390\n        /* \"#utility.yul\":6151:6155   */\n      0x40\n        /* \"#utility.yul\":6146:6149   */\n      dup7\n        /* \"#utility.yul\":6142:6156   */\n      add\n        /* \"#utility.yul\":6128:6140   */\n      dup3\n        /* \"#utility.yul\":6094:6157   */\n      tag_283\n      jump\t// in\n    tag_390:\n        /* \"#utility.yul\":6001:6167   */\n      pop\n        /* \"#utility.yul\":6251:6255   */\n      0x60\n        /* \"#utility.yul\":6244:6249   */\n      dup4\n        /* \"#utility.yul\":6240:6256   */\n      add\n        /* \"#utility.yul\":6234:6257   */\n      mload\n        /* \"#utility.yul\":6270:6333   */\n      tag_391\n        /* \"#utility.yul\":6327:6331   */\n      0x60\n        /* \"#utility.yul\":6322:6325   */\n      dup7\n        /* \"#utility.yul\":6318:6332   */\n      add\n        /* \"#utility.yul\":6304:6316   */\n      dup3\n        /* \"#utility.yul\":6270:6333   */\n      tag_280\n      jump\t// in\n    tag_391:\n        /* \"#utility.yul\":6177:6343   */\n      pop\n        /* \"#utility.yul\":6433:6437   */\n      0x80\n        /* \"#utility.yul\":6426:6431   */\n      dup4\n        /* \"#utility.yul\":6422:6438   */\n      add\n        /* \"#utility.yul\":6416:6439   */\n      mload\n        /* \"#utility.yul\":6452:6515   */\n      tag_392\n        /* \"#utility.yul\":6509:6513   */\n      0x80\n        /* \"#utility.yul\":6504:6507   */\n      dup7\n        /* \"#utility.yul\":6500:6514   */\n      add\n        /* \"#utility.yul\":6486:6498   */\n      dup3\n        /* \"#utility.yul\":6452:6515   */\n      tag_280\n      jump\t// in\n    tag_392:\n        /* \"#utility.yul\":6353:6525   */\n      pop\n        /* \"#utility.yul\":6614:6618   */\n      0xa0\n        /* \"#utility.yul\":6607:6612   */\n      dup4\n        /* \"#utility.yul\":6603:6619   */\n      add\n        /* \"#utility.yul\":6597:6620   */\n      mload\n        /* \"#utility.yul\":6633:6696   */\n      tag_393\n        /* \"#utility.yul\":6690:6694   */\n      0xa0\n        /* \"#utility.yul\":6685:6688   */\n      dup7\n        /* \"#utility.yul\":6681:6695   */\n      add\n        /* \"#utility.yul\":6667:6679   */\n      dup3\n        /* \"#utility.yul\":6633:6696   */\n      tag_280\n      jump\t// in\n    tag_393:\n        /* \"#utility.yul\":6535:6706   */\n      pop\n        /* \"#utility.yul\":6793:6797   */\n      0xc0\n        /* \"#utility.yul\":6786:6791   */\n      dup4\n        /* \"#utility.yul\":6782:6798   */\n      add\n        /* \"#utility.yul\":6776:6799   */\n      mload\n        /* \"#utility.yul\":6812:6875   */\n      tag_394\n        /* \"#utility.yul\":6869:6873   */\n      0xc0\n        /* \"#utility.yul\":6864:6867   */\n      dup7\n        /* \"#utility.yul\":6860:6874   */\n      add\n        /* \"#utility.yul\":6846:6858   */\n      dup3\n        /* \"#utility.yul\":6812:6875   */\n      tag_280\n      jump\t// in\n    tag_394:\n        /* \"#utility.yul\":6716:6885   */\n      pop\n        /* \"#utility.yul\":6970:6974   */\n      0xe0\n        /* \"#utility.yul\":6963:6968   */\n      dup4\n        /* \"#utility.yul\":6959:6975   */\n      add\n        /* \"#utility.yul\":6953:6976   */\n      mload\n        /* \"#utility.yul\":6989:7052   */\n      tag_395\n        /* \"#utility.yul\":7046:7050   */\n      0xe0\n        /* \"#utility.yul\":7041:7044   */\n      dup7\n        /* \"#utility.yul\":7037:7051   */\n      add\n        /* \"#utility.yul\":7023:7035   */\n      dup3\n        /* \"#utility.yul\":6989:7052   */\n      tag_280\n      jump\t// in\n    tag_395:\n        /* \"#utility.yul\":6895:7062   */\n      pop\n        /* \"#utility.yul\":7146:7152   */\n      0x0100\n        /* \"#utility.yul\":7139:7144   */\n      dup4\n        /* \"#utility.yul\":7135:7153   */\n      add\n        /* \"#utility.yul\":7129:7154   */\n      mload\n        /* \"#utility.yul\":7167:7242   */\n      tag_396\n        /* \"#utility.yul\":7234:7240   */\n      0x0100\n        /* \"#utility.yul\":7229:7232   */\n      dup7\n        /* \"#utility.yul\":7225:7241   */\n      add\n        /* \"#utility.yul\":7211:7223   */\n      dup3\n        /* \"#utility.yul\":7167:7242   */\n      tag_296\n      jump\t// in\n    tag_396:\n        /* \"#utility.yul\":7072:7252   */\n      pop\n        /* \"#utility.yul\":7269:7273   */\n      dup1\n        /* \"#utility.yul\":7262:7273   */\n      swap2\n      pop\n        /* \"#utility.yul\":5492:7279   */\n      pop\n        /* \"#utility.yul\":5388:7279   */\n      swap3\n      swap2\n      pop\n      pop\n      jump\t// out\n        /* \"#utility.yul\":7285:7521   */\n    tag_298:\n        /* \"#utility.yul\":7394:7404   */\n      0x00\n        /* \"#utility.yul\":7429:7515   */\n      tag_398\n        /* \"#utility.yul\":7511:7514   */\n      dup4\n        /* \"#utility.yul\":7503:7509   */\n      dup4\n        /* \"#utility.yul\":7429:7515   */\n      tag_297\n      jump\t// in\n    tag_398:\n        /* \"#utility.yul\":7415:7515   */\n      swap1\n      pop\n        /* \"#utility.yul\":7285:7521   */\n      swap3\n      swap2\n      pop\n      pop\n      jump\t// out\n        /* \"#utility.yul\":7527:7660   */\n    tag_299:\n        /* \"#utility.yul\":7617:7621   */\n      0x00\n        /* \"#utility.yul\":7649:7653   */\n      0x20\n        /* \"#utility.yul\":7644:7647   */\n      dup3\n        /* \"#utility.yul\":7640:7654   */\n      add\n        /* \"#utility.yul\":7632:7654   */\n      swap1\n      pop\n        /* \"#utility.yul\":7527:7660   */\n      swap2\n      swap1\n      pop\n      jump\t// out\n        /* \"#utility.yul\":7728:8799   */\n    tag_300:\n        /* \"#utility.yul\":7887:7890   */\n      0x00\n        /* \"#utility.yul\":7916:7990   */\n      tag_401\n        /* \"#utility.yul\":7984:7989   */\n      dup3\n        /* \"#utility.yul\":7916:7990   */\n      tag_277\n      jump\t// in\n    tag_401:\n        /* \"#utility.yul\":8006:8112   */\n      tag_402\n        /* \"#utility.yul\":8105:8111   */\n      dup2\n        /* \"#utility.yul\":8100:8103   */\n      dup6\n        /* \"#utility.yul\":8006:8112   */\n      tag_278\n      jump\t// in\n    tag_402:\n        /* \"#utility.yul\":7999:8112   */\n      swap4\n      pop\n        /* \"#utility.yul\":8138:8141   */\n      dup4\n        /* \"#utility.yul\":8183:8187   */\n      0x20\n        /* \"#utility.yul\":8175:8181   */\n      dup3\n        /* \"#utility.yul\":8171:8188   */\n      mul\n        /* \"#utility.yul\":8166:8169   */\n      dup6\n        /* \"#utility.yul\":8162:8189   */\n      add\n        /* \"#utility.yul\":8213:8289   */\n      tag_403\n        /* \"#utility.yul\":8283:8288   */\n      dup6\n        /* \"#utility.yul\":8213:8289   */\n      tag_279\n      jump\t// in\n    tag_403:\n        /* \"#utility.yul\":8312:8319   */\n      dup1\n        /* \"#utility.yul\":8343:8344   */\n      0x00\n        /* \"#utility.yul\":8328:8754   */\n    tag_404:\n        /* \"#utility.yul\":8353:8359   */\n      dup6\n        /* \"#utility.yul\":8350:8351   */\n      dup2\n        /* \"#utility.yul\":8347:8360   */\n      lt\n        /* \"#utility.yul\":8328:8754   */\n      iszero\n      tag_406\n      jumpi\n        /* \"#utility.yul\":8424:8433   */\n      dup5\n        /* \"#utility.yul\":8418:8422   */\n      dup5\n        /* \"#utility.yul\":8414:8434   */\n      sub\n        /* \"#utility.yul\":8409:8412   */\n      dup10\n        /* \"#utility.yul\":8402:8435   */\n      mstore\n        /* \"#utility.yul\":8475:8481   */\n      dup2\n        /* \"#utility.yul\":8469:8482   */\n      mload\n        /* \"#utility.yul\":8503:8607   */\n      tag_407\n        /* \"#utility.yul\":8602:8606   */\n      dup6\n        /* \"#utility.yul\":8587:8600   */\n      dup3\n        /* \"#utility.yul\":8503:8607   */\n      tag_298\n      jump\t// in\n    tag_407:\n        /* \"#utility.yul\":8495:8607   */\n      swap5\n      pop\n        /* \"#utility.yul\":8630:8710   */\n      tag_408\n        /* \"#utility.yul\":8703:8709   */\n      dup4\n        /* \"#utility.yul\":8630:8710   */\n      tag_299\n      jump\t// in\n    tag_408:\n        /* \"#utility.yul\":8620:8710   */\n      swap3\n      pop\n        /* \"#utility.yul\":8739:8743   */\n      0x20\n        /* \"#utility.yul\":8734:8737   */\n      dup11\n        /* \"#utility.yul\":8730:8744   */\n      add\n        /* \"#utility.yul\":8723:8744   */\n      swap10\n      pop\n        /* \"#utility.yul\":8388:8754   */\n      pop\n        /* \"#utility.yul\":8375:8376   */\n      0x01\n        /* \"#utility.yul\":8372:8373   */\n      dup2\n        /* \"#utility.yul\":8368:8377   */\n      add\n        /* \"#utility.yul\":8363:8377   */\n      swap1\n      pop\n        /* \"#utility.yul\":8328:8754   */\n      jump(tag_404)\n    tag_406:\n        /* \"#utility.yul\":8332:8346   */\n      pop\n        /* \"#utility.yul\":8770:8774   */\n      dup3\n        /* \"#utility.yul\":8763:8774   */\n      swap8\n      pop\n        /* \"#utility.yul\":8790:8793   */\n      dup8\n        /* \"#utility.yul\":8783:8793   */\n      swap6\n      pop\n        /* \"#utility.yul\":7892:8799   */\n      pop\n      pop\n      pop\n      pop\n      pop\n        /* \"#utility.yul\":7728:8799   */\n      swap3\n      swap2\n      pop\n      pop\n      jump\t// out\n        /* \"#utility.yul\":8805:9258   */\n    tag_19:\n        /* \"#utility.yul\":8988:8992   */\n      0x00\n        /* \"#utility.yul\":9026:9028   */\n      0x20\n        /* \"#utility.yul\":9015:9024   */\n      dup3\n        /* \"#utility.yul\":9011:9029   */\n      add\n        /* \"#utility.yul\":9003:9029   */\n      swap1\n      pop\n        /* \"#utility.yul\":9075:9084   */\n      dup2\n        /* \"#utility.yul\":9069:9073   */\n      dup2\n        /* \"#utility.yul\":9065:9085   */\n      sub\n        /* \"#utility.yul\":9061:9062   */\n      0x00\n        /* \"#utility.yul\":9050:9059   */\n      dup4\n        /* \"#utility.yul\":9046:9063   */\n      add\n        /* \"#utility.yul\":9039:9086   */\n      mstore\n        /* \"#utility.yul\":9103:9251   */\n      tag_410\n        /* \"#utility.yul\":9246:9250   */\n      dup2\n        /* \"#utility.yul\":9237:9243   */\n      dup5\n        /* \"#utility.yul\":9103:9251   */\n      tag_300\n      jump\t// in\n    tag_410:\n        /* \"#utility.yul\":9095:9251   */\n      swap1\n      pop\n        /* \"#utility.yul\":8805:9258   */\n      swap3\n      swap2\n      pop\n      pop\n      jump\t// out\n        /* \"#utility.yul\":9264:9386   */\n    tag_301:\n        /* \"#utility.yul\":9337:9361   */\n      tag_412\n        /* \"#utility.yul\":9355:9360   */\n      dup2\n        /* \"#utility.yul\":9337:9361   */\n      tag_282\n      jump\t// in\n    tag_412:\n        /* \"#utility.yul\":9330:9335   */\n      dup2\n        /* \"#utility.yul\":9327:9362   */\n      eq\n        /* \"#utility.yul\":9317:9380   */\n      tag_413\n      jumpi\n        /* \"#utility.yul\":9376:9377   */\n      0x00\n        /* \"#utility.yul\":9373:9374   */\n      0x00\n        /* \"#utility.yul\":9366:9378   */\n      revert\n        /* \"#utility.yul\":9317:9380   */\n    tag_413:\n        /* \"#utility.yul\":9264:9386   */\n      pop\n      jump\t// out\n        /* \"#utility.yul\":9392:9531   */\n    tag_302:\n        /* \"#utility.yul\":9438:9443   */\n      0x00\n        /* \"#utility.yul\":9476:9482   */\n      dup2\n        /* \"#utility.yul\":9463:9483   */\n      calldataload\n        /* \"#utility.yul\":9454:9483   */\n      swap1\n      pop\n        /* \"#utility.yul\":9492:9525   */\n      tag_415\n        /* \"#utility.yul\":9519:9524   */\n      dup2\n        /* \"#utility.yul\":9492:9525   */\n      tag_301\n      jump\t// in\n    tag_415:\n        /* \"#utility.yul\":9392:9531   */\n      swap3\n      swap2\n      pop\n      pop\n      jump\t// out\n        /* \"#utility.yul\":9537:9866   */\n    tag_31:\n        /* \"#utility.yul\":9596:9602   */\n      0x00\n        /* \"#utility.yul\":9645:9647   */\n      0x20\n        /* \"#utility.yul\":9633:9642   */\n      dup3\n        /* \"#utility.yul\":9624:9631   */\n      dup5\n        /* \"#utility.yul\":9620:9643   */\n      sub\n        /* \"#utility.yul\":9616:9648   */\n      slt\n        /* \"#utility.yul\":9613:9732   */\n      iszero\n      tag_417\n      jumpi\n        /* \"#utility.yul\":9651:9730   */\n      tag_418\n      tag_272\n      jump\t// in\n    tag_418:\n        /* \"#utility.yul\":9613:9732   */\n    tag_417:\n        /* \"#utility.yul\":9771:9772   */\n      0x00\n        /* \"#utility.yul\":9796:9849   */\n      tag_419\n        /* \"#utility.yul\":9841:9848   */\n      dup5\n        /* \"#utility.yul\":9832:9838   */\n      dup3\n        /* \"#utility.yul\":9821:9830   */\n      dup6\n        /* \"#utility.yul\":9817:9839   */\n      add\n        /* \"#utility.yul\":9796:9849   */\n      tag_302\n      jump\t// in\n    tag_419:\n        /* \"#utility.yul\":9786:9849   */\n      swap2\n      pop\n        /* \"#utility.yul\":9742:9859   */\n      pop\n        /* \"#utility.yul\":9537:9866   */\n      swap3\n      swap2\n      pop\n      pop\n      jump\t// out\n        /* \"#utility.yul\":9872:9990   */\n    tag_303:\n        /* \"#utility.yul\":9959:9983   */\n      tag_421\n        /* \"#utility.yul\":9977:9982   */\n      dup2\n        /* \"#utility.yul\":9959:9983   */\n      tag_282\n      jump\t// in\n    tag_421:\n        /* \"#utility.yul\":9954:9957   */\n      dup3\n        /* \"#utility.yul\":9947:9984   */\n      mstore\n        /* \"#utility.yul\":9872:9990   */\n      pop\n      pop\n      jump\t// out\n        /* \"#utility.yul\":9996:10108   */\n    tag_304:\n        /* \"#utility.yul\":10079:10101   */\n      tag_423\n        /* \"#utility.yul\":10095:10100   */\n      dup2\n        /* \"#utility.yul\":10079:10101   */\n      tag_284\n      jump\t// in\n    tag_423:\n        /* \"#utility.yul\":10074:10077   */\n      dup3\n        /* \"#utility.yul\":10067:10102   */\n      mstore\n        /* \"#utility.yul\":9996:10108   */\n      pop\n      pop\n      jump\t// out\n        /* \"#utility.yul\":10114:10438   */\n    tag_34:\n        /* \"#utility.yul\":10231:10235   */\n      0x00\n        /* \"#utility.yul\":10269:10271   */\n      0x40\n        /* \"#utility.yul\":10258:10267   */\n      dup3\n        /* \"#utility.yul\":10254:10272   */\n      add\n        /* \"#utility.yul\":10246:10272   */\n      swap1\n      pop\n        /* \"#utility.yul\":10282:10353   */\n      tag_425\n        /* \"#utility.yul\":10350:10351   */\n      0x00\n        /* \"#utility.yul\":10339:10348   */\n      dup4\n        /* \"#utility.yul\":10335:10352   */\n      add\n        /* \"#utility.yul\":10326:10332   */\n      dup6\n        /* \"#utility.yul\":10282:10353   */\n      tag_303\n      jump\t// in\n    tag_425:\n        /* \"#utility.yul\":10363:10431   */\n      tag_426\n        /* \"#utility.yul\":10427:10429   */\n      0x20\n        /* \"#utility.yul\":10416:10425   */\n      dup4\n        /* \"#utility.yul\":10412:10430   */\n      add\n        /* \"#utility.yul\":10403:10409   */\n      dup5\n        /* \"#utility.yul\":10363:10431   */\n      tag_304\n      jump\t// in\n    tag_426:\n        /* \"#utility.yul\":10114:10438   */\n      swap4\n      swap3\n      pop\n      pop\n      pop\n      jump\t// out\n        /* \"#utility.yul\":10444:10562   */\n    tag_305:\n        /* \"#utility.yul\":10531:10555   */\n      tag_428\n        /* \"#utility.yul\":10549:10554   */\n      dup2\n        /* \"#utility.yul\":10531:10555   */\n      tag_274\n      jump\t// in\n    tag_428:\n        /* \"#utility.yul\":10526:10529   */\n      dup3\n        /* \"#utility.yul\":10519:10556   */\n      mstore\n        /* \"#utility.yul\":10444:10562   */\n      pop\n      pop\n      jump\t// out\n        /* \"#utility.yul\":10642:11479   */\n    tag_306:\n        /* \"#utility.yul\":10767:10770   */\n      0x00\n        /* \"#utility.yul\":10803:10807   */\n      0x60\n        /* \"#utility.yul\":10798:10801   */\n      dup4\n        /* \"#utility.yul\":10794:10808   */\n      add\n        /* \"#utility.yul\":10901:10905   */\n      0x00\n        /* \"#utility.yul\":10894:10899   */\n      dup4\n        /* \"#utility.yul\":10890:10906   */\n      add\n        /* \"#utility.yul\":10884:10907   */\n      mload\n        /* \"#utility.yul\":10920:10983   */\n      tag_430\n        /* \"#utility.yul\":10977:10981   */\n      0x00\n        /* \"#utility.yul\":10972:10975   */\n      dup7\n        /* \"#utility.yul\":10968:10982   */\n      add\n        /* \"#utility.yul\":10954:10966   */\n      dup3\n        /* \"#utility.yul\":10920:10983   */\n      tag_283\n      jump\t// in\n    tag_430:\n        /* \"#utility.yul\":10818:10993   */\n      pop\n        /* \"#utility.yul\":11082:11086   */\n      0x20\n        /* \"#utility.yul\":11075:11080   */\n      dup4\n        /* \"#utility.yul\":11071:11087   */\n      add\n        /* \"#utility.yul\":11065:11088   */\n      mload\n        /* \"#utility.yul\":11101:11160   */\n      tag_431\n        /* \"#utility.yul\":11154:11158   */\n      0x20\n        /* \"#utility.yul\":11149:11152   */\n      dup7\n        /* \"#utility.yul\":11145:11159   */\n      add\n        /* \"#utility.yul\":11131:11143   */\n      dup3\n        /* \"#utility.yul\":11101:11160   */\n      tag_285\n      jump\t// in\n    tag_431:\n        /* \"#utility.yul\":11003:11170   */\n      pop\n        /* \"#utility.yul\":11259:11263   */\n      0x40\n        /* \"#utility.yul\":11252:11257   */\n      dup4\n        /* \"#utility.yul\":11248:11264   */\n      add\n        /* \"#utility.yul\":11242:11265   */\n      mload\n        /* \"#utility.yul\":11312:11315   */\n      dup5\n        /* \"#utility.yul\":11306:11310   */\n      dup3\n        /* \"#utility.yul\":11302:11316   */\n      sub\n        /* \"#utility.yul\":11295:11299   */\n      0x40\n        /* \"#utility.yul\":11290:11293   */\n      dup7\n        /* \"#utility.yul\":11286:11300   */\n      add\n        /* \"#utility.yul\":11279:11317   */\n      mstore\n        /* \"#utility.yul\":11338:11441   */\n      tag_432\n        /* \"#utility.yul\":11436:11440   */\n      dup3\n        /* \"#utility.yul\":11422:11434   */\n      dup3\n        /* \"#utility.yul\":11338:11441   */\n      tag_291\n      jump\t// in\n    tag_432:\n        /* \"#utility.yul\":11330:11441   */\n      swap2\n      pop\n        /* \"#utility.yul\":11180:11452   */\n      pop\n        /* \"#utility.yul\":11469:11473   */\n      dup1\n        /* \"#utility.yul\":11462:11473   */\n      swap2\n      pop\n        /* \"#utility.yul\":10772:11479   */\n      pop\n        /* \"#utility.yul\":10642:11479   */\n      swap3\n      swap2\n      pop\n      pop\n      jump\t// out\n        /* \"#utility.yul\":11485:11636   */\n    tag_307:\n        /* \"#utility.yul\":11582:11629   */\n      tag_434\n        /* \"#utility.yul\":11623:11628   */\n      dup2\n        /* \"#utility.yul\":11582:11629   */\n      tag_295\n      jump\t// in\n    tag_434:\n        /* \"#utility.yul\":11577:11580   */\n      dup3\n        /* \"#utility.yul\":11570:11630   */\n      mstore\n        /* \"#utility.yul\":11485:11636   */\n      pop\n      pop\n      jump\t// out\n        /* \"#utility.yul\":11642:12933   */\n    tag_43:\n        /* \"#utility.yul\":12025:12029   */\n      0x00\n        /* \"#utility.yul\":12063:12066   */\n      0x0120\n        /* \"#utility.yul\":12052:12061   */\n      dup3\n        /* \"#utility.yul\":12048:12067   */\n      add\n        /* \"#utility.yul\":12040:12067   */\n      swap1\n      pop\n        /* \"#utility.yul\":12077:12148   */\n      tag_436\n        /* \"#utility.yul\":12145:12146   */\n      0x00\n        /* \"#utility.yul\":12134:12143   */\n      dup4\n        /* \"#utility.yul\":12130:12147   */\n      add\n        /* \"#utility.yul\":12121:12127   */\n      dup13\n        /* \"#utility.yul\":12077:12148   */\n      tag_305\n      jump\t// in\n    tag_436:\n        /* \"#utility.yul\":12195:12204   */\n      dup2\n        /* \"#utility.yul\":12189:12193   */\n      dup2\n        /* \"#utility.yul\":12185:12205   */\n      sub\n        /* \"#utility.yul\":12180:12182   */\n      0x20\n        /* \"#utility.yul\":12169:12178   */\n      dup4\n        /* \"#utility.yul\":12165:12183   */\n      add\n        /* \"#utility.yul\":12158:12206   */\n      mstore\n        /* \"#utility.yul\":12223:12337   */\n      tag_437\n        /* \"#utility.yul\":12332:12336   */\n      dup2\n        /* \"#utility.yul\":12323:12329   */\n      dup12\n        /* \"#utility.yul\":12223:12337   */\n      tag_306\n      jump\t// in\n    tag_437:\n        /* \"#utility.yul\":12215:12337   */\n      swap1\n      pop\n        /* \"#utility.yul\":12347:12419   */\n      tag_438\n        /* \"#utility.yul\":12415:12417   */\n      0x40\n        /* \"#utility.yul\":12404:12413   */\n      dup4\n        /* \"#utility.yul\":12400:12418   */\n      add\n        /* \"#utility.yul\":12391:12397   */\n      dup11\n        /* \"#utility.yul\":12347:12419   */\n      tag_303\n      jump\t// in\n    tag_438:\n        /* \"#utility.yul\":12429:12501   */\n      tag_439\n        /* \"#utility.yul\":12497:12499   */\n      0x60\n        /* \"#utility.yul\":12486:12495   */\n      dup4\n        /* \"#utility.yul\":12482:12500   */\n      add\n        /* \"#utility.yul\":12473:12479   */\n      dup10\n        /* \"#utility.yul\":12429:12501   */\n      tag_305\n      jump\t// in\n    tag_439:\n        /* \"#utility.yul\":12511:12584   */\n      tag_440\n        /* \"#utility.yul\":12579:12582   */\n      0x80\n        /* \"#utility.yul\":12568:12577   */\n      dup4\n        /* \"#utility.yul\":12564:12583   */\n      add\n        /* \"#utility.yul\":12555:12561   */\n      dup9\n        /* \"#utility.yul\":12511:12584   */\n      tag_305\n      jump\t// in\n    tag_440:\n        /* \"#utility.yul\":12594:12667   */\n      tag_441\n        /* \"#utility.yul\":12662:12665   */\n      0xa0\n        /* \"#utility.yul\":12651:12660   */\n      dup4\n        /* \"#utility.yul\":12647:12666   */\n      add\n        /* \"#utility.yul\":12638:12644   */\n      dup8\n        /* \"#utility.yul\":12594:12667   */\n      tag_305\n      jump\t// in\n    tag_441:\n        /* \"#utility.yul\":12677:12750   */\n      tag_442\n        /* \"#utility.yul\":12745:12748   */\n      0xc0\n        /* \"#utility.yul\":12734:12743   */\n      dup4\n        /* \"#utility.yul\":12730:12749   */\n      add\n        /* \"#utility.yul\":12721:12727   */\n      dup7\n        /* \"#utility.yul\":12677:12750   */\n      tag_305\n      jump\t// in\n    tag_442:\n        /* \"#utility.yul\":12760:12833   */\n      tag_443\n        /* \"#utility.yul\":12828:12831   */\n      0xe0\n        /* \"#utility.yul\":12817:12826   */\n      dup4\n        /* \"#utility.yul\":12813:12832   */\n      add\n        /* \"#utility.yul\":12804:12810   */\n      dup6\n        /* \"#utility.yul\":12760:12833   */\n      tag_305\n      jump\t// in\n    tag_443:\n        /* \"#utility.yul\":12843:12926   */\n      tag_444\n        /* \"#utility.yul\":12921:12924   */\n      0x0100\n        /* \"#utility.yul\":12910:12919   */\n      dup4\n        /* \"#utility.yul\":12906:12925   */\n      add\n        /* \"#utility.yul\":12897:12903   */\n      dup5\n        /* \"#utility.yul\":12843:12926   */\n      tag_307\n      jump\t// in\n    tag_444:\n        /* \"#utility.yul\":11642:12933   */\n      swap11\n      swap10\n      pop\n      pop\n      pop\n      pop\n      pop\n      pop\n      pop\n      pop\n      pop\n      pop\n      jump\t// out\n        /* \"#utility.yul\":12939:13413   */\n    tag_47:\n        /* \"#utility.yul\":13007:13013   */\n      0x00\n        /* \"#utility.yul\":13015:13021   */\n      0x00\n        /* \"#utility.yul\":13064:13066   */\n      0x40\n        /* \"#utility.yul\":13052:13061   */\n      dup4\n        /* \"#utility.yul\":13043:13050   */\n      dup6\n        /* \"#utility.yul\":13039:13062   */\n      sub\n        /* \"#utility.yul\":13035:13067   */\n      slt\n        /* \"#utility.yul\":13032:13151   */\n      iszero\n      tag_446\n      jumpi\n        /* \"#utility.yul\":13070:13149   */\n      tag_447\n      tag_272\n      jump\t// in\n    tag_447:\n        /* \"#utility.yul\":13032:13151   */\n    tag_446:\n        /* \"#utility.yul\":13190:13191   */\n      0x00\n        /* \"#utility.yul\":13215:13268   */\n      tag_448\n        /* \"#utility.yul\":13260:13267   */\n      dup6\n        /* \"#utility.yul\":13251:13257   */\n      dup3\n        /* \"#utility.yul\":13240:13249   */\n      dup7\n        /* \"#utility.yul\":13236:13258   */\n      add\n        /* \"#utility.yul\":13215:13268   */\n      tag_302\n      jump\t// in\n    tag_448:\n        /* \"#utility.yul\":13205:13268   */\n      swap3\n      pop\n        /* \"#utility.yul\":13161:13278   */\n      pop\n        /* \"#utility.yul\":13317:13319   */\n      0x20\n        /* \"#utility.yul\":13343:13396   */\n      tag_449\n        /* \"#utility.yul\":13388:13395   */\n      dup6\n        /* \"#utility.yul\":13379:13385   */\n      dup3\n        /* \"#utility.yul\":13368:13377   */\n      dup7\n        /* \"#utility.yul\":13364:13386   */\n      add\n        /* \"#utility.yul\":13343:13396   */\n      tag_276\n      jump\t// in\n    tag_449:\n        /* \"#utility.yul\":13333:13396   */\n      swap2\n      pop\n        /* \"#utility.yul\":13288:13406   */\n      pop\n        /* \"#utility.yul\":12939:13413   */\n      swap3\n      pop\n      swap3\n      swap1\n      pop\n      jump\t// out\n        /* \"#utility.yul\":13419:13641   */\n    tag_50:\n        /* \"#utility.yul\":13512:13516   */\n      0x00\n        /* \"#utility.yul\":13550:13552   */\n      0x20\n        /* \"#utility.yul\":13539:13548   */\n      dup3\n        /* \"#utility.yul\":13535:13553   */\n      add\n        /* \"#utility.yul\":13527:13553   */\n      swap1\n      pop\n        /* \"#utility.yul\":13563:13634   */\n      tag_451\n        /* \"#utility.yul\":13631:13632   */\n      0x00\n        /* \"#utility.yul\":13620:13629   */\n      dup4\n        /* \"#utility.yul\":13616:13633   */\n      add\n        /* \"#utility.yul\":13607:13613   */\n      dup5\n        /* \"#utility.yul\":13563:13634   */\n      tag_305\n      jump\t// in\n    tag_451:\n        /* \"#utility.yul\":13419:13641   */\n      swap3\n      swap2\n      pop\n      pop\n      jump\t// out\n        /* \"#utility.yul\":13647:13816   */\n    tag_308:\n        /* \"#utility.yul\":13731:13742   */\n      0x00\n        /* \"#utility.yul\":13765:13771   */\n      dup3\n        /* \"#utility.yul\":13760:13763   */\n      dup3\n        /* \"#utility.yul\":13753:13772   */\n      mstore\n        /* \"#utility.yul\":13805:13809   */\n      0x20\n        /* \"#utility.yul\":13800:13803   */\n      dup3\n        /* \"#utility.yul\":13796:13810   */\n      add\n        /* \"#utility.yul\":13781:13810   */\n      swap1\n      pop\n        /* \"#utility.yul\":13647:13816   */\n      swap3\n      swap2\n      pop\n      pop\n      jump\t// out\n        /* \"#utility.yul\":13822:13986   */\n    tag_309:\n        /* \"#utility.yul\":13962:13978   */\n      0x4c6f616e206e6f7420666f756e64000000000000000000000000000000000000\n        /* \"#utility.yul\":13958:13959   */\n      0x00\n        /* \"#utility.yul\":13950:13956   */\n      dup3\n        /* \"#utility.yul\":13946:13960   */\n      add\n        /* \"#utility.yul\":13939:13979   */\n      mstore\n        /* \"#utility.yul\":13822:13986   */\n      pop\n      jump\t// out\n        /* \"#utility.yul\":13992:14358   */\n    tag_310:\n        /* \"#utility.yul\":14134:14137   */\n      0x00\n        /* \"#utility.yul\":14155:14222   */\n      tag_455\n        /* \"#utility.yul\":14219:14221   */\n      0x0e\n        /* \"#utility.yul\":14214:14217   */\n      dup4\n        /* \"#utility.yul\":14155:14222   */\n      tag_308\n      jump\t// in\n    tag_455:\n        /* \"#utility.yul\":14148:14222   */\n      swap2\n      pop\n        /* \"#utility.yul\":14231:14324   */\n      tag_456\n        /* \"#utility.yul\":14320:14323   */\n      dup3\n        /* \"#utility.yul\":14231:14324   */\n      tag_309\n      jump\t// in\n    tag_456:\n        /* \"#utility.yul\":14349:14351   */\n      0x20\n        /* \"#utility.yul\":14344:14347   */\n      dup3\n        /* \"#utility.yul\":14340:14352   */\n      add\n        /* \"#utility.yul\":14333:14352   */\n      swap1\n      pop\n        /* \"#utility.yul\":13992:14358   */\n      swap2\n      swap1\n      pop\n      jump\t// out\n        /* \"#utility.yul\":14364:14783   */\n    tag_54:\n        /* \"#utility.yul\":14530:14534   */\n      0x00\n        /* \"#utility.yul\":14568:14570   */\n      0x20\n        /* \"#utility.yul\":14557:14566   */\n      dup3\n        /* \"#utility.yul\":14553:14571   */\n      add\n        /* \"#utility.yul\":14545:14571   */\n      swap1\n      pop\n        /* \"#utility.yul\":14617:14626   */\n      dup2\n        /* \"#utility.yul\":14611:14615   */\n      dup2\n        /* \"#utility.yul\":14607:14627   */\n      sub\n        /* \"#utility.yul\":14603:14604   */\n      0x00\n        /* \"#utility.yul\":14592:14601   */\n      dup4\n        /* \"#utility.yul\":14588:14605   */\n      add\n        /* \"#utility.yul\":14581:14628   */\n      mstore\n        /* \"#utility.yul\":14645:14776   */\n      tag_458\n        /* \"#utility.yul\":14771:14775   */\n      dup2\n        /* \"#utility.yul\":14645:14776   */\n      tag_310\n      jump\t// in\n    tag_458:\n        /* \"#utility.yul\":14637:14776   */\n      swap1\n      pop\n        /* \"#utility.yul\":14364:14783   */\n      swap2\n      swap1\n      pop\n      jump\t// out\n        /* \"#utility.yul\":14789:14969   */\n    tag_311:\n        /* \"#utility.yul\":14929:14961   */\n      0x54686973206c6f616e20646f65736e2774206e6565642066756e64696e670000\n        /* \"#utility.yul\":14925:14926   */\n      0x00\n        /* \"#utility.yul\":14917:14923   */\n      dup3\n        /* \"#utility.yul\":14913:14927   */\n      add\n        /* \"#utility.yul\":14906:14962   */\n      mstore\n        /* \"#utility.yul\":14789:14969   */\n      pop\n      jump\t// out\n        /* \"#utility.yul\":14975:15341   */\n    tag_312:\n        /* \"#utility.yul\":15117:15120   */\n      0x00\n        /* \"#utility.yul\":15138:15205   */\n      tag_461\n        /* \"#utility.yul\":15202:15204   */\n      0x1e\n        /* \"#utility.yul\":15197:15200   */\n      dup4\n        /* \"#utility.yul\":15138:15205   */\n      tag_308\n      jump\t// in\n    tag_461:\n        /* \"#utility.yul\":15131:15205   */\n      swap2\n      pop\n        /* \"#utility.yul\":15214:15307   */\n      tag_462\n        /* \"#utility.yul\":15303:15306   */\n      dup3\n        /* \"#utility.yul\":15214:15307   */\n      tag_311\n      jump\t// in\n    tag_462:\n        /* \"#utility.yul\":15332:15334   */\n      0x20\n        /* \"#utility.yul\":15327:15330   */\n      dup3\n        /* \"#utility.yul\":15323:15335   */\n      add\n        /* \"#utility.yul\":15316:15335   */\n      swap1\n      pop\n        /* \"#utility.yul\":14975:15341   */\n      swap2\n      swap1\n      pop\n      jump\t// out\n        /* \"#utility.yul\":15347:15766   */\n    tag_62:\n        /* \"#utility.yul\":15513:15517   */\n      0x00\n        /* \"#utility.yul\":15551:15553   */\n      0x20\n        /* \"#utility.yul\":15540:15549   */\n      dup3\n        /* \"#utility.yul\":15536:15554   */\n      add\n        /* \"#utility.yul\":15528:15554   */\n      swap1\n      pop\n        /* \"#utility.yul\":15600:15609   */\n      dup2\n        /* \"#utility.yul\":15594:15598   */\n      dup2\n        /* \"#utility.yul\":15590:15610   */\n      sub\n        /* \"#utility.yul\":15586:15587   */\n      0x00\n        /* \"#utility.yul\":15575:15584   */\n      dup4\n        /* \"#utility.yul\":15571:15588   */\n      add\n        /* \"#utility.yul\":15564:15611   */\n      mstore\n        /* \"#utility.yul\":15628:15759   */\n      tag_464\n        /* \"#utility.yul\":15754:15758   */\n      dup2\n        /* \"#utility.yul\":15628:15759   */\n      tag_312\n      jump\t// in\n    tag_464:\n        /* \"#utility.yul\":15620:15759   */\n      swap1\n      pop\n        /* \"#utility.yul\":15347:15766   */\n      swap2\n      swap1\n      pop\n      jump\t// out\n        /* \"#utility.yul\":15772:16015   */\n    tag_313:\n        /* \"#utility.yul\":15912:15946   */\n      0x54686520616d6f756e742073656e7420646f6573206e6f74206d617463682074\n        /* \"#utility.yul\":15908:15909   */\n      0x00\n        /* \"#utility.yul\":15900:15906   */\n      dup3\n        /* \"#utility.yul\":15896:15910   */\n      add\n        /* \"#utility.yul\":15889:15947   */\n      mstore\n        /* \"#utility.yul\":15981:16007   */\n      0x686520726571756573746564206c6f616e20616d6f756e740000000000000000\n        /* \"#utility.yul\":15976:15978   */\n      0x20\n        /* \"#utility.yul\":15968:15974   */\n      dup3\n        /* \"#utility.yul\":15964:15979   */\n      add\n        /* \"#utility.yul\":15957:16008   */\n      mstore\n        /* \"#utility.yul\":15772:16015   */\n      pop\n      jump\t// out\n        /* \"#utility.yul\":16021:16387   */\n    tag_314:\n        /* \"#utility.yul\":16163:16166   */\n      0x00\n        /* \"#utility.yul\":16184:16251   */\n      tag_467\n        /* \"#utility.yul\":16248:16250   */\n      0x38\n        /* \"#utility.yul\":16243:16246   */\n      dup4\n        /* \"#utility.yul\":16184:16251   */\n      tag_308\n      jump\t// in\n    tag_467:\n        /* \"#utility.yul\":16177:16251   */\n      swap2\n      pop\n        /* \"#utility.yul\":16260:16353   */\n      tag_468\n        /* \"#utility.yul\":16349:16352   */\n      dup3\n        /* \"#utility.yul\":16260:16353   */\n      tag_313\n      jump\t// in\n    tag_468:\n        /* \"#utility.yul\":16378:16380   */\n      0x40\n        /* \"#utility.yul\":16373:16376   */\n      dup3\n        /* \"#utility.yul\":16369:16381   */\n      add\n        /* \"#utility.yul\":16362:16381   */\n      swap1\n      pop\n        /* \"#utility.yul\":16021:16387   */\n      swap2\n      swap1\n      pop\n      jump\t// out\n        /* \"#utility.yul\":16393:16812   */\n    tag_65:\n        /* \"#utility.yul\":16559:16563   */\n      0x00\n        /* \"#utility.yul\":16597:16599   */\n      0x20\n        /* \"#utility.yul\":16586:16595   */\n      dup3\n        /* \"#utility.yul\":16582:16600   */\n      add\n        /* \"#utility.yul\":16574:16600   */\n      swap1\n      pop\n        /* \"#utility.yul\":16646:16655   */\n      dup2\n        /* \"#utility.yul\":16640:16644   */\n      dup2\n        /* \"#utility.yul\":16636:16656   */\n      sub\n        /* \"#utility.yul\":16632:16633   */\n      0x00\n        /* \"#utility.yul\":16621:16630   */\n      dup4\n        /* \"#utility.yul\":16617:16634   */\n      add\n        /* \"#utility.yul\":16610:16657   */\n      mstore\n        /* \"#utility.yul\":16674:16805   */\n      tag_470\n        /* \"#utility.yul\":16800:16804   */\n      dup2\n        /* \"#utility.yul\":16674:16805   */\n      tag_314\n      jump\t// in\n    tag_470:\n        /* \"#utility.yul\":16666:16805   */\n      swap1\n      pop\n        /* \"#utility.yul\":16393:16812   */\n      swap2\n      swap1\n      pop\n      jump\t// out\n        /* \"#utility.yul\":16818:17043   */\n    tag_315:\n        /* \"#utility.yul\":16958:16992   */\n      0x4c656e64657220616e6420626f72726f7765722063616e6e6f74206265207468\n        /* \"#utility.yul\":16954:16955   */\n      0x00\n        /* \"#utility.yul\":16946:16952   */\n      dup3\n        /* \"#utility.yul\":16942:16956   */\n      add\n        /* \"#utility.yul\":16935:16993   */\n      mstore\n        /* \"#utility.yul\":17027:17035   */\n      0x652073616d650000000000000000000000000000000000000000000000000000\n        /* \"#utility.yul\":17022:17024   */\n      0x20\n        /* \"#utility.yul\":17014:17020   */\n      dup3\n        /* \"#utility.yul\":17010:17025   */\n      add\n        /* \"#utility.yul\":17003:17036   */\n      mstore\n        /* \"#utility.yul\":16818:17043   */\n      pop\n      jump\t// out\n        /* \"#utility.yul\":17049:17415   */\n    tag_316:\n        /* \"#utility.yul\":17191:17194   */\n      0x00\n        /* \"#utility.yul\":17212:17279   */\n      tag_473\n        /* \"#utility.yul\":17276:17278   */\n      0x26\n        /* \"#utility.yul\":17271:17274   */\n      dup4\n        /* \"#utility.yul\":17212:17279   */\n      tag_308\n      jump\t// in\n    tag_473:\n        /* \"#utility.yul\":17205:17279   */\n      swap2\n      pop\n        /* \"#utility.yul\":17288:17381   */\n      tag_474\n        /* \"#utility.yul\":17377:17380   */\n      dup3\n        /* \"#utility.yul\":17288:17381   */\n      tag_315\n      jump\t// in\n    tag_474:\n        /* \"#utility.yul\":17406:17408   */\n      0x40\n        /* \"#utility.yul\":17401:17404   */\n      dup3\n        /* \"#utility.yul\":17397:17409   */\n      add\n        /* \"#utility.yul\":17390:17409   */\n      swap1\n      pop\n        /* \"#utility.yul\":17049:17415   */\n      swap2\n      swap1\n      pop\n      jump\t// out\n        /* \"#utility.yul\":17421:17840   */\n    tag_68:\n        /* \"#utility.yul\":17587:17591   */\n      0x00\n        /* \"#utility.yul\":17625:17627   */\n      0x20\n        /* \"#utility.yul\":17614:17623   */\n      dup3\n        /* \"#utility.yul\":17610:17628   */\n      add\n        /* \"#utility.yul\":17602:17628   */\n      swap1\n      pop\n        /* \"#utility.yul\":17674:17683   */\n      dup2\n        /* \"#utility.yul\":17668:17672   */\n      dup2\n        /* \"#utility.yul\":17664:17684   */\n      sub\n        /* \"#utility.yul\":17660:17661   */\n      0x00\n        /* \"#utility.yul\":17649:17658   */\n      dup4\n        /* \"#utility.yul\":17645:17662   */\n      add\n        /* \"#utility.yul\":17638:17685   */\n      mstore\n        /* \"#utility.yul\":17702:17833   */\n      tag_476\n        /* \"#utility.yul\":17828:17832   */\n      dup2\n        /* \"#utility.yul\":17702:17833   */\n      tag_316\n      jump\t// in\n    tag_476:\n        /* \"#utility.yul\":17694:17833   */\n      swap1\n      pop\n        /* \"#utility.yul\":17421:17840   */\n      swap2\n      swap1\n      pop\n      jump\t// out\n        /* \"#utility.yul\":17846:17937   */\n    tag_317:\n        /* \"#utility.yul\":17882:17889   */\n      0x00\n        /* \"#utility.yul\":17922:17930   */\n      0xffffff\n        /* \"#utility.yul\":17915:17920   */\n      dup3\n        /* \"#utility.yul\":17911:17931   */\n      and\n        /* \"#utility.yul\":17900:17931   */\n      swap1\n      pop\n        /* \"#utility.yul\":17846:17937   */\n      swap2\n      swap1\n      pop\n      jump\t// out\n        /* \"#utility.yul\":17943:18123   */\n    tag_318:\n        /* \"#utility.yul\":17991:18068   */\n      0x4e487b7100000000000000000000000000000000000000000000000000000000\n        /* \"#utility.yul\":17988:17989   */\n      0x00\n        /* \"#utility.yul\":17981:18069   */\n      mstore\n        /* \"#utility.yul\":18088:18092   */\n      0x11\n        /* \"#utility.yul\":18085:18086   */\n      0x04\n        /* \"#utility.yul\":18078:18093   */\n      mstore\n        /* \"#utility.yul\":18112:18116   */\n      0x24\n        /* \"#utility.yul\":18109:18110   */\n      0x00\n        /* \"#utility.yul\":18102:18117   */\n      revert\n        /* \"#utility.yul\":18129:18404   */\n    tag_70:\n        /* \"#utility.yul\":18168:18175   */\n      0x00\n        /* \"#utility.yul\":18191:18210   */\n      tag_480\n        /* \"#utility.yul\":18208:18209   */\n      dup3\n        /* \"#utility.yul\":18191:18210   */\n      tag_317\n      jump\t// in\n    tag_480:\n        /* \"#utility.yul\":18186:18210   */\n      swap2\n      pop\n        /* \"#utility.yul\":18224:18243   */\n      tag_481\n        /* \"#utility.yul\":18241:18242   */\n      dup4\n        /* \"#utility.yul\":18224:18243   */\n      tag_317\n      jump\t// in\n    tag_481:\n        /* \"#utility.yul\":18219:18243   */\n      swap3\n      pop\n        /* \"#utility.yul\":18278:18279   */\n      dup3\n        /* \"#utility.yul\":18275:18276   */\n      dup3\n        /* \"#utility.yul\":18271:18280   */\n      mul\n        /* \"#utility.yul\":18300:18329   */\n      tag_482\n        /* \"#utility.yul\":18317:18328   */\n      dup2\n        /* \"#utility.yul\":18300:18329   */\n      tag_317\n      jump\t// in\n    tag_482:\n        /* \"#utility.yul\":18289:18329   */\n      swap2\n      pop\n        /* \"#utility.yul\":18361:18372   */\n      dup1\n        /* \"#utility.yul\":18352:18359   */\n      dup3\n        /* \"#utility.yul\":18349:18373   */\n      eq\n        /* \"#utility.yul\":18339:18397   */\n      tag_483\n      jumpi\n        /* \"#utility.yul\":18377:18395   */\n      tag_484\n      tag_318\n      jump\t// in\n    tag_484:\n        /* \"#utility.yul\":18339:18397   */\n    tag_483:\n        /* \"#utility.yul\":18176:18404   */\n      pop\n        /* \"#utility.yul\":18129:18404   */\n      swap3\n      swap2\n      pop\n      pop\n      jump\t// out\n        /* \"#utility.yul\":18410:18601   */\n    tag_72:\n        /* \"#utility.yul\":18450:18453   */\n      0x00\n        /* \"#utility.yul\":18469:18489   */\n      tag_486\n        /* \"#utility.yul\":18487:18488   */\n      dup3\n        /* \"#utility.yul\":18469:18489   */\n      tag_274\n      jump\t// in\n    tag_486:\n        /* \"#utility.yul\":18464:18489   */\n      swap2\n      pop\n        /* \"#utility.yul\":18503:18523   */\n      tag_487\n        /* \"#utility.yul\":18521:18522   */\n      dup4\n        /* \"#utility.yul\":18503:18523   */\n      tag_274\n      jump\t// in\n    tag_487:\n        /* \"#utility.yul\":18498:18523   */\n      swap3\n      pop\n        /* \"#utility.yul\":18546:18547   */\n      dup3\n        /* \"#utility.yul\":18543:18544   */\n      dup3\n        /* \"#utility.yul\":18539:18548   */\n      add\n        /* \"#utility.yul\":18532:18548   */\n      swap1\n      pop\n        /* \"#utility.yul\":18567:18570   */\n      dup1\n        /* \"#utility.yul\":18564:18565   */\n      dup3\n        /* \"#utility.yul\":18561:18571   */\n      gt\n        /* \"#utility.yul\":18558:18594   */\n      iszero\n      tag_488\n      jumpi\n        /* \"#utility.yul\":18574:18592   */\n      tag_489\n      tag_318\n      jump\t// in\n    tag_489:\n        /* \"#utility.yul\":18558:18594   */\n    tag_488:\n        /* \"#utility.yul\":18410:18601   */\n      swap3\n      swap2\n      pop\n      pop\n      jump\t// out\n        /* \"#utility.yul\":18607:19382   */\n    tag_78:\n        /* \"#utility.yul\":18840:18844   */\n      0x00\n        /* \"#utility.yul\":18878:18881   */\n      0xc0\n        /* \"#utility.yul\":18867:18876   */\n      dup3\n        /* \"#utility.yul\":18863:18882   */\n      add\n        /* \"#utility.yul\":18855:18882   */\n      swap1\n      pop\n        /* \"#utility.yul\":18892:18963   */\n      tag_491\n        /* \"#utility.yul\":18960:18961   */\n      0x00\n        /* \"#utility.yul\":18949:18958   */\n      dup4\n        /* \"#utility.yul\":18945:18962   */\n      add\n        /* \"#utility.yul\":18936:18942   */\n      dup10\n        /* \"#utility.yul\":18892:18963   */\n      tag_305\n      jump\t// in\n    tag_491:\n        /* \"#utility.yul\":18973:19045   */\n      tag_492\n        /* \"#utility.yul\":19041:19043   */\n      0x20\n        /* \"#utility.yul\":19030:19039   */\n      dup4\n        /* \"#utility.yul\":19026:19044   */\n      add\n        /* \"#utility.yul\":19017:19023   */\n      dup9\n        /* \"#utility.yul\":18973:19045   */\n      tag_303\n      jump\t// in\n    tag_492:\n        /* \"#utility.yul\":19055:19127   */\n      tag_493\n        /* \"#utility.yul\":19123:19125   */\n      0x40\n        /* \"#utility.yul\":19112:19121   */\n      dup4\n        /* \"#utility.yul\":19108:19126   */\n      add\n        /* \"#utility.yul\":19099:19105   */\n      dup8\n        /* \"#utility.yul\":19055:19127   */\n      tag_303\n      jump\t// in\n    tag_493:\n        /* \"#utility.yul\":19137:19209   */\n      tag_494\n        /* \"#utility.yul\":19205:19207   */\n      0x60\n        /* \"#utility.yul\":19194:19203   */\n      dup4\n        /* \"#utility.yul\":19190:19208   */\n      add\n        /* \"#utility.yul\":19181:19187   */\n      dup7\n        /* \"#utility.yul\":19137:19209   */\n      tag_305\n      jump\t// in\n    tag_494:\n        /* \"#utility.yul\":19219:19292   */\n      tag_495\n        /* \"#utility.yul\":19287:19290   */\n      0x80\n        /* \"#utility.yul\":19276:19285   */\n      dup4\n        /* \"#utility.yul\":19272:19291   */\n      add\n        /* \"#utility.yul\":19263:19269   */\n      dup6\n        /* \"#utility.yul\":19219:19292   */\n      tag_305\n      jump\t// in\n    tag_495:\n        /* \"#utility.yul\":19302:19375   */\n      tag_496\n        /* \"#utility.yul\":19370:19373   */\n      0xa0\n        /* \"#utility.yul\":19359:19368   */\n      dup4\n        /* \"#utility.yul\":19355:19374   */\n      add\n        /* \"#utility.yul\":19346:19352   */\n      dup5\n        /* \"#utility.yul\":19302:19375   */\n      tag_305\n      jump\t// in\n    tag_496:\n        /* \"#utility.yul\":18607:19382   */\n      swap8\n      swap7\n      pop\n      pop\n      pop\n      pop\n      pop\n      pop\n      pop\n      jump\t// out\n        /* \"#utility.yul\":19388:19582   */\n    tag_89:\n        /* \"#utility.yul\":19428:19432   */\n      0x00\n        /* \"#utility.yul\":19448:19468   */\n      tag_498\n        /* \"#utility.yul\":19466:19467   */\n      dup3\n        /* \"#utility.yul\":19448:19468   */\n      tag_274\n      jump\t// in\n    tag_498:\n        /* \"#utility.yul\":19443:19468   */\n      swap2\n      pop\n        /* \"#utility.yul\":19482:19502   */\n      tag_499\n        /* \"#utility.yul\":19500:19501   */\n      dup4\n        /* \"#utility.yul\":19482:19502   */\n      tag_274\n      jump\t// in\n    tag_499:\n        /* \"#utility.yul\":19477:19502   */\n      swap3\n      pop\n        /* \"#utility.yul\":19526:19527   */\n      dup3\n        /* \"#utility.yul\":19523:19524   */\n      dup3\n        /* \"#utility.yul\":19519:19528   */\n      sub\n        /* \"#utility.yul\":19511:19528   */\n      swap1\n      pop\n        /* \"#utility.yul\":19550:19551   */\n      dup2\n        /* \"#utility.yul\":19544:19548   */\n      dup2\n        /* \"#utility.yul\":19541:19552   */\n      gt\n        /* \"#utility.yul\":19538:19575   */\n      iszero\n      tag_500\n      jumpi\n        /* \"#utility.yul\":19555:19573   */\n      tag_501\n      tag_318\n      jump\t// in\n    tag_501:\n        /* \"#utility.yul\":19538:19575   */\n    tag_500:\n        /* \"#utility.yul\":19388:19582   */\n      swap3\n      swap2\n      pop\n      pop\n      jump\t// out\n        /* \"#utility.yul\":19588:19768   */\n    tag_94:\n        /* \"#utility.yul\":19636:19713   */\n      0x4e487b7100000000000000000000000000000000000000000000000000000000\n        /* \"#utility.yul\":19633:19634   */\n      0x00\n        /* \"#utility.yul\":19626:19714   */\n      mstore\n        /* \"#utility.yul\":19733:19737   */\n      0x32\n        /* \"#utility.yul\":19730:19731   */\n      0x04\n        /* \"#utility.yul\":19723:19738   */\n      mstore\n        /* \"#utility.yul\":19757:19761   */\n      0x24\n        /* \"#utility.yul\":19754:19755   */\n      0x00\n        /* \"#utility.yul\":19747:19762   */\n      revert\n        /* \"#utility.yul\":19774:20002   */\n    tag_319:\n        /* \"#utility.yul\":19914:19948   */\n      0x546865206c6f616e20616d6f756e74206d757374206265206772656174657220\n        /* \"#utility.yul\":19910:19911   */\n      0x00\n        /* \"#utility.yul\":19902:19908   */\n      dup3\n        /* \"#utility.yul\":19898:19912   */\n      add\n        /* \"#utility.yul\":19891:19949   */\n      mstore\n        /* \"#utility.yul\":19983:19994   */\n      0x7468616e207a65726f0000000000000000000000000000000000000000000000\n        /* \"#utility.yul\":19978:19980   */\n      0x20\n        /* \"#utility.yul\":19970:19976   */\n      dup3\n        /* \"#utility.yul\":19966:19981   */\n      add\n        /* \"#utility.yul\":19959:19995   */\n      mstore\n        /* \"#utility.yul\":19774:20002   */\n      pop\n      jump\t// out\n        /* \"#utility.yul\":20008:20374   */\n    tag_320:\n        /* \"#utility.yul\":20150:20153   */\n      0x00\n        /* \"#utility.yul\":20171:20238   */\n      tag_505\n        /* \"#utility.yul\":20235:20237   */\n      0x29\n        /* \"#utility.yul\":20230:20233   */\n      dup4\n        /* \"#utility.yul\":20171:20238   */\n      tag_308\n      jump\t// in\n    tag_505:\n        /* \"#utility.yul\":20164:20238   */\n      swap2\n      pop\n        /* \"#utility.yul\":20247:20340   */\n      tag_506\n        /* \"#utility.yul\":20336:20339   */\n      dup3\n        /* \"#utility.yul\":20247:20340   */\n      tag_319\n      jump\t// in\n    tag_506:\n        /* \"#utility.yul\":20365:20367   */\n      0x40\n        /* \"#utility.yul\":20360:20363   */\n      dup3\n        /* \"#utility.yul\":20356:20368   */\n      add\n        /* \"#utility.yul\":20349:20368   */\n      swap1\n      pop\n        /* \"#utility.yul\":20008:20374   */\n      swap2\n      swap1\n      pop\n      jump\t// out\n        /* \"#utility.yul\":20380:20799   */\n    tag_137:\n        /* \"#utility.yul\":20546:20550   */\n      0x00\n        /* \"#utility.yul\":20584:20586   */\n      0x20\n        /* \"#utility.yul\":20573:20582   */\n      dup3\n        /* \"#utility.yul\":20569:20587   */\n      add\n        /* \"#utility.yul\":20561:20587   */\n      swap1\n      pop\n        /* \"#utility.yul\":20633:20642   */\n      dup2\n        /* \"#utility.yul\":20627:20631   */\n      dup2\n        /* \"#utility.yul\":20623:20643   */\n      sub\n        /* \"#utility.yul\":20619:20620   */\n      0x00\n        /* \"#utility.yul\":20608:20617   */\n      dup4\n        /* \"#utility.yul\":20604:20621   */\n      add\n        /* \"#utility.yul\":20597:20644   */\n      mstore\n        /* \"#utility.yul\":20661:20792   */\n      tag_508\n        /* \"#utility.yul\":20787:20791   */\n      dup2\n        /* \"#utility.yul\":20661:20792   */\n      tag_320\n      jump\t// in\n    tag_508:\n        /* \"#utility.yul\":20653:20792   */\n      swap1\n      pop\n        /* \"#utility.yul\":20380:20799   */\n      swap2\n      swap1\n      pop\n      jump\t// out\n        /* \"#utility.yul\":20805:21044   */\n    tag_321:\n        /* \"#utility.yul\":20945:20979   */\n      0x4c6f616e206c696d697420726561636865642c20706c65617365207761697420\n        /* \"#utility.yul\":20941:20942   */\n      0x00\n        /* \"#utility.yul\":20933:20939   */\n      dup3\n        /* \"#utility.yul\":20929:20943   */\n      add\n        /* \"#utility.yul\":20922:20980   */\n      mstore\n        /* \"#utility.yul\":21014:21036   */\n      0x666f722061206c6f616e20746f20636c6f73652e000000000000000000000000\n        /* \"#utility.yul\":21009:21011   */\n      0x20\n        /* \"#utility.yul\":21001:21007   */\n      dup3\n        /* \"#utility.yul\":20997:21012   */\n      add\n        /* \"#utility.yul\":20990:21037   */\n      mstore\n        /* \"#utility.yul\":20805:21044   */\n      pop\n      jump\t// out\n        /* \"#utility.yul\":21050:21416   */\n    tag_322:\n        /* \"#utility.yul\":21192:21195   */\n      0x00\n        /* \"#utility.yul\":21213:21280   */\n      tag_511\n        /* \"#utility.yul\":21277:21279   */\n      0x34\n        /* \"#utility.yul\":21272:21275   */\n      dup4\n        /* \"#utility.yul\":21213:21280   */\n      tag_308\n      jump\t// in\n    tag_511:\n        /* \"#utility.yul\":21206:21280   */\n      swap2\n      pop\n        /* \"#utility.yul\":21289:21382   */\n      tag_512\n        /* \"#utility.yul\":21378:21381   */\n      dup3\n        /* \"#utility.yul\":21289:21382   */\n      tag_321\n      jump\t// in\n    tag_512:\n        /* \"#utility.yul\":21407:21409   */\n      0x40\n        /* \"#utility.yul\":21402:21405   */\n      dup3\n        /* \"#utility.yul\":21398:21410   */\n      add\n        /* \"#utility.yul\":21391:21410   */\n      swap1\n      pop\n        /* \"#utility.yul\":21050:21416   */\n      swap2\n      swap1\n      pop\n      jump\t// out\n        /* \"#utility.yul\":21422:21841   */\n    tag_141:\n        /* \"#utility.yul\":21588:21592   */\n      0x00\n        /* \"#utility.yul\":21626:21628   */\n      0x20\n        /* \"#utility.yul\":21615:21624   */\n      dup3\n        /* \"#utility.yul\":21611:21629   */\n      add\n        /* \"#utility.yul\":21603:21629   */\n      swap1\n      pop\n        /* \"#utility.yul\":21675:21684   */\n      dup2\n        /* \"#utility.yul\":21669:21673   */\n      dup2\n        /* \"#utility.yul\":21665:21685   */\n      sub\n        /* \"#utility.yul\":21661:21662   */\n      0x00\n        /* \"#utility.yul\":21650:21659   */\n      dup4\n        /* \"#utility.yul\":21646:21663   */\n      add\n        /* \"#utility.yul\":21639:21686   */\n      mstore\n        /* \"#utility.yul\":21703:21834   */\n      tag_514\n        /* \"#utility.yul\":21829:21833   */\n      dup2\n        /* \"#utility.yul\":21703:21834   */\n      tag_322\n      jump\t// in\n    tag_514:\n        /* \"#utility.yul\":21695:21834   */\n      swap1\n      pop\n        /* \"#utility.yul\":21422:21841   */\n      swap2\n      swap1\n      pop\n      jump\t// out\n        /* \"#utility.yul\":21847:22147   */\n    tag_323:\n        /* \"#utility.yul\":21987:22021   */\n      0x596f752063616e6e6f7420726571756573742061206e6577206c6f616e206966\n        /* \"#utility.yul\":21983:21984   */\n      0x00\n        /* \"#utility.yul\":21975:21981   */\n      dup3\n        /* \"#utility.yul\":21971:21985   */\n      add\n        /* \"#utility.yul\":21964:22022   */\n      mstore\n        /* \"#utility.yul\":22056:22090   */\n      0x20796f7520686176652070656e64696e672c206163746976652c206f72206f76\n        /* \"#utility.yul\":22051:22053   */\n      0x20\n        /* \"#utility.yul\":22043:22049   */\n      dup3\n        /* \"#utility.yul\":22039:22054   */\n      add\n        /* \"#utility.yul\":22032:22091   */\n      mstore\n        /* \"#utility.yul\":22125:22139   */\n      0x6572647565206c6f616e732e0000000000000000000000000000000000000000\n        /* \"#utility.yul\":22120:22122   */\n      0x40\n        /* \"#utility.yul\":22112:22118   */\n      dup3\n        /* \"#utility.yul\":22108:22123   */\n      add\n        /* \"#utility.yul\":22101:22140   */\n      mstore\n        /* \"#utility.yul\":21847:22147   */\n      pop\n      jump\t// out\n        /* \"#utility.yul\":22153:22519   */\n    tag_324:\n        /* \"#utility.yul\":22295:22298   */\n      0x00\n        /* \"#utility.yul\":22316:22383   */\n      tag_517\n        /* \"#utility.yul\":22380:22382   */\n      0x4c\n        /* \"#utility.yul\":22375:22378   */\n      dup4\n        /* \"#utility.yul\":22316:22383   */\n      tag_308\n      jump\t// in\n    tag_517:\n        /* \"#utility.yul\":22309:22383   */\n      swap2\n      pop\n        /* \"#utility.yul\":22392:22485   */\n      tag_518\n        /* \"#utility.yul\":22481:22484   */\n      dup3\n        /* \"#utility.yul\":22392:22485   */\n      tag_323\n      jump\t// in\n    tag_518:\n        /* \"#utility.yul\":22510:22512   */\n      0x60\n        /* \"#utility.yul\":22505:22508   */\n      dup3\n        /* \"#utility.yul\":22501:22513   */\n      add\n        /* \"#utility.yul\":22494:22513   */\n      swap1\n      pop\n        /* \"#utility.yul\":22153:22519   */\n      swap2\n      swap1\n      pop\n      jump\t// out\n        /* \"#utility.yul\":22525:22944   */\n    tag_161:\n        /* \"#utility.yul\":22691:22695   */\n      0x00\n        /* \"#utility.yul\":22729:22731   */\n      0x20\n        /* \"#utility.yul\":22718:22727   */\n      dup3\n        /* \"#utility.yul\":22714:22732   */\n      add\n        /* \"#utility.yul\":22706:22732   */\n      swap1\n      pop\n        /* \"#utility.yul\":22778:22787   */\n      dup2\n        /* \"#utility.yul\":22772:22776   */\n      dup2\n        /* \"#utility.yul\":22768:22788   */\n      sub\n        /* \"#utility.yul\":22764:22765   */\n      0x00\n        /* \"#utility.yul\":22753:22762   */\n      dup4\n        /* \"#utility.yul\":22749:22766   */\n      add\n        /* \"#utility.yul\":22742:22789   */\n      mstore\n        /* \"#utility.yul\":22806:22937   */\n      tag_520\n        /* \"#utility.yul\":22932:22936   */\n      dup2\n        /* \"#utility.yul\":22806:22937   */\n      tag_324\n      jump\t// in\n    tag_520:\n        /* \"#utility.yul\":22798:22937   */\n      swap1\n      pop\n        /* \"#utility.yul\":22525:22944   */\n      swap2\n      swap1\n      pop\n      jump\t// out\n        /* \"#utility.yul\":22950:23183   */\n    tag_163:\n        /* \"#utility.yul\":22989:22992   */\n      0x00\n        /* \"#utility.yul\":23012:23036   */\n      tag_522\n        /* \"#utility.yul\":23030:23035   */\n      dup3\n        /* \"#utility.yul\":23012:23036   */\n      tag_274\n      jump\t// in\n    tag_522:\n        /* \"#utility.yul\":23003:23036   */\n      swap2\n      pop\n        /* \"#utility.yul\":23058:23124   */\n      0xffffffffffffffffffffffffffffffffffffffffffffffffffffffffffffffff\n        /* \"#utility.yul\":23051:23056   */\n      dup3\n        /* \"#utility.yul\":23048:23125   */\n      sub\n        /* \"#utility.yul\":23045:23148   */\n      tag_523\n      jumpi\n        /* \"#utility.yul\":23128:23146   */\n      tag_524\n      tag_318\n      jump\t// in\n    tag_524:\n        /* \"#utility.yul\":23045:23148   */\n    tag_523:\n        /* \"#utility.yul\":23175:23176   */\n      0x01\n        /* \"#utility.yul\":23168:23173   */\n      dup3\n        /* \"#utility.yul\":23164:23177   */\n      add\n        /* \"#utility.yul\":23157:23177   */\n      swap1\n      pop\n        /* \"#utility.yul\":22950:23183   */\n      swap2\n      swap1\n      pop\n      jump\t// out\n        /* \"#utility.yul\":23189:23541   */\n    tag_175:\n        /* \"#utility.yul\":23320:23324   */\n      0x00\n        /* \"#utility.yul\":23358:23360   */\n      0x40\n        /* \"#utility.yul\":23347:23356   */\n      dup3\n        /* \"#utility.yul\":23343:23361   */\n      add\n        /* \"#utility.yul\":23335:23361   */\n      swap1\n      pop\n        /* \"#utility.yul\":23371:23442   */\n      tag_526\n        /* \"#utility.yul\":23439:23440   */\n      0x00\n        /* \"#utility.yul\":23428:23437   */\n      dup4\n        /* \"#utility.yul\":23424:23441   */\n      add\n        /* \"#utility.yul\":23415:23421   */\n      dup6\n        /* \"#utility.yul\":23371:23442   */\n      tag_305\n      jump\t// in\n    tag_526:\n        /* \"#utility.yul\":23452:23534   */\n      tag_527\n        /* \"#utility.yul\":23530:23532   */\n      0x20\n        /* \"#utility.yul\":23519:23528   */\n      dup4\n        /* \"#utility.yul\":23515:23533   */\n      add\n        /* \"#utility.yul\":23506:23512   */\n      dup5\n        /* \"#utility.yul\":23452:23534   */\n      tag_307\n      jump\t// in\n    tag_527:\n        /* \"#utility.yul\":23189:23541   */\n      swap4\n      swap3\n      pop\n      pop\n      pop\n      jump\t// out\n        /* \"#utility.yul\":23547:23772   */\n    tag_325:\n        /* \"#utility.yul\":23687:23721   */\n      0x4f6e6c792074686520626f72726f7765722063616e2063616e63656c20746869\n        /* \"#utility.yul\":23683:23684   */\n      0x00\n        /* \"#utility.yul\":23675:23681   */\n      dup3\n        /* \"#utility.yul\":23671:23685   */\n      add\n        /* \"#utility.yul\":23664:23722   */\n      mstore\n        /* \"#utility.yul\":23756:23764   */\n      0x73206c6f616e0000000000000000000000000000000000000000000000000000\n        /* \"#utility.yul\":23751:23753   */\n      0x20\n        /* \"#utility.yul\":23743:23749   */\n      dup3\n        /* \"#utility.yul\":23739:23754   */\n      add\n        /* \"#utility.yul\":23732:23765   */\n      mstore\n        /* \"#utility.yul\":23547:23772   */\n      pop\n      jump\t// out\n        /* \"#utility.yul\":23778:24144   */\n    tag_326:\n        /* \"#utility.yul\":23920:23923   */\n      0x00\n        /* \"#utility.yul\":23941:24008   */\n      tag_530\n        /* \"#utility.yul\":24005:24007   */\n      0x26\n        /* \"#utility.yul\":24000:24003   */\n      dup4\n        /* \"#utility.yul\":23941:24008   */\n      tag_308\n      jump\t// in\n    tag_530:\n        /* \"#utility.yul\":23934:24008   */\n      swap2\n      pop\n        /* \"#utility.yul\":24017:24110   */\n      tag_531\n        /* \"#utility.yul\":24106:24109   */\n      dup3\n        /* \"#utility.yul\":24017:24110   */\n      tag_325\n      jump\t// in\n    tag_531:\n        /* \"#utility.yul\":24135:24137   */\n      0x40\n        /* \"#utility.yul\":24130:24133   */\n      dup3\n        /* \"#utility.yul\":24126:24138   */\n      add\n        /* \"#utility.yul\":24119:24138   */\n      swap1\n      pop\n        /* \"#utility.yul\":23778:24144   */\n      swap2\n      swap1\n      pop\n      jump\t// out\n        /* \"#utility.yul\":24150:24569   */\n    tag_180:\n        /* \"#utility.yul\":24316:24320   */\n      0x00\n        /* \"#utility.yul\":24354:24356   */\n      0x20\n        /* \"#utility.yul\":24343:24352   */\n      dup3\n        /* \"#utility.yul\":24339:24357   */\n      add\n        /* \"#utility.yul\":24331:24357   */\n      swap1\n      pop\n        /* \"#utility.yul\":24403:24412   */\n      dup2\n        /* \"#utility.yul\":24397:24401   */\n      dup2\n        /* \"#utility.yul\":24393:24413   */\n      sub\n        /* \"#utility.yul\":24389:24390   */\n      0x00\n        /* \"#utility.yul\":24378:24387   */\n      dup4\n        /* \"#utility.yul\":24374:24391   */\n      add\n        /* \"#utility.yul\":24367:24414   */\n      mstore\n        /* \"#utility.yul\":24431:24562   */\n      tag_533\n        /* \"#utility.yul\":24557:24561   */\n      dup2\n        /* \"#utility.yul\":24431:24562   */\n      tag_326\n      jump\t// in\n    tag_533:\n        /* \"#utility.yul\":24423:24562   */\n      swap1\n      pop\n        /* \"#utility.yul\":24150:24569   */\n      swap2\n      swap1\n      pop\n      jump\t// out\n        /* \"#utility.yul\":24575:24743   */\n    tag_327:\n        /* \"#utility.yul\":24715:24735   */\n      0x4e6f206c6f616e20746f2063616e63656c2e0000000000000000000000000000\n        /* \"#utility.yul\":24711:24712   */\n      0x00\n        /* \"#utility.yul\":24703:24709   */\n      dup3\n        /* \"#utility.yul\":24699:24713   */\n      add\n        /* \"#utility.yul\":24692:24736   */\n      mstore\n        /* \"#utility.yul\":24575:24743   */\n      pop\n      jump\t// out\n        /* \"#utility.yul\":24749:25115   */\n    tag_328:\n        /* \"#utility.yul\":24891:24894   */\n      0x00\n        /* \"#utility.yul\":24912:24979   */\n      tag_536\n        /* \"#utility.yul\":24976:24978   */\n      0x12\n        /* \"#utility.yul\":24971:24974   */\n      dup4\n        /* \"#utility.yul\":24912:24979   */\n      tag_308\n      jump\t// in\n    tag_536:\n        /* \"#utility.yul\":24905:24979   */\n      swap2\n      pop\n        /* \"#utility.yul\":24988:25081   */\n      tag_537\n        /* \"#utility.yul\":25077:25080   */\n      dup3\n        /* \"#utility.yul\":24988:25081   */\n      tag_327\n      jump\t// in\n    tag_537:\n        /* \"#utility.yul\":25106:25108   */\n      0x20\n        /* \"#utility.yul\":25101:25104   */\n      dup3\n        /* \"#utility.yul\":25097:25109   */\n      add\n        /* \"#utility.yul\":25090:25109   */\n      swap1\n      pop\n        /* \"#utility.yul\":24749:25115   */\n      swap2\n      swap1\n      pop\n      jump\t// out\n        /* \"#utility.yul\":25121:25540   */\n    tag_197:\n        /* \"#utility.yul\":25287:25291   */\n      0x00\n        /* \"#utility.yul\":25325:25327   */\n      0x20\n        /* \"#utility.yul\":25314:25323   */\n      dup3\n        /* \"#utility.yul\":25310:25328   */\n      add\n        /* \"#utility.yul\":25302:25328   */\n      swap1\n      pop\n        /* \"#utility.yul\":25374:25383   */\n      dup2\n        /* \"#utility.yul\":25368:25372   */\n      dup2\n        /* \"#utility.yul\":25364:25384   */\n      sub\n        /* \"#utility.yul\":25360:25361   */\n      0x00\n        /* \"#utility.yul\":25349:25358   */\n      dup4\n        /* \"#utility.yul\":25345:25362   */\n      add\n        /* \"#utility.yul\":25338:25385   */\n      mstore\n        /* \"#utility.yul\":25402:25533   */\n      tag_539\n        /* \"#utility.yul\":25528:25532   */\n      dup2\n        /* \"#utility.yul\":25402:25533   */\n      tag_328\n      jump\t// in\n    tag_539:\n        /* \"#utility.yul\":25394:25533   */\n      swap1\n      pop\n        /* \"#utility.yul\":25121:25540   */\n      swap2\n      swap1\n      pop\n      jump\t// out\n        /* \"#utility.yul\":25546:25726   */\n    tag_215:\n        /* \"#utility.yul\":25594:25671   */\n      0x4e487b7100000000000000000000000000000000000000000000000000000000\n        /* \"#utility.yul\":25591:25592   */\n      0x00\n        /* \"#utility.yul\":25584:25672   */\n      mstore\n        /* \"#utility.yul\":25691:25695   */\n      0x41\n        /* \"#utility.yul\":25688:25689   */\n      0x04\n        /* \"#utility.yul\":25681:25696   */\n      mstore\n        /* \"#utility.yul\":25715:25719   */\n      0x24\n        /* \"#utility.yul\":25712:25713   */\n      0x00\n        /* \"#utility.yul\":25705:25720   */\n      revert\n        /* \"#utility.yul\":25732:25902   */\n    tag_329:\n        /* \"#utility.yul\":25872:25894   */\n      0x496e76616c6964206372656469742073636f7265000000000000000000000000\n        /* \"#utility.yul\":25868:25869   */\n      0x00\n        /* \"#utility.yul\":25860:25866   */\n      dup3\n        /* \"#utility.yul\":25856:25870   */\n      add\n        /* \"#utility.yul\":25849:25895   */\n      mstore\n        /* \"#utility.yul\":25732:25902   */\n      pop\n      jump\t// out\n        /* \"#utility.yul\":25908:26274   */\n    tag_330:\n        /* \"#utility.yul\":26050:26053   */\n      0x00\n        /* \"#utility.yul\":26071:26138   */\n      tag_543\n        /* \"#utility.yul\":26135:26137   */\n      0x14\n        /* \"#utility.yul\":26130:26133   */\n      dup4\n        /* \"#utility.yul\":26071:26138   */\n      tag_308\n      jump\t// in\n    tag_543:\n        /* \"#utility.yul\":26064:26138   */\n      swap2\n      pop\n        /* \"#utility.yul\":26147:26240   */\n      tag_544\n        /* \"#utility.yul\":26236:26239   */\n      dup3\n        /* \"#utility.yul\":26147:26240   */\n      tag_329\n      jump\t// in\n    tag_544:\n        /* \"#utility.yul\":26265:26267   */\n      0x20\n        /* \"#utility.yul\":26260:26263   */\n      dup3\n        /* \"#utility.yul\":26256:26268   */\n      add\n        /* \"#utility.yul\":26249:26268   */\n      swap1\n      pop\n        /* \"#utility.yul\":25908:26274   */\n      swap2\n      swap1\n      pop\n      jump\t// out\n        /* \"#utility.yul\":26280:26699   */\n    tag_241:\n        /* \"#utility.yul\":26446:26450   */\n      0x00\n        /* \"#utility.yul\":26484:26486   */\n      0x20\n        /* \"#utility.yul\":26473:26482   */\n      dup3\n        /* \"#utility.yul\":26469:26487   */\n      add\n        /* \"#utility.yul\":26461:26487   */\n      swap1\n      pop\n        /* \"#utility.yul\":26533:26542   */\n      dup2\n        /* \"#utility.yul\":26527:26531   */\n      dup2\n        /* \"#utility.yul\":26523:26543   */\n      sub\n        /* \"#utility.yul\":26519:26520   */\n      0x00\n        /* \"#utility.yul\":26508:26517   */\n      dup4\n        /* \"#utility.yul\":26504:26521   */\n      add\n        /* \"#utility.yul\":26497:26544   */\n      mstore\n        /* \"#utility.yul\":26561:26692   */\n      tag_546\n        /* \"#utility.yul\":26687:26691   */\n      dup2\n        /* \"#utility.yul\":26561:26692   */\n      tag_330\n      jump\t// in\n    tag_546:\n        /* \"#utility.yul\":26553:26692   */\n      swap1\n      pop\n        /* \"#utility.yul\":26280:26699   */\n      swap2\n      swap1\n      pop\n      jump\t// out\n\n    auxdata: 0xa264697066735822122016c3e9e8aabb68e9b576a5e8f94d42659fba18e48b4e0bb33061c4ad36e2e60e64736f6c634300081c0033\n}\n",
				"bytecode": {
					"linkReferences": {},
					"object": "6080604052348015600e575f5ffd5b506124d98061001c5f395ff3fe60806040526004361061007a575f3560e01c8063b96c5cdd1161004d578063b96c5cdd14610116578063bdbfa3de14610153578063e034f3dc1461016f578063e3ed1902146101b35761007a565b806315e303f31461007e5780631a26e0b71461009a5780633ddce5a0146100c45780638d5d3429146100ee575b5f5ffd5b610098600480360381019061009391906117ee565b6101ef565b005b3480156100a5575f5ffd5b506100ae6104d4565b6040516100bb9190611b67565b60405180910390f35b3480156100cf575f5ffd5b506100d8610619565b6040516100e59190611b67565b60405180910390f35b3480156100f9575f5ffd5b50610114600480360381019061010f91906117ee565b61075e565b005b348015610121575f5ffd5b5061013c60048036038101906101379190611bb1565b610d42565b60405161014a929190611bfa565b60405180910390f35b61016d600480360381019061016891906117ee565b610d8d565b005b34801561017a575f5ffd5b50610195600480360381019061019091906117ee565b610f25565b6040516101aa99989796959493929190611c8c565b60405180910390f35b3480156101be575f5ffd5b506101d960048036038101906101d49190611d1e565b61106a565b6040516101e69190611d5c565b60405180910390f35b5f60015f8381526020019081526020015f2090505f816001015f015f9054906101000a900473ffffffffffffffffffffffffffffffffffffffff16905082825f015414610271576040517f08c379a000000000000000000000000000000000000000000000000000000000815260040161026890611dcf565b60405180910390fd5b60016004811115610285576102846119a0565b5b826009015f9054906101000a900460ff1660048111156102a8576102a76119a0565b5b146102e8576040517f08c379a00000000000000000000000000000000000000000000000000000000081526004016102df90611e37565b60405180910390fd5b8160040154341461032e576040517f08c379a000000000000000000000000000000000000000000000000000000000815260040161032590611ec5565b60405180910390fd5b3373ffffffffffffffffffffffffffffffffffffffff168173ffffffffffffffffffffffffffffffffffffffff160361039c576040517f08c379a000000000000000000000000000000000000000000000000000000000815260040161039390611f53565b60405180910390fd5b33826003015f6101000a81548173ffffffffffffffffffffffffffffffffffffffff021916908373ffffffffffffffffffffffffffffffffffffffff1602179055504282600701819055506201518061016d61ffff166103fc9190611fac565b62ffffff164261040c9190611fe8565b82600801819055505f826009015f6101000a81548160ff0219169083600481111561043a576104396119a0565b5b02179055508073ffffffffffffffffffffffffffffffffffffffff166108fc3490811502906040515f60405180830381858888f19350505050158015610482573d5f5f3e3d5ffd5b507f8aa0da3f068a2cb6c8967ae3dcba3c1e23f4035d737fd9cb63fb331e85176051825f0154338334866007015487600801546040516104c79695949392919061201b565b60405180910390a1505050565b60605f5f6104e0611095565b915091505f5f90505b81811015610610575f5f90505b81600184610504919061207a565b61050e919061207a565b81101561060257836001826105239190611fe8565b81518110610534576105336120ad565b5b602002602001015160800151848281518110610553576105526120ad565b5b60200260200101516080015111156105f5575f848281518110610579576105786120ad565b5b60200260200101519050846001836105919190611fe8565b815181106105a2576105a16120ad565b5b60200260200101518583815181106105bd576105bc6120ad565b5b602002602001018190525080856001846105d79190611fe8565b815181106105e8576105e76120ad565b5b6020026020010181905250505b80806001019150506104f6565b5080806001019150506104e9565b50819250505090565b60605f5f610625611095565b915091505f5f90505b81811015610755575f5f90505b81600184610649919061207a565b610653919061207a565b81101561074757836001826106689190611fe8565b81518110610679576106786120ad565b5b602002602001015160600151848281518110610698576106976120ad565b5b602002602001015160600151111561073a575f8482815181106106be576106bd6120ad565b5b60200260200101519050846001836106d69190611fe8565b815181106106e7576106e66120ad565b5b6020026020010151858381518110610702576107016120ad565b5b6020026020010181905250808560018461071c9190611fe8565b8151811061072d5761072c6120ad565b5b6020026020010181905250505b808060010191505061063b565b50808060010191505061062e565b50819250505090565b5f81116107a0576040517f08c379a00000000000000000000000000000000000000000000000000000000081526004016107979061214a565b60405180910390fd5b5f6107a9611095565b9150506101f48111156107f1576040517f08c379a00000000000000000000000000000000000000000000000000000000081526004016107e8906121d8565b60405180910390fd5b5f60035f3373ffffffffffffffffffffffffffffffffffffffff1673ffffffffffffffffffffffffffffffffffffffff1681526020019081526020015f2080548060200260200160405190810160405280929190818152602001828054801561087757602002820191905f5260205f20905b815481526020019060010190808311610863575b505050505090505f5f90505b8151811015610ae9575f8282815181106108a05761089f6120ad565b5b602002602001015190505f60015f8381526020019081526020015f20604051806101200160405290815f8201548152602001600182016040518060600160405290815f82015f9054906101000a900473ffffffffffffffffffffffffffffffffffffffff1673ffffffffffffffffffffffffffffffffffffffff1673ffffffffffffffffffffffffffffffffffffffff1681526020015f820160149054906101000a900460ff1660ff1660ff1681526020016001820180548060200260200160405190810160405280929190818152602001828054801561099e57602002820191905f5260205f20905b81548152602001906001019080831161098a575b5050505050815250508152602001600382015f9054906101000a900473ffffffffffffffffffffffffffffffffffffffff1673ffffffffffffffffffffffffffffffffffffffff1673ffffffffffffffffffffffffffffffffffffffff1681526020016004820154815260200160058201548152602001600682015481526020016007820154815260200160088201548152602001600982015f9054906101000a900460ff166004811115610a5657610a556119a0565b5b6004811115610a6857610a676119a0565b5b81525050905060026004811115610a8257610a816119a0565b5b8161010001516004811115610a9a57610a996119a0565b5b14610ada576040517f08c379a0000000000000000000000000000000000000000000000000000000008152600401610ad19061228c565b60405180910390fd5b50508080600101915050610883565b505f5f815480929190610afb906122aa565b91905055505f60035f3373ffffffffffffffffffffffffffffffffffffffff1673ffffffffffffffffffffffffffffffffffffffff1681526020019081526020015f208054905090505f5f8214610b9e5760025f3373ffffffffffffffffffffffffffffffffffffffff1673ffffffffffffffffffffffffffffffffffffffff1681526020019081526020015f205f0160149054906101000a900460ff16610ba1565b60015b90505f5f610bae836113dd565b915091505f6040518061012001604052805f54815260200160405180606001604052803373ffffffffffffffffffffffffffffffffffffffff1681526020018760ff16815260200160035f3373ffffffffffffffffffffffffffffffffffffffff1673ffffffffffffffffffffffffffffffffffffffff1681526020019081526020015f20805480602002602001604051908101604052809291908181526020018280548015610c7b57602002820191905f5260205f20905b815481526020019060010190808311610c67575b505050505081525081526020015f73ffffffffffffffffffffffffffffffffffffffff1681526020018981526020018481526020018381526020015f81526020015f815260200160016004811115610cd657610cd56119a0565b5b8152509050610ce4816114b6565b82883373ffffffffffffffffffffffffffffffffffffffff167f04fb50f9f9196efcf6c3a31384ff5137cbe3b5da82f608087126caaaffbcafdb5f546001604051610d309291906122f1565b60405180910390a45050505050505050565b6002602052805f5260405f205f91509050805f015f9054906101000a900473ffffffffffffffffffffffffffffffffffffffff1690805f0160149054906101000a900460ff16905082565b5f60015f8381526020019081526020015f2090505f816001015f015f9054906101000a900473ffffffffffffffffffffffffffffffffffffffff1690505f620151808360070154610dde9190611fe8565b90503373ffffffffffffffffffffffffffffffffffffffff168273ffffffffffffffffffffffffffffffffffffffff1614610e4e576040517f08c379a0000000000000000000000000000000000000000000000000000000008152600401610e4590612388565b60405180910390fd5b60016004811115610e6257610e616119a0565b5b836009015f9054906101000a900460ff166004811115610e8557610e846119a0565b5b03610e9857610e9383611678565b610f1f565b60026004811115610eac57610eab6119a0565b5b836009015f9054906101000a900460ff166004811115610ecf57610ece6119a0565b5b148015610edf5750808360070154105b610f1e576040517f08c379a0000000000000000000000000000000000000000000000000000000008152600401610f15906123f0565b60405180910390fd5b5b50505050565b6001602052805f5260405f205f91509050805f015490806001016040518060600160405290815f82015f9054906101000a900473ffffffffffffffffffffffffffffffffffffffff1673ffffffffffffffffffffffffffffffffffffffff1673ffffffffffffffffffffffffffffffffffffffff1681526020015f820160149054906101000a900460ff1660ff1660ff1681526020016001820180548060200260200160405190810160405280929190818152602001828054801561100757602002820191905f5260205f20905b815481526020019060010190808311610ff3575b50505050508152505090806003015f9054906101000a900473ffffffffffffffffffffffffffffffffffffffff1690806004015490806005015490806006015490806007015490806008015490806009015f9054906101000a900460ff16905089565b6003602052815f5260405f208181548110611083575f80fd5b905f5260205f20015f91509150505481565b60605f5f5f90505f600190505b5f54811161111857600160048111156110be576110bd6119a0565b5b60015f8381526020019081526020015f206009015f9054906101000a900460ff1660048111156110f1576110f06119a0565b5b03611105578180611101906122aa565b9250505b8080611110906122aa565b9150506110a2565b505f8167ffffffffffffffff8111156111345761113361240e565b5b60405190808252806020026020018201604052801561116d57816020015b61115a6116a7565b8152602001906001900390816111525790505b5090505f5f90505f600190505b5f5481116113cf5760016004811115611196576111956119a0565b5b60015f8381526020019081526020015f206009015f9054906101000a900460ff1660048111156111c9576111c86119a0565b5b036113bc5760015f8281526020019081526020015f20604051806101200160405290815f8201548152602001600182016040518060600160405290815f82015f9054906101000a900473ffffffffffffffffffffffffffffffffffffffff1673ffffffffffffffffffffffffffffffffffffffff1673ffffffffffffffffffffffffffffffffffffffff1681526020015f820160149054906101000a900460ff1660ff1660ff168152602001600182018054806020026020016040519081016040528092919081815260200182805480156112c157602002820191905f5260205f20905b8154815260200190600101908083116112ad575b5050505050815250508152602001600382015f9054906101000a900473ffffffffffffffffffffffffffffffffffffffff1673ffffffffffffffffffffffffffffffffffffffff1673ffffffffffffffffffffffffffffffffffffffff1681526020016004820154815260200160058201548152602001600682015481526020016007820154815260200160088201548152602001600982015f9054906101000a900460ff166004811115611379576113786119a0565b5b600481111561138b5761138a6119a0565b5b815250508383815181106113a2576113a16120ad565b5b602002602001018190525081806113b8906122aa565b9250505b80806113c7906122aa565b91505061117a565b508183945094505050509091565b5f5f60048360ff161115611426576040517f08c379a000000000000000000000000000000000000000000000000000000000815260040161141d90612485565b60405180910390fd5b5f5f5f8560ff1603611441576107d09150610bb890506114a9565b60018560ff160361145b576104b091506107d090506114a8565b60028560ff1603611475576103e891506105dc90506114a7565b60038560ff160361148f57610320915061051490506114a6565b60048560ff16106114a557610258915061038490505b5b5b5b5b8181935093505050915091565b8060015f835f015181526020019081526020015f205f820151815f01556020820151816001015f820151815f015f6101000a81548173ffffffffffffffffffffffffffffffffffffffff021916908373ffffffffffffffffffffffffffffffffffffffff1602179055506020820151815f0160146101000a81548160ff021916908360ff160217905550604082015181600101908051906020019061155c929190611719565b5050506040820151816003015f6101000a81548173ffffffffffffffffffffffffffffffffffffffff021916908373ffffffffffffffffffffffffffffffffffffffff160217905550606082015181600401556080820151816005015560a0820151816006015560c0820151816007015560e08201518160080155610100820151816009015f6101000a81548160ff02191690836004811115611602576116016119a0565b5b021790555090505060035f82602001515f015173ffffffffffffffffffffffffffffffffffffffff1673ffffffffffffffffffffffffffffffffffffffff1681526020019081526020015f20815f0151908060018154018082558091505060019003905f5260205f20015f909190919091505550565b6004816009015f6101000a81548160ff0219169083600481111561169f5761169e6119a0565b5b021790555050565b6040518061012001604052805f81526020016116c1611764565b81526020015f73ffffffffffffffffffffffffffffffffffffffff1681526020015f81526020015f81526020015f81526020015f81526020015f81526020015f6004811115611713576117126119a0565b5b81525090565b828054828255905f5260205f20908101928215611753579160200282015b82811115611752578251825591602001919060010190611737565b5b509050611760919061179c565b5090565b60405180606001604052805f73ffffffffffffffffffffffffffffffffffffffff1681526020015f60ff168152602001606081525090565b5b808211156117b3575f815f90555060010161179d565b5090565b5f5ffd5b5f819050919050565b6117cd816117bb565b81146117d7575f5ffd5b50565b5f813590506117e8816117c4565b92915050565b5f60208284031215611803576118026117b7565b5b5f611810848285016117da565b91505092915050565b5f81519050919050565b5f82825260208201905092915050565b5f819050602082019050919050565b61184b816117bb565b82525050565b5f73ffffffffffffffffffffffffffffffffffffffff82169050919050565b5f61187a82611851565b9050919050565b61188a81611870565b82525050565b5f60ff82169050919050565b6118a581611890565b82525050565b5f81519050919050565b5f82825260208201905092915050565b5f819050602082019050919050565b5f6118df8383611842565b60208301905092915050565b5f602082019050919050565b5f611901826118ab565b61190b81856118b5565b9350611916836118c5565b805f5b8381101561194657815161192d88826118d4565b9750611938836118eb565b925050600181019050611919565b5085935050505092915050565b5f606083015f8301516119685f860182611881565b50602083015161197b602086018261189c565b506040830151848203604086015261199382826118f7565b9150508091505092915050565b7f4e487b71000000000000000000000000000000000000000000000000000000005f52602160045260245ffd5b600581106119de576119dd6119a0565b5b50565b5f8190506119ee826119cd565b919050565b5f6119fd826119e1565b9050919050565b611a0d816119f3565b82525050565b5f61012083015f830151611a295f860182611842565b5060208301518482036020860152611a418282611953565b9150506040830151611a566040860182611881565b506060830151611a696060860182611842565b506080830151611a7c6080860182611842565b5060a0830151611a8f60a0860182611842565b5060c0830151611aa260c0860182611842565b5060e0830151611ab560e0860182611842565b50610100830151611aca610100860182611a04565b508091505092915050565b5f611ae08383611a13565b905092915050565b5f602082019050919050565b5f611afe82611819565b611b088185611823565b935083602082028501611b1a85611833565b805f5b85811015611b555784840389528151611b368582611ad5565b9450611b4183611ae8565b925060208a01995050600181019050611b1d565b50829750879550505050505092915050565b5f6020820190508181035f830152611b7f8184611af4565b905092915050565b611b9081611870565b8114611b9a575f5ffd5b50565b5f81359050611bab81611b87565b92915050565b5f60208284031215611bc657611bc56117b7565b5b5f611bd384828501611b9d565b91505092915050565b611be581611870565b82525050565b611bf481611890565b82525050565b5f604082019050611c0d5f830185611bdc565b611c1a6020830184611beb565b9392505050565b611c2a816117bb565b82525050565b5f606083015f830151611c455f860182611881565b506020830151611c58602086018261189c565b5060408301518482036040860152611c7082826118f7565b9150508091505092915050565b611c86816119f3565b82525050565b5f61012082019050611ca05f83018c611c21565b8181036020830152611cb2818b611c30565b9050611cc1604083018a611bdc565b611cce6060830189611c21565b611cdb6080830188611c21565b611ce860a0830187611c21565b611cf560c0830186611c21565b611d0260e0830185611c21565b611d10610100830184611c7d565b9a9950505050505050505050565b5f5f60408385031215611d3457611d336117b7565b5b5f611d4185828601611b9d565b9250506020611d52858286016117da565b9150509250929050565b5f602082019050611d6f5f830184611c21565b92915050565b5f82825260208201905092915050565b7f4c6f616e206e6f7420666f756e640000000000000000000000000000000000005f82015250565b5f611db9600e83611d75565b9150611dc482611d85565b602082019050919050565b5f6020820190508181035f830152611de681611dad565b9050919050565b7f54686973206c6f616e20646f65736e2774206e6565642066756e64696e6700005f82015250565b5f611e21601e83611d75565b9150611e2c82611ded565b602082019050919050565b5f6020820190508181035f830152611e4e81611e15565b9050919050565b7f54686520616d6f756e742073656e7420646f6573206e6f74206d6174636820745f8201527f686520726571756573746564206c6f616e20616d6f756e740000000000000000602082015250565b5f611eaf603883611d75565b9150611eba82611e55565b604082019050919050565b5f6020820190508181035f830152611edc81611ea3565b9050919050565b7f4c656e64657220616e6420626f72726f7765722063616e6e6f742062652074685f8201527f652073616d650000000000000000000000000000000000000000000000000000602082015250565b5f611f3d602683611d75565b9150611f4882611ee3565b604082019050919050565b5f6020820190508181035f830152611f6a81611f31565b9050919050565b5f62ffffff82169050919050565b7f4e487b71000000000000000000000000000000000000000000000000000000005f52601160045260245ffd5b5f611fb682611f71565b9150611fc183611f71565b9250828202611fcf81611f71565b9150808214611fe157611fe0611f7f565b5b5092915050565b5f611ff2826117bb565b9150611ffd836117bb565b925082820190508082111561201557612014611f7f565b5b92915050565b5f60c08201905061202e5f830189611c21565b61203b6020830188611bdc565b6120486040830187611bdc565b6120556060830186611c21565b6120626080830185611c21565b61206f60a0830184611c21565b979650505050505050565b5f612084826117bb565b915061208f836117bb565b92508282039050818111156120a7576120a6611f7f565b5b92915050565b7f4e487b71000000000000000000000000000000000000000000000000000000005f52603260045260245ffd5b7f546865206c6f616e20616d6f756e74206d7573742062652067726561746572205f8201527f7468616e207a65726f0000000000000000000000000000000000000000000000602082015250565b5f612134602983611d75565b915061213f826120da565b604082019050919050565b5f6020820190508181035f83015261216181612128565b9050919050565b7f4c6f616e206c696d697420726561636865642c20706c656173652077616974205f8201527f666f722061206c6f616e20746f20636c6f73652e000000000000000000000000602082015250565b5f6121c2603483611d75565b91506121cd82612168565b604082019050919050565b5f6020820190508181035f8301526121ef816121b6565b9050919050565b7f596f752063616e6e6f7420726571756573742061206e6577206c6f616e2069665f8201527f20796f7520686176652070656e64696e672c206163746976652c206f72206f7660208201527f6572647565206c6f616e732e0000000000000000000000000000000000000000604082015250565b5f612276604c83611d75565b9150612281826121f6565b606082019050919050565b5f6020820190508181035f8301526122a38161226a565b9050919050565b5f6122b4826117bb565b91507fffffffffffffffffffffffffffffffffffffffffffffffffffffffffffffffff82036122e6576122e5611f7f565b5b600182019050919050565b5f6040820190506123045f830185611c21565b6123116020830184611c7d565b9392505050565b7f4f6e6c792074686520626f72726f7765722063616e2063616e63656c207468695f8201527f73206c6f616e0000000000000000000000000000000000000000000000000000602082015250565b5f612372602683611d75565b915061237d82612318565b604082019050919050565b5f6020820190508181035f83015261239f81612366565b9050919050565b7f4e6f206c6f616e20746f2063616e63656c2e00000000000000000000000000005f82015250565b5f6123da601283611d75565b91506123e5826123a6565b602082019050919050565b5f6020820190508181035f830152612407816123ce565b9050919050565b7f4e487b71000000000000000000000000000000000000000000000000000000005f52604160045260245ffd5b7f496e76616c6964206372656469742073636f72650000000000000000000000005f82015250565b5f61246f601483611d75565b915061247a8261243b565b602082019050919050565b5f6020820190508181035f83015261249c81612463565b905091905056fea264697066735822122016c3e9e8aabb68e9b576a5e8f94d42659fba18e48b4e0bb33061c4ad36e2e60e64736f6c634300081c0033",
					"opcodes": "PUSH1 0x80 PUSH1 0x40 MSTORE CALLVALUE DUP1 ISZERO PUSH1 0xE JUMPI PUSH0 PUSH0 REVERT JUMPDEST POP PUSH2 0x24D9 DUP1 PUSH2 0x1C PUSH0 CODECOPY PUSH0 RETURN INVALID PUSH1 0x80 PUSH1 0x40 MSTORE PUSH1 0x4 CALLDATASIZE LT PUSH2 0x7A JUMPI PUSH0 CALLDATALOAD PUSH1 0xE0 SHR DUP1 PUSH4 0xB96C5CDD GT PUSH2 0x4D JUMPI DUP1 PUSH4 0xB96C5CDD EQ PUSH2 0x116 JUMPI DUP1 PUSH4 0xBDBFA3DE EQ PUSH2 0x153 JUMPI DUP1 PUSH4 0xE034F3DC EQ PUSH2 0x16F JUMPI DUP1 PUSH4 0xE3ED1902 EQ PUSH2 0x1B3 JUMPI PUSH2 0x7A JUMP JUMPDEST DUP1 PUSH4 0x15E303F3 EQ PUSH2 0x7E JUMPI DUP1 PUSH4 0x1A26E0B7 EQ PUSH2 0x9A JUMPI DUP1 PUSH4 0x3DDCE5A0 EQ PUSH2 0xC4 JUMPI DUP1 PUSH4 0x8D5D3429 EQ PUSH2 0xEE JUMPI JUMPDEST PUSH0 PUSH0 REVERT JUMPDEST PUSH2 0x98 PUSH1 0x4 DUP1 CALLDATASIZE SUB DUP2 ADD SWAP1 PUSH2 0x93 SWAP2 SWAP1 PUSH2 0x17EE JUMP JUMPDEST PUSH2 0x1EF JUMP JUMPDEST STOP JUMPDEST CALLVALUE DUP1 ISZERO PUSH2 0xA5 JUMPI PUSH0 PUSH0 REVERT JUMPDEST POP PUSH2 0xAE PUSH2 0x4D4 JUMP JUMPDEST PUSH1 0x40 MLOAD PUSH2 0xBB SWAP2 SWAP1 PUSH2 0x1B67 JUMP JUMPDEST PUSH1 0x40 MLOAD DUP1 SWAP2 SUB SWAP1 RETURN JUMPDEST CALLVALUE DUP1 ISZERO PUSH2 0xCF JUMPI PUSH0 PUSH0 REVERT JUMPDEST POP PUSH2 0xD8 PUSH2 0x619 JUMP JUMPDEST PUSH1 0x40 MLOAD PUSH2 0xE5 SWAP2 SWAP1 PUSH2 0x1B67 JUMP JUMPDEST PUSH1 0x40 MLOAD DUP1 SWAP2 SUB SWAP1 RETURN JUMPDEST CALLVALUE DUP1 ISZERO PUSH2 0xF9 JUMPI PUSH0 PUSH0 REVERT JUMPDEST POP PUSH2 0x114 PUSH1 0x4 DUP1 CALLDATASIZE SUB DUP2 ADD SWAP1 PUSH2 0x10F SWAP2 SWAP1 PUSH2 0x17EE JUMP JUMPDEST PUSH2 0x75E JUMP JUMPDEST STOP JUMPDEST CALLVALUE DUP1 ISZERO PUSH2 0x121 JUMPI PUSH0 PUSH0 REVERT JUMPDEST POP PUSH2 0x13C PUSH1 0x4 DUP1 CALLDATASIZE SUB DUP2 ADD SWAP1 PUSH2 0x137 SWAP2 SWAP1 PUSH2 0x1BB1 JUMP JUMPDEST PUSH2 0xD42 JUMP JUMPDEST PUSH1 0x40 MLOAD PUSH2 0x14A SWAP3 SWAP2 SWAP1 PUSH2 0x1BFA JUMP JUMPDEST PUSH1 0x40 MLOAD DUP1 SWAP2 SUB SWAP1 RETURN JUMPDEST PUSH2 0x16D PUSH1 0x4 DUP1 CALLDATASIZE SUB DUP2 ADD SWAP1 PUSH2 0x168 SWAP2 SWAP1 PUSH2 0x17EE JUMP JUMPDEST PUSH2 0xD8D JUMP JUMPDEST STOP JUMPDEST CALLVALUE DUP1 ISZERO PUSH2 0x17A JUMPI PUSH0 PUSH0 REVERT JUMPDEST POP PUSH2 0x195 PUSH1 0x4 DUP1 CALLDATASIZE SUB DUP2 ADD SWAP1 PUSH2 0x190 SWAP2 SWAP1 PUSH2 0x17EE JUMP JUMPDEST PUSH2 0xF25 JUMP JUMPDEST PUSH1 0x40 MLOAD PUSH2 0x1AA SWAP10 SWAP9 SWAP8 SWAP7 SWAP6 SWAP5 SWAP4 SWAP3 SWAP2 SWAP1 PUSH2 0x1C8C JUMP JUMPDEST PUSH1 0x40 MLOAD DUP1 SWAP2 SUB SWAP1 RETURN JUMPDEST CALLVALUE DUP1 ISZERO PUSH2 0x1BE JUMPI PUSH0 PUSH0 REVERT JUMPDEST POP PUSH2 0x1D9 PUSH1 0x4 DUP1 CALLDATASIZE SUB DUP2 ADD SWAP1 PUSH2 0x1D4 SWAP2 SWAP1 PUSH2 0x1D1E JUMP JUMPDEST PUSH2 0x106A JUMP JUMPDEST PUSH1 0x40 MLOAD PUSH2 0x1E6 SWAP2 SWAP1 PUSH2 0x1D5C JUMP JUMPDEST PUSH1 0x40 MLOAD DUP1 SWAP2 SUB SWAP1 RETURN JUMPDEST PUSH0 PUSH1 0x1 PUSH0 DUP4 DUP2 MSTORE PUSH1 0x20 ADD SWAP1 DUP2 MSTORE PUSH1 0x20 ADD PUSH0 KECCAK256 SWAP1 POP PUSH0 DUP2 PUSH1 0x1 ADD PUSH0 ADD PUSH0 SWAP1 SLOAD SWAP1 PUSH2 0x100 EXP SWAP1 DIV PUSH20 0xFFFFFFFFFFFFFFFFFFFFFFFFFFFFFFFFFFFFFFFF AND SWAP1 POP DUP3 DUP3 PUSH0 ADD SLOAD EQ PUSH2 0x271 JUMPI PUSH1 0x40 MLOAD PUSH32 0x8C379A000000000000000000000000000000000000000000000000000000000 DUP2 MSTORE PUSH1 0x4 ADD PUSH2 0x268 SWAP1 PUSH2 0x1DCF JUMP JUMPDEST PUSH1 0x40 MLOAD DUP1 SWAP2 SUB SWAP1 REVERT JUMPDEST PUSH1 0x1 PUSH1 0x4 DUP2 GT ISZERO PUSH2 0x285 JUMPI PUSH2 0x284 PUSH2 0x19A0 JUMP JUMPDEST JUMPDEST DUP3 PUSH1 0x9 ADD PUSH0 SWAP1 SLOAD SWAP1 PUSH2 0x100 EXP SWAP1 DIV PUSH1 0xFF AND PUSH1 0x4 DUP2 GT ISZERO PUSH2 0x2A8 JUMPI PUSH2 0x2A7 PUSH2 0x19A0 JUMP JUMPDEST JUMPDEST EQ PUSH2 0x2E8 JUMPI PUSH1 0x40 MLOAD PUSH32 0x8C379A000000000000000000000000000000000000000000000000000000000 DUP2 MSTORE PUSH1 0x4 ADD PUSH2 0x2DF SWAP1 PUSH2 0x1E37 JUMP JUMPDEST PUSH1 0x40 MLOAD DUP1 SWAP2 SUB SWAP1 REVERT JUMPDEST DUP2 PUSH1 0x4 ADD SLOAD CALLVALUE EQ PUSH2 0x32E JUMPI PUSH1 0x40 MLOAD PUSH32 0x8C379A000000000000000000000000000000000000000000000000000000000 DUP2 MSTORE PUSH1 0x4 ADD PUSH2 0x325 SWAP1 PUSH2 0x1EC5 JUMP JUMPDEST PUSH1 0x40 MLOAD DUP1 SWAP2 SUB SWAP1 REVERT JUMPDEST CALLER PUSH20 0xFFFFFFFFFFFFFFFFFFFFFFFFFFFFFFFFFFFFFFFF AND DUP2 PUSH20 0xFFFFFFFFFFFFFFFFFFFFFFFFFFFFFFFFFFFFFFFF AND SUB PUSH2 0x39C JUMPI PUSH1 0x40 MLOAD PUSH32 0x8C379A000000000000000000000000000000000000000000000000000000000 DUP2 MSTORE PUSH1 0x4 ADD PUSH2 0x393 SWAP1 PUSH2 0x1F53 JUMP JUMPDEST PUSH1 0x40 MLOAD DUP1 SWAP2 SUB SWAP1 REVERT JUMPDEST CALLER DUP3 PUSH1 0x3 ADD PUSH0 PUSH2 0x100 EXP DUP2 SLOAD DUP2 PUSH20 0xFFFFFFFFFFFFFFFFFFFFFFFFFFFFFFFFFFFFFFFF MUL NOT AND SWAP1 DUP4 PUSH20 0xFFFFFFFFFFFFFFFFFFFFFFFFFFFFFFFFFFFFFFFF AND MUL OR SWAP1 SSTORE POP TIMESTAMP DUP3 PUSH1 0x7 ADD DUP2 SWAP1 SSTORE POP PUSH3 0x15180 PUSH2 0x16D PUSH2 0xFFFF AND PUSH2 0x3FC SWAP2 SWAP1 PUSH2 0x1FAC JUMP JUMPDEST PUSH3 0xFFFFFF AND TIMESTAMP PUSH2 0x40C SWAP2 SWAP1 PUSH2 0x1FE8 JUMP JUMPDEST DUP3 PUSH1 0x8 ADD DUP2 SWAP1 SSTORE POP PUSH0 DUP3 PUSH1 0x9 ADD PUSH0 PUSH2 0x100 EXP DUP2 SLOAD DUP2 PUSH1 0xFF MUL NOT AND SWAP1 DUP4 PUSH1 0x4 DUP2 GT ISZERO PUSH2 0x43A JUMPI PUSH2 0x439 PUSH2 0x19A0 JUMP JUMPDEST JUMPDEST MUL OR SWAP1 SSTORE POP DUP1 PUSH20 0xFFFFFFFFFFFFFFFFFFFFFFFFFFFFFFFFFFFFFFFF AND PUSH2 0x8FC CALLVALUE SWAP1 DUP2 ISZERO MUL SWAP1 PUSH1 0x40 MLOAD PUSH0 PUSH1 0x40 MLOAD DUP1 DUP4 SUB DUP2 DUP6 DUP9 DUP9 CALL SWAP4 POP POP POP POP ISZERO DUP1 ISZERO PUSH2 0x482 JUMPI RETURNDATASIZE PUSH0 PUSH0 RETURNDATACOPY RETURNDATASIZE PUSH0 REVERT JUMPDEST POP PUSH32 0x8AA0DA3F068A2CB6C8967AE3DCBA3C1E23F4035D737FD9CB63FB331E85176051 DUP3 PUSH0 ADD SLOAD CALLER DUP4 CALLVALUE DUP7 PUSH1 0x7 ADD SLOAD DUP8 PUSH1 0x8 ADD SLOAD PUSH1 0x40 MLOAD PUSH2 0x4C7 SWAP7 SWAP6 SWAP5 SWAP4 SWAP3 SWAP2 SWAP1 PUSH2 0x201B JUMP JUMPDEST PUSH1 0x40 MLOAD DUP1 SWAP2 SUB SWAP1 LOG1 POP POP POP JUMP JUMPDEST PUSH1 0x60 PUSH0 PUSH0 PUSH2 0x4E0 PUSH2 0x1095 JUMP JUMPDEST SWAP2 POP SWAP2 POP PUSH0 PUSH0 SWAP1 POP JUMPDEST DUP2 DUP2 LT ISZERO PUSH2 0x610 JUMPI PUSH0 PUSH0 SWAP1 POP JUMPDEST DUP2 PUSH1 0x1 DUP5 PUSH2 0x504 SWAP2 SWAP1 PUSH2 0x207A JUMP JUMPDEST PUSH2 0x50E SWAP2 SWAP1 PUSH2 0x207A JUMP JUMPDEST DUP2 LT ISZERO PUSH2 0x602 JUMPI DUP4 PUSH1 0x1 DUP3 PUSH2 0x523 SWAP2 SWAP1 PUSH2 0x1FE8 JUMP JUMPDEST DUP2 MLOAD DUP2 LT PUSH2 0x534 JUMPI PUSH2 0x533 PUSH2 0x20AD JUMP JUMPDEST JUMPDEST PUSH1 0x20 MUL PUSH1 0x20 ADD ADD MLOAD PUSH1 0x80 ADD MLOAD DUP5 DUP3 DUP2 MLOAD DUP2 LT PUSH2 0x553 JUMPI PUSH2 0x552 PUSH2 0x20AD JUMP JUMPDEST JUMPDEST PUSH1 0x20 MUL PUSH1 0x20 ADD ADD MLOAD PUSH1 0x80 ADD MLOAD GT ISZERO PUSH2 0x5F5 JUMPI PUSH0 DUP5 DUP3 DUP2 MLOAD DUP2 LT PUSH2 0x579 JUMPI PUSH2 0x578 PUSH2 0x20AD JUMP JUMPDEST JUMPDEST PUSH1 0x20 MUL PUSH1 0x20 ADD ADD MLOAD SWAP1 POP DUP5 PUSH1 0x1 DUP4 PUSH2 0x591 SWAP2 SWAP1 PUSH2 0x1FE8 JUMP JUMPDEST DUP2 MLOAD DUP2 LT PUSH2 0x5A2 JUMPI PUSH2 0x5A1 PUSH2 0x20AD JUMP JUMPDEST JUMPDEST PUSH1 0x20 MUL PUSH1 0x20 ADD ADD MLOAD DUP6 DUP4 DUP2 MLOAD DUP2 LT PUSH2 0x5BD JUMPI PUSH2 0x5BC PUSH2 0x20AD JUMP JUMPDEST JUMPDEST PUSH1 0x20 MUL PUSH1 0x20 ADD ADD DUP2 SWAP1 MSTORE POP DUP1 DUP6 PUSH1 0x1 DUP5 PUSH2 0x5D7 SWAP2 SWAP1 PUSH2 0x1FE8 JUMP JUMPDEST DUP2 MLOAD DUP2 LT PUSH2 0x5E8 JUMPI PUSH2 0x5E7 PUSH2 0x20AD JUMP JUMPDEST JUMPDEST PUSH1 0x20 MUL PUSH1 0x20 ADD ADD DUP2 SWAP1 MSTORE POP POP JUMPDEST DUP1 DUP1 PUSH1 0x1 ADD SWAP2 POP POP PUSH2 0x4F6 JUMP JUMPDEST POP DUP1 DUP1 PUSH1 0x1 ADD SWAP2 POP POP PUSH2 0x4E9 JUMP JUMPDEST POP DUP2 SWAP3 POP POP POP SWAP1 JUMP JUMPDEST PUSH1 0x60 PUSH0 PUSH0 PUSH2 0x625 PUSH2 0x1095 JUMP JUMPDEST SWAP2 POP SWAP2 POP PUSH0 PUSH0 SWAP1 POP JUMPDEST DUP2 DUP2 LT ISZERO PUSH2 0x755 JUMPI PUSH0 PUSH0 SWAP1 POP JUMPDEST DUP2 PUSH1 0x1 DUP5 PUSH2 0x649 SWAP2 SWAP1 PUSH2 0x207A JUMP JUMPDEST PUSH2 0x653 SWAP2 SWAP1 PUSH2 0x207A JUMP JUMPDEST DUP2 LT ISZERO PUSH2 0x747 JUMPI DUP4 PUSH1 0x1 DUP3 PUSH2 0x668 SWAP2 SWAP1 PUSH2 0x1FE8 JUMP JUMPDEST DUP2 MLOAD DUP2 LT PUSH2 0x679 JUMPI PUSH2 0x678 PUSH2 0x20AD JUMP JUMPDEST JUMPDEST PUSH1 0x20 MUL PUSH1 0x20 ADD ADD MLOAD PUSH1 0x60 ADD MLOAD DUP5 DUP3 DUP2 MLOAD DUP2 LT PUSH2 0x698 JUMPI PUSH2 0x697 PUSH2 0x20AD JUMP JUMPDEST JUMPDEST PUSH1 0x20 MUL PUSH1 0x20 ADD ADD MLOAD PUSH1 0x60 ADD MLOAD GT ISZERO PUSH2 0x73A JUMPI PUSH0 DUP5 DUP3 DUP2 MLOAD DUP2 LT PUSH2 0x6BE JUMPI PUSH2 0x6BD PUSH2 0x20AD JUMP JUMPDEST JUMPDEST PUSH1 0x20 MUL PUSH1 0x20 ADD ADD MLOAD SWAP1 POP DUP5 PUSH1 0x1 DUP4 PUSH2 0x6D6 SWAP2 SWAP1 PUSH2 0x1FE8 JUMP JUMPDEST DUP2 MLOAD DUP2 LT PUSH2 0x6E7 JUMPI PUSH2 0x6E6 PUSH2 0x20AD JUMP JUMPDEST JUMPDEST PUSH1 0x20 MUL PUSH1 0x20 ADD ADD MLOAD DUP6 DUP4 DUP2 MLOAD DUP2 LT PUSH2 0x702 JUMPI PUSH2 0x701 PUSH2 0x20AD JUMP JUMPDEST JUMPDEST PUSH1 0x20 MUL PUSH1 0x20 ADD ADD DUP2 SWAP1 MSTORE POP DUP1 DUP6 PUSH1 0x1 DUP5 PUSH2 0x71C SWAP2 SWAP1 PUSH2 0x1FE8 JUMP JUMPDEST DUP2 MLOAD DUP2 LT PUSH2 0x72D JUMPI PUSH2 0x72C PUSH2 0x20AD JUMP JUMPDEST JUMPDEST PUSH1 0x20 MUL PUSH1 0x20 ADD ADD DUP2 SWAP1 MSTORE POP POP JUMPDEST DUP1 DUP1 PUSH1 0x1 ADD SWAP2 POP POP PUSH2 0x63B JUMP JUMPDEST POP DUP1 DUP1 PUSH1 0x1 ADD SWAP2 POP POP PUSH2 0x62E JUMP JUMPDEST POP DUP2 SWAP3 POP POP POP SWAP1 JUMP JUMPDEST PUSH0 DUP2 GT PUSH2 0x7A0 JUMPI PUSH1 0x40 MLOAD PUSH32 0x8C379A000000000000000000000000000000000000000000000000000000000 DUP2 MSTORE PUSH1 0x4 ADD PUSH2 0x797 SWAP1 PUSH2 0x214A JUMP JUMPDEST PUSH1 0x40 MLOAD DUP1 SWAP2 SUB SWAP1 REVERT JUMPDEST PUSH0 PUSH2 0x7A9 PUSH2 0x1095 JUMP JUMPDEST SWAP2 POP POP PUSH2 0x1F4 DUP2 GT ISZERO PUSH2 0x7F1 JUMPI PUSH1 0x40 MLOAD PUSH32 0x8C379A000000000000000000000000000000000000000000000000000000000 DUP2 MSTORE PUSH1 0x4 ADD PUSH2 0x7E8 SWAP1 PUSH2 0x21D8 JUMP JUMPDEST PUSH1 0x40 MLOAD DUP1 SWAP2 SUB SWAP1 REVERT JUMPDEST PUSH0 PUSH1 0x3 PUSH0 CALLER PUSH20 0xFFFFFFFFFFFFFFFFFFFFFFFFFFFFFFFFFFFFFFFF AND PUSH20 0xFFFFFFFFFFFFFFFFFFFFFFFFFFFFFFFFFFFFFFFF AND DUP2 MSTORE PUSH1 0x20 ADD SWAP1 DUP2 MSTORE PUSH1 0x20 ADD PUSH0 KECCAK256 DUP1 SLOAD DUP1 PUSH1 0x20 MUL PUSH1 0x20 ADD PUSH1 0x40 MLOAD SWAP1 DUP2 ADD PUSH1 0x40 MSTORE DUP1 SWAP3 SWAP2 SWAP1 DUP2 DUP2 MSTORE PUSH1 0x20 ADD DUP3 DUP1 SLOAD DUP1 ISZERO PUSH2 0x877 JUMPI PUSH1 0x20 MUL DUP3 ADD SWAP2 SWAP1 PUSH0 MSTORE PUSH1 0x20 PUSH0 KECCAK256 SWAP1 JUMPDEST DUP2 SLOAD DUP2 MSTORE PUSH1 0x20 ADD SWAP1 PUSH1 0x1 ADD SWAP1 DUP1 DUP4 GT PUSH2 0x863 JUMPI JUMPDEST POP POP POP POP POP SWAP1 POP PUSH0 PUSH0 SWAP1 POP JUMPDEST DUP2 MLOAD DUP2 LT ISZERO PUSH2 0xAE9 JUMPI PUSH0 DUP3 DUP3 DUP2 MLOAD DUP2 LT PUSH2 0x8A0 JUMPI PUSH2 0x89F PUSH2 0x20AD JUMP JUMPDEST JUMPDEST PUSH1 0x20 MUL PUSH1 0x20 ADD ADD MLOAD SWAP1 POP PUSH0 PUSH1 0x1 PUSH0 DUP4 DUP2 MSTORE PUSH1 0x20 ADD SWAP1 DUP2 MSTORE PUSH1 0x20 ADD PUSH0 KECCAK256 PUSH1 0x40 MLOAD DUP1 PUSH2 0x120 ADD PUSH1 0x40 MSTORE SWAP1 DUP2 PUSH0 DUP3 ADD SLOAD DUP2 MSTORE PUSH1 0x20 ADD PUSH1 0x1 DUP3 ADD PUSH1 0x40 MLOAD DUP1 PUSH1 0x60 ADD PUSH1 0x40 MSTORE SWAP1 DUP2 PUSH0 DUP3 ADD PUSH0 SWAP1 SLOAD SWAP1 PUSH2 0x100 EXP SWAP1 DIV PUSH20 0xFFFFFFFFFFFFFFFFFFFFFFFFFFFFFFFFFFFFFFFF AND PUSH20 0xFFFFFFFFFFFFFFFFFFFFFFFFFFFFFFFFFFFFFFFF AND PUSH20 0xFFFFFFFFFFFFFFFFFFFFFFFFFFFFFFFFFFFFFFFF AND DUP2 MSTORE PUSH1 0x20 ADD PUSH0 DUP3 ADD PUSH1 0x14 SWAP1 SLOAD SWAP1 PUSH2 0x100 EXP SWAP1 DIV PUSH1 0xFF AND PUSH1 0xFF AND PUSH1 0xFF AND DUP2 MSTORE PUSH1 0x20 ADD PUSH1 0x1 DUP3 ADD DUP1 SLOAD DUP1 PUSH1 0x20 MUL PUSH1 0x20 ADD PUSH1 0x40 MLOAD SWAP1 DUP2 ADD PUSH1 0x40 MSTORE DUP1 SWAP3 SWAP2 SWAP1 DUP2 DUP2 MSTORE PUSH1 0x20 ADD DUP3 DUP1 SLOAD DUP1 ISZERO PUSH2 0x99E JUMPI PUSH1 0x20 MUL DUP3 ADD SWAP2 SWAP1 PUSH0 MSTORE PUSH1 0x20 PUSH0 KECCAK256 SWAP1 JUMPDEST DUP2 SLOAD DUP2 MSTORE PUSH1 0x20 ADD SWAP1 PUSH1 0x1 ADD SWAP1 DUP1 DUP4 GT PUSH2 0x98A JUMPI JUMPDEST POP POP POP POP POP DUP2 MSTORE POP POP DUP2 MSTORE PUSH1 0x20 ADD PUSH1 0x3 DUP3 ADD PUSH0 SWAP1 SLOAD SWAP1 PUSH2 0x100 EXP SWAP1 DIV PUSH20 0xFFFFFFFFFFFFFFFFFFFFFFFFFFFFFFFFFFFFFFFF AND PUSH20 0xFFFFFFFFFFFFFFFFFFFFFFFFFFFFFFFFFFFFFFFF AND PUSH20 0xFFFFFFFFFFFFFFFFFFFFFFFFFFFFFFFFFFFFFFFF AND DUP2 MSTORE PUSH1 0x20 ADD PUSH1 0x4 DUP3 ADD SLOAD DUP2 MSTORE PUSH1 0x20 ADD PUSH1 0x5 DUP3 ADD SLOAD DUP2 MSTORE PUSH1 0x20 ADD PUSH1 0x6 DUP3 ADD SLOAD DUP2 MSTORE PUSH1 0x20 ADD PUSH1 0x7 DUP3 ADD SLOAD DUP2 MSTORE PUSH1 0x20 ADD PUSH1 0x8 DUP3 ADD SLOAD DUP2 MSTORE PUSH1 0x20 ADD PUSH1 0x9 DUP3 ADD PUSH0 SWAP1 SLOAD SWAP1 PUSH2 0x100 EXP SWAP1 DIV PUSH1 0xFF AND PUSH1 0x4 DUP2 GT ISZERO PUSH2 0xA56 JUMPI PUSH2 0xA55 PUSH2 0x19A0 JUMP JUMPDEST JUMPDEST PUSH1 0x4 DUP2 GT ISZERO PUSH2 0xA68 JUMPI PUSH2 0xA67 PUSH2 0x19A0 JUMP JUMPDEST JUMPDEST DUP2 MSTORE POP POP SWAP1 POP PUSH1 0x2 PUSH1 0x4 DUP2 GT ISZERO PUSH2 0xA82 JUMPI PUSH2 0xA81 PUSH2 0x19A0 JUMP JUMPDEST JUMPDEST DUP2 PUSH2 0x100 ADD MLOAD PUSH1 0x4 DUP2 GT ISZERO PUSH2 0xA9A JUMPI PUSH2 0xA99 PUSH2 0x19A0 JUMP JUMPDEST JUMPDEST EQ PUSH2 0xADA JUMPI PUSH1 0x40 MLOAD PUSH32 0x8C379A000000000000000000000000000000000000000000000000000000000 DUP2 MSTORE PUSH1 0x4 ADD PUSH2 0xAD1 SWAP1 PUSH2 0x228C JUMP JUMPDEST PUSH1 0x40 MLOAD DUP1 SWAP2 SUB SWAP1 REVERT JUMPDEST POP POP DUP1 DUP1 PUSH1 0x1 ADD SWAP2 POP POP PUSH2 0x883 JUMP JUMPDEST POP PUSH0 PUSH0 DUP2 SLOAD DUP1 SWAP3 SWAP2 SWAP1 PUSH2 0xAFB SWAP1 PUSH2 0x22AA JUMP JUMPDEST SWAP2 SWAP1 POP SSTORE POP PUSH0 PUSH1 0x3 PUSH0 CALLER PUSH20 0xFFFFFFFFFFFFFFFFFFFFFFFFFFFFFFFFFFFFFFFF AND PUSH20 0xFFFFFFFFFFFFFFFFFFFFFFFFFFFFFFFFFFFFFFFF AND DUP2 MSTORE PUSH1 0x20 ADD SWAP1 DUP2 MSTORE PUSH1 0x20 ADD PUSH0 KECCAK256 DUP1 SLOAD SWAP1 POP SWAP1 POP PUSH0 PUSH0 DUP3 EQ PUSH2 0xB9E JUMPI PUSH1 0x2 PUSH0 CALLER PUSH20 0xFFFFFFFFFFFFFFFFFFFFFFFFFFFFFFFFFFFFFFFF AND PUSH20 0xFFFFFFFFFFFFFFFFFFFFFFFFFFFFFFFFFFFFFFFF AND DUP2 MSTORE PUSH1 0x20 ADD SWAP1 DUP2 MSTORE PUSH1 0x20 ADD PUSH0 KECCAK256 PUSH0 ADD PUSH1 0x14 SWAP1 SLOAD SWAP1 PUSH2 0x100 EXP SWAP1 DIV PUSH1 0xFF AND PUSH2 0xBA1 JUMP JUMPDEST PUSH1 0x1 JUMPDEST SWAP1 POP PUSH0 PUSH0 PUSH2 0xBAE DUP4 PUSH2 0x13DD JUMP JUMPDEST SWAP2 POP SWAP2 POP PUSH0 PUSH1 0x40 MLOAD DUP1 PUSH2 0x120 ADD PUSH1 0x40 MSTORE DUP1 PUSH0 SLOAD DUP2 MSTORE PUSH1 0x20 ADD PUSH1 0x40 MLOAD DUP1 PUSH1 0x60 ADD PUSH1 0x40 MSTORE DUP1 CALLER PUSH20 0xFFFFFFFFFFFFFFFFFFFFFFFFFFFFFFFFFFFFFFFF AND DUP2 MSTORE PUSH1 0x20 ADD DUP8 PUSH1 0xFF AND DUP2 MSTORE PUSH1 0x20 ADD PUSH1 0x3 PUSH0 CALLER PUSH20 0xFFFFFFFFFFFFFFFFFFFFFFFFFFFFFFFFFFFFFFFF AND PUSH20 0xFFFFFFFFFFFFFFFFFFFFFFFFFFFFFFFFFFFFFFFF AND DUP2 MSTORE PUSH1 0x20 ADD SWAP1 DUP2 MSTORE PUSH1 0x20 ADD PUSH0 KECCAK256 DUP1 SLOAD DUP1 PUSH1 0x20 MUL PUSH1 0x20 ADD PUSH1 0x40 MLOAD SWAP1 DUP2 ADD PUSH1 0x40 MSTORE DUP1 SWAP3 SWAP2 SWAP1 DUP2 DUP2 MSTORE PUSH1 0x20 ADD DUP3 DUP1 SLOAD DUP1 ISZERO PUSH2 0xC7B JUMPI PUSH1 0x20 MUL DUP3 ADD SWAP2 SWAP1 PUSH0 MSTORE PUSH1 0x20 PUSH0 KECCAK256 SWAP1 JUMPDEST DUP2 SLOAD DUP2 MSTORE PUSH1 0x20 ADD SWAP1 PUSH1 0x1 ADD SWAP1 DUP1 DUP4 GT PUSH2 0xC67 JUMPI JUMPDEST POP POP POP POP POP DUP2 MSTORE POP DUP2 MSTORE PUSH1 0x20 ADD PUSH0 PUSH20 0xFFFFFFFFFFFFFFFFFFFFFFFFFFFFFFFFFFFFFFFF AND DUP2 MSTORE PUSH1 0x20 ADD DUP10 DUP2 MSTORE PUSH1 0x20 ADD DUP5 DUP2 MSTORE PUSH1 0x20 ADD DUP4 DUP2 MSTORE PUSH1 0x20 ADD PUSH0 DUP2 MSTORE PUSH1 0x20 ADD PUSH0 DUP2 MSTORE PUSH1 0x20 ADD PUSH1 0x1 PUSH1 0x4 DUP2 GT ISZERO PUSH2 0xCD6 JUMPI PUSH2 0xCD5 PUSH2 0x19A0 JUMP JUMPDEST JUMPDEST DUP2 MSTORE POP SWAP1 POP PUSH2 0xCE4 DUP2 PUSH2 0x14B6 JUMP JUMPDEST DUP3 DUP9 CALLER PUSH20 0xFFFFFFFFFFFFFFFFFFFFFFFFFFFFFFFFFFFFFFFF AND PUSH32 0x4FB50F9F9196EFCF6C3A31384FF5137CBE3B5DA82F608087126CAAAFFBCAFDB PUSH0 SLOAD PUSH1 0x1 PUSH1 0x40 MLOAD PUSH2 0xD30 SWAP3 SWAP2 SWAP1 PUSH2 0x22F1 JUMP JUMPDEST PUSH1 0x40 MLOAD DUP1 SWAP2 SUB SWAP1 LOG4 POP POP POP POP POP POP POP POP JUMP JUMPDEST PUSH1 0x2 PUSH1 0x20 MSTORE DUP1 PUSH0 MSTORE PUSH1 0x40 PUSH0 KECCAK256 PUSH0 SWAP2 POP SWAP1 POP DUP1 PUSH0 ADD PUSH0 SWAP1 SLOAD SWAP1 PUSH2 0x100 EXP SWAP1 DIV PUSH20 0xFFFFFFFFFFFFFFFFFFFFFFFFFFFFFFFFFFFFFFFF AND SWAP1 DUP1 PUSH0 ADD PUSH1 0x14 SWAP1 SLOAD SWAP1 PUSH2 0x100 EXP SWAP1 DIV PUSH1 0xFF AND SWAP1 POP DUP3 JUMP JUMPDEST PUSH0 PUSH1 0x1 PUSH0 DUP4 DUP2 MSTORE PUSH1 0x20 ADD SWAP1 DUP2 MSTORE PUSH1 0x20 ADD PUSH0 KECCAK256 SWAP1 POP PUSH0 DUP2 PUSH1 0x1 ADD PUSH0 ADD PUSH0 SWAP1 SLOAD SWAP1 PUSH2 0x100 EXP SWAP1 DIV PUSH20 0xFFFFFFFFFFFFFFFFFFFFFFFFFFFFFFFFFFFFFFFF AND SWAP1 POP PUSH0 PUSH3 0x15180 DUP4 PUSH1 0x7 ADD SLOAD PUSH2 0xDDE SWAP2 SWAP1 PUSH2 0x1FE8 JUMP JUMPDEST SWAP1 POP CALLER PUSH20 0xFFFFFFFFFFFFFFFFFFFFFFFFFFFFFFFFFFFFFFFF AND DUP3 PUSH20 0xFFFFFFFFFFFFFFFFFFFFFFFFFFFFFFFFFFFFFFFF AND EQ PUSH2 0xE4E JUMPI PUSH1 0x40 MLOAD PUSH32 0x8C379A000000000000000000000000000000000000000000000000000000000 DUP2 MSTORE PUSH1 0x4 ADD PUSH2 0xE45 SWAP1 PUSH2 0x2388 JUMP JUMPDEST PUSH1 0x40 MLOAD DUP1 SWAP2 SUB SWAP1 REVERT JUMPDEST PUSH1 0x1 PUSH1 0x4 DUP2 GT ISZERO PUSH2 0xE62 JUMPI PUSH2 0xE61 PUSH2 0x19A0 JUMP JUMPDEST JUMPDEST DUP4 PUSH1 0x9 ADD PUSH0 SWAP1 SLOAD SWAP1 PUSH2 0x100 EXP SWAP1 DIV PUSH1 0xFF AND PUSH1 0x4 DUP2 GT ISZERO PUSH2 0xE85 JUMPI PUSH2 0xE84 PUSH2 0x19A0 JUMP JUMPDEST JUMPDEST SUB PUSH2 0xE98 JUMPI PUSH2 0xE93 DUP4 PUSH2 0x1678 JUMP JUMPDEST PUSH2 0xF1F JUMP JUMPDEST PUSH1 0x2 PUSH1 0x4 DUP2 GT ISZERO PUSH2 0xEAC JUMPI PUSH2 0xEAB PUSH2 0x19A0 JUMP JUMPDEST JUMPDEST DUP4 PUSH1 0x9 ADD PUSH0 SWAP1 SLOAD SWAP1 PUSH2 0x100 EXP SWAP1 DIV PUSH1 0xFF AND PUSH1 0x4 DUP2 GT ISZERO PUSH2 0xECF JUMPI PUSH2 0xECE PUSH2 0x19A0 JUMP JUMPDEST JUMPDEST EQ DUP1 ISZERO PUSH2 0xEDF JUMPI POP DUP1 DUP4 PUSH1 0x7 ADD SLOAD LT JUMPDEST PUSH2 0xF1E JUMPI PUSH1 0x40 MLOAD PUSH32 0x8C379A000000000000000000000000000000000000000000000000000000000 DUP2 MSTORE PUSH1 0x4 ADD PUSH2 0xF15 SWAP1 PUSH2 0x23F0 JUMP JUMPDEST PUSH1 0x40 MLOAD DUP1 SWAP2 SUB SWAP1 REVERT JUMPDEST JUMPDEST POP POP POP POP JUMP JUMPDEST PUSH1 0x1 PUSH1 0x20 MSTORE DUP1 PUSH0 MSTORE PUSH1 0x40 PUSH0 KECCAK256 PUSH0 SWAP2 POP SWAP1 POP DUP1 PUSH0 ADD SLOAD SWAP1 DUP1 PUSH1 0x1 ADD PUSH1 0x40 MLOAD DUP1 PUSH1 0x60 ADD PUSH1 0x40 MSTORE SWAP1 DUP2 PUSH0 DUP3 ADD PUSH0 SWAP1 SLOAD SWAP1 PUSH2 0x100 EXP SWAP1 DIV PUSH20 0xFFFFFFFFFFFFFFFFFFFFFFFFFFFFFFFFFFFFFFFF AND PUSH20 0xFFFFFFFFFFFFFFFFFFFFFFFFFFFFFFFFFFFFFFFF AND PUSH20 0xFFFFFFFFFFFFFFFFFFFFFFFFFFFFFFFFFFFFFFFF AND DUP2 MSTORE PUSH1 0x20 ADD PUSH0 DUP3 ADD PUSH1 0x14 SWAP1 SLOAD SWAP1 PUSH2 0x100 EXP SWAP1 DIV PUSH1 0xFF AND PUSH1 0xFF AND PUSH1 0xFF AND DUP2 MSTORE PUSH1 0x20 ADD PUSH1 0x1 DUP3 ADD DUP1 SLOAD DUP1 PUSH1 0x20 MUL PUSH1 0x20 ADD PUSH1 0x40 MLOAD SWAP1 DUP2 ADD PUSH1 0x40 MSTORE DUP1 SWAP3 SWAP2 SWAP1 DUP2 DUP2 MSTORE PUSH1 0x20 ADD DUP3 DUP1 SLOAD DUP1 ISZERO PUSH2 0x1007 JUMPI PUSH1 0x20 MUL DUP3 ADD SWAP2 SWAP1 PUSH0 MSTORE PUSH1 0x20 PUSH0 KECCAK256 SWAP1 JUMPDEST DUP2 SLOAD DUP2 MSTORE PUSH1 0x20 ADD SWAP1 PUSH1 0x1 ADD SWAP1 DUP1 DUP4 GT PUSH2 0xFF3 JUMPI JUMPDEST POP POP POP POP POP DUP2 MSTORE POP POP SWAP1 DUP1 PUSH1 0x3 ADD PUSH0 SWAP1 SLOAD SWAP1 PUSH2 0x100 EXP SWAP1 DIV PUSH20 0xFFFFFFFFFFFFFFFFFFFFFFFFFFFFFFFFFFFFFFFF AND SWAP1 DUP1 PUSH1 0x4 ADD SLOAD SWAP1 DUP1 PUSH1 0x5 ADD SLOAD SWAP1 DUP1 PUSH1 0x6 ADD SLOAD SWAP1 DUP1 PUSH1 0x7 ADD SLOAD SWAP1 DUP1 PUSH1 0x8 ADD SLOAD SWAP1 DUP1 PUSH1 0x9 ADD PUSH0 SWAP1 SLOAD SWAP1 PUSH2 0x100 EXP SWAP1 DIV PUSH1 0xFF AND SWAP1 POP DUP10 JUMP JUMPDEST PUSH1 0x3 PUSH1 0x20 MSTORE DUP2 PUSH0 MSTORE PUSH1 0x40 PUSH0 KECCAK256 DUP2 DUP2 SLOAD DUP2 LT PUSH2 0x1083 JUMPI PUSH0 DUP1 REVERT JUMPDEST SWAP1 PUSH0 MSTORE PUSH1 0x20 PUSH0 KECCAK256 ADD PUSH0 SWAP2 POP SWAP2 POP POP SLOAD DUP2 JUMP JUMPDEST PUSH1 0x60 PUSH0 PUSH0 PUSH0 SWAP1 POP PUSH0 PUSH1 0x1 SWAP1 POP JUMPDEST PUSH0 SLOAD DUP2 GT PUSH2 0x1118 JUMPI PUSH1 0x1 PUSH1 0x4 DUP2 GT ISZERO PUSH2 0x10BE JUMPI PUSH2 0x10BD PUSH2 0x19A0 JUMP JUMPDEST JUMPDEST PUSH1 0x1 PUSH0 DUP4 DUP2 MSTORE PUSH1 0x20 ADD SWAP1 DUP2 MSTORE PUSH1 0x20 ADD PUSH0 KECCAK256 PUSH1 0x9 ADD PUSH0 SWAP1 SLOAD SWAP1 PUSH2 0x100 EXP SWAP1 DIV PUSH1 0xFF AND PUSH1 0x4 DUP2 GT ISZERO PUSH2 0x10F1 JUMPI PUSH2 0x10F0 PUSH2 0x19A0 JUMP JUMPDEST JUMPDEST SUB PUSH2 0x1105 JUMPI DUP2 DUP1 PUSH2 0x1101 SWAP1 PUSH2 0x22AA JUMP JUMPDEST SWAP3 POP POP JUMPDEST DUP1 DUP1 PUSH2 0x1110 SWAP1 PUSH2 0x22AA JUMP JUMPDEST SWAP2 POP POP PUSH2 0x10A2 JUMP JUMPDEST POP PUSH0 DUP2 PUSH8 0xFFFFFFFFFFFFFFFF DUP2 GT ISZERO PUSH2 0x1134 JUMPI PUSH2 0x1133 PUSH2 0x240E JUMP JUMPDEST JUMPDEST PUSH1 0x40 MLOAD SWAP1 DUP1 DUP3 MSTORE DUP1 PUSH1 0x20 MUL PUSH1 0x20 ADD DUP3 ADD PUSH1 0x40 MSTORE DUP1 ISZERO PUSH2 0x116D JUMPI DUP2 PUSH1 0x20 ADD JUMPDEST PUSH2 0x115A PUSH2 0x16A7 JUMP JUMPDEST DUP2 MSTORE PUSH1 0x20 ADD SWAP1 PUSH1 0x1 SWAP1 SUB SWAP1 DUP2 PUSH2 0x1152 JUMPI SWAP1 POP JUMPDEST POP SWAP1 POP PUSH0 PUSH0 SWAP1 POP PUSH0 PUSH1 0x1 SWAP1 POP JUMPDEST PUSH0 SLOAD DUP2 GT PUSH2 0x13CF JUMPI PUSH1 0x1 PUSH1 0x4 DUP2 GT ISZERO PUSH2 0x1196 JUMPI PUSH2 0x1195 PUSH2 0x19A0 JUMP JUMPDEST JUMPDEST PUSH1 0x1 PUSH0 DUP4 DUP2 MSTORE PUSH1 0x20 ADD SWAP1 DUP2 MSTORE PUSH1 0x20 ADD PUSH0 KECCAK256 PUSH1 0x9 ADD PUSH0 SWAP1 SLOAD SWAP1 PUSH2 0x100 EXP SWAP1 DIV PUSH1 0xFF AND PUSH1 0x4 DUP2 GT ISZERO PUSH2 0x11C9 JUMPI PUSH2 0x11C8 PUSH2 0x19A0 JUMP JUMPDEST JUMPDEST SUB PUSH2 0x13BC JUMPI PUSH1 0x1 PUSH0 DUP3 DUP2 MSTORE PUSH1 0x20 ADD SWAP1 DUP2 MSTORE PUSH1 0x20 ADD PUSH0 KECCAK256 PUSH1 0x40 MLOAD DUP1 PUSH2 0x120 ADD PUSH1 0x40 MSTORE SWAP1 DUP2 PUSH0 DUP3 ADD SLOAD DUP2 MSTORE PUSH1 0x20 ADD PUSH1 0x1 DUP3 ADD PUSH1 0x40 MLOAD DUP1 PUSH1 0x60 ADD PUSH1 0x40 MSTORE SWAP1 DUP2 PUSH0 DUP3 ADD PUSH0 SWAP1 SLOAD SWAP1 PUSH2 0x100 EXP SWAP1 DIV PUSH20 0xFFFFFFFFFFFFFFFFFFFFFFFFFFFFFFFFFFFFFFFF AND PUSH20 0xFFFFFFFFFFFFFFFFFFFFFFFFFFFFFFFFFFFFFFFF AND PUSH20 0xFFFFFFFFFFFFFFFFFFFFFFFFFFFFFFFFFFFFFFFF AND DUP2 MSTORE PUSH1 0x20 ADD PUSH0 DUP3 ADD PUSH1 0x14 SWAP1 SLOAD SWAP1 PUSH2 0x100 EXP SWAP1 DIV PUSH1 0xFF AND PUSH1 0xFF AND PUSH1 0xFF AND DUP2 MSTORE PUSH1 0x20 ADD PUSH1 0x1 DUP3 ADD DUP1 SLOAD DUP1 PUSH1 0x20 MUL PUSH1 0x20 ADD PUSH1 0x40 MLOAD SWAP1 DUP2 ADD PUSH1 0x40 MSTORE DUP1 SWAP3 SWAP2 SWAP1 DUP2 DUP2 MSTORE PUSH1 0x20 ADD DUP3 DUP1 SLOAD DUP1 ISZERO PUSH2 0x12C1 JUMPI PUSH1 0x20 MUL DUP3 ADD SWAP2 SWAP1 PUSH0 MSTORE PUSH1 0x20 PUSH0 KECCAK256 SWAP1 JUMPDEST DUP2 SLOAD DUP2 MSTORE PUSH1 0x20 ADD SWAP1 PUSH1 0x1 ADD SWAP1 DUP1 DUP4 GT PUSH2 0x12AD JUMPI JUMPDEST POP POP POP POP POP DUP2 MSTORE POP POP DUP2 MSTORE PUSH1 0x20 ADD PUSH1 0x3 DUP3 ADD PUSH0 SWAP1 SLOAD SWAP1 PUSH2 0x100 EXP SWAP1 DIV PUSH20 0xFFFFFFFFFFFFFFFFFFFFFFFFFFFFFFFFFFFFFFFF AND PUSH20 0xFFFFFFFFFFFFFFFFFFFFFFFFFFFFFFFFFFFFFFFF AND PUSH20 0xFFFFFFFFFFFFFFFFFFFFFFFFFFFFFFFFFFFFFFFF AND DUP2 MSTORE PUSH1 0x20 ADD PUSH1 0x4 DUP3 ADD SLOAD DUP2 MSTORE PUSH1 0x20 ADD PUSH1 0x5 DUP3 ADD SLOAD DUP2 MSTORE PUSH1 0x20 ADD PUSH1 0x6 DUP3 ADD SLOAD DUP2 MSTORE PUSH1 0x20 ADD PUSH1 0x7 DUP3 ADD SLOAD DUP2 MSTORE PUSH1 0x20 ADD PUSH1 0x8 DUP3 ADD SLOAD DUP2 MSTORE PUSH1 0x20 ADD PUSH1 0x9 DUP3 ADD PUSH0 SWAP1 SLOAD SWAP1 PUSH2 0x100 EXP SWAP1 DIV PUSH1 0xFF AND PUSH1 0x4 DUP2 GT ISZERO PUSH2 0x1379 JUMPI PUSH2 0x1378 PUSH2 0x19A0 JUMP JUMPDEST JUMPDEST PUSH1 0x4 DUP2 GT ISZERO PUSH2 0x138B JUMPI PUSH2 0x138A PUSH2 0x19A0 JUMP JUMPDEST JUMPDEST DUP2 MSTORE POP POP DUP4 DUP4 DUP2 MLOAD DUP2 LT PUSH2 0x13A2 JUMPI PUSH2 0x13A1 PUSH2 0x20AD JUMP JUMPDEST JUMPDEST PUSH1 0x20 MUL PUSH1 0x20 ADD ADD DUP2 SWAP1 MSTORE POP DUP2 DUP1 PUSH2 0x13B8 SWAP1 PUSH2 0x22AA JUMP JUMPDEST SWAP3 POP POP JUMPDEST DUP1 DUP1 PUSH2 0x13C7 SWAP1 PUSH2 0x22AA JUMP JUMPDEST SWAP2 POP POP PUSH2 0x117A JUMP JUMPDEST POP DUP2 DUP4 SWAP5 POP SWAP5 POP POP POP POP SWAP1 SWAP2 JUMP JUMPDEST PUSH0 PUSH0 PUSH1 0x4 DUP4 PUSH1 0xFF AND GT ISZERO PUSH2 0x1426 JUMPI PUSH1 0x40 MLOAD PUSH32 0x8C379A000000000000000000000000000000000000000000000000000000000 DUP2 MSTORE PUSH1 0x4 ADD PUSH2 0x141D SWAP1 PUSH2 0x2485 JUMP JUMPDEST PUSH1 0x40 MLOAD DUP1 SWAP2 SUB SWAP1 REVERT JUMPDEST PUSH0 PUSH0 PUSH0 DUP6 PUSH1 0xFF AND SUB PUSH2 0x1441 JUMPI PUSH2 0x7D0 SWAP2 POP PUSH2 0xBB8 SWAP1 POP PUSH2 0x14A9 JUMP JUMPDEST PUSH1 0x1 DUP6 PUSH1 0xFF AND SUB PUSH2 0x145B JUMPI PUSH2 0x4B0 SWAP2 POP PUSH2 0x7D0 SWAP1 POP PUSH2 0x14A8 JUMP JUMPDEST PUSH1 0x2 DUP6 PUSH1 0xFF AND SUB PUSH2 0x1475 JUMPI PUSH2 0x3E8 SWAP2 POP PUSH2 0x5DC SWAP1 POP PUSH2 0x14A7 JUMP JUMPDEST PUSH1 0x3 DUP6 PUSH1 0xFF AND SUB PUSH2 0x148F JUMPI PUSH2 0x320 SWAP2 POP PUSH2 0x514 SWAP1 POP PUSH2 0x14A6 JUMP JUMPDEST PUSH1 0x4 DUP6 PUSH1 0xFF AND LT PUSH2 0x14A5 JUMPI PUSH2 0x258 SWAP2 POP PUSH2 0x384 SWAP1 POP JUMPDEST JUMPDEST JUMPDEST JUMPDEST JUMPDEST DUP2 DUP2 SWAP4 POP SWAP4 POP POP POP SWAP2 POP SWAP2 JUMP JUMPDEST DUP1 PUSH1 0x1 PUSH0 DUP4 PUSH0 ADD MLOAD DUP2 MSTORE PUSH1 0x20 ADD SWAP1 DUP2 MSTORE PUSH1 0x20 ADD PUSH0 KECCAK256 PUSH0 DUP3 ADD MLOAD DUP2 PUSH0 ADD SSTORE PUSH1 0x20 DUP3 ADD MLOAD DUP2 PUSH1 0x1 ADD PUSH0 DUP3 ADD MLOAD DUP2 PUSH0 ADD PUSH0 PUSH2 0x100 EXP DUP2 SLOAD DUP2 PUSH20 0xFFFFFFFFFFFFFFFFFFFFFFFFFFFFFFFFFFFFFFFF MUL NOT AND SWAP1 DUP4 PUSH20 0xFFFFFFFFFFFFFFFFFFFFFFFFFFFFFFFFFFFFFFFF AND MUL OR SWAP1 SSTORE POP PUSH1 0x20 DUP3 ADD MLOAD DUP2 PUSH0 ADD PUSH1 0x14 PUSH2 0x100 EXP DUP2 SLOAD DUP2 PUSH1 0xFF MUL NOT AND SWAP1 DUP4 PUSH1 0xFF AND MUL OR SWAP1 SSTORE POP PUSH1 0x40 DUP3 ADD MLOAD DUP2 PUSH1 0x1 ADD SWAP1 DUP1 MLOAD SWAP1 PUSH1 0x20 ADD SWAP1 PUSH2 0x155C SWAP3 SWAP2 SWAP1 PUSH2 0x1719 JUMP JUMPDEST POP POP POP PUSH1 0x40 DUP3 ADD MLOAD DUP2 PUSH1 0x3 ADD PUSH0 PUSH2 0x100 EXP DUP2 SLOAD DUP2 PUSH20 0xFFFFFFFFFFFFFFFFFFFFFFFFFFFFFFFFFFFFFFFF MUL NOT AND SWAP1 DUP4 PUSH20 0xFFFFFFFFFFFFFFFFFFFFFFFFFFFFFFFFFFFFFFFF AND MUL OR SWAP1 SSTORE POP PUSH1 0x60 DUP3 ADD MLOAD DUP2 PUSH1 0x4 ADD SSTORE PUSH1 0x80 DUP3 ADD MLOAD DUP2 PUSH1 0x5 ADD SSTORE PUSH1 0xA0 DUP3 ADD MLOAD DUP2 PUSH1 0x6 ADD SSTORE PUSH1 0xC0 DUP3 ADD MLOAD DUP2 PUSH1 0x7 ADD SSTORE PUSH1 0xE0 DUP3 ADD MLOAD DUP2 PUSH1 0x8 ADD SSTORE PUSH2 0x100 DUP3 ADD MLOAD DUP2 PUSH1 0x9 ADD PUSH0 PUSH2 0x100 EXP DUP2 SLOAD DUP2 PUSH1 0xFF MUL NOT AND SWAP1 DUP4 PUSH1 0x4 DUP2 GT ISZERO PUSH2 0x1602 JUMPI PUSH2 0x1601 PUSH2 0x19A0 JUMP JUMPDEST JUMPDEST MUL OR SWAP1 SSTORE POP SWAP1 POP POP PUSH1 0x3 PUSH0 DUP3 PUSH1 0x20 ADD MLOAD PUSH0 ADD MLOAD PUSH20 0xFFFFFFFFFFFFFFFFFFFFFFFFFFFFFFFFFFFFFFFF AND PUSH20 0xFFFFFFFFFFFFFFFFFFFFFFFFFFFFFFFFFFFFFFFF AND DUP2 MSTORE PUSH1 0x20 ADD SWAP1 DUP2 MSTORE PUSH1 0x20 ADD PUSH0 KECCAK256 DUP2 PUSH0 ADD MLOAD SWAP1 DUP1 PUSH1 0x1 DUP2 SLOAD ADD DUP1 DUP3 SSTORE DUP1 SWAP2 POP POP PUSH1 0x1 SWAP1 SUB SWAP1 PUSH0 MSTORE PUSH1 0x20 PUSH0 KECCAK256 ADD PUSH0 SWAP1 SWAP2 SWAP1 SWAP2 SWAP1 SWAP2 POP SSTORE POP JUMP JUMPDEST PUSH1 0x4 DUP2 PUSH1 0x9 ADD PUSH0 PUSH2 0x100 EXP DUP2 SLOAD DUP2 PUSH1 0xFF MUL NOT AND SWAP1 DUP4 PUSH1 0x4 DUP2 GT ISZERO PUSH2 0x169F JUMPI PUSH2 0x169E PUSH2 0x19A0 JUMP JUMPDEST JUMPDEST MUL OR SWAP1 SSTORE POP POP JUMP JUMPDEST PUSH1 0x40 MLOAD DUP1 PUSH2 0x120 ADD PUSH1 0x40 MSTORE DUP1 PUSH0 DUP2 MSTORE PUSH1 0x20 ADD PUSH2 0x16C1 PUSH2 0x1764 JUMP JUMPDEST DUP2 MSTORE PUSH1 0x20 ADD PUSH0 PUSH20 0xFFFFFFFFFFFFFFFFFFFFFFFFFFFFFFFFFFFFFFFF AND DUP2 MSTORE PUSH1 0x20 ADD PUSH0 DUP2 MSTORE PUSH1 0x20 ADD PUSH0 DUP2 MSTORE PUSH1 0x20 ADD PUSH0 DUP2 MSTORE PUSH1 0x20 ADD PUSH0 DUP2 MSTORE PUSH1 0x20 ADD PUSH0 DUP2 MSTORE PUSH1 0x20 ADD PUSH0 PUSH1 0x4 DUP2 GT ISZERO PUSH2 0x1713 JUMPI PUSH2 0x1712 PUSH2 0x19A0 JUMP JUMPDEST JUMPDEST DUP2 MSTORE POP SWAP1 JUMP JUMPDEST DUP3 DUP1 SLOAD DUP3 DUP3 SSTORE SWAP1 PUSH0 MSTORE PUSH1 0x20 PUSH0 KECCAK256 SWAP1 DUP2 ADD SWAP3 DUP3 ISZERO PUSH2 0x1753 JUMPI SWAP2 PUSH1 0x20 MUL DUP3 ADD JUMPDEST DUP3 DUP2 GT ISZERO PUSH2 0x1752 JUMPI DUP3 MLOAD DUP3 SSTORE SWAP2 PUSH1 0x20 ADD SWAP2 SWAP1 PUSH1 0x1 ADD SWAP1 PUSH2 0x1737 JUMP JUMPDEST JUMPDEST POP SWAP1 POP PUSH2 0x1760 SWAP2 SWAP1 PUSH2 0x179C JUMP JUMPDEST POP SWAP1 JUMP JUMPDEST PUSH1 0x40 MLOAD DUP1 PUSH1 0x60 ADD PUSH1 0x40 MSTORE DUP1 PUSH0 PUSH20 0xFFFFFFFFFFFFFFFFFFFFFFFFFFFFFFFFFFFFFFFF AND DUP2 MSTORE PUSH1 0x20 ADD PUSH0 PUSH1 0xFF AND DUP2 MSTORE PUSH1 0x20 ADD PUSH1 0x60 DUP2 MSTORE POP SWAP1 JUMP JUMPDEST JUMPDEST DUP1 DUP3 GT ISZERO PUSH2 0x17B3 JUMPI PUSH0 DUP2 PUSH0 SWAP1 SSTORE POP PUSH1 0x1 ADD PUSH2 0x179D JUMP JUMPDEST POP SWAP1 JUMP JUMPDEST PUSH0 PUSH0 REVERT JUMPDEST PUSH0 DUP2 SWAP1 POP SWAP2 SWAP1 POP JUMP JUMPDEST PUSH2 0x17CD DUP2 PUSH2 0x17BB JUMP JUMPDEST DUP2 EQ PUSH2 0x17D7 JUMPI PUSH0 PUSH0 REVERT JUMPDEST POP JUMP JUMPDEST PUSH0 DUP2 CALLDATALOAD SWAP1 POP PUSH2 0x17E8 DUP2 PUSH2 0x17C4 JUMP JUMPDEST SWAP3 SWAP2 POP POP JUMP JUMPDEST PUSH0 PUSH1 0x20 DUP3 DUP5 SUB SLT ISZERO PUSH2 0x1803 JUMPI PUSH2 0x1802 PUSH2 0x17B7 JUMP JUMPDEST JUMPDEST PUSH0 PUSH2 0x1810 DUP5 DUP3 DUP6 ADD PUSH2 0x17DA JUMP JUMPDEST SWAP2 POP POP SWAP3 SWAP2 POP POP JUMP JUMPDEST PUSH0 DUP2 MLOAD SWAP1 POP SWAP2 SWAP1 POP JUMP JUMPDEST PUSH0 DUP3 DUP3 MSTORE PUSH1 0x20 DUP3 ADD SWAP1 POP SWAP3 SWAP2 POP POP JUMP JUMPDEST PUSH0 DUP2 SWAP1 POP PUSH1 0x20 DUP3 ADD SWAP1 POP SWAP2 SWAP1 POP JUMP JUMPDEST PUSH2 0x184B DUP2 PUSH2 0x17BB JUMP JUMPDEST DUP3 MSTORE POP POP JUMP JUMPDEST PUSH0 PUSH20 0xFFFFFFFFFFFFFFFFFFFFFFFFFFFFFFFFFFFFFFFF DUP3 AND SWAP1 POP SWAP2 SWAP1 POP JUMP JUMPDEST PUSH0 PUSH2 0x187A DUP3 PUSH2 0x1851 JUMP JUMPDEST SWAP1 POP SWAP2 SWAP1 POP JUMP JUMPDEST PUSH2 0x188A DUP2 PUSH2 0x1870 JUMP JUMPDEST DUP3 MSTORE POP POP JUMP JUMPDEST PUSH0 PUSH1 0xFF DUP3 AND SWAP1 POP SWAP2 SWAP1 POP JUMP JUMPDEST PUSH2 0x18A5 DUP2 PUSH2 0x1890 JUMP JUMPDEST DUP3 MSTORE POP POP JUMP JUMPDEST PUSH0 DUP2 MLOAD SWAP1 POP SWAP2 SWAP1 POP JUMP JUMPDEST PUSH0 DUP3 DUP3 MSTORE PUSH1 0x20 DUP3 ADD SWAP1 POP SWAP3 SWAP2 POP POP JUMP JUMPDEST PUSH0 DUP2 SWAP1 POP PUSH1 0x20 DUP3 ADD SWAP1 POP SWAP2 SWAP1 POP JUMP JUMPDEST PUSH0 PUSH2 0x18DF DUP4 DUP4 PUSH2 0x1842 JUMP JUMPDEST PUSH1 0x20 DUP4 ADD SWAP1 POP SWAP3 SWAP2 POP POP JUMP JUMPDEST PUSH0 PUSH1 0x20 DUP3 ADD SWAP1 POP SWAP2 SWAP1 POP JUMP JUMPDEST PUSH0 PUSH2 0x1901 DUP3 PUSH2 0x18AB JUMP JUMPDEST PUSH2 0x190B DUP2 DUP6 PUSH2 0x18B5 JUMP JUMPDEST SWAP4 POP PUSH2 0x1916 DUP4 PUSH2 0x18C5 JUMP JUMPDEST DUP1 PUSH0 JUMPDEST DUP4 DUP2 LT ISZERO PUSH2 0x1946 JUMPI DUP2 MLOAD PUSH2 0x192D DUP9 DUP3 PUSH2 0x18D4 JUMP JUMPDEST SWAP8 POP PUSH2 0x1938 DUP4 PUSH2 0x18EB JUMP JUMPDEST SWAP3 POP POP PUSH1 0x1 DUP2 ADD SWAP1 POP PUSH2 0x1919 JUMP JUMPDEST POP DUP6 SWAP4 POP POP POP POP SWAP3 SWAP2 POP POP JUMP JUMPDEST PUSH0 PUSH1 0x60 DUP4 ADD PUSH0 DUP4 ADD MLOAD PUSH2 0x1968 PUSH0 DUP7 ADD DUP3 PUSH2 0x1881 JUMP JUMPDEST POP PUSH1 0x20 DUP4 ADD MLOAD PUSH2 0x197B PUSH1 0x20 DUP7 ADD DUP3 PUSH2 0x189C JUMP JUMPDEST POP PUSH1 0x40 DUP4 ADD MLOAD DUP5 DUP3 SUB PUSH1 0x40 DUP7 ADD MSTORE PUSH2 0x1993 DUP3 DUP3 PUSH2 0x18F7 JUMP JUMPDEST SWAP2 POP POP DUP1 SWAP2 POP POP SWAP3 SWAP2 POP POP JUMP JUMPDEST PUSH32 0x4E487B7100000000000000000000000000000000000000000000000000000000 PUSH0 MSTORE PUSH1 0x21 PUSH1 0x4 MSTORE PUSH1 0x24 PUSH0 REVERT JUMPDEST PUSH1 0x5 DUP2 LT PUSH2 0x19DE JUMPI PUSH2 0x19DD PUSH2 0x19A0 JUMP JUMPDEST JUMPDEST POP JUMP JUMPDEST PUSH0 DUP2 SWAP1 POP PUSH2 0x19EE DUP3 PUSH2 0x19CD JUMP JUMPDEST SWAP2 SWAP1 POP JUMP JUMPDEST PUSH0 PUSH2 0x19FD DUP3 PUSH2 0x19E1 JUMP JUMPDEST SWAP1 POP SWAP2 SWAP1 POP JUMP JUMPDEST PUSH2 0x1A0D DUP2 PUSH2 0x19F3 JUMP JUMPDEST DUP3 MSTORE POP POP JUMP JUMPDEST PUSH0 PUSH2 0x120 DUP4 ADD PUSH0 DUP4 ADD MLOAD PUSH2 0x1A29 PUSH0 DUP7 ADD DUP3 PUSH2 0x1842 JUMP JUMPDEST POP PUSH1 0x20 DUP4 ADD MLOAD DUP5 DUP3 SUB PUSH1 0x20 DUP7 ADD MSTORE PUSH2 0x1A41 DUP3 DUP3 PUSH2 0x1953 JUMP JUMPDEST SWAP2 POP POP PUSH1 0x40 DUP4 ADD MLOAD PUSH2 0x1A56 PUSH1 0x40 DUP7 ADD DUP3 PUSH2 0x1881 JUMP JUMPDEST POP PUSH1 0x60 DUP4 ADD MLOAD PUSH2 0x1A69 PUSH1 0x60 DUP7 ADD DUP3 PUSH2 0x1842 JUMP JUMPDEST POP PUSH1 0x80 DUP4 ADD MLOAD PUSH2 0x1A7C PUSH1 0x80 DUP7 ADD DUP3 PUSH2 0x1842 JUMP JUMPDEST POP PUSH1 0xA0 DUP4 ADD MLOAD PUSH2 0x1A8F PUSH1 0xA0 DUP7 ADD DUP3 PUSH2 0x1842 JUMP JUMPDEST POP PUSH1 0xC0 DUP4 ADD MLOAD PUSH2 0x1AA2 PUSH1 0xC0 DUP7 ADD DUP3 PUSH2 0x1842 JUMP JUMPDEST POP PUSH1 0xE0 DUP4 ADD MLOAD PUSH2 0x1AB5 PUSH1 0xE0 DUP7 ADD DUP3 PUSH2 0x1842 JUMP JUMPDEST POP PUSH2 0x100 DUP4 ADD MLOAD PUSH2 0x1ACA PUSH2 0x100 DUP7 ADD DUP3 PUSH2 0x1A04 JUMP JUMPDEST POP DUP1 SWAP2 POP POP SWAP3 SWAP2 POP POP JUMP JUMPDEST PUSH0 PUSH2 0x1AE0 DUP4 DUP4 PUSH2 0x1A13 JUMP JUMPDEST SWAP1 POP SWAP3 SWAP2 POP POP JUMP JUMPDEST PUSH0 PUSH1 0x20 DUP3 ADD SWAP1 POP SWAP2 SWAP1 POP JUMP JUMPDEST PUSH0 PUSH2 0x1AFE DUP3 PUSH2 0x1819 JUMP JUMPDEST PUSH2 0x1B08 DUP2 DUP6 PUSH2 0x1823 JUMP JUMPDEST SWAP4 POP DUP4 PUSH1 0x20 DUP3 MUL DUP6 ADD PUSH2 0x1B1A DUP6 PUSH2 0x1833 JUMP JUMPDEST DUP1 PUSH0 JUMPDEST DUP6 DUP2 LT ISZERO PUSH2 0x1B55 JUMPI DUP5 DUP5 SUB DUP10 MSTORE DUP2 MLOAD PUSH2 0x1B36 DUP6 DUP3 PUSH2 0x1AD5 JUMP JUMPDEST SWAP5 POP PUSH2 0x1B41 DUP4 PUSH2 0x1AE8 JUMP JUMPDEST SWAP3 POP PUSH1 0x20 DUP11 ADD SWAP10 POP POP PUSH1 0x1 DUP2 ADD SWAP1 POP PUSH2 0x1B1D JUMP JUMPDEST POP DUP3 SWAP8 POP DUP8 SWAP6 POP POP POP POP POP POP SWAP3 SWAP2 POP POP JUMP JUMPDEST PUSH0 PUSH1 0x20 DUP3 ADD SWAP1 POP DUP2 DUP2 SUB PUSH0 DUP4 ADD MSTORE PUSH2 0x1B7F DUP2 DUP5 PUSH2 0x1AF4 JUMP JUMPDEST SWAP1 POP SWAP3 SWAP2 POP POP JUMP JUMPDEST PUSH2 0x1B90 DUP2 PUSH2 0x1870 JUMP JUMPDEST DUP2 EQ PUSH2 0x1B9A JUMPI PUSH0 PUSH0 REVERT JUMPDEST POP JUMP JUMPDEST PUSH0 DUP2 CALLDATALOAD SWAP1 POP PUSH2 0x1BAB DUP2 PUSH2 0x1B87 JUMP JUMPDEST SWAP3 SWAP2 POP POP JUMP JUMPDEST PUSH0 PUSH1 0x20 DUP3 DUP5 SUB SLT ISZERO PUSH2 0x1BC6 JUMPI PUSH2 0x1BC5 PUSH2 0x17B7 JUMP JUMPDEST JUMPDEST PUSH0 PUSH2 0x1BD3 DUP5 DUP3 DUP6 ADD PUSH2 0x1B9D JUMP JUMPDEST SWAP2 POP POP SWAP3 SWAP2 POP POP JUMP JUMPDEST PUSH2 0x1BE5 DUP2 PUSH2 0x1870 JUMP JUMPDEST DUP3 MSTORE POP POP JUMP JUMPDEST PUSH2 0x1BF4 DUP2 PUSH2 0x1890 JUMP JUMPDEST DUP3 MSTORE POP POP JUMP JUMPDEST PUSH0 PUSH1 0x40 DUP3 ADD SWAP1 POP PUSH2 0x1C0D PUSH0 DUP4 ADD DUP6 PUSH2 0x1BDC JUMP JUMPDEST PUSH2 0x1C1A PUSH1 0x20 DUP4 ADD DUP5 PUSH2 0x1BEB JUMP JUMPDEST SWAP4 SWAP3 POP POP POP JUMP JUMPDEST PUSH2 0x1C2A DUP2 PUSH2 0x17BB JUMP JUMPDEST DUP3 MSTORE POP POP JUMP JUMPDEST PUSH0 PUSH1 0x60 DUP4 ADD PUSH0 DUP4 ADD MLOAD PUSH2 0x1C45 PUSH0 DUP7 ADD DUP3 PUSH2 0x1881 JUMP JUMPDEST POP PUSH1 0x20 DUP4 ADD MLOAD PUSH2 0x1C58 PUSH1 0x20 DUP7 ADD DUP3 PUSH2 0x189C JUMP JUMPDEST POP PUSH1 0x40 DUP4 ADD MLOAD DUP5 DUP3 SUB PUSH1 0x40 DUP7 ADD MSTORE PUSH2 0x1C70 DUP3 DUP3 PUSH2 0x18F7 JUMP JUMPDEST SWAP2 POP POP DUP1 SWAP2 POP POP SWAP3 SWAP2 POP POP JUMP JUMPDEST PUSH2 0x1C86 DUP2 PUSH2 0x19F3 JUMP JUMPDEST DUP3 MSTORE POP POP JUMP JUMPDEST PUSH0 PUSH2 0x120 DUP3 ADD SWAP1 POP PUSH2 0x1CA0 PUSH0 DUP4 ADD DUP13 PUSH2 0x1C21 JUMP JUMPDEST DUP2 DUP2 SUB PUSH1 0x20 DUP4 ADD MSTORE PUSH2 0x1CB2 DUP2 DUP12 PUSH2 0x1C30 JUMP JUMPDEST SWAP1 POP PUSH2 0x1CC1 PUSH1 0x40 DUP4 ADD DUP11 PUSH2 0x1BDC JUMP JUMPDEST PUSH2 0x1CCE PUSH1 0x60 DUP4 ADD DUP10 PUSH2 0x1C21 JUMP JUMPDEST PUSH2 0x1CDB PUSH1 0x80 DUP4 ADD DUP9 PUSH2 0x1C21 JUMP JUMPDEST PUSH2 0x1CE8 PUSH1 0xA0 DUP4 ADD DUP8 PUSH2 0x1C21 JUMP JUMPDEST PUSH2 0x1CF5 PUSH1 0xC0 DUP4 ADD DUP7 PUSH2 0x1C21 JUMP JUMPDEST PUSH2 0x1D02 PUSH1 0xE0 DUP4 ADD DUP6 PUSH2 0x1C21 JUMP JUMPDEST PUSH2 0x1D10 PUSH2 0x100 DUP4 ADD DUP5 PUSH2 0x1C7D JUMP JUMPDEST SWAP11 SWAP10 POP POP POP POP POP POP POP POP POP POP JUMP JUMPDEST PUSH0 PUSH0 PUSH1 0x40 DUP4 DUP6 SUB SLT ISZERO PUSH2 0x1D34 JUMPI PUSH2 0x1D33 PUSH2 0x17B7 JUMP JUMPDEST JUMPDEST PUSH0 PUSH2 0x1D41 DUP6 DUP3 DUP7 ADD PUSH2 0x1B9D JUMP JUMPDEST SWAP3 POP POP PUSH1 0x20 PUSH2 0x1D52 DUP6 DUP3 DUP7 ADD PUSH2 0x17DA JUMP JUMPDEST SWAP2 POP POP SWAP3 POP SWAP3 SWAP1 POP JUMP JUMPDEST PUSH0 PUSH1 0x20 DUP3 ADD SWAP1 POP PUSH2 0x1D6F PUSH0 DUP4 ADD DUP5 PUSH2 0x1C21 JUMP JUMPDEST SWAP3 SWAP2 POP POP JUMP JUMPDEST PUSH0 DUP3 DUP3 MSTORE PUSH1 0x20 DUP3 ADD SWAP1 POP SWAP3 SWAP2 POP POP JUMP JUMPDEST PUSH32 0x4C6F616E206E6F7420666F756E64000000000000000000000000000000000000 PUSH0 DUP3 ADD MSTORE POP JUMP JUMPDEST PUSH0 PUSH2 0x1DB9 PUSH1 0xE DUP4 PUSH2 0x1D75 JUMP JUMPDEST SWAP2 POP PUSH2 0x1DC4 DUP3 PUSH2 0x1D85 JUMP JUMPDEST PUSH1 0x20 DUP3 ADD SWAP1 POP SWAP2 SWAP1 POP JUMP JUMPDEST PUSH0 PUSH1 0x20 DUP3 ADD SWAP1 POP DUP2 DUP2 SUB PUSH0 DUP4 ADD MSTORE PUSH2 0x1DE6 DUP2 PUSH2 0x1DAD JUMP JUMPDEST SWAP1 POP SWAP2 SWAP1 POP JUMP JUMPDEST PUSH32 0x54686973206C6F616E20646F65736E2774206E6565642066756E64696E670000 PUSH0 DUP3 ADD MSTORE POP JUMP JUMPDEST PUSH0 PUSH2 0x1E21 PUSH1 0x1E DUP4 PUSH2 0x1D75 JUMP JUMPDEST SWAP2 POP PUSH2 0x1E2C DUP3 PUSH2 0x1DED JUMP JUMPDEST PUSH1 0x20 DUP3 ADD SWAP1 POP SWAP2 SWAP1 POP JUMP JUMPDEST PUSH0 PUSH1 0x20 DUP3 ADD SWAP1 POP DUP2 DUP2 SUB PUSH0 DUP4 ADD MSTORE PUSH2 0x1E4E DUP2 PUSH2 0x1E15 JUMP JUMPDEST SWAP1 POP SWAP2 SWAP1 POP JUMP JUMPDEST PUSH32 0x54686520616D6F756E742073656E7420646F6573206E6F74206D617463682074 PUSH0 DUP3 ADD MSTORE PUSH32 0x686520726571756573746564206C6F616E20616D6F756E740000000000000000 PUSH1 0x20 DUP3 ADD MSTORE POP JUMP JUMPDEST PUSH0 PUSH2 0x1EAF PUSH1 0x38 DUP4 PUSH2 0x1D75 JUMP JUMPDEST SWAP2 POP PUSH2 0x1EBA DUP3 PUSH2 0x1E55 JUMP JUMPDEST PUSH1 0x40 DUP3 ADD SWAP1 POP SWAP2 SWAP1 POP JUMP JUMPDEST PUSH0 PUSH1 0x20 DUP3 ADD SWAP1 POP DUP2 DUP2 SUB PUSH0 DUP4 ADD MSTORE PUSH2 0x1EDC DUP2 PUSH2 0x1EA3 JUMP JUMPDEST SWAP1 POP SWAP2 SWAP1 POP JUMP JUMPDEST PUSH32 0x4C656E64657220616E6420626F72726F7765722063616E6E6F74206265207468 PUSH0 DUP3 ADD MSTORE PUSH32 0x652073616D650000000000000000000000000000000000000000000000000000 PUSH1 0x20 DUP3 ADD MSTORE POP JUMP JUMPDEST PUSH0 PUSH2 0x1F3D PUSH1 0x26 DUP4 PUSH2 0x1D75 JUMP JUMPDEST SWAP2 POP PUSH2 0x1F48 DUP3 PUSH2 0x1EE3 JUMP JUMPDEST PUSH1 0x40 DUP3 ADD SWAP1 POP SWAP2 SWAP1 POP JUMP JUMPDEST PUSH0 PUSH1 0x20 DUP3 ADD SWAP1 POP DUP2 DUP2 SUB PUSH0 DUP4 ADD MSTORE PUSH2 0x1F6A DUP2 PUSH2 0x1F31 JUMP JUMPDEST SWAP1 POP SWAP2 SWAP1 POP JUMP JUMPDEST PUSH0 PUSH3 0xFFFFFF DUP3 AND SWAP1 POP SWAP2 SWAP1 POP JUMP JUMPDEST PUSH32 0x4E487B7100000000000000000000000000000000000000000000000000000000 PUSH0 MSTORE PUSH1 0x11 PUSH1 0x4 MSTORE PUSH1 0x24 PUSH0 REVERT JUMPDEST PUSH0 PUSH2 0x1FB6 DUP3 PUSH2 0x1F71 JUMP JUMPDEST SWAP2 POP PUSH2 0x1FC1 DUP4 PUSH2 0x1F71 JUMP JUMPDEST SWAP3 POP DUP3 DUP3 MUL PUSH2 0x1FCF DUP2 PUSH2 0x1F71 JUMP JUMPDEST SWAP2 POP DUP1 DUP3 EQ PUSH2 0x1FE1 JUMPI PUSH2 0x1FE0 PUSH2 0x1F7F JUMP JUMPDEST JUMPDEST POP SWAP3 SWAP2 POP POP JUMP JUMPDEST PUSH0 PUSH2 0x1FF2 DUP3 PUSH2 0x17BB JUMP JUMPDEST SWAP2 POP PUSH2 0x1FFD DUP4 PUSH2 0x17BB JUMP JUMPDEST SWAP3 POP DUP3 DUP3 ADD SWAP1 POP DUP1 DUP3 GT ISZERO PUSH2 0x2015 JUMPI PUSH2 0x2014 PUSH2 0x1F7F JUMP JUMPDEST JUMPDEST SWAP3 SWAP2 POP POP JUMP JUMPDEST PUSH0 PUSH1 0xC0 DUP3 ADD SWAP1 POP PUSH2 0x202E PUSH0 DUP4 ADD DUP10 PUSH2 0x1C21 JUMP JUMPDEST PUSH2 0x203B PUSH1 0x20 DUP4 ADD DUP9 PUSH2 0x1BDC JUMP JUMPDEST PUSH2 0x2048 PUSH1 0x40 DUP4 ADD DUP8 PUSH2 0x1BDC JUMP JUMPDEST PUSH2 0x2055 PUSH1 0x60 DUP4 ADD DUP7 PUSH2 0x1C21 JUMP JUMPDEST PUSH2 0x2062 PUSH1 0x80 DUP4 ADD DUP6 PUSH2 0x1C21 JUMP JUMPDEST PUSH2 0x206F PUSH1 0xA0 DUP4 ADD DUP5 PUSH2 0x1C21 JUMP JUMPDEST SWAP8 SWAP7 POP POP POP POP POP POP POP JUMP JUMPDEST PUSH0 PUSH2 0x2084 DUP3 PUSH2 0x17BB JUMP JUMPDEST SWAP2 POP PUSH2 0x208F DUP4 PUSH2 0x17BB JUMP JUMPDEST SWAP3 POP DUP3 DUP3 SUB SWAP1 POP DUP2 DUP2 GT ISZERO PUSH2 0x20A7 JUMPI PUSH2 0x20A6 PUSH2 0x1F7F JUMP JUMPDEST JUMPDEST SWAP3 SWAP2 POP POP JUMP JUMPDEST PUSH32 0x4E487B7100000000000000000000000000000000000000000000000000000000 PUSH0 MSTORE PUSH1 0x32 PUSH1 0x4 MSTORE PUSH1 0x24 PUSH0 REVERT JUMPDEST PUSH32 0x546865206C6F616E20616D6F756E74206D757374206265206772656174657220 PUSH0 DUP3 ADD MSTORE PUSH32 0x7468616E207A65726F0000000000000000000000000000000000000000000000 PUSH1 0x20 DUP3 ADD MSTORE POP JUMP JUMPDEST PUSH0 PUSH2 0x2134 PUSH1 0x29 DUP4 PUSH2 0x1D75 JUMP JUMPDEST SWAP2 POP PUSH2 0x213F DUP3 PUSH2 0x20DA JUMP JUMPDEST PUSH1 0x40 DUP3 ADD SWAP1 POP SWAP2 SWAP1 POP JUMP JUMPDEST PUSH0 PUSH1 0x20 DUP3 ADD SWAP1 POP DUP2 DUP2 SUB PUSH0 DUP4 ADD MSTORE PUSH2 0x2161 DUP2 PUSH2 0x2128 JUMP JUMPDEST SWAP1 POP SWAP2 SWAP1 POP JUMP JUMPDEST PUSH32 0x4C6F616E206C696D697420726561636865642C20706C65617365207761697420 PUSH0 DUP3 ADD MSTORE PUSH32 0x666F722061206C6F616E20746F20636C6F73652E000000000000000000000000 PUSH1 0x20 DUP3 ADD MSTORE POP JUMP JUMPDEST PUSH0 PUSH2 0x21C2 PUSH1 0x34 DUP4 PUSH2 0x1D75 JUMP JUMPDEST SWAP2 POP PUSH2 0x21CD DUP3 PUSH2 0x2168 JUMP JUMPDEST PUSH1 0x40 DUP3 ADD SWAP1 POP SWAP2 SWAP1 POP JUMP JUMPDEST PUSH0 PUSH1 0x20 DUP3 ADD SWAP1 POP DUP2 DUP2 SUB PUSH0 DUP4 ADD MSTORE PUSH2 0x21EF DUP2 PUSH2 0x21B6 JUMP JUMPDEST SWAP1 POP SWAP2 SWAP1 POP JUMP JUMPDEST PUSH32 0x596F752063616E6E6F7420726571756573742061206E6577206C6F616E206966 PUSH0 DUP3 ADD MSTORE PUSH32 0x20796F7520686176652070656E64696E672C206163746976652C206F72206F76 PUSH1 0x20 DUP3 ADD MSTORE PUSH32 0x6572647565206C6F616E732E0000000000000000000000000000000000000000 PUSH1 0x40 DUP3 ADD MSTORE POP JUMP JUMPDEST PUSH0 PUSH2 0x2276 PUSH1 0x4C DUP4 PUSH2 0x1D75 JUMP JUMPDEST SWAP2 POP PUSH2 0x2281 DUP3 PUSH2 0x21F6 JUMP JUMPDEST PUSH1 0x60 DUP3 ADD SWAP1 POP SWAP2 SWAP1 POP JUMP JUMPDEST PUSH0 PUSH1 0x20 DUP3 ADD SWAP1 POP DUP2 DUP2 SUB PUSH0 DUP4 ADD MSTORE PUSH2 0x22A3 DUP2 PUSH2 0x226A JUMP JUMPDEST SWAP1 POP SWAP2 SWAP1 POP JUMP JUMPDEST PUSH0 PUSH2 0x22B4 DUP3 PUSH2 0x17BB JUMP JUMPDEST SWAP2 POP PUSH32 0xFFFFFFFFFFFFFFFFFFFFFFFFFFFFFFFFFFFFFFFFFFFFFFFFFFFFFFFFFFFFFFFF DUP3 SUB PUSH2 0x22E6 JUMPI PUSH2 0x22E5 PUSH2 0x1F7F JUMP JUMPDEST JUMPDEST PUSH1 0x1 DUP3 ADD SWAP1 POP SWAP2 SWAP1 POP JUMP JUMPDEST PUSH0 PUSH1 0x40 DUP3 ADD SWAP1 POP PUSH2 0x2304 PUSH0 DUP4 ADD DUP6 PUSH2 0x1C21 JUMP JUMPDEST PUSH2 0x2311 PUSH1 0x20 DUP4 ADD DUP5 PUSH2 0x1C7D JUMP JUMPDEST SWAP4 SWAP3 POP POP POP JUMP JUMPDEST PUSH32 0x4F6E6C792074686520626F72726F7765722063616E2063616E63656C20746869 PUSH0 DUP3 ADD MSTORE PUSH32 0x73206C6F616E0000000000000000000000000000000000000000000000000000 PUSH1 0x20 DUP3 ADD MSTORE POP JUMP JUMPDEST PUSH0 PUSH2 0x2372 PUSH1 0x26 DUP4 PUSH2 0x1D75 JUMP JUMPDEST SWAP2 POP PUSH2 0x237D DUP3 PUSH2 0x2318 JUMP JUMPDEST PUSH1 0x40 DUP3 ADD SWAP1 POP SWAP2 SWAP1 POP JUMP JUMPDEST PUSH0 PUSH1 0x20 DUP3 ADD SWAP1 POP DUP2 DUP2 SUB PUSH0 DUP4 ADD MSTORE PUSH2 0x239F DUP2 PUSH2 0x2366 JUMP JUMPDEST SWAP1 POP SWAP2 SWAP1 POP JUMP JUMPDEST PUSH32 0x4E6F206C6F616E20746F2063616E63656C2E0000000000000000000000000000 PUSH0 DUP3 ADD MSTORE POP JUMP JUMPDEST PUSH0 PUSH2 0x23DA PUSH1 0x12 DUP4 PUSH2 0x1D75 JUMP JUMPDEST SWAP2 POP PUSH2 0x23E5 DUP3 PUSH2 0x23A6 JUMP JUMPDEST PUSH1 0x20 DUP3 ADD SWAP1 POP SWAP2 SWAP1 POP JUMP JUMPDEST PUSH0 PUSH1 0x20 DUP3 ADD SWAP1 POP DUP2 DUP2 SUB PUSH0 DUP4 ADD MSTORE PUSH2 0x2407 DUP2 PUSH2 0x23CE JUMP JUMPDEST SWAP1 POP SWAP2 SWAP1 POP JUMP JUMPDEST PUSH32 0x4E487B7100000000000000000000000000000000000000000000000000000000 PUSH0 MSTORE PUSH1 0x41 PUSH1 0x4 MSTORE PUSH1 0x24 PUSH0 REVERT JUMPDEST PUSH32 0x496E76616C6964206372656469742073636F7265000000000000000000000000 PUSH0 DUP3 ADD MSTORE POP JUMP JUMPDEST PUSH0 PUSH2 0x246F PUSH1 0x14 DUP4 PUSH2 0x1D75 JUMP JUMPDEST SWAP2 POP PUSH2 0x247A DUP3 PUSH2 0x243B JUMP JUMPDEST PUSH1 0x20 DUP3 ADD SWAP1 POP SWAP2 SWAP1 POP JUMP JUMPDEST PUSH0 PUSH1 0x20 DUP3 ADD SWAP1 POP DUP2 DUP2 SUB PUSH0 DUP4 ADD MSTORE PUSH2 0x249C DUP2 PUSH2 0x2463 JUMP JUMPDEST SWAP1 POP SWAP2 SWAP1 POP JUMP INVALID LOG2 PUSH5 0x6970667358 0x22 SLT KECCAK256 AND 0xC3 0xE9 0xE8 0xAA 0xBB PUSH9 0xE9B576A5E8F94D4265 SWAP16 0xBA XOR 0xE4 DUP12 0x4E SIGNEXTEND 0xB3 ADDRESS PUSH2 0xC4AD CALLDATASIZE 0xE2 0xE6 0xE PUSH5 0x736F6C6343 STOP ADDMOD SHR STOP CALLER "
				},
				"gasEstimates": {
					"creation": {
						"codeDepositCost": "1886600",
						"executionCost": "1988",
						"totalCost": "1888588"
					},
					"external": {
						"borrowerLoans(address,uint256)": "infinite",
						"cancelLoan(uint256)": "infinite",
						"getLoanFunds(uint256)": "infinite",
						"getPendingLoanDetailsByAmount()": "infinite",
						"getPendingLoanDetailsByInterestRate()": "infinite",
						"loanBorrowers(address)": "infinite",
						"loansById(uint256)": "infinite",
						"requestLoan(uint256)": "infinite"
					},
					"internal": {
						"addNewLoan(struct LoanManager.Loan memory)": "infinite",
						"cancelPendingLoan(struct LoanManager.Loan storage pointer)": "24303",
						"getPendingLoansArray()": "infinite",
						"loanInterestCalculator(uint8)": "infinite"
					}
				},
				"methodIdentifiers": {
					"borrowerLoans(address,uint256)": "e3ed1902",
					"cancelLoan(uint256)": "bdbfa3de",
					"getLoanFunds(uint256)": "15e303f3",
					"getPendingLoanDetailsByAmount()": "3ddce5a0",
					"getPendingLoanDetailsByInterestRate()": "1a26e0b7",
					"loanBorrowers(address)": "b96c5cdd",
					"loansById(uint256)": "e034f3dc",
					"requestLoan(uint256)": "8d5d3429"
				}
			},
			"storageLayout": {
				"storage": [
					{
						"astId": 38,
						"contract": "scritturatemporanea.sol:LoanManager",
						"label": "loanCounter",
						"offset": 0,
						"slot": "0",
						"type": "t_uint256"
					},
					{
						"astId": 46,
						"contract": "scritturatemporanea.sol:LoanManager",
						"label": "loansById",
						"offset": 0,
						"slot": "1",
						"type": "t_mapping(t_uint256,t_struct(Loan)36_storage)"
					},
					{
						"astId": 51,
						"contract": "scritturatemporanea.sol:LoanManager",
						"label": "loanBorrowers",
						"offset": 0,
						"slot": "2",
						"type": "t_mapping(t_address,t_struct(LoanBorrower)15_storage)"
					},
					{
						"astId": 56,
						"contract": "scritturatemporanea.sol:LoanManager",
						"label": "borrowerLoans",
						"offset": 0,
						"slot": "3",
						"type": "t_mapping(t_address,t_array(t_uint256)dyn_storage)"
					}
				],
				"types": {
					"t_address": {
						"encoding": "inplace",
						"label": "address",
						"numberOfBytes": "20"
					},
					"t_array(t_uint256)dyn_storage": {
						"base": "t_uint256",
						"encoding": "dynamic_array",
						"label": "uint256[]",
						"numberOfBytes": "32"
					},
					"t_enum(LoanStatus)7": {
						"encoding": "inplace",
						"label": "enum LoanManager.LoanStatus",
						"numberOfBytes": "1"
					},
					"t_mapping(t_address,t_array(t_uint256)dyn_storage)": {
						"encoding": "mapping",
						"key": "t_address",
						"label": "mapping(address => uint256[])",
						"numberOfBytes": "32",
						"value": "t_array(t_uint256)dyn_storage"
					},
					"t_mapping(t_address,t_struct(LoanBorrower)15_storage)": {
						"encoding": "mapping",
						"key": "t_address",
						"label": "mapping(address => struct LoanManager.LoanBorrower)",
						"numberOfBytes": "32",
						"value": "t_struct(LoanBorrower)15_storage"
					},
					"t_mapping(t_uint256,t_struct(Loan)36_storage)": {
						"encoding": "mapping",
						"key": "t_uint256",
						"label": "mapping(uint256 => struct LoanManager.Loan)",
						"numberOfBytes": "32",
						"value": "t_struct(Loan)36_storage"
					},
					"t_struct(Loan)36_storage": {
						"encoding": "inplace",
						"label": "struct LoanManager.Loan",
						"members": [
							{
								"astId": 17,
								"contract": "scritturatemporanea.sol:LoanManager",
								"label": "loanId",
								"offset": 0,
								"slot": "0",
								"type": "t_uint256"
							},
							{
								"astId": 20,
								"contract": "scritturatemporanea.sol:LoanManager",
								"label": "borrower",
								"offset": 0,
								"slot": "1",
								"type": "t_struct(LoanBorrower)15_storage"
							},
							{
								"astId": 22,
								"contract": "scritturatemporanea.sol:LoanManager",
								"label": "lender",
								"offset": 0,
								"slot": "3",
								"type": "t_address"
							},
							{
								"astId": 24,
								"contract": "scritturatemporanea.sol:LoanManager",
								"label": "amount",
								"offset": 0,
								"slot": "4",
								"type": "t_uint256"
							},
							{
								"astId": 26,
								"contract": "scritturatemporanea.sol:LoanManager",
								"label": "interestRate",
								"offset": 0,
								"slot": "5",
								"type": "t_uint256"
							},
							{
								"astId": 28,
								"contract": "scritturatemporanea.sol:LoanManager",
								"label": "penaltyRate",
								"offset": 0,
								"slot": "6",
								"type": "t_uint256"
							},
							{
								"astId": 30,
								"contract": "scritturatemporanea.sol:LoanManager",
								"label": "startDate",
								"offset": 0,
								"slot": "7",
								"type": "t_uint256"
							},
							{
								"astId": 32,
								"contract": "scritturatemporanea.sol:LoanManager",
								"label": "dueDate",
								"offset": 0,
								"slot": "8",
								"type": "t_uint256"
							},
							{
								"astId": 35,
								"contract": "scritturatemporanea.sol:LoanManager",
								"label": "status",
								"offset": 0,
								"slot": "9",
								"type": "t_enum(LoanStatus)7"
							}
						],
						"numberOfBytes": "320"
					},
					"t_struct(LoanBorrower)15_storage": {
						"encoding": "inplace",
						"label": "struct LoanManager.LoanBorrower",
						"members": [
							{
								"astId": 9,
								"contract": "scritturatemporanea.sol:LoanManager",
								"label": "borrowerAddress",
								"offset": 0,
								"slot": "0",
								"type": "t_address"
							},
							{
								"astId": 11,
								"contract": "scritturatemporanea.sol:LoanManager",
								"label": "creditScore",
								"offset": 20,
								"slot": "0",
								"type": "t_uint8"
							},
							{
								"astId": 14,
								"contract": "scritturatemporanea.sol:LoanManager",
								"label": "loanHistory",
								"offset": 0,
								"slot": "1",
								"type": "t_array(t_uint256)dyn_storage"
							}
						],
						"numberOfBytes": "64"
					},
					"t_uint256": {
						"encoding": "inplace",
						"label": "uint256",
						"numberOfBytes": "32"
					},
					"t_uint8": {
						"encoding": "inplace",
						"label": "uint8",
						"numberOfBytes": "1"
					}
				}
			},
			"userdoc": {
				"kind": "user",
				"methods": {},
				"version": 1
			}
		}
	}
}