{
	"LoanLibrary.sol": {
		"LoanLibraryContract": {
			"abi": [
				{
					"inputs": [
						{
							"internalType": "uint256",
							"name": "interestRate",
							"type": "uint256"
						},
						{
							"internalType": "uint256",
							"name": "loanAmount",
							"type": "uint256"
						}
					],
					"name": "calculateDailyInterest",
					"outputs": [
						{
							"internalType": "uint256",
							"name": "",
							"type": "uint256"
						}
					],
					"stateMutability": "pure",
					"type": "function"
				},
				{
					"inputs": [
						{
							"internalType": "uint256",
							"name": "penaltyRate",
							"type": "uint256"
						},
						{
							"internalType": "uint256",
							"name": "loanAmount",
							"type": "uint256"
						},
						{
							"internalType": "uint256",
							"name": "dailydelay",
							"type": "uint256"
						}
					],
					"name": "calculateDailyPenalty",
					"outputs": [
						{
							"internalType": "uint256",
							"name": "",
							"type": "uint256"
						}
					],
					"stateMutability": "pure",
					"type": "function"
				}
			],
			"devdoc": {
				"kind": "dev",
				"methods": {},
				"version": 1
			},
			"evm": {
				"assembly": "    /* \"LoanLibrary.sol\":563:1007  contract LoanLibraryContract {\r... */\n  mstore(0x40, 0x80)\n  callvalue\n  dup1\n  iszero\n  tag_1\n  jumpi\n  0x00\n  dup1\n  revert\ntag_1:\n  pop\n  dataSize(sub_0)\n  dup1\n  dataOffset(sub_0)\n  0x00\n  codecopy\n  0x00\n  return\nstop\n\nsub_0: assembly {\n        /* \"LoanLibrary.sol\":563:1007  contract LoanLibraryContract {\r... */\n      mstore(0x40, 0x80)\n      callvalue\n      dup1\n      iszero\n      tag_1\n      jumpi\n      0x00\n      dup1\n      revert\n    tag_1:\n      pop\n      jumpi(tag_2, lt(calldatasize, 0x04))\n      shr(0xe0, calldataload(0x00))\n      dup1\n      0x6e768366\n      eq\n      tag_3\n      jumpi\n      dup1\n      0xe6405144\n      eq\n      tag_4\n      jumpi\n    tag_2:\n      0x00\n      dup1\n      revert\n        /* \"LoanLibrary.sol\":793:1004  function calculateDailyPenalty(uint penaltyRate, uint loanAmount, uint dailydelay) public pure returns (uint) {\r... */\n    tag_3:\n      tag_5\n      0x04\n      dup1\n      calldatasize\n      sub\n      dup2\n      add\n      swap1\n      tag_6\n      swap2\n      swap1\n      tag_7\n      jump\t// in\n    tag_6:\n      tag_8\n      jump\t// in\n    tag_5:\n      mload(0x40)\n      tag_9\n      swap2\n      swap1\n      tag_10\n      jump\t// in\n    tag_9:\n      mload(0x40)\n      dup1\n      swap2\n      sub\n      swap1\n      return\n        /* \"LoanLibrary.sol\":599:785  function calculateDailyInterest(uint interestRate, uint loanAmount) public pure returns (uint) {\r... */\n    tag_4:\n      tag_11\n      0x04\n      dup1\n      calldatasize\n      sub\n      dup2\n      add\n      swap1\n      tag_12\n      swap2\n      swap1\n      tag_13\n      jump\t// in\n    tag_12:\n      tag_14\n      jump\t// in\n    tag_11:\n      mload(0x40)\n      tag_15\n      swap2\n      swap1\n      tag_10\n      jump\t// in\n    tag_15:\n      mload(0x40)\n      dup1\n      swap2\n      sub\n      swap1\n      return\n        /* \"LoanLibrary.sol\":793:1004  function calculateDailyPenalty(uint penaltyRate, uint loanAmount, uint dailydelay) public pure returns (uint) {\r... */\n    tag_8:\n        /* \"LoanLibrary.sol\":897:901  uint */\n      0x00\n        /* \"LoanLibrary.sol\":921:996  LoanLibrary.dailyPenaltyRateCalculator(penaltyRate, loanAmount, dailydelay) */\n      tag_17\n        /* \"LoanLibrary.sol\":960:971  penaltyRate */\n      dup5\n        /* \"LoanLibrary.sol\":973:983  loanAmount */\n      dup5\n        /* \"LoanLibrary.sol\":985:995  dailydelay */\n      dup5\n        /* \"LoanLibrary.sol\":921:959  LoanLibrary.dailyPenaltyRateCalculator */\n      tag_18\n        /* \"LoanLibrary.sol\":921:996  LoanLibrary.dailyPenaltyRateCalculator(penaltyRate, loanAmount, dailydelay) */\n      jump\t// in\n    tag_17:\n        /* \"LoanLibrary.sol\":914:996  return LoanLibrary.dailyPenaltyRateCalculator(penaltyRate, loanAmount, dailydelay) */\n      swap1\n      pop\n        /* \"LoanLibrary.sol\":793:1004  function calculateDailyPenalty(uint penaltyRate, uint loanAmount, uint dailydelay) public pure returns (uint) {\r... */\n      swap4\n      swap3\n      pop\n      pop\n      pop\n      jump\t// out\n        /* \"LoanLibrary.sol\":599:785  function calculateDailyInterest(uint interestRate, uint loanAmount) public pure returns (uint) {\r... */\n    tag_14:\n        /* \"LoanLibrary.sol\":688:692  uint */\n      0x00\n        /* \"LoanLibrary.sol\":712:777  LoanLibrary.dailyInterestRateCalculator(interestRate, loanAmount) */\n      tag_20\n        /* \"LoanLibrary.sol\":752:764  interestRate */\n      dup4\n        /* \"LoanLibrary.sol\":766:776  loanAmount */\n      dup4\n        /* \"LoanLibrary.sol\":712:751  LoanLibrary.dailyInterestRateCalculator */\n      tag_21\n        /* \"LoanLibrary.sol\":712:777  LoanLibrary.dailyInterestRateCalculator(interestRate, loanAmount) */\n      jump\t// in\n    tag_20:\n        /* \"LoanLibrary.sol\":705:777  return LoanLibrary.dailyInterestRateCalculator(interestRate, loanAmount) */\n      swap1\n      pop\n        /* \"LoanLibrary.sol\":599:785  function calculateDailyInterest(uint interestRate, uint loanAmount) public pure returns (uint) {\r... */\n      swap3\n      swap2\n      pop\n      pop\n      jump\t// out\n        /* \"LoanLibrary.sol\":312:553  function dailyPenaltyRateCalculator(uint penaltyRate, uint loanAmount, uint dailydelay) internal pure returns (uint) {\r... */\n    tag_18:\n        /* \"LoanLibrary.sol\":423:427  uint */\n      0x00\n        /* \"LoanLibrary.sol\":440:458  uint penaltyAmount */\n      dup1\n        /* \"LoanLibrary.sol\":504:513  100 * 365 */\n      0x8e94\n        /* \"LoanLibrary.sol\":489:499  dailydelay */\n      dup4\n        /* \"LoanLibrary.sol\":475:486  penaltyRate */\n      dup7\n        /* \"LoanLibrary.sol\":462:472  loanAmount */\n      dup7\n        /* \"LoanLibrary.sol\":462:486  loanAmount * penaltyRate */\n      tag_23\n      swap2\n      swap1\n      tag_24\n      jump\t// in\n    tag_23:\n        /* \"LoanLibrary.sol\":462:499  loanAmount * penaltyRate * dailydelay */\n      tag_25\n      swap2\n      swap1\n      tag_24\n      jump\t// in\n    tag_25:\n        /* \"LoanLibrary.sol\":461:514  (loanAmount * penaltyRate * dailydelay) / (100 * 365) */\n      tag_26\n      swap2\n      swap1\n      tag_27\n      jump\t// in\n    tag_26:\n        /* \"LoanLibrary.sol\":440:514  uint penaltyAmount = (loanAmount * penaltyRate * dailydelay) / (100 * 365) */\n      swap1\n      pop\n        /* \"LoanLibrary.sol\":532:545  penaltyAmount */\n      dup1\n        /* \"LoanLibrary.sol\":525:545  return penaltyAmount */\n      swap2\n      pop\n      pop\n        /* \"LoanLibrary.sol\":312:553  function dailyPenaltyRateCalculator(uint penaltyRate, uint loanAmount, uint dailydelay) internal pure returns (uint) {\r... */\n      swap4\n      swap3\n      pop\n      pop\n      pop\n      jump\t// out\n        /* \"LoanLibrary.sol\":86:304  function dailyInterestRateCalculator(uint interestRate, uint loanAmount )  internal pure returns(uint){\r... */\n    tag_21:\n        /* \"LoanLibrary.sol\":183:187  uint */\n      0x00\n        /* \"LoanLibrary.sol\":199:221  uint dailyInterestRate */\n      dup1\n        /* \"LoanLibrary.sol\":253:260  100*365 */\n      0x8e94\n        /* \"LoanLibrary.sol\":238:250  interestRate */\n      dup5\n        /* \"LoanLibrary.sol\":225:235  loanAmount */\n      dup5\n        /* \"LoanLibrary.sol\":225:250  loanAmount * interestRate */\n      tag_29\n      swap2\n      swap1\n      tag_24\n      jump\t// in\n    tag_29:\n        /* \"LoanLibrary.sol\":224:261  (loanAmount * interestRate)/(100*365) */\n      tag_30\n      swap2\n      swap1\n      tag_27\n      jump\t// in\n    tag_30:\n        /* \"LoanLibrary.sol\":199:261  uint dailyInterestRate = (loanAmount * interestRate)/(100*365) */\n      swap1\n      pop\n        /* \"LoanLibrary.sol\":279:296  dailyInterestRate */\n      dup1\n        /* \"LoanLibrary.sol\":272:296  return dailyInterestRate */\n      swap2\n      pop\n      pop\n        /* \"LoanLibrary.sol\":86:304  function dailyInterestRateCalculator(uint interestRate, uint loanAmount )  internal pure returns(uint){\r... */\n      swap3\n      swap2\n      pop\n      pop\n      jump\t// out\n        /* \"#utility.yul\":7:146   */\n    tag_32:\n      0x00\n        /* \"#utility.yul\":91:97   */\n      dup2\n        /* \"#utility.yul\":78:98   */\n      calldataload\n        /* \"#utility.yul\":69:98   */\n      swap1\n      pop\n        /* \"#utility.yul\":107:140   */\n      tag_34\n        /* \"#utility.yul\":134:139   */\n      dup2\n        /* \"#utility.yul\":107:140   */\n      tag_35\n      jump\t// in\n    tag_34:\n        /* \"#utility.yul\":59:146   */\n      swap3\n      swap2\n      pop\n      pop\n      jump\t// out\n        /* \"#utility.yul\":152:559   */\n    tag_13:\n      0x00\n      dup1\n        /* \"#utility.yul\":277:279   */\n      0x40\n        /* \"#utility.yul\":265:274   */\n      dup4\n        /* \"#utility.yul\":256:263   */\n      dup6\n        /* \"#utility.yul\":252:275   */\n      sub\n        /* \"#utility.yul\":248:280   */\n      slt\n        /* \"#utility.yul\":245:247   */\n      iszero\n      tag_37\n      jumpi\n        /* \"#utility.yul\":293:294   */\n      0x00\n        /* \"#utility.yul\":290:291   */\n      dup1\n        /* \"#utility.yul\":283:295   */\n      revert\n        /* \"#utility.yul\":245:247   */\n    tag_37:\n        /* \"#utility.yul\":336:337   */\n      0x00\n        /* \"#utility.yul\":361:414   */\n      tag_38\n        /* \"#utility.yul\":406:413   */\n      dup6\n        /* \"#utility.yul\":397:403   */\n      dup3\n        /* \"#utility.yul\":386:395   */\n      dup7\n        /* \"#utility.yul\":382:404   */\n      add\n        /* \"#utility.yul\":361:414   */\n      tag_32\n      jump\t// in\n    tag_38:\n        /* \"#utility.yul\":351:414   */\n      swap3\n      pop\n        /* \"#utility.yul\":307:424   */\n      pop\n        /* \"#utility.yul\":463:465   */\n      0x20\n        /* \"#utility.yul\":489:542   */\n      tag_39\n        /* \"#utility.yul\":534:541   */\n      dup6\n        /* \"#utility.yul\":525:531   */\n      dup3\n        /* \"#utility.yul\":514:523   */\n      dup7\n        /* \"#utility.yul\":510:532   */\n      add\n        /* \"#utility.yul\":489:542   */\n      tag_32\n      jump\t// in\n    tag_39:\n        /* \"#utility.yul\":479:542   */\n      swap2\n      pop\n        /* \"#utility.yul\":434:552   */\n      pop\n        /* \"#utility.yul\":235:559   */\n      swap3\n      pop\n      swap3\n      swap1\n      pop\n      jump\t// out\n        /* \"#utility.yul\":565:1117   */\n    tag_7:\n      0x00\n      dup1\n      0x00\n        /* \"#utility.yul\":707:709   */\n      0x60\n        /* \"#utility.yul\":695:704   */\n      dup5\n        /* \"#utility.yul\":686:693   */\n      dup7\n        /* \"#utility.yul\":682:705   */\n      sub\n        /* \"#utility.yul\":678:710   */\n      slt\n        /* \"#utility.yul\":675:677   */\n      iszero\n      tag_41\n      jumpi\n        /* \"#utility.yul\":723:724   */\n      0x00\n        /* \"#utility.yul\":720:721   */\n      dup1\n        /* \"#utility.yul\":713:725   */\n      revert\n        /* \"#utility.yul\":675:677   */\n    tag_41:\n        /* \"#utility.yul\":766:767   */\n      0x00\n        /* \"#utility.yul\":791:844   */\n      tag_42\n        /* \"#utility.yul\":836:843   */\n      dup7\n        /* \"#utility.yul\":827:833   */\n      dup3\n        /* \"#utility.yul\":816:825   */\n      dup8\n        /* \"#utility.yul\":812:834   */\n      add\n        /* \"#utility.yul\":791:844   */\n      tag_32\n      jump\t// in\n    tag_42:\n        /* \"#utility.yul\":781:844   */\n      swap4\n      pop\n        /* \"#utility.yul\":737:854   */\n      pop\n        /* \"#utility.yul\":893:895   */\n      0x20\n        /* \"#utility.yul\":919:972   */\n      tag_43\n        /* \"#utility.yul\":964:971   */\n      dup7\n        /* \"#utility.yul\":955:961   */\n      dup3\n        /* \"#utility.yul\":944:953   */\n      dup8\n        /* \"#utility.yul\":940:962   */\n      add\n        /* \"#utility.yul\":919:972   */\n      tag_32\n      jump\t// in\n    tag_43:\n        /* \"#utility.yul\":909:972   */\n      swap3\n      pop\n        /* \"#utility.yul\":864:982   */\n      pop\n        /* \"#utility.yul\":1021:1023   */\n      0x40\n        /* \"#utility.yul\":1047:1100   */\n      tag_44\n        /* \"#utility.yul\":1092:1099   */\n      dup7\n        /* \"#utility.yul\":1083:1089   */\n      dup3\n        /* \"#utility.yul\":1072:1081   */\n      dup8\n        /* \"#utility.yul\":1068:1090   */\n      add\n        /* \"#utility.yul\":1047:1100   */\n      tag_32\n      jump\t// in\n    tag_44:\n        /* \"#utility.yul\":1037:1100   */\n      swap2\n      pop\n        /* \"#utility.yul\":992:1110   */\n      pop\n        /* \"#utility.yul\":665:1117   */\n      swap3\n      pop\n      swap3\n      pop\n      swap3\n      jump\t// out\n        /* \"#utility.yul\":1123:1241   */\n    tag_45:\n        /* \"#utility.yul\":1210:1234   */\n      tag_47\n        /* \"#utility.yul\":1228:1233   */\n      dup2\n        /* \"#utility.yul\":1210:1234   */\n      tag_48\n      jump\t// in\n    tag_47:\n        /* \"#utility.yul\":1205:1208   */\n      dup3\n        /* \"#utility.yul\":1198:1235   */\n      mstore\n        /* \"#utility.yul\":1188:1241   */\n      pop\n      pop\n      jump\t// out\n        /* \"#utility.yul\":1247:1469   */\n    tag_10:\n      0x00\n        /* \"#utility.yul\":1378:1380   */\n      0x20\n        /* \"#utility.yul\":1367:1376   */\n      dup3\n        /* \"#utility.yul\":1363:1381   */\n      add\n        /* \"#utility.yul\":1355:1381   */\n      swap1\n      pop\n        /* \"#utility.yul\":1391:1462   */\n      tag_50\n        /* \"#utility.yul\":1459:1460   */\n      0x00\n        /* \"#utility.yul\":1448:1457   */\n      dup4\n        /* \"#utility.yul\":1444:1461   */\n      add\n        /* \"#utility.yul\":1435:1441   */\n      dup5\n        /* \"#utility.yul\":1391:1462   */\n      tag_45\n      jump\t// in\n    tag_50:\n        /* \"#utility.yul\":1345:1469   */\n      swap3\n      swap2\n      pop\n      pop\n      jump\t// out\n        /* \"#utility.yul\":1475:1660   */\n    tag_27:\n      0x00\n        /* \"#utility.yul\":1532:1552   */\n      tag_52\n        /* \"#utility.yul\":1550:1551   */\n      dup3\n        /* \"#utility.yul\":1532:1552   */\n      tag_48\n      jump\t// in\n    tag_52:\n        /* \"#utility.yul\":1527:1552   */\n      swap2\n      pop\n        /* \"#utility.yul\":1566:1586   */\n      tag_53\n        /* \"#utility.yul\":1584:1585   */\n      dup4\n        /* \"#utility.yul\":1566:1586   */\n      tag_48\n      jump\t// in\n    tag_53:\n        /* \"#utility.yul\":1561:1586   */\n      swap3\n      pop\n        /* \"#utility.yul\":1605:1606   */\n      dup3\n        /* \"#utility.yul\":1595:1597   */\n      tag_54\n      jumpi\n        /* \"#utility.yul\":1610:1628   */\n      tag_55\n      tag_56\n      jump\t// in\n    tag_55:\n        /* \"#utility.yul\":1595:1597   */\n    tag_54:\n        /* \"#utility.yul\":1652:1653   */\n      dup3\n        /* \"#utility.yul\":1649:1650   */\n      dup3\n        /* \"#utility.yul\":1645:1654   */\n      div\n        /* \"#utility.yul\":1640:1654   */\n      swap1\n      pop\n        /* \"#utility.yul\":1517:1660   */\n      swap3\n      swap2\n      pop\n      pop\n      jump\t// out\n        /* \"#utility.yul\":1666:2014   */\n    tag_24:\n      0x00\n        /* \"#utility.yul\":1729:1749   */\n      tag_58\n        /* \"#utility.yul\":1747:1748   */\n      dup3\n        /* \"#utility.yul\":1729:1749   */\n      tag_48\n      jump\t// in\n    tag_58:\n        /* \"#utility.yul\":1724:1749   */\n      swap2\n      pop\n        /* \"#utility.yul\":1763:1783   */\n      tag_59\n        /* \"#utility.yul\":1781:1782   */\n      dup4\n        /* \"#utility.yul\":1763:1783   */\n      tag_48\n      jump\t// in\n    tag_59:\n        /* \"#utility.yul\":1758:1783   */\n      swap3\n      pop\n        /* \"#utility.yul\":1951:1952   */\n      dup2\n        /* \"#utility.yul\":1883:1949   */\n      0xffffffffffffffffffffffffffffffffffffffffffffffffffffffffffffffff\n        /* \"#utility.yul\":1879:1953   */\n      div\n        /* \"#utility.yul\":1876:1877   */\n      dup4\n        /* \"#utility.yul\":1873:1954   */\n      gt\n        /* \"#utility.yul\":1868:1869   */\n      dup3\n        /* \"#utility.yul\":1861:1870   */\n      iszero\n        /* \"#utility.yul\":1854:1871   */\n      iszero\n        /* \"#utility.yul\":1850:1955   */\n      and\n        /* \"#utility.yul\":1847:1849   */\n      iszero\n      tag_60\n      jumpi\n        /* \"#utility.yul\":1958:1976   */\n      tag_61\n      tag_62\n      jump\t// in\n    tag_61:\n        /* \"#utility.yul\":1847:1849   */\n    tag_60:\n        /* \"#utility.yul\":2006:2007   */\n      dup3\n        /* \"#utility.yul\":2003:2004   */\n      dup3\n        /* \"#utility.yul\":1999:2008   */\n      mul\n        /* \"#utility.yul\":1988:2008   */\n      swap1\n      pop\n        /* \"#utility.yul\":1714:2014   */\n      swap3\n      swap2\n      pop\n      pop\n      jump\t// out\n        /* \"#utility.yul\":2020:2097   */\n    tag_48:\n      0x00\n        /* \"#utility.yul\":2086:2091   */\n      dup2\n        /* \"#utility.yul\":2075:2091   */\n      swap1\n      pop\n        /* \"#utility.yul\":2065:2097   */\n      swap2\n      swap1\n      pop\n      jump\t// out\n        /* \"#utility.yul\":2103:2283   */\n    tag_62:\n        /* \"#utility.yul\":2151:2228   */\n      0x4e487b7100000000000000000000000000000000000000000000000000000000\n        /* \"#utility.yul\":2148:2149   */\n      0x00\n        /* \"#utility.yul\":2141:2229   */\n      mstore\n        /* \"#utility.yul\":2248:2252   */\n      0x11\n        /* \"#utility.yul\":2245:2246   */\n      0x04\n        /* \"#utility.yul\":2238:2253   */\n      mstore\n        /* \"#utility.yul\":2272:2276   */\n      0x24\n        /* \"#utility.yul\":2269:2270   */\n      0x00\n        /* \"#utility.yul\":2262:2277   */\n      revert\n        /* \"#utility.yul\":2289:2469   */\n    tag_56:\n        /* \"#utility.yul\":2337:2414   */\n      0x4e487b7100000000000000000000000000000000000000000000000000000000\n        /* \"#utility.yul\":2334:2335   */\n      0x00\n        /* \"#utility.yul\":2327:2415   */\n      mstore\n        /* \"#utility.yul\":2434:2438   */\n      0x12\n        /* \"#utility.yul\":2431:2432   */\n      0x04\n        /* \"#utility.yul\":2424:2439   */\n      mstore\n        /* \"#utility.yul\":2458:2462   */\n      0x24\n        /* \"#utility.yul\":2455:2456   */\n      0x00\n        /* \"#utility.yul\":2448:2463   */\n      revert\n        /* \"#utility.yul\":2475:2597   */\n    tag_35:\n        /* \"#utility.yul\":2548:2572   */\n      tag_67\n        /* \"#utility.yul\":2566:2571   */\n      dup2\n        /* \"#utility.yul\":2548:2572   */\n      tag_48\n      jump\t// in\n    tag_67:\n        /* \"#utility.yul\":2541:2546   */\n      dup2\n        /* \"#utility.yul\":2538:2573   */\n      eq\n        /* \"#utility.yul\":2528:2530   */\n      tag_68\n      jumpi\n        /* \"#utility.yul\":2587:2588   */\n      0x00\n        /* \"#utility.yul\":2584:2585   */\n      dup1\n        /* \"#utility.yul\":2577:2589   */\n      revert\n        /* \"#utility.yul\":2528:2530   */\n    tag_68:\n        /* \"#utility.yul\":2518:2597   */\n      pop\n      jump\t// out\n\n    auxdata: 0xa2646970667358221220bb8b69b5bbaf96b7f5f439c206157725d67e2bfce10a25f4a3b4b98d0cfa67aa64736f6c63430008000033\n}\n",
				"bytecode": {
					"linkReferences": {},
					"object": "608060405234801561001057600080fd5b5061032b806100206000396000f3fe608060405234801561001057600080fd5b50600436106100365760003560e01c80636e7683661461003b578063e64051441461006b575b600080fd5b61005560048036038101906100509190610172565b61009b565b60405161006291906101d0565b60405180910390f35b61008560048036038101906100809190610136565b6100b1565b60405161009291906101d0565b60405180910390f35b60006100a88484846100c5565b90509392505050565b60006100bd83836100f9565b905092915050565b600080618e948386866100d8919061021c565b6100e2919061021c565b6100ec91906101eb565b9050809150509392505050565b600080618e94848461010b919061021c565b61011591906101eb565b90508091505092915050565b600081359050610130816102de565b92915050565b6000806040838503121561014957600080fd5b600061015785828601610121565b925050602061016885828601610121565b9150509250929050565b60008060006060848603121561018757600080fd5b600061019586828701610121565b93505060206101a686828701610121565b92505060406101b786828701610121565b9150509250925092565b6101ca81610276565b82525050565b60006020820190506101e560008301846101c1565b92915050565b60006101f682610276565b915061020183610276565b925082610211576102106102af565b5b828204905092915050565b600061022782610276565b915061023283610276565b9250817fffffffffffffffffffffffffffffffffffffffffffffffffffffffffffffffff048311821515161561026b5761026a610280565b5b828202905092915050565b6000819050919050565b7f4e487b7100000000000000000000000000000000000000000000000000000000600052601160045260246000fd5b7f4e487b7100000000000000000000000000000000000000000000000000000000600052601260045260246000fd5b6102e781610276565b81146102f257600080fd5b5056fea2646970667358221220bb8b69b5bbaf96b7f5f439c206157725d67e2bfce10a25f4a3b4b98d0cfa67aa64736f6c63430008000033",
					"opcodes": "PUSH1 0x80 PUSH1 0x40 MSTORE CALLVALUE DUP1 ISZERO PUSH2 0x10 JUMPI PUSH1 0x0 DUP1 REVERT JUMPDEST POP PUSH2 0x32B DUP1 PUSH2 0x20 PUSH1 0x0 CODECOPY PUSH1 0x0 RETURN INVALID PUSH1 0x80 PUSH1 0x40 MSTORE CALLVALUE DUP1 ISZERO PUSH2 0x10 JUMPI PUSH1 0x0 DUP1 REVERT JUMPDEST POP PUSH1 0x4 CALLDATASIZE LT PUSH2 0x36 JUMPI PUSH1 0x0 CALLDATALOAD PUSH1 0xE0 SHR DUP1 PUSH4 0x6E768366 EQ PUSH2 0x3B JUMPI DUP1 PUSH4 0xE6405144 EQ PUSH2 0x6B JUMPI JUMPDEST PUSH1 0x0 DUP1 REVERT JUMPDEST PUSH2 0x55 PUSH1 0x4 DUP1 CALLDATASIZE SUB DUP2 ADD SWAP1 PUSH2 0x50 SWAP2 SWAP1 PUSH2 0x172 JUMP JUMPDEST PUSH2 0x9B JUMP JUMPDEST PUSH1 0x40 MLOAD PUSH2 0x62 SWAP2 SWAP1 PUSH2 0x1D0 JUMP JUMPDEST PUSH1 0x40 MLOAD DUP1 SWAP2 SUB SWAP1 RETURN JUMPDEST PUSH2 0x85 PUSH1 0x4 DUP1 CALLDATASIZE SUB DUP2 ADD SWAP1 PUSH2 0x80 SWAP2 SWAP1 PUSH2 0x136 JUMP JUMPDEST PUSH2 0xB1 JUMP JUMPDEST PUSH1 0x40 MLOAD PUSH2 0x92 SWAP2 SWAP1 PUSH2 0x1D0 JUMP JUMPDEST PUSH1 0x40 MLOAD DUP1 SWAP2 SUB SWAP1 RETURN JUMPDEST PUSH1 0x0 PUSH2 0xA8 DUP5 DUP5 DUP5 PUSH2 0xC5 JUMP JUMPDEST SWAP1 POP SWAP4 SWAP3 POP POP POP JUMP JUMPDEST PUSH1 0x0 PUSH2 0xBD DUP4 DUP4 PUSH2 0xF9 JUMP JUMPDEST SWAP1 POP SWAP3 SWAP2 POP POP JUMP JUMPDEST PUSH1 0x0 DUP1 PUSH2 0x8E94 DUP4 DUP7 DUP7 PUSH2 0xD8 SWAP2 SWAP1 PUSH2 0x21C JUMP JUMPDEST PUSH2 0xE2 SWAP2 SWAP1 PUSH2 0x21C JUMP JUMPDEST PUSH2 0xEC SWAP2 SWAP1 PUSH2 0x1EB JUMP JUMPDEST SWAP1 POP DUP1 SWAP2 POP POP SWAP4 SWAP3 POP POP POP JUMP JUMPDEST PUSH1 0x0 DUP1 PUSH2 0x8E94 DUP5 DUP5 PUSH2 0x10B SWAP2 SWAP1 PUSH2 0x21C JUMP JUMPDEST PUSH2 0x115 SWAP2 SWAP1 PUSH2 0x1EB JUMP JUMPDEST SWAP1 POP DUP1 SWAP2 POP POP SWAP3 SWAP2 POP POP JUMP JUMPDEST PUSH1 0x0 DUP2 CALLDATALOAD SWAP1 POP PUSH2 0x130 DUP2 PUSH2 0x2DE JUMP JUMPDEST SWAP3 SWAP2 POP POP JUMP JUMPDEST PUSH1 0x0 DUP1 PUSH1 0x40 DUP4 DUP6 SUB SLT ISZERO PUSH2 0x149 JUMPI PUSH1 0x0 DUP1 REVERT JUMPDEST PUSH1 0x0 PUSH2 0x157 DUP6 DUP3 DUP7 ADD PUSH2 0x121 JUMP JUMPDEST SWAP3 POP POP PUSH1 0x20 PUSH2 0x168 DUP6 DUP3 DUP7 ADD PUSH2 0x121 JUMP JUMPDEST SWAP2 POP POP SWAP3 POP SWAP3 SWAP1 POP JUMP JUMPDEST PUSH1 0x0 DUP1 PUSH1 0x0 PUSH1 0x60 DUP5 DUP7 SUB SLT ISZERO PUSH2 0x187 JUMPI PUSH1 0x0 DUP1 REVERT JUMPDEST PUSH1 0x0 PUSH2 0x195 DUP7 DUP3 DUP8 ADD PUSH2 0x121 JUMP JUMPDEST SWAP4 POP POP PUSH1 0x20 PUSH2 0x1A6 DUP7 DUP3 DUP8 ADD PUSH2 0x121 JUMP JUMPDEST SWAP3 POP POP PUSH1 0x40 PUSH2 0x1B7 DUP7 DUP3 DUP8 ADD PUSH2 0x121 JUMP JUMPDEST SWAP2 POP POP SWAP3 POP SWAP3 POP SWAP3 JUMP JUMPDEST PUSH2 0x1CA DUP2 PUSH2 0x276 JUMP JUMPDEST DUP3 MSTORE POP POP JUMP JUMPDEST PUSH1 0x0 PUSH1 0x20 DUP3 ADD SWAP1 POP PUSH2 0x1E5 PUSH1 0x0 DUP4 ADD DUP5 PUSH2 0x1C1 JUMP JUMPDEST SWAP3 SWAP2 POP POP JUMP JUMPDEST PUSH1 0x0 PUSH2 0x1F6 DUP3 PUSH2 0x276 JUMP JUMPDEST SWAP2 POP PUSH2 0x201 DUP4 PUSH2 0x276 JUMP JUMPDEST SWAP3 POP DUP3 PUSH2 0x211 JUMPI PUSH2 0x210 PUSH2 0x2AF JUMP JUMPDEST JUMPDEST DUP3 DUP3 DIV SWAP1 POP SWAP3 SWAP2 POP POP JUMP JUMPDEST PUSH1 0x0 PUSH2 0x227 DUP3 PUSH2 0x276 JUMP JUMPDEST SWAP2 POP PUSH2 0x232 DUP4 PUSH2 0x276 JUMP JUMPDEST SWAP3 POP DUP2 PUSH32 0xFFFFFFFFFFFFFFFFFFFFFFFFFFFFFFFFFFFFFFFFFFFFFFFFFFFFFFFFFFFFFFFF DIV DUP4 GT DUP3 ISZERO ISZERO AND ISZERO PUSH2 0x26B JUMPI PUSH2 0x26A PUSH2 0x280 JUMP JUMPDEST JUMPDEST DUP3 DUP3 MUL SWAP1 POP SWAP3 SWAP2 POP POP JUMP JUMPDEST PUSH1 0x0 DUP2 SWAP1 POP SWAP2 SWAP1 POP JUMP JUMPDEST PUSH32 0x4E487B7100000000000000000000000000000000000000000000000000000000 PUSH1 0x0 MSTORE PUSH1 0x11 PUSH1 0x4 MSTORE PUSH1 0x24 PUSH1 0x0 REVERT JUMPDEST PUSH32 0x4E487B7100000000000000000000000000000000000000000000000000000000 PUSH1 0x0 MSTORE PUSH1 0x12 PUSH1 0x4 MSTORE PUSH1 0x24 PUSH1 0x0 REVERT JUMPDEST PUSH2 0x2E7 DUP2 PUSH2 0x276 JUMP JUMPDEST DUP2 EQ PUSH2 0x2F2 JUMPI PUSH1 0x0 DUP1 REVERT JUMPDEST POP JUMP INVALID LOG2 PUSH5 0x6970667358 0x22 SLT KECCAK256 0xBB DUP12 PUSH10 0xB5BBAF96B7F5F439C206 ISZERO PUSH24 0x25D67E2BFCE10A25F4A3B4B98D0CFA67AA64736F6C634300 ADDMOD STOP STOP CALLER "
				},
				"gasEstimates": {
					"creation": {
						"codeDepositCost": "162200",
						"executionCost": "208",
						"totalCost": "162408"
					},
					"external": {
						"calculateDailyInterest(uint256,uint256)": "infinite",
						"calculateDailyPenalty(uint256,uint256,uint256)": "infinite"
					}
				},
				"methodIdentifiers": {
					"calculateDailyInterest(uint256,uint256)": "e6405144",
					"calculateDailyPenalty(uint256,uint256,uint256)": "6e768366"
				}
			},
			"storageLayout": {
				"storage": [],
				"types": null
			},
			"userdoc": {
				"kind": "user",
				"methods": {},
				"version": 1
			}
		}
	}
}