{
	"scritturatemporanea.sol": {
		"LoanManager": {
			"abi": [
				{
					"anonymous": false,
					"inputs": [
						{
							"indexed": false,
							"internalType": "uint256",
							"name": "loanId",
							"type": "uint256"
						},
						{
							"indexed": false,
							"internalType": "address",
							"name": "borrower",
							"type": "address"
						},
						{
							"indexed": false,
							"internalType": "uint256",
							"name": "amount",
							"type": "uint256"
						},
						{
							"indexed": false,
							"internalType": "enum LoanManager.LoanStatus",
							"name": "status",
							"type": "uint8"
						}
					],
					"name": "LoanRequested",
					"type": "event"
				},
				{
					"inputs": [
						{
							"internalType": "address",
							"name": "",
							"type": "address"
						}
					],
					"name": "loanBorrowers",
					"outputs": [
						{
							"internalType": "address",
							"name": "borrowerAddress",
							"type": "address"
						},
						{
							"internalType": "uint8",
							"name": "creditScore",
							"type": "uint8"
						}
					],
					"stateMutability": "view",
					"type": "function"
				},
				{
					"inputs": [
						{
							"internalType": "uint256",
							"name": "",
							"type": "uint256"
						}
					],
					"name": "loansById",
					"outputs": [
						{
							"internalType": "uint256",
							"name": "loanId",
							"type": "uint256"
						},
						{
							"components": [
								{
									"internalType": "address",
									"name": "borrowerAddress",
									"type": "address"
								},
								{
									"internalType": "uint8",
									"name": "creditScore",
									"type": "uint8"
								},
								{
									"internalType": "uint256[]",
									"name": "userLoans",
									"type": "uint256[]"
								}
							],
							"internalType": "struct LoanManager.LoanBorrower",
							"name": "borrowerAddress",
							"type": "tuple"
						},
						{
							"internalType": "address",
							"name": "lenderAddress",
							"type": "address"
						},
						{
							"internalType": "uint256",
							"name": "amount",
							"type": "uint256"
						},
						{
							"internalType": "uint256",
							"name": "interestRate",
							"type": "uint256"
						},
						{
							"internalType": "uint256",
							"name": "penaltyRate",
							"type": "uint256"
						},
						{
							"internalType": "uint256",
							"name": "startDate",
							"type": "uint256"
						},
						{
							"internalType": "uint256",
							"name": "dueDate",
							"type": "uint256"
						},
						{
							"internalType": "enum LoanManager.LoanStatus",
							"name": "status",
							"type": "uint8"
						}
					],
					"stateMutability": "view",
					"type": "function"
				},
				{
					"inputs": [
						{
							"internalType": "uint256",
							"name": "_amount",
							"type": "uint256"
						},
						{
							"internalType": "uint256",
							"name": "_daysOfLoan",
							"type": "uint256"
						}
					],
					"name": "requestLoan",
					"outputs": [],
					"stateMutability": "nonpayable",
					"type": "function"
				},
				{
					"inputs": [
						{
							"internalType": "address",
							"name": "",
							"type": "address"
						},
						{
							"internalType": "uint256",
							"name": "",
							"type": "uint256"
						}
					],
					"name": "userLoans",
					"outputs": [
						{
							"internalType": "uint256",
							"name": "",
							"type": "uint256"
						}
					],
					"stateMutability": "view",
					"type": "function"
				}
			],
			"devdoc": {
				"kind": "dev",
				"methods": {},
				"version": 1
			},
			"evm": {
				"assembly": "    /* \"scritturatemporanea.sol\":93:4403  contract LoanManager{\r... */\n  mstore(0x40, 0x80)\n  callvalue\n  dup1\n  iszero\n  tag_1\n  jumpi\n  0x00\n  dup1\n  revert\ntag_1:\n  pop\n  dataSize(sub_0)\n  dup1\n  dataOffset(sub_0)\n  0x00\n  codecopy\n  0x00\n  return\nstop\n\nsub_0: assembly {\n        /* \"scritturatemporanea.sol\":93:4403  contract LoanManager{\r... */\n      mstore(0x40, 0x80)\n      callvalue\n      dup1\n      iszero\n      tag_1\n      jumpi\n      0x00\n      dup1\n      revert\n    tag_1:\n      pop\n      jumpi(tag_2, lt(calldatasize, 0x04))\n      shr(0xe0, calldataload(0x00))\n      dup1\n      0xaa452fa6\n      eq\n      tag_3\n      jumpi\n      dup1\n      0xb96c5cdd\n      eq\n      tag_4\n      jumpi\n      dup1\n      0xd8bad5bd\n      eq\n      tag_5\n      jumpi\n      dup1\n      0xe034f3dc\n      eq\n      tag_6\n      jumpi\n    tag_2:\n      0x00\n      dup1\n      revert\n        /* \"scritturatemporanea.sol\":2175:4400  function requestLoan(uint256 _amount, uint256 _daysOfLoan) public {\r... */\n    tag_3:\n      tag_7\n      0x04\n      dup1\n      calldatasize\n      sub\n      dup2\n      add\n      swap1\n      tag_8\n      swap2\n      swap1\n      tag_9\n      jump\t// in\n    tag_8:\n      tag_10\n      jump\t// in\n    tag_7:\n      stop\n        /* \"scritturatemporanea.sol\":827:880  mapping(address => LoanBorrower) public loanBorrowers */\n    tag_4:\n      tag_11\n      0x04\n      dup1\n      calldatasize\n      sub\n      dup2\n      add\n      swap1\n      tag_12\n      swap2\n      swap1\n      tag_13\n      jump\t// in\n    tag_12:\n      tag_14\n      jump\t// in\n    tag_11:\n      mload(0x40)\n      tag_15\n      swap3\n      swap2\n      swap1\n      tag_16\n      jump\t// in\n    tag_15:\n      mload(0x40)\n      dup1\n      swap2\n      sub\n      swap1\n      return\n        /* \"scritturatemporanea.sol\":921:967  mapping(address => uint256[]) public userLoans */\n    tag_5:\n      tag_17\n      0x04\n      dup1\n      calldatasize\n      sub\n      dup2\n      add\n      swap1\n      tag_18\n      swap2\n      swap1\n      tag_19\n      jump\t// in\n    tag_18:\n      tag_20\n      jump\t// in\n    tag_17:\n      mload(0x40)\n      tag_21\n      swap2\n      swap1\n      tag_22\n      jump\t// in\n    tag_21:\n      mload(0x40)\n      dup1\n      swap2\n      sub\n      swap1\n      return\n        /* \"scritturatemporanea.sol\":779:820  mapping(uint256 => Loan) public loansById */\n    tag_6:\n      tag_23\n      0x04\n      dup1\n      calldatasize\n      sub\n      dup2\n      add\n      swap1\n      tag_24\n      swap2\n      swap1\n      tag_25\n      jump\t// in\n    tag_24:\n      tag_26\n      jump\t// in\n    tag_23:\n      mload(0x40)\n      tag_27\n      swap10\n      swap9\n      swap8\n      swap7\n      swap6\n      swap5\n      swap4\n      swap3\n      swap2\n      swap1\n      tag_28\n      jump\t// in\n    tag_27:\n      mload(0x40)\n      dup1\n      swap2\n      sub\n      swap1\n      return\n        /* \"scritturatemporanea.sol\":2175:4400  function requestLoan(uint256 _amount, uint256 _daysOfLoan) public {\r... */\n    tag_10:\n        /* \"scritturatemporanea.sol\":2290:2291  0 */\n      0x00\n        /* \"scritturatemporanea.sol\":2280:2287  _amount */\n      dup3\n        /* \"scritturatemporanea.sol\":2280:2291  _amount > 0 */\n      gt\n        /* \"scritturatemporanea.sol\":2272:2337  require(_amount > 0, \"The loan amount must be greater than zero\") */\n      tag_30\n      jumpi\n      mload(0x40)\n      0x08c379a000000000000000000000000000000000000000000000000000000000\n      dup2\n      mstore\n      0x04\n      add\n      tag_31\n      swap1\n      tag_32\n      jump\t// in\n    tag_31:\n      mload(0x40)\n      dup1\n      swap2\n      sub\n      swap1\n      revert\n    tag_30:\n        /* \"scritturatemporanea.sol\":2370:2371  0 */\n      0x00\n        /* \"scritturatemporanea.sol\":2356:2367  _daysOfLoan */\n      dup2\n        /* \"scritturatemporanea.sol\":2356:2371  _daysOfLoan > 0 */\n      gt\n        /* \"scritturatemporanea.sol\":2348:2422  require(_daysOfLoan > 0, \"The loan period must be greater than zero days\") */\n      tag_33\n      jumpi\n      mload(0x40)\n      0x08c379a000000000000000000000000000000000000000000000000000000000\n      dup2\n      mstore\n      0x04\n      add\n      tag_34\n      swap1\n      tag_35\n      jump\t// in\n    tag_34:\n      mload(0x40)\n      dup1\n      swap2\n      sub\n      swap1\n      revert\n    tag_33:\n        /* \"scritturatemporanea.sol\":2443:2465  uint256[] memory loans */\n      0x00\n        /* \"scritturatemporanea.sol\":2468:2477  userLoans */\n      0x03\n        /* \"scritturatemporanea.sol\":2468:2489  userLoans[msg.sender] */\n      0x00\n        /* \"scritturatemporanea.sol\":2478:2488  msg.sender */\n      caller\n        /* \"scritturatemporanea.sol\":2468:2489  userLoans[msg.sender] */\n      0xffffffffffffffffffffffffffffffffffffffff\n      and\n      0xffffffffffffffffffffffffffffffffffffffff\n      and\n      dup2\n      mstore\n      0x20\n      add\n      swap1\n      dup2\n      mstore\n      0x20\n      add\n      0x00\n      keccak256\n        /* \"scritturatemporanea.sol\":2443:2489  uint256[] memory loans = userLoans[msg.sender] */\n      dup1\n      sload\n      dup1\n      0x20\n      mul\n      0x20\n      add\n      mload(0x40)\n      swap1\n      dup2\n      add\n      0x40\n      mstore\n      dup1\n      swap3\n      swap2\n      swap1\n      dup2\n      dup2\n      mstore\n      0x20\n      add\n      dup3\n      dup1\n      sload\n      dup1\n      iszero\n      tag_36\n      jumpi\n      0x20\n      mul\n      dup3\n      add\n      swap2\n      swap1\n      0x00\n      mstore\n      keccak256(0x00, 0x20)\n      swap1\n    tag_37:\n      dup2\n      sload\n      dup2\n      mstore\n      0x20\n      add\n      swap1\n      0x01\n      add\n      swap1\n      dup1\n      dup4\n      gt\n      tag_37\n      jumpi\n    tag_36:\n      pop\n      pop\n      pop\n      pop\n      pop\n      swap1\n      pop\n        /* \"scritturatemporanea.sol\":2507:2513  uint i */\n      0x00\n        /* \"scritturatemporanea.sol\":2502:2820  for (uint i = 0; i < loans.length; i++) {\r... */\n    tag_38:\n        /* \"scritturatemporanea.sol\":2523:2528  loans */\n      dup2\n        /* \"scritturatemporanea.sol\":2523:2535  loans.length */\n      mload\n        /* \"scritturatemporanea.sol\":2519:2520  i */\n      dup2\n        /* \"scritturatemporanea.sol\":2519:2535  i < loans.length */\n      lt\n        /* \"scritturatemporanea.sol\":2502:2820  for (uint i = 0; i < loans.length; i++) {\r... */\n      iszero\n      tag_39\n      jumpi\n        /* \"scritturatemporanea.sol\":2557:2571  uint256 loanId */\n      0x00\n        /* \"scritturatemporanea.sol\":2574:2579  loans */\n      dup3\n        /* \"scritturatemporanea.sol\":2580:2581  i */\n      dup3\n        /* \"scritturatemporanea.sol\":2574:2582  loans[i] */\n      dup2\n      mload\n      dup2\n      lt\n      tag_41\n      jumpi\n      mstore(0x00, 0x4e487b7100000000000000000000000000000000000000000000000000000000)\n      mstore(0x04, 0x32)\n      revert(0x00, 0x24)\n    tag_41:\n      0x20\n      mul\n      0x20\n      add\n      add\n      mload\n        /* \"scritturatemporanea.sol\":2557:2582  uint256 loanId = loans[i] */\n      swap1\n      pop\n        /* \"scritturatemporanea.sol\":2597:2617  Loan memory userLoan */\n      0x00\n        /* \"scritturatemporanea.sol\":2620:2629  loansById */\n      0x01\n        /* \"scritturatemporanea.sol\":2620:2637  loansById[loanId] */\n      0x00\n        /* \"scritturatemporanea.sol\":2630:2636  loanId */\n      dup4\n        /* \"scritturatemporanea.sol\":2620:2637  loansById[loanId] */\n      dup2\n      mstore\n      0x20\n      add\n      swap1\n      dup2\n      mstore\n      0x20\n      add\n      0x00\n      keccak256\n        /* \"scritturatemporanea.sol\":2597:2637  Loan memory userLoan = loansById[loanId] */\n      mload(0x40)\n      dup1\n      0x0120\n      add\n      0x40\n      mstore\n      swap1\n      dup2\n      0x00\n      dup3\n      add\n      sload\n      dup2\n      mstore\n      0x20\n      add\n      0x01\n      dup3\n      add\n      mload(0x40)\n      dup1\n      0x60\n      add\n      0x40\n      mstore\n      swap1\n      dup2\n      0x00\n      dup3\n      add\n      0x00\n      swap1\n      sload\n      swap1\n      0x0100\n      exp\n      swap1\n      div\n      0xffffffffffffffffffffffffffffffffffffffff\n      and\n      0xffffffffffffffffffffffffffffffffffffffff\n      and\n      0xffffffffffffffffffffffffffffffffffffffff\n      and\n      dup2\n      mstore\n      0x20\n      add\n      0x00\n      dup3\n      add\n      0x14\n      swap1\n      sload\n      swap1\n      0x0100\n      exp\n      swap1\n      div\n      0xff\n      and\n      0xff\n      and\n      0xff\n      and\n      dup2\n      mstore\n      0x20\n      add\n      0x01\n      dup3\n      add\n      dup1\n      sload\n      dup1\n      0x20\n      mul\n      0x20\n      add\n      mload(0x40)\n      swap1\n      dup2\n      add\n      0x40\n      mstore\n      dup1\n      swap3\n      swap2\n      swap1\n      dup2\n      dup2\n      mstore\n      0x20\n      add\n      dup3\n      dup1\n      sload\n      dup1\n      iszero\n      tag_42\n      jumpi\n      0x20\n      mul\n      dup3\n      add\n      swap2\n      swap1\n      0x00\n      mstore\n      keccak256(0x00, 0x20)\n      swap1\n    tag_43:\n      dup2\n      sload\n      dup2\n      mstore\n      0x20\n      add\n      swap1\n      0x01\n      add\n      swap1\n      dup1\n      dup4\n      gt\n      tag_43\n      jumpi\n    tag_42:\n      pop\n      pop\n      pop\n      pop\n      pop\n      dup2\n      mstore\n      pop\n      pop\n      dup2\n      mstore\n      0x20\n      add\n      0x03\n      dup3\n      add\n      0x00\n      swap1\n      sload\n      swap1\n      0x0100\n      exp\n      swap1\n      div\n      0xffffffffffffffffffffffffffffffffffffffff\n      and\n      0xffffffffffffffffffffffffffffffffffffffff\n      and\n      0xffffffffffffffffffffffffffffffffffffffff\n      and\n      dup2\n      mstore\n      0x20\n      add\n      0x04\n      dup3\n      add\n      sload\n      dup2\n      mstore\n      0x20\n      add\n      0x05\n      dup3\n      add\n      sload\n      dup2\n      mstore\n      0x20\n      add\n      0x06\n      dup3\n      add\n      sload\n      dup2\n      mstore\n      0x20\n      add\n      0x07\n      dup3\n      add\n      sload\n      dup2\n      mstore\n      0x20\n      add\n      0x08\n      dup3\n      add\n      sload\n      dup2\n      mstore\n      0x20\n      add\n      0x09\n      dup3\n      add\n      0x00\n      swap1\n      sload\n      swap1\n      0x0100\n      exp\n      swap1\n      div\n      0xff\n      and\n      0x03\n      dup2\n      gt\n      iszero\n      tag_44\n      jumpi\n      mstore(0x00, 0x4e487b7100000000000000000000000000000000000000000000000000000000)\n      mstore(0x04, 0x21)\n      revert(0x00, 0x24)\n    tag_44:\n      0x03\n      dup2\n      gt\n      iszero\n      tag_45\n      jumpi\n      mstore(0x00, 0x4e487b7100000000000000000000000000000000000000000000000000000000)\n      mstore(0x04, 0x21)\n      revert(0x00, 0x24)\n    tag_45:\n      dup2\n      mstore\n      pop\n      pop\n      swap1\n      pop\n        /* \"scritturatemporanea.sol\":2699:2714  LoanStatus.Paid */\n      0x02\n        /* \"scritturatemporanea.sol\":2680:2714  userLoan.status == LoanStatus.Paid */\n      0x03\n      dup2\n      gt\n      iszero\n      tag_46\n      jumpi\n      mstore(0x00, 0x4e487b7100000000000000000000000000000000000000000000000000000000)\n      mstore(0x04, 0x21)\n      revert(0x00, 0x24)\n    tag_46:\n        /* \"scritturatemporanea.sol\":2680:2688  userLoan */\n      dup2\n        /* \"scritturatemporanea.sol\":2680:2695  userLoan.status */\n      0x0100\n      add\n      mload\n        /* \"scritturatemporanea.sol\":2680:2714  userLoan.status == LoanStatus.Paid */\n      0x03\n      dup2\n      gt\n      iszero\n      tag_47\n      jumpi\n      mstore(0x00, 0x4e487b7100000000000000000000000000000000000000000000000000000000)\n      mstore(0x04, 0x21)\n      revert(0x00, 0x24)\n    tag_47:\n      eq\n        /* \"scritturatemporanea.sol\":2654:2808  require(\r... */\n      tag_48\n      jumpi\n      mload(0x40)\n      0x08c379a000000000000000000000000000000000000000000000000000000000\n      dup2\n      mstore\n      0x04\n      add\n      tag_49\n      swap1\n      tag_50\n      jump\t// in\n    tag_49:\n      mload(0x40)\n      dup1\n      swap2\n      sub\n      swap1\n      revert\n    tag_48:\n        /* \"scritturatemporanea.sol\":2502:2820  for (uint i = 0; i < loans.length; i++) {\r... */\n      pop\n      pop\n        /* \"scritturatemporanea.sol\":2537:2540  i++ */\n      dup1\n      dup1\n      tag_51\n      swap1\n      tag_52\n      jump\t// in\n    tag_51:\n      swap2\n      pop\n      pop\n        /* \"scritturatemporanea.sol\":2502:2820  for (uint i = 0; i < loans.length; i++) {\r... */\n      jump(tag_38)\n    tag_39:\n      pop\n        /* \"scritturatemporanea.sol\":2840:2851  loanCounter */\n      0x00\n      dup1\n        /* \"scritturatemporanea.sol\":2840:2853  loanCounter++ */\n      dup2\n      sload\n      dup1\n      swap3\n      swap2\n      swap1\n      tag_53\n      swap1\n      tag_52\n      jump\t// in\n    tag_53:\n      swap2\n      swap1\n      pop\n      sstore\n      pop\n        /* \"scritturatemporanea.sol\":2864:2885  uint256 numberOfLoans */\n      0x00\n        /* \"scritturatemporanea.sol\":2888:2897  userLoans */\n      0x03\n        /* \"scritturatemporanea.sol\":2888:2909  userLoans[msg.sender] */\n      0x00\n        /* \"scritturatemporanea.sol\":2898:2908  msg.sender */\n      caller\n        /* \"scritturatemporanea.sol\":2888:2909  userLoans[msg.sender] */\n      0xffffffffffffffffffffffffffffffffffffffff\n      and\n      0xffffffffffffffffffffffffffffffffffffffff\n      and\n      dup2\n      mstore\n      0x20\n      add\n      swap1\n      dup2\n      mstore\n      0x20\n      add\n      0x00\n      keccak256\n        /* \"scritturatemporanea.sol\":2888:2916  userLoans[msg.sender].length */\n      dup1\n      sload\n      swap1\n      pop\n        /* \"scritturatemporanea.sol\":2864:2916  uint256 numberOfLoans = userLoans[msg.sender].length */\n      swap1\n      pop\n        /* \"scritturatemporanea.sol\":2927:2952  uint8 borrowerCreditScore */\n      0x00\n        /* \"scritturatemporanea.sol\":3030:3031  0 */\n      dup1\n        /* \"scritturatemporanea.sol\":3013:3026  numberOfLoans */\n      dup3\n        /* \"scritturatemporanea.sol\":3013:3031  numberOfLoans == 0 */\n      eq\n        /* \"scritturatemporanea.sol\":3009:3296  if (numberOfLoans == 0) {\r... */\n      iszero\n      tag_54\n      jumpi\n        /* \"scritturatemporanea.sol\":3070:3071  1 */\n      0x01\n        /* \"scritturatemporanea.sol\":3048:3071  borrowerCreditScore = 1 */\n      swap1\n      pop\n        /* \"scritturatemporanea.sol\":3009:3296  if (numberOfLoans == 0) {\r... */\n      jump(tag_55)\n    tag_54:\n        /* \"scritturatemporanea.sol\":3195:3208  loanBorrowers */\n      0x02\n        /* \"scritturatemporanea.sol\":3195:3220  loanBorrowers[msg.sender] */\n      0x00\n        /* \"scritturatemporanea.sol\":3209:3219  msg.sender */\n      caller\n        /* \"scritturatemporanea.sol\":3195:3220  loanBorrowers[msg.sender] */\n      0xffffffffffffffffffffffffffffffffffffffff\n      and\n      0xffffffffffffffffffffffffffffffffffffffff\n      and\n      dup2\n      mstore\n      0x20\n      add\n      swap1\n      dup2\n      mstore\n      0x20\n      add\n      0x00\n      keccak256\n        /* \"scritturatemporanea.sol\":3195:3232  loanBorrowers[msg.sender].creditScore */\n      0x00\n      add\n      0x14\n      swap1\n      sload\n      swap1\n      0x0100\n      exp\n      swap1\n      div\n      0xff\n      and\n        /* \"scritturatemporanea.sol\":3173:3232  borrowerCreditScore = loanBorrowers[msg.sender].creditScore */\n      swap1\n      pop\n        /* \"scritturatemporanea.sol\":3009:3296  if (numberOfLoans == 0) {\r... */\n    tag_55:\n        /* \"scritturatemporanea.sol\":3309:3339  uint256 annualizedInterestRate */\n      0x00\n        /* \"scritturatemporanea.sol\":3341:3370  uint256 annualizedPenaltyRate */\n      dup1\n        /* \"scritturatemporanea.sol\":3374:3417  loanInterestCalculator(borrowerCreditScore) */\n      tag_56\n        /* \"scritturatemporanea.sol\":3397:3416  borrowerCreditScore */\n      dup4\n        /* \"scritturatemporanea.sol\":3374:3396  loanInterestCalculator */\n      tag_57\n        /* \"scritturatemporanea.sol\":3374:3417  loanInterestCalculator(borrowerCreditScore) */\n      jump\t// in\n    tag_56:\n        /* \"scritturatemporanea.sol\":3308:3417  (uint256 annualizedInterestRate, uint256 annualizedPenaltyRate) = loanInterestCalculator(borrowerCreditScore) */\n      swap2\n      pop\n      swap2\n      pop\n        /* \"scritturatemporanea.sol\":3465:3484  Loan memory newLoan */\n      0x00\n        /* \"scritturatemporanea.sol\":3487:4043  Loan({\r... */\n      mload(0x40)\n      dup1\n      0x0120\n      add\n      0x40\n      mstore\n      dup1\n        /* \"scritturatemporanea.sol\":3515:3526  loanCounter */\n      sload(0x00)\n        /* \"scritturatemporanea.sol\":3487:4043  Loan({\r... */\n      dup2\n      mstore\n      0x20\n      add\n        /* \"scritturatemporanea.sol\":3558:3626  LoanBorrower(msg.sender, borrowerCreditScore, userLoans[msg.sender]) */\n      mload(0x40)\n      dup1\n      0x60\n      add\n      0x40\n      mstore\n      dup1\n        /* \"scritturatemporanea.sol\":3571:3581  msg.sender */\n      caller\n        /* \"scritturatemporanea.sol\":3558:3626  LoanBorrower(msg.sender, borrowerCreditScore, userLoans[msg.sender]) */\n      0xffffffffffffffffffffffffffffffffffffffff\n      and\n      dup2\n      mstore\n      0x20\n      add\n        /* \"scritturatemporanea.sol\":3583:3602  borrowerCreditScore */\n      dup8\n        /* \"scritturatemporanea.sol\":3558:3626  LoanBorrower(msg.sender, borrowerCreditScore, userLoans[msg.sender]) */\n      0xff\n      and\n      dup2\n      mstore\n      0x20\n      add\n        /* \"scritturatemporanea.sol\":3604:3613  userLoans */\n      0x03\n        /* \"scritturatemporanea.sol\":3604:3625  userLoans[msg.sender] */\n      0x00\n        /* \"scritturatemporanea.sol\":3614:3624  msg.sender */\n      caller\n        /* \"scritturatemporanea.sol\":3604:3625  userLoans[msg.sender] */\n      0xffffffffffffffffffffffffffffffffffffffff\n      and\n      0xffffffffffffffffffffffffffffffffffffffff\n      and\n      dup2\n      mstore\n      0x20\n      add\n      swap1\n      dup2\n      mstore\n      0x20\n      add\n      0x00\n      keccak256\n        /* \"scritturatemporanea.sol\":3558:3626  LoanBorrower(msg.sender, borrowerCreditScore, userLoans[msg.sender]) */\n      dup1\n      sload\n      dup1\n      0x20\n      mul\n      0x20\n      add\n      mload(0x40)\n      swap1\n      dup2\n      add\n      0x40\n      mstore\n      dup1\n      swap3\n      swap2\n      swap1\n      dup2\n      dup2\n      mstore\n      0x20\n      add\n      dup3\n      dup1\n      sload\n      dup1\n      iszero\n      tag_58\n      jumpi\n      0x20\n      mul\n      dup3\n      add\n      swap2\n      swap1\n      0x00\n      mstore\n      keccak256(0x00, 0x20)\n      swap1\n    tag_59:\n      dup2\n      sload\n      dup2\n      mstore\n      0x20\n      add\n      swap1\n      0x01\n      add\n      swap1\n      dup1\n      dup4\n      gt\n      tag_59\n      jumpi\n    tag_58:\n      pop\n      pop\n      pop\n      pop\n      pop\n      dup2\n      mstore\n      pop\n        /* \"scritturatemporanea.sol\":3487:4043  Loan({\r... */\n      dup2\n      mstore\n      0x20\n      add\n        /* \"scritturatemporanea.sol\":3665:3666  0 */\n      0x00\n        /* \"scritturatemporanea.sol\":3487:4043  Loan({\r... */\n      0xffffffffffffffffffffffffffffffffffffffff\n      and\n      dup2\n      mstore\n      0x20\n      add\n        /* \"scritturatemporanea.sol\":3692:3699  _amount */\n      dup10\n        /* \"scritturatemporanea.sol\":3487:4043  Loan({\r... */\n      dup2\n      mstore\n      0x20\n      add\n        /* \"scritturatemporanea.sol\":3728:3750  annualizedInterestRate */\n      dup5\n        /* \"scritturatemporanea.sol\":3487:4043  Loan({\r... */\n      dup2\n      mstore\n      0x20\n      add\n        /* \"scritturatemporanea.sol\":3780:3801  annualizedPenaltyRate */\n      dup4\n        /* \"scritturatemporanea.sol\":3487:4043  Loan({\r... */\n      dup2\n      mstore\n      0x20\n      add\n        /* \"scritturatemporanea.sol\":3829:3844  block.timestamp */\n      timestamp\n        /* \"scritturatemporanea.sol\":3487:4043  Loan({\r... */\n      dup2\n      mstore\n      0x20\n      add\n        /* \"scritturatemporanea.sol\":3950:3956  1 days */\n      0x015180\n        /* \"scritturatemporanea.sol\":3936:3947  _daysOfLoan */\n      dup10\n        /* \"scritturatemporanea.sol\":3936:3956  _daysOfLoan * 1 days */\n      tag_60\n      swap2\n      swap1\n      tag_61\n      jump\t// in\n    tag_60:\n        /* \"scritturatemporanea.sol\":3917:3932  block.timestamp */\n      timestamp\n        /* \"scritturatemporanea.sol\":3917:3957  block.timestamp + (_daysOfLoan * 1 days) */\n      tag_62\n      swap2\n      swap1\n      tag_63\n      jump\t// in\n    tag_62:\n        /* \"scritturatemporanea.sol\":3487:4043  Loan({\r... */\n      dup2\n      mstore\n      0x20\n      add\n        /* \"scritturatemporanea.sol\":4012:4030  LoanStatus.Pending */\n      0x01\n        /* \"scritturatemporanea.sol\":3487:4043  Loan({\r... */\n      0x03\n      dup2\n      gt\n      iszero\n      tag_64\n      jumpi\n      mstore(0x00, 0x4e487b7100000000000000000000000000000000000000000000000000000000)\n      mstore(0x04, 0x21)\n      revert(0x00, 0x24)\n    tag_64:\n      dup2\n      mstore\n      pop\n        /* \"scritturatemporanea.sol\":3465:4043  Loan memory newLoan = Loan({\r... */\n      swap1\n      pop\n        /* \"scritturatemporanea.sol\":4133:4140  newLoan */\n      dup1\n        /* \"scritturatemporanea.sol\":4108:4117  loansById */\n      0x01\n        /* \"scritturatemporanea.sol\":4108:4130  loansById[loanCounter] */\n      0x00\n        /* \"scritturatemporanea.sol\":4118:4129  loanCounter */\n      dup1\n      sload\n        /* \"scritturatemporanea.sol\":4108:4130  loansById[loanCounter] */\n      dup2\n      mstore\n      0x20\n      add\n      swap1\n      dup2\n      mstore\n      0x20\n      add\n      0x00\n      keccak256\n        /* \"scritturatemporanea.sol\":4108:4140  loansById[loanCounter] = newLoan */\n      0x00\n      dup3\n      add\n      mload\n      dup2\n      0x00\n      add\n      sstore\n      0x20\n      dup3\n      add\n      mload\n      dup2\n      0x01\n      add\n      0x00\n      dup3\n      add\n      mload\n      dup2\n      0x00\n      add\n      exp(0x0100, 0x00)\n      dup2\n      sload\n      dup2\n      0xffffffffffffffffffffffffffffffffffffffff\n      mul\n      not\n      and\n      swap1\n      dup4\n      0xffffffffffffffffffffffffffffffffffffffff\n      and\n      mul\n      or\n      swap1\n      sstore\n      pop\n      0x20\n      dup3\n      add\n      mload\n      dup2\n      0x00\n      add\n      exp(0x0100, 0x14)\n      dup2\n      sload\n      dup2\n      0xff\n      mul\n      not\n      and\n      swap1\n      dup4\n      0xff\n      and\n      mul\n      or\n      swap1\n      sstore\n      pop\n      0x40\n      dup3\n      add\n      mload\n      dup2\n      0x01\n      add\n      swap1\n      dup1\n      mload\n      swap1\n      0x20\n      add\n      swap1\n      tag_65\n      swap3\n      swap2\n      swap1\n      tag_66\n      jump\t// in\n    tag_65:\n      pop\n      pop\n      pop\n      0x40\n      dup3\n      add\n      mload\n      dup2\n      0x03\n      add\n      exp(0x0100, 0x00)\n      dup2\n      sload\n      dup2\n      0xffffffffffffffffffffffffffffffffffffffff\n      mul\n      not\n      and\n      swap1\n      dup4\n      0xffffffffffffffffffffffffffffffffffffffff\n      and\n      mul\n      or\n      swap1\n      sstore\n      pop\n      0x60\n      dup3\n      add\n      mload\n      dup2\n      0x04\n      add\n      sstore\n      0x80\n      dup3\n      add\n      mload\n      dup2\n      0x05\n      add\n      sstore\n      0xa0\n      dup3\n      add\n      mload\n      dup2\n      0x06\n      add\n      sstore\n      0xc0\n      dup3\n      add\n      mload\n      dup2\n      0x07\n      add\n      sstore\n      0xe0\n      dup3\n      add\n      mload\n      dup2\n      0x08\n      add\n      sstore\n      0x0100\n      dup3\n      add\n      mload\n      dup2\n      0x09\n      add\n      exp(0x0100, 0x00)\n      dup2\n      sload\n      dup2\n      0xff\n      mul\n      not\n      and\n      swap1\n      dup4\n      0x03\n      dup2\n      gt\n      iszero\n      tag_67\n      jumpi\n      mstore(0x00, 0x4e487b7100000000000000000000000000000000000000000000000000000000)\n      mstore(0x04, 0x21)\n      revert(0x00, 0x24)\n    tag_67:\n      mul\n      or\n      swap1\n      sstore\n      pop\n      swap1\n      pop\n      pop\n        /* \"scritturatemporanea.sol\":4226:4235  userLoans */\n      0x03\n        /* \"scritturatemporanea.sol\":4226:4247  userLoans[msg.sender] */\n      0x00\n        /* \"scritturatemporanea.sol\":4236:4246  msg.sender */\n      caller\n        /* \"scritturatemporanea.sol\":4226:4247  userLoans[msg.sender] */\n      0xffffffffffffffffffffffffffffffffffffffff\n      and\n      0xffffffffffffffffffffffffffffffffffffffff\n      and\n      dup2\n      mstore\n      0x20\n      add\n      swap1\n      dup2\n      mstore\n      0x20\n      add\n      0x00\n      keccak256\n        /* \"scritturatemporanea.sol\":4253:4264  loanCounter */\n      sload(0x00)\n        /* \"scritturatemporanea.sol\":4226:4265  userLoans[msg.sender].push(loanCounter) */\n      swap1\n      dup1\n      0x01\n      dup2\n      sload\n      add\n      dup1\n      dup3\n      sstore\n      dup1\n      swap2\n      pop\n      pop\n      0x01\n      swap1\n      sub\n      swap1\n      0x00\n      mstore\n      keccak256(0x00, 0x20)\n      add\n      0x00\n      swap1\n      swap2\n      swap1\n      swap2\n      swap1\n      swap2\n      pop\n      sstore\n        /* \"scritturatemporanea.sol\":4325:4392  LoanRequested(loanCounter, msg.sender, _amount, LoanStatus.Pending) */\n      0x0b526fa2e029cdcdf2b742ee24bb87d34106dc9ea1dd61cf012bceafa57d31e5\n        /* \"scritturatemporanea.sol\":4339:4350  loanCounter */\n      sload(0x00)\n        /* \"scritturatemporanea.sol\":4352:4362  msg.sender */\n      caller\n        /* \"scritturatemporanea.sol\":4364:4371  _amount */\n      dup11\n        /* \"scritturatemporanea.sol\":4373:4391  LoanStatus.Pending */\n      0x01\n        /* \"scritturatemporanea.sol\":4325:4392  LoanRequested(loanCounter, msg.sender, _amount, LoanStatus.Pending) */\n      mload(0x40)\n      tag_69\n      swap5\n      swap4\n      swap3\n      swap2\n      swap1\n      tag_70\n      jump\t// in\n    tag_69:\n      mload(0x40)\n      dup1\n      swap2\n      sub\n      swap1\n      log1\n        /* \"scritturatemporanea.sol\":2175:4400  function requestLoan(uint256 _amount, uint256 _daysOfLoan) public {\r... */\n      pop\n      pop\n      pop\n      pop\n      pop\n      pop\n      pop\n      pop\n      jump\t// out\n        /* \"scritturatemporanea.sol\":827:880  mapping(address => LoanBorrower) public loanBorrowers */\n    tag_14:\n      mstore(0x20, 0x02)\n      dup1\n      0x00\n      mstore\n      keccak256(0x00, 0x40)\n      0x00\n      swap2\n      pop\n      swap1\n      pop\n      dup1\n      0x00\n      add\n      0x00\n      swap1\n      sload\n      swap1\n      0x0100\n      exp\n      swap1\n      div\n      0xffffffffffffffffffffffffffffffffffffffff\n      and\n      swap1\n      dup1\n      0x00\n      add\n      0x14\n      swap1\n      sload\n      swap1\n      0x0100\n      exp\n      swap1\n      div\n      0xff\n      and\n      swap1\n      pop\n      dup3\n      jump\t// out\n        /* \"scritturatemporanea.sol\":921:967  mapping(address => uint256[]) public userLoans */\n    tag_20:\n      mstore(0x20, 0x03)\n      dup2\n      0x00\n      mstore\n      keccak256(0x00, 0x40)\n      dup2\n      dup2\n      sload\n      dup2\n      lt\n      tag_71\n      jumpi\n      0x00\n      dup1\n      revert\n    tag_71:\n      swap1\n      0x00\n      mstore\n      keccak256(0x00, 0x20)\n      add\n      0x00\n      swap2\n      pop\n      swap2\n      pop\n      pop\n      sload\n      dup2\n      jump\t// out\n        /* \"scritturatemporanea.sol\":779:820  mapping(uint256 => Loan) public loansById */\n    tag_26:\n      mstore(0x20, 0x01)\n      dup1\n      0x00\n      mstore\n      keccak256(0x00, 0x40)\n      0x00\n      swap2\n      pop\n      swap1\n      pop\n      dup1\n      0x00\n      add\n      sload\n      swap1\n      dup1\n      0x01\n      add\n      mload(0x40)\n      dup1\n      0x60\n      add\n      0x40\n      mstore\n      swap1\n      dup2\n      0x00\n      dup3\n      add\n      0x00\n      swap1\n      sload\n      swap1\n      0x0100\n      exp\n      swap1\n      div\n      0xffffffffffffffffffffffffffffffffffffffff\n      and\n      0xffffffffffffffffffffffffffffffffffffffff\n      and\n      0xffffffffffffffffffffffffffffffffffffffff\n      and\n      dup2\n      mstore\n      0x20\n      add\n      0x00\n      dup3\n      add\n      0x14\n      swap1\n      sload\n      swap1\n      0x0100\n      exp\n      swap1\n      div\n      0xff\n      and\n      0xff\n      and\n      0xff\n      and\n      dup2\n      mstore\n      0x20\n      add\n      0x01\n      dup3\n      add\n      dup1\n      sload\n      dup1\n      0x20\n      mul\n      0x20\n      add\n      mload(0x40)\n      swap1\n      dup2\n      add\n      0x40\n      mstore\n      dup1\n      swap3\n      swap2\n      swap1\n      dup2\n      dup2\n      mstore\n      0x20\n      add\n      dup3\n      dup1\n      sload\n      dup1\n      iszero\n      tag_73\n      jumpi\n      0x20\n      mul\n      dup3\n      add\n      swap2\n      swap1\n      0x00\n      mstore\n      keccak256(0x00, 0x20)\n      swap1\n    tag_74:\n      dup2\n      sload\n      dup2\n      mstore\n      0x20\n      add\n      swap1\n      0x01\n      add\n      swap1\n      dup1\n      dup4\n      gt\n      tag_74\n      jumpi\n    tag_73:\n      pop\n      pop\n      pop\n      pop\n      pop\n      dup2\n      mstore\n      pop\n      pop\n      swap1\n      dup1\n      0x03\n      add\n      0x00\n      swap1\n      sload\n      swap1\n      0x0100\n      exp\n      swap1\n      div\n      0xffffffffffffffffffffffffffffffffffffffff\n      and\n      swap1\n      dup1\n      0x04\n      add\n      sload\n      swap1\n      dup1\n      0x05\n      add\n      sload\n      swap1\n      dup1\n      0x06\n      add\n      sload\n      swap1\n      dup1\n      0x07\n      add\n      sload\n      swap1\n      dup1\n      0x08\n      add\n      sload\n      swap1\n      dup1\n      0x09\n      add\n      0x00\n      swap1\n      sload\n      swap1\n      0x0100\n      exp\n      swap1\n      div\n      0xff\n      and\n      swap1\n      pop\n      dup10\n      jump\t// out\n        /* \"scritturatemporanea.sol\":1106:2163  function loanInterestCalculator(uint8 _borrowerCreditScore) private pure returns (uint256, uint256) {\r... */\n    tag_57:\n        /* \"scritturatemporanea.sol\":1188:1195  uint256 */\n      0x00\n        /* \"scritturatemporanea.sol\":1197:1204  uint256 */\n      dup1\n        /* \"scritturatemporanea.sol\":1217:1247  uint256 annualizedInterestRate */\n      0x00\n        /* \"scritturatemporanea.sol\":1258:1287  uint256 annualizedPenaltyRate */\n      dup1\n        /* \"scritturatemporanea.sol\":1328:1329  0 */\n      0x00\n        /* \"scritturatemporanea.sol\":1304:1324  _borrowerCreditScore */\n      dup6\n        /* \"scritturatemporanea.sol\":1304:1329  _borrowerCreditScore == 0 */\n      0xff\n      and\n      eq\n        /* \"scritturatemporanea.sol\":1300:2089  if (_borrowerCreditScore == 0) {\r... */\n      iszero\n      tag_76\n      jumpi\n        /* \"scritturatemporanea.sol\":1371:1375  2000 */\n      0x07d0\n        /* \"scritturatemporanea.sol\":1346:1375  annualizedInterestRate = 2000 */\n      swap2\n      pop\n        /* \"scritturatemporanea.sol\":1421:1425  3000 */\n      0x0bb8\n        /* \"scritturatemporanea.sol\":1397:1425  annualizedPenaltyRate = 3000 */\n      swap1\n      pop\n        /* \"scritturatemporanea.sol\":1300:2089  if (_borrowerCreditScore == 0) {\r... */\n      jump(tag_77)\n    tag_76:\n        /* \"scritturatemporanea.sol\":1489:1490  1 */\n      0x01\n        /* \"scritturatemporanea.sol\":1465:1485  _borrowerCreditScore */\n      dup6\n        /* \"scritturatemporanea.sol\":1465:1490  _borrowerCreditScore == 1 */\n      0xff\n      and\n      eq\n        /* \"scritturatemporanea.sol\":1461:2089  if (_borrowerCreditScore == 1) {\r... */\n      iszero\n      tag_78\n      jumpi\n        /* \"scritturatemporanea.sol\":1532:1536  1200 */\n      0x04b0\n        /* \"scritturatemporanea.sol\":1507:1536  annualizedInterestRate = 1200 */\n      swap2\n      pop\n        /* \"scritturatemporanea.sol\":1582:1586  2000 */\n      0x07d0\n        /* \"scritturatemporanea.sol\":1558:1586  annualizedPenaltyRate = 2000 */\n      swap1\n      pop\n        /* \"scritturatemporanea.sol\":1461:2089  if (_borrowerCreditScore == 1) {\r... */\n      jump(tag_79)\n    tag_78:\n        /* \"scritturatemporanea.sol\":1650:1651  2 */\n      0x02\n        /* \"scritturatemporanea.sol\":1626:1646  _borrowerCreditScore */\n      dup6\n        /* \"scritturatemporanea.sol\":1626:1651  _borrowerCreditScore == 2 */\n      0xff\n      and\n      eq\n        /* \"scritturatemporanea.sol\":1622:2089  if (_borrowerCreditScore == 2) {\r... */\n      iszero\n      tag_80\n      jumpi\n        /* \"scritturatemporanea.sol\":1693:1697  1000 */\n      0x03e8\n        /* \"scritturatemporanea.sol\":1668:1697  annualizedInterestRate = 1000 */\n      swap2\n      pop\n        /* \"scritturatemporanea.sol\":1743:1747  1500 */\n      0x05dc\n        /* \"scritturatemporanea.sol\":1719:1747  annualizedPenaltyRate = 1500 */\n      swap1\n      pop\n        /* \"scritturatemporanea.sol\":1622:2089  if (_borrowerCreditScore == 2) {\r... */\n      jump(tag_81)\n    tag_80:\n        /* \"scritturatemporanea.sol\":1812:1813  3 */\n      0x03\n        /* \"scritturatemporanea.sol\":1788:1808  _borrowerCreditScore */\n      dup6\n        /* \"scritturatemporanea.sol\":1788:1813  _borrowerCreditScore == 3 */\n      0xff\n      and\n      eq\n        /* \"scritturatemporanea.sol\":1784:2089  if (_borrowerCreditScore == 3) {\r... */\n      iszero\n      tag_82\n      jumpi\n        /* \"scritturatemporanea.sol\":1855:1858  800 */\n      0x0320\n        /* \"scritturatemporanea.sol\":1830:1858  annualizedInterestRate = 800 */\n      swap2\n      pop\n        /* \"scritturatemporanea.sol\":1904:1908  1300 */\n      0x0514\n        /* \"scritturatemporanea.sol\":1880:1908  annualizedPenaltyRate = 1300 */\n      swap1\n      pop\n        /* \"scritturatemporanea.sol\":1784:2089  if (_borrowerCreditScore == 3) {\r... */\n      jump(tag_83)\n    tag_82:\n        /* \"scritturatemporanea.sol\":1972:1973  4 */\n      0x04\n        /* \"scritturatemporanea.sol\":1948:1968  _borrowerCreditScore */\n      dup6\n        /* \"scritturatemporanea.sol\":1948:1973  _borrowerCreditScore >= 4 */\n      0xff\n      and\n      lt\n        /* \"scritturatemporanea.sol\":1944:2089  if (_borrowerCreditScore >= 4) {  \r... */\n      tag_84\n      jumpi\n        /* \"scritturatemporanea.sol\":2017:2020  600 */\n      0x0258\n        /* \"scritturatemporanea.sol\":1992:2020  annualizedInterestRate = 600 */\n      swap2\n      pop\n        /* \"scritturatemporanea.sol\":2066:2069  900 */\n      0x0384\n        /* \"scritturatemporanea.sol\":2042:2069  annualizedPenaltyRate = 900 */\n      swap1\n      pop\n        /* \"scritturatemporanea.sol\":1944:2089  if (_borrowerCreditScore >= 4) {  \r... */\n    tag_84:\n        /* \"scritturatemporanea.sol\":1784:2089  if (_borrowerCreditScore == 3) {\r... */\n    tag_83:\n        /* \"scritturatemporanea.sol\":1622:2089  if (_borrowerCreditScore == 2) {\r... */\n    tag_81:\n        /* \"scritturatemporanea.sol\":1461:2089  if (_borrowerCreditScore == 1) {\r... */\n    tag_79:\n        /* \"scritturatemporanea.sol\":1300:2089  if (_borrowerCreditScore == 0) {\r... */\n    tag_77:\n        /* \"scritturatemporanea.sol\":2109:2131  annualizedInterestRate */\n      dup2\n        /* \"scritturatemporanea.sol\":2133:2154  annualizedPenaltyRate */\n      dup2\n        /* \"scritturatemporanea.sol\":2101:2155  return (annualizedInterestRate, annualizedPenaltyRate) */\n      swap4\n      pop\n      swap4\n      pop\n      pop\n      pop\n        /* \"scritturatemporanea.sol\":1106:2163  function loanInterestCalculator(uint8 _borrowerCreditScore) private pure returns (uint256, uint256) {\r... */\n      swap2\n      pop\n      swap2\n      jump\t// out\n    tag_66:\n      dup3\n      dup1\n      sload\n      dup3\n      dup3\n      sstore\n      swap1\n      0x00\n      mstore\n      keccak256(0x00, 0x20)\n      swap1\n      dup2\n      add\n      swap3\n      dup3\n      iszero\n      tag_85\n      jumpi\n      swap2\n      0x20\n      mul\n      dup3\n      add\n    tag_86:\n      dup3\n      dup2\n      gt\n      iszero\n      tag_87\n      jumpi\n      dup3\n      mload\n      dup3\n      sstore\n      swap2\n      0x20\n      add\n      swap2\n      swap1\n      0x01\n      add\n      swap1\n      jump(tag_86)\n    tag_87:\n    tag_85:\n      pop\n      swap1\n      pop\n      tag_88\n      swap2\n      swap1\n      tag_89\n      jump\t// in\n    tag_88:\n      pop\n      swap1\n      jump\t// out\n    tag_89:\n    tag_90:\n      dup1\n      dup3\n      gt\n      iszero\n      tag_91\n      jumpi\n      0x00\n      dup2\n      0x00\n      swap1\n      sstore\n      pop\n      0x01\n      add\n      jump(tag_90)\n    tag_91:\n      pop\n      swap1\n      jump\t// out\n        /* \"#utility.yul\":7:146   */\n    tag_93:\n      0x00\n        /* \"#utility.yul\":91:97   */\n      dup2\n        /* \"#utility.yul\":78:98   */\n      calldataload\n        /* \"#utility.yul\":69:98   */\n      swap1\n      pop\n        /* \"#utility.yul\":107:140   */\n      tag_95\n        /* \"#utility.yul\":134:139   */\n      dup2\n        /* \"#utility.yul\":107:140   */\n      tag_96\n      jump\t// in\n    tag_95:\n        /* \"#utility.yul\":59:146   */\n      swap3\n      swap2\n      pop\n      pop\n      jump\t// out\n        /* \"#utility.yul\":152:291   */\n    tag_97:\n      0x00\n        /* \"#utility.yul\":236:242   */\n      dup2\n        /* \"#utility.yul\":223:243   */\n      calldataload\n        /* \"#utility.yul\":214:243   */\n      swap1\n      pop\n        /* \"#utility.yul\":252:285   */\n      tag_99\n        /* \"#utility.yul\":279:284   */\n      dup2\n        /* \"#utility.yul\":252:285   */\n      tag_100\n      jump\t// in\n    tag_99:\n        /* \"#utility.yul\":204:291   */\n      swap3\n      swap2\n      pop\n      pop\n      jump\t// out\n        /* \"#utility.yul\":297:559   */\n    tag_13:\n      0x00\n        /* \"#utility.yul\":405:407   */\n      0x20\n        /* \"#utility.yul\":393:402   */\n      dup3\n        /* \"#utility.yul\":384:391   */\n      dup5\n        /* \"#utility.yul\":380:403   */\n      sub\n        /* \"#utility.yul\":376:408   */\n      slt\n        /* \"#utility.yul\":373:375   */\n      iszero\n      tag_102\n      jumpi\n        /* \"#utility.yul\":421:422   */\n      0x00\n        /* \"#utility.yul\":418:419   */\n      dup1\n        /* \"#utility.yul\":411:423   */\n      revert\n        /* \"#utility.yul\":373:375   */\n    tag_102:\n        /* \"#utility.yul\":464:465   */\n      0x00\n        /* \"#utility.yul\":489:542   */\n      tag_103\n        /* \"#utility.yul\":534:541   */\n      dup5\n        /* \"#utility.yul\":525:531   */\n      dup3\n        /* \"#utility.yul\":514:523   */\n      dup6\n        /* \"#utility.yul\":510:532   */\n      add\n        /* \"#utility.yul\":489:542   */\n      tag_93\n      jump\t// in\n    tag_103:\n        /* \"#utility.yul\":479:542   */\n      swap2\n      pop\n        /* \"#utility.yul\":435:552   */\n      pop\n        /* \"#utility.yul\":363:559   */\n      swap3\n      swap2\n      pop\n      pop\n      jump\t// out\n        /* \"#utility.yul\":565:972   */\n    tag_19:\n      0x00\n      dup1\n        /* \"#utility.yul\":690:692   */\n      0x40\n        /* \"#utility.yul\":678:687   */\n      dup4\n        /* \"#utility.yul\":669:676   */\n      dup6\n        /* \"#utility.yul\":665:688   */\n      sub\n        /* \"#utility.yul\":661:693   */\n      slt\n        /* \"#utility.yul\":658:660   */\n      iszero\n      tag_105\n      jumpi\n        /* \"#utility.yul\":706:707   */\n      0x00\n        /* \"#utility.yul\":703:704   */\n      dup1\n        /* \"#utility.yul\":696:708   */\n      revert\n        /* \"#utility.yul\":658:660   */\n    tag_105:\n        /* \"#utility.yul\":749:750   */\n      0x00\n        /* \"#utility.yul\":774:827   */\n      tag_106\n        /* \"#utility.yul\":819:826   */\n      dup6\n        /* \"#utility.yul\":810:816   */\n      dup3\n        /* \"#utility.yul\":799:808   */\n      dup7\n        /* \"#utility.yul\":795:817   */\n      add\n        /* \"#utility.yul\":774:827   */\n      tag_93\n      jump\t// in\n    tag_106:\n        /* \"#utility.yul\":764:827   */\n      swap3\n      pop\n        /* \"#utility.yul\":720:837   */\n      pop\n        /* \"#utility.yul\":876:878   */\n      0x20\n        /* \"#utility.yul\":902:955   */\n      tag_107\n        /* \"#utility.yul\":947:954   */\n      dup6\n        /* \"#utility.yul\":938:944   */\n      dup3\n        /* \"#utility.yul\":927:936   */\n      dup7\n        /* \"#utility.yul\":923:945   */\n      add\n        /* \"#utility.yul\":902:955   */\n      tag_97\n      jump\t// in\n    tag_107:\n        /* \"#utility.yul\":892:955   */\n      swap2\n      pop\n        /* \"#utility.yul\":847:965   */\n      pop\n        /* \"#utility.yul\":648:972   */\n      swap3\n      pop\n      swap3\n      swap1\n      pop\n      jump\t// out\n        /* \"#utility.yul\":978:1240   */\n    tag_25:\n      0x00\n        /* \"#utility.yul\":1086:1088   */\n      0x20\n        /* \"#utility.yul\":1074:1083   */\n      dup3\n        /* \"#utility.yul\":1065:1072   */\n      dup5\n        /* \"#utility.yul\":1061:1084   */\n      sub\n        /* \"#utility.yul\":1057:1089   */\n      slt\n        /* \"#utility.yul\":1054:1056   */\n      iszero\n      tag_109\n      jumpi\n        /* \"#utility.yul\":1102:1103   */\n      0x00\n        /* \"#utility.yul\":1099:1100   */\n      dup1\n        /* \"#utility.yul\":1092:1104   */\n      revert\n        /* \"#utility.yul\":1054:1056   */\n    tag_109:\n        /* \"#utility.yul\":1145:1146   */\n      0x00\n        /* \"#utility.yul\":1170:1223   */\n      tag_110\n        /* \"#utility.yul\":1215:1222   */\n      dup5\n        /* \"#utility.yul\":1206:1212   */\n      dup3\n        /* \"#utility.yul\":1195:1204   */\n      dup6\n        /* \"#utility.yul\":1191:1213   */\n      add\n        /* \"#utility.yul\":1170:1223   */\n      tag_97\n      jump\t// in\n    tag_110:\n        /* \"#utility.yul\":1160:1223   */\n      swap2\n      pop\n        /* \"#utility.yul\":1116:1233   */\n      pop\n        /* \"#utility.yul\":1044:1240   */\n      swap3\n      swap2\n      pop\n      pop\n      jump\t// out\n        /* \"#utility.yul\":1246:1653   */\n    tag_9:\n      0x00\n      dup1\n        /* \"#utility.yul\":1371:1373   */\n      0x40\n        /* \"#utility.yul\":1359:1368   */\n      dup4\n        /* \"#utility.yul\":1350:1357   */\n      dup6\n        /* \"#utility.yul\":1346:1369   */\n      sub\n        /* \"#utility.yul\":1342:1374   */\n      slt\n        /* \"#utility.yul\":1339:1341   */\n      iszero\n      tag_112\n      jumpi\n        /* \"#utility.yul\":1387:1388   */\n      0x00\n        /* \"#utility.yul\":1384:1385   */\n      dup1\n        /* \"#utility.yul\":1377:1389   */\n      revert\n        /* \"#utility.yul\":1339:1341   */\n    tag_112:\n        /* \"#utility.yul\":1430:1431   */\n      0x00\n        /* \"#utility.yul\":1455:1508   */\n      tag_113\n        /* \"#utility.yul\":1500:1507   */\n      dup6\n        /* \"#utility.yul\":1491:1497   */\n      dup3\n        /* \"#utility.yul\":1480:1489   */\n      dup7\n        /* \"#utility.yul\":1476:1498   */\n      add\n        /* \"#utility.yul\":1455:1508   */\n      tag_97\n      jump\t// in\n    tag_113:\n        /* \"#utility.yul\":1445:1508   */\n      swap3\n      pop\n        /* \"#utility.yul\":1401:1518   */\n      pop\n        /* \"#utility.yul\":1557:1559   */\n      0x20\n        /* \"#utility.yul\":1583:1636   */\n      tag_114\n        /* \"#utility.yul\":1628:1635   */\n      dup6\n        /* \"#utility.yul\":1619:1625   */\n      dup3\n        /* \"#utility.yul\":1608:1617   */\n      dup7\n        /* \"#utility.yul\":1604:1626   */\n      add\n        /* \"#utility.yul\":1583:1636   */\n      tag_97\n      jump\t// in\n    tag_114:\n        /* \"#utility.yul\":1573:1636   */\n      swap2\n      pop\n        /* \"#utility.yul\":1528:1646   */\n      pop\n        /* \"#utility.yul\":1329:1653   */\n      swap3\n      pop\n      swap3\n      swap1\n      pop\n      jump\t// out\n        /* \"#utility.yul\":1659:1838   */\n    tag_115:\n      0x00\n        /* \"#utility.yul\":1749:1795   */\n      tag_117\n        /* \"#utility.yul\":1791:1794   */\n      dup4\n        /* \"#utility.yul\":1783:1789   */\n      dup4\n        /* \"#utility.yul\":1749:1795   */\n      tag_118\n      jump\t// in\n    tag_117:\n        /* \"#utility.yul\":1827:1831   */\n      0x20\n        /* \"#utility.yul\":1822:1825   */\n      dup4\n        /* \"#utility.yul\":1818:1832   */\n      add\n        /* \"#utility.yul\":1804:1832   */\n      swap1\n      pop\n        /* \"#utility.yul\":1739:1838   */\n      swap3\n      swap2\n      pop\n      pop\n      jump\t// out\n        /* \"#utility.yul\":1844:1952   */\n    tag_119:\n        /* \"#utility.yul\":1921:1945   */\n      tag_121\n        /* \"#utility.yul\":1939:1944   */\n      dup2\n        /* \"#utility.yul\":1921:1945   */\n      tag_122\n      jump\t// in\n    tag_121:\n        /* \"#utility.yul\":1916:1919   */\n      dup3\n        /* \"#utility.yul\":1909:1946   */\n      mstore\n        /* \"#utility.yul\":1899:1952   */\n      pop\n      pop\n      jump\t// out\n        /* \"#utility.yul\":1958:2076   */\n    tag_123:\n        /* \"#utility.yul\":2045:2069   */\n      tag_125\n        /* \"#utility.yul\":2063:2068   */\n      dup2\n        /* \"#utility.yul\":2045:2069   */\n      tag_122\n      jump\t// in\n    tag_125:\n        /* \"#utility.yul\":2040:2043   */\n      dup3\n        /* \"#utility.yul\":2033:2070   */\n      mstore\n        /* \"#utility.yul\":2023:2076   */\n      pop\n      pop\n      jump\t// out\n        /* \"#utility.yul\":2112:2824   */\n    tag_126:\n      0x00\n        /* \"#utility.yul\":2250:2304   */\n      tag_128\n        /* \"#utility.yul\":2298:2303   */\n      dup3\n        /* \"#utility.yul\":2250:2304   */\n      tag_129\n      jump\t// in\n    tag_128:\n        /* \"#utility.yul\":2320:2396   */\n      tag_130\n        /* \"#utility.yul\":2389:2395   */\n      dup2\n        /* \"#utility.yul\":2384:2387   */\n      dup6\n        /* \"#utility.yul\":2320:2396   */\n      tag_131\n      jump\t// in\n    tag_130:\n        /* \"#utility.yul\":2313:2396   */\n      swap4\n      pop\n        /* \"#utility.yul\":2420:2476   */\n      tag_132\n        /* \"#utility.yul\":2470:2475   */\n      dup4\n        /* \"#utility.yul\":2420:2476   */\n      tag_133\n      jump\t// in\n    tag_132:\n        /* \"#utility.yul\":2499:2506   */\n      dup1\n        /* \"#utility.yul\":2530:2531   */\n      0x00\n        /* \"#utility.yul\":2515:2799   */\n    tag_134:\n        /* \"#utility.yul\":2540:2546   */\n      dup4\n        /* \"#utility.yul\":2537:2538   */\n      dup2\n        /* \"#utility.yul\":2534:2547   */\n      lt\n        /* \"#utility.yul\":2515:2799   */\n      iszero\n      tag_136\n      jumpi\n        /* \"#utility.yul\":2616:2622   */\n      dup2\n        /* \"#utility.yul\":2610:2623   */\n      mload\n        /* \"#utility.yul\":2643:2706   */\n      tag_137\n        /* \"#utility.yul\":2702:2705   */\n      dup9\n        /* \"#utility.yul\":2687:2700   */\n      dup3\n        /* \"#utility.yul\":2643:2706   */\n      tag_115\n      jump\t// in\n    tag_137:\n        /* \"#utility.yul\":2636:2706   */\n      swap8\n      pop\n        /* \"#utility.yul\":2729:2789   */\n      tag_138\n        /* \"#utility.yul\":2782:2788   */\n      dup4\n        /* \"#utility.yul\":2729:2789   */\n      tag_139\n      jump\t// in\n    tag_138:\n        /* \"#utility.yul\":2719:2789   */\n      swap3\n      pop\n        /* \"#utility.yul\":2575:2799   */\n      pop\n        /* \"#utility.yul\":2562:2563   */\n      0x01\n        /* \"#utility.yul\":2559:2560   */\n      dup2\n        /* \"#utility.yul\":2555:2564   */\n      add\n        /* \"#utility.yul\":2550:2564   */\n      swap1\n      pop\n        /* \"#utility.yul\":2515:2799   */\n      jump(tag_134)\n    tag_136:\n        /* \"#utility.yul\":2519:2533   */\n      pop\n        /* \"#utility.yul\":2815:2818   */\n      dup6\n        /* \"#utility.yul\":2808:2818   */\n      swap4\n      pop\n        /* \"#utility.yul\":2226:2824   */\n      pop\n      pop\n      pop\n      swap3\n      swap2\n      pop\n      pop\n      jump\t// out\n        /* \"#utility.yul\":2830:2983   */\n    tag_140:\n        /* \"#utility.yul\":2928:2976   */\n      tag_142\n        /* \"#utility.yul\":2970:2975   */\n      dup2\n        /* \"#utility.yul\":2928:2976   */\n      tag_143\n      jump\t// in\n    tag_142:\n        /* \"#utility.yul\":2923:2926   */\n      dup3\n        /* \"#utility.yul\":2916:2977   */\n      mstore\n        /* \"#utility.yul\":2906:2983   */\n      pop\n      pop\n      jump\t// out\n        /* \"#utility.yul\":2989:3362   */\n    tag_144:\n      0x00\n        /* \"#utility.yul\":3152:3219   */\n      tag_146\n        /* \"#utility.yul\":3216:3218   */\n      0x29\n        /* \"#utility.yul\":3211:3214   */\n      dup4\n        /* \"#utility.yul\":3152:3219   */\n      tag_147\n      jump\t// in\n    tag_146:\n        /* \"#utility.yul\":3145:3219   */\n      swap2\n      pop\n        /* \"#utility.yul\":3249:3283   */\n      0x546865206c6f616e20616d6f756e74206d757374206265206772656174657220\n        /* \"#utility.yul\":3245:3246   */\n      0x00\n        /* \"#utility.yul\":3240:3243   */\n      dup4\n        /* \"#utility.yul\":3236:3247   */\n      add\n        /* \"#utility.yul\":3229:3284   */\n      mstore\n        /* \"#utility.yul\":3315:3326   */\n      0x7468616e207a65726f0000000000000000000000000000000000000000000000\n        /* \"#utility.yul\":3310:3312   */\n      0x20\n        /* \"#utility.yul\":3305:3308   */\n      dup4\n        /* \"#utility.yul\":3301:3313   */\n      add\n        /* \"#utility.yul\":3294:3327   */\n      mstore\n        /* \"#utility.yul\":3353:3355   */\n      0x40\n        /* \"#utility.yul\":3348:3351   */\n      dup3\n        /* \"#utility.yul\":3344:3356   */\n      add\n        /* \"#utility.yul\":3337:3356   */\n      swap1\n      pop\n        /* \"#utility.yul\":3135:3362   */\n      swap2\n      swap1\n      pop\n      jump\t// out\n        /* \"#utility.yul\":3368:3809   */\n    tag_148:\n      0x00\n        /* \"#utility.yul\":3531:3598   */\n      tag_150\n        /* \"#utility.yul\":3595:3597   */\n      0x4b\n        /* \"#utility.yul\":3590:3593   */\n      dup4\n        /* \"#utility.yul\":3531:3598   */\n      tag_147\n      jump\t// in\n    tag_150:\n        /* \"#utility.yul\":3524:3598   */\n      swap2\n      pop\n        /* \"#utility.yul\":3628:3662   */\n      0x596f752063616e6e6f7420726571756573742061206e6577206c6f616e206966\n        /* \"#utility.yul\":3624:3625   */\n      0x00\n        /* \"#utility.yul\":3619:3622   */\n      dup4\n        /* \"#utility.yul\":3615:3626   */\n      add\n        /* \"#utility.yul\":3608:3663   */\n      mstore\n        /* \"#utility.yul\":3694:3728   */\n      0x20796f7520686176652070656e64696e672c206163746976652c206f72206f76\n        /* \"#utility.yul\":3689:3691   */\n      0x20\n        /* \"#utility.yul\":3684:3687   */\n      dup4\n        /* \"#utility.yul\":3680:3692   */\n      add\n        /* \"#utility.yul\":3673:3729   */\n      mstore\n        /* \"#utility.yul\":3760:3773   */\n      0x6572647565206c6f616e73000000000000000000000000000000000000000000\n        /* \"#utility.yul\":3755:3757   */\n      0x40\n        /* \"#utility.yul\":3750:3753   */\n      dup4\n        /* \"#utility.yul\":3746:3758   */\n      add\n        /* \"#utility.yul\":3739:3774   */\n      mstore\n        /* \"#utility.yul\":3800:3802   */\n      0x60\n        /* \"#utility.yul\":3795:3798   */\n      dup3\n        /* \"#utility.yul\":3791:3803   */\n      add\n        /* \"#utility.yul\":3784:3803   */\n      swap1\n      pop\n        /* \"#utility.yul\":3514:3809   */\n      swap2\n      swap1\n      pop\n      jump\t// out\n        /* \"#utility.yul\":3815:4193   */\n    tag_151:\n      0x00\n        /* \"#utility.yul\":3978:4045   */\n      tag_153\n        /* \"#utility.yul\":4042:4044   */\n      0x2e\n        /* \"#utility.yul\":4037:4040   */\n      dup4\n        /* \"#utility.yul\":3978:4045   */\n      tag_147\n      jump\t// in\n    tag_153:\n        /* \"#utility.yul\":3971:4045   */\n      swap2\n      pop\n        /* \"#utility.yul\":4075:4109   */\n      0x546865206c6f616e20706572696f64206d757374206265206772656174657220\n        /* \"#utility.yul\":4071:4072   */\n      0x00\n        /* \"#utility.yul\":4066:4069   */\n      dup4\n        /* \"#utility.yul\":4062:4073   */\n      add\n        /* \"#utility.yul\":4055:4110   */\n      mstore\n        /* \"#utility.yul\":4141:4157   */\n      0x7468616e207a65726f2064617973000000000000000000000000000000000000\n        /* \"#utility.yul\":4136:4138   */\n      0x20\n        /* \"#utility.yul\":4131:4134   */\n      dup4\n        /* \"#utility.yul\":4127:4139   */\n      add\n        /* \"#utility.yul\":4120:4158   */\n      mstore\n        /* \"#utility.yul\":4184:4186   */\n      0x40\n        /* \"#utility.yul\":4179:4182   */\n      dup3\n        /* \"#utility.yul\":4175:4187   */\n      add\n        /* \"#utility.yul\":4168:4187   */\n      swap1\n      pop\n        /* \"#utility.yul\":3961:4193   */\n      swap2\n      swap1\n      pop\n      jump\t// out\n        /* \"#utility.yul\":4273:5110   */\n    tag_154:\n      0x00\n        /* \"#utility.yul\":4436:4440   */\n      0x60\n        /* \"#utility.yul\":4431:4434   */\n      dup4\n        /* \"#utility.yul\":4427:4441   */\n      add\n        /* \"#utility.yul\":4534:4538   */\n      0x00\n        /* \"#utility.yul\":4527:4532   */\n      dup4\n        /* \"#utility.yul\":4523:4539   */\n      add\n        /* \"#utility.yul\":4517:4540   */\n      mload\n        /* \"#utility.yul\":4553:4616   */\n      tag_156\n        /* \"#utility.yul\":4610:4614   */\n      0x00\n        /* \"#utility.yul\":4605:4608   */\n      dup7\n        /* \"#utility.yul\":4601:4615   */\n      add\n        /* \"#utility.yul\":4587:4599   */\n      dup3\n        /* \"#utility.yul\":4553:4616   */\n      tag_119\n      jump\t// in\n    tag_156:\n        /* \"#utility.yul\":4451:4626   */\n      pop\n        /* \"#utility.yul\":4715:4719   */\n      0x20\n        /* \"#utility.yul\":4708:4713   */\n      dup4\n        /* \"#utility.yul\":4704:4720   */\n      add\n        /* \"#utility.yul\":4698:4721   */\n      mload\n        /* \"#utility.yul\":4734:4793   */\n      tag_157\n        /* \"#utility.yul\":4787:4791   */\n      0x20\n        /* \"#utility.yul\":4782:4785   */\n      dup7\n        /* \"#utility.yul\":4778:4792   */\n      add\n        /* \"#utility.yul\":4764:4776   */\n      dup3\n        /* \"#utility.yul\":4734:4793   */\n      tag_158\n      jump\t// in\n    tag_157:\n        /* \"#utility.yul\":4636:4803   */\n      pop\n        /* \"#utility.yul\":4890:4894   */\n      0x40\n        /* \"#utility.yul\":4883:4888   */\n      dup4\n        /* \"#utility.yul\":4879:4895   */\n      add\n        /* \"#utility.yul\":4873:4896   */\n      mload\n        /* \"#utility.yul\":4943:4946   */\n      dup5\n        /* \"#utility.yul\":4937:4941   */\n      dup3\n        /* \"#utility.yul\":4933:4947   */\n      sub\n        /* \"#utility.yul\":4926:4930   */\n      0x40\n        /* \"#utility.yul\":4921:4924   */\n      dup7\n        /* \"#utility.yul\":4917:4931   */\n      add\n        /* \"#utility.yul\":4910:4948   */\n      mstore\n        /* \"#utility.yul\":4969:5072   */\n      tag_159\n        /* \"#utility.yul\":5067:5071   */\n      dup3\n        /* \"#utility.yul\":5053:5065   */\n      dup3\n        /* \"#utility.yul\":4969:5072   */\n      tag_126\n      jump\t// in\n    tag_159:\n        /* \"#utility.yul\":4961:5072   */\n      swap2\n      pop\n        /* \"#utility.yul\":4813:5083   */\n      pop\n        /* \"#utility.yul\":5100:5104   */\n      dup1\n        /* \"#utility.yul\":5093:5104   */\n      swap2\n      pop\n        /* \"#utility.yul\":4405:5110   */\n      pop\n      swap3\n      swap2\n      pop\n      pop\n      jump\t// out\n        /* \"#utility.yul\":5116:5224   */\n    tag_118:\n        /* \"#utility.yul\":5193:5217   */\n      tag_161\n        /* \"#utility.yul\":5211:5216   */\n      dup2\n        /* \"#utility.yul\":5193:5217   */\n      tag_162\n      jump\t// in\n    tag_161:\n        /* \"#utility.yul\":5188:5191   */\n      dup3\n        /* \"#utility.yul\":5181:5218   */\n      mstore\n        /* \"#utility.yul\":5171:5224   */\n      pop\n      pop\n      jump\t// out\n        /* \"#utility.yul\":5230:5348   */\n    tag_163:\n        /* \"#utility.yul\":5317:5341   */\n      tag_165\n        /* \"#utility.yul\":5335:5340   */\n      dup2\n        /* \"#utility.yul\":5317:5341   */\n      tag_162\n      jump\t// in\n    tag_165:\n        /* \"#utility.yul\":5312:5315   */\n      dup3\n        /* \"#utility.yul\":5305:5342   */\n      mstore\n        /* \"#utility.yul\":5295:5348   */\n      pop\n      pop\n      jump\t// out\n        /* \"#utility.yul\":5354:5456   */\n    tag_158:\n        /* \"#utility.yul\":5427:5449   */\n      tag_167\n        /* \"#utility.yul\":5443:5448   */\n      dup2\n        /* \"#utility.yul\":5427:5449   */\n      tag_168\n      jump\t// in\n    tag_167:\n        /* \"#utility.yul\":5422:5425   */\n      dup3\n        /* \"#utility.yul\":5415:5450   */\n      mstore\n        /* \"#utility.yul\":5405:5456   */\n      pop\n      pop\n      jump\t// out\n        /* \"#utility.yul\":5462:5574   */\n    tag_169:\n        /* \"#utility.yul\":5545:5567   */\n      tag_171\n        /* \"#utility.yul\":5561:5566   */\n      dup2\n        /* \"#utility.yul\":5545:5567   */\n      tag_168\n      jump\t// in\n    tag_171:\n        /* \"#utility.yul\":5540:5543   */\n      dup3\n        /* \"#utility.yul\":5533:5568   */\n      mstore\n        /* \"#utility.yul\":5523:5574   */\n      pop\n      pop\n      jump\t// out\n        /* \"#utility.yul\":5580:5904   */\n    tag_16:\n      0x00\n        /* \"#utility.yul\":5735:5737   */\n      0x40\n        /* \"#utility.yul\":5724:5733   */\n      dup3\n        /* \"#utility.yul\":5720:5738   */\n      add\n        /* \"#utility.yul\":5712:5738   */\n      swap1\n      pop\n        /* \"#utility.yul\":5748:5819   */\n      tag_173\n        /* \"#utility.yul\":5816:5817   */\n      0x00\n        /* \"#utility.yul\":5805:5814   */\n      dup4\n        /* \"#utility.yul\":5801:5818   */\n      add\n        /* \"#utility.yul\":5792:5798   */\n      dup6\n        /* \"#utility.yul\":5748:5819   */\n      tag_123\n      jump\t// in\n    tag_173:\n        /* \"#utility.yul\":5829:5897   */\n      tag_174\n        /* \"#utility.yul\":5893:5895   */\n      0x20\n        /* \"#utility.yul\":5882:5891   */\n      dup4\n        /* \"#utility.yul\":5878:5896   */\n      add\n        /* \"#utility.yul\":5869:5875   */\n      dup5\n        /* \"#utility.yul\":5829:5897   */\n      tag_169\n      jump\t// in\n    tag_174:\n        /* \"#utility.yul\":5702:5904   */\n      swap4\n      swap3\n      pop\n      pop\n      pop\n      jump\t// out\n        /* \"#utility.yul\":5910:6329   */\n    tag_32:\n      0x00\n        /* \"#utility.yul\":6114:6116   */\n      0x20\n        /* \"#utility.yul\":6103:6112   */\n      dup3\n        /* \"#utility.yul\":6099:6117   */\n      add\n        /* \"#utility.yul\":6091:6117   */\n      swap1\n      pop\n        /* \"#utility.yul\":6163:6172   */\n      dup2\n        /* \"#utility.yul\":6157:6161   */\n      dup2\n        /* \"#utility.yul\":6153:6173   */\n      sub\n        /* \"#utility.yul\":6149:6150   */\n      0x00\n        /* \"#utility.yul\":6138:6147   */\n      dup4\n        /* \"#utility.yul\":6134:6151   */\n      add\n        /* \"#utility.yul\":6127:6174   */\n      mstore\n        /* \"#utility.yul\":6191:6322   */\n      tag_176\n        /* \"#utility.yul\":6317:6321   */\n      dup2\n        /* \"#utility.yul\":6191:6322   */\n      tag_144\n      jump\t// in\n    tag_176:\n        /* \"#utility.yul\":6183:6322   */\n      swap1\n      pop\n        /* \"#utility.yul\":6081:6329   */\n      swap2\n      swap1\n      pop\n      jump\t// out\n        /* \"#utility.yul\":6335:6754   */\n    tag_50:\n      0x00\n        /* \"#utility.yul\":6539:6541   */\n      0x20\n        /* \"#utility.yul\":6528:6537   */\n      dup3\n        /* \"#utility.yul\":6524:6542   */\n      add\n        /* \"#utility.yul\":6516:6542   */\n      swap1\n      pop\n        /* \"#utility.yul\":6588:6597   */\n      dup2\n        /* \"#utility.yul\":6582:6586   */\n      dup2\n        /* \"#utility.yul\":6578:6598   */\n      sub\n        /* \"#utility.yul\":6574:6575   */\n      0x00\n        /* \"#utility.yul\":6563:6572   */\n      dup4\n        /* \"#utility.yul\":6559:6576   */\n      add\n        /* \"#utility.yul\":6552:6599   */\n      mstore\n        /* \"#utility.yul\":6616:6747   */\n      tag_178\n        /* \"#utility.yul\":6742:6746   */\n      dup2\n        /* \"#utility.yul\":6616:6747   */\n      tag_148\n      jump\t// in\n    tag_178:\n        /* \"#utility.yul\":6608:6747   */\n      swap1\n      pop\n        /* \"#utility.yul\":6506:6754   */\n      swap2\n      swap1\n      pop\n      jump\t// out\n        /* \"#utility.yul\":6760:7179   */\n    tag_35:\n      0x00\n        /* \"#utility.yul\":6964:6966   */\n      0x20\n        /* \"#utility.yul\":6953:6962   */\n      dup3\n        /* \"#utility.yul\":6949:6967   */\n      add\n        /* \"#utility.yul\":6941:6967   */\n      swap1\n      pop\n        /* \"#utility.yul\":7013:7022   */\n      dup2\n        /* \"#utility.yul\":7007:7011   */\n      dup2\n        /* \"#utility.yul\":7003:7023   */\n      sub\n        /* \"#utility.yul\":6999:7000   */\n      0x00\n        /* \"#utility.yul\":6988:6997   */\n      dup4\n        /* \"#utility.yul\":6984:7001   */\n      add\n        /* \"#utility.yul\":6977:7024   */\n      mstore\n        /* \"#utility.yul\":7041:7172   */\n      tag_180\n        /* \"#utility.yul\":7167:7171   */\n      dup2\n        /* \"#utility.yul\":7041:7172   */\n      tag_151\n      jump\t// in\n    tag_180:\n        /* \"#utility.yul\":7033:7172   */\n      swap1\n      pop\n        /* \"#utility.yul\":6931:7179   */\n      swap2\n      swap1\n      pop\n      jump\t// out\n        /* \"#utility.yul\":7185:7407   */\n    tag_22:\n      0x00\n        /* \"#utility.yul\":7316:7318   */\n      0x20\n        /* \"#utility.yul\":7305:7314   */\n      dup3\n        /* \"#utility.yul\":7301:7319   */\n      add\n        /* \"#utility.yul\":7293:7319   */\n      swap1\n      pop\n        /* \"#utility.yul\":7329:7400   */\n      tag_182\n        /* \"#utility.yul\":7397:7398   */\n      0x00\n        /* \"#utility.yul\":7386:7395   */\n      dup4\n        /* \"#utility.yul\":7382:7399   */\n      add\n        /* \"#utility.yul\":7373:7379   */\n      dup5\n        /* \"#utility.yul\":7329:7400   */\n      tag_163\n      jump\t// in\n    tag_182:\n        /* \"#utility.yul\":7283:7407   */\n      swap3\n      swap2\n      pop\n      pop\n      jump\t// out\n        /* \"#utility.yul\":7413:7988   */\n    tag_70:\n      0x00\n        /* \"#utility.yul\":7639:7642   */\n      0x80\n        /* \"#utility.yul\":7628:7637   */\n      dup3\n        /* \"#utility.yul\":7624:7643   */\n      add\n        /* \"#utility.yul\":7616:7643   */\n      swap1\n      pop\n        /* \"#utility.yul\":7653:7724   */\n      tag_184\n        /* \"#utility.yul\":7721:7722   */\n      0x00\n        /* \"#utility.yul\":7710:7719   */\n      dup4\n        /* \"#utility.yul\":7706:7723   */\n      add\n        /* \"#utility.yul\":7697:7703   */\n      dup8\n        /* \"#utility.yul\":7653:7724   */\n      tag_163\n      jump\t// in\n    tag_184:\n        /* \"#utility.yul\":7734:7806   */\n      tag_185\n        /* \"#utility.yul\":7802:7804   */\n      0x20\n        /* \"#utility.yul\":7791:7800   */\n      dup4\n        /* \"#utility.yul\":7787:7805   */\n      add\n        /* \"#utility.yul\":7778:7784   */\n      dup7\n        /* \"#utility.yul\":7734:7806   */\n      tag_123\n      jump\t// in\n    tag_185:\n        /* \"#utility.yul\":7816:7888   */\n      tag_186\n        /* \"#utility.yul\":7884:7886   */\n      0x40\n        /* \"#utility.yul\":7873:7882   */\n      dup4\n        /* \"#utility.yul\":7869:7887   */\n      add\n        /* \"#utility.yul\":7860:7866   */\n      dup6\n        /* \"#utility.yul\":7816:7888   */\n      tag_163\n      jump\t// in\n    tag_186:\n        /* \"#utility.yul\":7898:7981   */\n      tag_187\n        /* \"#utility.yul\":7977:7979   */\n      0x60\n        /* \"#utility.yul\":7966:7975   */\n      dup4\n        /* \"#utility.yul\":7962:7980   */\n      add\n        /* \"#utility.yul\":7953:7959   */\n      dup5\n        /* \"#utility.yul\":7898:7981   */\n      tag_140\n      jump\t// in\n    tag_187:\n        /* \"#utility.yul\":7606:7988   */\n      swap6\n      swap5\n      pop\n      pop\n      pop\n      pop\n      pop\n      jump\t// out\n        /* \"#utility.yul\":7994:9291   */\n    tag_28:\n      0x00\n        /* \"#utility.yul\":8418:8421   */\n      0x0120\n        /* \"#utility.yul\":8407:8416   */\n      dup3\n        /* \"#utility.yul\":8403:8422   */\n      add\n        /* \"#utility.yul\":8395:8422   */\n      swap1\n      pop\n        /* \"#utility.yul\":8432:8503   */\n      tag_189\n        /* \"#utility.yul\":8500:8501   */\n      0x00\n        /* \"#utility.yul\":8489:8498   */\n      dup4\n        /* \"#utility.yul\":8485:8502   */\n      add\n        /* \"#utility.yul\":8476:8482   */\n      dup13\n        /* \"#utility.yul\":8432:8503   */\n      tag_163\n      jump\t// in\n    tag_189:\n        /* \"#utility.yul\":8550:8559   */\n      dup2\n        /* \"#utility.yul\":8544:8548   */\n      dup2\n        /* \"#utility.yul\":8540:8560   */\n      sub\n        /* \"#utility.yul\":8535:8537   */\n      0x20\n        /* \"#utility.yul\":8524:8533   */\n      dup4\n        /* \"#utility.yul\":8520:8538   */\n      add\n        /* \"#utility.yul\":8513:8561   */\n      mstore\n        /* \"#utility.yul\":8578:8694   */\n      tag_190\n        /* \"#utility.yul\":8689:8693   */\n      dup2\n        /* \"#utility.yul\":8680:8686   */\n      dup12\n        /* \"#utility.yul\":8578:8694   */\n      tag_154\n      jump\t// in\n    tag_190:\n        /* \"#utility.yul\":8570:8694   */\n      swap1\n      pop\n        /* \"#utility.yul\":8704:8776   */\n      tag_191\n        /* \"#utility.yul\":8772:8774   */\n      0x40\n        /* \"#utility.yul\":8761:8770   */\n      dup4\n        /* \"#utility.yul\":8757:8775   */\n      add\n        /* \"#utility.yul\":8748:8754   */\n      dup11\n        /* \"#utility.yul\":8704:8776   */\n      tag_123\n      jump\t// in\n    tag_191:\n        /* \"#utility.yul\":8786:8858   */\n      tag_192\n        /* \"#utility.yul\":8854:8856   */\n      0x60\n        /* \"#utility.yul\":8843:8852   */\n      dup4\n        /* \"#utility.yul\":8839:8857   */\n      add\n        /* \"#utility.yul\":8830:8836   */\n      dup10\n        /* \"#utility.yul\":8786:8858   */\n      tag_163\n      jump\t// in\n    tag_192:\n        /* \"#utility.yul\":8868:8941   */\n      tag_193\n        /* \"#utility.yul\":8936:8939   */\n      0x80\n        /* \"#utility.yul\":8925:8934   */\n      dup4\n        /* \"#utility.yul\":8921:8940   */\n      add\n        /* \"#utility.yul\":8912:8918   */\n      dup9\n        /* \"#utility.yul\":8868:8941   */\n      tag_163\n      jump\t// in\n    tag_193:\n        /* \"#utility.yul\":8951:9024   */\n      tag_194\n        /* \"#utility.yul\":9019:9022   */\n      0xa0\n        /* \"#utility.yul\":9008:9017   */\n      dup4\n        /* \"#utility.yul\":9004:9023   */\n      add\n        /* \"#utility.yul\":8995:9001   */\n      dup8\n        /* \"#utility.yul\":8951:9024   */\n      tag_163\n      jump\t// in\n    tag_194:\n        /* \"#utility.yul\":9034:9107   */\n      tag_195\n        /* \"#utility.yul\":9102:9105   */\n      0xc0\n        /* \"#utility.yul\":9091:9100   */\n      dup4\n        /* \"#utility.yul\":9087:9106   */\n      add\n        /* \"#utility.yul\":9078:9084   */\n      dup7\n        /* \"#utility.yul\":9034:9107   */\n      tag_163\n      jump\t// in\n    tag_195:\n        /* \"#utility.yul\":9117:9190   */\n      tag_196\n        /* \"#utility.yul\":9185:9188   */\n      0xe0\n        /* \"#utility.yul\":9174:9183   */\n      dup4\n        /* \"#utility.yul\":9170:9189   */\n      add\n        /* \"#utility.yul\":9161:9167   */\n      dup6\n        /* \"#utility.yul\":9117:9190   */\n      tag_163\n      jump\t// in\n    tag_196:\n        /* \"#utility.yul\":9200:9284   */\n      tag_197\n        /* \"#utility.yul\":9279:9282   */\n      0x0100\n        /* \"#utility.yul\":9268:9277   */\n      dup4\n        /* \"#utility.yul\":9264:9283   */\n      add\n        /* \"#utility.yul\":9255:9261   */\n      dup5\n        /* \"#utility.yul\":9200:9284   */\n      tag_140\n      jump\t// in\n    tag_197:\n        /* \"#utility.yul\":8385:9291   */\n      swap11\n      swap10\n      pop\n      pop\n      pop\n      pop\n      pop\n      pop\n      pop\n      pop\n      pop\n      pop\n      jump\t// out\n        /* \"#utility.yul\":9297:9429   */\n    tag_133:\n      0x00\n        /* \"#utility.yul\":9387:9390   */\n      dup2\n        /* \"#utility.yul\":9379:9390   */\n      swap1\n      pop\n        /* \"#utility.yul\":9417:9421   */\n      0x20\n        /* \"#utility.yul\":9412:9415   */\n      dup3\n        /* \"#utility.yul\":9408:9422   */\n      add\n        /* \"#utility.yul\":9400:9422   */\n      swap1\n      pop\n        /* \"#utility.yul\":9369:9429   */\n      swap2\n      swap1\n      pop\n      jump\t// out\n        /* \"#utility.yul\":9435:9549   */\n    tag_129:\n      0x00\n        /* \"#utility.yul\":9536:9541   */\n      dup2\n        /* \"#utility.yul\":9530:9542   */\n      mload\n        /* \"#utility.yul\":9520:9542   */\n      swap1\n      pop\n        /* \"#utility.yul\":9509:9549   */\n      swap2\n      swap1\n      pop\n      jump\t// out\n        /* \"#utility.yul\":9555:9668   */\n    tag_139:\n      0x00\n        /* \"#utility.yul\":9657:9661   */\n      0x20\n        /* \"#utility.yul\":9652:9655   */\n      dup3\n        /* \"#utility.yul\":9648:9662   */\n      add\n        /* \"#utility.yul\":9640:9662   */\n      swap1\n      pop\n        /* \"#utility.yul\":9630:9668   */\n      swap2\n      swap1\n      pop\n      jump\t// out\n        /* \"#utility.yul\":9674:9848   */\n    tag_131:\n      0x00\n        /* \"#utility.yul\":9797:9803   */\n      dup3\n        /* \"#utility.yul\":9792:9795   */\n      dup3\n        /* \"#utility.yul\":9785:9804   */\n      mstore\n        /* \"#utility.yul\":9837:9841   */\n      0x20\n        /* \"#utility.yul\":9832:9835   */\n      dup3\n        /* \"#utility.yul\":9828:9842   */\n      add\n        /* \"#utility.yul\":9813:9842   */\n      swap1\n      pop\n        /* \"#utility.yul\":9775:9848   */\n      swap3\n      swap2\n      pop\n      pop\n      jump\t// out\n        /* \"#utility.yul\":9854:10023   */\n    tag_147:\n      0x00\n        /* \"#utility.yul\":9972:9978   */\n      dup3\n        /* \"#utility.yul\":9967:9970   */\n      dup3\n        /* \"#utility.yul\":9960:9979   */\n      mstore\n        /* \"#utility.yul\":10012:10016   */\n      0x20\n        /* \"#utility.yul\":10007:10010   */\n      dup3\n        /* \"#utility.yul\":10003:10017   */\n      add\n        /* \"#utility.yul\":9988:10017   */\n      swap1\n      pop\n        /* \"#utility.yul\":9950:10023   */\n      swap3\n      swap2\n      pop\n      pop\n      jump\t// out\n        /* \"#utility.yul\":10029:10334   */\n    tag_63:\n      0x00\n        /* \"#utility.yul\":10088:10108   */\n      tag_204\n        /* \"#utility.yul\":10106:10107   */\n      dup3\n        /* \"#utility.yul\":10088:10108   */\n      tag_162\n      jump\t// in\n    tag_204:\n        /* \"#utility.yul\":10083:10108   */\n      swap2\n      pop\n        /* \"#utility.yul\":10122:10142   */\n      tag_205\n        /* \"#utility.yul\":10140:10141   */\n      dup4\n        /* \"#utility.yul\":10122:10142   */\n      tag_162\n      jump\t// in\n    tag_205:\n        /* \"#utility.yul\":10117:10142   */\n      swap3\n      pop\n        /* \"#utility.yul\":10276:10277   */\n      dup3\n        /* \"#utility.yul\":10208:10274   */\n      0xffffffffffffffffffffffffffffffffffffffffffffffffffffffffffffffff\n        /* \"#utility.yul\":10204:10278   */\n      sub\n        /* \"#utility.yul\":10201:10202   */\n      dup3\n        /* \"#utility.yul\":10198:10279   */\n      gt\n        /* \"#utility.yul\":10195:10197   */\n      iszero\n      tag_206\n      jumpi\n        /* \"#utility.yul\":10282:10300   */\n      tag_207\n      tag_208\n      jump\t// in\n    tag_207:\n        /* \"#utility.yul\":10195:10197   */\n    tag_206:\n        /* \"#utility.yul\":10326:10327   */\n      dup3\n        /* \"#utility.yul\":10323:10324   */\n      dup3\n        /* \"#utility.yul\":10319:10328   */\n      add\n        /* \"#utility.yul\":10312:10328   */\n      swap1\n      pop\n        /* \"#utility.yul\":10073:10334   */\n      swap3\n      swap2\n      pop\n      pop\n      jump\t// out\n        /* \"#utility.yul\":10340:10688   */\n    tag_61:\n      0x00\n        /* \"#utility.yul\":10403:10423   */\n      tag_210\n        /* \"#utility.yul\":10421:10422   */\n      dup3\n        /* \"#utility.yul\":10403:10423   */\n      tag_162\n      jump\t// in\n    tag_210:\n        /* \"#utility.yul\":10398:10423   */\n      swap2\n      pop\n        /* \"#utility.yul\":10437:10457   */\n      tag_211\n        /* \"#utility.yul\":10455:10456   */\n      dup4\n        /* \"#utility.yul\":10437:10457   */\n      tag_162\n      jump\t// in\n    tag_211:\n        /* \"#utility.yul\":10432:10457   */\n      swap3\n      pop\n        /* \"#utility.yul\":10625:10626   */\n      dup2\n        /* \"#utility.yul\":10557:10623   */\n      0xffffffffffffffffffffffffffffffffffffffffffffffffffffffffffffffff\n        /* \"#utility.yul\":10553:10627   */\n      div\n        /* \"#utility.yul\":10550:10551   */\n      dup4\n        /* \"#utility.yul\":10547:10628   */\n      gt\n        /* \"#utility.yul\":10542:10543   */\n      dup3\n        /* \"#utility.yul\":10535:10544   */\n      iszero\n        /* \"#utility.yul\":10528:10545   */\n      iszero\n        /* \"#utility.yul\":10524:10629   */\n      and\n        /* \"#utility.yul\":10521:10523   */\n      iszero\n      tag_212\n      jumpi\n        /* \"#utility.yul\":10632:10650   */\n      tag_213\n      tag_208\n      jump\t// in\n    tag_213:\n        /* \"#utility.yul\":10521:10523   */\n    tag_212:\n        /* \"#utility.yul\":10680:10681   */\n      dup3\n        /* \"#utility.yul\":10677:10678   */\n      dup3\n        /* \"#utility.yul\":10673:10682   */\n      mul\n        /* \"#utility.yul\":10662:10682   */\n      swap1\n      pop\n        /* \"#utility.yul\":10388:10688   */\n      swap3\n      swap2\n      pop\n      pop\n      jump\t// out\n        /* \"#utility.yul\":10694:10790   */\n    tag_122:\n      0x00\n        /* \"#utility.yul\":10760:10784   */\n      tag_215\n        /* \"#utility.yul\":10778:10783   */\n      dup3\n        /* \"#utility.yul\":10760:10784   */\n      tag_216\n      jump\t// in\n    tag_215:\n        /* \"#utility.yul\":10749:10784   */\n      swap1\n      pop\n        /* \"#utility.yul\":10739:10790   */\n      swap2\n      swap1\n      pop\n      jump\t// out\n        /* \"#utility.yul\":10796:10933   */\n    tag_217:\n      0x00\n        /* \"#utility.yul\":10875:10880   */\n      dup2\n        /* \"#utility.yul\":10864:10880   */\n      swap1\n      pop\n        /* \"#utility.yul\":10881:10927   */\n      tag_219\n        /* \"#utility.yul\":10921:10926   */\n      dup3\n        /* \"#utility.yul\":10881:10927   */\n      tag_220\n      jump\t// in\n    tag_219:\n        /* \"#utility.yul\":10854:10933   */\n      swap2\n      swap1\n      pop\n      jump\t// out\n        /* \"#utility.yul\":10939:11065   */\n    tag_216:\n      0x00\n        /* \"#utility.yul\":11016:11058   */\n      0xffffffffffffffffffffffffffffffffffffffff\n        /* \"#utility.yul\":11009:11014   */\n      dup3\n        /* \"#utility.yul\":11005:11059   */\n      and\n        /* \"#utility.yul\":10994:11059   */\n      swap1\n      pop\n        /* \"#utility.yul\":10984:11065   */\n      swap2\n      swap1\n      pop\n      jump\t// out\n        /* \"#utility.yul\":11071:11148   */\n    tag_162:\n      0x00\n        /* \"#utility.yul\":11137:11142   */\n      dup2\n        /* \"#utility.yul\":11126:11142   */\n      swap1\n      pop\n        /* \"#utility.yul\":11116:11148   */\n      swap2\n      swap1\n      pop\n      jump\t// out\n        /* \"#utility.yul\":11154:11240   */\n    tag_168:\n      0x00\n        /* \"#utility.yul\":11229:11233   */\n      0xff\n        /* \"#utility.yul\":11222:11227   */\n      dup3\n        /* \"#utility.yul\":11218:11234   */\n      and\n        /* \"#utility.yul\":11207:11234   */\n      swap1\n      pop\n        /* \"#utility.yul\":11197:11240   */\n      swap2\n      swap1\n      pop\n      jump\t// out\n        /* \"#utility.yul\":11246:11383   */\n    tag_143:\n      0x00\n        /* \"#utility.yul\":11340:11377   */\n      tag_225\n        /* \"#utility.yul\":11371:11376   */\n      dup3\n        /* \"#utility.yul\":11340:11377   */\n      tag_217\n      jump\t// in\n    tag_225:\n        /* \"#utility.yul\":11327:11377   */\n      swap1\n      pop\n        /* \"#utility.yul\":11317:11383   */\n      swap2\n      swap1\n      pop\n      jump\t// out\n        /* \"#utility.yul\":11389:11622   */\n    tag_52:\n      0x00\n        /* \"#utility.yul\":11451:11475   */\n      tag_227\n        /* \"#utility.yul\":11469:11474   */\n      dup3\n        /* \"#utility.yul\":11451:11475   */\n      tag_162\n      jump\t// in\n    tag_227:\n        /* \"#utility.yul\":11442:11475   */\n      swap2\n      pop\n        /* \"#utility.yul\":11497:11563   */\n      0xffffffffffffffffffffffffffffffffffffffffffffffffffffffffffffffff\n        /* \"#utility.yul\":11490:11495   */\n      dup3\n        /* \"#utility.yul\":11487:11564   */\n      eq\n        /* \"#utility.yul\":11484:11486   */\n      iszero\n      tag_228\n      jumpi\n        /* \"#utility.yul\":11567:11585   */\n      tag_229\n      tag_208\n      jump\t// in\n    tag_229:\n        /* \"#utility.yul\":11484:11486   */\n    tag_228:\n        /* \"#utility.yul\":11614:11615   */\n      0x01\n        /* \"#utility.yul\":11607:11612   */\n      dup3\n        /* \"#utility.yul\":11603:11616   */\n      add\n        /* \"#utility.yul\":11596:11616   */\n      swap1\n      pop\n        /* \"#utility.yul\":11432:11622   */\n      swap2\n      swap1\n      pop\n      jump\t// out\n        /* \"#utility.yul\":11628:11808   */\n    tag_208:\n        /* \"#utility.yul\":11676:11753   */\n      0x4e487b7100000000000000000000000000000000000000000000000000000000\n        /* \"#utility.yul\":11673:11674   */\n      0x00\n        /* \"#utility.yul\":11666:11754   */\n      mstore\n        /* \"#utility.yul\":11773:11777   */\n      0x11\n        /* \"#utility.yul\":11770:11771   */\n      0x04\n        /* \"#utility.yul\":11763:11778   */\n      mstore\n        /* \"#utility.yul\":11797:11801   */\n      0x24\n        /* \"#utility.yul\":11794:11795   */\n      0x00\n        /* \"#utility.yul\":11787:11802   */\n      revert\n        /* \"#utility.yul\":11814:11994   */\n    tag_231:\n        /* \"#utility.yul\":11862:11939   */\n      0x4e487b7100000000000000000000000000000000000000000000000000000000\n        /* \"#utility.yul\":11859:11860   */\n      0x00\n        /* \"#utility.yul\":11852:11940   */\n      mstore\n        /* \"#utility.yul\":11959:11963   */\n      0x21\n        /* \"#utility.yul\":11956:11957   */\n      0x04\n        /* \"#utility.yul\":11949:11964   */\n      mstore\n        /* \"#utility.yul\":11983:11987   */\n      0x24\n        /* \"#utility.yul\":11980:11981   */\n      0x00\n        /* \"#utility.yul\":11973:11988   */\n      revert\n        /* \"#utility.yul\":12000:12118   */\n    tag_220:\n        /* \"#utility.yul\":12086:12087   */\n      0x04\n        /* \"#utility.yul\":12079:12084   */\n      dup2\n        /* \"#utility.yul\":12076:12088   */\n      lt\n        /* \"#utility.yul\":12066:12068   */\n      tag_234\n      jumpi\n        /* \"#utility.yul\":12092:12110   */\n      tag_235\n      tag_231\n      jump\t// in\n    tag_235:\n        /* \"#utility.yul\":12066:12068   */\n    tag_234:\n        /* \"#utility.yul\":12056:12118   */\n      pop\n      jump\t// out\n        /* \"#utility.yul\":12124:12246   */\n    tag_96:\n        /* \"#utility.yul\":12197:12221   */\n      tag_237\n        /* \"#utility.yul\":12215:12220   */\n      dup2\n        /* \"#utility.yul\":12197:12221   */\n      tag_122\n      jump\t// in\n    tag_237:\n        /* \"#utility.yul\":12190:12195   */\n      dup2\n        /* \"#utility.yul\":12187:12222   */\n      eq\n        /* \"#utility.yul\":12177:12179   */\n      tag_238\n      jumpi\n        /* \"#utility.yul\":12236:12237   */\n      0x00\n        /* \"#utility.yul\":12233:12234   */\n      dup1\n        /* \"#utility.yul\":12226:12238   */\n      revert\n        /* \"#utility.yul\":12177:12179   */\n    tag_238:\n        /* \"#utility.yul\":12167:12246   */\n      pop\n      jump\t// out\n        /* \"#utility.yul\":12252:12374   */\n    tag_100:\n        /* \"#utility.yul\":12325:12349   */\n      tag_240\n        /* \"#utility.yul\":12343:12348   */\n      dup2\n        /* \"#utility.yul\":12325:12349   */\n      tag_162\n      jump\t// in\n    tag_240:\n        /* \"#utility.yul\":12318:12323   */\n      dup2\n        /* \"#utility.yul\":12315:12350   */\n      eq\n        /* \"#utility.yul\":12305:12307   */\n      tag_241\n      jumpi\n        /* \"#utility.yul\":12364:12365   */\n      0x00\n        /* \"#utility.yul\":12361:12362   */\n      dup1\n        /* \"#utility.yul\":12354:12366   */\n      revert\n        /* \"#utility.yul\":12305:12307   */\n    tag_241:\n        /* \"#utility.yul\":12295:12374   */\n      pop\n      jump\t// out\n\n    auxdata: 0xa264697066735822122037f31fada1101b87fd571183c140c62ec09cc7d8afd392364687f38d5a85c1c764736f6c63430008000033\n}\n",
				"bytecode": {
					"linkReferences": {},
					"object": "608060405234801561001057600080fd5b50611423806100206000396000f3fe608060405234801561001057600080fd5b506004361061004c5760003560e01c8063aa452fa614610051578063b96c5cdd1461006d578063d8bad5bd1461009e578063e034f3dc146100ce575b600080fd5b61006b60048036038101906100669190610d5c565b610106565b005b61008760048036038101906100829190610cce565b6109cf565b60405161009592919061101f565b60405180910390f35b6100b860048036038101906100b39190610cf7565b610a20565b6040516100c591906110a8565b60405180910390f35b6100e860048036038101906100e39190610d33565b610a51565b6040516100fd99989796959493929190611108565b60405180910390f35b60008211610149576040517f08c379a000000000000000000000000000000000000000000000000000000000815260040161014090611048565b60405180910390fd5b6000811161018c576040517f08c379a000000000000000000000000000000000000000000000000000000000815260040161018390611088565b60405180910390fd5b6000600360003373ffffffffffffffffffffffffffffffffffffffff1673ffffffffffffffffffffffffffffffffffffffff16815260200190815260200160002080548060200260200160405190810160405280929190818152602001828054801561021757602002820191906000526020600020905b815481526020019060010190808311610203575b5050505050905060005b8151811015610557576000828281518110610265577f4e487b7100000000000000000000000000000000000000000000000000000000600052603260045260246000fd5b602002602001015190506000600160008381526020019081526020016000206040518061012001604052908160008201548152602001600182016040518060600160405290816000820160009054906101000a900473ffffffffffffffffffffffffffffffffffffffff1673ffffffffffffffffffffffffffffffffffffffff1673ffffffffffffffffffffffffffffffffffffffff1681526020016000820160149054906101000a900460ff1660ff1660ff1681526020016001820180548060200260200160405190810160405280929190818152602001828054801561036c57602002820191906000526020600020905b815481526020019060010190808311610358575b50505050508152505081526020016003820160009054906101000a900473ffffffffffffffffffffffffffffffffffffffff1673ffffffffffffffffffffffffffffffffffffffff1673ffffffffffffffffffffffffffffffffffffffff16815260200160048201548152602001600582015481526020016006820154815260200160078201548152602001600882015481526020016009820160009054906101000a900460ff16600381111561044c577f4e487b7100000000000000000000000000000000000000000000000000000000600052602160045260246000fd5b6003811115610484577f4e487b7100000000000000000000000000000000000000000000000000000000600052602160045260246000fd5b815250509050600260038111156104c4577f4e487b7100000000000000000000000000000000000000000000000000000000600052602160045260246000fd5b8161010001516003811115610502577f4e487b7100000000000000000000000000000000000000000000000000000000600052602160045260246000fd5b14610542576040517f08c379a000000000000000000000000000000000000000000000000000000000815260040161053990611068565b60405180910390fd5b5050808061054f90611304565b915050610221565b5060008081548092919061056a90611304565b91905055506000600360003373ffffffffffffffffffffffffffffffffffffffff1673ffffffffffffffffffffffffffffffffffffffff1681526020019081526020016000208054905090506000808214156105c9576001905061061c565b600260003373ffffffffffffffffffffffffffffffffffffffff1673ffffffffffffffffffffffffffffffffffffffff16815260200190815260200160002060000160149054906101000a900460ff1690505b60008061062883610ba1565b915091506000604051806101200160405280600054815260200160405180606001604052803373ffffffffffffffffffffffffffffffffffffffff1681526020018760ff168152602001600360003373ffffffffffffffffffffffffffffffffffffffff1673ffffffffffffffffffffffffffffffffffffffff1681526020019081526020016000208054806020026020016040519081016040528092919081815260200182805480156106fb57602002820191906000526020600020905b8154815260200190600101908083116106e7575b50505050508152508152602001600073ffffffffffffffffffffffffffffffffffffffff168152602001898152602001848152602001838152602001428152602001620151808961074c919061123c565b4261075791906111e6565b815260200160016003811115610796577f4e487b7100000000000000000000000000000000000000000000000000000000600052602160045260246000fd5b81525090508060016000805481526020019081526020016000206000820151816000015560208201518160010160008201518160000160006101000a81548173ffffffffffffffffffffffffffffffffffffffff021916908373ffffffffffffffffffffffffffffffffffffffff16021790555060208201518160000160146101000a81548160ff021916908360ff1602179055506040820151816001019080519060200190610847929190610c3a565b50505060408201518160030160006101000a81548173ffffffffffffffffffffffffffffffffffffffff021916908373ffffffffffffffffffffffffffffffffffffffff160217905550606082015181600401556080820151816005015560a0820151816006015560c0820151816007015560e082015181600801556101008201518160090160006101000a81548160ff02191690836003811115610915577f4e487b7100000000000000000000000000000000000000000000000000000000600052602160045260246000fd5b0217905550905050600360003373ffffffffffffffffffffffffffffffffffffffff1673ffffffffffffffffffffffffffffffffffffffff16815260200190815260200160002060005490806001815401808255809150506001900390600052602060002001600090919091909150557f0b526fa2e029cdcdf2b742ee24bb87d34106dc9ea1dd61cf012bceafa57d31e5600054338a60016040516109bd94939291906110c3565b60405180910390a15050505050505050565b60026020528060005260406000206000915090508060000160009054906101000a900473ffffffffffffffffffffffffffffffffffffffff16908060000160149054906101000a900460ff16905082565b60036020528160005260406000208181548110610a3c57600080fd5b90600052602060002001600091509150505481565b6001602052806000526040600020600091509050806000015490806001016040518060600160405290816000820160009054906101000a900473ffffffffffffffffffffffffffffffffffffffff1673ffffffffffffffffffffffffffffffffffffffff1673ffffffffffffffffffffffffffffffffffffffff1681526020016000820160149054906101000a900460ff1660ff1660ff16815260200160018201805480602002602001604051908101604052809291908181526020018280548015610b3c57602002820191906000526020600020905b815481526020019060010190808311610b28575b505050505081525050908060030160009054906101000a900473ffffffffffffffffffffffffffffffffffffffff16908060040154908060050154908060060154908060070154908060080154908060090160009054906101000a900460ff16905089565b60008060008060008560ff161415610bc2576107d09150610bb89050610c2d565b60018560ff161415610bdd576104b091506107d09050610c2c565b60028560ff161415610bf8576103e891506105dc9050610c2b565b60038560ff161415610c135761032091506105149050610c2a565b60048560ff1610610c2957610258915061038490505b5b5b5b5b8181935093505050915091565b828054828255906000526020600020908101928215610c76579160200282015b82811115610c75578251825591602001919060010190610c5a565b5b509050610c839190610c87565b5090565b5b80821115610ca0576000816000905550600101610c88565b5090565b600081359050610cb3816113bf565b92915050565b600081359050610cc8816113d6565b92915050565b600060208284031215610ce057600080fd5b6000610cee84828501610ca4565b91505092915050565b60008060408385031215610d0a57600080fd5b6000610d1885828601610ca4565b9250506020610d2985828601610cb9565b9150509250929050565b600060208284031215610d4557600080fd5b6000610d5384828501610cb9565b91505092915050565b60008060408385031215610d6f57600080fd5b6000610d7d85828601610cb9565b9250506020610d8e85828601610cb9565b9150509250929050565b6000610da48383610fe3565b60208301905092915050565b610db981611296565b82525050565b610dc881611296565b82525050565b6000610dd9826111ac565b610de381856111c4565b9350610dee8361119c565b8060005b83811015610e1f578151610e068882610d98565b9750610e11836111b7565b925050600181019050610df2565b5085935050505092915050565b610e35816112f2565b82525050565b6000610e486029836111d5565b91507f546865206c6f616e20616d6f756e74206d75737420626520677265617465722060008301527f7468616e207a65726f00000000000000000000000000000000000000000000006020830152604082019050919050565b6000610eae604b836111d5565b91507f596f752063616e6e6f7420726571756573742061206e6577206c6f616e20696660008301527f20796f7520686176652070656e64696e672c206163746976652c206f72206f7660208301527f6572647565206c6f616e730000000000000000000000000000000000000000006040830152606082019050919050565b6000610f3a602e836111d5565b91507f546865206c6f616e20706572696f64206d75737420626520677265617465722060008301527f7468616e207a65726f20646179730000000000000000000000000000000000006020830152604082019050919050565b6000606083016000830151610fab6000860182610db0565b506020830151610fbe6020860182611001565b5060408301518482036040860152610fd68282610dce565b9150508091505092915050565b610fec816112db565b82525050565b610ffb816112db565b82525050565b61100a816112e5565b82525050565b611019816112e5565b82525050565b60006040820190506110346000830185610dbf565b6110416020830184611010565b9392505050565b6000602082019050818103600083015261106181610e3b565b9050919050565b6000602082019050818103600083015261108181610ea1565b9050919050565b600060208201905081810360008301526110a181610f2d565b9050919050565b60006020820190506110bd6000830184610ff2565b92915050565b60006080820190506110d86000830187610ff2565b6110e56020830186610dbf565b6110f26040830185610ff2565b6110ff6060830184610e2c565b95945050505050565b60006101208201905061111e600083018c610ff2565b8181036020830152611130818b610f93565b905061113f604083018a610dbf565b61114c6060830189610ff2565b6111596080830188610ff2565b61116660a0830187610ff2565b61117360c0830186610ff2565b61118060e0830185610ff2565b61118e610100830184610e2c565b9a9950505050505050505050565b6000819050602082019050919050565b600081519050919050565b6000602082019050919050565b600082825260208201905092915050565b600082825260208201905092915050565b60006111f1826112db565b91506111fc836112db565b9250827fffffffffffffffffffffffffffffffffffffffffffffffffffffffffffffffff038211156112315761123061134d565b5b828201905092915050565b6000611247826112db565b9150611252836112db565b9250817fffffffffffffffffffffffffffffffffffffffffffffffffffffffffffffffff048311821515161561128b5761128a61134d565b5b828202905092915050565b60006112a1826112bb565b9050919050565b60008190506112b6826113ab565b919050565b600073ffffffffffffffffffffffffffffffffffffffff82169050919050565b6000819050919050565b600060ff82169050919050565b60006112fd826112a8565b9050919050565b600061130f826112db565b91507fffffffffffffffffffffffffffffffffffffffffffffffffffffffffffffffff8214156113425761134161134d565b5b600182019050919050565b7f4e487b7100000000000000000000000000000000000000000000000000000000600052601160045260246000fd5b7f4e487b7100000000000000000000000000000000000000000000000000000000600052602160045260246000fd5b600481106113bc576113bb61137c565b5b50565b6113c881611296565b81146113d357600080fd5b50565b6113df816112db565b81146113ea57600080fd5b5056fea264697066735822122037f31fada1101b87fd571183c140c62ec09cc7d8afd392364687f38d5a85c1c764736f6c63430008000033",
					"opcodes": "PUSH1 0x80 PUSH1 0x40 MSTORE CALLVALUE DUP1 ISZERO PUSH2 0x10 JUMPI PUSH1 0x0 DUP1 REVERT JUMPDEST POP PUSH2 0x1423 DUP1 PUSH2 0x20 PUSH1 0x0 CODECOPY PUSH1 0x0 RETURN INVALID PUSH1 0x80 PUSH1 0x40 MSTORE CALLVALUE DUP1 ISZERO PUSH2 0x10 JUMPI PUSH1 0x0 DUP1 REVERT JUMPDEST POP PUSH1 0x4 CALLDATASIZE LT PUSH2 0x4C JUMPI PUSH1 0x0 CALLDATALOAD PUSH1 0xE0 SHR DUP1 PUSH4 0xAA452FA6 EQ PUSH2 0x51 JUMPI DUP1 PUSH4 0xB96C5CDD EQ PUSH2 0x6D JUMPI DUP1 PUSH4 0xD8BAD5BD EQ PUSH2 0x9E JUMPI DUP1 PUSH4 0xE034F3DC EQ PUSH2 0xCE JUMPI JUMPDEST PUSH1 0x0 DUP1 REVERT JUMPDEST PUSH2 0x6B PUSH1 0x4 DUP1 CALLDATASIZE SUB DUP2 ADD SWAP1 PUSH2 0x66 SWAP2 SWAP1 PUSH2 0xD5C JUMP JUMPDEST PUSH2 0x106 JUMP JUMPDEST STOP JUMPDEST PUSH2 0x87 PUSH1 0x4 DUP1 CALLDATASIZE SUB DUP2 ADD SWAP1 PUSH2 0x82 SWAP2 SWAP1 PUSH2 0xCCE JUMP JUMPDEST PUSH2 0x9CF JUMP JUMPDEST PUSH1 0x40 MLOAD PUSH2 0x95 SWAP3 SWAP2 SWAP1 PUSH2 0x101F JUMP JUMPDEST PUSH1 0x40 MLOAD DUP1 SWAP2 SUB SWAP1 RETURN JUMPDEST PUSH2 0xB8 PUSH1 0x4 DUP1 CALLDATASIZE SUB DUP2 ADD SWAP1 PUSH2 0xB3 SWAP2 SWAP1 PUSH2 0xCF7 JUMP JUMPDEST PUSH2 0xA20 JUMP JUMPDEST PUSH1 0x40 MLOAD PUSH2 0xC5 SWAP2 SWAP1 PUSH2 0x10A8 JUMP JUMPDEST PUSH1 0x40 MLOAD DUP1 SWAP2 SUB SWAP1 RETURN JUMPDEST PUSH2 0xE8 PUSH1 0x4 DUP1 CALLDATASIZE SUB DUP2 ADD SWAP1 PUSH2 0xE3 SWAP2 SWAP1 PUSH2 0xD33 JUMP JUMPDEST PUSH2 0xA51 JUMP JUMPDEST PUSH1 0x40 MLOAD PUSH2 0xFD SWAP10 SWAP9 SWAP8 SWAP7 SWAP6 SWAP5 SWAP4 SWAP3 SWAP2 SWAP1 PUSH2 0x1108 JUMP JUMPDEST PUSH1 0x40 MLOAD DUP1 SWAP2 SUB SWAP1 RETURN JUMPDEST PUSH1 0x0 DUP3 GT PUSH2 0x149 JUMPI PUSH1 0x40 MLOAD PUSH32 0x8C379A000000000000000000000000000000000000000000000000000000000 DUP2 MSTORE PUSH1 0x4 ADD PUSH2 0x140 SWAP1 PUSH2 0x1048 JUMP JUMPDEST PUSH1 0x40 MLOAD DUP1 SWAP2 SUB SWAP1 REVERT JUMPDEST PUSH1 0x0 DUP2 GT PUSH2 0x18C JUMPI PUSH1 0x40 MLOAD PUSH32 0x8C379A000000000000000000000000000000000000000000000000000000000 DUP2 MSTORE PUSH1 0x4 ADD PUSH2 0x183 SWAP1 PUSH2 0x1088 JUMP JUMPDEST PUSH1 0x40 MLOAD DUP1 SWAP2 SUB SWAP1 REVERT JUMPDEST PUSH1 0x0 PUSH1 0x3 PUSH1 0x0 CALLER PUSH20 0xFFFFFFFFFFFFFFFFFFFFFFFFFFFFFFFFFFFFFFFF AND PUSH20 0xFFFFFFFFFFFFFFFFFFFFFFFFFFFFFFFFFFFFFFFF AND DUP2 MSTORE PUSH1 0x20 ADD SWAP1 DUP2 MSTORE PUSH1 0x20 ADD PUSH1 0x0 KECCAK256 DUP1 SLOAD DUP1 PUSH1 0x20 MUL PUSH1 0x20 ADD PUSH1 0x40 MLOAD SWAP1 DUP2 ADD PUSH1 0x40 MSTORE DUP1 SWAP3 SWAP2 SWAP1 DUP2 DUP2 MSTORE PUSH1 0x20 ADD DUP3 DUP1 SLOAD DUP1 ISZERO PUSH2 0x217 JUMPI PUSH1 0x20 MUL DUP3 ADD SWAP2 SWAP1 PUSH1 0x0 MSTORE PUSH1 0x20 PUSH1 0x0 KECCAK256 SWAP1 JUMPDEST DUP2 SLOAD DUP2 MSTORE PUSH1 0x20 ADD SWAP1 PUSH1 0x1 ADD SWAP1 DUP1 DUP4 GT PUSH2 0x203 JUMPI JUMPDEST POP POP POP POP POP SWAP1 POP PUSH1 0x0 JUMPDEST DUP2 MLOAD DUP2 LT ISZERO PUSH2 0x557 JUMPI PUSH1 0x0 DUP3 DUP3 DUP2 MLOAD DUP2 LT PUSH2 0x265 JUMPI PUSH32 0x4E487B7100000000000000000000000000000000000000000000000000000000 PUSH1 0x0 MSTORE PUSH1 0x32 PUSH1 0x4 MSTORE PUSH1 0x24 PUSH1 0x0 REVERT JUMPDEST PUSH1 0x20 MUL PUSH1 0x20 ADD ADD MLOAD SWAP1 POP PUSH1 0x0 PUSH1 0x1 PUSH1 0x0 DUP4 DUP2 MSTORE PUSH1 0x20 ADD SWAP1 DUP2 MSTORE PUSH1 0x20 ADD PUSH1 0x0 KECCAK256 PUSH1 0x40 MLOAD DUP1 PUSH2 0x120 ADD PUSH1 0x40 MSTORE SWAP1 DUP2 PUSH1 0x0 DUP3 ADD SLOAD DUP2 MSTORE PUSH1 0x20 ADD PUSH1 0x1 DUP3 ADD PUSH1 0x40 MLOAD DUP1 PUSH1 0x60 ADD PUSH1 0x40 MSTORE SWAP1 DUP2 PUSH1 0x0 DUP3 ADD PUSH1 0x0 SWAP1 SLOAD SWAP1 PUSH2 0x100 EXP SWAP1 DIV PUSH20 0xFFFFFFFFFFFFFFFFFFFFFFFFFFFFFFFFFFFFFFFF AND PUSH20 0xFFFFFFFFFFFFFFFFFFFFFFFFFFFFFFFFFFFFFFFF AND PUSH20 0xFFFFFFFFFFFFFFFFFFFFFFFFFFFFFFFFFFFFFFFF AND DUP2 MSTORE PUSH1 0x20 ADD PUSH1 0x0 DUP3 ADD PUSH1 0x14 SWAP1 SLOAD SWAP1 PUSH2 0x100 EXP SWAP1 DIV PUSH1 0xFF AND PUSH1 0xFF AND PUSH1 0xFF AND DUP2 MSTORE PUSH1 0x20 ADD PUSH1 0x1 DUP3 ADD DUP1 SLOAD DUP1 PUSH1 0x20 MUL PUSH1 0x20 ADD PUSH1 0x40 MLOAD SWAP1 DUP2 ADD PUSH1 0x40 MSTORE DUP1 SWAP3 SWAP2 SWAP1 DUP2 DUP2 MSTORE PUSH1 0x20 ADD DUP3 DUP1 SLOAD DUP1 ISZERO PUSH2 0x36C JUMPI PUSH1 0x20 MUL DUP3 ADD SWAP2 SWAP1 PUSH1 0x0 MSTORE PUSH1 0x20 PUSH1 0x0 KECCAK256 SWAP1 JUMPDEST DUP2 SLOAD DUP2 MSTORE PUSH1 0x20 ADD SWAP1 PUSH1 0x1 ADD SWAP1 DUP1 DUP4 GT PUSH2 0x358 JUMPI JUMPDEST POP POP POP POP POP DUP2 MSTORE POP POP DUP2 MSTORE PUSH1 0x20 ADD PUSH1 0x3 DUP3 ADD PUSH1 0x0 SWAP1 SLOAD SWAP1 PUSH2 0x100 EXP SWAP1 DIV PUSH20 0xFFFFFFFFFFFFFFFFFFFFFFFFFFFFFFFFFFFFFFFF AND PUSH20 0xFFFFFFFFFFFFFFFFFFFFFFFFFFFFFFFFFFFFFFFF AND PUSH20 0xFFFFFFFFFFFFFFFFFFFFFFFFFFFFFFFFFFFFFFFF AND DUP2 MSTORE PUSH1 0x20 ADD PUSH1 0x4 DUP3 ADD SLOAD DUP2 MSTORE PUSH1 0x20 ADD PUSH1 0x5 DUP3 ADD SLOAD DUP2 MSTORE PUSH1 0x20 ADD PUSH1 0x6 DUP3 ADD SLOAD DUP2 MSTORE PUSH1 0x20 ADD PUSH1 0x7 DUP3 ADD SLOAD DUP2 MSTORE PUSH1 0x20 ADD PUSH1 0x8 DUP3 ADD SLOAD DUP2 MSTORE PUSH1 0x20 ADD PUSH1 0x9 DUP3 ADD PUSH1 0x0 SWAP1 SLOAD SWAP1 PUSH2 0x100 EXP SWAP1 DIV PUSH1 0xFF AND PUSH1 0x3 DUP2 GT ISZERO PUSH2 0x44C JUMPI PUSH32 0x4E487B7100000000000000000000000000000000000000000000000000000000 PUSH1 0x0 MSTORE PUSH1 0x21 PUSH1 0x4 MSTORE PUSH1 0x24 PUSH1 0x0 REVERT JUMPDEST PUSH1 0x3 DUP2 GT ISZERO PUSH2 0x484 JUMPI PUSH32 0x4E487B7100000000000000000000000000000000000000000000000000000000 PUSH1 0x0 MSTORE PUSH1 0x21 PUSH1 0x4 MSTORE PUSH1 0x24 PUSH1 0x0 REVERT JUMPDEST DUP2 MSTORE POP POP SWAP1 POP PUSH1 0x2 PUSH1 0x3 DUP2 GT ISZERO PUSH2 0x4C4 JUMPI PUSH32 0x4E487B7100000000000000000000000000000000000000000000000000000000 PUSH1 0x0 MSTORE PUSH1 0x21 PUSH1 0x4 MSTORE PUSH1 0x24 PUSH1 0x0 REVERT JUMPDEST DUP2 PUSH2 0x100 ADD MLOAD PUSH1 0x3 DUP2 GT ISZERO PUSH2 0x502 JUMPI PUSH32 0x4E487B7100000000000000000000000000000000000000000000000000000000 PUSH1 0x0 MSTORE PUSH1 0x21 PUSH1 0x4 MSTORE PUSH1 0x24 PUSH1 0x0 REVERT JUMPDEST EQ PUSH2 0x542 JUMPI PUSH1 0x40 MLOAD PUSH32 0x8C379A000000000000000000000000000000000000000000000000000000000 DUP2 MSTORE PUSH1 0x4 ADD PUSH2 0x539 SWAP1 PUSH2 0x1068 JUMP JUMPDEST PUSH1 0x40 MLOAD DUP1 SWAP2 SUB SWAP1 REVERT JUMPDEST POP POP DUP1 DUP1 PUSH2 0x54F SWAP1 PUSH2 0x1304 JUMP JUMPDEST SWAP2 POP POP PUSH2 0x221 JUMP JUMPDEST POP PUSH1 0x0 DUP1 DUP2 SLOAD DUP1 SWAP3 SWAP2 SWAP1 PUSH2 0x56A SWAP1 PUSH2 0x1304 JUMP JUMPDEST SWAP2 SWAP1 POP SSTORE POP PUSH1 0x0 PUSH1 0x3 PUSH1 0x0 CALLER PUSH20 0xFFFFFFFFFFFFFFFFFFFFFFFFFFFFFFFFFFFFFFFF AND PUSH20 0xFFFFFFFFFFFFFFFFFFFFFFFFFFFFFFFFFFFFFFFF AND DUP2 MSTORE PUSH1 0x20 ADD SWAP1 DUP2 MSTORE PUSH1 0x20 ADD PUSH1 0x0 KECCAK256 DUP1 SLOAD SWAP1 POP SWAP1 POP PUSH1 0x0 DUP1 DUP3 EQ ISZERO PUSH2 0x5C9 JUMPI PUSH1 0x1 SWAP1 POP PUSH2 0x61C JUMP JUMPDEST PUSH1 0x2 PUSH1 0x0 CALLER PUSH20 0xFFFFFFFFFFFFFFFFFFFFFFFFFFFFFFFFFFFFFFFF AND PUSH20 0xFFFFFFFFFFFFFFFFFFFFFFFFFFFFFFFFFFFFFFFF AND DUP2 MSTORE PUSH1 0x20 ADD SWAP1 DUP2 MSTORE PUSH1 0x20 ADD PUSH1 0x0 KECCAK256 PUSH1 0x0 ADD PUSH1 0x14 SWAP1 SLOAD SWAP1 PUSH2 0x100 EXP SWAP1 DIV PUSH1 0xFF AND SWAP1 POP JUMPDEST PUSH1 0x0 DUP1 PUSH2 0x628 DUP4 PUSH2 0xBA1 JUMP JUMPDEST SWAP2 POP SWAP2 POP PUSH1 0x0 PUSH1 0x40 MLOAD DUP1 PUSH2 0x120 ADD PUSH1 0x40 MSTORE DUP1 PUSH1 0x0 SLOAD DUP2 MSTORE PUSH1 0x20 ADD PUSH1 0x40 MLOAD DUP1 PUSH1 0x60 ADD PUSH1 0x40 MSTORE DUP1 CALLER PUSH20 0xFFFFFFFFFFFFFFFFFFFFFFFFFFFFFFFFFFFFFFFF AND DUP2 MSTORE PUSH1 0x20 ADD DUP8 PUSH1 0xFF AND DUP2 MSTORE PUSH1 0x20 ADD PUSH1 0x3 PUSH1 0x0 CALLER PUSH20 0xFFFFFFFFFFFFFFFFFFFFFFFFFFFFFFFFFFFFFFFF AND PUSH20 0xFFFFFFFFFFFFFFFFFFFFFFFFFFFFFFFFFFFFFFFF AND DUP2 MSTORE PUSH1 0x20 ADD SWAP1 DUP2 MSTORE PUSH1 0x20 ADD PUSH1 0x0 KECCAK256 DUP1 SLOAD DUP1 PUSH1 0x20 MUL PUSH1 0x20 ADD PUSH1 0x40 MLOAD SWAP1 DUP2 ADD PUSH1 0x40 MSTORE DUP1 SWAP3 SWAP2 SWAP1 DUP2 DUP2 MSTORE PUSH1 0x20 ADD DUP3 DUP1 SLOAD DUP1 ISZERO PUSH2 0x6FB JUMPI PUSH1 0x20 MUL DUP3 ADD SWAP2 SWAP1 PUSH1 0x0 MSTORE PUSH1 0x20 PUSH1 0x0 KECCAK256 SWAP1 JUMPDEST DUP2 SLOAD DUP2 MSTORE PUSH1 0x20 ADD SWAP1 PUSH1 0x1 ADD SWAP1 DUP1 DUP4 GT PUSH2 0x6E7 JUMPI JUMPDEST POP POP POP POP POP DUP2 MSTORE POP DUP2 MSTORE PUSH1 0x20 ADD PUSH1 0x0 PUSH20 0xFFFFFFFFFFFFFFFFFFFFFFFFFFFFFFFFFFFFFFFF AND DUP2 MSTORE PUSH1 0x20 ADD DUP10 DUP2 MSTORE PUSH1 0x20 ADD DUP5 DUP2 MSTORE PUSH1 0x20 ADD DUP4 DUP2 MSTORE PUSH1 0x20 ADD TIMESTAMP DUP2 MSTORE PUSH1 0x20 ADD PUSH3 0x15180 DUP10 PUSH2 0x74C SWAP2 SWAP1 PUSH2 0x123C JUMP JUMPDEST TIMESTAMP PUSH2 0x757 SWAP2 SWAP1 PUSH2 0x11E6 JUMP JUMPDEST DUP2 MSTORE PUSH1 0x20 ADD PUSH1 0x1 PUSH1 0x3 DUP2 GT ISZERO PUSH2 0x796 JUMPI PUSH32 0x4E487B7100000000000000000000000000000000000000000000000000000000 PUSH1 0x0 MSTORE PUSH1 0x21 PUSH1 0x4 MSTORE PUSH1 0x24 PUSH1 0x0 REVERT JUMPDEST DUP2 MSTORE POP SWAP1 POP DUP1 PUSH1 0x1 PUSH1 0x0 DUP1 SLOAD DUP2 MSTORE PUSH1 0x20 ADD SWAP1 DUP2 MSTORE PUSH1 0x20 ADD PUSH1 0x0 KECCAK256 PUSH1 0x0 DUP3 ADD MLOAD DUP2 PUSH1 0x0 ADD SSTORE PUSH1 0x20 DUP3 ADD MLOAD DUP2 PUSH1 0x1 ADD PUSH1 0x0 DUP3 ADD MLOAD DUP2 PUSH1 0x0 ADD PUSH1 0x0 PUSH2 0x100 EXP DUP2 SLOAD DUP2 PUSH20 0xFFFFFFFFFFFFFFFFFFFFFFFFFFFFFFFFFFFFFFFF MUL NOT AND SWAP1 DUP4 PUSH20 0xFFFFFFFFFFFFFFFFFFFFFFFFFFFFFFFFFFFFFFFF AND MUL OR SWAP1 SSTORE POP PUSH1 0x20 DUP3 ADD MLOAD DUP2 PUSH1 0x0 ADD PUSH1 0x14 PUSH2 0x100 EXP DUP2 SLOAD DUP2 PUSH1 0xFF MUL NOT AND SWAP1 DUP4 PUSH1 0xFF AND MUL OR SWAP1 SSTORE POP PUSH1 0x40 DUP3 ADD MLOAD DUP2 PUSH1 0x1 ADD SWAP1 DUP1 MLOAD SWAP1 PUSH1 0x20 ADD SWAP1 PUSH2 0x847 SWAP3 SWAP2 SWAP1 PUSH2 0xC3A JUMP JUMPDEST POP POP POP PUSH1 0x40 DUP3 ADD MLOAD DUP2 PUSH1 0x3 ADD PUSH1 0x0 PUSH2 0x100 EXP DUP2 SLOAD DUP2 PUSH20 0xFFFFFFFFFFFFFFFFFFFFFFFFFFFFFFFFFFFFFFFF MUL NOT AND SWAP1 DUP4 PUSH20 0xFFFFFFFFFFFFFFFFFFFFFFFFFFFFFFFFFFFFFFFF AND MUL OR SWAP1 SSTORE POP PUSH1 0x60 DUP3 ADD MLOAD DUP2 PUSH1 0x4 ADD SSTORE PUSH1 0x80 DUP3 ADD MLOAD DUP2 PUSH1 0x5 ADD SSTORE PUSH1 0xA0 DUP3 ADD MLOAD DUP2 PUSH1 0x6 ADD SSTORE PUSH1 0xC0 DUP3 ADD MLOAD DUP2 PUSH1 0x7 ADD SSTORE PUSH1 0xE0 DUP3 ADD MLOAD DUP2 PUSH1 0x8 ADD SSTORE PUSH2 0x100 DUP3 ADD MLOAD DUP2 PUSH1 0x9 ADD PUSH1 0x0 PUSH2 0x100 EXP DUP2 SLOAD DUP2 PUSH1 0xFF MUL NOT AND SWAP1 DUP4 PUSH1 0x3 DUP2 GT ISZERO PUSH2 0x915 JUMPI PUSH32 0x4E487B7100000000000000000000000000000000000000000000000000000000 PUSH1 0x0 MSTORE PUSH1 0x21 PUSH1 0x4 MSTORE PUSH1 0x24 PUSH1 0x0 REVERT JUMPDEST MUL OR SWAP1 SSTORE POP SWAP1 POP POP PUSH1 0x3 PUSH1 0x0 CALLER PUSH20 0xFFFFFFFFFFFFFFFFFFFFFFFFFFFFFFFFFFFFFFFF AND PUSH20 0xFFFFFFFFFFFFFFFFFFFFFFFFFFFFFFFFFFFFFFFF AND DUP2 MSTORE PUSH1 0x20 ADD SWAP1 DUP2 MSTORE PUSH1 0x20 ADD PUSH1 0x0 KECCAK256 PUSH1 0x0 SLOAD SWAP1 DUP1 PUSH1 0x1 DUP2 SLOAD ADD DUP1 DUP3 SSTORE DUP1 SWAP2 POP POP PUSH1 0x1 SWAP1 SUB SWAP1 PUSH1 0x0 MSTORE PUSH1 0x20 PUSH1 0x0 KECCAK256 ADD PUSH1 0x0 SWAP1 SWAP2 SWAP1 SWAP2 SWAP1 SWAP2 POP SSTORE PUSH32 0xB526FA2E029CDCDF2B742EE24BB87D34106DC9EA1DD61CF012BCEAFA57D31E5 PUSH1 0x0 SLOAD CALLER DUP11 PUSH1 0x1 PUSH1 0x40 MLOAD PUSH2 0x9BD SWAP5 SWAP4 SWAP3 SWAP2 SWAP1 PUSH2 0x10C3 JUMP JUMPDEST PUSH1 0x40 MLOAD DUP1 SWAP2 SUB SWAP1 LOG1 POP POP POP POP POP POP POP POP JUMP JUMPDEST PUSH1 0x2 PUSH1 0x20 MSTORE DUP1 PUSH1 0x0 MSTORE PUSH1 0x40 PUSH1 0x0 KECCAK256 PUSH1 0x0 SWAP2 POP SWAP1 POP DUP1 PUSH1 0x0 ADD PUSH1 0x0 SWAP1 SLOAD SWAP1 PUSH2 0x100 EXP SWAP1 DIV PUSH20 0xFFFFFFFFFFFFFFFFFFFFFFFFFFFFFFFFFFFFFFFF AND SWAP1 DUP1 PUSH1 0x0 ADD PUSH1 0x14 SWAP1 SLOAD SWAP1 PUSH2 0x100 EXP SWAP1 DIV PUSH1 0xFF AND SWAP1 POP DUP3 JUMP JUMPDEST PUSH1 0x3 PUSH1 0x20 MSTORE DUP2 PUSH1 0x0 MSTORE PUSH1 0x40 PUSH1 0x0 KECCAK256 DUP2 DUP2 SLOAD DUP2 LT PUSH2 0xA3C JUMPI PUSH1 0x0 DUP1 REVERT JUMPDEST SWAP1 PUSH1 0x0 MSTORE PUSH1 0x20 PUSH1 0x0 KECCAK256 ADD PUSH1 0x0 SWAP2 POP SWAP2 POP POP SLOAD DUP2 JUMP JUMPDEST PUSH1 0x1 PUSH1 0x20 MSTORE DUP1 PUSH1 0x0 MSTORE PUSH1 0x40 PUSH1 0x0 KECCAK256 PUSH1 0x0 SWAP2 POP SWAP1 POP DUP1 PUSH1 0x0 ADD SLOAD SWAP1 DUP1 PUSH1 0x1 ADD PUSH1 0x40 MLOAD DUP1 PUSH1 0x60 ADD PUSH1 0x40 MSTORE SWAP1 DUP2 PUSH1 0x0 DUP3 ADD PUSH1 0x0 SWAP1 SLOAD SWAP1 PUSH2 0x100 EXP SWAP1 DIV PUSH20 0xFFFFFFFFFFFFFFFFFFFFFFFFFFFFFFFFFFFFFFFF AND PUSH20 0xFFFFFFFFFFFFFFFFFFFFFFFFFFFFFFFFFFFFFFFF AND PUSH20 0xFFFFFFFFFFFFFFFFFFFFFFFFFFFFFFFFFFFFFFFF AND DUP2 MSTORE PUSH1 0x20 ADD PUSH1 0x0 DUP3 ADD PUSH1 0x14 SWAP1 SLOAD SWAP1 PUSH2 0x100 EXP SWAP1 DIV PUSH1 0xFF AND PUSH1 0xFF AND PUSH1 0xFF AND DUP2 MSTORE PUSH1 0x20 ADD PUSH1 0x1 DUP3 ADD DUP1 SLOAD DUP1 PUSH1 0x20 MUL PUSH1 0x20 ADD PUSH1 0x40 MLOAD SWAP1 DUP2 ADD PUSH1 0x40 MSTORE DUP1 SWAP3 SWAP2 SWAP1 DUP2 DUP2 MSTORE PUSH1 0x20 ADD DUP3 DUP1 SLOAD DUP1 ISZERO PUSH2 0xB3C JUMPI PUSH1 0x20 MUL DUP3 ADD SWAP2 SWAP1 PUSH1 0x0 MSTORE PUSH1 0x20 PUSH1 0x0 KECCAK256 SWAP1 JUMPDEST DUP2 SLOAD DUP2 MSTORE PUSH1 0x20 ADD SWAP1 PUSH1 0x1 ADD SWAP1 DUP1 DUP4 GT PUSH2 0xB28 JUMPI JUMPDEST POP POP POP POP POP DUP2 MSTORE POP POP SWAP1 DUP1 PUSH1 0x3 ADD PUSH1 0x0 SWAP1 SLOAD SWAP1 PUSH2 0x100 EXP SWAP1 DIV PUSH20 0xFFFFFFFFFFFFFFFFFFFFFFFFFFFFFFFFFFFFFFFF AND SWAP1 DUP1 PUSH1 0x4 ADD SLOAD SWAP1 DUP1 PUSH1 0x5 ADD SLOAD SWAP1 DUP1 PUSH1 0x6 ADD SLOAD SWAP1 DUP1 PUSH1 0x7 ADD SLOAD SWAP1 DUP1 PUSH1 0x8 ADD SLOAD SWAP1 DUP1 PUSH1 0x9 ADD PUSH1 0x0 SWAP1 SLOAD SWAP1 PUSH2 0x100 EXP SWAP1 DIV PUSH1 0xFF AND SWAP1 POP DUP10 JUMP JUMPDEST PUSH1 0x0 DUP1 PUSH1 0x0 DUP1 PUSH1 0x0 DUP6 PUSH1 0xFF AND EQ ISZERO PUSH2 0xBC2 JUMPI PUSH2 0x7D0 SWAP2 POP PUSH2 0xBB8 SWAP1 POP PUSH2 0xC2D JUMP JUMPDEST PUSH1 0x1 DUP6 PUSH1 0xFF AND EQ ISZERO PUSH2 0xBDD JUMPI PUSH2 0x4B0 SWAP2 POP PUSH2 0x7D0 SWAP1 POP PUSH2 0xC2C JUMP JUMPDEST PUSH1 0x2 DUP6 PUSH1 0xFF AND EQ ISZERO PUSH2 0xBF8 JUMPI PUSH2 0x3E8 SWAP2 POP PUSH2 0x5DC SWAP1 POP PUSH2 0xC2B JUMP JUMPDEST PUSH1 0x3 DUP6 PUSH1 0xFF AND EQ ISZERO PUSH2 0xC13 JUMPI PUSH2 0x320 SWAP2 POP PUSH2 0x514 SWAP1 POP PUSH2 0xC2A JUMP JUMPDEST PUSH1 0x4 DUP6 PUSH1 0xFF AND LT PUSH2 0xC29 JUMPI PUSH2 0x258 SWAP2 POP PUSH2 0x384 SWAP1 POP JUMPDEST JUMPDEST JUMPDEST JUMPDEST JUMPDEST DUP2 DUP2 SWAP4 POP SWAP4 POP POP POP SWAP2 POP SWAP2 JUMP JUMPDEST DUP3 DUP1 SLOAD DUP3 DUP3 SSTORE SWAP1 PUSH1 0x0 MSTORE PUSH1 0x20 PUSH1 0x0 KECCAK256 SWAP1 DUP2 ADD SWAP3 DUP3 ISZERO PUSH2 0xC76 JUMPI SWAP2 PUSH1 0x20 MUL DUP3 ADD JUMPDEST DUP3 DUP2 GT ISZERO PUSH2 0xC75 JUMPI DUP3 MLOAD DUP3 SSTORE SWAP2 PUSH1 0x20 ADD SWAP2 SWAP1 PUSH1 0x1 ADD SWAP1 PUSH2 0xC5A JUMP JUMPDEST JUMPDEST POP SWAP1 POP PUSH2 0xC83 SWAP2 SWAP1 PUSH2 0xC87 JUMP JUMPDEST POP SWAP1 JUMP JUMPDEST JUMPDEST DUP1 DUP3 GT ISZERO PUSH2 0xCA0 JUMPI PUSH1 0x0 DUP2 PUSH1 0x0 SWAP1 SSTORE POP PUSH1 0x1 ADD PUSH2 0xC88 JUMP JUMPDEST POP SWAP1 JUMP JUMPDEST PUSH1 0x0 DUP2 CALLDATALOAD SWAP1 POP PUSH2 0xCB3 DUP2 PUSH2 0x13BF JUMP JUMPDEST SWAP3 SWAP2 POP POP JUMP JUMPDEST PUSH1 0x0 DUP2 CALLDATALOAD SWAP1 POP PUSH2 0xCC8 DUP2 PUSH2 0x13D6 JUMP JUMPDEST SWAP3 SWAP2 POP POP JUMP JUMPDEST PUSH1 0x0 PUSH1 0x20 DUP3 DUP5 SUB SLT ISZERO PUSH2 0xCE0 JUMPI PUSH1 0x0 DUP1 REVERT JUMPDEST PUSH1 0x0 PUSH2 0xCEE DUP5 DUP3 DUP6 ADD PUSH2 0xCA4 JUMP JUMPDEST SWAP2 POP POP SWAP3 SWAP2 POP POP JUMP JUMPDEST PUSH1 0x0 DUP1 PUSH1 0x40 DUP4 DUP6 SUB SLT ISZERO PUSH2 0xD0A JUMPI PUSH1 0x0 DUP1 REVERT JUMPDEST PUSH1 0x0 PUSH2 0xD18 DUP6 DUP3 DUP7 ADD PUSH2 0xCA4 JUMP JUMPDEST SWAP3 POP POP PUSH1 0x20 PUSH2 0xD29 DUP6 DUP3 DUP7 ADD PUSH2 0xCB9 JUMP JUMPDEST SWAP2 POP POP SWAP3 POP SWAP3 SWAP1 POP JUMP JUMPDEST PUSH1 0x0 PUSH1 0x20 DUP3 DUP5 SUB SLT ISZERO PUSH2 0xD45 JUMPI PUSH1 0x0 DUP1 REVERT JUMPDEST PUSH1 0x0 PUSH2 0xD53 DUP5 DUP3 DUP6 ADD PUSH2 0xCB9 JUMP JUMPDEST SWAP2 POP POP SWAP3 SWAP2 POP POP JUMP JUMPDEST PUSH1 0x0 DUP1 PUSH1 0x40 DUP4 DUP6 SUB SLT ISZERO PUSH2 0xD6F JUMPI PUSH1 0x0 DUP1 REVERT JUMPDEST PUSH1 0x0 PUSH2 0xD7D DUP6 DUP3 DUP7 ADD PUSH2 0xCB9 JUMP JUMPDEST SWAP3 POP POP PUSH1 0x20 PUSH2 0xD8E DUP6 DUP3 DUP7 ADD PUSH2 0xCB9 JUMP JUMPDEST SWAP2 POP POP SWAP3 POP SWAP3 SWAP1 POP JUMP JUMPDEST PUSH1 0x0 PUSH2 0xDA4 DUP4 DUP4 PUSH2 0xFE3 JUMP JUMPDEST PUSH1 0x20 DUP4 ADD SWAP1 POP SWAP3 SWAP2 POP POP JUMP JUMPDEST PUSH2 0xDB9 DUP2 PUSH2 0x1296 JUMP JUMPDEST DUP3 MSTORE POP POP JUMP JUMPDEST PUSH2 0xDC8 DUP2 PUSH2 0x1296 JUMP JUMPDEST DUP3 MSTORE POP POP JUMP JUMPDEST PUSH1 0x0 PUSH2 0xDD9 DUP3 PUSH2 0x11AC JUMP JUMPDEST PUSH2 0xDE3 DUP2 DUP6 PUSH2 0x11C4 JUMP JUMPDEST SWAP4 POP PUSH2 0xDEE DUP4 PUSH2 0x119C JUMP JUMPDEST DUP1 PUSH1 0x0 JUMPDEST DUP4 DUP2 LT ISZERO PUSH2 0xE1F JUMPI DUP2 MLOAD PUSH2 0xE06 DUP9 DUP3 PUSH2 0xD98 JUMP JUMPDEST SWAP8 POP PUSH2 0xE11 DUP4 PUSH2 0x11B7 JUMP JUMPDEST SWAP3 POP POP PUSH1 0x1 DUP2 ADD SWAP1 POP PUSH2 0xDF2 JUMP JUMPDEST POP DUP6 SWAP4 POP POP POP POP SWAP3 SWAP2 POP POP JUMP JUMPDEST PUSH2 0xE35 DUP2 PUSH2 0x12F2 JUMP JUMPDEST DUP3 MSTORE POP POP JUMP JUMPDEST PUSH1 0x0 PUSH2 0xE48 PUSH1 0x29 DUP4 PUSH2 0x11D5 JUMP JUMPDEST SWAP2 POP PUSH32 0x546865206C6F616E20616D6F756E74206D757374206265206772656174657220 PUSH1 0x0 DUP4 ADD MSTORE PUSH32 0x7468616E207A65726F0000000000000000000000000000000000000000000000 PUSH1 0x20 DUP4 ADD MSTORE PUSH1 0x40 DUP3 ADD SWAP1 POP SWAP2 SWAP1 POP JUMP JUMPDEST PUSH1 0x0 PUSH2 0xEAE PUSH1 0x4B DUP4 PUSH2 0x11D5 JUMP JUMPDEST SWAP2 POP PUSH32 0x596F752063616E6E6F7420726571756573742061206E6577206C6F616E206966 PUSH1 0x0 DUP4 ADD MSTORE PUSH32 0x20796F7520686176652070656E64696E672C206163746976652C206F72206F76 PUSH1 0x20 DUP4 ADD MSTORE PUSH32 0x6572647565206C6F616E73000000000000000000000000000000000000000000 PUSH1 0x40 DUP4 ADD MSTORE PUSH1 0x60 DUP3 ADD SWAP1 POP SWAP2 SWAP1 POP JUMP JUMPDEST PUSH1 0x0 PUSH2 0xF3A PUSH1 0x2E DUP4 PUSH2 0x11D5 JUMP JUMPDEST SWAP2 POP PUSH32 0x546865206C6F616E20706572696F64206D757374206265206772656174657220 PUSH1 0x0 DUP4 ADD MSTORE PUSH32 0x7468616E207A65726F2064617973000000000000000000000000000000000000 PUSH1 0x20 DUP4 ADD MSTORE PUSH1 0x40 DUP3 ADD SWAP1 POP SWAP2 SWAP1 POP JUMP JUMPDEST PUSH1 0x0 PUSH1 0x60 DUP4 ADD PUSH1 0x0 DUP4 ADD MLOAD PUSH2 0xFAB PUSH1 0x0 DUP7 ADD DUP3 PUSH2 0xDB0 JUMP JUMPDEST POP PUSH1 0x20 DUP4 ADD MLOAD PUSH2 0xFBE PUSH1 0x20 DUP7 ADD DUP3 PUSH2 0x1001 JUMP JUMPDEST POP PUSH1 0x40 DUP4 ADD MLOAD DUP5 DUP3 SUB PUSH1 0x40 DUP7 ADD MSTORE PUSH2 0xFD6 DUP3 DUP3 PUSH2 0xDCE JUMP JUMPDEST SWAP2 POP POP DUP1 SWAP2 POP POP SWAP3 SWAP2 POP POP JUMP JUMPDEST PUSH2 0xFEC DUP2 PUSH2 0x12DB JUMP JUMPDEST DUP3 MSTORE POP POP JUMP JUMPDEST PUSH2 0xFFB DUP2 PUSH2 0x12DB JUMP JUMPDEST DUP3 MSTORE POP POP JUMP JUMPDEST PUSH2 0x100A DUP2 PUSH2 0x12E5 JUMP JUMPDEST DUP3 MSTORE POP POP JUMP JUMPDEST PUSH2 0x1019 DUP2 PUSH2 0x12E5 JUMP JUMPDEST DUP3 MSTORE POP POP JUMP JUMPDEST PUSH1 0x0 PUSH1 0x40 DUP3 ADD SWAP1 POP PUSH2 0x1034 PUSH1 0x0 DUP4 ADD DUP6 PUSH2 0xDBF JUMP JUMPDEST PUSH2 0x1041 PUSH1 0x20 DUP4 ADD DUP5 PUSH2 0x1010 JUMP JUMPDEST SWAP4 SWAP3 POP POP POP JUMP JUMPDEST PUSH1 0x0 PUSH1 0x20 DUP3 ADD SWAP1 POP DUP2 DUP2 SUB PUSH1 0x0 DUP4 ADD MSTORE PUSH2 0x1061 DUP2 PUSH2 0xE3B JUMP JUMPDEST SWAP1 POP SWAP2 SWAP1 POP JUMP JUMPDEST PUSH1 0x0 PUSH1 0x20 DUP3 ADD SWAP1 POP DUP2 DUP2 SUB PUSH1 0x0 DUP4 ADD MSTORE PUSH2 0x1081 DUP2 PUSH2 0xEA1 JUMP JUMPDEST SWAP1 POP SWAP2 SWAP1 POP JUMP JUMPDEST PUSH1 0x0 PUSH1 0x20 DUP3 ADD SWAP1 POP DUP2 DUP2 SUB PUSH1 0x0 DUP4 ADD MSTORE PUSH2 0x10A1 DUP2 PUSH2 0xF2D JUMP JUMPDEST SWAP1 POP SWAP2 SWAP1 POP JUMP JUMPDEST PUSH1 0x0 PUSH1 0x20 DUP3 ADD SWAP1 POP PUSH2 0x10BD PUSH1 0x0 DUP4 ADD DUP5 PUSH2 0xFF2 JUMP JUMPDEST SWAP3 SWAP2 POP POP JUMP JUMPDEST PUSH1 0x0 PUSH1 0x80 DUP3 ADD SWAP1 POP PUSH2 0x10D8 PUSH1 0x0 DUP4 ADD DUP8 PUSH2 0xFF2 JUMP JUMPDEST PUSH2 0x10E5 PUSH1 0x20 DUP4 ADD DUP7 PUSH2 0xDBF JUMP JUMPDEST PUSH2 0x10F2 PUSH1 0x40 DUP4 ADD DUP6 PUSH2 0xFF2 JUMP JUMPDEST PUSH2 0x10FF PUSH1 0x60 DUP4 ADD DUP5 PUSH2 0xE2C JUMP JUMPDEST SWAP6 SWAP5 POP POP POP POP POP JUMP JUMPDEST PUSH1 0x0 PUSH2 0x120 DUP3 ADD SWAP1 POP PUSH2 0x111E PUSH1 0x0 DUP4 ADD DUP13 PUSH2 0xFF2 JUMP JUMPDEST DUP2 DUP2 SUB PUSH1 0x20 DUP4 ADD MSTORE PUSH2 0x1130 DUP2 DUP12 PUSH2 0xF93 JUMP JUMPDEST SWAP1 POP PUSH2 0x113F PUSH1 0x40 DUP4 ADD DUP11 PUSH2 0xDBF JUMP JUMPDEST PUSH2 0x114C PUSH1 0x60 DUP4 ADD DUP10 PUSH2 0xFF2 JUMP JUMPDEST PUSH2 0x1159 PUSH1 0x80 DUP4 ADD DUP9 PUSH2 0xFF2 JUMP JUMPDEST PUSH2 0x1166 PUSH1 0xA0 DUP4 ADD DUP8 PUSH2 0xFF2 JUMP JUMPDEST PUSH2 0x1173 PUSH1 0xC0 DUP4 ADD DUP7 PUSH2 0xFF2 JUMP JUMPDEST PUSH2 0x1180 PUSH1 0xE0 DUP4 ADD DUP6 PUSH2 0xFF2 JUMP JUMPDEST PUSH2 0x118E PUSH2 0x100 DUP4 ADD DUP5 PUSH2 0xE2C JUMP JUMPDEST SWAP11 SWAP10 POP POP POP POP POP POP POP POP POP POP JUMP JUMPDEST PUSH1 0x0 DUP2 SWAP1 POP PUSH1 0x20 DUP3 ADD SWAP1 POP SWAP2 SWAP1 POP JUMP JUMPDEST PUSH1 0x0 DUP2 MLOAD SWAP1 POP SWAP2 SWAP1 POP JUMP JUMPDEST PUSH1 0x0 PUSH1 0x20 DUP3 ADD SWAP1 POP SWAP2 SWAP1 POP JUMP JUMPDEST PUSH1 0x0 DUP3 DUP3 MSTORE PUSH1 0x20 DUP3 ADD SWAP1 POP SWAP3 SWAP2 POP POP JUMP JUMPDEST PUSH1 0x0 DUP3 DUP3 MSTORE PUSH1 0x20 DUP3 ADD SWAP1 POP SWAP3 SWAP2 POP POP JUMP JUMPDEST PUSH1 0x0 PUSH2 0x11F1 DUP3 PUSH2 0x12DB JUMP JUMPDEST SWAP2 POP PUSH2 0x11FC DUP4 PUSH2 0x12DB JUMP JUMPDEST SWAP3 POP DUP3 PUSH32 0xFFFFFFFFFFFFFFFFFFFFFFFFFFFFFFFFFFFFFFFFFFFFFFFFFFFFFFFFFFFFFFFF SUB DUP3 GT ISZERO PUSH2 0x1231 JUMPI PUSH2 0x1230 PUSH2 0x134D JUMP JUMPDEST JUMPDEST DUP3 DUP3 ADD SWAP1 POP SWAP3 SWAP2 POP POP JUMP JUMPDEST PUSH1 0x0 PUSH2 0x1247 DUP3 PUSH2 0x12DB JUMP JUMPDEST SWAP2 POP PUSH2 0x1252 DUP4 PUSH2 0x12DB JUMP JUMPDEST SWAP3 POP DUP2 PUSH32 0xFFFFFFFFFFFFFFFFFFFFFFFFFFFFFFFFFFFFFFFFFFFFFFFFFFFFFFFFFFFFFFFF DIV DUP4 GT DUP3 ISZERO ISZERO AND ISZERO PUSH2 0x128B JUMPI PUSH2 0x128A PUSH2 0x134D JUMP JUMPDEST JUMPDEST DUP3 DUP3 MUL SWAP1 POP SWAP3 SWAP2 POP POP JUMP JUMPDEST PUSH1 0x0 PUSH2 0x12A1 DUP3 PUSH2 0x12BB JUMP JUMPDEST SWAP1 POP SWAP2 SWAP1 POP JUMP JUMPDEST PUSH1 0x0 DUP2 SWAP1 POP PUSH2 0x12B6 DUP3 PUSH2 0x13AB JUMP JUMPDEST SWAP2 SWAP1 POP JUMP JUMPDEST PUSH1 0x0 PUSH20 0xFFFFFFFFFFFFFFFFFFFFFFFFFFFFFFFFFFFFFFFF DUP3 AND SWAP1 POP SWAP2 SWAP1 POP JUMP JUMPDEST PUSH1 0x0 DUP2 SWAP1 POP SWAP2 SWAP1 POP JUMP JUMPDEST PUSH1 0x0 PUSH1 0xFF DUP3 AND SWAP1 POP SWAP2 SWAP1 POP JUMP JUMPDEST PUSH1 0x0 PUSH2 0x12FD DUP3 PUSH2 0x12A8 JUMP JUMPDEST SWAP1 POP SWAP2 SWAP1 POP JUMP JUMPDEST PUSH1 0x0 PUSH2 0x130F DUP3 PUSH2 0x12DB JUMP JUMPDEST SWAP2 POP PUSH32 0xFFFFFFFFFFFFFFFFFFFFFFFFFFFFFFFFFFFFFFFFFFFFFFFFFFFFFFFFFFFFFFFF DUP3 EQ ISZERO PUSH2 0x1342 JUMPI PUSH2 0x1341 PUSH2 0x134D JUMP JUMPDEST JUMPDEST PUSH1 0x1 DUP3 ADD SWAP1 POP SWAP2 SWAP1 POP JUMP JUMPDEST PUSH32 0x4E487B7100000000000000000000000000000000000000000000000000000000 PUSH1 0x0 MSTORE PUSH1 0x11 PUSH1 0x4 MSTORE PUSH1 0x24 PUSH1 0x0 REVERT JUMPDEST PUSH32 0x4E487B7100000000000000000000000000000000000000000000000000000000 PUSH1 0x0 MSTORE PUSH1 0x21 PUSH1 0x4 MSTORE PUSH1 0x24 PUSH1 0x0 REVERT JUMPDEST PUSH1 0x4 DUP2 LT PUSH2 0x13BC JUMPI PUSH2 0x13BB PUSH2 0x137C JUMP JUMPDEST JUMPDEST POP JUMP JUMPDEST PUSH2 0x13C8 DUP2 PUSH2 0x1296 JUMP JUMPDEST DUP2 EQ PUSH2 0x13D3 JUMPI PUSH1 0x0 DUP1 REVERT JUMPDEST POP JUMP JUMPDEST PUSH2 0x13DF DUP2 PUSH2 0x12DB JUMP JUMPDEST DUP2 EQ PUSH2 0x13EA JUMPI PUSH1 0x0 DUP1 REVERT JUMPDEST POP JUMP INVALID LOG2 PUSH5 0x6970667358 0x22 SLT KECCAK256 CALLDATACOPY RETURN 0x1F 0xAD LOG1 LT SHL DUP8 REVERT JUMPI GT DUP4 0xC1 BLOCKHASH 0xC6 0x2E 0xC0 SWAP13 0xC7 0xD8 0xAF 0xD3 SWAP3 CALLDATASIZE CHAINID DUP8 RETURN DUP14 GAS DUP6 0xC1 0xC7 PUSH5 0x736F6C6343 STOP ADDMOD STOP STOP CALLER "
				},
				"gasEstimates": {
					"creation": {
						"codeDepositCost": "1031000",
						"executionCost": "1074",
						"totalCost": "1032074"
					},
					"external": {
						"loanBorrowers(address)": "infinite",
						"loansById(uint256)": "infinite",
						"requestLoan(uint256,uint256)": "infinite",
						"userLoans(address,uint256)": "infinite"
					},
					"internal": {
						"loanInterestCalculator(uint8)": "226"
					}
				},
				"methodIdentifiers": {
					"loanBorrowers(address)": "b96c5cdd",
					"loansById(uint256)": "e034f3dc",
					"requestLoan(uint256,uint256)": "aa452fa6",
					"userLoans(address,uint256)": "d8bad5bd"
				}
			},
			"storageLayout": {
				"storage": [
					{
						"astId": 129,
						"contract": "scritturatemporanea.sol:LoanManager",
						"label": "loanCounter",
						"offset": 0,
						"slot": "0",
						"type": "t_uint256"
					},
					{
						"astId": 134,
						"contract": "scritturatemporanea.sol:LoanManager",
						"label": "loansById",
						"offset": 0,
						"slot": "1",
						"type": "t_mapping(t_uint256,t_struct(Loan)127_storage)"
					},
					{
						"astId": 139,
						"contract": "scritturatemporanea.sol:LoanManager",
						"label": "loanBorrowers",
						"offset": 0,
						"slot": "2",
						"type": "t_mapping(t_address,t_struct(LoanBorrower)106_storage)"
					},
					{
						"astId": 144,
						"contract": "scritturatemporanea.sol:LoanManager",
						"label": "userLoans",
						"offset": 0,
						"slot": "3",
						"type": "t_mapping(t_address,t_array(t_uint256)dyn_storage)"
					}
				],
				"types": {
					"t_address": {
						"encoding": "inplace",
						"label": "address",
						"numberOfBytes": "20"
					},
					"t_array(t_uint256)dyn_storage": {
						"base": "t_uint256",
						"encoding": "dynamic_array",
						"label": "uint256[]",
						"numberOfBytes": "32"
					},
					"t_enum(LoanStatus)98": {
						"encoding": "inplace",
						"label": "enum LoanManager.LoanStatus",
						"numberOfBytes": "1"
					},
					"t_mapping(t_address,t_array(t_uint256)dyn_storage)": {
						"encoding": "mapping",
						"key": "t_address",
						"label": "mapping(address => uint256[])",
						"numberOfBytes": "32",
						"value": "t_array(t_uint256)dyn_storage"
					},
					"t_mapping(t_address,t_struct(LoanBorrower)106_storage)": {
						"encoding": "mapping",
						"key": "t_address",
						"label": "mapping(address => struct LoanManager.LoanBorrower)",
						"numberOfBytes": "32",
						"value": "t_struct(LoanBorrower)106_storage"
					},
					"t_mapping(t_uint256,t_struct(Loan)127_storage)": {
						"encoding": "mapping",
						"key": "t_uint256",
						"label": "mapping(uint256 => struct LoanManager.Loan)",
						"numberOfBytes": "32",
						"value": "t_struct(Loan)127_storage"
					},
					"t_struct(Loan)127_storage": {
						"encoding": "inplace",
						"label": "struct LoanManager.Loan",
						"members": [
							{
								"astId": 108,
								"contract": "scritturatemporanea.sol:LoanManager",
								"label": "loanId",
								"offset": 0,
								"slot": "0",
								"type": "t_uint256"
							},
							{
								"astId": 111,
								"contract": "scritturatemporanea.sol:LoanManager",
								"label": "borrowerAddress",
								"offset": 0,
								"slot": "1",
								"type": "t_struct(LoanBorrower)106_storage"
							},
							{
								"astId": 113,
								"contract": "scritturatemporanea.sol:LoanManager",
								"label": "lenderAddress",
								"offset": 0,
								"slot": "3",
								"type": "t_address"
							},
							{
								"astId": 115,
								"contract": "scritturatemporanea.sol:LoanManager",
								"label": "amount",
								"offset": 0,
								"slot": "4",
								"type": "t_uint256"
							},
							{
								"astId": 117,
								"contract": "scritturatemporanea.sol:LoanManager",
								"label": "interestRate",
								"offset": 0,
								"slot": "5",
								"type": "t_uint256"
							},
							{
								"astId": 119,
								"contract": "scritturatemporanea.sol:LoanManager",
								"label": "penaltyRate",
								"offset": 0,
								"slot": "6",
								"type": "t_uint256"
							},
							{
								"astId": 121,
								"contract": "scritturatemporanea.sol:LoanManager",
								"label": "startDate",
								"offset": 0,
								"slot": "7",
								"type": "t_uint256"
							},
							{
								"astId": 123,
								"contract": "scritturatemporanea.sol:LoanManager",
								"label": "dueDate",
								"offset": 0,
								"slot": "8",
								"type": "t_uint256"
							},
							{
								"astId": 126,
								"contract": "scritturatemporanea.sol:LoanManager",
								"label": "status",
								"offset": 0,
								"slot": "9",
								"type": "t_enum(LoanStatus)98"
							}
						],
						"numberOfBytes": "320"
					},
					"t_struct(LoanBorrower)106_storage": {
						"encoding": "inplace",
						"label": "struct LoanManager.LoanBorrower",
						"members": [
							{
								"astId": 100,
								"contract": "scritturatemporanea.sol:LoanManager",
								"label": "borrowerAddress",
								"offset": 0,
								"slot": "0",
								"type": "t_address"
							},
							{
								"astId": 102,
								"contract": "scritturatemporanea.sol:LoanManager",
								"label": "creditScore",
								"offset": 20,
								"slot": "0",
								"type": "t_uint8"
							},
							{
								"astId": 105,
								"contract": "scritturatemporanea.sol:LoanManager",
								"label": "userLoans",
								"offset": 0,
								"slot": "1",
								"type": "t_array(t_uint256)dyn_storage"
							}
						],
						"numberOfBytes": "64"
					},
					"t_uint256": {
						"encoding": "inplace",
						"label": "uint256",
						"numberOfBytes": "32"
					},
					"t_uint8": {
						"encoding": "inplace",
						"label": "uint8",
						"numberOfBytes": "1"
					}
				}
			},
			"userdoc": {
				"kind": "user",
				"methods": {},
				"version": 1
			}
		}
	}
}