{
	"data": {
		"bytecode": {
			"linkReferences": {},
			"object": "6080604052348015600e575f5ffd5b5061026e8061001c5f395ff3fe608060405234801561000f575f5ffd5b5060043610610034575f3560e01c8063313d3aad1461003857806336e979fd14610068575b5f5ffd5b610052600480360381019061004d9190610131565b610098565b60405161005f919061017e565b60405180910390f35b610082600480360381019061007d9190610131565b6100b4565b60405161008f919061017e565b60405180910390f35b5f6100ac82846100d090919063ffffffff16565b905092915050565b5f6100c882846100e590919063ffffffff16565b905092915050565b5f81836100dd91906101c4565b905092915050565b5f81836100f29190610205565b905092915050565b5f5ffd5b5f819050919050565b610110816100fe565b811461011a575f5ffd5b50565b5f8135905061012b81610107565b92915050565b5f5f60408385031215610147576101466100fa565b5b5f6101548582860161011d565b92505060206101658582860161011d565b9150509250929050565b610178816100fe565b82525050565b5f6020820190506101915f83018461016f565b92915050565b7f4e487b71000000000000000000000000000000000000000000000000000000005f52601160045260245ffd5b5f6101ce826100fe565b91506101d9836100fe565b92508282026101e7816100fe565b915082820484148315176101fe576101fd610197565b5b5092915050565b5f61020f826100fe565b915061021a836100fe565b925082820190508082111561023257610231610197565b5b9291505056fea2646970667358221220eb6288bea920efeaf4fb801f235fe00333a3bab92469623b8a906e63ae00483c64736f6c634300081c0033",
			"opcodes": "PUSH1 0x80 PUSH1 0x40 MSTORE CALLVALUE DUP1 ISZERO PUSH1 0xE JUMPI PUSH0 PUSH0 REVERT JUMPDEST POP PUSH2 0x26E DUP1 PUSH2 0x1C PUSH0 CODECOPY PUSH0 RETURN INVALID PUSH1 0x80 PUSH1 0x40 MSTORE CALLVALUE DUP1 ISZERO PUSH2 0xF JUMPI PUSH0 PUSH0 REVERT JUMPDEST POP PUSH1 0x4 CALLDATASIZE LT PUSH2 0x34 JUMPI PUSH0 CALLDATALOAD PUSH1 0xE0 SHR DUP1 PUSH4 0x313D3AAD EQ PUSH2 0x38 JUMPI DUP1 PUSH4 0x36E979FD EQ PUSH2 0x68 JUMPI JUMPDEST PUSH0 PUSH0 REVERT JUMPDEST PUSH2 0x52 PUSH1 0x4 DUP1 CALLDATASIZE SUB DUP2 ADD SWAP1 PUSH2 0x4D SWAP2 SWAP1 PUSH2 0x131 JUMP JUMPDEST PUSH2 0x98 JUMP JUMPDEST PUSH1 0x40 MLOAD PUSH2 0x5F SWAP2 SWAP1 PUSH2 0x17E JUMP JUMPDEST PUSH1 0x40 MLOAD DUP1 SWAP2 SUB SWAP1 RETURN JUMPDEST PUSH2 0x82 PUSH1 0x4 DUP1 CALLDATASIZE SUB DUP2 ADD SWAP1 PUSH2 0x7D SWAP2 SWAP1 PUSH2 0x131 JUMP JUMPDEST PUSH2 0xB4 JUMP JUMPDEST PUSH1 0x40 MLOAD PUSH2 0x8F SWAP2 SWAP1 PUSH2 0x17E JUMP JUMPDEST PUSH1 0x40 MLOAD DUP1 SWAP2 SUB SWAP1 RETURN JUMPDEST PUSH0 PUSH2 0xAC DUP3 DUP5 PUSH2 0xD0 SWAP1 SWAP2 SWAP1 PUSH4 0xFFFFFFFF AND JUMP JUMPDEST SWAP1 POP SWAP3 SWAP2 POP POP JUMP JUMPDEST PUSH0 PUSH2 0xC8 DUP3 DUP5 PUSH2 0xE5 SWAP1 SWAP2 SWAP1 PUSH4 0xFFFFFFFF AND JUMP JUMPDEST SWAP1 POP SWAP3 SWAP2 POP POP JUMP JUMPDEST PUSH0 DUP2 DUP4 PUSH2 0xDD SWAP2 SWAP1 PUSH2 0x1C4 JUMP JUMPDEST SWAP1 POP SWAP3 SWAP2 POP POP JUMP JUMPDEST PUSH0 DUP2 DUP4 PUSH2 0xF2 SWAP2 SWAP1 PUSH2 0x205 JUMP JUMPDEST SWAP1 POP SWAP3 SWAP2 POP POP JUMP JUMPDEST PUSH0 PUSH0 REVERT JUMPDEST PUSH0 DUP2 SWAP1 POP SWAP2 SWAP1 POP JUMP JUMPDEST PUSH2 0x110 DUP2 PUSH2 0xFE JUMP JUMPDEST DUP2 EQ PUSH2 0x11A JUMPI PUSH0 PUSH0 REVERT JUMPDEST POP JUMP JUMPDEST PUSH0 DUP2 CALLDATALOAD SWAP1 POP PUSH2 0x12B DUP2 PUSH2 0x107 JUMP JUMPDEST SWAP3 SWAP2 POP POP JUMP JUMPDEST PUSH0 PUSH0 PUSH1 0x40 DUP4 DUP6 SUB SLT ISZERO PUSH2 0x147 JUMPI PUSH2 0x146 PUSH2 0xFA JUMP JUMPDEST JUMPDEST PUSH0 PUSH2 0x154 DUP6 DUP3 DUP7 ADD PUSH2 0x11D JUMP JUMPDEST SWAP3 POP POP PUSH1 0x20 PUSH2 0x165 DUP6 DUP3 DUP7 ADD PUSH2 0x11D JUMP JUMPDEST SWAP2 POP POP SWAP3 POP SWAP3 SWAP1 POP JUMP JUMPDEST PUSH2 0x178 DUP2 PUSH2 0xFE JUMP JUMPDEST DUP3 MSTORE POP POP JUMP JUMPDEST PUSH0 PUSH1 0x20 DUP3 ADD SWAP1 POP PUSH2 0x191 PUSH0 DUP4 ADD DUP5 PUSH2 0x16F JUMP JUMPDEST SWAP3 SWAP2 POP POP JUMP JUMPDEST PUSH32 0x4E487B7100000000000000000000000000000000000000000000000000000000 PUSH0 MSTORE PUSH1 0x11 PUSH1 0x4 MSTORE PUSH1 0x24 PUSH0 REVERT JUMPDEST PUSH0 PUSH2 0x1CE DUP3 PUSH2 0xFE JUMP JUMPDEST SWAP2 POP PUSH2 0x1D9 DUP4 PUSH2 0xFE JUMP JUMPDEST SWAP3 POP DUP3 DUP3 MUL PUSH2 0x1E7 DUP2 PUSH2 0xFE JUMP JUMPDEST SWAP2 POP DUP3 DUP3 DIV DUP5 EQ DUP4 ISZERO OR PUSH2 0x1FE JUMPI PUSH2 0x1FD PUSH2 0x197 JUMP JUMPDEST JUMPDEST POP SWAP3 SWAP2 POP POP JUMP JUMPDEST PUSH0 PUSH2 0x20F DUP3 PUSH2 0xFE JUMP JUMPDEST SWAP2 POP PUSH2 0x21A DUP4 PUSH2 0xFE JUMP JUMPDEST SWAP3 POP DUP3 DUP3 ADD SWAP1 POP DUP1 DUP3 GT ISZERO PUSH2 0x232 JUMPI PUSH2 0x231 PUSH2 0x197 JUMP JUMPDEST JUMPDEST SWAP3 SWAP2 POP POP JUMP INVALID LOG2 PUSH5 0x6970667358 0x22 SLT KECCAK256 0xEB PUSH3 0x88BEA9 KECCAK256 0xEF 0xEA DELEGATECALL 0xFB DUP1 0x1F 0x23 PUSH0 0xE0 SUB CALLER LOG3 0xBA 0xB9 0x24 PUSH10 0x623B8A906E63AE00483C PUSH5 0x736F6C6343 STOP ADDMOD SHR STOP CALLER "
		},
		"gasEstimates": {
			"creation": {
				"codeDepositCost": "124400",
				"executionCost": "169",
				"totalCost": "124569"
			},
			"external": {
				"moltiplicaDueNumeri(uint256,uint256)": "infinite",
				"sommaDueNumeri(uint256,uint256)": "infinite"
			}
		},
		"methodIdentifiers": {
			"moltiplicaDueNumeri(uint256,uint256)": "313d3aad",
			"sommaDueNumeri(uint256,uint256)": "36e979fd"
		}
	},
	"abi": [
		{
			"inputs": [
				{
					"internalType": "uint256",
					"name": "a",
					"type": "uint256"
				},
				{
					"internalType": "uint256",
					"name": "b",
					"type": "uint256"
				}
			],
			"name": "moltiplicaDueNumeri",
			"outputs": [
				{
					"internalType": "uint256",
					"name": "",
					"type": "uint256"
				}
			],
			"stateMutability": "pure",
			"type": "function"
		},
		{
			"inputs": [
				{
					"internalType": "uint256",
					"name": "a",
					"type": "uint256"
				},
				{
					"internalType": "uint256",
					"name": "b",
					"type": "uint256"
				}
			],
			"name": "sommaDueNumeri",
			"outputs": [
				{
					"internalType": "uint256",
					"name": "",
					"type": "uint256"
				}
			],
			"stateMutability": "pure",
			"type": "function"
		}
	]
}