{
	"data": {
		"bytecode": {
			"linkReferences": {},
			"object": "608060405234801561001057600080fd5b50610370806100206000396000f3fe608060405234801561001057600080fd5b50600436106100365760003560e01c80630a64464e1461003b5780633aafc6921461006b575b600080fd5b610055600480360381019061005091906101b8565b61009b565b604051610062919061021a565b60405180910390f35b610085600480360381019061008091906101b8565b6100b1565b604051610092919061021a565b60405180910390f35b60006100a88484846100c7565b90509392505050565b60006100be848484610122565b90509392505050565b600080620186a090508061016d8285886100e19190610264565b6100eb9190610264565b6100f591906102d5565b826101009190610306565b8561010b9190610264565b61011591906102d5565b9350839150509392505050565b600080620186a090508061016d82858861013c9190610264565b6101469190610264565b61015091906102d5565b8261015b9190610306565b856101669190610264565b61017091906102d5565b9350839150509392505050565b600080fd5b6000819050919050565b61019581610182565b81146101a057600080fd5b50565b6000813590506101b28161018c565b92915050565b6000806000606084860312156101d1576101d061017d565b5b60006101df868287016101a3565b93505060206101f0868287016101a3565b9250506040610201868287016101a3565b9150509250925092565b61021481610182565b82525050565b600060208201905061022f600083018461020b565b92915050565b7f4e487b7100000000000000000000000000000000000000000000000000000000600052601160045260246000fd5b600061026f82610182565b915061027a83610182565b925082820261028881610182565b9150828204841483151761029f5761029e610235565b5b5092915050565b7f4e487b7100000000000000000000000000000000000000000000000000000000600052601260045260246000fd5b60006102e082610182565b91506102eb83610182565b9250826102fb576102fa6102a6565b5b828204905092915050565b600061031182610182565b915061031c83610182565b925082820190508082111561033457610333610235565b5b9291505056fea26469706673582212200457e31c572703249355b7dd258f2d9104cb83a3de4992797506d469370dad5464736f6c63430008130033",
			"opcodes": "PUSH1 0x80 PUSH1 0x40 MSTORE CALLVALUE DUP1 ISZERO PUSH2 0x10 JUMPI PUSH1 0x0 DUP1 REVERT JUMPDEST POP PUSH2 0x370 DUP1 PUSH2 0x20 PUSH1 0x0 CODECOPY PUSH1 0x0 RETURN INVALID PUSH1 0x80 PUSH1 0x40 MSTORE CALLVALUE DUP1 ISZERO PUSH2 0x10 JUMPI PUSH1 0x0 DUP1 REVERT JUMPDEST POP PUSH1 0x4 CALLDATASIZE LT PUSH2 0x36 JUMPI PUSH1 0x0 CALLDATALOAD PUSH1 0xE0 SHR DUP1 PUSH4 0xA64464E EQ PUSH2 0x3B JUMPI DUP1 PUSH4 0x3AAFC692 EQ PUSH2 0x6B JUMPI JUMPDEST PUSH1 0x0 DUP1 REVERT JUMPDEST PUSH2 0x55 PUSH1 0x4 DUP1 CALLDATASIZE SUB DUP2 ADD SWAP1 PUSH2 0x50 SWAP2 SWAP1 PUSH2 0x1B8 JUMP JUMPDEST PUSH2 0x9B JUMP JUMPDEST PUSH1 0x40 MLOAD PUSH2 0x62 SWAP2 SWAP1 PUSH2 0x21A JUMP JUMPDEST PUSH1 0x40 MLOAD DUP1 SWAP2 SUB SWAP1 RETURN JUMPDEST PUSH2 0x85 PUSH1 0x4 DUP1 CALLDATASIZE SUB DUP2 ADD SWAP1 PUSH2 0x80 SWAP2 SWAP1 PUSH2 0x1B8 JUMP JUMPDEST PUSH2 0xB1 JUMP JUMPDEST PUSH1 0x40 MLOAD PUSH2 0x92 SWAP2 SWAP1 PUSH2 0x21A JUMP JUMPDEST PUSH1 0x40 MLOAD DUP1 SWAP2 SUB SWAP1 RETURN JUMPDEST PUSH1 0x0 PUSH2 0xA8 DUP5 DUP5 DUP5 PUSH2 0xC7 JUMP JUMPDEST SWAP1 POP SWAP4 SWAP3 POP POP POP JUMP JUMPDEST PUSH1 0x0 PUSH2 0xBE DUP5 DUP5 DUP5 PUSH2 0x122 JUMP JUMPDEST SWAP1 POP SWAP4 SWAP3 POP POP POP JUMP JUMPDEST PUSH1 0x0 DUP1 PUSH3 0x186A0 SWAP1 POP DUP1 PUSH2 0x16D DUP3 DUP6 DUP9 PUSH2 0xE1 SWAP2 SWAP1 PUSH2 0x264 JUMP JUMPDEST PUSH2 0xEB SWAP2 SWAP1 PUSH2 0x264 JUMP JUMPDEST PUSH2 0xF5 SWAP2 SWAP1 PUSH2 0x2D5 JUMP JUMPDEST DUP3 PUSH2 0x100 SWAP2 SWAP1 PUSH2 0x306 JUMP JUMPDEST DUP6 PUSH2 0x10B SWAP2 SWAP1 PUSH2 0x264 JUMP JUMPDEST PUSH2 0x115 SWAP2 SWAP1 PUSH2 0x2D5 JUMP JUMPDEST SWAP4 POP DUP4 SWAP2 POP POP SWAP4 SWAP3 POP POP POP JUMP JUMPDEST PUSH1 0x0 DUP1 PUSH3 0x186A0 SWAP1 POP DUP1 PUSH2 0x16D DUP3 DUP6 DUP9 PUSH2 0x13C SWAP2 SWAP1 PUSH2 0x264 JUMP JUMPDEST PUSH2 0x146 SWAP2 SWAP1 PUSH2 0x264 JUMP JUMPDEST PUSH2 0x150 SWAP2 SWAP1 PUSH2 0x2D5 JUMP JUMPDEST DUP3 PUSH2 0x15B SWAP2 SWAP1 PUSH2 0x306 JUMP JUMPDEST DUP6 PUSH2 0x166 SWAP2 SWAP1 PUSH2 0x264 JUMP JUMPDEST PUSH2 0x170 SWAP2 SWAP1 PUSH2 0x2D5 JUMP JUMPDEST SWAP4 POP DUP4 SWAP2 POP POP SWAP4 SWAP3 POP POP POP JUMP JUMPDEST PUSH1 0x0 DUP1 REVERT JUMPDEST PUSH1 0x0 DUP2 SWAP1 POP SWAP2 SWAP1 POP JUMP JUMPDEST PUSH2 0x195 DUP2 PUSH2 0x182 JUMP JUMPDEST DUP2 EQ PUSH2 0x1A0 JUMPI PUSH1 0x0 DUP1 REVERT JUMPDEST POP JUMP JUMPDEST PUSH1 0x0 DUP2 CALLDATALOAD SWAP1 POP PUSH2 0x1B2 DUP2 PUSH2 0x18C JUMP JUMPDEST SWAP3 SWAP2 POP POP JUMP JUMPDEST PUSH1 0x0 DUP1 PUSH1 0x0 PUSH1 0x60 DUP5 DUP7 SUB SLT ISZERO PUSH2 0x1D1 JUMPI PUSH2 0x1D0 PUSH2 0x17D JUMP JUMPDEST JUMPDEST PUSH1 0x0 PUSH2 0x1DF DUP7 DUP3 DUP8 ADD PUSH2 0x1A3 JUMP JUMPDEST SWAP4 POP POP PUSH1 0x20 PUSH2 0x1F0 DUP7 DUP3 DUP8 ADD PUSH2 0x1A3 JUMP JUMPDEST SWAP3 POP POP PUSH1 0x40 PUSH2 0x201 DUP7 DUP3 DUP8 ADD PUSH2 0x1A3 JUMP JUMPDEST SWAP2 POP POP SWAP3 POP SWAP3 POP SWAP3 JUMP JUMPDEST PUSH2 0x214 DUP2 PUSH2 0x182 JUMP JUMPDEST DUP3 MSTORE POP POP JUMP JUMPDEST PUSH1 0x0 PUSH1 0x20 DUP3 ADD SWAP1 POP PUSH2 0x22F PUSH1 0x0 DUP4 ADD DUP5 PUSH2 0x20B JUMP JUMPDEST SWAP3 SWAP2 POP POP JUMP JUMPDEST PUSH32 0x4E487B7100000000000000000000000000000000000000000000000000000000 PUSH1 0x0 MSTORE PUSH1 0x11 PUSH1 0x4 MSTORE PUSH1 0x24 PUSH1 0x0 REVERT JUMPDEST PUSH1 0x0 PUSH2 0x26F DUP3 PUSH2 0x182 JUMP JUMPDEST SWAP2 POP PUSH2 0x27A DUP4 PUSH2 0x182 JUMP JUMPDEST SWAP3 POP DUP3 DUP3 MUL PUSH2 0x288 DUP2 PUSH2 0x182 JUMP JUMPDEST SWAP2 POP DUP3 DUP3 DIV DUP5 EQ DUP4 ISZERO OR PUSH2 0x29F JUMPI PUSH2 0x29E PUSH2 0x235 JUMP JUMPDEST JUMPDEST POP SWAP3 SWAP2 POP POP JUMP JUMPDEST PUSH32 0x4E487B7100000000000000000000000000000000000000000000000000000000 PUSH1 0x0 MSTORE PUSH1 0x12 PUSH1 0x4 MSTORE PUSH1 0x24 PUSH1 0x0 REVERT JUMPDEST PUSH1 0x0 PUSH2 0x2E0 DUP3 PUSH2 0x182 JUMP JUMPDEST SWAP2 POP PUSH2 0x2EB DUP4 PUSH2 0x182 JUMP JUMPDEST SWAP3 POP DUP3 PUSH2 0x2FB JUMPI PUSH2 0x2FA PUSH2 0x2A6 JUMP JUMPDEST JUMPDEST DUP3 DUP3 DIV SWAP1 POP SWAP3 SWAP2 POP POP JUMP JUMPDEST PUSH1 0x0 PUSH2 0x311 DUP3 PUSH2 0x182 JUMP JUMPDEST SWAP2 POP PUSH2 0x31C DUP4 PUSH2 0x182 JUMP JUMPDEST SWAP3 POP DUP3 DUP3 ADD SWAP1 POP DUP1 DUP3 GT ISZERO PUSH2 0x334 JUMPI PUSH2 0x333 PUSH2 0x235 JUMP JUMPDEST JUMPDEST SWAP3 SWAP2 POP POP JUMP INVALID LOG2 PUSH5 0x6970667358 0x22 SLT KECCAK256 DIV JUMPI 0xE3 SHR JUMPI 0x27 SUB 0x24 SWAP4 SSTORE 0xB7 0xDD 0x25 DUP16 0x2D SWAP2 DIV 0xCB DUP4 LOG3 0xDE 0x49 SWAP3 PUSH26 0x7506D469370DAD5464736F6C6343000813003300000000000000 "
		},
		"gasEstimates": {
			"creation": {
				"codeDepositCost": "176000",
				"executionCost": "220",
				"totalCost": "176220"
			},
			"external": {
				"interestCalculator(uint256,uint256,uint256)": "infinite",
				"penaltyCalculator(uint256,uint256,uint256)": "infinite"
			}
		},
		"methodIdentifiers": {
			"interestCalculator(uint256,uint256,uint256)": "0a64464e",
			"penaltyCalculator(uint256,uint256,uint256)": "3aafc692"
		}
	},
	"abi": [
		{
			"inputs": [
				{
					"internalType": "uint256",
					"name": "interestRate",
					"type": "uint256"
				},
				{
					"internalType": "uint256",
					"name": "loanAmount",
					"type": "uint256"
				},
				{
					"internalType": "uint256",
					"name": "daysOfLoan",
					"type": "uint256"
				}
			],
			"name": "interestCalculator",
			"outputs": [
				{
					"internalType": "uint256",
					"name": "",
					"type": "uint256"
				}
			],
			"stateMutability": "pure",
			"type": "function"
		},
		{
			"inputs": [
				{
					"internalType": "uint256",
					"name": "penaltyRate",
					"type": "uint256"
				},
				{
					"internalType": "uint256",
					"name": "loanAmount",
					"type": "uint256"
				},
				{
					"internalType": "uint256",
					"name": "daysOfDelay",
					"type": "uint256"
				}
			],
			"name": "penaltyCalculator",
			"outputs": [
				{
					"internalType": "uint256",
					"name": "",
					"type": "uint256"
				}
			],
			"stateMutability": "pure",
			"type": "function"
		}
	]
}