{
	"data": {
		"bytecode": {
			"linkReferences": {},
			"object": "6080604052348015600e575f5ffd5b506103778061001c5f395ff3fe608060405234801561000f575f5ffd5b5060043610610034575f3560e01c80630a64464e146100385780633aafc69214610068575b5f5ffd5b610052600480360381019061004d91906101cb565b610098565b60405161005f919061022a565b60405180910390f35b610082600480360381019061007d91906101cb565b6100ad565b60405161008f919061022a565b60405180910390f35b5f6100a48484846100c2565b90509392505050565b5f6100b984848461012b565b90509392505050565b5f5f61016d6064866100d4919061029d565b6100de919061029d565b90505f5f90505b8381101561011f576064826100fa919061029d565b8561010591906102cd565b85610110919061030e565b945080806001019150506100e5565b50839150509392505050565b5f5f61016d60648661013d919061029d565b610147919061029d565b90505f5f90505b8381101561018857606482610163919061029d565b8561016e91906102cd565b85610179919061030e565b9450808060010191505061014e565b50839150509392505050565b5f5ffd5b5f819050919050565b6101aa81610198565b81146101b4575f5ffd5b50565b5f813590506101c5816101a1565b92915050565b5f5f5f606084860312156101e2576101e1610194565b5b5f6101ef868287016101b7565b9350506020610200868287016101b7565b9250506040610211868287016101b7565b9150509250925092565b61022481610198565b82525050565b5f60208201905061023d5f83018461021b565b92915050565b7f4e487b71000000000000000000000000000000000000000000000000000000005f52601260045260245ffd5b7f4e487b71000000000000000000000000000000000000000000000000000000005f52601160045260245ffd5b5f6102a782610198565b91506102b283610198565b9250826102c2576102c1610243565b5b828204905092915050565b5f6102d782610198565b91506102e283610198565b92508282026102f081610198565b9150828204841483151761030757610306610270565b5b5092915050565b5f61031882610198565b915061032383610198565b925082820190508082111561033b5761033a610270565b5b9291505056fea2646970667358221220ee89f679cb2652f0fd331cc6d55ed2d7dac183013f80218cb52f0a15dd36085964736f6c634300081c0033",
			"opcodes": "PUSH1 0x80 PUSH1 0x40 MSTORE CALLVALUE DUP1 ISZERO PUSH1 0xE JUMPI PUSH0 PUSH0 REVERT JUMPDEST POP PUSH2 0x377 DUP1 PUSH2 0x1C PUSH0 CODECOPY PUSH0 RETURN INVALID PUSH1 0x80 PUSH1 0x40 MSTORE CALLVALUE DUP1 ISZERO PUSH2 0xF JUMPI PUSH0 PUSH0 REVERT JUMPDEST POP PUSH1 0x4 CALLDATASIZE LT PUSH2 0x34 JUMPI PUSH0 CALLDATALOAD PUSH1 0xE0 SHR DUP1 PUSH4 0xA64464E EQ PUSH2 0x38 JUMPI DUP1 PUSH4 0x3AAFC692 EQ PUSH2 0x68 JUMPI JUMPDEST PUSH0 PUSH0 REVERT JUMPDEST PUSH2 0x52 PUSH1 0x4 DUP1 CALLDATASIZE SUB DUP2 ADD SWAP1 PUSH2 0x4D SWAP2 SWAP1 PUSH2 0x1CB JUMP JUMPDEST PUSH2 0x98 JUMP JUMPDEST PUSH1 0x40 MLOAD PUSH2 0x5F SWAP2 SWAP1 PUSH2 0x22A JUMP JUMPDEST PUSH1 0x40 MLOAD DUP1 SWAP2 SUB SWAP1 RETURN JUMPDEST PUSH2 0x82 PUSH1 0x4 DUP1 CALLDATASIZE SUB DUP2 ADD SWAP1 PUSH2 0x7D SWAP2 SWAP1 PUSH2 0x1CB JUMP JUMPDEST PUSH2 0xAD JUMP JUMPDEST PUSH1 0x40 MLOAD PUSH2 0x8F SWAP2 SWAP1 PUSH2 0x22A JUMP JUMPDEST PUSH1 0x40 MLOAD DUP1 SWAP2 SUB SWAP1 RETURN JUMPDEST PUSH0 PUSH2 0xA4 DUP5 DUP5 DUP5 PUSH2 0xC2 JUMP JUMPDEST SWAP1 POP SWAP4 SWAP3 POP POP POP JUMP JUMPDEST PUSH0 PUSH2 0xB9 DUP5 DUP5 DUP5 PUSH2 0x12B JUMP JUMPDEST SWAP1 POP SWAP4 SWAP3 POP POP POP JUMP JUMPDEST PUSH0 PUSH0 PUSH2 0x16D PUSH1 0x64 DUP7 PUSH2 0xD4 SWAP2 SWAP1 PUSH2 0x29D JUMP JUMPDEST PUSH2 0xDE SWAP2 SWAP1 PUSH2 0x29D JUMP JUMPDEST SWAP1 POP PUSH0 PUSH0 SWAP1 POP JUMPDEST DUP4 DUP2 LT ISZERO PUSH2 0x11F JUMPI PUSH1 0x64 DUP3 PUSH2 0xFA SWAP2 SWAP1 PUSH2 0x29D JUMP JUMPDEST DUP6 PUSH2 0x105 SWAP2 SWAP1 PUSH2 0x2CD JUMP JUMPDEST DUP6 PUSH2 0x110 SWAP2 SWAP1 PUSH2 0x30E JUMP JUMPDEST SWAP5 POP DUP1 DUP1 PUSH1 0x1 ADD SWAP2 POP POP PUSH2 0xE5 JUMP JUMPDEST POP DUP4 SWAP2 POP POP SWAP4 SWAP3 POP POP POP JUMP JUMPDEST PUSH0 PUSH0 PUSH2 0x16D PUSH1 0x64 DUP7 PUSH2 0x13D SWAP2 SWAP1 PUSH2 0x29D JUMP JUMPDEST PUSH2 0x147 SWAP2 SWAP1 PUSH2 0x29D JUMP JUMPDEST SWAP1 POP PUSH0 PUSH0 SWAP1 POP JUMPDEST DUP4 DUP2 LT ISZERO PUSH2 0x188 JUMPI PUSH1 0x64 DUP3 PUSH2 0x163 SWAP2 SWAP1 PUSH2 0x29D JUMP JUMPDEST DUP6 PUSH2 0x16E SWAP2 SWAP1 PUSH2 0x2CD JUMP JUMPDEST DUP6 PUSH2 0x179 SWAP2 SWAP1 PUSH2 0x30E JUMP JUMPDEST SWAP5 POP DUP1 DUP1 PUSH1 0x1 ADD SWAP2 POP POP PUSH2 0x14E JUMP JUMPDEST POP DUP4 SWAP2 POP POP SWAP4 SWAP3 POP POP POP JUMP JUMPDEST PUSH0 PUSH0 REVERT JUMPDEST PUSH0 DUP2 SWAP1 POP SWAP2 SWAP1 POP JUMP JUMPDEST PUSH2 0x1AA DUP2 PUSH2 0x198 JUMP JUMPDEST DUP2 EQ PUSH2 0x1B4 JUMPI PUSH0 PUSH0 REVERT JUMPDEST POP JUMP JUMPDEST PUSH0 DUP2 CALLDATALOAD SWAP1 POP PUSH2 0x1C5 DUP2 PUSH2 0x1A1 JUMP JUMPDEST SWAP3 SWAP2 POP POP JUMP JUMPDEST PUSH0 PUSH0 PUSH0 PUSH1 0x60 DUP5 DUP7 SUB SLT ISZERO PUSH2 0x1E2 JUMPI PUSH2 0x1E1 PUSH2 0x194 JUMP JUMPDEST JUMPDEST PUSH0 PUSH2 0x1EF DUP7 DUP3 DUP8 ADD PUSH2 0x1B7 JUMP JUMPDEST SWAP4 POP POP PUSH1 0x20 PUSH2 0x200 DUP7 DUP3 DUP8 ADD PUSH2 0x1B7 JUMP JUMPDEST SWAP3 POP POP PUSH1 0x40 PUSH2 0x211 DUP7 DUP3 DUP8 ADD PUSH2 0x1B7 JUMP JUMPDEST SWAP2 POP POP SWAP3 POP SWAP3 POP SWAP3 JUMP JUMPDEST PUSH2 0x224 DUP2 PUSH2 0x198 JUMP JUMPDEST DUP3 MSTORE POP POP JUMP JUMPDEST PUSH0 PUSH1 0x20 DUP3 ADD SWAP1 POP PUSH2 0x23D PUSH0 DUP4 ADD DUP5 PUSH2 0x21B JUMP JUMPDEST SWAP3 SWAP2 POP POP JUMP JUMPDEST PUSH32 0x4E487B7100000000000000000000000000000000000000000000000000000000 PUSH0 MSTORE PUSH1 0x12 PUSH1 0x4 MSTORE PUSH1 0x24 PUSH0 REVERT JUMPDEST PUSH32 0x4E487B7100000000000000000000000000000000000000000000000000000000 PUSH0 MSTORE PUSH1 0x11 PUSH1 0x4 MSTORE PUSH1 0x24 PUSH0 REVERT JUMPDEST PUSH0 PUSH2 0x2A7 DUP3 PUSH2 0x198 JUMP JUMPDEST SWAP2 POP PUSH2 0x2B2 DUP4 PUSH2 0x198 JUMP JUMPDEST SWAP3 POP DUP3 PUSH2 0x2C2 JUMPI PUSH2 0x2C1 PUSH2 0x243 JUMP JUMPDEST JUMPDEST DUP3 DUP3 DIV SWAP1 POP SWAP3 SWAP2 POP POP JUMP JUMPDEST PUSH0 PUSH2 0x2D7 DUP3 PUSH2 0x198 JUMP JUMPDEST SWAP2 POP PUSH2 0x2E2 DUP4 PUSH2 0x198 JUMP JUMPDEST SWAP3 POP DUP3 DUP3 MUL PUSH2 0x2F0 DUP2 PUSH2 0x198 JUMP JUMPDEST SWAP2 POP DUP3 DUP3 DIV DUP5 EQ DUP4 ISZERO OR PUSH2 0x307 JUMPI PUSH2 0x306 PUSH2 0x270 JUMP JUMPDEST JUMPDEST POP SWAP3 SWAP2 POP POP JUMP JUMPDEST PUSH0 PUSH2 0x318 DUP3 PUSH2 0x198 JUMP JUMPDEST SWAP2 POP PUSH2 0x323 DUP4 PUSH2 0x198 JUMP JUMPDEST SWAP3 POP DUP3 DUP3 ADD SWAP1 POP DUP1 DUP3 GT ISZERO PUSH2 0x33B JUMPI PUSH2 0x33A PUSH2 0x270 JUMP JUMPDEST JUMPDEST SWAP3 SWAP2 POP POP JUMP INVALID LOG2 PUSH5 0x6970667358 0x22 SLT KECCAK256 0xEE DUP10 0xF6 PUSH26 0xCB2652F0FD331CC6D55ED2D7DAC183013F80218CB52F0A15DD36 ADDMOD MSIZE PUSH5 0x736F6C6343 STOP ADDMOD SHR STOP CALLER "
		},
		"gasEstimates": {
			"creation": {
				"codeDepositCost": "177400",
				"executionCost": "218",
				"totalCost": "177618"
			},
			"external": {
				"interestCalculator(uint256,uint256,uint256)": "infinite",
				"penaltyCalculator(uint256,uint256,uint256)": "infinite"
			}
		},
		"methodIdentifiers": {
			"interestCalculator(uint256,uint256,uint256)": "0a64464e",
			"penaltyCalculator(uint256,uint256,uint256)": "3aafc692"
		}
	},
	"abi": [
		{
			"inputs": [
				{
					"internalType": "uint256",
					"name": "interestRate",
					"type": "uint256"
				},
				{
					"internalType": "uint256",
					"name": "loanAmount",
					"type": "uint256"
				},
				{
					"internalType": "uint256",
					"name": "daysOfLoan",
					"type": "uint256"
				}
			],
			"name": "interestCalculator",
			"outputs": [
				{
					"internalType": "uint256",
					"name": "",
					"type": "uint256"
				}
			],
			"stateMutability": "pure",
			"type": "function"
		},
		{
			"inputs": [
				{
					"internalType": "uint256",
					"name": "penaltyRate",
					"type": "uint256"
				},
				{
					"internalType": "uint256",
					"name": "loanAmount",
					"type": "uint256"
				},
				{
					"internalType": "uint256",
					"name": "daysOfDelay",
					"type": "uint256"
				}
			],
			"name": "penaltyCalculator",
			"outputs": [
				{
					"internalType": "uint256",
					"name": "",
					"type": "uint256"
				}
			],
			"stateMutability": "pure",
			"type": "function"
		}
	]
}