{
	"data": {
		"bytecode": {
			"linkReferences": {},
			"object": "6080604052600060015534801561001557600080fd5b5060016000819055506138428061002d6000396000f3fe60806040526004361061009c5760003560e01c8063ab7b1c8911610064578063ab7b1c8914610179578063b96c5cdd14610195578063bdbfa3de146101d3578063d46bd137146101ef578063e034f3dc1461022d578063e3ed1902146102745761009c565b806315e303f3146100a15780631a26e0b7146100bd5780633ddce5a0146100e85780636be35c6c146101135780638f2c365514610150575b600080fd5b6100bb60048036038101906100b691906125be565b6102b1565b005b3480156100c957600080fd5b506100d26105fc565b6040516100df91906129c6565b60405180910390f35b3480156100f457600080fd5b506100fd61074b565b60405161010a91906129c6565b60405180910390f35b34801561011f57600080fd5b5061013a60048036038101906101359190612a0d565b61089a565b60405161014791906129c6565b60405180910390f35b34801561015c57600080fd5b5061017760048036038101906101729190612a3a565b610a3b565b005b610193600480360381019061018e91906125be565b6110b1565b005b3480156101a157600080fd5b506101bc60048036038101906101b79190612aa6565b6114d2565b6040516101ca929190612af1565b60405180910390f35b6101ed60048036038101906101e891906125be565b611523565b005b3480156101fb57600080fd5b50610216600480360381019061021191906125be565b61187b565b604051610224929190612b38565b60405180910390f35b34801561023957600080fd5b50610254600480360381019061024f91906125be565b6118c4565b60405161026b9b9a99989796959493929190612bc0565b60405180910390f35b34801561028057600080fd5b5061029b60048036038101906102969190612c72565b611a2d565b6040516102a89190612cb2565b60405180910390f35b6102b9611a5e565b600060026000838152602001908152602001600020905060008160010160000160009054906101000a900473ffffffffffffffffffffffffffffffffffffffff16905082826000015414610342576040517f08c379a000000000000000000000000000000000000000000000000000000000815260040161033990612d2a565b60405180910390fd5b6001600481111561035657610355612782565b5b82600a0160009054906101000a900460ff16600481111561037a57610379612782565b5b146103ba576040517f08c379a00000000000000000000000000000000000000000000000000000000081526004016103b190612d96565b60405180910390fd5b8160040154341015610401576040517f08c379a00000000000000000000000000000000000000000000000000000000081526004016103f890612e28565b60405180910390fd5b3373ffffffffffffffffffffffffffffffffffffffff168173ffffffffffffffffffffffffffffffffffffffff160361046f576040517f08c379a000000000000000000000000000000000000000000000000000000000815260040161046690612eba565b60405180910390fd5b600061048b83600a0160019054906101000a900460ff16611aad565b9050338360030160006101000a81548173ffffffffffffffffffffffffffffffffffffffff021916908373ffffffffffffffffffffffffffffffffffffffff16021790555042836007018190555062015180816104e89190612f09565b426104f39190612f4b565b8360080181905550600083600a0160006101000a81548160ff0219169083600481111561052357610522612782565b5b02179055508173ffffffffffffffffffffffffffffffffffffffff166108fc349081150290604051600060405180830381858888f1935050505015801561056e573d6000803e3d6000fd5b506105a183600401548460030160009054906101000a900473ffffffffffffffffffffffffffffffffffffffff16611b8d565b7f8aa0da3f068a2cb6c8967ae3dcba3c1e23f4035d737fd9cb63fb331e851760518360000154338434876007015488600801546040516105e696959493929190612f7f565b60405180910390a15050506105f9611bf3565b50565b6060600080610609611bfd565b9150915060005b818110156107425760005b816001846106299190612fe0565b6106339190612fe0565b81101561072e57836001826106489190612f4b565b8151811061065957610658613014565b5b60200260200101516080015184828151811061067857610677613014565b5b602002602001015160800151111561071b57600084828151811061069f5761069e613014565b5b60200260200101519050846001836106b79190612f4b565b815181106106c8576106c7613014565b5b60200260200101518583815181106106e3576106e2613014565b5b602002602001018190525080856001846106fd9190612f4b565b8151811061070e5761070d613014565b5b6020026020010181905250505b808061072690613043565b91505061061b565b50808061073a90613043565b915050610610565b50819250505090565b6060600080610758611bfd565b9150915060005b818110156108915760005b816001846107789190612fe0565b6107829190612fe0565b81101561087d57836001826107979190612f4b565b815181106107a8576107a7613014565b5b6020026020010151606001518482815181106107c7576107c6613014565b5b602002602001015160600151111561086a5760008482815181106107ee576107ed613014565b5b60200260200101519050846001836108069190612f4b565b8151811061081757610816613014565b5b602002602001015185838151811061083257610831613014565b5b6020026020010181905250808560018461084c9190612f4b565b8151811061085d5761085c613014565b5b6020026020010181905250505b808061087590613043565b91505061076a565b50808061088990613043565b91505061075f565b50819250505090565b60606000806108a7611bfd565b915091506000805b82811015610923578560028111156108ca576108c9612782565b5b8482815181106108dd576108dc613014565b5b6020026020010151610140015160028111156108fc576108fb612782565b5b0361091057818061090c90613043565b9250505b808061091b90613043565b9150506108af565b5060008167ffffffffffffffff8111156109405761093f61308b565b5b60405190808252806020026020018201604052801561097957816020015b610966612445565b81526020019060019003908161095e5790505b5090506000805b84811015610a2d5787600281111561099b5761099a612782565b5b8682815181106109ae576109ad613014565b5b6020026020010151610140015160028111156109cd576109cc612782565b5b03610a1a578581815181106109e5576109e4613014565b5b6020026020010151838381518110610a00576109ff613014565b5b60200260200101819052508180610a1690613043565b9250505b8080610a2590613043565b915050610980565b508195505050505050919050565b60008211610a7e576040517f08c379a0000000000000000000000000000000000000000000000000000000008152600401610a759061312c565b60405180910390fd5b6000610a88611bfd565b9150506101f4811115610ad0576040517f08c379a0000000000000000000000000000000000000000000000000000000008152600401610ac7906131be565b60405180910390fd5b6000600460003373ffffffffffffffffffffffffffffffffffffffff1673ffffffffffffffffffffffffffffffffffffffff168152602001908152602001600020805480602002602001604051908101604052809291908181526020018280548015610b5b57602002820191906000526020600020905b815481526020019060010190808311610b47575b5050505050905060005b8151811015610e22576000828281518110610b8357610b82613014565b5b602002602001015190506000600260008381526020019081526020016000206040518061016001604052908160008201548152602001600182016040518060600160405290816000820160009054906101000a900473ffffffffffffffffffffffffffffffffffffffff1673ffffffffffffffffffffffffffffffffffffffff1673ffffffffffffffffffffffffffffffffffffffff1681526020016000820160149054906101000a900460ff1660ff1660ff16815260200160018201805480602002602001604051908101604052809291908181526020018280548015610c8a57602002820191906000526020600020905b815481526020019060010190808311610c76575b50505050508152505081526020016003820160009054906101000a900473ffffffffffffffffffffffffffffffffffffffff1673ffffffffffffffffffffffffffffffffffffffff1673ffffffffffffffffffffffffffffffffffffffff168152602001600482015481526020016005820154815260200160068201548152602001600782015481526020016008820154815260200160098201548152602001600a820160009054906101000a900460ff166004811115610d4e57610d4d612782565b5b6004811115610d6057610d5f612782565b5b8152602001600a820160019054906101000a900460ff166002811115610d8957610d88612782565b5b6002811115610d9b57610d9a612782565b5b81525050905060026004811115610db557610db4612782565b5b8161012001516004811115610dcd57610dcc612782565b5b14610e0d576040517f08c379a0000000000000000000000000000000000000000000000000000000008152600401610e0490613276565b60405180910390fd5b50508080610e1a90613043565b915050610b65565b5060016000815480929190610e3690613043565b91905055506000600460003373ffffffffffffffffffffffffffffffffffffffff1673ffffffffffffffffffffffffffffffffffffffff1681526020019081526020016000208054905090506000808214610ee057600360003373ffffffffffffffffffffffffffffffffffffffff1673ffffffffffffffffffffffffffffffffffffffff16815260200190815260200160002060000160149054906101000a900460ff16610ee3565b60015b9050600080610ef183611f9e565b915091506000604051806101600160405280600154815260200160405180606001604052803373ffffffffffffffffffffffffffffffffffffffff1681526020018760ff168152602001600460003373ffffffffffffffffffffffffffffffffffffffff1673ffffffffffffffffffffffffffffffffffffffff168152602001908152602001600020805480602002602001604051908101604052809291908181526020018280548015610fc457602002820191906000526020600020905b815481526020019060010190808311610fb0575b50505050508152508152602001600073ffffffffffffffffffffffffffffffffffffffff1681526020018a81526020018481526020018381526020016000815260200160008152602001600081526020016001600481111561102957611028612782565b5b815260200189600281111561104157611040612782565b5b815250905061104f8161207a565b82893373ffffffffffffffffffffffffffffffffffffffff167f8c5be3bc7c6d15ac2f78c4515185b40c4c09e598b09da542512dba3cf0f4940760015460018d60405161109e93929190613296565b60405180910390a4505050505050505050565b6110b9611a5e565b600060026000838152602001908152602001600020905060008160010190508160010160000160009054906101000a900473ffffffffffffffffffffffffffffffffffffffff1673ffffffffffffffffffffffffffffffffffffffff163373ffffffffffffffffffffffffffffffffffffffff161461116d576040517f08c379a00000000000000000000000000000000000000000000000000000000081526004016111649061333f565b60405180910390fd5b6000600481111561118157611180612782565b5b82600a0160009054906101000a900460ff1660048111156111a5576111a4612782565b5b14806111e65750600360048111156111c0576111bf612782565b5b82600a0160009054906101000a900460ff1660048111156111e4576111e3612782565b5b145b611225576040517f08c379a000000000000000000000000000000000000000000000000000000000815260040161121c906133ab565b60405180910390fd5b60006112308461228a565b5090508034106113f957826008015442116112ce5760048260000160149054906101000a900460ff1660ff16101561129c5760018260000160148282829054906101000a900460ff1661128391906133cb565b92506101000a81548160ff021916908360ff1602179055505b600283600a0160006101000a81548160ff021916908360048111156112c4576112c3612782565b5b0217905550611352565b60018260000160149054906101000a900460ff1660ff16106113245760018260000160148282829054906101000a900460ff1661130b9190613400565b92506101000a81548160ff021916908360ff1602179055505b600383600a0160006101000a81548160ff0219169083600481111561134c5761134b612782565b5b02179055505b8083600901819055508260030160009054906101000a900473ffffffffffffffffffffffffffffffffffffffff1673ffffffffffffffffffffffffffffffffffffffff166108fc349081150290604051600060405180830381858888f193505050501580156113c5573d6000803e3d6000fd5b506113f4818460030160009054906101000a900473ffffffffffffffffffffffffffffffffffffffff16611b8d565b611434565b6040517f08c379a000000000000000000000000000000000000000000000000000000000815260040161142b906134a7565b60405180910390fd5b82600901548260000160009054906101000a900473ffffffffffffffffffffffffffffffffffffffff1673ffffffffffffffffffffffffffffffffffffffff167fe0ca2d8c0146cf465a705f2d977a1340819eded9e7f875ad64c402fc67634a418686600a0160009054906101000a900460ff1687600901546040516114bc939291906134c7565b60405180910390a35050506114cf611bf3565b50565b60036020528060005260406000206000915090508060000160009054906101000a900473ffffffffffffffffffffffffffffffffffffffff16908060000160149054906101000a900460ff16905082565b61152b611a5e565b600060026000838152602001908152602001600020905060008160010160000160009054906101000a900473ffffffffffffffffffffffffffffffffffffffff16905060006201518083600701546115839190612f4b565b90503373ffffffffffffffffffffffffffffffffffffffff168273ffffffffffffffffffffffffffffffffffffffff16146115f3576040517f08c379a00000000000000000000000000000000000000000000000000000000081526004016115ea90613570565b60405180910390fd5b600083600a0160009054906101000a900460ff1690506001600481111561161d5761161c612782565b5b84600a0160009054906101000a900460ff16600481111561164157611640612782565b5b0361167857600484600a0160006101000a81548160ff0219169083600481111561166e5761166d612782565b5b0217905550611817565b6002600481111561168c5761168b612782565b5b84600a0160009054906101000a900460ff1660048111156116b0576116af612782565b5b1480156116c05750818460070154105b156117db57348460040154101561170c576040517f08c379a0000000000000000000000000000000000000000000000000000000008152600401611703906135dc565b60405180910390fd5b600484600a0160006101000a81548160ff0219169083600481111561173457611733612782565b5b02179055508360030160009054906101000a900473ffffffffffffffffffffffffffffffffffffffff1673ffffffffffffffffffffffffffffffffffffffff166108fc349081150290604051600060405180830381858888f193505050501580156117a3573d6000803e3d6000fd5b506117d684600401548560030160009054906101000a900473ffffffffffffffffffffffffffffffffffffffff16611b8d565b611816565b6040517f08c379a000000000000000000000000000000000000000000000000000000000815260040161180d90613648565b60405180910390fd5b5b83600401548373ffffffffffffffffffffffffffffffffffffffff167fadbee1a5cfde1da4d21e11a94728ae86436e2a1c5cd2269d7bcf3f30cea4ed798784604051611864929190612b38565b60405180910390a350505050611878611bf3565b50565b60008060006118898461228a565b50905060006118978561228a565b915050600081156118ab57600090506118b6565b816118b557600390505b5b828194509450505050915091565b6002602052806000526040600020600091509050806000015490806001016040518060600160405290816000820160009054906101000a900473ffffffffffffffffffffffffffffffffffffffff1673ffffffffffffffffffffffffffffffffffffffff1673ffffffffffffffffffffffffffffffffffffffff1681526020016000820160149054906101000a900460ff1660ff1660ff168152602001600182018054806020026020016040519081016040528092919081815260200182805480156119af57602002820191906000526020600020905b81548152602001906001019080831161199b575b505050505081525050908060030160009054906101000a900473ffffffffffffffffffffffffffffffffffffffff169080600401549080600501549080600601549080600701549080600801549080600901549080600a0160009054906101000a900460ff169080600a0160019054906101000a900460ff1690508b565b60046020528160005260406000208181548110611a4957600080fd5b90600052602060002001600091509150505481565b600260005403611aa3576040517f08c379a0000000000000000000000000000000000000000000000000000000008152600401611a9a906136b4565b60405180910390fd5b6002600081905550565b6000806002811115611ac257611ac1612782565b5b826002811115611ad557611ad4612782565b5b03611ae357601e9050611b88565b60016002811115611af757611af6612782565b5b826002811115611b0a57611b09612782565b5b03611b185760b49050611b88565b600280811115611b2b57611b2a612782565b5b826002811115611b3e57611b3d612782565b5b03611b4d5761016d9050611b88565b6040517f08c379a0000000000000000000000000000000000000000000000000000000008152600401611b7f90613720565b60405180910390fd5b919050565b60008234611b9b9190612fe0565b90506000811115611bee578173ffffffffffffffffffffffffffffffffffffffff166108fc829081150290604051600060405180830381858888f19350505050158015611bec573d6000803e3d6000fd5b505b505050565b6001600081905550565b6060600080600090506000600190505b6001548111611c875760016004811115611c2a57611c29612782565b5b60026000838152602001908152602001600020600a0160009054906101000a900460ff166004811115611c6057611c5f612782565b5b03611c74578180611c7090613043565b9250505b8080611c7f90613043565b915050611c0d565b5060008167ffffffffffffffff811115611ca457611ca361308b565b5b604051908082528060200260200182016040528015611cdd57816020015b611cca612445565b815260200190600190039081611cc25790505b509050600080600190505b6001548111611f905760016004811115611d0557611d04612782565b5b60026000838152602001908152602001600020600a0160009054906101000a900460ff166004811115611d3b57611d3a612782565b5b03611f7d57600260008281526020019081526020016000206040518061016001604052908160008201548152602001600182016040518060600160405290816000820160009054906101000a900473ffffffffffffffffffffffffffffffffffffffff1673ffffffffffffffffffffffffffffffffffffffff1673ffffffffffffffffffffffffffffffffffffffff1681526020016000820160149054906101000a900460ff1660ff1660ff16815260200160018201805480602002602001604051908101604052809291908181526020018280548015611e3b57602002820191906000526020600020905b815481526020019060010190808311611e27575b50505050508152505081526020016003820160009054906101000a900473ffffffffffffffffffffffffffffffffffffffff1673ffffffffffffffffffffffffffffffffffffffff1673ffffffffffffffffffffffffffffffffffffffff168152602001600482015481526020016005820154815260200160068201548152602001600782015481526020016008820154815260200160098201548152602001600a820160009054906101000a900460ff166004811115611eff57611efe612782565b5b6004811115611f1157611f10612782565b5b8152602001600a820160019054906101000a900460ff166002811115611f3a57611f39612782565b5b6002811115611f4c57611f4b612782565b5b81525050838381518110611f6357611f62613014565b5b60200260200101819052508180611f7990613043565b9250505b8080611f8890613043565b915050611ce8565b508183945094505050509091565b60008060048360ff161115611fe8576040517f08c379a0000000000000000000000000000000000000000000000000000000008152600401611fdf9061378c565b60405180910390fd5b60008060008560ff1603612005576107d09150611388905061206d565b60018560ff160361201f576104b09150610fa0905061206c565b60028560ff1603612039576103e89150610dac905061206b565b60038560ff16036120535761032091506109c4905061206a565b60048560ff16106120695761025891506105dc90505b5b5b5b5b8181935093505050915091565b8060026000836000015181526020019081526020016000206000820151816000015560208201518160010160008201518160000160006101000a81548173ffffffffffffffffffffffffffffffffffffffff021916908373ffffffffffffffffffffffffffffffffffffffff16021790555060208201518160000160146101000a81548160ff021916908360ff16021790555060408201518160010190805190602001906121299291906124df565b50505060408201518160030160006101000a81548173ffffffffffffffffffffffffffffffffffffffff021916908373ffffffffffffffffffffffffffffffffffffffff160217905550606082015181600401556080820151816005015560a0820151816006015560c0820151816007015560e08201518160080155610100820151816009015561012082015181600a0160006101000a81548160ff021916908360048111156121dc576121db612782565b5b021790555061014082015181600a0160016101000a81548160ff0219169083600281111561220d5761220c612782565b5b02179055509050506004600082602001516000015173ffffffffffffffffffffffffffffffffffffffff1673ffffffffffffffffffffffffffffffffffffffff1681526020019081526020016000208160000151908060018154018082558091505060019003906000526020600020016000909190919091505550565b60008060006002600085815260200190815260200160002090506000806122c183600a0160019054906101000a900460ff16611aad565b90506000620151806201517f8560080154426122dd9190612fe0565b6122e79190612f4b565b6122f191906137db565b905060008460080154421161231e576123138560050154866004015485612369565b935060009050612359565b846008015442111561235857600061233f8660050154876004015486612369565b9050612350866006015482856123d7565b945060019150505b5b8381965096505050505050915091565b60008061016d60648661237c91906137db565b61238691906137db565b905060005b838110156123cb576064826123a091906137db565b856123ab9190612f09565b856123b69190612f4b565b945080806123c390613043565b91505061238b565b50839150509392505050565b60008061016d6064866123ea91906137db565b6123f491906137db565b905060005b838110156124395760648261240e91906137db565b856124199190612f09565b856124249190612f4b565b9450808061243190613043565b9150506123f9565b50839150509392505050565b6040518061016001604052806000815260200161246061252c565b8152602001600073ffffffffffffffffffffffffffffffffffffffff168152602001600081526020016000815260200160008152602001600081526020016000815260200160008152602001600060048111156124c0576124bf612782565b5b8152602001600060028111156124d9576124d8612782565b5b81525090565b82805482825590600052602060002090810192821561251b579160200282015b8281111561251a5782518255916020019190600101906124ff565b5b5090506125289190612566565b5090565b6040518060600160405280600073ffffffffffffffffffffffffffffffffffffffff168152602001600060ff168152602001606081525090565b5b8082111561257f576000816000905550600101612567565b5090565b600080fd5b6000819050919050565b61259b81612588565b81146125a657600080fd5b50565b6000813590506125b881612592565b92915050565b6000602082840312156125d4576125d3612583565b5b60006125e2848285016125a9565b91505092915050565b600081519050919050565b600082825260208201905092915050565b6000819050602082019050919050565b61262081612588565b82525050565b600073ffffffffffffffffffffffffffffffffffffffff82169050919050565b600061265182612626565b9050919050565b61266181612646565b82525050565b600060ff82169050919050565b61267d81612667565b82525050565b600081519050919050565b600082825260208201905092915050565b6000819050602082019050919050565b60006126bb8383612617565b60208301905092915050565b6000602082019050919050565b60006126df82612683565b6126e9818561268e565b93506126f48361269f565b8060005b8381101561272557815161270c88826126af565b9750612717836126c7565b9250506001810190506126f8565b5085935050505092915050565b600060608301600083015161274a6000860182612658565b50602083015161275d6020860182612674565b506040830151848203604086015261277582826126d4565b9150508091505092915050565b7f4e487b7100000000000000000000000000000000000000000000000000000000600052602160045260246000fd5b600581106127c2576127c1612782565b5b50565b60008190506127d3826127b1565b919050565b60006127e3826127c5565b9050919050565b6127f3816127d8565b82525050565b6003811061280a57612809612782565b5b50565b600081905061281b826127f9565b919050565b600061282b8261280d565b9050919050565b61283b81612820565b82525050565b60006101608301600083015161285a6000860182612617565b50602083015184820360208601526128728282612732565b91505060408301516128876040860182612658565b50606083015161289a6060860182612617565b5060808301516128ad6080860182612617565b5060a08301516128c060a0860182612617565b5060c08301516128d360c0860182612617565b5060e08301516128e660e0860182612617565b506101008301516128fb610100860182612617565b506101208301516129106101208601826127ea565b50610140830151612925610140860182612832565b508091505092915050565b600061293c8383612841565b905092915050565b6000602082019050919050565b600061295c826125eb565b61296681856125f6565b93508360208202850161297885612607565b8060005b858110156129b457848403895281516129958582612930565b94506129a083612944565b925060208a0199505060018101905061297c565b50829750879550505050505092915050565b600060208201905081810360008301526129e08184612951565b905092915050565b600381106129f557600080fd5b50565b600081359050612a07816129e8565b92915050565b600060208284031215612a2357612a22612583565b5b6000612a31848285016129f8565b91505092915050565b60008060408385031215612a5157612a50612583565b5b6000612a5f858286016125a9565b9250506020612a70858286016129f8565b9150509250929050565b612a8381612646565b8114612a8e57600080fd5b50565b600081359050612aa081612a7a565b92915050565b600060208284031215612abc57612abb612583565b5b6000612aca84828501612a91565b91505092915050565b612adc81612646565b82525050565b612aeb81612667565b82525050565b6000604082019050612b066000830185612ad3565b612b136020830184612ae2565b9392505050565b612b2381612588565b82525050565b612b32816127d8565b82525050565b6000604082019050612b4d6000830185612b1a565b612b5a6020830184612b29565b9392505050565b6000606083016000830151612b796000860182612658565b506020830151612b8c6020860182612674565b5060408301518482036040860152612ba482826126d4565b9150508091505092915050565b612bba81612820565b82525050565b600061016082019050612bd6600083018e612b1a565b8181036020830152612be8818d612b61565b9050612bf7604083018c612ad3565b612c04606083018b612b1a565b612c11608083018a612b1a565b612c1e60a0830189612b1a565b612c2b60c0830188612b1a565b612c3860e0830187612b1a565b612c46610100830186612b1a565b612c54610120830185612b29565b612c62610140830184612bb1565b9c9b505050505050505050505050565b60008060408385031215612c8957612c88612583565b5b6000612c9785828601612a91565b9250506020612ca8858286016125a9565b9150509250929050565b6000602082019050612cc76000830184612b1a565b92915050565b600082825260208201905092915050565b7f4c6f616e206e6f7420666f756e64000000000000000000000000000000000000600082015250565b6000612d14600e83612ccd565b9150612d1f82612cde565b602082019050919050565b60006020820190508181036000830152612d4381612d07565b9050919050565b7f54686973206c6f616e20646f65736e2774206e6565642066756e64696e670000600082015250565b6000612d80601e83612ccd565b9150612d8b82612d4a565b602082019050919050565b60006020820190508181036000830152612daf81612d73565b9050919050565b7f54686520616d6f756e742073656e7420646f6573206e6f74206d61746368207460008201527f686520726571756573746564206c6f616e20616d6f756e740000000000000000602082015250565b6000612e12603883612ccd565b9150612e1d82612db6565b604082019050919050565b60006020820190508181036000830152612e4181612e05565b9050919050565b7f4c656e64657220616e6420626f72726f7765722063616e6e6f7420626520746860008201527f652073616d650000000000000000000000000000000000000000000000000000602082015250565b6000612ea4602683612ccd565b9150612eaf82612e48565b604082019050919050565b60006020820190508181036000830152612ed381612e97565b9050919050565b7f4e487b7100000000000000000000000000000000000000000000000000000000600052601160045260246000fd5b6000612f1482612588565b9150612f1f83612588565b9250828202612f2d81612588565b91508282048414831517612f4457612f43612eda565b5b5092915050565b6000612f5682612588565b9150612f6183612588565b9250828201905080821115612f7957612f78612eda565b5b92915050565b600060c082019050612f946000830189612b1a565b612fa16020830188612ad3565b612fae6040830187612ad3565b612fbb6060830186612b1a565b612fc86080830185612b1a565b612fd560a0830184612b1a565b979650505050505050565b6000612feb82612588565b9150612ff683612588565b925082820390508181111561300e5761300d612eda565b5b92915050565b7f4e487b7100000000000000000000000000000000000000000000000000000000600052603260045260246000fd5b600061304e82612588565b91507fffffffffffffffffffffffffffffffffffffffffffffffffffffffffffffffff82036130805761307f612eda565b5b600182019050919050565b7f4e487b7100000000000000000000000000000000000000000000000000000000600052604160045260246000fd5b7f546865206c6f616e20616d6f756e74206d75737420626520677265617465722060008201527f7468616e207a65726f0000000000000000000000000000000000000000000000602082015250565b6000613116602983612ccd565b9150613121826130ba565b604082019050919050565b6000602082019050818103600083015261314581613109565b9050919050565b7f4c6f616e206c696d697420726561636865642c20706c6561736520776169742060008201527f666f722061206c6f616e20746f20636c6f73652e000000000000000000000000602082015250565b60006131a8603483612ccd565b91506131b38261314c565b604082019050919050565b600060208201905081810360008301526131d78161319b565b9050919050565b7f596f752063616e6e6f7420726571756573742061206e6577206c6f616e20696660008201527f20796f7520686176652070656e64696e672c206163746976652c206f72206f7660208201527f6572647565206c6f616e732e0000000000000000000000000000000000000000604082015250565b6000613260604c83612ccd565b915061326b826131de565b606082019050919050565b6000602082019050818103600083015261328f81613253565b9050919050565b60006060820190506132ab6000830186612b1a565b6132b86020830185612b29565b6132c56040830184612bb1565b949350505050565b7f4f6e6c792074686520626f72726f7765722063616e207265706179207468697360008201527f206c6f616e000000000000000000000000000000000000000000000000000000602082015250565b6000613329602583612ccd565b9150613334826132cd565b604082019050919050565b600060208201905081810360008301526133588161331c565b9050919050565b7f5468657265206973206e6f206c6f616e20746f20726570617900000000000000600082015250565b6000613395601983612ccd565b91506133a08261335f565b602082019050919050565b600060208201905081810360008301526133c481613388565b9050919050565b60006133d682612667565b91506133e183612667565b9250828201905060ff8111156133fa576133f9612eda565b5b92915050565b600061340b82612667565b915061341683612667565b9250828203905060ff81111561342f5761342e612eda565b5b92915050565b7f496e73756666696369656e742066756e647320746f207265706179207468652060008201527f6f766572647565206c6f616e0000000000000000000000000000000000000000602082015250565b6000613491602c83612ccd565b915061349c82613435565b604082019050919050565b600060208201905081810360008301526134c081613484565b9050919050565b60006060820190506134dc6000830186612b1a565b6134e96020830185612b29565b6134f66040830184612b1a565b949350505050565b7f4f6e6c792074686520626f72726f7765722063616e2063616e63656c2074686960008201527f73206c6f616e0000000000000000000000000000000000000000000000000000602082015250565b600061355a602683612ccd565b9150613565826134fe565b604082019050919050565b600060208201905081810360008301526135898161354d565b9050919050565b7f596f7520686176656e27742072656163686564206c6f616e20696d706f727400600082015250565b60006135c6601f83612ccd565b91506135d182613590565b602082019050919050565b600060208201905081810360008301526135f5816135b9565b9050919050565b7f4e6f206c6f616e20746f2063616e63656c2e0000000000000000000000000000600082015250565b6000613632601283612ccd565b915061363d826135fc565b602082019050919050565b6000602082019050818103600083015261366181613625565b9050919050565b7f5265656e7472616e637947756172643a207265656e7472616e742063616c6c00600082015250565b600061369e601f83612ccd565b91506136a982613668565b602082019050919050565b600060208201905081810360008301526136cd81613691565b9050919050565b7f496e76616c6964206c6f616e206475726174696f6e0000000000000000000000600082015250565b600061370a601583612ccd565b9150613715826136d4565b602082019050919050565b60006020820190508181036000830152613739816136fd565b9050919050565b7f496e76616c6964206372656469742073636f7265000000000000000000000000600082015250565b6000613776601483612ccd565b915061378182613740565b602082019050919050565b600060208201905081810360008301526137a581613769565b9050919050565b7f4e487b7100000000000000000000000000000000000000000000000000000000600052601260045260246000fd5b60006137e682612588565b91506137f183612588565b925082613801576138006137ac565b5b82820490509291505056fea2646970667358221220fe058a4ac4e19d8d66d6dc73fb88d26b22f50ed4f895af062f260e8e87fb3fa464736f6c63430008130033",
			"opcodes": "PUSH1 0x80 PUSH1 0x40 MSTORE PUSH1 0x0 PUSH1 0x1 SSTORE CALLVALUE DUP1 ISZERO PUSH2 0x15 JUMPI PUSH1 0x0 DUP1 REVERT JUMPDEST POP PUSH1 0x1 PUSH1 0x0 DUP2 SWAP1 SSTORE POP PUSH2 0x3842 DUP1 PUSH2 0x2D PUSH1 0x0 CODECOPY PUSH1 0x0 RETURN INVALID PUSH1 0x80 PUSH1 0x40 MSTORE PUSH1 0x4 CALLDATASIZE LT PUSH2 0x9C JUMPI PUSH1 0x0 CALLDATALOAD PUSH1 0xE0 SHR DUP1 PUSH4 0xAB7B1C89 GT PUSH2 0x64 JUMPI DUP1 PUSH4 0xAB7B1C89 EQ PUSH2 0x179 JUMPI DUP1 PUSH4 0xB96C5CDD EQ PUSH2 0x195 JUMPI DUP1 PUSH4 0xBDBFA3DE EQ PUSH2 0x1D3 JUMPI DUP1 PUSH4 0xD46BD137 EQ PUSH2 0x1EF JUMPI DUP1 PUSH4 0xE034F3DC EQ PUSH2 0x22D JUMPI DUP1 PUSH4 0xE3ED1902 EQ PUSH2 0x274 JUMPI PUSH2 0x9C JUMP JUMPDEST DUP1 PUSH4 0x15E303F3 EQ PUSH2 0xA1 JUMPI DUP1 PUSH4 0x1A26E0B7 EQ PUSH2 0xBD JUMPI DUP1 PUSH4 0x3DDCE5A0 EQ PUSH2 0xE8 JUMPI DUP1 PUSH4 0x6BE35C6C EQ PUSH2 0x113 JUMPI DUP1 PUSH4 0x8F2C3655 EQ PUSH2 0x150 JUMPI JUMPDEST PUSH1 0x0 DUP1 REVERT JUMPDEST PUSH2 0xBB PUSH1 0x4 DUP1 CALLDATASIZE SUB DUP2 ADD SWAP1 PUSH2 0xB6 SWAP2 SWAP1 PUSH2 0x25BE JUMP JUMPDEST PUSH2 0x2B1 JUMP JUMPDEST STOP JUMPDEST CALLVALUE DUP1 ISZERO PUSH2 0xC9 JUMPI PUSH1 0x0 DUP1 REVERT JUMPDEST POP PUSH2 0xD2 PUSH2 0x5FC JUMP JUMPDEST PUSH1 0x40 MLOAD PUSH2 0xDF SWAP2 SWAP1 PUSH2 0x29C6 JUMP JUMPDEST PUSH1 0x40 MLOAD DUP1 SWAP2 SUB SWAP1 RETURN JUMPDEST CALLVALUE DUP1 ISZERO PUSH2 0xF4 JUMPI PUSH1 0x0 DUP1 REVERT JUMPDEST POP PUSH2 0xFD PUSH2 0x74B JUMP JUMPDEST PUSH1 0x40 MLOAD PUSH2 0x10A SWAP2 SWAP1 PUSH2 0x29C6 JUMP JUMPDEST PUSH1 0x40 MLOAD DUP1 SWAP2 SUB SWAP1 RETURN JUMPDEST CALLVALUE DUP1 ISZERO PUSH2 0x11F JUMPI PUSH1 0x0 DUP1 REVERT JUMPDEST POP PUSH2 0x13A PUSH1 0x4 DUP1 CALLDATASIZE SUB DUP2 ADD SWAP1 PUSH2 0x135 SWAP2 SWAP1 PUSH2 0x2A0D JUMP JUMPDEST PUSH2 0x89A JUMP JUMPDEST PUSH1 0x40 MLOAD PUSH2 0x147 SWAP2 SWAP1 PUSH2 0x29C6 JUMP JUMPDEST PUSH1 0x40 MLOAD DUP1 SWAP2 SUB SWAP1 RETURN JUMPDEST CALLVALUE DUP1 ISZERO PUSH2 0x15C JUMPI PUSH1 0x0 DUP1 REVERT JUMPDEST POP PUSH2 0x177 PUSH1 0x4 DUP1 CALLDATASIZE SUB DUP2 ADD SWAP1 PUSH2 0x172 SWAP2 SWAP1 PUSH2 0x2A3A JUMP JUMPDEST PUSH2 0xA3B JUMP JUMPDEST STOP JUMPDEST PUSH2 0x193 PUSH1 0x4 DUP1 CALLDATASIZE SUB DUP2 ADD SWAP1 PUSH2 0x18E SWAP2 SWAP1 PUSH2 0x25BE JUMP JUMPDEST PUSH2 0x10B1 JUMP JUMPDEST STOP JUMPDEST CALLVALUE DUP1 ISZERO PUSH2 0x1A1 JUMPI PUSH1 0x0 DUP1 REVERT JUMPDEST POP PUSH2 0x1BC PUSH1 0x4 DUP1 CALLDATASIZE SUB DUP2 ADD SWAP1 PUSH2 0x1B7 SWAP2 SWAP1 PUSH2 0x2AA6 JUMP JUMPDEST PUSH2 0x14D2 JUMP JUMPDEST PUSH1 0x40 MLOAD PUSH2 0x1CA SWAP3 SWAP2 SWAP1 PUSH2 0x2AF1 JUMP JUMPDEST PUSH1 0x40 MLOAD DUP1 SWAP2 SUB SWAP1 RETURN JUMPDEST PUSH2 0x1ED PUSH1 0x4 DUP1 CALLDATASIZE SUB DUP2 ADD SWAP1 PUSH2 0x1E8 SWAP2 SWAP1 PUSH2 0x25BE JUMP JUMPDEST PUSH2 0x1523 JUMP JUMPDEST STOP JUMPDEST CALLVALUE DUP1 ISZERO PUSH2 0x1FB JUMPI PUSH1 0x0 DUP1 REVERT JUMPDEST POP PUSH2 0x216 PUSH1 0x4 DUP1 CALLDATASIZE SUB DUP2 ADD SWAP1 PUSH2 0x211 SWAP2 SWAP1 PUSH2 0x25BE JUMP JUMPDEST PUSH2 0x187B JUMP JUMPDEST PUSH1 0x40 MLOAD PUSH2 0x224 SWAP3 SWAP2 SWAP1 PUSH2 0x2B38 JUMP JUMPDEST PUSH1 0x40 MLOAD DUP1 SWAP2 SUB SWAP1 RETURN JUMPDEST CALLVALUE DUP1 ISZERO PUSH2 0x239 JUMPI PUSH1 0x0 DUP1 REVERT JUMPDEST POP PUSH2 0x254 PUSH1 0x4 DUP1 CALLDATASIZE SUB DUP2 ADD SWAP1 PUSH2 0x24F SWAP2 SWAP1 PUSH2 0x25BE JUMP JUMPDEST PUSH2 0x18C4 JUMP JUMPDEST PUSH1 0x40 MLOAD PUSH2 0x26B SWAP12 SWAP11 SWAP10 SWAP9 SWAP8 SWAP7 SWAP6 SWAP5 SWAP4 SWAP3 SWAP2 SWAP1 PUSH2 0x2BC0 JUMP JUMPDEST PUSH1 0x40 MLOAD DUP1 SWAP2 SUB SWAP1 RETURN JUMPDEST CALLVALUE DUP1 ISZERO PUSH2 0x280 JUMPI PUSH1 0x0 DUP1 REVERT JUMPDEST POP PUSH2 0x29B PUSH1 0x4 DUP1 CALLDATASIZE SUB DUP2 ADD SWAP1 PUSH2 0x296 SWAP2 SWAP1 PUSH2 0x2C72 JUMP JUMPDEST PUSH2 0x1A2D JUMP JUMPDEST PUSH1 0x40 MLOAD PUSH2 0x2A8 SWAP2 SWAP1 PUSH2 0x2CB2 JUMP JUMPDEST PUSH1 0x40 MLOAD DUP1 SWAP2 SUB SWAP1 RETURN JUMPDEST PUSH2 0x2B9 PUSH2 0x1A5E JUMP JUMPDEST PUSH1 0x0 PUSH1 0x2 PUSH1 0x0 DUP4 DUP2 MSTORE PUSH1 0x20 ADD SWAP1 DUP2 MSTORE PUSH1 0x20 ADD PUSH1 0x0 KECCAK256 SWAP1 POP PUSH1 0x0 DUP2 PUSH1 0x1 ADD PUSH1 0x0 ADD PUSH1 0x0 SWAP1 SLOAD SWAP1 PUSH2 0x100 EXP SWAP1 DIV PUSH20 0xFFFFFFFFFFFFFFFFFFFFFFFFFFFFFFFFFFFFFFFF AND SWAP1 POP DUP3 DUP3 PUSH1 0x0 ADD SLOAD EQ PUSH2 0x342 JUMPI PUSH1 0x40 MLOAD PUSH32 0x8C379A000000000000000000000000000000000000000000000000000000000 DUP2 MSTORE PUSH1 0x4 ADD PUSH2 0x339 SWAP1 PUSH2 0x2D2A JUMP JUMPDEST PUSH1 0x40 MLOAD DUP1 SWAP2 SUB SWAP1 REVERT JUMPDEST PUSH1 0x1 PUSH1 0x4 DUP2 GT ISZERO PUSH2 0x356 JUMPI PUSH2 0x355 PUSH2 0x2782 JUMP JUMPDEST JUMPDEST DUP3 PUSH1 0xA ADD PUSH1 0x0 SWAP1 SLOAD SWAP1 PUSH2 0x100 EXP SWAP1 DIV PUSH1 0xFF AND PUSH1 0x4 DUP2 GT ISZERO PUSH2 0x37A JUMPI PUSH2 0x379 PUSH2 0x2782 JUMP JUMPDEST JUMPDEST EQ PUSH2 0x3BA JUMPI PUSH1 0x40 MLOAD PUSH32 0x8C379A000000000000000000000000000000000000000000000000000000000 DUP2 MSTORE PUSH1 0x4 ADD PUSH2 0x3B1 SWAP1 PUSH2 0x2D96 JUMP JUMPDEST PUSH1 0x40 MLOAD DUP1 SWAP2 SUB SWAP1 REVERT JUMPDEST DUP2 PUSH1 0x4 ADD SLOAD CALLVALUE LT ISZERO PUSH2 0x401 JUMPI PUSH1 0x40 MLOAD PUSH32 0x8C379A000000000000000000000000000000000000000000000000000000000 DUP2 MSTORE PUSH1 0x4 ADD PUSH2 0x3F8 SWAP1 PUSH2 0x2E28 JUMP JUMPDEST PUSH1 0x40 MLOAD DUP1 SWAP2 SUB SWAP1 REVERT JUMPDEST CALLER PUSH20 0xFFFFFFFFFFFFFFFFFFFFFFFFFFFFFFFFFFFFFFFF AND DUP2 PUSH20 0xFFFFFFFFFFFFFFFFFFFFFFFFFFFFFFFFFFFFFFFF AND SUB PUSH2 0x46F JUMPI PUSH1 0x40 MLOAD PUSH32 0x8C379A000000000000000000000000000000000000000000000000000000000 DUP2 MSTORE PUSH1 0x4 ADD PUSH2 0x466 SWAP1 PUSH2 0x2EBA JUMP JUMPDEST PUSH1 0x40 MLOAD DUP1 SWAP2 SUB SWAP1 REVERT JUMPDEST PUSH1 0x0 PUSH2 0x48B DUP4 PUSH1 0xA ADD PUSH1 0x1 SWAP1 SLOAD SWAP1 PUSH2 0x100 EXP SWAP1 DIV PUSH1 0xFF AND PUSH2 0x1AAD JUMP JUMPDEST SWAP1 POP CALLER DUP4 PUSH1 0x3 ADD PUSH1 0x0 PUSH2 0x100 EXP DUP2 SLOAD DUP2 PUSH20 0xFFFFFFFFFFFFFFFFFFFFFFFFFFFFFFFFFFFFFFFF MUL NOT AND SWAP1 DUP4 PUSH20 0xFFFFFFFFFFFFFFFFFFFFFFFFFFFFFFFFFFFFFFFF AND MUL OR SWAP1 SSTORE POP TIMESTAMP DUP4 PUSH1 0x7 ADD DUP2 SWAP1 SSTORE POP PUSH3 0x15180 DUP2 PUSH2 0x4E8 SWAP2 SWAP1 PUSH2 0x2F09 JUMP JUMPDEST TIMESTAMP PUSH2 0x4F3 SWAP2 SWAP1 PUSH2 0x2F4B JUMP JUMPDEST DUP4 PUSH1 0x8 ADD DUP2 SWAP1 SSTORE POP PUSH1 0x0 DUP4 PUSH1 0xA ADD PUSH1 0x0 PUSH2 0x100 EXP DUP2 SLOAD DUP2 PUSH1 0xFF MUL NOT AND SWAP1 DUP4 PUSH1 0x4 DUP2 GT ISZERO PUSH2 0x523 JUMPI PUSH2 0x522 PUSH2 0x2782 JUMP JUMPDEST JUMPDEST MUL OR SWAP1 SSTORE POP DUP2 PUSH20 0xFFFFFFFFFFFFFFFFFFFFFFFFFFFFFFFFFFFFFFFF AND PUSH2 0x8FC CALLVALUE SWAP1 DUP2 ISZERO MUL SWAP1 PUSH1 0x40 MLOAD PUSH1 0x0 PUSH1 0x40 MLOAD DUP1 DUP4 SUB DUP2 DUP6 DUP9 DUP9 CALL SWAP4 POP POP POP POP ISZERO DUP1 ISZERO PUSH2 0x56E JUMPI RETURNDATASIZE PUSH1 0x0 DUP1 RETURNDATACOPY RETURNDATASIZE PUSH1 0x0 REVERT JUMPDEST POP PUSH2 0x5A1 DUP4 PUSH1 0x4 ADD SLOAD DUP5 PUSH1 0x3 ADD PUSH1 0x0 SWAP1 SLOAD SWAP1 PUSH2 0x100 EXP SWAP1 DIV PUSH20 0xFFFFFFFFFFFFFFFFFFFFFFFFFFFFFFFFFFFFFFFF AND PUSH2 0x1B8D JUMP JUMPDEST PUSH32 0x8AA0DA3F068A2CB6C8967AE3DCBA3C1E23F4035D737FD9CB63FB331E85176051 DUP4 PUSH1 0x0 ADD SLOAD CALLER DUP5 CALLVALUE DUP8 PUSH1 0x7 ADD SLOAD DUP9 PUSH1 0x8 ADD SLOAD PUSH1 0x40 MLOAD PUSH2 0x5E6 SWAP7 SWAP6 SWAP5 SWAP4 SWAP3 SWAP2 SWAP1 PUSH2 0x2F7F JUMP JUMPDEST PUSH1 0x40 MLOAD DUP1 SWAP2 SUB SWAP1 LOG1 POP POP POP PUSH2 0x5F9 PUSH2 0x1BF3 JUMP JUMPDEST POP JUMP JUMPDEST PUSH1 0x60 PUSH1 0x0 DUP1 PUSH2 0x609 PUSH2 0x1BFD JUMP JUMPDEST SWAP2 POP SWAP2 POP PUSH1 0x0 JUMPDEST DUP2 DUP2 LT ISZERO PUSH2 0x742 JUMPI PUSH1 0x0 JUMPDEST DUP2 PUSH1 0x1 DUP5 PUSH2 0x629 SWAP2 SWAP1 PUSH2 0x2FE0 JUMP JUMPDEST PUSH2 0x633 SWAP2 SWAP1 PUSH2 0x2FE0 JUMP JUMPDEST DUP2 LT ISZERO PUSH2 0x72E JUMPI DUP4 PUSH1 0x1 DUP3 PUSH2 0x648 SWAP2 SWAP1 PUSH2 0x2F4B JUMP JUMPDEST DUP2 MLOAD DUP2 LT PUSH2 0x659 JUMPI PUSH2 0x658 PUSH2 0x3014 JUMP JUMPDEST JUMPDEST PUSH1 0x20 MUL PUSH1 0x20 ADD ADD MLOAD PUSH1 0x80 ADD MLOAD DUP5 DUP3 DUP2 MLOAD DUP2 LT PUSH2 0x678 JUMPI PUSH2 0x677 PUSH2 0x3014 JUMP JUMPDEST JUMPDEST PUSH1 0x20 MUL PUSH1 0x20 ADD ADD MLOAD PUSH1 0x80 ADD MLOAD GT ISZERO PUSH2 0x71B JUMPI PUSH1 0x0 DUP5 DUP3 DUP2 MLOAD DUP2 LT PUSH2 0x69F JUMPI PUSH2 0x69E PUSH2 0x3014 JUMP JUMPDEST JUMPDEST PUSH1 0x20 MUL PUSH1 0x20 ADD ADD MLOAD SWAP1 POP DUP5 PUSH1 0x1 DUP4 PUSH2 0x6B7 SWAP2 SWAP1 PUSH2 0x2F4B JUMP JUMPDEST DUP2 MLOAD DUP2 LT PUSH2 0x6C8 JUMPI PUSH2 0x6C7 PUSH2 0x3014 JUMP JUMPDEST JUMPDEST PUSH1 0x20 MUL PUSH1 0x20 ADD ADD MLOAD DUP6 DUP4 DUP2 MLOAD DUP2 LT PUSH2 0x6E3 JUMPI PUSH2 0x6E2 PUSH2 0x3014 JUMP JUMPDEST JUMPDEST PUSH1 0x20 MUL PUSH1 0x20 ADD ADD DUP2 SWAP1 MSTORE POP DUP1 DUP6 PUSH1 0x1 DUP5 PUSH2 0x6FD SWAP2 SWAP1 PUSH2 0x2F4B JUMP JUMPDEST DUP2 MLOAD DUP2 LT PUSH2 0x70E JUMPI PUSH2 0x70D PUSH2 0x3014 JUMP JUMPDEST JUMPDEST PUSH1 0x20 MUL PUSH1 0x20 ADD ADD DUP2 SWAP1 MSTORE POP POP JUMPDEST DUP1 DUP1 PUSH2 0x726 SWAP1 PUSH2 0x3043 JUMP JUMPDEST SWAP2 POP POP PUSH2 0x61B JUMP JUMPDEST POP DUP1 DUP1 PUSH2 0x73A SWAP1 PUSH2 0x3043 JUMP JUMPDEST SWAP2 POP POP PUSH2 0x610 JUMP JUMPDEST POP DUP2 SWAP3 POP POP POP SWAP1 JUMP JUMPDEST PUSH1 0x60 PUSH1 0x0 DUP1 PUSH2 0x758 PUSH2 0x1BFD JUMP JUMPDEST SWAP2 POP SWAP2 POP PUSH1 0x0 JUMPDEST DUP2 DUP2 LT ISZERO PUSH2 0x891 JUMPI PUSH1 0x0 JUMPDEST DUP2 PUSH1 0x1 DUP5 PUSH2 0x778 SWAP2 SWAP1 PUSH2 0x2FE0 JUMP JUMPDEST PUSH2 0x782 SWAP2 SWAP1 PUSH2 0x2FE0 JUMP JUMPDEST DUP2 LT ISZERO PUSH2 0x87D JUMPI DUP4 PUSH1 0x1 DUP3 PUSH2 0x797 SWAP2 SWAP1 PUSH2 0x2F4B JUMP JUMPDEST DUP2 MLOAD DUP2 LT PUSH2 0x7A8 JUMPI PUSH2 0x7A7 PUSH2 0x3014 JUMP JUMPDEST JUMPDEST PUSH1 0x20 MUL PUSH1 0x20 ADD ADD MLOAD PUSH1 0x60 ADD MLOAD DUP5 DUP3 DUP2 MLOAD DUP2 LT PUSH2 0x7C7 JUMPI PUSH2 0x7C6 PUSH2 0x3014 JUMP JUMPDEST JUMPDEST PUSH1 0x20 MUL PUSH1 0x20 ADD ADD MLOAD PUSH1 0x60 ADD MLOAD GT ISZERO PUSH2 0x86A JUMPI PUSH1 0x0 DUP5 DUP3 DUP2 MLOAD DUP2 LT PUSH2 0x7EE JUMPI PUSH2 0x7ED PUSH2 0x3014 JUMP JUMPDEST JUMPDEST PUSH1 0x20 MUL PUSH1 0x20 ADD ADD MLOAD SWAP1 POP DUP5 PUSH1 0x1 DUP4 PUSH2 0x806 SWAP2 SWAP1 PUSH2 0x2F4B JUMP JUMPDEST DUP2 MLOAD DUP2 LT PUSH2 0x817 JUMPI PUSH2 0x816 PUSH2 0x3014 JUMP JUMPDEST JUMPDEST PUSH1 0x20 MUL PUSH1 0x20 ADD ADD MLOAD DUP6 DUP4 DUP2 MLOAD DUP2 LT PUSH2 0x832 JUMPI PUSH2 0x831 PUSH2 0x3014 JUMP JUMPDEST JUMPDEST PUSH1 0x20 MUL PUSH1 0x20 ADD ADD DUP2 SWAP1 MSTORE POP DUP1 DUP6 PUSH1 0x1 DUP5 PUSH2 0x84C SWAP2 SWAP1 PUSH2 0x2F4B JUMP JUMPDEST DUP2 MLOAD DUP2 LT PUSH2 0x85D JUMPI PUSH2 0x85C PUSH2 0x3014 JUMP JUMPDEST JUMPDEST PUSH1 0x20 MUL PUSH1 0x20 ADD ADD DUP2 SWAP1 MSTORE POP POP JUMPDEST DUP1 DUP1 PUSH2 0x875 SWAP1 PUSH2 0x3043 JUMP JUMPDEST SWAP2 POP POP PUSH2 0x76A JUMP JUMPDEST POP DUP1 DUP1 PUSH2 0x889 SWAP1 PUSH2 0x3043 JUMP JUMPDEST SWAP2 POP POP PUSH2 0x75F JUMP JUMPDEST POP DUP2 SWAP3 POP POP POP SWAP1 JUMP JUMPDEST PUSH1 0x60 PUSH1 0x0 DUP1 PUSH2 0x8A7 PUSH2 0x1BFD JUMP JUMPDEST SWAP2 POP SWAP2 POP PUSH1 0x0 DUP1 JUMPDEST DUP3 DUP2 LT ISZERO PUSH2 0x923 JUMPI DUP6 PUSH1 0x2 DUP2 GT ISZERO PUSH2 0x8CA JUMPI PUSH2 0x8C9 PUSH2 0x2782 JUMP JUMPDEST JUMPDEST DUP5 DUP3 DUP2 MLOAD DUP2 LT PUSH2 0x8DD JUMPI PUSH2 0x8DC PUSH2 0x3014 JUMP JUMPDEST JUMPDEST PUSH1 0x20 MUL PUSH1 0x20 ADD ADD MLOAD PUSH2 0x140 ADD MLOAD PUSH1 0x2 DUP2 GT ISZERO PUSH2 0x8FC JUMPI PUSH2 0x8FB PUSH2 0x2782 JUMP JUMPDEST JUMPDEST SUB PUSH2 0x910 JUMPI DUP2 DUP1 PUSH2 0x90C SWAP1 PUSH2 0x3043 JUMP JUMPDEST SWAP3 POP POP JUMPDEST DUP1 DUP1 PUSH2 0x91B SWAP1 PUSH2 0x3043 JUMP JUMPDEST SWAP2 POP POP PUSH2 0x8AF JUMP JUMPDEST POP PUSH1 0x0 DUP2 PUSH8 0xFFFFFFFFFFFFFFFF DUP2 GT ISZERO PUSH2 0x940 JUMPI PUSH2 0x93F PUSH2 0x308B JUMP JUMPDEST JUMPDEST PUSH1 0x40 MLOAD SWAP1 DUP1 DUP3 MSTORE DUP1 PUSH1 0x20 MUL PUSH1 0x20 ADD DUP3 ADD PUSH1 0x40 MSTORE DUP1 ISZERO PUSH2 0x979 JUMPI DUP2 PUSH1 0x20 ADD JUMPDEST PUSH2 0x966 PUSH2 0x2445 JUMP JUMPDEST DUP2 MSTORE PUSH1 0x20 ADD SWAP1 PUSH1 0x1 SWAP1 SUB SWAP1 DUP2 PUSH2 0x95E JUMPI SWAP1 POP JUMPDEST POP SWAP1 POP PUSH1 0x0 DUP1 JUMPDEST DUP5 DUP2 LT ISZERO PUSH2 0xA2D JUMPI DUP8 PUSH1 0x2 DUP2 GT ISZERO PUSH2 0x99B JUMPI PUSH2 0x99A PUSH2 0x2782 JUMP JUMPDEST JUMPDEST DUP7 DUP3 DUP2 MLOAD DUP2 LT PUSH2 0x9AE JUMPI PUSH2 0x9AD PUSH2 0x3014 JUMP JUMPDEST JUMPDEST PUSH1 0x20 MUL PUSH1 0x20 ADD ADD MLOAD PUSH2 0x140 ADD MLOAD PUSH1 0x2 DUP2 GT ISZERO PUSH2 0x9CD JUMPI PUSH2 0x9CC PUSH2 0x2782 JUMP JUMPDEST JUMPDEST SUB PUSH2 0xA1A JUMPI DUP6 DUP2 DUP2 MLOAD DUP2 LT PUSH2 0x9E5 JUMPI PUSH2 0x9E4 PUSH2 0x3014 JUMP JUMPDEST JUMPDEST PUSH1 0x20 MUL PUSH1 0x20 ADD ADD MLOAD DUP4 DUP4 DUP2 MLOAD DUP2 LT PUSH2 0xA00 JUMPI PUSH2 0x9FF PUSH2 0x3014 JUMP JUMPDEST JUMPDEST PUSH1 0x20 MUL PUSH1 0x20 ADD ADD DUP2 SWAP1 MSTORE POP DUP2 DUP1 PUSH2 0xA16 SWAP1 PUSH2 0x3043 JUMP JUMPDEST SWAP3 POP POP JUMPDEST DUP1 DUP1 PUSH2 0xA25 SWAP1 PUSH2 0x3043 JUMP JUMPDEST SWAP2 POP POP PUSH2 0x980 JUMP JUMPDEST POP DUP2 SWAP6 POP POP POP POP POP POP SWAP2 SWAP1 POP JUMP JUMPDEST PUSH1 0x0 DUP3 GT PUSH2 0xA7E JUMPI PUSH1 0x40 MLOAD PUSH32 0x8C379A000000000000000000000000000000000000000000000000000000000 DUP2 MSTORE PUSH1 0x4 ADD PUSH2 0xA75 SWAP1 PUSH2 0x312C JUMP JUMPDEST PUSH1 0x40 MLOAD DUP1 SWAP2 SUB SWAP1 REVERT JUMPDEST PUSH1 0x0 PUSH2 0xA88 PUSH2 0x1BFD JUMP JUMPDEST SWAP2 POP POP PUSH2 0x1F4 DUP2 GT ISZERO PUSH2 0xAD0 JUMPI PUSH1 0x40 MLOAD PUSH32 0x8C379A000000000000000000000000000000000000000000000000000000000 DUP2 MSTORE PUSH1 0x4 ADD PUSH2 0xAC7 SWAP1 PUSH2 0x31BE JUMP JUMPDEST PUSH1 0x40 MLOAD DUP1 SWAP2 SUB SWAP1 REVERT JUMPDEST PUSH1 0x0 PUSH1 0x4 PUSH1 0x0 CALLER PUSH20 0xFFFFFFFFFFFFFFFFFFFFFFFFFFFFFFFFFFFFFFFF AND PUSH20 0xFFFFFFFFFFFFFFFFFFFFFFFFFFFFFFFFFFFFFFFF AND DUP2 MSTORE PUSH1 0x20 ADD SWAP1 DUP2 MSTORE PUSH1 0x20 ADD PUSH1 0x0 KECCAK256 DUP1 SLOAD DUP1 PUSH1 0x20 MUL PUSH1 0x20 ADD PUSH1 0x40 MLOAD SWAP1 DUP2 ADD PUSH1 0x40 MSTORE DUP1 SWAP3 SWAP2 SWAP1 DUP2 DUP2 MSTORE PUSH1 0x20 ADD DUP3 DUP1 SLOAD DUP1 ISZERO PUSH2 0xB5B JUMPI PUSH1 0x20 MUL DUP3 ADD SWAP2 SWAP1 PUSH1 0x0 MSTORE PUSH1 0x20 PUSH1 0x0 KECCAK256 SWAP1 JUMPDEST DUP2 SLOAD DUP2 MSTORE PUSH1 0x20 ADD SWAP1 PUSH1 0x1 ADD SWAP1 DUP1 DUP4 GT PUSH2 0xB47 JUMPI JUMPDEST POP POP POP POP POP SWAP1 POP PUSH1 0x0 JUMPDEST DUP2 MLOAD DUP2 LT ISZERO PUSH2 0xE22 JUMPI PUSH1 0x0 DUP3 DUP3 DUP2 MLOAD DUP2 LT PUSH2 0xB83 JUMPI PUSH2 0xB82 PUSH2 0x3014 JUMP JUMPDEST JUMPDEST PUSH1 0x20 MUL PUSH1 0x20 ADD ADD MLOAD SWAP1 POP PUSH1 0x0 PUSH1 0x2 PUSH1 0x0 DUP4 DUP2 MSTORE PUSH1 0x20 ADD SWAP1 DUP2 MSTORE PUSH1 0x20 ADD PUSH1 0x0 KECCAK256 PUSH1 0x40 MLOAD DUP1 PUSH2 0x160 ADD PUSH1 0x40 MSTORE SWAP1 DUP2 PUSH1 0x0 DUP3 ADD SLOAD DUP2 MSTORE PUSH1 0x20 ADD PUSH1 0x1 DUP3 ADD PUSH1 0x40 MLOAD DUP1 PUSH1 0x60 ADD PUSH1 0x40 MSTORE SWAP1 DUP2 PUSH1 0x0 DUP3 ADD PUSH1 0x0 SWAP1 SLOAD SWAP1 PUSH2 0x100 EXP SWAP1 DIV PUSH20 0xFFFFFFFFFFFFFFFFFFFFFFFFFFFFFFFFFFFFFFFF AND PUSH20 0xFFFFFFFFFFFFFFFFFFFFFFFFFFFFFFFFFFFFFFFF AND PUSH20 0xFFFFFFFFFFFFFFFFFFFFFFFFFFFFFFFFFFFFFFFF AND DUP2 MSTORE PUSH1 0x20 ADD PUSH1 0x0 DUP3 ADD PUSH1 0x14 SWAP1 SLOAD SWAP1 PUSH2 0x100 EXP SWAP1 DIV PUSH1 0xFF AND PUSH1 0xFF AND PUSH1 0xFF AND DUP2 MSTORE PUSH1 0x20 ADD PUSH1 0x1 DUP3 ADD DUP1 SLOAD DUP1 PUSH1 0x20 MUL PUSH1 0x20 ADD PUSH1 0x40 MLOAD SWAP1 DUP2 ADD PUSH1 0x40 MSTORE DUP1 SWAP3 SWAP2 SWAP1 DUP2 DUP2 MSTORE PUSH1 0x20 ADD DUP3 DUP1 SLOAD DUP1 ISZERO PUSH2 0xC8A JUMPI PUSH1 0x20 MUL DUP3 ADD SWAP2 SWAP1 PUSH1 0x0 MSTORE PUSH1 0x20 PUSH1 0x0 KECCAK256 SWAP1 JUMPDEST DUP2 SLOAD DUP2 MSTORE PUSH1 0x20 ADD SWAP1 PUSH1 0x1 ADD SWAP1 DUP1 DUP4 GT PUSH2 0xC76 JUMPI JUMPDEST POP POP POP POP POP DUP2 MSTORE POP POP DUP2 MSTORE PUSH1 0x20 ADD PUSH1 0x3 DUP3 ADD PUSH1 0x0 SWAP1 SLOAD SWAP1 PUSH2 0x100 EXP SWAP1 DIV PUSH20 0xFFFFFFFFFFFFFFFFFFFFFFFFFFFFFFFFFFFFFFFF AND PUSH20 0xFFFFFFFFFFFFFFFFFFFFFFFFFFFFFFFFFFFFFFFF AND PUSH20 0xFFFFFFFFFFFFFFFFFFFFFFFFFFFFFFFFFFFFFFFF AND DUP2 MSTORE PUSH1 0x20 ADD PUSH1 0x4 DUP3 ADD SLOAD DUP2 MSTORE PUSH1 0x20 ADD PUSH1 0x5 DUP3 ADD SLOAD DUP2 MSTORE PUSH1 0x20 ADD PUSH1 0x6 DUP3 ADD SLOAD DUP2 MSTORE PUSH1 0x20 ADD PUSH1 0x7 DUP3 ADD SLOAD DUP2 MSTORE PUSH1 0x20 ADD PUSH1 0x8 DUP3 ADD SLOAD DUP2 MSTORE PUSH1 0x20 ADD PUSH1 0x9 DUP3 ADD SLOAD DUP2 MSTORE PUSH1 0x20 ADD PUSH1 0xA DUP3 ADD PUSH1 0x0 SWAP1 SLOAD SWAP1 PUSH2 0x100 EXP SWAP1 DIV PUSH1 0xFF AND PUSH1 0x4 DUP2 GT ISZERO PUSH2 0xD4E JUMPI PUSH2 0xD4D PUSH2 0x2782 JUMP JUMPDEST JUMPDEST PUSH1 0x4 DUP2 GT ISZERO PUSH2 0xD60 JUMPI PUSH2 0xD5F PUSH2 0x2782 JUMP JUMPDEST JUMPDEST DUP2 MSTORE PUSH1 0x20 ADD PUSH1 0xA DUP3 ADD PUSH1 0x1 SWAP1 SLOAD SWAP1 PUSH2 0x100 EXP SWAP1 DIV PUSH1 0xFF AND PUSH1 0x2 DUP2 GT ISZERO PUSH2 0xD89 JUMPI PUSH2 0xD88 PUSH2 0x2782 JUMP JUMPDEST JUMPDEST PUSH1 0x2 DUP2 GT ISZERO PUSH2 0xD9B JUMPI PUSH2 0xD9A PUSH2 0x2782 JUMP JUMPDEST JUMPDEST DUP2 MSTORE POP POP SWAP1 POP PUSH1 0x2 PUSH1 0x4 DUP2 GT ISZERO PUSH2 0xDB5 JUMPI PUSH2 0xDB4 PUSH2 0x2782 JUMP JUMPDEST JUMPDEST DUP2 PUSH2 0x120 ADD MLOAD PUSH1 0x4 DUP2 GT ISZERO PUSH2 0xDCD JUMPI PUSH2 0xDCC PUSH2 0x2782 JUMP JUMPDEST JUMPDEST EQ PUSH2 0xE0D JUMPI PUSH1 0x40 MLOAD PUSH32 0x8C379A000000000000000000000000000000000000000000000000000000000 DUP2 MSTORE PUSH1 0x4 ADD PUSH2 0xE04 SWAP1 PUSH2 0x3276 JUMP JUMPDEST PUSH1 0x40 MLOAD DUP1 SWAP2 SUB SWAP1 REVERT JUMPDEST POP POP DUP1 DUP1 PUSH2 0xE1A SWAP1 PUSH2 0x3043 JUMP JUMPDEST SWAP2 POP POP PUSH2 0xB65 JUMP JUMPDEST POP PUSH1 0x1 PUSH1 0x0 DUP2 SLOAD DUP1 SWAP3 SWAP2 SWAP1 PUSH2 0xE36 SWAP1 PUSH2 0x3043 JUMP JUMPDEST SWAP2 SWAP1 POP SSTORE POP PUSH1 0x0 PUSH1 0x4 PUSH1 0x0 CALLER PUSH20 0xFFFFFFFFFFFFFFFFFFFFFFFFFFFFFFFFFFFFFFFF AND PUSH20 0xFFFFFFFFFFFFFFFFFFFFFFFFFFFFFFFFFFFFFFFF AND DUP2 MSTORE PUSH1 0x20 ADD SWAP1 DUP2 MSTORE PUSH1 0x20 ADD PUSH1 0x0 KECCAK256 DUP1 SLOAD SWAP1 POP SWAP1 POP PUSH1 0x0 DUP1 DUP3 EQ PUSH2 0xEE0 JUMPI PUSH1 0x3 PUSH1 0x0 CALLER PUSH20 0xFFFFFFFFFFFFFFFFFFFFFFFFFFFFFFFFFFFFFFFF AND PUSH20 0xFFFFFFFFFFFFFFFFFFFFFFFFFFFFFFFFFFFFFFFF AND DUP2 MSTORE PUSH1 0x20 ADD SWAP1 DUP2 MSTORE PUSH1 0x20 ADD PUSH1 0x0 KECCAK256 PUSH1 0x0 ADD PUSH1 0x14 SWAP1 SLOAD SWAP1 PUSH2 0x100 EXP SWAP1 DIV PUSH1 0xFF AND PUSH2 0xEE3 JUMP JUMPDEST PUSH1 0x1 JUMPDEST SWAP1 POP PUSH1 0x0 DUP1 PUSH2 0xEF1 DUP4 PUSH2 0x1F9E JUMP JUMPDEST SWAP2 POP SWAP2 POP PUSH1 0x0 PUSH1 0x40 MLOAD DUP1 PUSH2 0x160 ADD PUSH1 0x40 MSTORE DUP1 PUSH1 0x1 SLOAD DUP2 MSTORE PUSH1 0x20 ADD PUSH1 0x40 MLOAD DUP1 PUSH1 0x60 ADD PUSH1 0x40 MSTORE DUP1 CALLER PUSH20 0xFFFFFFFFFFFFFFFFFFFFFFFFFFFFFFFFFFFFFFFF AND DUP2 MSTORE PUSH1 0x20 ADD DUP8 PUSH1 0xFF AND DUP2 MSTORE PUSH1 0x20 ADD PUSH1 0x4 PUSH1 0x0 CALLER PUSH20 0xFFFFFFFFFFFFFFFFFFFFFFFFFFFFFFFFFFFFFFFF AND PUSH20 0xFFFFFFFFFFFFFFFFFFFFFFFFFFFFFFFFFFFFFFFF AND DUP2 MSTORE PUSH1 0x20 ADD SWAP1 DUP2 MSTORE PUSH1 0x20 ADD PUSH1 0x0 KECCAK256 DUP1 SLOAD DUP1 PUSH1 0x20 MUL PUSH1 0x20 ADD PUSH1 0x40 MLOAD SWAP1 DUP2 ADD PUSH1 0x40 MSTORE DUP1 SWAP3 SWAP2 SWAP1 DUP2 DUP2 MSTORE PUSH1 0x20 ADD DUP3 DUP1 SLOAD DUP1 ISZERO PUSH2 0xFC4 JUMPI PUSH1 0x20 MUL DUP3 ADD SWAP2 SWAP1 PUSH1 0x0 MSTORE PUSH1 0x20 PUSH1 0x0 KECCAK256 SWAP1 JUMPDEST DUP2 SLOAD DUP2 MSTORE PUSH1 0x20 ADD SWAP1 PUSH1 0x1 ADD SWAP1 DUP1 DUP4 GT PUSH2 0xFB0 JUMPI JUMPDEST POP POP POP POP POP DUP2 MSTORE POP DUP2 MSTORE PUSH1 0x20 ADD PUSH1 0x0 PUSH20 0xFFFFFFFFFFFFFFFFFFFFFFFFFFFFFFFFFFFFFFFF AND DUP2 MSTORE PUSH1 0x20 ADD DUP11 DUP2 MSTORE PUSH1 0x20 ADD DUP5 DUP2 MSTORE PUSH1 0x20 ADD DUP4 DUP2 MSTORE PUSH1 0x20 ADD PUSH1 0x0 DUP2 MSTORE PUSH1 0x20 ADD PUSH1 0x0 DUP2 MSTORE PUSH1 0x20 ADD PUSH1 0x0 DUP2 MSTORE PUSH1 0x20 ADD PUSH1 0x1 PUSH1 0x4 DUP2 GT ISZERO PUSH2 0x1029 JUMPI PUSH2 0x1028 PUSH2 0x2782 JUMP JUMPDEST JUMPDEST DUP2 MSTORE PUSH1 0x20 ADD DUP10 PUSH1 0x2 DUP2 GT ISZERO PUSH2 0x1041 JUMPI PUSH2 0x1040 PUSH2 0x2782 JUMP JUMPDEST JUMPDEST DUP2 MSTORE POP SWAP1 POP PUSH2 0x104F DUP2 PUSH2 0x207A JUMP JUMPDEST DUP3 DUP10 CALLER PUSH20 0xFFFFFFFFFFFFFFFFFFFFFFFFFFFFFFFFFFFFFFFF AND PUSH32 0x8C5BE3BC7C6D15AC2F78C4515185B40C4C09E598B09DA542512DBA3CF0F49407 PUSH1 0x1 SLOAD PUSH1 0x1 DUP14 PUSH1 0x40 MLOAD PUSH2 0x109E SWAP4 SWAP3 SWAP2 SWAP1 PUSH2 0x3296 JUMP JUMPDEST PUSH1 0x40 MLOAD DUP1 SWAP2 SUB SWAP1 LOG4 POP POP POP POP POP POP POP POP POP JUMP JUMPDEST PUSH2 0x10B9 PUSH2 0x1A5E JUMP JUMPDEST PUSH1 0x0 PUSH1 0x2 PUSH1 0x0 DUP4 DUP2 MSTORE PUSH1 0x20 ADD SWAP1 DUP2 MSTORE PUSH1 0x20 ADD PUSH1 0x0 KECCAK256 SWAP1 POP PUSH1 0x0 DUP2 PUSH1 0x1 ADD SWAP1 POP DUP2 PUSH1 0x1 ADD PUSH1 0x0 ADD PUSH1 0x0 SWAP1 SLOAD SWAP1 PUSH2 0x100 EXP SWAP1 DIV PUSH20 0xFFFFFFFFFFFFFFFFFFFFFFFFFFFFFFFFFFFFFFFF AND PUSH20 0xFFFFFFFFFFFFFFFFFFFFFFFFFFFFFFFFFFFFFFFF AND CALLER PUSH20 0xFFFFFFFFFFFFFFFFFFFFFFFFFFFFFFFFFFFFFFFF AND EQ PUSH2 0x116D JUMPI PUSH1 0x40 MLOAD PUSH32 0x8C379A000000000000000000000000000000000000000000000000000000000 DUP2 MSTORE PUSH1 0x4 ADD PUSH2 0x1164 SWAP1 PUSH2 0x333F JUMP JUMPDEST PUSH1 0x40 MLOAD DUP1 SWAP2 SUB SWAP1 REVERT JUMPDEST PUSH1 0x0 PUSH1 0x4 DUP2 GT ISZERO PUSH2 0x1181 JUMPI PUSH2 0x1180 PUSH2 0x2782 JUMP JUMPDEST JUMPDEST DUP3 PUSH1 0xA ADD PUSH1 0x0 SWAP1 SLOAD SWAP1 PUSH2 0x100 EXP SWAP1 DIV PUSH1 0xFF AND PUSH1 0x4 DUP2 GT ISZERO PUSH2 0x11A5 JUMPI PUSH2 0x11A4 PUSH2 0x2782 JUMP JUMPDEST JUMPDEST EQ DUP1 PUSH2 0x11E6 JUMPI POP PUSH1 0x3 PUSH1 0x4 DUP2 GT ISZERO PUSH2 0x11C0 JUMPI PUSH2 0x11BF PUSH2 0x2782 JUMP JUMPDEST JUMPDEST DUP3 PUSH1 0xA ADD PUSH1 0x0 SWAP1 SLOAD SWAP1 PUSH2 0x100 EXP SWAP1 DIV PUSH1 0xFF AND PUSH1 0x4 DUP2 GT ISZERO PUSH2 0x11E4 JUMPI PUSH2 0x11E3 PUSH2 0x2782 JUMP JUMPDEST JUMPDEST EQ JUMPDEST PUSH2 0x1225 JUMPI PUSH1 0x40 MLOAD PUSH32 0x8C379A000000000000000000000000000000000000000000000000000000000 DUP2 MSTORE PUSH1 0x4 ADD PUSH2 0x121C SWAP1 PUSH2 0x33AB JUMP JUMPDEST PUSH1 0x40 MLOAD DUP1 SWAP2 SUB SWAP1 REVERT JUMPDEST PUSH1 0x0 PUSH2 0x1230 DUP5 PUSH2 0x228A JUMP JUMPDEST POP SWAP1 POP DUP1 CALLVALUE LT PUSH2 0x13F9 JUMPI DUP3 PUSH1 0x8 ADD SLOAD TIMESTAMP GT PUSH2 0x12CE JUMPI PUSH1 0x4 DUP3 PUSH1 0x0 ADD PUSH1 0x14 SWAP1 SLOAD SWAP1 PUSH2 0x100 EXP SWAP1 DIV PUSH1 0xFF AND PUSH1 0xFF AND LT ISZERO PUSH2 0x129C JUMPI PUSH1 0x1 DUP3 PUSH1 0x0 ADD PUSH1 0x14 DUP3 DUP3 DUP3 SWAP1 SLOAD SWAP1 PUSH2 0x100 EXP SWAP1 DIV PUSH1 0xFF AND PUSH2 0x1283 SWAP2 SWAP1 PUSH2 0x33CB JUMP JUMPDEST SWAP3 POP PUSH2 0x100 EXP DUP2 SLOAD DUP2 PUSH1 0xFF MUL NOT AND SWAP1 DUP4 PUSH1 0xFF AND MUL OR SWAP1 SSTORE POP JUMPDEST PUSH1 0x2 DUP4 PUSH1 0xA ADD PUSH1 0x0 PUSH2 0x100 EXP DUP2 SLOAD DUP2 PUSH1 0xFF MUL NOT AND SWAP1 DUP4 PUSH1 0x4 DUP2 GT ISZERO PUSH2 0x12C4 JUMPI PUSH2 0x12C3 PUSH2 0x2782 JUMP JUMPDEST JUMPDEST MUL OR SWAP1 SSTORE POP PUSH2 0x1352 JUMP JUMPDEST PUSH1 0x1 DUP3 PUSH1 0x0 ADD PUSH1 0x14 SWAP1 SLOAD SWAP1 PUSH2 0x100 EXP SWAP1 DIV PUSH1 0xFF AND PUSH1 0xFF AND LT PUSH2 0x1324 JUMPI PUSH1 0x1 DUP3 PUSH1 0x0 ADD PUSH1 0x14 DUP3 DUP3 DUP3 SWAP1 SLOAD SWAP1 PUSH2 0x100 EXP SWAP1 DIV PUSH1 0xFF AND PUSH2 0x130B SWAP2 SWAP1 PUSH2 0x3400 JUMP JUMPDEST SWAP3 POP PUSH2 0x100 EXP DUP2 SLOAD DUP2 PUSH1 0xFF MUL NOT AND SWAP1 DUP4 PUSH1 0xFF AND MUL OR SWAP1 SSTORE POP JUMPDEST PUSH1 0x3 DUP4 PUSH1 0xA ADD PUSH1 0x0 PUSH2 0x100 EXP DUP2 SLOAD DUP2 PUSH1 0xFF MUL NOT AND SWAP1 DUP4 PUSH1 0x4 DUP2 GT ISZERO PUSH2 0x134C JUMPI PUSH2 0x134B PUSH2 0x2782 JUMP JUMPDEST JUMPDEST MUL OR SWAP1 SSTORE POP JUMPDEST DUP1 DUP4 PUSH1 0x9 ADD DUP2 SWAP1 SSTORE POP DUP3 PUSH1 0x3 ADD PUSH1 0x0 SWAP1 SLOAD SWAP1 PUSH2 0x100 EXP SWAP1 DIV PUSH20 0xFFFFFFFFFFFFFFFFFFFFFFFFFFFFFFFFFFFFFFFF AND PUSH20 0xFFFFFFFFFFFFFFFFFFFFFFFFFFFFFFFFFFFFFFFF AND PUSH2 0x8FC CALLVALUE SWAP1 DUP2 ISZERO MUL SWAP1 PUSH1 0x40 MLOAD PUSH1 0x0 PUSH1 0x40 MLOAD DUP1 DUP4 SUB DUP2 DUP6 DUP9 DUP9 CALL SWAP4 POP POP POP POP ISZERO DUP1 ISZERO PUSH2 0x13C5 JUMPI RETURNDATASIZE PUSH1 0x0 DUP1 RETURNDATACOPY RETURNDATASIZE PUSH1 0x0 REVERT JUMPDEST POP PUSH2 0x13F4 DUP2 DUP5 PUSH1 0x3 ADD PUSH1 0x0 SWAP1 SLOAD SWAP1 PUSH2 0x100 EXP SWAP1 DIV PUSH20 0xFFFFFFFFFFFFFFFFFFFFFFFFFFFFFFFFFFFFFFFF AND PUSH2 0x1B8D JUMP JUMPDEST PUSH2 0x1434 JUMP JUMPDEST PUSH1 0x40 MLOAD PUSH32 0x8C379A000000000000000000000000000000000000000000000000000000000 DUP2 MSTORE PUSH1 0x4 ADD PUSH2 0x142B SWAP1 PUSH2 0x34A7 JUMP JUMPDEST PUSH1 0x40 MLOAD DUP1 SWAP2 SUB SWAP1 REVERT JUMPDEST DUP3 PUSH1 0x9 ADD SLOAD DUP3 PUSH1 0x0 ADD PUSH1 0x0 SWAP1 SLOAD SWAP1 PUSH2 0x100 EXP SWAP1 DIV PUSH20 0xFFFFFFFFFFFFFFFFFFFFFFFFFFFFFFFFFFFFFFFF AND PUSH20 0xFFFFFFFFFFFFFFFFFFFFFFFFFFFFFFFFFFFFFFFF AND PUSH32 0xE0CA2D8C0146CF465A705F2D977A1340819EDED9E7F875AD64C402FC67634A41 DUP7 DUP7 PUSH1 0xA ADD PUSH1 0x0 SWAP1 SLOAD SWAP1 PUSH2 0x100 EXP SWAP1 DIV PUSH1 0xFF AND DUP8 PUSH1 0x9 ADD SLOAD PUSH1 0x40 MLOAD PUSH2 0x14BC SWAP4 SWAP3 SWAP2 SWAP1 PUSH2 0x34C7 JUMP JUMPDEST PUSH1 0x40 MLOAD DUP1 SWAP2 SUB SWAP1 LOG3 POP POP POP PUSH2 0x14CF PUSH2 0x1BF3 JUMP JUMPDEST POP JUMP JUMPDEST PUSH1 0x3 PUSH1 0x20 MSTORE DUP1 PUSH1 0x0 MSTORE PUSH1 0x40 PUSH1 0x0 KECCAK256 PUSH1 0x0 SWAP2 POP SWAP1 POP DUP1 PUSH1 0x0 ADD PUSH1 0x0 SWAP1 SLOAD SWAP1 PUSH2 0x100 EXP SWAP1 DIV PUSH20 0xFFFFFFFFFFFFFFFFFFFFFFFFFFFFFFFFFFFFFFFF AND SWAP1 DUP1 PUSH1 0x0 ADD PUSH1 0x14 SWAP1 SLOAD SWAP1 PUSH2 0x100 EXP SWAP1 DIV PUSH1 0xFF AND SWAP1 POP DUP3 JUMP JUMPDEST PUSH2 0x152B PUSH2 0x1A5E JUMP JUMPDEST PUSH1 0x0 PUSH1 0x2 PUSH1 0x0 DUP4 DUP2 MSTORE PUSH1 0x20 ADD SWAP1 DUP2 MSTORE PUSH1 0x20 ADD PUSH1 0x0 KECCAK256 SWAP1 POP PUSH1 0x0 DUP2 PUSH1 0x1 ADD PUSH1 0x0 ADD PUSH1 0x0 SWAP1 SLOAD SWAP1 PUSH2 0x100 EXP SWAP1 DIV PUSH20 0xFFFFFFFFFFFFFFFFFFFFFFFFFFFFFFFFFFFFFFFF AND SWAP1 POP PUSH1 0x0 PUSH3 0x15180 DUP4 PUSH1 0x7 ADD SLOAD PUSH2 0x1583 SWAP2 SWAP1 PUSH2 0x2F4B JUMP JUMPDEST SWAP1 POP CALLER PUSH20 0xFFFFFFFFFFFFFFFFFFFFFFFFFFFFFFFFFFFFFFFF AND DUP3 PUSH20 0xFFFFFFFFFFFFFFFFFFFFFFFFFFFFFFFFFFFFFFFF AND EQ PUSH2 0x15F3 JUMPI PUSH1 0x40 MLOAD PUSH32 0x8C379A000000000000000000000000000000000000000000000000000000000 DUP2 MSTORE PUSH1 0x4 ADD PUSH2 0x15EA SWAP1 PUSH2 0x3570 JUMP JUMPDEST PUSH1 0x40 MLOAD DUP1 SWAP2 SUB SWAP1 REVERT JUMPDEST PUSH1 0x0 DUP4 PUSH1 0xA ADD PUSH1 0x0 SWAP1 SLOAD SWAP1 PUSH2 0x100 EXP SWAP1 DIV PUSH1 0xFF AND SWAP1 POP PUSH1 0x1 PUSH1 0x4 DUP2 GT ISZERO PUSH2 0x161D JUMPI PUSH2 0x161C PUSH2 0x2782 JUMP JUMPDEST JUMPDEST DUP5 PUSH1 0xA ADD PUSH1 0x0 SWAP1 SLOAD SWAP1 PUSH2 0x100 EXP SWAP1 DIV PUSH1 0xFF AND PUSH1 0x4 DUP2 GT ISZERO PUSH2 0x1641 JUMPI PUSH2 0x1640 PUSH2 0x2782 JUMP JUMPDEST JUMPDEST SUB PUSH2 0x1678 JUMPI PUSH1 0x4 DUP5 PUSH1 0xA ADD PUSH1 0x0 PUSH2 0x100 EXP DUP2 SLOAD DUP2 PUSH1 0xFF MUL NOT AND SWAP1 DUP4 PUSH1 0x4 DUP2 GT ISZERO PUSH2 0x166E JUMPI PUSH2 0x166D PUSH2 0x2782 JUMP JUMPDEST JUMPDEST MUL OR SWAP1 SSTORE POP PUSH2 0x1817 JUMP JUMPDEST PUSH1 0x2 PUSH1 0x4 DUP2 GT ISZERO PUSH2 0x168C JUMPI PUSH2 0x168B PUSH2 0x2782 JUMP JUMPDEST JUMPDEST DUP5 PUSH1 0xA ADD PUSH1 0x0 SWAP1 SLOAD SWAP1 PUSH2 0x100 EXP SWAP1 DIV PUSH1 0xFF AND PUSH1 0x4 DUP2 GT ISZERO PUSH2 0x16B0 JUMPI PUSH2 0x16AF PUSH2 0x2782 JUMP JUMPDEST JUMPDEST EQ DUP1 ISZERO PUSH2 0x16C0 JUMPI POP DUP2 DUP5 PUSH1 0x7 ADD SLOAD LT JUMPDEST ISZERO PUSH2 0x17DB JUMPI CALLVALUE DUP5 PUSH1 0x4 ADD SLOAD LT ISZERO PUSH2 0x170C JUMPI PUSH1 0x40 MLOAD PUSH32 0x8C379A000000000000000000000000000000000000000000000000000000000 DUP2 MSTORE PUSH1 0x4 ADD PUSH2 0x1703 SWAP1 PUSH2 0x35DC JUMP JUMPDEST PUSH1 0x40 MLOAD DUP1 SWAP2 SUB SWAP1 REVERT JUMPDEST PUSH1 0x4 DUP5 PUSH1 0xA ADD PUSH1 0x0 PUSH2 0x100 EXP DUP2 SLOAD DUP2 PUSH1 0xFF MUL NOT AND SWAP1 DUP4 PUSH1 0x4 DUP2 GT ISZERO PUSH2 0x1734 JUMPI PUSH2 0x1733 PUSH2 0x2782 JUMP JUMPDEST JUMPDEST MUL OR SWAP1 SSTORE POP DUP4 PUSH1 0x3 ADD PUSH1 0x0 SWAP1 SLOAD SWAP1 PUSH2 0x100 EXP SWAP1 DIV PUSH20 0xFFFFFFFFFFFFFFFFFFFFFFFFFFFFFFFFFFFFFFFF AND PUSH20 0xFFFFFFFFFFFFFFFFFFFFFFFFFFFFFFFFFFFFFFFF AND PUSH2 0x8FC CALLVALUE SWAP1 DUP2 ISZERO MUL SWAP1 PUSH1 0x40 MLOAD PUSH1 0x0 PUSH1 0x40 MLOAD DUP1 DUP4 SUB DUP2 DUP6 DUP9 DUP9 CALL SWAP4 POP POP POP POP ISZERO DUP1 ISZERO PUSH2 0x17A3 JUMPI RETURNDATASIZE PUSH1 0x0 DUP1 RETURNDATACOPY RETURNDATASIZE PUSH1 0x0 REVERT JUMPDEST POP PUSH2 0x17D6 DUP5 PUSH1 0x4 ADD SLOAD DUP6 PUSH1 0x3 ADD PUSH1 0x0 SWAP1 SLOAD SWAP1 PUSH2 0x100 EXP SWAP1 DIV PUSH20 0xFFFFFFFFFFFFFFFFFFFFFFFFFFFFFFFFFFFFFFFF AND PUSH2 0x1B8D JUMP JUMPDEST PUSH2 0x1816 JUMP JUMPDEST PUSH1 0x40 MLOAD PUSH32 0x8C379A000000000000000000000000000000000000000000000000000000000 DUP2 MSTORE PUSH1 0x4 ADD PUSH2 0x180D SWAP1 PUSH2 0x3648 JUMP JUMPDEST PUSH1 0x40 MLOAD DUP1 SWAP2 SUB SWAP1 REVERT JUMPDEST JUMPDEST DUP4 PUSH1 0x4 ADD SLOAD DUP4 PUSH20 0xFFFFFFFFFFFFFFFFFFFFFFFFFFFFFFFFFFFFFFFF AND PUSH32 0xADBEE1A5CFDE1DA4D21E11A94728AE86436E2A1C5CD2269D7BCF3F30CEA4ED79 DUP8 DUP5 PUSH1 0x40 MLOAD PUSH2 0x1864 SWAP3 SWAP2 SWAP1 PUSH2 0x2B38 JUMP JUMPDEST PUSH1 0x40 MLOAD DUP1 SWAP2 SUB SWAP1 LOG3 POP POP POP POP PUSH2 0x1878 PUSH2 0x1BF3 JUMP JUMPDEST POP JUMP JUMPDEST PUSH1 0x0 DUP1 PUSH1 0x0 PUSH2 0x1889 DUP5 PUSH2 0x228A JUMP JUMPDEST POP SWAP1 POP PUSH1 0x0 PUSH2 0x1897 DUP6 PUSH2 0x228A JUMP JUMPDEST SWAP2 POP POP PUSH1 0x0 DUP2 ISZERO PUSH2 0x18AB JUMPI PUSH1 0x0 SWAP1 POP PUSH2 0x18B6 JUMP JUMPDEST DUP2 PUSH2 0x18B5 JUMPI PUSH1 0x3 SWAP1 POP JUMPDEST JUMPDEST DUP3 DUP2 SWAP5 POP SWAP5 POP POP POP POP SWAP2 POP SWAP2 JUMP JUMPDEST PUSH1 0x2 PUSH1 0x20 MSTORE DUP1 PUSH1 0x0 MSTORE PUSH1 0x40 PUSH1 0x0 KECCAK256 PUSH1 0x0 SWAP2 POP SWAP1 POP DUP1 PUSH1 0x0 ADD SLOAD SWAP1 DUP1 PUSH1 0x1 ADD PUSH1 0x40 MLOAD DUP1 PUSH1 0x60 ADD PUSH1 0x40 MSTORE SWAP1 DUP2 PUSH1 0x0 DUP3 ADD PUSH1 0x0 SWAP1 SLOAD SWAP1 PUSH2 0x100 EXP SWAP1 DIV PUSH20 0xFFFFFFFFFFFFFFFFFFFFFFFFFFFFFFFFFFFFFFFF AND PUSH20 0xFFFFFFFFFFFFFFFFFFFFFFFFFFFFFFFFFFFFFFFF AND PUSH20 0xFFFFFFFFFFFFFFFFFFFFFFFFFFFFFFFFFFFFFFFF AND DUP2 MSTORE PUSH1 0x20 ADD PUSH1 0x0 DUP3 ADD PUSH1 0x14 SWAP1 SLOAD SWAP1 PUSH2 0x100 EXP SWAP1 DIV PUSH1 0xFF AND PUSH1 0xFF AND PUSH1 0xFF AND DUP2 MSTORE PUSH1 0x20 ADD PUSH1 0x1 DUP3 ADD DUP1 SLOAD DUP1 PUSH1 0x20 MUL PUSH1 0x20 ADD PUSH1 0x40 MLOAD SWAP1 DUP2 ADD PUSH1 0x40 MSTORE DUP1 SWAP3 SWAP2 SWAP1 DUP2 DUP2 MSTORE PUSH1 0x20 ADD DUP3 DUP1 SLOAD DUP1 ISZERO PUSH2 0x19AF JUMPI PUSH1 0x20 MUL DUP3 ADD SWAP2 SWAP1 PUSH1 0x0 MSTORE PUSH1 0x20 PUSH1 0x0 KECCAK256 SWAP1 JUMPDEST DUP2 SLOAD DUP2 MSTORE PUSH1 0x20 ADD SWAP1 PUSH1 0x1 ADD SWAP1 DUP1 DUP4 GT PUSH2 0x199B JUMPI JUMPDEST POP POP POP POP POP DUP2 MSTORE POP POP SWAP1 DUP1 PUSH1 0x3 ADD PUSH1 0x0 SWAP1 SLOAD SWAP1 PUSH2 0x100 EXP SWAP1 DIV PUSH20 0xFFFFFFFFFFFFFFFFFFFFFFFFFFFFFFFFFFFFFFFF AND SWAP1 DUP1 PUSH1 0x4 ADD SLOAD SWAP1 DUP1 PUSH1 0x5 ADD SLOAD SWAP1 DUP1 PUSH1 0x6 ADD SLOAD SWAP1 DUP1 PUSH1 0x7 ADD SLOAD SWAP1 DUP1 PUSH1 0x8 ADD SLOAD SWAP1 DUP1 PUSH1 0x9 ADD SLOAD SWAP1 DUP1 PUSH1 0xA ADD PUSH1 0x0 SWAP1 SLOAD SWAP1 PUSH2 0x100 EXP SWAP1 DIV PUSH1 0xFF AND SWAP1 DUP1 PUSH1 0xA ADD PUSH1 0x1 SWAP1 SLOAD SWAP1 PUSH2 0x100 EXP SWAP1 DIV PUSH1 0xFF AND SWAP1 POP DUP12 JUMP JUMPDEST PUSH1 0x4 PUSH1 0x20 MSTORE DUP2 PUSH1 0x0 MSTORE PUSH1 0x40 PUSH1 0x0 KECCAK256 DUP2 DUP2 SLOAD DUP2 LT PUSH2 0x1A49 JUMPI PUSH1 0x0 DUP1 REVERT JUMPDEST SWAP1 PUSH1 0x0 MSTORE PUSH1 0x20 PUSH1 0x0 KECCAK256 ADD PUSH1 0x0 SWAP2 POP SWAP2 POP POP SLOAD DUP2 JUMP JUMPDEST PUSH1 0x2 PUSH1 0x0 SLOAD SUB PUSH2 0x1AA3 JUMPI PUSH1 0x40 MLOAD PUSH32 0x8C379A000000000000000000000000000000000000000000000000000000000 DUP2 MSTORE PUSH1 0x4 ADD PUSH2 0x1A9A SWAP1 PUSH2 0x36B4 JUMP JUMPDEST PUSH1 0x40 MLOAD DUP1 SWAP2 SUB SWAP1 REVERT JUMPDEST PUSH1 0x2 PUSH1 0x0 DUP2 SWAP1 SSTORE POP JUMP JUMPDEST PUSH1 0x0 DUP1 PUSH1 0x2 DUP2 GT ISZERO PUSH2 0x1AC2 JUMPI PUSH2 0x1AC1 PUSH2 0x2782 JUMP JUMPDEST JUMPDEST DUP3 PUSH1 0x2 DUP2 GT ISZERO PUSH2 0x1AD5 JUMPI PUSH2 0x1AD4 PUSH2 0x2782 JUMP JUMPDEST JUMPDEST SUB PUSH2 0x1AE3 JUMPI PUSH1 0x1E SWAP1 POP PUSH2 0x1B88 JUMP JUMPDEST PUSH1 0x1 PUSH1 0x2 DUP2 GT ISZERO PUSH2 0x1AF7 JUMPI PUSH2 0x1AF6 PUSH2 0x2782 JUMP JUMPDEST JUMPDEST DUP3 PUSH1 0x2 DUP2 GT ISZERO PUSH2 0x1B0A JUMPI PUSH2 0x1B09 PUSH2 0x2782 JUMP JUMPDEST JUMPDEST SUB PUSH2 0x1B18 JUMPI PUSH1 0xB4 SWAP1 POP PUSH2 0x1B88 JUMP JUMPDEST PUSH1 0x2 DUP1 DUP2 GT ISZERO PUSH2 0x1B2B JUMPI PUSH2 0x1B2A PUSH2 0x2782 JUMP JUMPDEST JUMPDEST DUP3 PUSH1 0x2 DUP2 GT ISZERO PUSH2 0x1B3E JUMPI PUSH2 0x1B3D PUSH2 0x2782 JUMP JUMPDEST JUMPDEST SUB PUSH2 0x1B4D JUMPI PUSH2 0x16D SWAP1 POP PUSH2 0x1B88 JUMP JUMPDEST PUSH1 0x40 MLOAD PUSH32 0x8C379A000000000000000000000000000000000000000000000000000000000 DUP2 MSTORE PUSH1 0x4 ADD PUSH2 0x1B7F SWAP1 PUSH2 0x3720 JUMP JUMPDEST PUSH1 0x40 MLOAD DUP1 SWAP2 SUB SWAP1 REVERT JUMPDEST SWAP2 SWAP1 POP JUMP JUMPDEST PUSH1 0x0 DUP3 CALLVALUE PUSH2 0x1B9B SWAP2 SWAP1 PUSH2 0x2FE0 JUMP JUMPDEST SWAP1 POP PUSH1 0x0 DUP2 GT ISZERO PUSH2 0x1BEE JUMPI DUP2 PUSH20 0xFFFFFFFFFFFFFFFFFFFFFFFFFFFFFFFFFFFFFFFF AND PUSH2 0x8FC DUP3 SWAP1 DUP2 ISZERO MUL SWAP1 PUSH1 0x40 MLOAD PUSH1 0x0 PUSH1 0x40 MLOAD DUP1 DUP4 SUB DUP2 DUP6 DUP9 DUP9 CALL SWAP4 POP POP POP POP ISZERO DUP1 ISZERO PUSH2 0x1BEC JUMPI RETURNDATASIZE PUSH1 0x0 DUP1 RETURNDATACOPY RETURNDATASIZE PUSH1 0x0 REVERT JUMPDEST POP JUMPDEST POP POP POP JUMP JUMPDEST PUSH1 0x1 PUSH1 0x0 DUP2 SWAP1 SSTORE POP JUMP JUMPDEST PUSH1 0x60 PUSH1 0x0 DUP1 PUSH1 0x0 SWAP1 POP PUSH1 0x0 PUSH1 0x1 SWAP1 POP JUMPDEST PUSH1 0x1 SLOAD DUP2 GT PUSH2 0x1C87 JUMPI PUSH1 0x1 PUSH1 0x4 DUP2 GT ISZERO PUSH2 0x1C2A JUMPI PUSH2 0x1C29 PUSH2 0x2782 JUMP JUMPDEST JUMPDEST PUSH1 0x2 PUSH1 0x0 DUP4 DUP2 MSTORE PUSH1 0x20 ADD SWAP1 DUP2 MSTORE PUSH1 0x20 ADD PUSH1 0x0 KECCAK256 PUSH1 0xA ADD PUSH1 0x0 SWAP1 SLOAD SWAP1 PUSH2 0x100 EXP SWAP1 DIV PUSH1 0xFF AND PUSH1 0x4 DUP2 GT ISZERO PUSH2 0x1C60 JUMPI PUSH2 0x1C5F PUSH2 0x2782 JUMP JUMPDEST JUMPDEST SUB PUSH2 0x1C74 JUMPI DUP2 DUP1 PUSH2 0x1C70 SWAP1 PUSH2 0x3043 JUMP JUMPDEST SWAP3 POP POP JUMPDEST DUP1 DUP1 PUSH2 0x1C7F SWAP1 PUSH2 0x3043 JUMP JUMPDEST SWAP2 POP POP PUSH2 0x1C0D JUMP JUMPDEST POP PUSH1 0x0 DUP2 PUSH8 0xFFFFFFFFFFFFFFFF DUP2 GT ISZERO PUSH2 0x1CA4 JUMPI PUSH2 0x1CA3 PUSH2 0x308B JUMP JUMPDEST JUMPDEST PUSH1 0x40 MLOAD SWAP1 DUP1 DUP3 MSTORE DUP1 PUSH1 0x20 MUL PUSH1 0x20 ADD DUP3 ADD PUSH1 0x40 MSTORE DUP1 ISZERO PUSH2 0x1CDD JUMPI DUP2 PUSH1 0x20 ADD JUMPDEST PUSH2 0x1CCA PUSH2 0x2445 JUMP JUMPDEST DUP2 MSTORE PUSH1 0x20 ADD SWAP1 PUSH1 0x1 SWAP1 SUB SWAP1 DUP2 PUSH2 0x1CC2 JUMPI SWAP1 POP JUMPDEST POP SWAP1 POP PUSH1 0x0 DUP1 PUSH1 0x1 SWAP1 POP JUMPDEST PUSH1 0x1 SLOAD DUP2 GT PUSH2 0x1F90 JUMPI PUSH1 0x1 PUSH1 0x4 DUP2 GT ISZERO PUSH2 0x1D05 JUMPI PUSH2 0x1D04 PUSH2 0x2782 JUMP JUMPDEST JUMPDEST PUSH1 0x2 PUSH1 0x0 DUP4 DUP2 MSTORE PUSH1 0x20 ADD SWAP1 DUP2 MSTORE PUSH1 0x20 ADD PUSH1 0x0 KECCAK256 PUSH1 0xA ADD PUSH1 0x0 SWAP1 SLOAD SWAP1 PUSH2 0x100 EXP SWAP1 DIV PUSH1 0xFF AND PUSH1 0x4 DUP2 GT ISZERO PUSH2 0x1D3B JUMPI PUSH2 0x1D3A PUSH2 0x2782 JUMP JUMPDEST JUMPDEST SUB PUSH2 0x1F7D JUMPI PUSH1 0x2 PUSH1 0x0 DUP3 DUP2 MSTORE PUSH1 0x20 ADD SWAP1 DUP2 MSTORE PUSH1 0x20 ADD PUSH1 0x0 KECCAK256 PUSH1 0x40 MLOAD DUP1 PUSH2 0x160 ADD PUSH1 0x40 MSTORE SWAP1 DUP2 PUSH1 0x0 DUP3 ADD SLOAD DUP2 MSTORE PUSH1 0x20 ADD PUSH1 0x1 DUP3 ADD PUSH1 0x40 MLOAD DUP1 PUSH1 0x60 ADD PUSH1 0x40 MSTORE SWAP1 DUP2 PUSH1 0x0 DUP3 ADD PUSH1 0x0 SWAP1 SLOAD SWAP1 PUSH2 0x100 EXP SWAP1 DIV PUSH20 0xFFFFFFFFFFFFFFFFFFFFFFFFFFFFFFFFFFFFFFFF AND PUSH20 0xFFFFFFFFFFFFFFFFFFFFFFFFFFFFFFFFFFFFFFFF AND PUSH20 0xFFFFFFFFFFFFFFFFFFFFFFFFFFFFFFFFFFFFFFFF AND DUP2 MSTORE PUSH1 0x20 ADD PUSH1 0x0 DUP3 ADD PUSH1 0x14 SWAP1 SLOAD SWAP1 PUSH2 0x100 EXP SWAP1 DIV PUSH1 0xFF AND PUSH1 0xFF AND PUSH1 0xFF AND DUP2 MSTORE PUSH1 0x20 ADD PUSH1 0x1 DUP3 ADD DUP1 SLOAD DUP1 PUSH1 0x20 MUL PUSH1 0x20 ADD PUSH1 0x40 MLOAD SWAP1 DUP2 ADD PUSH1 0x40 MSTORE DUP1 SWAP3 SWAP2 SWAP1 DUP2 DUP2 MSTORE PUSH1 0x20 ADD DUP3 DUP1 SLOAD DUP1 ISZERO PUSH2 0x1E3B JUMPI PUSH1 0x20 MUL DUP3 ADD SWAP2 SWAP1 PUSH1 0x0 MSTORE PUSH1 0x20 PUSH1 0x0 KECCAK256 SWAP1 JUMPDEST DUP2 SLOAD DUP2 MSTORE PUSH1 0x20 ADD SWAP1 PUSH1 0x1 ADD SWAP1 DUP1 DUP4 GT PUSH2 0x1E27 JUMPI JUMPDEST POP POP POP POP POP DUP2 MSTORE POP POP DUP2 MSTORE PUSH1 0x20 ADD PUSH1 0x3 DUP3 ADD PUSH1 0x0 SWAP1 SLOAD SWAP1 PUSH2 0x100 EXP SWAP1 DIV PUSH20 0xFFFFFFFFFFFFFFFFFFFFFFFFFFFFFFFFFFFFFFFF AND PUSH20 0xFFFFFFFFFFFFFFFFFFFFFFFFFFFFFFFFFFFFFFFF AND PUSH20 0xFFFFFFFFFFFFFFFFFFFFFFFFFFFFFFFFFFFFFFFF AND DUP2 MSTORE PUSH1 0x20 ADD PUSH1 0x4 DUP3 ADD SLOAD DUP2 MSTORE PUSH1 0x20 ADD PUSH1 0x5 DUP3 ADD SLOAD DUP2 MSTORE PUSH1 0x20 ADD PUSH1 0x6 DUP3 ADD SLOAD DUP2 MSTORE PUSH1 0x20 ADD PUSH1 0x7 DUP3 ADD SLOAD DUP2 MSTORE PUSH1 0x20 ADD PUSH1 0x8 DUP3 ADD SLOAD DUP2 MSTORE PUSH1 0x20 ADD PUSH1 0x9 DUP3 ADD SLOAD DUP2 MSTORE PUSH1 0x20 ADD PUSH1 0xA DUP3 ADD PUSH1 0x0 SWAP1 SLOAD SWAP1 PUSH2 0x100 EXP SWAP1 DIV PUSH1 0xFF AND PUSH1 0x4 DUP2 GT ISZERO PUSH2 0x1EFF JUMPI PUSH2 0x1EFE PUSH2 0x2782 JUMP JUMPDEST JUMPDEST PUSH1 0x4 DUP2 GT ISZERO PUSH2 0x1F11 JUMPI PUSH2 0x1F10 PUSH2 0x2782 JUMP JUMPDEST JUMPDEST DUP2 MSTORE PUSH1 0x20 ADD PUSH1 0xA DUP3 ADD PUSH1 0x1 SWAP1 SLOAD SWAP1 PUSH2 0x100 EXP SWAP1 DIV PUSH1 0xFF AND PUSH1 0x2 DUP2 GT ISZERO PUSH2 0x1F3A JUMPI PUSH2 0x1F39 PUSH2 0x2782 JUMP JUMPDEST JUMPDEST PUSH1 0x2 DUP2 GT ISZERO PUSH2 0x1F4C JUMPI PUSH2 0x1F4B PUSH2 0x2782 JUMP JUMPDEST JUMPDEST DUP2 MSTORE POP POP DUP4 DUP4 DUP2 MLOAD DUP2 LT PUSH2 0x1F63 JUMPI PUSH2 0x1F62 PUSH2 0x3014 JUMP JUMPDEST JUMPDEST PUSH1 0x20 MUL PUSH1 0x20 ADD ADD DUP2 SWAP1 MSTORE POP DUP2 DUP1 PUSH2 0x1F79 SWAP1 PUSH2 0x3043 JUMP JUMPDEST SWAP3 POP POP JUMPDEST DUP1 DUP1 PUSH2 0x1F88 SWAP1 PUSH2 0x3043 JUMP JUMPDEST SWAP2 POP POP PUSH2 0x1CE8 JUMP JUMPDEST POP DUP2 DUP4 SWAP5 POP SWAP5 POP POP POP POP SWAP1 SWAP2 JUMP JUMPDEST PUSH1 0x0 DUP1 PUSH1 0x4 DUP4 PUSH1 0xFF AND GT ISZERO PUSH2 0x1FE8 JUMPI PUSH1 0x40 MLOAD PUSH32 0x8C379A000000000000000000000000000000000000000000000000000000000 DUP2 MSTORE PUSH1 0x4 ADD PUSH2 0x1FDF SWAP1 PUSH2 0x378C JUMP JUMPDEST PUSH1 0x40 MLOAD DUP1 SWAP2 SUB SWAP1 REVERT JUMPDEST PUSH1 0x0 DUP1 PUSH1 0x0 DUP6 PUSH1 0xFF AND SUB PUSH2 0x2005 JUMPI PUSH2 0x7D0 SWAP2 POP PUSH2 0x1388 SWAP1 POP PUSH2 0x206D JUMP JUMPDEST PUSH1 0x1 DUP6 PUSH1 0xFF AND SUB PUSH2 0x201F JUMPI PUSH2 0x4B0 SWAP2 POP PUSH2 0xFA0 SWAP1 POP PUSH2 0x206C JUMP JUMPDEST PUSH1 0x2 DUP6 PUSH1 0xFF AND SUB PUSH2 0x2039 JUMPI PUSH2 0x3E8 SWAP2 POP PUSH2 0xDAC SWAP1 POP PUSH2 0x206B JUMP JUMPDEST PUSH1 0x3 DUP6 PUSH1 0xFF AND SUB PUSH2 0x2053 JUMPI PUSH2 0x320 SWAP2 POP PUSH2 0x9C4 SWAP1 POP PUSH2 0x206A JUMP JUMPDEST PUSH1 0x4 DUP6 PUSH1 0xFF AND LT PUSH2 0x2069 JUMPI PUSH2 0x258 SWAP2 POP PUSH2 0x5DC SWAP1 POP JUMPDEST JUMPDEST JUMPDEST JUMPDEST JUMPDEST DUP2 DUP2 SWAP4 POP SWAP4 POP POP POP SWAP2 POP SWAP2 JUMP JUMPDEST DUP1 PUSH1 0x2 PUSH1 0x0 DUP4 PUSH1 0x0 ADD MLOAD DUP2 MSTORE PUSH1 0x20 ADD SWAP1 DUP2 MSTORE PUSH1 0x20 ADD PUSH1 0x0 KECCAK256 PUSH1 0x0 DUP3 ADD MLOAD DUP2 PUSH1 0x0 ADD SSTORE PUSH1 0x20 DUP3 ADD MLOAD DUP2 PUSH1 0x1 ADD PUSH1 0x0 DUP3 ADD MLOAD DUP2 PUSH1 0x0 ADD PUSH1 0x0 PUSH2 0x100 EXP DUP2 SLOAD DUP2 PUSH20 0xFFFFFFFFFFFFFFFFFFFFFFFFFFFFFFFFFFFFFFFF MUL NOT AND SWAP1 DUP4 PUSH20 0xFFFFFFFFFFFFFFFFFFFFFFFFFFFFFFFFFFFFFFFF AND MUL OR SWAP1 SSTORE POP PUSH1 0x20 DUP3 ADD MLOAD DUP2 PUSH1 0x0 ADD PUSH1 0x14 PUSH2 0x100 EXP DUP2 SLOAD DUP2 PUSH1 0xFF MUL NOT AND SWAP1 DUP4 PUSH1 0xFF AND MUL OR SWAP1 SSTORE POP PUSH1 0x40 DUP3 ADD MLOAD DUP2 PUSH1 0x1 ADD SWAP1 DUP1 MLOAD SWAP1 PUSH1 0x20 ADD SWAP1 PUSH2 0x2129 SWAP3 SWAP2 SWAP1 PUSH2 0x24DF JUMP JUMPDEST POP POP POP PUSH1 0x40 DUP3 ADD MLOAD DUP2 PUSH1 0x3 ADD PUSH1 0x0 PUSH2 0x100 EXP DUP2 SLOAD DUP2 PUSH20 0xFFFFFFFFFFFFFFFFFFFFFFFFFFFFFFFFFFFFFFFF MUL NOT AND SWAP1 DUP4 PUSH20 0xFFFFFFFFFFFFFFFFFFFFFFFFFFFFFFFFFFFFFFFF AND MUL OR SWAP1 SSTORE POP PUSH1 0x60 DUP3 ADD MLOAD DUP2 PUSH1 0x4 ADD SSTORE PUSH1 0x80 DUP3 ADD MLOAD DUP2 PUSH1 0x5 ADD SSTORE PUSH1 0xA0 DUP3 ADD MLOAD DUP2 PUSH1 0x6 ADD SSTORE PUSH1 0xC0 DUP3 ADD MLOAD DUP2 PUSH1 0x7 ADD SSTORE PUSH1 0xE0 DUP3 ADD MLOAD DUP2 PUSH1 0x8 ADD SSTORE PUSH2 0x100 DUP3 ADD MLOAD DUP2 PUSH1 0x9 ADD SSTORE PUSH2 0x120 DUP3 ADD MLOAD DUP2 PUSH1 0xA ADD PUSH1 0x0 PUSH2 0x100 EXP DUP2 SLOAD DUP2 PUSH1 0xFF MUL NOT AND SWAP1 DUP4 PUSH1 0x4 DUP2 GT ISZERO PUSH2 0x21DC JUMPI PUSH2 0x21DB PUSH2 0x2782 JUMP JUMPDEST JUMPDEST MUL OR SWAP1 SSTORE POP PUSH2 0x140 DUP3 ADD MLOAD DUP2 PUSH1 0xA ADD PUSH1 0x1 PUSH2 0x100 EXP DUP2 SLOAD DUP2 PUSH1 0xFF MUL NOT AND SWAP1 DUP4 PUSH1 0x2 DUP2 GT ISZERO PUSH2 0x220D JUMPI PUSH2 0x220C PUSH2 0x2782 JUMP JUMPDEST JUMPDEST MUL OR SWAP1 SSTORE POP SWAP1 POP POP PUSH1 0x4 PUSH1 0x0 DUP3 PUSH1 0x20 ADD MLOAD PUSH1 0x0 ADD MLOAD PUSH20 0xFFFFFFFFFFFFFFFFFFFFFFFFFFFFFFFFFFFFFFFF AND PUSH20 0xFFFFFFFFFFFFFFFFFFFFFFFFFFFFFFFFFFFFFFFF AND DUP2 MSTORE PUSH1 0x20 ADD SWAP1 DUP2 MSTORE PUSH1 0x20 ADD PUSH1 0x0 KECCAK256 DUP2 PUSH1 0x0 ADD MLOAD SWAP1 DUP1 PUSH1 0x1 DUP2 SLOAD ADD DUP1 DUP3 SSTORE DUP1 SWAP2 POP POP PUSH1 0x1 SWAP1 SUB SWAP1 PUSH1 0x0 MSTORE PUSH1 0x20 PUSH1 0x0 KECCAK256 ADD PUSH1 0x0 SWAP1 SWAP2 SWAP1 SWAP2 SWAP1 SWAP2 POP SSTORE POP JUMP JUMPDEST PUSH1 0x0 DUP1 PUSH1 0x0 PUSH1 0x2 PUSH1 0x0 DUP6 DUP2 MSTORE PUSH1 0x20 ADD SWAP1 DUP2 MSTORE PUSH1 0x20 ADD PUSH1 0x0 KECCAK256 SWAP1 POP PUSH1 0x0 DUP1 PUSH2 0x22C1 DUP4 PUSH1 0xA ADD PUSH1 0x1 SWAP1 SLOAD SWAP1 PUSH2 0x100 EXP SWAP1 DIV PUSH1 0xFF AND PUSH2 0x1AAD JUMP JUMPDEST SWAP1 POP PUSH1 0x0 PUSH3 0x15180 PUSH3 0x1517F DUP6 PUSH1 0x8 ADD SLOAD TIMESTAMP PUSH2 0x22DD SWAP2 SWAP1 PUSH2 0x2FE0 JUMP JUMPDEST PUSH2 0x22E7 SWAP2 SWAP1 PUSH2 0x2F4B JUMP JUMPDEST PUSH2 0x22F1 SWAP2 SWAP1 PUSH2 0x37DB JUMP JUMPDEST SWAP1 POP PUSH1 0x0 DUP5 PUSH1 0x8 ADD SLOAD TIMESTAMP GT PUSH2 0x231E JUMPI PUSH2 0x2313 DUP6 PUSH1 0x5 ADD SLOAD DUP7 PUSH1 0x4 ADD SLOAD DUP6 PUSH2 0x2369 JUMP JUMPDEST SWAP4 POP PUSH1 0x0 SWAP1 POP PUSH2 0x2359 JUMP JUMPDEST DUP5 PUSH1 0x8 ADD SLOAD TIMESTAMP GT ISZERO PUSH2 0x2358 JUMPI PUSH1 0x0 PUSH2 0x233F DUP7 PUSH1 0x5 ADD SLOAD DUP8 PUSH1 0x4 ADD SLOAD DUP7 PUSH2 0x2369 JUMP JUMPDEST SWAP1 POP PUSH2 0x2350 DUP7 PUSH1 0x6 ADD SLOAD DUP3 DUP6 PUSH2 0x23D7 JUMP JUMPDEST SWAP5 POP PUSH1 0x1 SWAP2 POP POP JUMPDEST JUMPDEST DUP4 DUP2 SWAP7 POP SWAP7 POP POP POP POP POP POP SWAP2 POP SWAP2 JUMP JUMPDEST PUSH1 0x0 DUP1 PUSH2 0x16D PUSH1 0x64 DUP7 PUSH2 0x237C SWAP2 SWAP1 PUSH2 0x37DB JUMP JUMPDEST PUSH2 0x2386 SWAP2 SWAP1 PUSH2 0x37DB JUMP JUMPDEST SWAP1 POP PUSH1 0x0 JUMPDEST DUP4 DUP2 LT ISZERO PUSH2 0x23CB JUMPI PUSH1 0x64 DUP3 PUSH2 0x23A0 SWAP2 SWAP1 PUSH2 0x37DB JUMP JUMPDEST DUP6 PUSH2 0x23AB SWAP2 SWAP1 PUSH2 0x2F09 JUMP JUMPDEST DUP6 PUSH2 0x23B6 SWAP2 SWAP1 PUSH2 0x2F4B JUMP JUMPDEST SWAP5 POP DUP1 DUP1 PUSH2 0x23C3 SWAP1 PUSH2 0x3043 JUMP JUMPDEST SWAP2 POP POP PUSH2 0x238B JUMP JUMPDEST POP DUP4 SWAP2 POP POP SWAP4 SWAP3 POP POP POP JUMP JUMPDEST PUSH1 0x0 DUP1 PUSH2 0x16D PUSH1 0x64 DUP7 PUSH2 0x23EA SWAP2 SWAP1 PUSH2 0x37DB JUMP JUMPDEST PUSH2 0x23F4 SWAP2 SWAP1 PUSH2 0x37DB JUMP JUMPDEST SWAP1 POP PUSH1 0x0 JUMPDEST DUP4 DUP2 LT ISZERO PUSH2 0x2439 JUMPI PUSH1 0x64 DUP3 PUSH2 0x240E SWAP2 SWAP1 PUSH2 0x37DB JUMP JUMPDEST DUP6 PUSH2 0x2419 SWAP2 SWAP1 PUSH2 0x2F09 JUMP JUMPDEST DUP6 PUSH2 0x2424 SWAP2 SWAP1 PUSH2 0x2F4B JUMP JUMPDEST SWAP5 POP DUP1 DUP1 PUSH2 0x2431 SWAP1 PUSH2 0x3043 JUMP JUMPDEST SWAP2 POP POP PUSH2 0x23F9 JUMP JUMPDEST POP DUP4 SWAP2 POP POP SWAP4 SWAP3 POP POP POP JUMP JUMPDEST PUSH1 0x40 MLOAD DUP1 PUSH2 0x160 ADD PUSH1 0x40 MSTORE DUP1 PUSH1 0x0 DUP2 MSTORE PUSH1 0x20 ADD PUSH2 0x2460 PUSH2 0x252C JUMP JUMPDEST DUP2 MSTORE PUSH1 0x20 ADD PUSH1 0x0 PUSH20 0xFFFFFFFFFFFFFFFFFFFFFFFFFFFFFFFFFFFFFFFF AND DUP2 MSTORE PUSH1 0x20 ADD PUSH1 0x0 DUP2 MSTORE PUSH1 0x20 ADD PUSH1 0x0 DUP2 MSTORE PUSH1 0x20 ADD PUSH1 0x0 DUP2 MSTORE PUSH1 0x20 ADD PUSH1 0x0 DUP2 MSTORE PUSH1 0x20 ADD PUSH1 0x0 DUP2 MSTORE PUSH1 0x20 ADD PUSH1 0x0 DUP2 MSTORE PUSH1 0x20 ADD PUSH1 0x0 PUSH1 0x4 DUP2 GT ISZERO PUSH2 0x24C0 JUMPI PUSH2 0x24BF PUSH2 0x2782 JUMP JUMPDEST JUMPDEST DUP2 MSTORE PUSH1 0x20 ADD PUSH1 0x0 PUSH1 0x2 DUP2 GT ISZERO PUSH2 0x24D9 JUMPI PUSH2 0x24D8 PUSH2 0x2782 JUMP JUMPDEST JUMPDEST DUP2 MSTORE POP SWAP1 JUMP JUMPDEST DUP3 DUP1 SLOAD DUP3 DUP3 SSTORE SWAP1 PUSH1 0x0 MSTORE PUSH1 0x20 PUSH1 0x0 KECCAK256 SWAP1 DUP2 ADD SWAP3 DUP3 ISZERO PUSH2 0x251B JUMPI SWAP2 PUSH1 0x20 MUL DUP3 ADD JUMPDEST DUP3 DUP2 GT ISZERO PUSH2 0x251A JUMPI DUP3 MLOAD DUP3 SSTORE SWAP2 PUSH1 0x20 ADD SWAP2 SWAP1 PUSH1 0x1 ADD SWAP1 PUSH2 0x24FF JUMP JUMPDEST JUMPDEST POP SWAP1 POP PUSH2 0x2528 SWAP2 SWAP1 PUSH2 0x2566 JUMP JUMPDEST POP SWAP1 JUMP JUMPDEST PUSH1 0x40 MLOAD DUP1 PUSH1 0x60 ADD PUSH1 0x40 MSTORE DUP1 PUSH1 0x0 PUSH20 0xFFFFFFFFFFFFFFFFFFFFFFFFFFFFFFFFFFFFFFFF AND DUP2 MSTORE PUSH1 0x20 ADD PUSH1 0x0 PUSH1 0xFF AND DUP2 MSTORE PUSH1 0x20 ADD PUSH1 0x60 DUP2 MSTORE POP SWAP1 JUMP JUMPDEST JUMPDEST DUP1 DUP3 GT ISZERO PUSH2 0x257F JUMPI PUSH1 0x0 DUP2 PUSH1 0x0 SWAP1 SSTORE POP PUSH1 0x1 ADD PUSH2 0x2567 JUMP JUMPDEST POP SWAP1 JUMP JUMPDEST PUSH1 0x0 DUP1 REVERT JUMPDEST PUSH1 0x0 DUP2 SWAP1 POP SWAP2 SWAP1 POP JUMP JUMPDEST PUSH2 0x259B DUP2 PUSH2 0x2588 JUMP JUMPDEST DUP2 EQ PUSH2 0x25A6 JUMPI PUSH1 0x0 DUP1 REVERT JUMPDEST POP JUMP JUMPDEST PUSH1 0x0 DUP2 CALLDATALOAD SWAP1 POP PUSH2 0x25B8 DUP2 PUSH2 0x2592 JUMP JUMPDEST SWAP3 SWAP2 POP POP JUMP JUMPDEST PUSH1 0x0 PUSH1 0x20 DUP3 DUP5 SUB SLT ISZERO PUSH2 0x25D4 JUMPI PUSH2 0x25D3 PUSH2 0x2583 JUMP JUMPDEST JUMPDEST PUSH1 0x0 PUSH2 0x25E2 DUP5 DUP3 DUP6 ADD PUSH2 0x25A9 JUMP JUMPDEST SWAP2 POP POP SWAP3 SWAP2 POP POP JUMP JUMPDEST PUSH1 0x0 DUP2 MLOAD SWAP1 POP SWAP2 SWAP1 POP JUMP JUMPDEST PUSH1 0x0 DUP3 DUP3 MSTORE PUSH1 0x20 DUP3 ADD SWAP1 POP SWAP3 SWAP2 POP POP JUMP JUMPDEST PUSH1 0x0 DUP2 SWAP1 POP PUSH1 0x20 DUP3 ADD SWAP1 POP SWAP2 SWAP1 POP JUMP JUMPDEST PUSH2 0x2620 DUP2 PUSH2 0x2588 JUMP JUMPDEST DUP3 MSTORE POP POP JUMP JUMPDEST PUSH1 0x0 PUSH20 0xFFFFFFFFFFFFFFFFFFFFFFFFFFFFFFFFFFFFFFFF DUP3 AND SWAP1 POP SWAP2 SWAP1 POP JUMP JUMPDEST PUSH1 0x0 PUSH2 0x2651 DUP3 PUSH2 0x2626 JUMP JUMPDEST SWAP1 POP SWAP2 SWAP1 POP JUMP JUMPDEST PUSH2 0x2661 DUP2 PUSH2 0x2646 JUMP JUMPDEST DUP3 MSTORE POP POP JUMP JUMPDEST PUSH1 0x0 PUSH1 0xFF DUP3 AND SWAP1 POP SWAP2 SWAP1 POP JUMP JUMPDEST PUSH2 0x267D DUP2 PUSH2 0x2667 JUMP JUMPDEST DUP3 MSTORE POP POP JUMP JUMPDEST PUSH1 0x0 DUP2 MLOAD SWAP1 POP SWAP2 SWAP1 POP JUMP JUMPDEST PUSH1 0x0 DUP3 DUP3 MSTORE PUSH1 0x20 DUP3 ADD SWAP1 POP SWAP3 SWAP2 POP POP JUMP JUMPDEST PUSH1 0x0 DUP2 SWAP1 POP PUSH1 0x20 DUP3 ADD SWAP1 POP SWAP2 SWAP1 POP JUMP JUMPDEST PUSH1 0x0 PUSH2 0x26BB DUP4 DUP4 PUSH2 0x2617 JUMP JUMPDEST PUSH1 0x20 DUP4 ADD SWAP1 POP SWAP3 SWAP2 POP POP JUMP JUMPDEST PUSH1 0x0 PUSH1 0x20 DUP3 ADD SWAP1 POP SWAP2 SWAP1 POP JUMP JUMPDEST PUSH1 0x0 PUSH2 0x26DF DUP3 PUSH2 0x2683 JUMP JUMPDEST PUSH2 0x26E9 DUP2 DUP6 PUSH2 0x268E JUMP JUMPDEST SWAP4 POP PUSH2 0x26F4 DUP4 PUSH2 0x269F JUMP JUMPDEST DUP1 PUSH1 0x0 JUMPDEST DUP4 DUP2 LT ISZERO PUSH2 0x2725 JUMPI DUP2 MLOAD PUSH2 0x270C DUP9 DUP3 PUSH2 0x26AF JUMP JUMPDEST SWAP8 POP PUSH2 0x2717 DUP4 PUSH2 0x26C7 JUMP JUMPDEST SWAP3 POP POP PUSH1 0x1 DUP2 ADD SWAP1 POP PUSH2 0x26F8 JUMP JUMPDEST POP DUP6 SWAP4 POP POP POP POP SWAP3 SWAP2 POP POP JUMP JUMPDEST PUSH1 0x0 PUSH1 0x60 DUP4 ADD PUSH1 0x0 DUP4 ADD MLOAD PUSH2 0x274A PUSH1 0x0 DUP7 ADD DUP3 PUSH2 0x2658 JUMP JUMPDEST POP PUSH1 0x20 DUP4 ADD MLOAD PUSH2 0x275D PUSH1 0x20 DUP7 ADD DUP3 PUSH2 0x2674 JUMP JUMPDEST POP PUSH1 0x40 DUP4 ADD MLOAD DUP5 DUP3 SUB PUSH1 0x40 DUP7 ADD MSTORE PUSH2 0x2775 DUP3 DUP3 PUSH2 0x26D4 JUMP JUMPDEST SWAP2 POP POP DUP1 SWAP2 POP POP SWAP3 SWAP2 POP POP JUMP JUMPDEST PUSH32 0x4E487B7100000000000000000000000000000000000000000000000000000000 PUSH1 0x0 MSTORE PUSH1 0x21 PUSH1 0x4 MSTORE PUSH1 0x24 PUSH1 0x0 REVERT JUMPDEST PUSH1 0x5 DUP2 LT PUSH2 0x27C2 JUMPI PUSH2 0x27C1 PUSH2 0x2782 JUMP JUMPDEST JUMPDEST POP JUMP JUMPDEST PUSH1 0x0 DUP2 SWAP1 POP PUSH2 0x27D3 DUP3 PUSH2 0x27B1 JUMP JUMPDEST SWAP2 SWAP1 POP JUMP JUMPDEST PUSH1 0x0 PUSH2 0x27E3 DUP3 PUSH2 0x27C5 JUMP JUMPDEST SWAP1 POP SWAP2 SWAP1 POP JUMP JUMPDEST PUSH2 0x27F3 DUP2 PUSH2 0x27D8 JUMP JUMPDEST DUP3 MSTORE POP POP JUMP JUMPDEST PUSH1 0x3 DUP2 LT PUSH2 0x280A JUMPI PUSH2 0x2809 PUSH2 0x2782 JUMP JUMPDEST JUMPDEST POP JUMP JUMPDEST PUSH1 0x0 DUP2 SWAP1 POP PUSH2 0x281B DUP3 PUSH2 0x27F9 JUMP JUMPDEST SWAP2 SWAP1 POP JUMP JUMPDEST PUSH1 0x0 PUSH2 0x282B DUP3 PUSH2 0x280D JUMP JUMPDEST SWAP1 POP SWAP2 SWAP1 POP JUMP JUMPDEST PUSH2 0x283B DUP2 PUSH2 0x2820 JUMP JUMPDEST DUP3 MSTORE POP POP JUMP JUMPDEST PUSH1 0x0 PUSH2 0x160 DUP4 ADD PUSH1 0x0 DUP4 ADD MLOAD PUSH2 0x285A PUSH1 0x0 DUP7 ADD DUP3 PUSH2 0x2617 JUMP JUMPDEST POP PUSH1 0x20 DUP4 ADD MLOAD DUP5 DUP3 SUB PUSH1 0x20 DUP7 ADD MSTORE PUSH2 0x2872 DUP3 DUP3 PUSH2 0x2732 JUMP JUMPDEST SWAP2 POP POP PUSH1 0x40 DUP4 ADD MLOAD PUSH2 0x2887 PUSH1 0x40 DUP7 ADD DUP3 PUSH2 0x2658 JUMP JUMPDEST POP PUSH1 0x60 DUP4 ADD MLOAD PUSH2 0x289A PUSH1 0x60 DUP7 ADD DUP3 PUSH2 0x2617 JUMP JUMPDEST POP PUSH1 0x80 DUP4 ADD MLOAD PUSH2 0x28AD PUSH1 0x80 DUP7 ADD DUP3 PUSH2 0x2617 JUMP JUMPDEST POP PUSH1 0xA0 DUP4 ADD MLOAD PUSH2 0x28C0 PUSH1 0xA0 DUP7 ADD DUP3 PUSH2 0x2617 JUMP JUMPDEST POP PUSH1 0xC0 DUP4 ADD MLOAD PUSH2 0x28D3 PUSH1 0xC0 DUP7 ADD DUP3 PUSH2 0x2617 JUMP JUMPDEST POP PUSH1 0xE0 DUP4 ADD MLOAD PUSH2 0x28E6 PUSH1 0xE0 DUP7 ADD DUP3 PUSH2 0x2617 JUMP JUMPDEST POP PUSH2 0x100 DUP4 ADD MLOAD PUSH2 0x28FB PUSH2 0x100 DUP7 ADD DUP3 PUSH2 0x2617 JUMP JUMPDEST POP PUSH2 0x120 DUP4 ADD MLOAD PUSH2 0x2910 PUSH2 0x120 DUP7 ADD DUP3 PUSH2 0x27EA JUMP JUMPDEST POP PUSH2 0x140 DUP4 ADD MLOAD PUSH2 0x2925 PUSH2 0x140 DUP7 ADD DUP3 PUSH2 0x2832 JUMP JUMPDEST POP DUP1 SWAP2 POP POP SWAP3 SWAP2 POP POP JUMP JUMPDEST PUSH1 0x0 PUSH2 0x293C DUP4 DUP4 PUSH2 0x2841 JUMP JUMPDEST SWAP1 POP SWAP3 SWAP2 POP POP JUMP JUMPDEST PUSH1 0x0 PUSH1 0x20 DUP3 ADD SWAP1 POP SWAP2 SWAP1 POP JUMP JUMPDEST PUSH1 0x0 PUSH2 0x295C DUP3 PUSH2 0x25EB JUMP JUMPDEST PUSH2 0x2966 DUP2 DUP6 PUSH2 0x25F6 JUMP JUMPDEST SWAP4 POP DUP4 PUSH1 0x20 DUP3 MUL DUP6 ADD PUSH2 0x2978 DUP6 PUSH2 0x2607 JUMP JUMPDEST DUP1 PUSH1 0x0 JUMPDEST DUP6 DUP2 LT ISZERO PUSH2 0x29B4 JUMPI DUP5 DUP5 SUB DUP10 MSTORE DUP2 MLOAD PUSH2 0x2995 DUP6 DUP3 PUSH2 0x2930 JUMP JUMPDEST SWAP5 POP PUSH2 0x29A0 DUP4 PUSH2 0x2944 JUMP JUMPDEST SWAP3 POP PUSH1 0x20 DUP11 ADD SWAP10 POP POP PUSH1 0x1 DUP2 ADD SWAP1 POP PUSH2 0x297C JUMP JUMPDEST POP DUP3 SWAP8 POP DUP8 SWAP6 POP POP POP POP POP POP SWAP3 SWAP2 POP POP JUMP JUMPDEST PUSH1 0x0 PUSH1 0x20 DUP3 ADD SWAP1 POP DUP2 DUP2 SUB PUSH1 0x0 DUP4 ADD MSTORE PUSH2 0x29E0 DUP2 DUP5 PUSH2 0x2951 JUMP JUMPDEST SWAP1 POP SWAP3 SWAP2 POP POP JUMP JUMPDEST PUSH1 0x3 DUP2 LT PUSH2 0x29F5 JUMPI PUSH1 0x0 DUP1 REVERT JUMPDEST POP JUMP JUMPDEST PUSH1 0x0 DUP2 CALLDATALOAD SWAP1 POP PUSH2 0x2A07 DUP2 PUSH2 0x29E8 JUMP JUMPDEST SWAP3 SWAP2 POP POP JUMP JUMPDEST PUSH1 0x0 PUSH1 0x20 DUP3 DUP5 SUB SLT ISZERO PUSH2 0x2A23 JUMPI PUSH2 0x2A22 PUSH2 0x2583 JUMP JUMPDEST JUMPDEST PUSH1 0x0 PUSH2 0x2A31 DUP5 DUP3 DUP6 ADD PUSH2 0x29F8 JUMP JUMPDEST SWAP2 POP POP SWAP3 SWAP2 POP POP JUMP JUMPDEST PUSH1 0x0 DUP1 PUSH1 0x40 DUP4 DUP6 SUB SLT ISZERO PUSH2 0x2A51 JUMPI PUSH2 0x2A50 PUSH2 0x2583 JUMP JUMPDEST JUMPDEST PUSH1 0x0 PUSH2 0x2A5F DUP6 DUP3 DUP7 ADD PUSH2 0x25A9 JUMP JUMPDEST SWAP3 POP POP PUSH1 0x20 PUSH2 0x2A70 DUP6 DUP3 DUP7 ADD PUSH2 0x29F8 JUMP JUMPDEST SWAP2 POP POP SWAP3 POP SWAP3 SWAP1 POP JUMP JUMPDEST PUSH2 0x2A83 DUP2 PUSH2 0x2646 JUMP JUMPDEST DUP2 EQ PUSH2 0x2A8E JUMPI PUSH1 0x0 DUP1 REVERT JUMPDEST POP JUMP JUMPDEST PUSH1 0x0 DUP2 CALLDATALOAD SWAP1 POP PUSH2 0x2AA0 DUP2 PUSH2 0x2A7A JUMP JUMPDEST SWAP3 SWAP2 POP POP JUMP JUMPDEST PUSH1 0x0 PUSH1 0x20 DUP3 DUP5 SUB SLT ISZERO PUSH2 0x2ABC JUMPI PUSH2 0x2ABB PUSH2 0x2583 JUMP JUMPDEST JUMPDEST PUSH1 0x0 PUSH2 0x2ACA DUP5 DUP3 DUP6 ADD PUSH2 0x2A91 JUMP JUMPDEST SWAP2 POP POP SWAP3 SWAP2 POP POP JUMP JUMPDEST PUSH2 0x2ADC DUP2 PUSH2 0x2646 JUMP JUMPDEST DUP3 MSTORE POP POP JUMP JUMPDEST PUSH2 0x2AEB DUP2 PUSH2 0x2667 JUMP JUMPDEST DUP3 MSTORE POP POP JUMP JUMPDEST PUSH1 0x0 PUSH1 0x40 DUP3 ADD SWAP1 POP PUSH2 0x2B06 PUSH1 0x0 DUP4 ADD DUP6 PUSH2 0x2AD3 JUMP JUMPDEST PUSH2 0x2B13 PUSH1 0x20 DUP4 ADD DUP5 PUSH2 0x2AE2 JUMP JUMPDEST SWAP4 SWAP3 POP POP POP JUMP JUMPDEST PUSH2 0x2B23 DUP2 PUSH2 0x2588 JUMP JUMPDEST DUP3 MSTORE POP POP JUMP JUMPDEST PUSH2 0x2B32 DUP2 PUSH2 0x27D8 JUMP JUMPDEST DUP3 MSTORE POP POP JUMP JUMPDEST PUSH1 0x0 PUSH1 0x40 DUP3 ADD SWAP1 POP PUSH2 0x2B4D PUSH1 0x0 DUP4 ADD DUP6 PUSH2 0x2B1A JUMP JUMPDEST PUSH2 0x2B5A PUSH1 0x20 DUP4 ADD DUP5 PUSH2 0x2B29 JUMP JUMPDEST SWAP4 SWAP3 POP POP POP JUMP JUMPDEST PUSH1 0x0 PUSH1 0x60 DUP4 ADD PUSH1 0x0 DUP4 ADD MLOAD PUSH2 0x2B79 PUSH1 0x0 DUP7 ADD DUP3 PUSH2 0x2658 JUMP JUMPDEST POP PUSH1 0x20 DUP4 ADD MLOAD PUSH2 0x2B8C PUSH1 0x20 DUP7 ADD DUP3 PUSH2 0x2674 JUMP JUMPDEST POP PUSH1 0x40 DUP4 ADD MLOAD DUP5 DUP3 SUB PUSH1 0x40 DUP7 ADD MSTORE PUSH2 0x2BA4 DUP3 DUP3 PUSH2 0x26D4 JUMP JUMPDEST SWAP2 POP POP DUP1 SWAP2 POP POP SWAP3 SWAP2 POP POP JUMP JUMPDEST PUSH2 0x2BBA DUP2 PUSH2 0x2820 JUMP JUMPDEST DUP3 MSTORE POP POP JUMP JUMPDEST PUSH1 0x0 PUSH2 0x160 DUP3 ADD SWAP1 POP PUSH2 0x2BD6 PUSH1 0x0 DUP4 ADD DUP15 PUSH2 0x2B1A JUMP JUMPDEST DUP2 DUP2 SUB PUSH1 0x20 DUP4 ADD MSTORE PUSH2 0x2BE8 DUP2 DUP14 PUSH2 0x2B61 JUMP JUMPDEST SWAP1 POP PUSH2 0x2BF7 PUSH1 0x40 DUP4 ADD DUP13 PUSH2 0x2AD3 JUMP JUMPDEST PUSH2 0x2C04 PUSH1 0x60 DUP4 ADD DUP12 PUSH2 0x2B1A JUMP JUMPDEST PUSH2 0x2C11 PUSH1 0x80 DUP4 ADD DUP11 PUSH2 0x2B1A JUMP JUMPDEST PUSH2 0x2C1E PUSH1 0xA0 DUP4 ADD DUP10 PUSH2 0x2B1A JUMP JUMPDEST PUSH2 0x2C2B PUSH1 0xC0 DUP4 ADD DUP9 PUSH2 0x2B1A JUMP JUMPDEST PUSH2 0x2C38 PUSH1 0xE0 DUP4 ADD DUP8 PUSH2 0x2B1A JUMP JUMPDEST PUSH2 0x2C46 PUSH2 0x100 DUP4 ADD DUP7 PUSH2 0x2B1A JUMP JUMPDEST PUSH2 0x2C54 PUSH2 0x120 DUP4 ADD DUP6 PUSH2 0x2B29 JUMP JUMPDEST PUSH2 0x2C62 PUSH2 0x140 DUP4 ADD DUP5 PUSH2 0x2BB1 JUMP JUMPDEST SWAP13 SWAP12 POP POP POP POP POP POP POP POP POP POP POP POP JUMP JUMPDEST PUSH1 0x0 DUP1 PUSH1 0x40 DUP4 DUP6 SUB SLT ISZERO PUSH2 0x2C89 JUMPI PUSH2 0x2C88 PUSH2 0x2583 JUMP JUMPDEST JUMPDEST PUSH1 0x0 PUSH2 0x2C97 DUP6 DUP3 DUP7 ADD PUSH2 0x2A91 JUMP JUMPDEST SWAP3 POP POP PUSH1 0x20 PUSH2 0x2CA8 DUP6 DUP3 DUP7 ADD PUSH2 0x25A9 JUMP JUMPDEST SWAP2 POP POP SWAP3 POP SWAP3 SWAP1 POP JUMP JUMPDEST PUSH1 0x0 PUSH1 0x20 DUP3 ADD SWAP1 POP PUSH2 0x2CC7 PUSH1 0x0 DUP4 ADD DUP5 PUSH2 0x2B1A JUMP JUMPDEST SWAP3 SWAP2 POP POP JUMP JUMPDEST PUSH1 0x0 DUP3 DUP3 MSTORE PUSH1 0x20 DUP3 ADD SWAP1 POP SWAP3 SWAP2 POP POP JUMP JUMPDEST PUSH32 0x4C6F616E206E6F7420666F756E64000000000000000000000000000000000000 PUSH1 0x0 DUP3 ADD MSTORE POP JUMP JUMPDEST PUSH1 0x0 PUSH2 0x2D14 PUSH1 0xE DUP4 PUSH2 0x2CCD JUMP JUMPDEST SWAP2 POP PUSH2 0x2D1F DUP3 PUSH2 0x2CDE JUMP JUMPDEST PUSH1 0x20 DUP3 ADD SWAP1 POP SWAP2 SWAP1 POP JUMP JUMPDEST PUSH1 0x0 PUSH1 0x20 DUP3 ADD SWAP1 POP DUP2 DUP2 SUB PUSH1 0x0 DUP4 ADD MSTORE PUSH2 0x2D43 DUP2 PUSH2 0x2D07 JUMP JUMPDEST SWAP1 POP SWAP2 SWAP1 POP JUMP JUMPDEST PUSH32 0x54686973206C6F616E20646F65736E2774206E6565642066756E64696E670000 PUSH1 0x0 DUP3 ADD MSTORE POP JUMP JUMPDEST PUSH1 0x0 PUSH2 0x2D80 PUSH1 0x1E DUP4 PUSH2 0x2CCD JUMP JUMPDEST SWAP2 POP PUSH2 0x2D8B DUP3 PUSH2 0x2D4A JUMP JUMPDEST PUSH1 0x20 DUP3 ADD SWAP1 POP SWAP2 SWAP1 POP JUMP JUMPDEST PUSH1 0x0 PUSH1 0x20 DUP3 ADD SWAP1 POP DUP2 DUP2 SUB PUSH1 0x0 DUP4 ADD MSTORE PUSH2 0x2DAF DUP2 PUSH2 0x2D73 JUMP JUMPDEST SWAP1 POP SWAP2 SWAP1 POP JUMP JUMPDEST PUSH32 0x54686520616D6F756E742073656E7420646F6573206E6F74206D617463682074 PUSH1 0x0 DUP3 ADD MSTORE PUSH32 0x686520726571756573746564206C6F616E20616D6F756E740000000000000000 PUSH1 0x20 DUP3 ADD MSTORE POP JUMP JUMPDEST PUSH1 0x0 PUSH2 0x2E12 PUSH1 0x38 DUP4 PUSH2 0x2CCD JUMP JUMPDEST SWAP2 POP PUSH2 0x2E1D DUP3 PUSH2 0x2DB6 JUMP JUMPDEST PUSH1 0x40 DUP3 ADD SWAP1 POP SWAP2 SWAP1 POP JUMP JUMPDEST PUSH1 0x0 PUSH1 0x20 DUP3 ADD SWAP1 POP DUP2 DUP2 SUB PUSH1 0x0 DUP4 ADD MSTORE PUSH2 0x2E41 DUP2 PUSH2 0x2E05 JUMP JUMPDEST SWAP1 POP SWAP2 SWAP1 POP JUMP JUMPDEST PUSH32 0x4C656E64657220616E6420626F72726F7765722063616E6E6F74206265207468 PUSH1 0x0 DUP3 ADD MSTORE PUSH32 0x652073616D650000000000000000000000000000000000000000000000000000 PUSH1 0x20 DUP3 ADD MSTORE POP JUMP JUMPDEST PUSH1 0x0 PUSH2 0x2EA4 PUSH1 0x26 DUP4 PUSH2 0x2CCD JUMP JUMPDEST SWAP2 POP PUSH2 0x2EAF DUP3 PUSH2 0x2E48 JUMP JUMPDEST PUSH1 0x40 DUP3 ADD SWAP1 POP SWAP2 SWAP1 POP JUMP JUMPDEST PUSH1 0x0 PUSH1 0x20 DUP3 ADD SWAP1 POP DUP2 DUP2 SUB PUSH1 0x0 DUP4 ADD MSTORE PUSH2 0x2ED3 DUP2 PUSH2 0x2E97 JUMP JUMPDEST SWAP1 POP SWAP2 SWAP1 POP JUMP JUMPDEST PUSH32 0x4E487B7100000000000000000000000000000000000000000000000000000000 PUSH1 0x0 MSTORE PUSH1 0x11 PUSH1 0x4 MSTORE PUSH1 0x24 PUSH1 0x0 REVERT JUMPDEST PUSH1 0x0 PUSH2 0x2F14 DUP3 PUSH2 0x2588 JUMP JUMPDEST SWAP2 POP PUSH2 0x2F1F DUP4 PUSH2 0x2588 JUMP JUMPDEST SWAP3 POP DUP3 DUP3 MUL PUSH2 0x2F2D DUP2 PUSH2 0x2588 JUMP JUMPDEST SWAP2 POP DUP3 DUP3 DIV DUP5 EQ DUP4 ISZERO OR PUSH2 0x2F44 JUMPI PUSH2 0x2F43 PUSH2 0x2EDA JUMP JUMPDEST JUMPDEST POP SWAP3 SWAP2 POP POP JUMP JUMPDEST PUSH1 0x0 PUSH2 0x2F56 DUP3 PUSH2 0x2588 JUMP JUMPDEST SWAP2 POP PUSH2 0x2F61 DUP4 PUSH2 0x2588 JUMP JUMPDEST SWAP3 POP DUP3 DUP3 ADD SWAP1 POP DUP1 DUP3 GT ISZERO PUSH2 0x2F79 JUMPI PUSH2 0x2F78 PUSH2 0x2EDA JUMP JUMPDEST JUMPDEST SWAP3 SWAP2 POP POP JUMP JUMPDEST PUSH1 0x0 PUSH1 0xC0 DUP3 ADD SWAP1 POP PUSH2 0x2F94 PUSH1 0x0 DUP4 ADD DUP10 PUSH2 0x2B1A JUMP JUMPDEST PUSH2 0x2FA1 PUSH1 0x20 DUP4 ADD DUP9 PUSH2 0x2AD3 JUMP JUMPDEST PUSH2 0x2FAE PUSH1 0x40 DUP4 ADD DUP8 PUSH2 0x2AD3 JUMP JUMPDEST PUSH2 0x2FBB PUSH1 0x60 DUP4 ADD DUP7 PUSH2 0x2B1A JUMP JUMPDEST PUSH2 0x2FC8 PUSH1 0x80 DUP4 ADD DUP6 PUSH2 0x2B1A JUMP JUMPDEST PUSH2 0x2FD5 PUSH1 0xA0 DUP4 ADD DUP5 PUSH2 0x2B1A JUMP JUMPDEST SWAP8 SWAP7 POP POP POP POP POP POP POP JUMP JUMPDEST PUSH1 0x0 PUSH2 0x2FEB DUP3 PUSH2 0x2588 JUMP JUMPDEST SWAP2 POP PUSH2 0x2FF6 DUP4 PUSH2 0x2588 JUMP JUMPDEST SWAP3 POP DUP3 DUP3 SUB SWAP1 POP DUP2 DUP2 GT ISZERO PUSH2 0x300E JUMPI PUSH2 0x300D PUSH2 0x2EDA JUMP JUMPDEST JUMPDEST SWAP3 SWAP2 POP POP JUMP JUMPDEST PUSH32 0x4E487B7100000000000000000000000000000000000000000000000000000000 PUSH1 0x0 MSTORE PUSH1 0x32 PUSH1 0x4 MSTORE PUSH1 0x24 PUSH1 0x0 REVERT JUMPDEST PUSH1 0x0 PUSH2 0x304E DUP3 PUSH2 0x2588 JUMP JUMPDEST SWAP2 POP PUSH32 0xFFFFFFFFFFFFFFFFFFFFFFFFFFFFFFFFFFFFFFFFFFFFFFFFFFFFFFFFFFFFFFFF DUP3 SUB PUSH2 0x3080 JUMPI PUSH2 0x307F PUSH2 0x2EDA JUMP JUMPDEST JUMPDEST PUSH1 0x1 DUP3 ADD SWAP1 POP SWAP2 SWAP1 POP JUMP JUMPDEST PUSH32 0x4E487B7100000000000000000000000000000000000000000000000000000000 PUSH1 0x0 MSTORE PUSH1 0x41 PUSH1 0x4 MSTORE PUSH1 0x24 PUSH1 0x0 REVERT JUMPDEST PUSH32 0x546865206C6F616E20616D6F756E74206D757374206265206772656174657220 PUSH1 0x0 DUP3 ADD MSTORE PUSH32 0x7468616E207A65726F0000000000000000000000000000000000000000000000 PUSH1 0x20 DUP3 ADD MSTORE POP JUMP JUMPDEST PUSH1 0x0 PUSH2 0x3116 PUSH1 0x29 DUP4 PUSH2 0x2CCD JUMP JUMPDEST SWAP2 POP PUSH2 0x3121 DUP3 PUSH2 0x30BA JUMP JUMPDEST PUSH1 0x40 DUP3 ADD SWAP1 POP SWAP2 SWAP1 POP JUMP JUMPDEST PUSH1 0x0 PUSH1 0x20 DUP3 ADD SWAP1 POP DUP2 DUP2 SUB PUSH1 0x0 DUP4 ADD MSTORE PUSH2 0x3145 DUP2 PUSH2 0x3109 JUMP JUMPDEST SWAP1 POP SWAP2 SWAP1 POP JUMP JUMPDEST PUSH32 0x4C6F616E206C696D697420726561636865642C20706C65617365207761697420 PUSH1 0x0 DUP3 ADD MSTORE PUSH32 0x666F722061206C6F616E20746F20636C6F73652E000000000000000000000000 PUSH1 0x20 DUP3 ADD MSTORE POP JUMP JUMPDEST PUSH1 0x0 PUSH2 0x31A8 PUSH1 0x34 DUP4 PUSH2 0x2CCD JUMP JUMPDEST SWAP2 POP PUSH2 0x31B3 DUP3 PUSH2 0x314C JUMP JUMPDEST PUSH1 0x40 DUP3 ADD SWAP1 POP SWAP2 SWAP1 POP JUMP JUMPDEST PUSH1 0x0 PUSH1 0x20 DUP3 ADD SWAP1 POP DUP2 DUP2 SUB PUSH1 0x0 DUP4 ADD MSTORE PUSH2 0x31D7 DUP2 PUSH2 0x319B JUMP JUMPDEST SWAP1 POP SWAP2 SWAP1 POP JUMP JUMPDEST PUSH32 0x596F752063616E6E6F7420726571756573742061206E6577206C6F616E206966 PUSH1 0x0 DUP3 ADD MSTORE PUSH32 0x20796F7520686176652070656E64696E672C206163746976652C206F72206F76 PUSH1 0x20 DUP3 ADD MSTORE PUSH32 0x6572647565206C6F616E732E0000000000000000000000000000000000000000 PUSH1 0x40 DUP3 ADD MSTORE POP JUMP JUMPDEST PUSH1 0x0 PUSH2 0x3260 PUSH1 0x4C DUP4 PUSH2 0x2CCD JUMP JUMPDEST SWAP2 POP PUSH2 0x326B DUP3 PUSH2 0x31DE JUMP JUMPDEST PUSH1 0x60 DUP3 ADD SWAP1 POP SWAP2 SWAP1 POP JUMP JUMPDEST PUSH1 0x0 PUSH1 0x20 DUP3 ADD SWAP1 POP DUP2 DUP2 SUB PUSH1 0x0 DUP4 ADD MSTORE PUSH2 0x328F DUP2 PUSH2 0x3253 JUMP JUMPDEST SWAP1 POP SWAP2 SWAP1 POP JUMP JUMPDEST PUSH1 0x0 PUSH1 0x60 DUP3 ADD SWAP1 POP PUSH2 0x32AB PUSH1 0x0 DUP4 ADD DUP7 PUSH2 0x2B1A JUMP JUMPDEST PUSH2 0x32B8 PUSH1 0x20 DUP4 ADD DUP6 PUSH2 0x2B29 JUMP JUMPDEST PUSH2 0x32C5 PUSH1 0x40 DUP4 ADD DUP5 PUSH2 0x2BB1 JUMP JUMPDEST SWAP5 SWAP4 POP POP POP POP JUMP JUMPDEST PUSH32 0x4F6E6C792074686520626F72726F7765722063616E2072657061792074686973 PUSH1 0x0 DUP3 ADD MSTORE PUSH32 0x206C6F616E000000000000000000000000000000000000000000000000000000 PUSH1 0x20 DUP3 ADD MSTORE POP JUMP JUMPDEST PUSH1 0x0 PUSH2 0x3329 PUSH1 0x25 DUP4 PUSH2 0x2CCD JUMP JUMPDEST SWAP2 POP PUSH2 0x3334 DUP3 PUSH2 0x32CD JUMP JUMPDEST PUSH1 0x40 DUP3 ADD SWAP1 POP SWAP2 SWAP1 POP JUMP JUMPDEST PUSH1 0x0 PUSH1 0x20 DUP3 ADD SWAP1 POP DUP2 DUP2 SUB PUSH1 0x0 DUP4 ADD MSTORE PUSH2 0x3358 DUP2 PUSH2 0x331C JUMP JUMPDEST SWAP1 POP SWAP2 SWAP1 POP JUMP JUMPDEST PUSH32 0x5468657265206973206E6F206C6F616E20746F20726570617900000000000000 PUSH1 0x0 DUP3 ADD MSTORE POP JUMP JUMPDEST PUSH1 0x0 PUSH2 0x3395 PUSH1 0x19 DUP4 PUSH2 0x2CCD JUMP JUMPDEST SWAP2 POP PUSH2 0x33A0 DUP3 PUSH2 0x335F JUMP JUMPDEST PUSH1 0x20 DUP3 ADD SWAP1 POP SWAP2 SWAP1 POP JUMP JUMPDEST PUSH1 0x0 PUSH1 0x20 DUP3 ADD SWAP1 POP DUP2 DUP2 SUB PUSH1 0x0 DUP4 ADD MSTORE PUSH2 0x33C4 DUP2 PUSH2 0x3388 JUMP JUMPDEST SWAP1 POP SWAP2 SWAP1 POP JUMP JUMPDEST PUSH1 0x0 PUSH2 0x33D6 DUP3 PUSH2 0x2667 JUMP JUMPDEST SWAP2 POP PUSH2 0x33E1 DUP4 PUSH2 0x2667 JUMP JUMPDEST SWAP3 POP DUP3 DUP3 ADD SWAP1 POP PUSH1 0xFF DUP2 GT ISZERO PUSH2 0x33FA JUMPI PUSH2 0x33F9 PUSH2 0x2EDA JUMP JUMPDEST JUMPDEST SWAP3 SWAP2 POP POP JUMP JUMPDEST PUSH1 0x0 PUSH2 0x340B DUP3 PUSH2 0x2667 JUMP JUMPDEST SWAP2 POP PUSH2 0x3416 DUP4 PUSH2 0x2667 JUMP JUMPDEST SWAP3 POP DUP3 DUP3 SUB SWAP1 POP PUSH1 0xFF DUP2 GT ISZERO PUSH2 0x342F JUMPI PUSH2 0x342E PUSH2 0x2EDA JUMP JUMPDEST JUMPDEST SWAP3 SWAP2 POP POP JUMP JUMPDEST PUSH32 0x496E73756666696369656E742066756E647320746F2072657061792074686520 PUSH1 0x0 DUP3 ADD MSTORE PUSH32 0x6F766572647565206C6F616E0000000000000000000000000000000000000000 PUSH1 0x20 DUP3 ADD MSTORE POP JUMP JUMPDEST PUSH1 0x0 PUSH2 0x3491 PUSH1 0x2C DUP4 PUSH2 0x2CCD JUMP JUMPDEST SWAP2 POP PUSH2 0x349C DUP3 PUSH2 0x3435 JUMP JUMPDEST PUSH1 0x40 DUP3 ADD SWAP1 POP SWAP2 SWAP1 POP JUMP JUMPDEST PUSH1 0x0 PUSH1 0x20 DUP3 ADD SWAP1 POP DUP2 DUP2 SUB PUSH1 0x0 DUP4 ADD MSTORE PUSH2 0x34C0 DUP2 PUSH2 0x3484 JUMP JUMPDEST SWAP1 POP SWAP2 SWAP1 POP JUMP JUMPDEST PUSH1 0x0 PUSH1 0x60 DUP3 ADD SWAP1 POP PUSH2 0x34DC PUSH1 0x0 DUP4 ADD DUP7 PUSH2 0x2B1A JUMP JUMPDEST PUSH2 0x34E9 PUSH1 0x20 DUP4 ADD DUP6 PUSH2 0x2B29 JUMP JUMPDEST PUSH2 0x34F6 PUSH1 0x40 DUP4 ADD DUP5 PUSH2 0x2B1A JUMP JUMPDEST SWAP5 SWAP4 POP POP POP POP JUMP JUMPDEST PUSH32 0x4F6E6C792074686520626F72726F7765722063616E2063616E63656C20746869 PUSH1 0x0 DUP3 ADD MSTORE PUSH32 0x73206C6F616E0000000000000000000000000000000000000000000000000000 PUSH1 0x20 DUP3 ADD MSTORE POP JUMP JUMPDEST PUSH1 0x0 PUSH2 0x355A PUSH1 0x26 DUP4 PUSH2 0x2CCD JUMP JUMPDEST SWAP2 POP PUSH2 0x3565 DUP3 PUSH2 0x34FE JUMP JUMPDEST PUSH1 0x40 DUP3 ADD SWAP1 POP SWAP2 SWAP1 POP JUMP JUMPDEST PUSH1 0x0 PUSH1 0x20 DUP3 ADD SWAP1 POP DUP2 DUP2 SUB PUSH1 0x0 DUP4 ADD MSTORE PUSH2 0x3589 DUP2 PUSH2 0x354D JUMP JUMPDEST SWAP1 POP SWAP2 SWAP1 POP JUMP JUMPDEST PUSH32 0x596F7520686176656E27742072656163686564206C6F616E20696D706F727400 PUSH1 0x0 DUP3 ADD MSTORE POP JUMP JUMPDEST PUSH1 0x0 PUSH2 0x35C6 PUSH1 0x1F DUP4 PUSH2 0x2CCD JUMP JUMPDEST SWAP2 POP PUSH2 0x35D1 DUP3 PUSH2 0x3590 JUMP JUMPDEST PUSH1 0x20 DUP3 ADD SWAP1 POP SWAP2 SWAP1 POP JUMP JUMPDEST PUSH1 0x0 PUSH1 0x20 DUP3 ADD SWAP1 POP DUP2 DUP2 SUB PUSH1 0x0 DUP4 ADD MSTORE PUSH2 0x35F5 DUP2 PUSH2 0x35B9 JUMP JUMPDEST SWAP1 POP SWAP2 SWAP1 POP JUMP JUMPDEST PUSH32 0x4E6F206C6F616E20746F2063616E63656C2E0000000000000000000000000000 PUSH1 0x0 DUP3 ADD MSTORE POP JUMP JUMPDEST PUSH1 0x0 PUSH2 0x3632 PUSH1 0x12 DUP4 PUSH2 0x2CCD JUMP JUMPDEST SWAP2 POP PUSH2 0x363D DUP3 PUSH2 0x35FC JUMP JUMPDEST PUSH1 0x20 DUP3 ADD SWAP1 POP SWAP2 SWAP1 POP JUMP JUMPDEST PUSH1 0x0 PUSH1 0x20 DUP3 ADD SWAP1 POP DUP2 DUP2 SUB PUSH1 0x0 DUP4 ADD MSTORE PUSH2 0x3661 DUP2 PUSH2 0x3625 JUMP JUMPDEST SWAP1 POP SWAP2 SWAP1 POP JUMP JUMPDEST PUSH32 0x5265656E7472616E637947756172643A207265656E7472616E742063616C6C00 PUSH1 0x0 DUP3 ADD MSTORE POP JUMP JUMPDEST PUSH1 0x0 PUSH2 0x369E PUSH1 0x1F DUP4 PUSH2 0x2CCD JUMP JUMPDEST SWAP2 POP PUSH2 0x36A9 DUP3 PUSH2 0x3668 JUMP JUMPDEST PUSH1 0x20 DUP3 ADD SWAP1 POP SWAP2 SWAP1 POP JUMP JUMPDEST PUSH1 0x0 PUSH1 0x20 DUP3 ADD SWAP1 POP DUP2 DUP2 SUB PUSH1 0x0 DUP4 ADD MSTORE PUSH2 0x36CD DUP2 PUSH2 0x3691 JUMP JUMPDEST SWAP1 POP SWAP2 SWAP1 POP JUMP JUMPDEST PUSH32 0x496E76616C6964206C6F616E206475726174696F6E0000000000000000000000 PUSH1 0x0 DUP3 ADD MSTORE POP JUMP JUMPDEST PUSH1 0x0 PUSH2 0x370A PUSH1 0x15 DUP4 PUSH2 0x2CCD JUMP JUMPDEST SWAP2 POP PUSH2 0x3715 DUP3 PUSH2 0x36D4 JUMP JUMPDEST PUSH1 0x20 DUP3 ADD SWAP1 POP SWAP2 SWAP1 POP JUMP JUMPDEST PUSH1 0x0 PUSH1 0x20 DUP3 ADD SWAP1 POP DUP2 DUP2 SUB PUSH1 0x0 DUP4 ADD MSTORE PUSH2 0x3739 DUP2 PUSH2 0x36FD JUMP JUMPDEST SWAP1 POP SWAP2 SWAP1 POP JUMP JUMPDEST PUSH32 0x496E76616C6964206372656469742073636F7265000000000000000000000000 PUSH1 0x0 DUP3 ADD MSTORE POP JUMP JUMPDEST PUSH1 0x0 PUSH2 0x3776 PUSH1 0x14 DUP4 PUSH2 0x2CCD JUMP JUMPDEST SWAP2 POP PUSH2 0x3781 DUP3 PUSH2 0x3740 JUMP JUMPDEST PUSH1 0x20 DUP3 ADD SWAP1 POP SWAP2 SWAP1 POP JUMP JUMPDEST PUSH1 0x0 PUSH1 0x20 DUP3 ADD SWAP1 POP DUP2 DUP2 SUB PUSH1 0x0 DUP4 ADD MSTORE PUSH2 0x37A5 DUP2 PUSH2 0x3769 JUMP JUMPDEST SWAP1 POP SWAP2 SWAP1 POP JUMP JUMPDEST PUSH32 0x4E487B7100000000000000000000000000000000000000000000000000000000 PUSH1 0x0 MSTORE PUSH1 0x12 PUSH1 0x4 MSTORE PUSH1 0x24 PUSH1 0x0 REVERT JUMPDEST PUSH1 0x0 PUSH2 0x37E6 DUP3 PUSH2 0x2588 JUMP JUMPDEST SWAP2 POP PUSH2 0x37F1 DUP4 PUSH2 0x2588 JUMP JUMPDEST SWAP3 POP DUP3 PUSH2 0x3801 JUMPI PUSH2 0x3800 PUSH2 0x37AC JUMP JUMPDEST JUMPDEST DUP3 DUP3 DIV SWAP1 POP SWAP3 SWAP2 POP POP JUMP INVALID LOG2 PUSH5 0x6970667358 0x22 SLT KECCAK256 INVALID SDIV DUP11 0x4A 0xC4 0xE1 SWAP14 DUP14 PUSH7 0xD6DC73FB88D26B 0x22 CREATE2 0xE 0xD4 0xF8 SWAP6 0xAF MOD 0x2F 0x26 0xE DUP15 DUP8 0xFB EXTCODEHASH LOG4 PUSH5 0x736F6C6343 STOP ADDMOD SGT STOP CALLER "
		},
		"gasEstimates": {
			"creation": {
				"codeDepositCost": "2880400",
				"executionCost": "30274",
				"totalCost": "2910674"
			},
			"external": {
				"borrowerLoans(address,uint256)": "infinite",
				"cancelLoan(uint256)": "infinite",
				"getLoanFunds(uint256)": "infinite",
				"getPendingLoanByDuration(uint8)": "infinite",
				"getPendingLoanDetailsByAmount()": "infinite",
				"getPendingLoanDetailsByInterestRate()": "infinite",
				"getRepayLoanInfo(uint256)": "infinite",
				"loanBorrowers(address)": "infinite",
				"loansById(uint256)": "infinite",
				"repayLoan(uint256)": "infinite",
				"requestLoan(uint256,uint8)": "infinite"
			},
			"internal": {
				"addNewLoan(struct LoanManager.Loan memory)": "infinite",
				"checkRepayLoanInfo(uint256)": "infinite",
				"getDaysOfLoanDuration(enum LoanManager.LoanDuration)": "infinite",
				"getPendingLoansArray()": "infinite",
				"loanInterestRateCalculator(uint8)": "infinite",
				"refundExcess(uint256,address)": "infinite"
			}
		},
		"methodIdentifiers": {
			"borrowerLoans(address,uint256)": "e3ed1902",
			"cancelLoan(uint256)": "bdbfa3de",
			"getLoanFunds(uint256)": "15e303f3",
			"getPendingLoanByDuration(uint8)": "6be35c6c",
			"getPendingLoanDetailsByAmount()": "3ddce5a0",
			"getPendingLoanDetailsByInterestRate()": "1a26e0b7",
			"getRepayLoanInfo(uint256)": "d46bd137",
			"loanBorrowers(address)": "b96c5cdd",
			"loansById(uint256)": "e034f3dc",
			"repayLoan(uint256)": "ab7b1c89",
			"requestLoan(uint256,uint8)": "8f2c3655"
		}
	},
	"abi": [
		{
			"anonymous": false,
			"inputs": [
				{
					"indexed": false,
					"internalType": "uint256",
					"name": "loanId",
					"type": "uint256"
				},
				{
					"indexed": true,
					"internalType": "address",
					"name": "borrower",
					"type": "address"
				},
				{
					"indexed": true,
					"internalType": "uint256",
					"name": "amount",
					"type": "uint256"
				},
				{
					"indexed": false,
					"internalType": "enum LoanManager.LoanStatus",
					"name": "previousStatus",
					"type": "uint8"
				}
			],
			"name": "LoanCanceled",
			"type": "event"
		},
		{
			"anonymous": false,
			"inputs": [
				{
					"indexed": false,
					"internalType": "uint256",
					"name": "loanId",
					"type": "uint256"
				},
				{
					"indexed": false,
					"internalType": "address",
					"name": "lender",
					"type": "address"
				},
				{
					"indexed": false,
					"internalType": "address",
					"name": "borrower",
					"type": "address"
				},
				{
					"indexed": false,
					"internalType": "uint256",
					"name": "amount",
					"type": "uint256"
				},
				{
					"indexed": false,
					"internalType": "uint256",
					"name": "startDate",
					"type": "uint256"
				},
				{
					"indexed": false,
					"internalType": "uint256",
					"name": "dueDate",
					"type": "uint256"
				}
			],
			"name": "LoanFunded",
			"type": "event"
		},
		{
			"anonymous": false,
			"inputs": [
				{
					"indexed": false,
					"internalType": "uint256",
					"name": "loanId",
					"type": "uint256"
				},
				{
					"indexed": true,
					"internalType": "address",
					"name": "borrower",
					"type": "address"
				},
				{
					"indexed": true,
					"internalType": "uint256",
					"name": "amount",
					"type": "uint256"
				},
				{
					"indexed": false,
					"internalType": "enum LoanManager.LoanStatus",
					"name": "status",
					"type": "uint8"
				},
				{
					"indexed": false,
					"internalType": "uint256",
					"name": "repayAmount",
					"type": "uint256"
				}
			],
			"name": "LoanRepaid",
			"type": "event"
		},
		{
			"anonymous": false,
			"inputs": [
				{
					"indexed": false,
					"internalType": "uint256",
					"name": "loanId",
					"type": "uint256"
				},
				{
					"indexed": true,
					"internalType": "address",
					"name": "borrower",
					"type": "address"
				},
				{
					"indexed": true,
					"internalType": "uint256",
					"name": "amount",
					"type": "uint256"
				},
				{
					"indexed": false,
					"internalType": "enum LoanManager.LoanStatus",
					"name": "status",
					"type": "uint8"
				},
				{
					"indexed": true,
					"internalType": "uint256",
					"name": "interestRate",
					"type": "uint256"
				},
				{
					"indexed": false,
					"internalType": "enum LoanManager.LoanDuration",
					"name": "duration",
					"type": "uint8"
				}
			],
			"name": "LoanRequested",
			"type": "event"
		},
		{
			"inputs": [
				{
					"internalType": "address",
					"name": "",
					"type": "address"
				},
				{
					"internalType": "uint256",
					"name": "",
					"type": "uint256"
				}
			],
			"name": "borrowerLoans",
			"outputs": [
				{
					"internalType": "uint256",
					"name": "",
					"type": "uint256"
				}
			],
			"stateMutability": "view",
			"type": "function"
		},
		{
			"inputs": [
				{
					"internalType": "uint256",
					"name": "_loanId",
					"type": "uint256"
				}
			],
			"name": "cancelLoan",
			"outputs": [],
			"stateMutability": "payable",
			"type": "function"
		},
		{
			"inputs": [
				{
					"internalType": "uint256",
					"name": "_loanId",
					"type": "uint256"
				}
			],
			"name": "getLoanFunds",
			"outputs": [],
			"stateMutability": "payable",
			"type": "function"
		},
		{
			"inputs": [
				{
					"internalType": "enum LoanManager.LoanDuration",
					"name": "_duration",
					"type": "uint8"
				}
			],
			"name": "getPendingLoanByDuration",
			"outputs": [
				{
					"components": [
						{
							"internalType": "uint256",
							"name": "loanId",
							"type": "uint256"
						},
						{
							"components": [
								{
									"internalType": "address",
									"name": "borrowerAddress",
									"type": "address"
								},
								{
									"internalType": "uint8",
									"name": "creditScore",
									"type": "uint8"
								},
								{
									"internalType": "uint256[]",
									"name": "loanHistory",
									"type": "uint256[]"
								}
							],
							"internalType": "struct LoanManager.LoanBorrower",
							"name": "borrower",
							"type": "tuple"
						},
						{
							"internalType": "address",
							"name": "lender",
							"type": "address"
						},
						{
							"internalType": "uint256",
							"name": "amount",
							"type": "uint256"
						},
						{
							"internalType": "uint256",
							"name": "interestRate",
							"type": "uint256"
						},
						{
							"internalType": "uint256",
							"name": "penaltyRate",
							"type": "uint256"
						},
						{
							"internalType": "uint256",
							"name": "startDate",
							"type": "uint256"
						},
						{
							"internalType": "uint256",
							"name": "dueDate",
							"type": "uint256"
						},
						{
							"internalType": "uint256",
							"name": "repayAmount",
							"type": "uint256"
						},
						{
							"internalType": "enum LoanManager.LoanStatus",
							"name": "status",
							"type": "uint8"
						},
						{
							"internalType": "enum LoanManager.LoanDuration",
							"name": "duration",
							"type": "uint8"
						}
					],
					"internalType": "struct LoanManager.Loan[]",
					"name": "",
					"type": "tuple[]"
				}
			],
			"stateMutability": "view",
			"type": "function"
		},
		{
			"inputs": [],
			"name": "getPendingLoanDetailsByAmount",
			"outputs": [
				{
					"components": [
						{
							"internalType": "uint256",
							"name": "loanId",
							"type": "uint256"
						},
						{
							"components": [
								{
									"internalType": "address",
									"name": "borrowerAddress",
									"type": "address"
								},
								{
									"internalType": "uint8",
									"name": "creditScore",
									"type": "uint8"
								},
								{
									"internalType": "uint256[]",
									"name": "loanHistory",
									"type": "uint256[]"
								}
							],
							"internalType": "struct LoanManager.LoanBorrower",
							"name": "borrower",
							"type": "tuple"
						},
						{
							"internalType": "address",
							"name": "lender",
							"type": "address"
						},
						{
							"internalType": "uint256",
							"name": "amount",
							"type": "uint256"
						},
						{
							"internalType": "uint256",
							"name": "interestRate",
							"type": "uint256"
						},
						{
							"internalType": "uint256",
							"name": "penaltyRate",
							"type": "uint256"
						},
						{
							"internalType": "uint256",
							"name": "startDate",
							"type": "uint256"
						},
						{
							"internalType": "uint256",
							"name": "dueDate",
							"type": "uint256"
						},
						{
							"internalType": "uint256",
							"name": "repayAmount",
							"type": "uint256"
						},
						{
							"internalType": "enum LoanManager.LoanStatus",
							"name": "status",
							"type": "uint8"
						},
						{
							"internalType": "enum LoanManager.LoanDuration",
							"name": "duration",
							"type": "uint8"
						}
					],
					"internalType": "struct LoanManager.Loan[]",
					"name": "",
					"type": "tuple[]"
				}
			],
			"stateMutability": "view",
			"type": "function"
		},
		{
			"inputs": [],
			"name": "getPendingLoanDetailsByInterestRate",
			"outputs": [
				{
					"components": [
						{
							"internalType": "uint256",
							"name": "loanId",
							"type": "uint256"
						},
						{
							"components": [
								{
									"internalType": "address",
									"name": "borrowerAddress",
									"type": "address"
								},
								{
									"internalType": "uint8",
									"name": "creditScore",
									"type": "uint8"
								},
								{
									"internalType": "uint256[]",
									"name": "loanHistory",
									"type": "uint256[]"
								}
							],
							"internalType": "struct LoanManager.LoanBorrower",
							"name": "borrower",
							"type": "tuple"
						},
						{
							"internalType": "address",
							"name": "lender",
							"type": "address"
						},
						{
							"internalType": "uint256",
							"name": "amount",
							"type": "uint256"
						},
						{
							"internalType": "uint256",
							"name": "interestRate",
							"type": "uint256"
						},
						{
							"internalType": "uint256",
							"name": "penaltyRate",
							"type": "uint256"
						},
						{
							"internalType": "uint256",
							"name": "startDate",
							"type": "uint256"
						},
						{
							"internalType": "uint256",
							"name": "dueDate",
							"type": "uint256"
						},
						{
							"internalType": "uint256",
							"name": "repayAmount",
							"type": "uint256"
						},
						{
							"internalType": "enum LoanManager.LoanStatus",
							"name": "status",
							"type": "uint8"
						},
						{
							"internalType": "enum LoanManager.LoanDuration",
							"name": "duration",
							"type": "uint8"
						}
					],
					"internalType": "struct LoanManager.Loan[]",
					"name": "",
					"type": "tuple[]"
				}
			],
			"stateMutability": "view",
			"type": "function"
		},
		{
			"inputs": [
				{
					"internalType": "uint256",
					"name": "_loanId",
					"type": "uint256"
				}
			],
			"name": "getRepayLoanInfo",
			"outputs": [
				{
					"internalType": "uint256",
					"name": "",
					"type": "uint256"
				},
				{
					"internalType": "enum LoanManager.LoanStatus",
					"name": "",
					"type": "uint8"
				}
			],
			"stateMutability": "view",
			"type": "function"
		},
		{
			"inputs": [
				{
					"internalType": "address",
					"name": "",
					"type": "address"
				}
			],
			"name": "loanBorrowers",
			"outputs": [
				{
					"internalType": "address",
					"name": "borrowerAddress",
					"type": "address"
				},
				{
					"internalType": "uint8",
					"name": "creditScore",
					"type": "uint8"
				}
			],
			"stateMutability": "view",
			"type": "function"
		},
		{
			"inputs": [
				{
					"internalType": "uint256",
					"name": "",
					"type": "uint256"
				}
			],
			"name": "loansById",
			"outputs": [
				{
					"internalType": "uint256",
					"name": "loanId",
					"type": "uint256"
				},
				{
					"components": [
						{
							"internalType": "address",
							"name": "borrowerAddress",
							"type": "address"
						},
						{
							"internalType": "uint8",
							"name": "creditScore",
							"type": "uint8"
						},
						{
							"internalType": "uint256[]",
							"name": "loanHistory",
							"type": "uint256[]"
						}
					],
					"internalType": "struct LoanManager.LoanBorrower",
					"name": "borrower",
					"type": "tuple"
				},
				{
					"internalType": "address",
					"name": "lender",
					"type": "address"
				},
				{
					"internalType": "uint256",
					"name": "amount",
					"type": "uint256"
				},
				{
					"internalType": "uint256",
					"name": "interestRate",
					"type": "uint256"
				},
				{
					"internalType": "uint256",
					"name": "penaltyRate",
					"type": "uint256"
				},
				{
					"internalType": "uint256",
					"name": "startDate",
					"type": "uint256"
				},
				{
					"internalType": "uint256",
					"name": "dueDate",
					"type": "uint256"
				},
				{
					"internalType": "uint256",
					"name": "repayAmount",
					"type": "uint256"
				},
				{
					"internalType": "enum LoanManager.LoanStatus",
					"name": "status",
					"type": "uint8"
				},
				{
					"internalType": "enum LoanManager.LoanDuration",
					"name": "duration",
					"type": "uint8"
				}
			],
			"stateMutability": "view",
			"type": "function"
		},
		{
			"inputs": [
				{
					"internalType": "uint256",
					"name": "_loanId",
					"type": "uint256"
				}
			],
			"name": "repayLoan",
			"outputs": [],
			"stateMutability": "payable",
			"type": "function"
		},
		{
			"inputs": [
				{
					"internalType": "uint256",
					"name": "_amount",
					"type": "uint256"
				},
				{
					"internalType": "enum LoanManager.LoanDuration",
					"name": "_duration",
					"type": "uint8"
				}
			],
			"name": "requestLoan",
			"outputs": [],
			"stateMutability": "nonpayable",
			"type": "function"
		}
	]
}