{
	"data": {
		"bytecode": {
			"linkReferences": {},
			"object": "6080604052348015600e575f5ffd5b506104ec8061001c5f395ff3fe608060405234801561000f575f5ffd5b5060043610610034575f3560e01c80636e76836614610038578063a71f872d14610068575b5f5ffd5b610052600480360381019061004d91906101c7565b610098565b60405161005f9190610226565b60405180910390f35b610082600480360381019061007d91906101c7565b6100ad565b60405161008f9190610226565b60405180910390f35b5f6100a48484846100c2565b90509392505050565b5f6100b9848484610129565b90509392505050565b5f5f61016d6064866100d49190610299565b6100de9190610299565b90505f8360646100ee91906103f8565b848360646100fc9190610442565b61010691906103f8565b866101119190610475565b61011b9190610299565b905080925050509392505050565b5f5f61016d60648661013b9190610299565b6101459190610299565b90505f83606461015591906103f8565b848360646101639190610442565b61016d91906103f8565b866101789190610475565b6101829190610299565b905080925050509392505050565b5f5ffd5b5f819050919050565b6101a681610194565b81146101b0575f5ffd5b50565b5f813590506101c18161019d565b92915050565b5f5f5f606084860312156101de576101dd610190565b5b5f6101eb868287016101b3565b93505060206101fc868287016101b3565b925050604061020d868287016101b3565b9150509250925092565b61022081610194565b82525050565b5f6020820190506102395f830184610217565b92915050565b7f4e487b71000000000000000000000000000000000000000000000000000000005f52601260045260245ffd5b7f4e487b71000000000000000000000000000000000000000000000000000000005f52601160045260245ffd5b5f6102a382610194565b91506102ae83610194565b9250826102be576102bd61023f565b5b828204905092915050565b5f8160011c9050919050565b5f5f8291508390505b600185111561031e578086048111156102fa576102f961026c565b5b60018516156103095780820291505b8081029050610317856102c9565b94506102de565b94509492505050565b5f8261033657600190506103f1565b81610343575f90506103f1565b8160018114610359576002811461036357610392565b60019150506103f1565b60ff8411156103755761037461026c565b5b8360020a91508482111561038c5761038b61026c565b5b506103f1565b5060208310610133831016604e8410600b84101617156103c75782820a9050838111156103c2576103c161026c565b5b6103f1565b6103d484848460016102d5565b925090508184048111156103eb576103ea61026c565b5b81810290505b9392505050565b5f61040282610194565b915061040d83610194565b925061043a7fffffffffffffffffffffffffffffffffffffffffffffffffffffffffffffffff8484610327565b905092915050565b5f61044c82610194565b915061045783610194565b925082820190508082111561046f5761046e61026c565b5b92915050565b5f61047f82610194565b915061048a83610194565b925082820261049881610194565b915082820484148315176104af576104ae61026c565b5b509291505056fea264697066735822122029dc7fa7928768ee6845ffdb6ff777d4b10b4d9263cd5c09042cead37364a07f64736f6c634300081c0033",
			"opcodes": "PUSH1 0x80 PUSH1 0x40 MSTORE CALLVALUE DUP1 ISZERO PUSH1 0xE JUMPI PUSH0 PUSH0 REVERT JUMPDEST POP PUSH2 0x4EC DUP1 PUSH2 0x1C PUSH0 CODECOPY PUSH0 RETURN INVALID PUSH1 0x80 PUSH1 0x40 MSTORE CALLVALUE DUP1 ISZERO PUSH2 0xF JUMPI PUSH0 PUSH0 REVERT JUMPDEST POP PUSH1 0x4 CALLDATASIZE LT PUSH2 0x34 JUMPI PUSH0 CALLDATALOAD PUSH1 0xE0 SHR DUP1 PUSH4 0x6E768366 EQ PUSH2 0x38 JUMPI DUP1 PUSH4 0xA71F872D EQ PUSH2 0x68 JUMPI JUMPDEST PUSH0 PUSH0 REVERT JUMPDEST PUSH2 0x52 PUSH1 0x4 DUP1 CALLDATASIZE SUB DUP2 ADD SWAP1 PUSH2 0x4D SWAP2 SWAP1 PUSH2 0x1C7 JUMP JUMPDEST PUSH2 0x98 JUMP JUMPDEST PUSH1 0x40 MLOAD PUSH2 0x5F SWAP2 SWAP1 PUSH2 0x226 JUMP JUMPDEST PUSH1 0x40 MLOAD DUP1 SWAP2 SUB SWAP1 RETURN JUMPDEST PUSH2 0x82 PUSH1 0x4 DUP1 CALLDATASIZE SUB DUP2 ADD SWAP1 PUSH2 0x7D SWAP2 SWAP1 PUSH2 0x1C7 JUMP JUMPDEST PUSH2 0xAD JUMP JUMPDEST PUSH1 0x40 MLOAD PUSH2 0x8F SWAP2 SWAP1 PUSH2 0x226 JUMP JUMPDEST PUSH1 0x40 MLOAD DUP1 SWAP2 SUB SWAP1 RETURN JUMPDEST PUSH0 PUSH2 0xA4 DUP5 DUP5 DUP5 PUSH2 0xC2 JUMP JUMPDEST SWAP1 POP SWAP4 SWAP3 POP POP POP JUMP JUMPDEST PUSH0 PUSH2 0xB9 DUP5 DUP5 DUP5 PUSH2 0x129 JUMP JUMPDEST SWAP1 POP SWAP4 SWAP3 POP POP POP JUMP JUMPDEST PUSH0 PUSH0 PUSH2 0x16D PUSH1 0x64 DUP7 PUSH2 0xD4 SWAP2 SWAP1 PUSH2 0x299 JUMP JUMPDEST PUSH2 0xDE SWAP2 SWAP1 PUSH2 0x299 JUMP JUMPDEST SWAP1 POP PUSH0 DUP4 PUSH1 0x64 PUSH2 0xEE SWAP2 SWAP1 PUSH2 0x3F8 JUMP JUMPDEST DUP5 DUP4 PUSH1 0x64 PUSH2 0xFC SWAP2 SWAP1 PUSH2 0x442 JUMP JUMPDEST PUSH2 0x106 SWAP2 SWAP1 PUSH2 0x3F8 JUMP JUMPDEST DUP7 PUSH2 0x111 SWAP2 SWAP1 PUSH2 0x475 JUMP JUMPDEST PUSH2 0x11B SWAP2 SWAP1 PUSH2 0x299 JUMP JUMPDEST SWAP1 POP DUP1 SWAP3 POP POP POP SWAP4 SWAP3 POP POP POP JUMP JUMPDEST PUSH0 PUSH0 PUSH2 0x16D PUSH1 0x64 DUP7 PUSH2 0x13B SWAP2 SWAP1 PUSH2 0x299 JUMP JUMPDEST PUSH2 0x145 SWAP2 SWAP1 PUSH2 0x299 JUMP JUMPDEST SWAP1 POP PUSH0 DUP4 PUSH1 0x64 PUSH2 0x155 SWAP2 SWAP1 PUSH2 0x3F8 JUMP JUMPDEST DUP5 DUP4 PUSH1 0x64 PUSH2 0x163 SWAP2 SWAP1 PUSH2 0x442 JUMP JUMPDEST PUSH2 0x16D SWAP2 SWAP1 PUSH2 0x3F8 JUMP JUMPDEST DUP7 PUSH2 0x178 SWAP2 SWAP1 PUSH2 0x475 JUMP JUMPDEST PUSH2 0x182 SWAP2 SWAP1 PUSH2 0x299 JUMP JUMPDEST SWAP1 POP DUP1 SWAP3 POP POP POP SWAP4 SWAP3 POP POP POP JUMP JUMPDEST PUSH0 PUSH0 REVERT JUMPDEST PUSH0 DUP2 SWAP1 POP SWAP2 SWAP1 POP JUMP JUMPDEST PUSH2 0x1A6 DUP2 PUSH2 0x194 JUMP JUMPDEST DUP2 EQ PUSH2 0x1B0 JUMPI PUSH0 PUSH0 REVERT JUMPDEST POP JUMP JUMPDEST PUSH0 DUP2 CALLDATALOAD SWAP1 POP PUSH2 0x1C1 DUP2 PUSH2 0x19D JUMP JUMPDEST SWAP3 SWAP2 POP POP JUMP JUMPDEST PUSH0 PUSH0 PUSH0 PUSH1 0x60 DUP5 DUP7 SUB SLT ISZERO PUSH2 0x1DE JUMPI PUSH2 0x1DD PUSH2 0x190 JUMP JUMPDEST JUMPDEST PUSH0 PUSH2 0x1EB DUP7 DUP3 DUP8 ADD PUSH2 0x1B3 JUMP JUMPDEST SWAP4 POP POP PUSH1 0x20 PUSH2 0x1FC DUP7 DUP3 DUP8 ADD PUSH2 0x1B3 JUMP JUMPDEST SWAP3 POP POP PUSH1 0x40 PUSH2 0x20D DUP7 DUP3 DUP8 ADD PUSH2 0x1B3 JUMP JUMPDEST SWAP2 POP POP SWAP3 POP SWAP3 POP SWAP3 JUMP JUMPDEST PUSH2 0x220 DUP2 PUSH2 0x194 JUMP JUMPDEST DUP3 MSTORE POP POP JUMP JUMPDEST PUSH0 PUSH1 0x20 DUP3 ADD SWAP1 POP PUSH2 0x239 PUSH0 DUP4 ADD DUP5 PUSH2 0x217 JUMP JUMPDEST SWAP3 SWAP2 POP POP JUMP JUMPDEST PUSH32 0x4E487B7100000000000000000000000000000000000000000000000000000000 PUSH0 MSTORE PUSH1 0x12 PUSH1 0x4 MSTORE PUSH1 0x24 PUSH0 REVERT JUMPDEST PUSH32 0x4E487B7100000000000000000000000000000000000000000000000000000000 PUSH0 MSTORE PUSH1 0x11 PUSH1 0x4 MSTORE PUSH1 0x24 PUSH0 REVERT JUMPDEST PUSH0 PUSH2 0x2A3 DUP3 PUSH2 0x194 JUMP JUMPDEST SWAP2 POP PUSH2 0x2AE DUP4 PUSH2 0x194 JUMP JUMPDEST SWAP3 POP DUP3 PUSH2 0x2BE JUMPI PUSH2 0x2BD PUSH2 0x23F JUMP JUMPDEST JUMPDEST DUP3 DUP3 DIV SWAP1 POP SWAP3 SWAP2 POP POP JUMP JUMPDEST PUSH0 DUP2 PUSH1 0x1 SHR SWAP1 POP SWAP2 SWAP1 POP JUMP JUMPDEST PUSH0 PUSH0 DUP3 SWAP2 POP DUP4 SWAP1 POP JUMPDEST PUSH1 0x1 DUP6 GT ISZERO PUSH2 0x31E JUMPI DUP1 DUP7 DIV DUP2 GT ISZERO PUSH2 0x2FA JUMPI PUSH2 0x2F9 PUSH2 0x26C JUMP JUMPDEST JUMPDEST PUSH1 0x1 DUP6 AND ISZERO PUSH2 0x309 JUMPI DUP1 DUP3 MUL SWAP2 POP JUMPDEST DUP1 DUP2 MUL SWAP1 POP PUSH2 0x317 DUP6 PUSH2 0x2C9 JUMP JUMPDEST SWAP5 POP PUSH2 0x2DE JUMP JUMPDEST SWAP5 POP SWAP5 SWAP3 POP POP POP JUMP JUMPDEST PUSH0 DUP3 PUSH2 0x336 JUMPI PUSH1 0x1 SWAP1 POP PUSH2 0x3F1 JUMP JUMPDEST DUP2 PUSH2 0x343 JUMPI PUSH0 SWAP1 POP PUSH2 0x3F1 JUMP JUMPDEST DUP2 PUSH1 0x1 DUP2 EQ PUSH2 0x359 JUMPI PUSH1 0x2 DUP2 EQ PUSH2 0x363 JUMPI PUSH2 0x392 JUMP JUMPDEST PUSH1 0x1 SWAP2 POP POP PUSH2 0x3F1 JUMP JUMPDEST PUSH1 0xFF DUP5 GT ISZERO PUSH2 0x375 JUMPI PUSH2 0x374 PUSH2 0x26C JUMP JUMPDEST JUMPDEST DUP4 PUSH1 0x2 EXP SWAP2 POP DUP5 DUP3 GT ISZERO PUSH2 0x38C JUMPI PUSH2 0x38B PUSH2 0x26C JUMP JUMPDEST JUMPDEST POP PUSH2 0x3F1 JUMP JUMPDEST POP PUSH1 0x20 DUP4 LT PUSH2 0x133 DUP4 LT AND PUSH1 0x4E DUP5 LT PUSH1 0xB DUP5 LT AND OR ISZERO PUSH2 0x3C7 JUMPI DUP3 DUP3 EXP SWAP1 POP DUP4 DUP2 GT ISZERO PUSH2 0x3C2 JUMPI PUSH2 0x3C1 PUSH2 0x26C JUMP JUMPDEST JUMPDEST PUSH2 0x3F1 JUMP JUMPDEST PUSH2 0x3D4 DUP5 DUP5 DUP5 PUSH1 0x1 PUSH2 0x2D5 JUMP JUMPDEST SWAP3 POP SWAP1 POP DUP2 DUP5 DIV DUP2 GT ISZERO PUSH2 0x3EB JUMPI PUSH2 0x3EA PUSH2 0x26C JUMP JUMPDEST JUMPDEST DUP2 DUP2 MUL SWAP1 POP JUMPDEST SWAP4 SWAP3 POP POP POP JUMP JUMPDEST PUSH0 PUSH2 0x402 DUP3 PUSH2 0x194 JUMP JUMPDEST SWAP2 POP PUSH2 0x40D DUP4 PUSH2 0x194 JUMP JUMPDEST SWAP3 POP PUSH2 0x43A PUSH32 0xFFFFFFFFFFFFFFFFFFFFFFFFFFFFFFFFFFFFFFFFFFFFFFFFFFFFFFFFFFFFFFFF DUP5 DUP5 PUSH2 0x327 JUMP JUMPDEST SWAP1 POP SWAP3 SWAP2 POP POP JUMP JUMPDEST PUSH0 PUSH2 0x44C DUP3 PUSH2 0x194 JUMP JUMPDEST SWAP2 POP PUSH2 0x457 DUP4 PUSH2 0x194 JUMP JUMPDEST SWAP3 POP DUP3 DUP3 ADD SWAP1 POP DUP1 DUP3 GT ISZERO PUSH2 0x46F JUMPI PUSH2 0x46E PUSH2 0x26C JUMP JUMPDEST JUMPDEST SWAP3 SWAP2 POP POP JUMP JUMPDEST PUSH0 PUSH2 0x47F DUP3 PUSH2 0x194 JUMP JUMPDEST SWAP2 POP PUSH2 0x48A DUP4 PUSH2 0x194 JUMP JUMPDEST SWAP3 POP DUP3 DUP3 MUL PUSH2 0x498 DUP2 PUSH2 0x194 JUMP JUMPDEST SWAP2 POP DUP3 DUP3 DIV DUP5 EQ DUP4 ISZERO OR PUSH2 0x4AF JUMPI PUSH2 0x4AE PUSH2 0x26C JUMP JUMPDEST JUMPDEST POP SWAP3 SWAP2 POP POP JUMP INVALID LOG2 PUSH5 0x6970667358 0x22 SLT KECCAK256 0x29 0xDC PUSH32 0xA7928768EE6845FFDB6FF777D4B10B4D9263CD5C09042CEAD37364A07F64736F PUSH13 0x634300081C0033000000000000 "
		},
		"gasEstimates": {
			"creation": {
				"codeDepositCost": "252000",
				"executionCost": "292",
				"totalCost": "252292"
			},
			"external": {
				"calculateDailyInterest(uint256,uint256,uint256)": "infinite",
				"calculateDailyPenalty(uint256,uint256,uint256)": "infinite"
			}
		},
		"methodIdentifiers": {
			"calculateDailyInterest(uint256,uint256,uint256)": "a71f872d",
			"calculateDailyPenalty(uint256,uint256,uint256)": "6e768366"
		}
	},
	"abi": [
		{
			"inputs": [
				{
					"internalType": "uint256",
					"name": "interestRate",
					"type": "uint256"
				},
				{
					"internalType": "uint256",
					"name": "loanAmount",
					"type": "uint256"
				},
				{
					"internalType": "uint256",
					"name": "daysOfLoan",
					"type": "uint256"
				}
			],
			"name": "calculateDailyInterest",
			"outputs": [
				{
					"internalType": "uint256",
					"name": "",
					"type": "uint256"
				}
			],
			"stateMutability": "pure",
			"type": "function"
		},
		{
			"inputs": [
				{
					"internalType": "uint256",
					"name": "penaltyRate",
					"type": "uint256"
				},
				{
					"internalType": "uint256",
					"name": "loanAmount",
					"type": "uint256"
				},
				{
					"internalType": "uint256",
					"name": "daysOfDelay",
					"type": "uint256"
				}
			],
			"name": "calculateDailyPenalty",
			"outputs": [
				{
					"internalType": "uint256",
					"name": "",
					"type": "uint256"
				}
			],
			"stateMutability": "pure",
			"type": "function"
		}
	]
}