{
	"data": {
		"bytecode": {
			"linkReferences": {},
			"object": "6080604052348015600e575f5ffd5b5060015f819055506136c8806100235f395ff3fe60806040526004361061009b575f3560e01c8063ab7b1c8911610063578063ab7b1c8914610173578063b96c5cdd1461018f578063bdbfa3de146101cc578063d46bd137146101e8578063e034f3dc14610225578063e3ed19021461026b5761009b565b806315e303f31461009f5780631a26e0b7146100bb5780633ddce5a0146100e55780636be35c6c1461010f5780638f2c36551461014b575b5f5ffd5b6100b960048036038101906100b491906124d2565b6102a7565b005b3480156100c6575f5ffd5b506100cf6105e1565b6040516100dc91906128bb565b60405180910390f35b3480156100f0575f5ffd5b506100f9610726565b60405161010691906128bb565b60405180910390f35b34801561011a575f5ffd5b50610135600480360381019061013091906128fe565b61086b565b60405161014291906128bb565b60405180910390f35b348015610156575f5ffd5b50610171600480360381019061016c9190612929565b610a08565b005b61018d600480360381019061018891906124d2565b611055565b005b34801561019a575f5ffd5b506101b560048036038101906101b09190612991565b61146b565b6040516101c39291906129da565b60405180910390f35b6101e660048036038101906101e191906124d2565b6114b6565b005b3480156101f3575f5ffd5b5061020e600480360381019061020991906124d2565b6117fc565b60405161021c929190612a1f565b60405180910390f35b348015610230575f5ffd5b5061024b600480360381019061024691906124d2565b611840565b6040516102629b9a99989796959493929190612aa2565b60405180910390f35b348015610276575f5ffd5b50610291600480360381019061028c9190612b52565b61199e565b60405161029e9190612b90565b60405180910390f35b6102af6119c9565b5f60025f8381526020019081526020015f2090505f816001015f015f9054906101000a900473ffffffffffffffffffffffffffffffffffffffff16905082825f015414610331576040517f08c379a000000000000000000000000000000000000000000000000000000000815260040161032890612c03565b60405180910390fd5b6001600481111561034557610344612684565b5b82600a015f9054906101000a900460ff16600481111561036857610367612684565b5b146103a8576040517f08c379a000000000000000000000000000000000000000000000000000000000815260040161039f90612c6b565b60405180910390fd5b81600401543410156103ef576040517f08c379a00000000000000000000000000000000000000000000000000000000081526004016103e690612cf9565b60405180910390fd5b3373ffffffffffffffffffffffffffffffffffffffff168173ffffffffffffffffffffffffffffffffffffffff160361045d576040517f08c379a000000000000000000000000000000000000000000000000000000000815260040161045490612d87565b60405180910390fd5b5f61047883600a0160019054906101000a900460ff16611a16565b905033836003015f6101000a81548173ffffffffffffffffffffffffffffffffffffffff021916908373ffffffffffffffffffffffffffffffffffffffff16021790555042836007018190555062015180816104d49190612dd2565b426104df9190612e13565b83600801819055505f83600a015f6101000a81548160ff0219169083600481111561050d5761050c612684565b5b02179055508173ffffffffffffffffffffffffffffffffffffffff166108fc3490811502906040515f60405180830381858888f19350505050158015610555573d5f5f3e3d5ffd5b506105878360040154846003015f9054906101000a900473ffffffffffffffffffffffffffffffffffffffff16611af5565b7f8aa0da3f068a2cb6c8967ae3dcba3c1e23f4035d737fd9cb63fb331e85176051835f0154338434876007015488600801546040516105cb96959493929190612e46565b60405180910390a15050506105de611b56565b50565b60605f5f6105ed611b5f565b915091505f5f90505b8181101561071d575f5f90505b816001846106119190612ea5565b61061b9190612ea5565b81101561070f57836001826106309190612e13565b8151811061064157610640612ed8565b5b6020026020010151608001518482815181106106605761065f612ed8565b5b6020026020010151608001511115610702575f84828151811061068657610685612ed8565b5b602002602001015190508460018361069e9190612e13565b815181106106af576106ae612ed8565b5b60200260200101518583815181106106ca576106c9612ed8565b5b602002602001018190525080856001846106e49190612e13565b815181106106f5576106f4612ed8565b5b6020026020010181905250505b8080600101915050610603565b5080806001019150506105f6565b50819250505090565b60605f5f610732611b5f565b915091505f5f90505b81811015610862575f5f90505b816001846107569190612ea5565b6107609190612ea5565b81101561085457836001826107759190612e13565b8151811061078657610785612ed8565b5b6020026020010151606001518482815181106107a5576107a4612ed8565b5b6020026020010151606001511115610847575f8482815181106107cb576107ca612ed8565b5b60200260200101519050846001836107e39190612e13565b815181106107f4576107f3612ed8565b5b602002602001015185838151811061080f5761080e612ed8565b5b602002602001018190525080856001846108299190612e13565b8151811061083a57610839612ed8565b5b6020026020010181905250505b8080600101915050610748565b50808060010191505061073b565b50819250505090565b60605f5f610877611b5f565b915091505f5f90505f5f90505b828110156108f25785600281111561089f5761089e612684565b5b8482815181106108b2576108b1612ed8565b5b6020026020010151610140015160028111156108d1576108d0612684565b5b036108e55781806108e190612f05565b9250505b8080600101915050610884565b505f8167ffffffffffffffff81111561090e5761090d612f4c565b5b60405190808252806020026020018201604052801561094757816020015b61093461236d565b81526020019060019003908161092c5790505b5090505f5f90505f5f90505b848110156109fa5787600281111561096e5761096d612684565b5b86828151811061098157610980612ed8565b5b6020026020010151610140015160028111156109a05761099f612684565b5b036109ed578581815181106109b8576109b7612ed8565b5b60200260200101518383815181106109d3576109d2612ed8565b5b602002602001018190525081806109e990612f05565b9250505b8080600101915050610953565b508195505050505050919050565b5f8211610a4a576040517f08c379a0000000000000000000000000000000000000000000000000000000008152600401610a4190612fe9565b60405180910390fd5b5f610a53611b5f565b9150506101f4811115610a9b576040517f08c379a0000000000000000000000000000000000000000000000000000000008152600401610a9290613077565b60405180910390fd5b5f60045f3373ffffffffffffffffffffffffffffffffffffffff1673ffffffffffffffffffffffffffffffffffffffff1681526020019081526020015f20805480602002602001604051908101604052809291908181526020018280548015610b2157602002820191905f5260205f20905b815481526020019060010190808311610b0d575b505050505090505f5f90505b8151811015610dd8575f828281518110610b4a57610b49612ed8565b5b602002602001015190505f60025f8381526020019081526020015f20604051806101600160405290815f8201548152602001600182016040518060600160405290815f82015f9054906101000a900473ffffffffffffffffffffffffffffffffffffffff1673ffffffffffffffffffffffffffffffffffffffff1673ffffffffffffffffffffffffffffffffffffffff1681526020015f820160149054906101000a900460ff1660ff1660ff16815260200160018201805480602002602001604051908101604052809291908181526020018280548015610c4857602002820191905f5260205f20905b815481526020019060010190808311610c34575b5050505050815250508152602001600382015f9054906101000a900473ffffffffffffffffffffffffffffffffffffffff1673ffffffffffffffffffffffffffffffffffffffff1673ffffffffffffffffffffffffffffffffffffffff168152602001600482015481526020016005820154815260200160068201548152602001600782015481526020016008820154815260200160098201548152602001600a82015f9054906101000a900460ff166004811115610d0a57610d09612684565b5b6004811115610d1c57610d1b612684565b5b8152602001600a820160019054906101000a900460ff166002811115610d4557610d44612684565b5b6002811115610d5757610d56612684565b5b81525050905060026004811115610d7157610d70612684565b5b8161012001516004811115610d8957610d88612684565b5b14610dc9576040517f08c379a0000000000000000000000000000000000000000000000000000000008152600401610dc09061312b565b60405180910390fd5b50508080600101915050610b2d565b5060015f815480929190610deb90612f05565b91905055505f60045f3373ffffffffffffffffffffffffffffffffffffffff1673ffffffffffffffffffffffffffffffffffffffff1681526020019081526020015f208054905090505f5f8214610e8e5760035f3373ffffffffffffffffffffffffffffffffffffffff1673ffffffffffffffffffffffffffffffffffffffff1681526020019081526020015f205f0160149054906101000a900460ff16610e91565b60015b90505f5f610e9e83611eee565b915091505f604051806101600160405280600154815260200160405180606001604052803373ffffffffffffffffffffffffffffffffffffffff1681526020018760ff16815260200160045f3373ffffffffffffffffffffffffffffffffffffffff1673ffffffffffffffffffffffffffffffffffffffff1681526020019081526020015f20805480602002602001604051908101604052809291908181526020018280548015610f6c57602002820191905f5260205f20905b815481526020019060010190808311610f58575b505050505081525081526020015f73ffffffffffffffffffffffffffffffffffffffff1681526020018a81526020018481526020018381526020015f81526020015f81526020015f815260200160016004811115610fcd57610fcc612684565b5b8152602001896002811115610fe557610fe4612684565b5b8152509050610ff381611fc7565b82893373ffffffffffffffffffffffffffffffffffffffff167f8c5be3bc7c6d15ac2f78c4515185b40c4c09e598b09da542512dba3cf0f4940760015460018d60405161104293929190613149565b60405180910390a4505050505050505050565b61105d6119c9565b5f60025f8381526020019081526020015f2090505f816001019050816001015f015f9054906101000a900473ffffffffffffffffffffffffffffffffffffffff1673ffffffffffffffffffffffffffffffffffffffff163373ffffffffffffffffffffffffffffffffffffffff161461110b576040517f08c379a0000000000000000000000000000000000000000000000000000000008152600401611102906131ee565b60405180910390fd5b5f600481111561111e5761111d612684565b5b82600a015f9054906101000a900460ff16600481111561114157611140612684565b5b148061118157506003600481111561115c5761115b612684565b5b82600a015f9054906101000a900460ff16600481111561117f5761117e612684565b5b145b6111c0576040517f08c379a00000000000000000000000000000000000000000000000000000000081526004016111b790613256565b60405180910390fd5b5f6111ca846121c5565b5090508034106113955782600801544211611265576004825f0160149054906101000a900460ff1660ff161015611234576001825f0160148282829054906101000a900460ff1661121b9190613274565b92506101000a81548160ff021916908360ff1602179055505b600283600a015f6101000a81548160ff0219169083600481111561125b5761125a612684565b5b02179055506112f3565b82600801544211156112f2576001825f0160149054906101000a900460ff1660ff16106112c5576001825f0160148282829054906101000a900460ff166112ac91906132a8565b92506101000a81548160ff021916908360ff1602179055505b600383600a015f6101000a81548160ff021916908360048111156112ec576112eb612684565b5b02179055505b5b808360090181905550826003015f9054906101000a900473ffffffffffffffffffffffffffffffffffffffff1673ffffffffffffffffffffffffffffffffffffffff166108fc3490811502906040515f60405180830381858888f19350505050158015611362573d5f5f3e3d5ffd5b5061139081846003015f9054906101000a900473ffffffffffffffffffffffffffffffffffffffff16611af5565b6113d0565b6040517f08c379a00000000000000000000000000000000000000000000000000000000081526004016113c79061334c565b60405180910390fd5b8260090154825f015f9054906101000a900473ffffffffffffffffffffffffffffffffffffffff1673ffffffffffffffffffffffffffffffffffffffff167fe0ca2d8c0146cf465a705f2d977a1340819eded9e7f875ad64c402fc67634a418686600a015f9054906101000a900460ff1687600901546040516114559392919061336a565b60405180910390a3505050611468611b56565b50565b6003602052805f5260405f205f91509050805f015f9054906101000a900473ffffffffffffffffffffffffffffffffffffffff1690805f0160149054906101000a900460ff16905082565b6114be6119c9565b5f60025f8381526020019081526020015f2090505f816001015f015f9054906101000a900473ffffffffffffffffffffffffffffffffffffffff1690505f62015180836007015461150f9190612e13565b90503373ffffffffffffffffffffffffffffffffffffffff168273ffffffffffffffffffffffffffffffffffffffff161461157f576040517f08c379a00000000000000000000000000000000000000000000000000000000081526004016115769061340f565b60405180910390fd5b5f83600a015f9054906101000a900460ff169050600160048111156115a7576115a6612684565b5b84600a015f9054906101000a900460ff1660048111156115ca576115c9612684565b5b0361160057600484600a015f6101000a81548160ff021916908360048111156115f6576115f5612684565b5b0217905550611798565b6002600481111561161457611613612684565b5b84600a015f9054906101000a900460ff16600481111561163757611636612684565b5b1480156116475750818460070154105b1561175c573484600401541015611693576040517f08c379a000000000000000000000000000000000000000000000000000000000815260040161168a90613477565b60405180910390fd5b600484600a015f6101000a81548160ff021916908360048111156116ba576116b9612684565b5b0217905550836003015f9054906101000a900473ffffffffffffffffffffffffffffffffffffffff1673ffffffffffffffffffffffffffffffffffffffff166108fc3490811502906040515f60405180830381858888f19350505050158015611725573d5f5f3e3d5ffd5b506117578460040154856003015f9054906101000a900473ffffffffffffffffffffffffffffffffffffffff16611af5565b611797565b6040517f08c379a000000000000000000000000000000000000000000000000000000000815260040161178e906134df565b60405180910390fd5b5b83600401548373ffffffffffffffffffffffffffffffffffffffff167fadbee1a5cfde1da4d21e11a94728ae86436e2a1c5cd2269d7bcf3f30cea4ed7987846040516117e5929190612a1f565b60405180910390a3505050506117f9611b56565b50565b5f5f5f611808846121c5565b5090505f611815856121c5565b9150505f8115611827575f9050611832565b8161183157600390505b5b828194509450505050915091565b6002602052805f5260405f205f91509050805f015490806001016040518060600160405290815f82015f9054906101000a900473ffffffffffffffffffffffffffffffffffffffff1673ffffffffffffffffffffffffffffffffffffffff1673ffffffffffffffffffffffffffffffffffffffff1681526020015f820160149054906101000a900460ff1660ff1660ff1681526020016001820180548060200260200160405190810160405280929190818152602001828054801561192257602002820191905f5260205f20905b81548152602001906001019080831161190e575b50505050508152505090806003015f9054906101000a900473ffffffffffffffffffffffffffffffffffffffff169080600401549080600501549080600601549080600701549080600801549080600901549080600a015f9054906101000a900460ff169080600a0160019054906101000a900460ff1690508b565b6004602052815f5260405f2081815481106119b7575f80fd5b905f5260205f20015f91509150505481565b60025f5403611a0d576040517f08c379a0000000000000000000000000000000000000000000000000000000008152600401611a0490613547565b60405180910390fd5b60025f81905550565b5f5f6002811115611a2a57611a29612684565b5b826002811115611a3d57611a3c612684565b5b03611a4b57601e9050611af0565b60016002811115611a5f57611a5e612684565b5b826002811115611a7257611a71612684565b5b03611a805760b49050611af0565b600280811115611a9357611a92612684565b5b826002811115611aa657611aa5612684565b5b03611ab55761016d9050611af0565b6040517f08c379a0000000000000000000000000000000000000000000000000000000008152600401611ae7906135af565b60405180910390fd5b919050565b5f8234611b029190612ea5565b90505f811115611b51578173ffffffffffffffffffffffffffffffffffffffff166108fc8290811502906040515f60405180830381858888f19350505050158015611b4f573d5f5f3e3d5ffd5b505b505050565b60015f81905550565b60605f5f5f90505f600190505b6001548111611be35760016004811115611b8957611b88612684565b5b60025f8381526020019081526020015f20600a015f9054906101000a900460ff166004811115611bbc57611bbb612684565b5b03611bd0578180611bcc90612f05565b9250505b8080611bdb90612f05565b915050611b6c565b505f8167ffffffffffffffff811115611bff57611bfe612f4c565b5b604051908082528060200260200182016040528015611c3857816020015b611c2561236d565b815260200190600190039081611c1d5790505b5090505f5f90505f600190505b6001548111611ee05760016004811115611c6257611c61612684565b5b60025f8381526020019081526020015f20600a015f9054906101000a900460ff166004811115611c9557611c94612684565b5b03611ecd5760025f8281526020019081526020015f20604051806101600160405290815f8201548152602001600182016040518060600160405290815f82015f9054906101000a900473ffffffffffffffffffffffffffffffffffffffff1673ffffffffffffffffffffffffffffffffffffffff1673ffffffffffffffffffffffffffffffffffffffff1681526020015f820160149054906101000a900460ff1660ff1660ff16815260200160018201805480602002602001604051908101604052809291908181526020018280548015611d8d57602002820191905f5260205f20905b815481526020019060010190808311611d79575b5050505050815250508152602001600382015f9054906101000a900473ffffffffffffffffffffffffffffffffffffffff1673ffffffffffffffffffffffffffffffffffffffff1673ffffffffffffffffffffffffffffffffffffffff168152602001600482015481526020016005820154815260200160068201548152602001600782015481526020016008820154815260200160098201548152602001600a82015f9054906101000a900460ff166004811115611e4f57611e4e612684565b5b6004811115611e6157611e60612684565b5b8152602001600a820160019054906101000a900460ff166002811115611e8a57611e89612684565b5b6002811115611e9c57611e9b612684565b5b81525050838381518110611eb357611eb2612ed8565b5b60200260200101819052508180611ec990612f05565b9250505b8080611ed890612f05565b915050611c45565b508183945094505050509091565b5f5f60048360ff161115611f37576040517f08c379a0000000000000000000000000000000000000000000000000000000008152600401611f2e90613617565b60405180910390fd5b5f5f5f8560ff1603611f52576107d091506113889050611fba565b60018560ff1603611f6c576104b09150610fa09050611fb9565b60028560ff1603611f86576103e89150610dac9050611fb8565b60038560ff1603611fa05761032091506109c49050611fb7565b60048560ff1610611fb65761025891506105dc90505b5b5b5b5b8181935093505050915091565b8060025f835f015181526020019081526020015f205f820151815f01556020820151816001015f820151815f015f6101000a81548173ffffffffffffffffffffffffffffffffffffffff021916908373ffffffffffffffffffffffffffffffffffffffff1602179055506020820151815f0160146101000a81548160ff021916908360ff160217905550604082015181600101908051906020019061206d9291906123fd565b5050506040820151816003015f6101000a81548173ffffffffffffffffffffffffffffffffffffffff021916908373ffffffffffffffffffffffffffffffffffffffff160217905550606082015181600401556080820151816005015560a0820151816006015560c0820151816007015560e08201518160080155610100820151816009015561012082015181600a015f6101000a81548160ff0219169083600481111561211e5761211d612684565b5b021790555061014082015181600a0160016101000a81548160ff0219169083600281111561214f5761214e612684565b5b021790555090505060045f82602001515f015173ffffffffffffffffffffffffffffffffffffffff1673ffffffffffffffffffffffffffffffffffffffff1681526020019081526020015f20815f0151908060018154018082558091505060019003905f5260205f20015f909190919091505550565b5f5f5f60025f8581526020019081526020015f2090505f5f6121f783600a0160019054906101000a900460ff16611a16565b90505f620151806201517f8560080154426122129190612ea5565b61221c9190612e13565b6122269190613662565b90505f8460080154421161225157612247856005015486600401548561229b565b93505f905061228b565b846008015442111561228a575f612271866005015487600401548661229b565b905061228286600601548285612304565b945060019150505b5b8381965096505050505050915091565b5f5f61016d6064866122ad9190613662565b6122b79190613662565b90505f5f90505b838110156122f8576064826122d39190613662565b856122de9190612dd2565b856122e99190612e13565b945080806001019150506122be565b50839150509392505050565b5f5f61016d6064866123169190613662565b6123209190613662565b90505f5f90505b838110156123615760648261233c9190613662565b856123479190612dd2565b856123529190612e13565b94508080600101915050612327565b50839150509392505050565b6040518061016001604052805f8152602001612387612448565b81526020015f73ffffffffffffffffffffffffffffffffffffffff1681526020015f81526020015f81526020015f81526020015f81526020015f81526020015f81526020015f60048111156123df576123de612684565b5b81526020015f60028111156123f7576123f6612684565b5b81525090565b828054828255905f5260205f20908101928215612437579160200282015b8281111561243657825182559160200191906001019061241b565b5b5090506124449190612480565b5090565b60405180606001604052805f73ffffffffffffffffffffffffffffffffffffffff1681526020015f60ff168152602001606081525090565b5b80821115612497575f815f905550600101612481565b5090565b5f5ffd5b5f819050919050565b6124b18161249f565b81146124bb575f5ffd5b50565b5f813590506124cc816124a8565b92915050565b5f602082840312156124e7576124e661249b565b5b5f6124f4848285016124be565b91505092915050565b5f81519050919050565b5f82825260208201905092915050565b5f819050602082019050919050565b61252f8161249f565b82525050565b5f73ffffffffffffffffffffffffffffffffffffffff82169050919050565b5f61255e82612535565b9050919050565b61256e81612554565b82525050565b5f60ff82169050919050565b61258981612574565b82525050565b5f81519050919050565b5f82825260208201905092915050565b5f819050602082019050919050565b5f6125c38383612526565b60208301905092915050565b5f602082019050919050565b5f6125e58261258f565b6125ef8185612599565b93506125fa836125a9565b805f5b8381101561262a57815161261188826125b8565b975061261c836125cf565b9250506001810190506125fd565b5085935050505092915050565b5f606083015f83015161264c5f860182612565565b50602083015161265f6020860182612580565b506040830151848203604086015261267782826125db565b9150508091505092915050565b7f4e487b71000000000000000000000000000000000000000000000000000000005f52602160045260245ffd5b600581106126c2576126c1612684565b5b50565b5f8190506126d2826126b1565b919050565b5f6126e1826126c5565b9050919050565b6126f1816126d7565b82525050565b6003811061270857612707612684565b5b50565b5f819050612718826126f7565b919050565b5f6127278261270b565b9050919050565b6127378161271d565b82525050565b5f61016083015f8301516127535f860182612526565b506020830151848203602086015261276b8282612637565b91505060408301516127806040860182612565565b5060608301516127936060860182612526565b5060808301516127a66080860182612526565b5060a08301516127b960a0860182612526565b5060c08301516127cc60c0860182612526565b5060e08301516127df60e0860182612526565b506101008301516127f4610100860182612526565b506101208301516128096101208601826126e8565b5061014083015161281e61014086018261272e565b508091505092915050565b5f612834838361273d565b905092915050565b5f602082019050919050565b5f612852826124fd565b61285c8185612507565b93508360208202850161286e85612517565b805f5b858110156128a9578484038952815161288a8582612829565b94506128958361283c565b925060208a01995050600181019050612871565b50829750879550505050505092915050565b5f6020820190508181035f8301526128d38184612848565b905092915050565b600381106128e7575f5ffd5b50565b5f813590506128f8816128db565b92915050565b5f602082840312156129135761291261249b565b5b5f612920848285016128ea565b91505092915050565b5f5f6040838503121561293f5761293e61249b565b5b5f61294c858286016124be565b925050602061295d858286016128ea565b9150509250929050565b61297081612554565b811461297a575f5ffd5b50565b5f8135905061298b81612967565b92915050565b5f602082840312156129a6576129a561249b565b5b5f6129b38482850161297d565b91505092915050565b6129c581612554565b82525050565b6129d481612574565b82525050565b5f6040820190506129ed5f8301856129bc565b6129fa60208301846129cb565b9392505050565b612a0a8161249f565b82525050565b612a19816126d7565b82525050565b5f604082019050612a325f830185612a01565b612a3f6020830184612a10565b9392505050565b5f606083015f830151612a5b5f860182612565565b506020830151612a6e6020860182612580565b5060408301518482036040860152612a8682826125db565b9150508091505092915050565b612a9c8161271d565b82525050565b5f61016082019050612ab65f83018e612a01565b8181036020830152612ac8818d612a46565b9050612ad7604083018c6129bc565b612ae4606083018b612a01565b612af1608083018a612a01565b612afe60a0830189612a01565b612b0b60c0830188612a01565b612b1860e0830187612a01565b612b26610100830186612a01565b612b34610120830185612a10565b612b42610140830184612a93565b9c9b505050505050505050505050565b5f5f60408385031215612b6857612b6761249b565b5b5f612b758582860161297d565b9250506020612b86858286016124be565b9150509250929050565b5f602082019050612ba35f830184612a01565b92915050565b5f82825260208201905092915050565b7f4c6f616e206e6f7420666f756e640000000000000000000000000000000000005f82015250565b5f612bed600e83612ba9565b9150612bf882612bb9565b602082019050919050565b5f6020820190508181035f830152612c1a81612be1565b9050919050565b7f54686973206c6f616e20646f65736e2774206e6565642066756e64696e6700005f82015250565b5f612c55601e83612ba9565b9150612c6082612c21565b602082019050919050565b5f6020820190508181035f830152612c8281612c49565b9050919050565b7f54686520616d6f756e742073656e7420646f6573206e6f74206d6174636820745f8201527f686520726571756573746564206c6f616e20616d6f756e740000000000000000602082015250565b5f612ce3603883612ba9565b9150612cee82612c89565b604082019050919050565b5f6020820190508181035f830152612d1081612cd7565b9050919050565b7f4c656e64657220616e6420626f72726f7765722063616e6e6f742062652074685f8201527f652073616d650000000000000000000000000000000000000000000000000000602082015250565b5f612d71602683612ba9565b9150612d7c82612d17565b604082019050919050565b5f6020820190508181035f830152612d9e81612d65565b9050919050565b7f4e487b71000000000000000000000000000000000000000000000000000000005f52601160045260245ffd5b5f612ddc8261249f565b9150612de78361249f565b9250828202612df58161249f565b91508282048414831517612e0c57612e0b612da5565b5b5092915050565b5f612e1d8261249f565b9150612e288361249f565b9250828201905080821115612e4057612e3f612da5565b5b92915050565b5f60c082019050612e595f830189612a01565b612e6660208301886129bc565b612e7360408301876129bc565b612e806060830186612a01565b612e8d6080830185612a01565b612e9a60a0830184612a01565b979650505050505050565b5f612eaf8261249f565b9150612eba8361249f565b9250828203905081811115612ed257612ed1612da5565b5b92915050565b7f4e487b71000000000000000000000000000000000000000000000000000000005f52603260045260245ffd5b5f612f0f8261249f565b91507fffffffffffffffffffffffffffffffffffffffffffffffffffffffffffffffff8203612f4157612f40612da5565b5b600182019050919050565b7f4e487b71000000000000000000000000000000000000000000000000000000005f52604160045260245ffd5b7f546865206c6f616e20616d6f756e74206d7573742062652067726561746572205f8201527f7468616e207a65726f0000000000000000000000000000000000000000000000602082015250565b5f612fd3602983612ba9565b9150612fde82612f79565b604082019050919050565b5f6020820190508181035f83015261300081612fc7565b9050919050565b7f4c6f616e206c696d697420726561636865642c20706c656173652077616974205f8201527f666f722061206c6f616e20746f20636c6f73652e000000000000000000000000602082015250565b5f613061603483612ba9565b915061306c82613007565b604082019050919050565b5f6020820190508181035f83015261308e81613055565b9050919050565b7f596f752063616e6e6f7420726571756573742061206e6577206c6f616e2069665f8201527f20796f7520686176652070656e64696e672c206163746976652c206f72206f7660208201527f6572647565206c6f616e732e0000000000000000000000000000000000000000604082015250565b5f613115604c83612ba9565b915061312082613095565b606082019050919050565b5f6020820190508181035f83015261314281613109565b9050919050565b5f60608201905061315c5f830186612a01565b6131696020830185612a10565b6131766040830184612a93565b949350505050565b7f4f6e6c792074686520626f72726f7765722063616e20726570617920746869735f8201527f206c6f616e000000000000000000000000000000000000000000000000000000602082015250565b5f6131d8602583612ba9565b91506131e38261317e565b604082019050919050565b5f6020820190508181035f830152613205816131cc565b9050919050565b7f5468657265206973206e6f206c6f616e20746f207265706179000000000000005f82015250565b5f613240601983612ba9565b915061324b8261320c565b602082019050919050565b5f6020820190508181035f83015261326d81613234565b9050919050565b5f61327e82612574565b915061328983612574565b9250828201905060ff8111156132a2576132a1612da5565b5b92915050565b5f6132b282612574565b91506132bd83612574565b9250828203905060ff8111156132d6576132d5612da5565b5b92915050565b7f496e73756666696369656e742066756e647320746f20726570617920746865205f8201527f6f766572647565206c6f616e0000000000000000000000000000000000000000602082015250565b5f613336602c83612ba9565b9150613341826132dc565b604082019050919050565b5f6020820190508181035f8301526133638161332a565b9050919050565b5f60608201905061337d5f830186612a01565b61338a6020830185612a10565b6133976040830184612a01565b949350505050565b7f4f6e6c792074686520626f72726f7765722063616e2063616e63656c207468695f8201527f73206c6f616e0000000000000000000000000000000000000000000000000000602082015250565b5f6133f9602683612ba9565b91506134048261339f565b604082019050919050565b5f6020820190508181035f830152613426816133ed565b9050919050565b7f596f7520686176656e27742072656163686564206c6f616e20696d706f7274005f82015250565b5f613461601f83612ba9565b915061346c8261342d565b602082019050919050565b5f6020820190508181035f83015261348e81613455565b9050919050565b7f4e6f206c6f616e20746f2063616e63656c2e00000000000000000000000000005f82015250565b5f6134c9601283612ba9565b91506134d482613495565b602082019050919050565b5f6020820190508181035f8301526134f6816134bd565b9050919050565b7f5265656e7472616e637947756172643a207265656e7472616e742063616c6c005f82015250565b5f613531601f83612ba9565b915061353c826134fd565b602082019050919050565b5f6020820190508181035f83015261355e81613525565b9050919050565b7f496e76616c6964206c6f616e206475726174696f6e00000000000000000000005f82015250565b5f613599601583612ba9565b91506135a482613565565b602082019050919050565b5f6020820190508181035f8301526135c68161358d565b9050919050565b7f496e76616c6964206372656469742073636f72650000000000000000000000005f82015250565b5f613601601483612ba9565b915061360c826135cd565b602082019050919050565b5f6020820190508181035f83015261362e816135f5565b9050919050565b7f4e487b71000000000000000000000000000000000000000000000000000000005f52601260045260245ffd5b5f61366c8261249f565b91506136778361249f565b92508261368757613686613635565b5b82820490509291505056fea26469706673582212204db7fb05c598b6d670d1fb2b7e611c423d407212d8134e2ffb641c0a8a893e3764736f6c634300081c0033",
			"opcodes": "PUSH1 0x80 PUSH1 0x40 MSTORE CALLVALUE DUP1 ISZERO PUSH1 0xE JUMPI PUSH0 PUSH0 REVERT JUMPDEST POP PUSH1 0x1 PUSH0 DUP2 SWAP1 SSTORE POP PUSH2 0x36C8 DUP1 PUSH2 0x23 PUSH0 CODECOPY PUSH0 RETURN INVALID PUSH1 0x80 PUSH1 0x40 MSTORE PUSH1 0x4 CALLDATASIZE LT PUSH2 0x9B JUMPI PUSH0 CALLDATALOAD PUSH1 0xE0 SHR DUP1 PUSH4 0xAB7B1C89 GT PUSH2 0x63 JUMPI DUP1 PUSH4 0xAB7B1C89 EQ PUSH2 0x173 JUMPI DUP1 PUSH4 0xB96C5CDD EQ PUSH2 0x18F JUMPI DUP1 PUSH4 0xBDBFA3DE EQ PUSH2 0x1CC JUMPI DUP1 PUSH4 0xD46BD137 EQ PUSH2 0x1E8 JUMPI DUP1 PUSH4 0xE034F3DC EQ PUSH2 0x225 JUMPI DUP1 PUSH4 0xE3ED1902 EQ PUSH2 0x26B JUMPI PUSH2 0x9B JUMP JUMPDEST DUP1 PUSH4 0x15E303F3 EQ PUSH2 0x9F JUMPI DUP1 PUSH4 0x1A26E0B7 EQ PUSH2 0xBB JUMPI DUP1 PUSH4 0x3DDCE5A0 EQ PUSH2 0xE5 JUMPI DUP1 PUSH4 0x6BE35C6C EQ PUSH2 0x10F JUMPI DUP1 PUSH4 0x8F2C3655 EQ PUSH2 0x14B JUMPI JUMPDEST PUSH0 PUSH0 REVERT JUMPDEST PUSH2 0xB9 PUSH1 0x4 DUP1 CALLDATASIZE SUB DUP2 ADD SWAP1 PUSH2 0xB4 SWAP2 SWAP1 PUSH2 0x24D2 JUMP JUMPDEST PUSH2 0x2A7 JUMP JUMPDEST STOP JUMPDEST CALLVALUE DUP1 ISZERO PUSH2 0xC6 JUMPI PUSH0 PUSH0 REVERT JUMPDEST POP PUSH2 0xCF PUSH2 0x5E1 JUMP JUMPDEST PUSH1 0x40 MLOAD PUSH2 0xDC SWAP2 SWAP1 PUSH2 0x28BB JUMP JUMPDEST PUSH1 0x40 MLOAD DUP1 SWAP2 SUB SWAP1 RETURN JUMPDEST CALLVALUE DUP1 ISZERO PUSH2 0xF0 JUMPI PUSH0 PUSH0 REVERT JUMPDEST POP PUSH2 0xF9 PUSH2 0x726 JUMP JUMPDEST PUSH1 0x40 MLOAD PUSH2 0x106 SWAP2 SWAP1 PUSH2 0x28BB JUMP JUMPDEST PUSH1 0x40 MLOAD DUP1 SWAP2 SUB SWAP1 RETURN JUMPDEST CALLVALUE DUP1 ISZERO PUSH2 0x11A JUMPI PUSH0 PUSH0 REVERT JUMPDEST POP PUSH2 0x135 PUSH1 0x4 DUP1 CALLDATASIZE SUB DUP2 ADD SWAP1 PUSH2 0x130 SWAP2 SWAP1 PUSH2 0x28FE JUMP JUMPDEST PUSH2 0x86B JUMP JUMPDEST PUSH1 0x40 MLOAD PUSH2 0x142 SWAP2 SWAP1 PUSH2 0x28BB JUMP JUMPDEST PUSH1 0x40 MLOAD DUP1 SWAP2 SUB SWAP1 RETURN JUMPDEST CALLVALUE DUP1 ISZERO PUSH2 0x156 JUMPI PUSH0 PUSH0 REVERT JUMPDEST POP PUSH2 0x171 PUSH1 0x4 DUP1 CALLDATASIZE SUB DUP2 ADD SWAP1 PUSH2 0x16C SWAP2 SWAP1 PUSH2 0x2929 JUMP JUMPDEST PUSH2 0xA08 JUMP JUMPDEST STOP JUMPDEST PUSH2 0x18D PUSH1 0x4 DUP1 CALLDATASIZE SUB DUP2 ADD SWAP1 PUSH2 0x188 SWAP2 SWAP1 PUSH2 0x24D2 JUMP JUMPDEST PUSH2 0x1055 JUMP JUMPDEST STOP JUMPDEST CALLVALUE DUP1 ISZERO PUSH2 0x19A JUMPI PUSH0 PUSH0 REVERT JUMPDEST POP PUSH2 0x1B5 PUSH1 0x4 DUP1 CALLDATASIZE SUB DUP2 ADD SWAP1 PUSH2 0x1B0 SWAP2 SWAP1 PUSH2 0x2991 JUMP JUMPDEST PUSH2 0x146B JUMP JUMPDEST PUSH1 0x40 MLOAD PUSH2 0x1C3 SWAP3 SWAP2 SWAP1 PUSH2 0x29DA JUMP JUMPDEST PUSH1 0x40 MLOAD DUP1 SWAP2 SUB SWAP1 RETURN JUMPDEST PUSH2 0x1E6 PUSH1 0x4 DUP1 CALLDATASIZE SUB DUP2 ADD SWAP1 PUSH2 0x1E1 SWAP2 SWAP1 PUSH2 0x24D2 JUMP JUMPDEST PUSH2 0x14B6 JUMP JUMPDEST STOP JUMPDEST CALLVALUE DUP1 ISZERO PUSH2 0x1F3 JUMPI PUSH0 PUSH0 REVERT JUMPDEST POP PUSH2 0x20E PUSH1 0x4 DUP1 CALLDATASIZE SUB DUP2 ADD SWAP1 PUSH2 0x209 SWAP2 SWAP1 PUSH2 0x24D2 JUMP JUMPDEST PUSH2 0x17FC JUMP JUMPDEST PUSH1 0x40 MLOAD PUSH2 0x21C SWAP3 SWAP2 SWAP1 PUSH2 0x2A1F JUMP JUMPDEST PUSH1 0x40 MLOAD DUP1 SWAP2 SUB SWAP1 RETURN JUMPDEST CALLVALUE DUP1 ISZERO PUSH2 0x230 JUMPI PUSH0 PUSH0 REVERT JUMPDEST POP PUSH2 0x24B PUSH1 0x4 DUP1 CALLDATASIZE SUB DUP2 ADD SWAP1 PUSH2 0x246 SWAP2 SWAP1 PUSH2 0x24D2 JUMP JUMPDEST PUSH2 0x1840 JUMP JUMPDEST PUSH1 0x40 MLOAD PUSH2 0x262 SWAP12 SWAP11 SWAP10 SWAP9 SWAP8 SWAP7 SWAP6 SWAP5 SWAP4 SWAP3 SWAP2 SWAP1 PUSH2 0x2AA2 JUMP JUMPDEST PUSH1 0x40 MLOAD DUP1 SWAP2 SUB SWAP1 RETURN JUMPDEST CALLVALUE DUP1 ISZERO PUSH2 0x276 JUMPI PUSH0 PUSH0 REVERT JUMPDEST POP PUSH2 0x291 PUSH1 0x4 DUP1 CALLDATASIZE SUB DUP2 ADD SWAP1 PUSH2 0x28C SWAP2 SWAP1 PUSH2 0x2B52 JUMP JUMPDEST PUSH2 0x199E JUMP JUMPDEST PUSH1 0x40 MLOAD PUSH2 0x29E SWAP2 SWAP1 PUSH2 0x2B90 JUMP JUMPDEST PUSH1 0x40 MLOAD DUP1 SWAP2 SUB SWAP1 RETURN JUMPDEST PUSH2 0x2AF PUSH2 0x19C9 JUMP JUMPDEST PUSH0 PUSH1 0x2 PUSH0 DUP4 DUP2 MSTORE PUSH1 0x20 ADD SWAP1 DUP2 MSTORE PUSH1 0x20 ADD PUSH0 KECCAK256 SWAP1 POP PUSH0 DUP2 PUSH1 0x1 ADD PUSH0 ADD PUSH0 SWAP1 SLOAD SWAP1 PUSH2 0x100 EXP SWAP1 DIV PUSH20 0xFFFFFFFFFFFFFFFFFFFFFFFFFFFFFFFFFFFFFFFF AND SWAP1 POP DUP3 DUP3 PUSH0 ADD SLOAD EQ PUSH2 0x331 JUMPI PUSH1 0x40 MLOAD PUSH32 0x8C379A000000000000000000000000000000000000000000000000000000000 DUP2 MSTORE PUSH1 0x4 ADD PUSH2 0x328 SWAP1 PUSH2 0x2C03 JUMP JUMPDEST PUSH1 0x40 MLOAD DUP1 SWAP2 SUB SWAP1 REVERT JUMPDEST PUSH1 0x1 PUSH1 0x4 DUP2 GT ISZERO PUSH2 0x345 JUMPI PUSH2 0x344 PUSH2 0x2684 JUMP JUMPDEST JUMPDEST DUP3 PUSH1 0xA ADD PUSH0 SWAP1 SLOAD SWAP1 PUSH2 0x100 EXP SWAP1 DIV PUSH1 0xFF AND PUSH1 0x4 DUP2 GT ISZERO PUSH2 0x368 JUMPI PUSH2 0x367 PUSH2 0x2684 JUMP JUMPDEST JUMPDEST EQ PUSH2 0x3A8 JUMPI PUSH1 0x40 MLOAD PUSH32 0x8C379A000000000000000000000000000000000000000000000000000000000 DUP2 MSTORE PUSH1 0x4 ADD PUSH2 0x39F SWAP1 PUSH2 0x2C6B JUMP JUMPDEST PUSH1 0x40 MLOAD DUP1 SWAP2 SUB SWAP1 REVERT JUMPDEST DUP2 PUSH1 0x4 ADD SLOAD CALLVALUE LT ISZERO PUSH2 0x3EF JUMPI PUSH1 0x40 MLOAD PUSH32 0x8C379A000000000000000000000000000000000000000000000000000000000 DUP2 MSTORE PUSH1 0x4 ADD PUSH2 0x3E6 SWAP1 PUSH2 0x2CF9 JUMP JUMPDEST PUSH1 0x40 MLOAD DUP1 SWAP2 SUB SWAP1 REVERT JUMPDEST CALLER PUSH20 0xFFFFFFFFFFFFFFFFFFFFFFFFFFFFFFFFFFFFFFFF AND DUP2 PUSH20 0xFFFFFFFFFFFFFFFFFFFFFFFFFFFFFFFFFFFFFFFF AND SUB PUSH2 0x45D JUMPI PUSH1 0x40 MLOAD PUSH32 0x8C379A000000000000000000000000000000000000000000000000000000000 DUP2 MSTORE PUSH1 0x4 ADD PUSH2 0x454 SWAP1 PUSH2 0x2D87 JUMP JUMPDEST PUSH1 0x40 MLOAD DUP1 SWAP2 SUB SWAP1 REVERT JUMPDEST PUSH0 PUSH2 0x478 DUP4 PUSH1 0xA ADD PUSH1 0x1 SWAP1 SLOAD SWAP1 PUSH2 0x100 EXP SWAP1 DIV PUSH1 0xFF AND PUSH2 0x1A16 JUMP JUMPDEST SWAP1 POP CALLER DUP4 PUSH1 0x3 ADD PUSH0 PUSH2 0x100 EXP DUP2 SLOAD DUP2 PUSH20 0xFFFFFFFFFFFFFFFFFFFFFFFFFFFFFFFFFFFFFFFF MUL NOT AND SWAP1 DUP4 PUSH20 0xFFFFFFFFFFFFFFFFFFFFFFFFFFFFFFFFFFFFFFFF AND MUL OR SWAP1 SSTORE POP TIMESTAMP DUP4 PUSH1 0x7 ADD DUP2 SWAP1 SSTORE POP PUSH3 0x15180 DUP2 PUSH2 0x4D4 SWAP2 SWAP1 PUSH2 0x2DD2 JUMP JUMPDEST TIMESTAMP PUSH2 0x4DF SWAP2 SWAP1 PUSH2 0x2E13 JUMP JUMPDEST DUP4 PUSH1 0x8 ADD DUP2 SWAP1 SSTORE POP PUSH0 DUP4 PUSH1 0xA ADD PUSH0 PUSH2 0x100 EXP DUP2 SLOAD DUP2 PUSH1 0xFF MUL NOT AND SWAP1 DUP4 PUSH1 0x4 DUP2 GT ISZERO PUSH2 0x50D JUMPI PUSH2 0x50C PUSH2 0x2684 JUMP JUMPDEST JUMPDEST MUL OR SWAP1 SSTORE POP DUP2 PUSH20 0xFFFFFFFFFFFFFFFFFFFFFFFFFFFFFFFFFFFFFFFF AND PUSH2 0x8FC CALLVALUE SWAP1 DUP2 ISZERO MUL SWAP1 PUSH1 0x40 MLOAD PUSH0 PUSH1 0x40 MLOAD DUP1 DUP4 SUB DUP2 DUP6 DUP9 DUP9 CALL SWAP4 POP POP POP POP ISZERO DUP1 ISZERO PUSH2 0x555 JUMPI RETURNDATASIZE PUSH0 PUSH0 RETURNDATACOPY RETURNDATASIZE PUSH0 REVERT JUMPDEST POP PUSH2 0x587 DUP4 PUSH1 0x4 ADD SLOAD DUP5 PUSH1 0x3 ADD PUSH0 SWAP1 SLOAD SWAP1 PUSH2 0x100 EXP SWAP1 DIV PUSH20 0xFFFFFFFFFFFFFFFFFFFFFFFFFFFFFFFFFFFFFFFF AND PUSH2 0x1AF5 JUMP JUMPDEST PUSH32 0x8AA0DA3F068A2CB6C8967AE3DCBA3C1E23F4035D737FD9CB63FB331E85176051 DUP4 PUSH0 ADD SLOAD CALLER DUP5 CALLVALUE DUP8 PUSH1 0x7 ADD SLOAD DUP9 PUSH1 0x8 ADD SLOAD PUSH1 0x40 MLOAD PUSH2 0x5CB SWAP7 SWAP6 SWAP5 SWAP4 SWAP3 SWAP2 SWAP1 PUSH2 0x2E46 JUMP JUMPDEST PUSH1 0x40 MLOAD DUP1 SWAP2 SUB SWAP1 LOG1 POP POP POP PUSH2 0x5DE PUSH2 0x1B56 JUMP JUMPDEST POP JUMP JUMPDEST PUSH1 0x60 PUSH0 PUSH0 PUSH2 0x5ED PUSH2 0x1B5F JUMP JUMPDEST SWAP2 POP SWAP2 POP PUSH0 PUSH0 SWAP1 POP JUMPDEST DUP2 DUP2 LT ISZERO PUSH2 0x71D JUMPI PUSH0 PUSH0 SWAP1 POP JUMPDEST DUP2 PUSH1 0x1 DUP5 PUSH2 0x611 SWAP2 SWAP1 PUSH2 0x2EA5 JUMP JUMPDEST PUSH2 0x61B SWAP2 SWAP1 PUSH2 0x2EA5 JUMP JUMPDEST DUP2 LT ISZERO PUSH2 0x70F JUMPI DUP4 PUSH1 0x1 DUP3 PUSH2 0x630 SWAP2 SWAP1 PUSH2 0x2E13 JUMP JUMPDEST DUP2 MLOAD DUP2 LT PUSH2 0x641 JUMPI PUSH2 0x640 PUSH2 0x2ED8 JUMP JUMPDEST JUMPDEST PUSH1 0x20 MUL PUSH1 0x20 ADD ADD MLOAD PUSH1 0x80 ADD MLOAD DUP5 DUP3 DUP2 MLOAD DUP2 LT PUSH2 0x660 JUMPI PUSH2 0x65F PUSH2 0x2ED8 JUMP JUMPDEST JUMPDEST PUSH1 0x20 MUL PUSH1 0x20 ADD ADD MLOAD PUSH1 0x80 ADD MLOAD GT ISZERO PUSH2 0x702 JUMPI PUSH0 DUP5 DUP3 DUP2 MLOAD DUP2 LT PUSH2 0x686 JUMPI PUSH2 0x685 PUSH2 0x2ED8 JUMP JUMPDEST JUMPDEST PUSH1 0x20 MUL PUSH1 0x20 ADD ADD MLOAD SWAP1 POP DUP5 PUSH1 0x1 DUP4 PUSH2 0x69E SWAP2 SWAP1 PUSH2 0x2E13 JUMP JUMPDEST DUP2 MLOAD DUP2 LT PUSH2 0x6AF JUMPI PUSH2 0x6AE PUSH2 0x2ED8 JUMP JUMPDEST JUMPDEST PUSH1 0x20 MUL PUSH1 0x20 ADD ADD MLOAD DUP6 DUP4 DUP2 MLOAD DUP2 LT PUSH2 0x6CA JUMPI PUSH2 0x6C9 PUSH2 0x2ED8 JUMP JUMPDEST JUMPDEST PUSH1 0x20 MUL PUSH1 0x20 ADD ADD DUP2 SWAP1 MSTORE POP DUP1 DUP6 PUSH1 0x1 DUP5 PUSH2 0x6E4 SWAP2 SWAP1 PUSH2 0x2E13 JUMP JUMPDEST DUP2 MLOAD DUP2 LT PUSH2 0x6F5 JUMPI PUSH2 0x6F4 PUSH2 0x2ED8 JUMP JUMPDEST JUMPDEST PUSH1 0x20 MUL PUSH1 0x20 ADD ADD DUP2 SWAP1 MSTORE POP POP JUMPDEST DUP1 DUP1 PUSH1 0x1 ADD SWAP2 POP POP PUSH2 0x603 JUMP JUMPDEST POP DUP1 DUP1 PUSH1 0x1 ADD SWAP2 POP POP PUSH2 0x5F6 JUMP JUMPDEST POP DUP2 SWAP3 POP POP POP SWAP1 JUMP JUMPDEST PUSH1 0x60 PUSH0 PUSH0 PUSH2 0x732 PUSH2 0x1B5F JUMP JUMPDEST SWAP2 POP SWAP2 POP PUSH0 PUSH0 SWAP1 POP JUMPDEST DUP2 DUP2 LT ISZERO PUSH2 0x862 JUMPI PUSH0 PUSH0 SWAP1 POP JUMPDEST DUP2 PUSH1 0x1 DUP5 PUSH2 0x756 SWAP2 SWAP1 PUSH2 0x2EA5 JUMP JUMPDEST PUSH2 0x760 SWAP2 SWAP1 PUSH2 0x2EA5 JUMP JUMPDEST DUP2 LT ISZERO PUSH2 0x854 JUMPI DUP4 PUSH1 0x1 DUP3 PUSH2 0x775 SWAP2 SWAP1 PUSH2 0x2E13 JUMP JUMPDEST DUP2 MLOAD DUP2 LT PUSH2 0x786 JUMPI PUSH2 0x785 PUSH2 0x2ED8 JUMP JUMPDEST JUMPDEST PUSH1 0x20 MUL PUSH1 0x20 ADD ADD MLOAD PUSH1 0x60 ADD MLOAD DUP5 DUP3 DUP2 MLOAD DUP2 LT PUSH2 0x7A5 JUMPI PUSH2 0x7A4 PUSH2 0x2ED8 JUMP JUMPDEST JUMPDEST PUSH1 0x20 MUL PUSH1 0x20 ADD ADD MLOAD PUSH1 0x60 ADD MLOAD GT ISZERO PUSH2 0x847 JUMPI PUSH0 DUP5 DUP3 DUP2 MLOAD DUP2 LT PUSH2 0x7CB JUMPI PUSH2 0x7CA PUSH2 0x2ED8 JUMP JUMPDEST JUMPDEST PUSH1 0x20 MUL PUSH1 0x20 ADD ADD MLOAD SWAP1 POP DUP5 PUSH1 0x1 DUP4 PUSH2 0x7E3 SWAP2 SWAP1 PUSH2 0x2E13 JUMP JUMPDEST DUP2 MLOAD DUP2 LT PUSH2 0x7F4 JUMPI PUSH2 0x7F3 PUSH2 0x2ED8 JUMP JUMPDEST JUMPDEST PUSH1 0x20 MUL PUSH1 0x20 ADD ADD MLOAD DUP6 DUP4 DUP2 MLOAD DUP2 LT PUSH2 0x80F JUMPI PUSH2 0x80E PUSH2 0x2ED8 JUMP JUMPDEST JUMPDEST PUSH1 0x20 MUL PUSH1 0x20 ADD ADD DUP2 SWAP1 MSTORE POP DUP1 DUP6 PUSH1 0x1 DUP5 PUSH2 0x829 SWAP2 SWAP1 PUSH2 0x2E13 JUMP JUMPDEST DUP2 MLOAD DUP2 LT PUSH2 0x83A JUMPI PUSH2 0x839 PUSH2 0x2ED8 JUMP JUMPDEST JUMPDEST PUSH1 0x20 MUL PUSH1 0x20 ADD ADD DUP2 SWAP1 MSTORE POP POP JUMPDEST DUP1 DUP1 PUSH1 0x1 ADD SWAP2 POP POP PUSH2 0x748 JUMP JUMPDEST POP DUP1 DUP1 PUSH1 0x1 ADD SWAP2 POP POP PUSH2 0x73B JUMP JUMPDEST POP DUP2 SWAP3 POP POP POP SWAP1 JUMP JUMPDEST PUSH1 0x60 PUSH0 PUSH0 PUSH2 0x877 PUSH2 0x1B5F JUMP JUMPDEST SWAP2 POP SWAP2 POP PUSH0 PUSH0 SWAP1 POP PUSH0 PUSH0 SWAP1 POP JUMPDEST DUP3 DUP2 LT ISZERO PUSH2 0x8F2 JUMPI DUP6 PUSH1 0x2 DUP2 GT ISZERO PUSH2 0x89F JUMPI PUSH2 0x89E PUSH2 0x2684 JUMP JUMPDEST JUMPDEST DUP5 DUP3 DUP2 MLOAD DUP2 LT PUSH2 0x8B2 JUMPI PUSH2 0x8B1 PUSH2 0x2ED8 JUMP JUMPDEST JUMPDEST PUSH1 0x20 MUL PUSH1 0x20 ADD ADD MLOAD PUSH2 0x140 ADD MLOAD PUSH1 0x2 DUP2 GT ISZERO PUSH2 0x8D1 JUMPI PUSH2 0x8D0 PUSH2 0x2684 JUMP JUMPDEST JUMPDEST SUB PUSH2 0x8E5 JUMPI DUP2 DUP1 PUSH2 0x8E1 SWAP1 PUSH2 0x2F05 JUMP JUMPDEST SWAP3 POP POP JUMPDEST DUP1 DUP1 PUSH1 0x1 ADD SWAP2 POP POP PUSH2 0x884 JUMP JUMPDEST POP PUSH0 DUP2 PUSH8 0xFFFFFFFFFFFFFFFF DUP2 GT ISZERO PUSH2 0x90E JUMPI PUSH2 0x90D PUSH2 0x2F4C JUMP JUMPDEST JUMPDEST PUSH1 0x40 MLOAD SWAP1 DUP1 DUP3 MSTORE DUP1 PUSH1 0x20 MUL PUSH1 0x20 ADD DUP3 ADD PUSH1 0x40 MSTORE DUP1 ISZERO PUSH2 0x947 JUMPI DUP2 PUSH1 0x20 ADD JUMPDEST PUSH2 0x934 PUSH2 0x236D JUMP JUMPDEST DUP2 MSTORE PUSH1 0x20 ADD SWAP1 PUSH1 0x1 SWAP1 SUB SWAP1 DUP2 PUSH2 0x92C JUMPI SWAP1 POP JUMPDEST POP SWAP1 POP PUSH0 PUSH0 SWAP1 POP PUSH0 PUSH0 SWAP1 POP JUMPDEST DUP5 DUP2 LT ISZERO PUSH2 0x9FA JUMPI DUP8 PUSH1 0x2 DUP2 GT ISZERO PUSH2 0x96E JUMPI PUSH2 0x96D PUSH2 0x2684 JUMP JUMPDEST JUMPDEST DUP7 DUP3 DUP2 MLOAD DUP2 LT PUSH2 0x981 JUMPI PUSH2 0x980 PUSH2 0x2ED8 JUMP JUMPDEST JUMPDEST PUSH1 0x20 MUL PUSH1 0x20 ADD ADD MLOAD PUSH2 0x140 ADD MLOAD PUSH1 0x2 DUP2 GT ISZERO PUSH2 0x9A0 JUMPI PUSH2 0x99F PUSH2 0x2684 JUMP JUMPDEST JUMPDEST SUB PUSH2 0x9ED JUMPI DUP6 DUP2 DUP2 MLOAD DUP2 LT PUSH2 0x9B8 JUMPI PUSH2 0x9B7 PUSH2 0x2ED8 JUMP JUMPDEST JUMPDEST PUSH1 0x20 MUL PUSH1 0x20 ADD ADD MLOAD DUP4 DUP4 DUP2 MLOAD DUP2 LT PUSH2 0x9D3 JUMPI PUSH2 0x9D2 PUSH2 0x2ED8 JUMP JUMPDEST JUMPDEST PUSH1 0x20 MUL PUSH1 0x20 ADD ADD DUP2 SWAP1 MSTORE POP DUP2 DUP1 PUSH2 0x9E9 SWAP1 PUSH2 0x2F05 JUMP JUMPDEST SWAP3 POP POP JUMPDEST DUP1 DUP1 PUSH1 0x1 ADD SWAP2 POP POP PUSH2 0x953 JUMP JUMPDEST POP DUP2 SWAP6 POP POP POP POP POP POP SWAP2 SWAP1 POP JUMP JUMPDEST PUSH0 DUP3 GT PUSH2 0xA4A JUMPI PUSH1 0x40 MLOAD PUSH32 0x8C379A000000000000000000000000000000000000000000000000000000000 DUP2 MSTORE PUSH1 0x4 ADD PUSH2 0xA41 SWAP1 PUSH2 0x2FE9 JUMP JUMPDEST PUSH1 0x40 MLOAD DUP1 SWAP2 SUB SWAP1 REVERT JUMPDEST PUSH0 PUSH2 0xA53 PUSH2 0x1B5F JUMP JUMPDEST SWAP2 POP POP PUSH2 0x1F4 DUP2 GT ISZERO PUSH2 0xA9B JUMPI PUSH1 0x40 MLOAD PUSH32 0x8C379A000000000000000000000000000000000000000000000000000000000 DUP2 MSTORE PUSH1 0x4 ADD PUSH2 0xA92 SWAP1 PUSH2 0x3077 JUMP JUMPDEST PUSH1 0x40 MLOAD DUP1 SWAP2 SUB SWAP1 REVERT JUMPDEST PUSH0 PUSH1 0x4 PUSH0 CALLER PUSH20 0xFFFFFFFFFFFFFFFFFFFFFFFFFFFFFFFFFFFFFFFF AND PUSH20 0xFFFFFFFFFFFFFFFFFFFFFFFFFFFFFFFFFFFFFFFF AND DUP2 MSTORE PUSH1 0x20 ADD SWAP1 DUP2 MSTORE PUSH1 0x20 ADD PUSH0 KECCAK256 DUP1 SLOAD DUP1 PUSH1 0x20 MUL PUSH1 0x20 ADD PUSH1 0x40 MLOAD SWAP1 DUP2 ADD PUSH1 0x40 MSTORE DUP1 SWAP3 SWAP2 SWAP1 DUP2 DUP2 MSTORE PUSH1 0x20 ADD DUP3 DUP1 SLOAD DUP1 ISZERO PUSH2 0xB21 JUMPI PUSH1 0x20 MUL DUP3 ADD SWAP2 SWAP1 PUSH0 MSTORE PUSH1 0x20 PUSH0 KECCAK256 SWAP1 JUMPDEST DUP2 SLOAD DUP2 MSTORE PUSH1 0x20 ADD SWAP1 PUSH1 0x1 ADD SWAP1 DUP1 DUP4 GT PUSH2 0xB0D JUMPI JUMPDEST POP POP POP POP POP SWAP1 POP PUSH0 PUSH0 SWAP1 POP JUMPDEST DUP2 MLOAD DUP2 LT ISZERO PUSH2 0xDD8 JUMPI PUSH0 DUP3 DUP3 DUP2 MLOAD DUP2 LT PUSH2 0xB4A JUMPI PUSH2 0xB49 PUSH2 0x2ED8 JUMP JUMPDEST JUMPDEST PUSH1 0x20 MUL PUSH1 0x20 ADD ADD MLOAD SWAP1 POP PUSH0 PUSH1 0x2 PUSH0 DUP4 DUP2 MSTORE PUSH1 0x20 ADD SWAP1 DUP2 MSTORE PUSH1 0x20 ADD PUSH0 KECCAK256 PUSH1 0x40 MLOAD DUP1 PUSH2 0x160 ADD PUSH1 0x40 MSTORE SWAP1 DUP2 PUSH0 DUP3 ADD SLOAD DUP2 MSTORE PUSH1 0x20 ADD PUSH1 0x1 DUP3 ADD PUSH1 0x40 MLOAD DUP1 PUSH1 0x60 ADD PUSH1 0x40 MSTORE SWAP1 DUP2 PUSH0 DUP3 ADD PUSH0 SWAP1 SLOAD SWAP1 PUSH2 0x100 EXP SWAP1 DIV PUSH20 0xFFFFFFFFFFFFFFFFFFFFFFFFFFFFFFFFFFFFFFFF AND PUSH20 0xFFFFFFFFFFFFFFFFFFFFFFFFFFFFFFFFFFFFFFFF AND PUSH20 0xFFFFFFFFFFFFFFFFFFFFFFFFFFFFFFFFFFFFFFFF AND DUP2 MSTORE PUSH1 0x20 ADD PUSH0 DUP3 ADD PUSH1 0x14 SWAP1 SLOAD SWAP1 PUSH2 0x100 EXP SWAP1 DIV PUSH1 0xFF AND PUSH1 0xFF AND PUSH1 0xFF AND DUP2 MSTORE PUSH1 0x20 ADD PUSH1 0x1 DUP3 ADD DUP1 SLOAD DUP1 PUSH1 0x20 MUL PUSH1 0x20 ADD PUSH1 0x40 MLOAD SWAP1 DUP2 ADD PUSH1 0x40 MSTORE DUP1 SWAP3 SWAP2 SWAP1 DUP2 DUP2 MSTORE PUSH1 0x20 ADD DUP3 DUP1 SLOAD DUP1 ISZERO PUSH2 0xC48 JUMPI PUSH1 0x20 MUL DUP3 ADD SWAP2 SWAP1 PUSH0 MSTORE PUSH1 0x20 PUSH0 KECCAK256 SWAP1 JUMPDEST DUP2 SLOAD DUP2 MSTORE PUSH1 0x20 ADD SWAP1 PUSH1 0x1 ADD SWAP1 DUP1 DUP4 GT PUSH2 0xC34 JUMPI JUMPDEST POP POP POP POP POP DUP2 MSTORE POP POP DUP2 MSTORE PUSH1 0x20 ADD PUSH1 0x3 DUP3 ADD PUSH0 SWAP1 SLOAD SWAP1 PUSH2 0x100 EXP SWAP1 DIV PUSH20 0xFFFFFFFFFFFFFFFFFFFFFFFFFFFFFFFFFFFFFFFF AND PUSH20 0xFFFFFFFFFFFFFFFFFFFFFFFFFFFFFFFFFFFFFFFF AND PUSH20 0xFFFFFFFFFFFFFFFFFFFFFFFFFFFFFFFFFFFFFFFF AND DUP2 MSTORE PUSH1 0x20 ADD PUSH1 0x4 DUP3 ADD SLOAD DUP2 MSTORE PUSH1 0x20 ADD PUSH1 0x5 DUP3 ADD SLOAD DUP2 MSTORE PUSH1 0x20 ADD PUSH1 0x6 DUP3 ADD SLOAD DUP2 MSTORE PUSH1 0x20 ADD PUSH1 0x7 DUP3 ADD SLOAD DUP2 MSTORE PUSH1 0x20 ADD PUSH1 0x8 DUP3 ADD SLOAD DUP2 MSTORE PUSH1 0x20 ADD PUSH1 0x9 DUP3 ADD SLOAD DUP2 MSTORE PUSH1 0x20 ADD PUSH1 0xA DUP3 ADD PUSH0 SWAP1 SLOAD SWAP1 PUSH2 0x100 EXP SWAP1 DIV PUSH1 0xFF AND PUSH1 0x4 DUP2 GT ISZERO PUSH2 0xD0A JUMPI PUSH2 0xD09 PUSH2 0x2684 JUMP JUMPDEST JUMPDEST PUSH1 0x4 DUP2 GT ISZERO PUSH2 0xD1C JUMPI PUSH2 0xD1B PUSH2 0x2684 JUMP JUMPDEST JUMPDEST DUP2 MSTORE PUSH1 0x20 ADD PUSH1 0xA DUP3 ADD PUSH1 0x1 SWAP1 SLOAD SWAP1 PUSH2 0x100 EXP SWAP1 DIV PUSH1 0xFF AND PUSH1 0x2 DUP2 GT ISZERO PUSH2 0xD45 JUMPI PUSH2 0xD44 PUSH2 0x2684 JUMP JUMPDEST JUMPDEST PUSH1 0x2 DUP2 GT ISZERO PUSH2 0xD57 JUMPI PUSH2 0xD56 PUSH2 0x2684 JUMP JUMPDEST JUMPDEST DUP2 MSTORE POP POP SWAP1 POP PUSH1 0x2 PUSH1 0x4 DUP2 GT ISZERO PUSH2 0xD71 JUMPI PUSH2 0xD70 PUSH2 0x2684 JUMP JUMPDEST JUMPDEST DUP2 PUSH2 0x120 ADD MLOAD PUSH1 0x4 DUP2 GT ISZERO PUSH2 0xD89 JUMPI PUSH2 0xD88 PUSH2 0x2684 JUMP JUMPDEST JUMPDEST EQ PUSH2 0xDC9 JUMPI PUSH1 0x40 MLOAD PUSH32 0x8C379A000000000000000000000000000000000000000000000000000000000 DUP2 MSTORE PUSH1 0x4 ADD PUSH2 0xDC0 SWAP1 PUSH2 0x312B JUMP JUMPDEST PUSH1 0x40 MLOAD DUP1 SWAP2 SUB SWAP1 REVERT JUMPDEST POP POP DUP1 DUP1 PUSH1 0x1 ADD SWAP2 POP POP PUSH2 0xB2D JUMP JUMPDEST POP PUSH1 0x1 PUSH0 DUP2 SLOAD DUP1 SWAP3 SWAP2 SWAP1 PUSH2 0xDEB SWAP1 PUSH2 0x2F05 JUMP JUMPDEST SWAP2 SWAP1 POP SSTORE POP PUSH0 PUSH1 0x4 PUSH0 CALLER PUSH20 0xFFFFFFFFFFFFFFFFFFFFFFFFFFFFFFFFFFFFFFFF AND PUSH20 0xFFFFFFFFFFFFFFFFFFFFFFFFFFFFFFFFFFFFFFFF AND DUP2 MSTORE PUSH1 0x20 ADD SWAP1 DUP2 MSTORE PUSH1 0x20 ADD PUSH0 KECCAK256 DUP1 SLOAD SWAP1 POP SWAP1 POP PUSH0 PUSH0 DUP3 EQ PUSH2 0xE8E JUMPI PUSH1 0x3 PUSH0 CALLER PUSH20 0xFFFFFFFFFFFFFFFFFFFFFFFFFFFFFFFFFFFFFFFF AND PUSH20 0xFFFFFFFFFFFFFFFFFFFFFFFFFFFFFFFFFFFFFFFF AND DUP2 MSTORE PUSH1 0x20 ADD SWAP1 DUP2 MSTORE PUSH1 0x20 ADD PUSH0 KECCAK256 PUSH0 ADD PUSH1 0x14 SWAP1 SLOAD SWAP1 PUSH2 0x100 EXP SWAP1 DIV PUSH1 0xFF AND PUSH2 0xE91 JUMP JUMPDEST PUSH1 0x1 JUMPDEST SWAP1 POP PUSH0 PUSH0 PUSH2 0xE9E DUP4 PUSH2 0x1EEE JUMP JUMPDEST SWAP2 POP SWAP2 POP PUSH0 PUSH1 0x40 MLOAD DUP1 PUSH2 0x160 ADD PUSH1 0x40 MSTORE DUP1 PUSH1 0x1 SLOAD DUP2 MSTORE PUSH1 0x20 ADD PUSH1 0x40 MLOAD DUP1 PUSH1 0x60 ADD PUSH1 0x40 MSTORE DUP1 CALLER PUSH20 0xFFFFFFFFFFFFFFFFFFFFFFFFFFFFFFFFFFFFFFFF AND DUP2 MSTORE PUSH1 0x20 ADD DUP8 PUSH1 0xFF AND DUP2 MSTORE PUSH1 0x20 ADD PUSH1 0x4 PUSH0 CALLER PUSH20 0xFFFFFFFFFFFFFFFFFFFFFFFFFFFFFFFFFFFFFFFF AND PUSH20 0xFFFFFFFFFFFFFFFFFFFFFFFFFFFFFFFFFFFFFFFF AND DUP2 MSTORE PUSH1 0x20 ADD SWAP1 DUP2 MSTORE PUSH1 0x20 ADD PUSH0 KECCAK256 DUP1 SLOAD DUP1 PUSH1 0x20 MUL PUSH1 0x20 ADD PUSH1 0x40 MLOAD SWAP1 DUP2 ADD PUSH1 0x40 MSTORE DUP1 SWAP3 SWAP2 SWAP1 DUP2 DUP2 MSTORE PUSH1 0x20 ADD DUP3 DUP1 SLOAD DUP1 ISZERO PUSH2 0xF6C JUMPI PUSH1 0x20 MUL DUP3 ADD SWAP2 SWAP1 PUSH0 MSTORE PUSH1 0x20 PUSH0 KECCAK256 SWAP1 JUMPDEST DUP2 SLOAD DUP2 MSTORE PUSH1 0x20 ADD SWAP1 PUSH1 0x1 ADD SWAP1 DUP1 DUP4 GT PUSH2 0xF58 JUMPI JUMPDEST POP POP POP POP POP DUP2 MSTORE POP DUP2 MSTORE PUSH1 0x20 ADD PUSH0 PUSH20 0xFFFFFFFFFFFFFFFFFFFFFFFFFFFFFFFFFFFFFFFF AND DUP2 MSTORE PUSH1 0x20 ADD DUP11 DUP2 MSTORE PUSH1 0x20 ADD DUP5 DUP2 MSTORE PUSH1 0x20 ADD DUP4 DUP2 MSTORE PUSH1 0x20 ADD PUSH0 DUP2 MSTORE PUSH1 0x20 ADD PUSH0 DUP2 MSTORE PUSH1 0x20 ADD PUSH0 DUP2 MSTORE PUSH1 0x20 ADD PUSH1 0x1 PUSH1 0x4 DUP2 GT ISZERO PUSH2 0xFCD JUMPI PUSH2 0xFCC PUSH2 0x2684 JUMP JUMPDEST JUMPDEST DUP2 MSTORE PUSH1 0x20 ADD DUP10 PUSH1 0x2 DUP2 GT ISZERO PUSH2 0xFE5 JUMPI PUSH2 0xFE4 PUSH2 0x2684 JUMP JUMPDEST JUMPDEST DUP2 MSTORE POP SWAP1 POP PUSH2 0xFF3 DUP2 PUSH2 0x1FC7 JUMP JUMPDEST DUP3 DUP10 CALLER PUSH20 0xFFFFFFFFFFFFFFFFFFFFFFFFFFFFFFFFFFFFFFFF AND PUSH32 0x8C5BE3BC7C6D15AC2F78C4515185B40C4C09E598B09DA542512DBA3CF0F49407 PUSH1 0x1 SLOAD PUSH1 0x1 DUP14 PUSH1 0x40 MLOAD PUSH2 0x1042 SWAP4 SWAP3 SWAP2 SWAP1 PUSH2 0x3149 JUMP JUMPDEST PUSH1 0x40 MLOAD DUP1 SWAP2 SUB SWAP1 LOG4 POP POP POP POP POP POP POP POP POP JUMP JUMPDEST PUSH2 0x105D PUSH2 0x19C9 JUMP JUMPDEST PUSH0 PUSH1 0x2 PUSH0 DUP4 DUP2 MSTORE PUSH1 0x20 ADD SWAP1 DUP2 MSTORE PUSH1 0x20 ADD PUSH0 KECCAK256 SWAP1 POP PUSH0 DUP2 PUSH1 0x1 ADD SWAP1 POP DUP2 PUSH1 0x1 ADD PUSH0 ADD PUSH0 SWAP1 SLOAD SWAP1 PUSH2 0x100 EXP SWAP1 DIV PUSH20 0xFFFFFFFFFFFFFFFFFFFFFFFFFFFFFFFFFFFFFFFF AND PUSH20 0xFFFFFFFFFFFFFFFFFFFFFFFFFFFFFFFFFFFFFFFF AND CALLER PUSH20 0xFFFFFFFFFFFFFFFFFFFFFFFFFFFFFFFFFFFFFFFF AND EQ PUSH2 0x110B JUMPI PUSH1 0x40 MLOAD PUSH32 0x8C379A000000000000000000000000000000000000000000000000000000000 DUP2 MSTORE PUSH1 0x4 ADD PUSH2 0x1102 SWAP1 PUSH2 0x31EE JUMP JUMPDEST PUSH1 0x40 MLOAD DUP1 SWAP2 SUB SWAP1 REVERT JUMPDEST PUSH0 PUSH1 0x4 DUP2 GT ISZERO PUSH2 0x111E JUMPI PUSH2 0x111D PUSH2 0x2684 JUMP JUMPDEST JUMPDEST DUP3 PUSH1 0xA ADD PUSH0 SWAP1 SLOAD SWAP1 PUSH2 0x100 EXP SWAP1 DIV PUSH1 0xFF AND PUSH1 0x4 DUP2 GT ISZERO PUSH2 0x1141 JUMPI PUSH2 0x1140 PUSH2 0x2684 JUMP JUMPDEST JUMPDEST EQ DUP1 PUSH2 0x1181 JUMPI POP PUSH1 0x3 PUSH1 0x4 DUP2 GT ISZERO PUSH2 0x115C JUMPI PUSH2 0x115B PUSH2 0x2684 JUMP JUMPDEST JUMPDEST DUP3 PUSH1 0xA ADD PUSH0 SWAP1 SLOAD SWAP1 PUSH2 0x100 EXP SWAP1 DIV PUSH1 0xFF AND PUSH1 0x4 DUP2 GT ISZERO PUSH2 0x117F JUMPI PUSH2 0x117E PUSH2 0x2684 JUMP JUMPDEST JUMPDEST EQ JUMPDEST PUSH2 0x11C0 JUMPI PUSH1 0x40 MLOAD PUSH32 0x8C379A000000000000000000000000000000000000000000000000000000000 DUP2 MSTORE PUSH1 0x4 ADD PUSH2 0x11B7 SWAP1 PUSH2 0x3256 JUMP JUMPDEST PUSH1 0x40 MLOAD DUP1 SWAP2 SUB SWAP1 REVERT JUMPDEST PUSH0 PUSH2 0x11CA DUP5 PUSH2 0x21C5 JUMP JUMPDEST POP SWAP1 POP DUP1 CALLVALUE LT PUSH2 0x1395 JUMPI DUP3 PUSH1 0x8 ADD SLOAD TIMESTAMP GT PUSH2 0x1265 JUMPI PUSH1 0x4 DUP3 PUSH0 ADD PUSH1 0x14 SWAP1 SLOAD SWAP1 PUSH2 0x100 EXP SWAP1 DIV PUSH1 0xFF AND PUSH1 0xFF AND LT ISZERO PUSH2 0x1234 JUMPI PUSH1 0x1 DUP3 PUSH0 ADD PUSH1 0x14 DUP3 DUP3 DUP3 SWAP1 SLOAD SWAP1 PUSH2 0x100 EXP SWAP1 DIV PUSH1 0xFF AND PUSH2 0x121B SWAP2 SWAP1 PUSH2 0x3274 JUMP JUMPDEST SWAP3 POP PUSH2 0x100 EXP DUP2 SLOAD DUP2 PUSH1 0xFF MUL NOT AND SWAP1 DUP4 PUSH1 0xFF AND MUL OR SWAP1 SSTORE POP JUMPDEST PUSH1 0x2 DUP4 PUSH1 0xA ADD PUSH0 PUSH2 0x100 EXP DUP2 SLOAD DUP2 PUSH1 0xFF MUL NOT AND SWAP1 DUP4 PUSH1 0x4 DUP2 GT ISZERO PUSH2 0x125B JUMPI PUSH2 0x125A PUSH2 0x2684 JUMP JUMPDEST JUMPDEST MUL OR SWAP1 SSTORE POP PUSH2 0x12F3 JUMP JUMPDEST DUP3 PUSH1 0x8 ADD SLOAD TIMESTAMP GT ISZERO PUSH2 0x12F2 JUMPI PUSH1 0x1 DUP3 PUSH0 ADD PUSH1 0x14 SWAP1 SLOAD SWAP1 PUSH2 0x100 EXP SWAP1 DIV PUSH1 0xFF AND PUSH1 0xFF AND LT PUSH2 0x12C5 JUMPI PUSH1 0x1 DUP3 PUSH0 ADD PUSH1 0x14 DUP3 DUP3 DUP3 SWAP1 SLOAD SWAP1 PUSH2 0x100 EXP SWAP1 DIV PUSH1 0xFF AND PUSH2 0x12AC SWAP2 SWAP1 PUSH2 0x32A8 JUMP JUMPDEST SWAP3 POP PUSH2 0x100 EXP DUP2 SLOAD DUP2 PUSH1 0xFF MUL NOT AND SWAP1 DUP4 PUSH1 0xFF AND MUL OR SWAP1 SSTORE POP JUMPDEST PUSH1 0x3 DUP4 PUSH1 0xA ADD PUSH0 PUSH2 0x100 EXP DUP2 SLOAD DUP2 PUSH1 0xFF MUL NOT AND SWAP1 DUP4 PUSH1 0x4 DUP2 GT ISZERO PUSH2 0x12EC JUMPI PUSH2 0x12EB PUSH2 0x2684 JUMP JUMPDEST JUMPDEST MUL OR SWAP1 SSTORE POP JUMPDEST JUMPDEST DUP1 DUP4 PUSH1 0x9 ADD DUP2 SWAP1 SSTORE POP DUP3 PUSH1 0x3 ADD PUSH0 SWAP1 SLOAD SWAP1 PUSH2 0x100 EXP SWAP1 DIV PUSH20 0xFFFFFFFFFFFFFFFFFFFFFFFFFFFFFFFFFFFFFFFF AND PUSH20 0xFFFFFFFFFFFFFFFFFFFFFFFFFFFFFFFFFFFFFFFF AND PUSH2 0x8FC CALLVALUE SWAP1 DUP2 ISZERO MUL SWAP1 PUSH1 0x40 MLOAD PUSH0 PUSH1 0x40 MLOAD DUP1 DUP4 SUB DUP2 DUP6 DUP9 DUP9 CALL SWAP4 POP POP POP POP ISZERO DUP1 ISZERO PUSH2 0x1362 JUMPI RETURNDATASIZE PUSH0 PUSH0 RETURNDATACOPY RETURNDATASIZE PUSH0 REVERT JUMPDEST POP PUSH2 0x1390 DUP2 DUP5 PUSH1 0x3 ADD PUSH0 SWAP1 SLOAD SWAP1 PUSH2 0x100 EXP SWAP1 DIV PUSH20 0xFFFFFFFFFFFFFFFFFFFFFFFFFFFFFFFFFFFFFFFF AND PUSH2 0x1AF5 JUMP JUMPDEST PUSH2 0x13D0 JUMP JUMPDEST PUSH1 0x40 MLOAD PUSH32 0x8C379A000000000000000000000000000000000000000000000000000000000 DUP2 MSTORE PUSH1 0x4 ADD PUSH2 0x13C7 SWAP1 PUSH2 0x334C JUMP JUMPDEST PUSH1 0x40 MLOAD DUP1 SWAP2 SUB SWAP1 REVERT JUMPDEST DUP3 PUSH1 0x9 ADD SLOAD DUP3 PUSH0 ADD PUSH0 SWAP1 SLOAD SWAP1 PUSH2 0x100 EXP SWAP1 DIV PUSH20 0xFFFFFFFFFFFFFFFFFFFFFFFFFFFFFFFFFFFFFFFF AND PUSH20 0xFFFFFFFFFFFFFFFFFFFFFFFFFFFFFFFFFFFFFFFF AND PUSH32 0xE0CA2D8C0146CF465A705F2D977A1340819EDED9E7F875AD64C402FC67634A41 DUP7 DUP7 PUSH1 0xA ADD PUSH0 SWAP1 SLOAD SWAP1 PUSH2 0x100 EXP SWAP1 DIV PUSH1 0xFF AND DUP8 PUSH1 0x9 ADD SLOAD PUSH1 0x40 MLOAD PUSH2 0x1455 SWAP4 SWAP3 SWAP2 SWAP1 PUSH2 0x336A JUMP JUMPDEST PUSH1 0x40 MLOAD DUP1 SWAP2 SUB SWAP1 LOG3 POP POP POP PUSH2 0x1468 PUSH2 0x1B56 JUMP JUMPDEST POP JUMP JUMPDEST PUSH1 0x3 PUSH1 0x20 MSTORE DUP1 PUSH0 MSTORE PUSH1 0x40 PUSH0 KECCAK256 PUSH0 SWAP2 POP SWAP1 POP DUP1 PUSH0 ADD PUSH0 SWAP1 SLOAD SWAP1 PUSH2 0x100 EXP SWAP1 DIV PUSH20 0xFFFFFFFFFFFFFFFFFFFFFFFFFFFFFFFFFFFFFFFF AND SWAP1 DUP1 PUSH0 ADD PUSH1 0x14 SWAP1 SLOAD SWAP1 PUSH2 0x100 EXP SWAP1 DIV PUSH1 0xFF AND SWAP1 POP DUP3 JUMP JUMPDEST PUSH2 0x14BE PUSH2 0x19C9 JUMP JUMPDEST PUSH0 PUSH1 0x2 PUSH0 DUP4 DUP2 MSTORE PUSH1 0x20 ADD SWAP1 DUP2 MSTORE PUSH1 0x20 ADD PUSH0 KECCAK256 SWAP1 POP PUSH0 DUP2 PUSH1 0x1 ADD PUSH0 ADD PUSH0 SWAP1 SLOAD SWAP1 PUSH2 0x100 EXP SWAP1 DIV PUSH20 0xFFFFFFFFFFFFFFFFFFFFFFFFFFFFFFFFFFFFFFFF AND SWAP1 POP PUSH0 PUSH3 0x15180 DUP4 PUSH1 0x7 ADD SLOAD PUSH2 0x150F SWAP2 SWAP1 PUSH2 0x2E13 JUMP JUMPDEST SWAP1 POP CALLER PUSH20 0xFFFFFFFFFFFFFFFFFFFFFFFFFFFFFFFFFFFFFFFF AND DUP3 PUSH20 0xFFFFFFFFFFFFFFFFFFFFFFFFFFFFFFFFFFFFFFFF AND EQ PUSH2 0x157F JUMPI PUSH1 0x40 MLOAD PUSH32 0x8C379A000000000000000000000000000000000000000000000000000000000 DUP2 MSTORE PUSH1 0x4 ADD PUSH2 0x1576 SWAP1 PUSH2 0x340F JUMP JUMPDEST PUSH1 0x40 MLOAD DUP1 SWAP2 SUB SWAP1 REVERT JUMPDEST PUSH0 DUP4 PUSH1 0xA ADD PUSH0 SWAP1 SLOAD SWAP1 PUSH2 0x100 EXP SWAP1 DIV PUSH1 0xFF AND SWAP1 POP PUSH1 0x1 PUSH1 0x4 DUP2 GT ISZERO PUSH2 0x15A7 JUMPI PUSH2 0x15A6 PUSH2 0x2684 JUMP JUMPDEST JUMPDEST DUP5 PUSH1 0xA ADD PUSH0 SWAP1 SLOAD SWAP1 PUSH2 0x100 EXP SWAP1 DIV PUSH1 0xFF AND PUSH1 0x4 DUP2 GT ISZERO PUSH2 0x15CA JUMPI PUSH2 0x15C9 PUSH2 0x2684 JUMP JUMPDEST JUMPDEST SUB PUSH2 0x1600 JUMPI PUSH1 0x4 DUP5 PUSH1 0xA ADD PUSH0 PUSH2 0x100 EXP DUP2 SLOAD DUP2 PUSH1 0xFF MUL NOT AND SWAP1 DUP4 PUSH1 0x4 DUP2 GT ISZERO PUSH2 0x15F6 JUMPI PUSH2 0x15F5 PUSH2 0x2684 JUMP JUMPDEST JUMPDEST MUL OR SWAP1 SSTORE POP PUSH2 0x1798 JUMP JUMPDEST PUSH1 0x2 PUSH1 0x4 DUP2 GT ISZERO PUSH2 0x1614 JUMPI PUSH2 0x1613 PUSH2 0x2684 JUMP JUMPDEST JUMPDEST DUP5 PUSH1 0xA ADD PUSH0 SWAP1 SLOAD SWAP1 PUSH2 0x100 EXP SWAP1 DIV PUSH1 0xFF AND PUSH1 0x4 DUP2 GT ISZERO PUSH2 0x1637 JUMPI PUSH2 0x1636 PUSH2 0x2684 JUMP JUMPDEST JUMPDEST EQ DUP1 ISZERO PUSH2 0x1647 JUMPI POP DUP2 DUP5 PUSH1 0x7 ADD SLOAD LT JUMPDEST ISZERO PUSH2 0x175C JUMPI CALLVALUE DUP5 PUSH1 0x4 ADD SLOAD LT ISZERO PUSH2 0x1693 JUMPI PUSH1 0x40 MLOAD PUSH32 0x8C379A000000000000000000000000000000000000000000000000000000000 DUP2 MSTORE PUSH1 0x4 ADD PUSH2 0x168A SWAP1 PUSH2 0x3477 JUMP JUMPDEST PUSH1 0x40 MLOAD DUP1 SWAP2 SUB SWAP1 REVERT JUMPDEST PUSH1 0x4 DUP5 PUSH1 0xA ADD PUSH0 PUSH2 0x100 EXP DUP2 SLOAD DUP2 PUSH1 0xFF MUL NOT AND SWAP1 DUP4 PUSH1 0x4 DUP2 GT ISZERO PUSH2 0x16BA JUMPI PUSH2 0x16B9 PUSH2 0x2684 JUMP JUMPDEST JUMPDEST MUL OR SWAP1 SSTORE POP DUP4 PUSH1 0x3 ADD PUSH0 SWAP1 SLOAD SWAP1 PUSH2 0x100 EXP SWAP1 DIV PUSH20 0xFFFFFFFFFFFFFFFFFFFFFFFFFFFFFFFFFFFFFFFF AND PUSH20 0xFFFFFFFFFFFFFFFFFFFFFFFFFFFFFFFFFFFFFFFF AND PUSH2 0x8FC CALLVALUE SWAP1 DUP2 ISZERO MUL SWAP1 PUSH1 0x40 MLOAD PUSH0 PUSH1 0x40 MLOAD DUP1 DUP4 SUB DUP2 DUP6 DUP9 DUP9 CALL SWAP4 POP POP POP POP ISZERO DUP1 ISZERO PUSH2 0x1725 JUMPI RETURNDATASIZE PUSH0 PUSH0 RETURNDATACOPY RETURNDATASIZE PUSH0 REVERT JUMPDEST POP PUSH2 0x1757 DUP5 PUSH1 0x4 ADD SLOAD DUP6 PUSH1 0x3 ADD PUSH0 SWAP1 SLOAD SWAP1 PUSH2 0x100 EXP SWAP1 DIV PUSH20 0xFFFFFFFFFFFFFFFFFFFFFFFFFFFFFFFFFFFFFFFF AND PUSH2 0x1AF5 JUMP JUMPDEST PUSH2 0x1797 JUMP JUMPDEST PUSH1 0x40 MLOAD PUSH32 0x8C379A000000000000000000000000000000000000000000000000000000000 DUP2 MSTORE PUSH1 0x4 ADD PUSH2 0x178E SWAP1 PUSH2 0x34DF JUMP JUMPDEST PUSH1 0x40 MLOAD DUP1 SWAP2 SUB SWAP1 REVERT JUMPDEST JUMPDEST DUP4 PUSH1 0x4 ADD SLOAD DUP4 PUSH20 0xFFFFFFFFFFFFFFFFFFFFFFFFFFFFFFFFFFFFFFFF AND PUSH32 0xADBEE1A5CFDE1DA4D21E11A94728AE86436E2A1C5CD2269D7BCF3F30CEA4ED79 DUP8 DUP5 PUSH1 0x40 MLOAD PUSH2 0x17E5 SWAP3 SWAP2 SWAP1 PUSH2 0x2A1F JUMP JUMPDEST PUSH1 0x40 MLOAD DUP1 SWAP2 SUB SWAP1 LOG3 POP POP POP POP PUSH2 0x17F9 PUSH2 0x1B56 JUMP JUMPDEST POP JUMP JUMPDEST PUSH0 PUSH0 PUSH0 PUSH2 0x1808 DUP5 PUSH2 0x21C5 JUMP JUMPDEST POP SWAP1 POP PUSH0 PUSH2 0x1815 DUP6 PUSH2 0x21C5 JUMP JUMPDEST SWAP2 POP POP PUSH0 DUP2 ISZERO PUSH2 0x1827 JUMPI PUSH0 SWAP1 POP PUSH2 0x1832 JUMP JUMPDEST DUP2 PUSH2 0x1831 JUMPI PUSH1 0x3 SWAP1 POP JUMPDEST JUMPDEST DUP3 DUP2 SWAP5 POP SWAP5 POP POP POP POP SWAP2 POP SWAP2 JUMP JUMPDEST PUSH1 0x2 PUSH1 0x20 MSTORE DUP1 PUSH0 MSTORE PUSH1 0x40 PUSH0 KECCAK256 PUSH0 SWAP2 POP SWAP1 POP DUP1 PUSH0 ADD SLOAD SWAP1 DUP1 PUSH1 0x1 ADD PUSH1 0x40 MLOAD DUP1 PUSH1 0x60 ADD PUSH1 0x40 MSTORE SWAP1 DUP2 PUSH0 DUP3 ADD PUSH0 SWAP1 SLOAD SWAP1 PUSH2 0x100 EXP SWAP1 DIV PUSH20 0xFFFFFFFFFFFFFFFFFFFFFFFFFFFFFFFFFFFFFFFF AND PUSH20 0xFFFFFFFFFFFFFFFFFFFFFFFFFFFFFFFFFFFFFFFF AND PUSH20 0xFFFFFFFFFFFFFFFFFFFFFFFFFFFFFFFFFFFFFFFF AND DUP2 MSTORE PUSH1 0x20 ADD PUSH0 DUP3 ADD PUSH1 0x14 SWAP1 SLOAD SWAP1 PUSH2 0x100 EXP SWAP1 DIV PUSH1 0xFF AND PUSH1 0xFF AND PUSH1 0xFF AND DUP2 MSTORE PUSH1 0x20 ADD PUSH1 0x1 DUP3 ADD DUP1 SLOAD DUP1 PUSH1 0x20 MUL PUSH1 0x20 ADD PUSH1 0x40 MLOAD SWAP1 DUP2 ADD PUSH1 0x40 MSTORE DUP1 SWAP3 SWAP2 SWAP1 DUP2 DUP2 MSTORE PUSH1 0x20 ADD DUP3 DUP1 SLOAD DUP1 ISZERO PUSH2 0x1922 JUMPI PUSH1 0x20 MUL DUP3 ADD SWAP2 SWAP1 PUSH0 MSTORE PUSH1 0x20 PUSH0 KECCAK256 SWAP1 JUMPDEST DUP2 SLOAD DUP2 MSTORE PUSH1 0x20 ADD SWAP1 PUSH1 0x1 ADD SWAP1 DUP1 DUP4 GT PUSH2 0x190E JUMPI JUMPDEST POP POP POP POP POP DUP2 MSTORE POP POP SWAP1 DUP1 PUSH1 0x3 ADD PUSH0 SWAP1 SLOAD SWAP1 PUSH2 0x100 EXP SWAP1 DIV PUSH20 0xFFFFFFFFFFFFFFFFFFFFFFFFFFFFFFFFFFFFFFFF AND SWAP1 DUP1 PUSH1 0x4 ADD SLOAD SWAP1 DUP1 PUSH1 0x5 ADD SLOAD SWAP1 DUP1 PUSH1 0x6 ADD SLOAD SWAP1 DUP1 PUSH1 0x7 ADD SLOAD SWAP1 DUP1 PUSH1 0x8 ADD SLOAD SWAP1 DUP1 PUSH1 0x9 ADD SLOAD SWAP1 DUP1 PUSH1 0xA ADD PUSH0 SWAP1 SLOAD SWAP1 PUSH2 0x100 EXP SWAP1 DIV PUSH1 0xFF AND SWAP1 DUP1 PUSH1 0xA ADD PUSH1 0x1 SWAP1 SLOAD SWAP1 PUSH2 0x100 EXP SWAP1 DIV PUSH1 0xFF AND SWAP1 POP DUP12 JUMP JUMPDEST PUSH1 0x4 PUSH1 0x20 MSTORE DUP2 PUSH0 MSTORE PUSH1 0x40 PUSH0 KECCAK256 DUP2 DUP2 SLOAD DUP2 LT PUSH2 0x19B7 JUMPI PUSH0 DUP1 REVERT JUMPDEST SWAP1 PUSH0 MSTORE PUSH1 0x20 PUSH0 KECCAK256 ADD PUSH0 SWAP2 POP SWAP2 POP POP SLOAD DUP2 JUMP JUMPDEST PUSH1 0x2 PUSH0 SLOAD SUB PUSH2 0x1A0D JUMPI PUSH1 0x40 MLOAD PUSH32 0x8C379A000000000000000000000000000000000000000000000000000000000 DUP2 MSTORE PUSH1 0x4 ADD PUSH2 0x1A04 SWAP1 PUSH2 0x3547 JUMP JUMPDEST PUSH1 0x40 MLOAD DUP1 SWAP2 SUB SWAP1 REVERT JUMPDEST PUSH1 0x2 PUSH0 DUP2 SWAP1 SSTORE POP JUMP JUMPDEST PUSH0 PUSH0 PUSH1 0x2 DUP2 GT ISZERO PUSH2 0x1A2A JUMPI PUSH2 0x1A29 PUSH2 0x2684 JUMP JUMPDEST JUMPDEST DUP3 PUSH1 0x2 DUP2 GT ISZERO PUSH2 0x1A3D JUMPI PUSH2 0x1A3C PUSH2 0x2684 JUMP JUMPDEST JUMPDEST SUB PUSH2 0x1A4B JUMPI PUSH1 0x1E SWAP1 POP PUSH2 0x1AF0 JUMP JUMPDEST PUSH1 0x1 PUSH1 0x2 DUP2 GT ISZERO PUSH2 0x1A5F JUMPI PUSH2 0x1A5E PUSH2 0x2684 JUMP JUMPDEST JUMPDEST DUP3 PUSH1 0x2 DUP2 GT ISZERO PUSH2 0x1A72 JUMPI PUSH2 0x1A71 PUSH2 0x2684 JUMP JUMPDEST JUMPDEST SUB PUSH2 0x1A80 JUMPI PUSH1 0xB4 SWAP1 POP PUSH2 0x1AF0 JUMP JUMPDEST PUSH1 0x2 DUP1 DUP2 GT ISZERO PUSH2 0x1A93 JUMPI PUSH2 0x1A92 PUSH2 0x2684 JUMP JUMPDEST JUMPDEST DUP3 PUSH1 0x2 DUP2 GT ISZERO PUSH2 0x1AA6 JUMPI PUSH2 0x1AA5 PUSH2 0x2684 JUMP JUMPDEST JUMPDEST SUB PUSH2 0x1AB5 JUMPI PUSH2 0x16D SWAP1 POP PUSH2 0x1AF0 JUMP JUMPDEST PUSH1 0x40 MLOAD PUSH32 0x8C379A000000000000000000000000000000000000000000000000000000000 DUP2 MSTORE PUSH1 0x4 ADD PUSH2 0x1AE7 SWAP1 PUSH2 0x35AF JUMP JUMPDEST PUSH1 0x40 MLOAD DUP1 SWAP2 SUB SWAP1 REVERT JUMPDEST SWAP2 SWAP1 POP JUMP JUMPDEST PUSH0 DUP3 CALLVALUE PUSH2 0x1B02 SWAP2 SWAP1 PUSH2 0x2EA5 JUMP JUMPDEST SWAP1 POP PUSH0 DUP2 GT ISZERO PUSH2 0x1B51 JUMPI DUP2 PUSH20 0xFFFFFFFFFFFFFFFFFFFFFFFFFFFFFFFFFFFFFFFF AND PUSH2 0x8FC DUP3 SWAP1 DUP2 ISZERO MUL SWAP1 PUSH1 0x40 MLOAD PUSH0 PUSH1 0x40 MLOAD DUP1 DUP4 SUB DUP2 DUP6 DUP9 DUP9 CALL SWAP4 POP POP POP POP ISZERO DUP1 ISZERO PUSH2 0x1B4F JUMPI RETURNDATASIZE PUSH0 PUSH0 RETURNDATACOPY RETURNDATASIZE PUSH0 REVERT JUMPDEST POP JUMPDEST POP POP POP JUMP JUMPDEST PUSH1 0x1 PUSH0 DUP2 SWAP1 SSTORE POP JUMP JUMPDEST PUSH1 0x60 PUSH0 PUSH0 PUSH0 SWAP1 POP PUSH0 PUSH1 0x1 SWAP1 POP JUMPDEST PUSH1 0x1 SLOAD DUP2 GT PUSH2 0x1BE3 JUMPI PUSH1 0x1 PUSH1 0x4 DUP2 GT ISZERO PUSH2 0x1B89 JUMPI PUSH2 0x1B88 PUSH2 0x2684 JUMP JUMPDEST JUMPDEST PUSH1 0x2 PUSH0 DUP4 DUP2 MSTORE PUSH1 0x20 ADD SWAP1 DUP2 MSTORE PUSH1 0x20 ADD PUSH0 KECCAK256 PUSH1 0xA ADD PUSH0 SWAP1 SLOAD SWAP1 PUSH2 0x100 EXP SWAP1 DIV PUSH1 0xFF AND PUSH1 0x4 DUP2 GT ISZERO PUSH2 0x1BBC JUMPI PUSH2 0x1BBB PUSH2 0x2684 JUMP JUMPDEST JUMPDEST SUB PUSH2 0x1BD0 JUMPI DUP2 DUP1 PUSH2 0x1BCC SWAP1 PUSH2 0x2F05 JUMP JUMPDEST SWAP3 POP POP JUMPDEST DUP1 DUP1 PUSH2 0x1BDB SWAP1 PUSH2 0x2F05 JUMP JUMPDEST SWAP2 POP POP PUSH2 0x1B6C JUMP JUMPDEST POP PUSH0 DUP2 PUSH8 0xFFFFFFFFFFFFFFFF DUP2 GT ISZERO PUSH2 0x1BFF JUMPI PUSH2 0x1BFE PUSH2 0x2F4C JUMP JUMPDEST JUMPDEST PUSH1 0x40 MLOAD SWAP1 DUP1 DUP3 MSTORE DUP1 PUSH1 0x20 MUL PUSH1 0x20 ADD DUP3 ADD PUSH1 0x40 MSTORE DUP1 ISZERO PUSH2 0x1C38 JUMPI DUP2 PUSH1 0x20 ADD JUMPDEST PUSH2 0x1C25 PUSH2 0x236D JUMP JUMPDEST DUP2 MSTORE PUSH1 0x20 ADD SWAP1 PUSH1 0x1 SWAP1 SUB SWAP1 DUP2 PUSH2 0x1C1D JUMPI SWAP1 POP JUMPDEST POP SWAP1 POP PUSH0 PUSH0 SWAP1 POP PUSH0 PUSH1 0x1 SWAP1 POP JUMPDEST PUSH1 0x1 SLOAD DUP2 GT PUSH2 0x1EE0 JUMPI PUSH1 0x1 PUSH1 0x4 DUP2 GT ISZERO PUSH2 0x1C62 JUMPI PUSH2 0x1C61 PUSH2 0x2684 JUMP JUMPDEST JUMPDEST PUSH1 0x2 PUSH0 DUP4 DUP2 MSTORE PUSH1 0x20 ADD SWAP1 DUP2 MSTORE PUSH1 0x20 ADD PUSH0 KECCAK256 PUSH1 0xA ADD PUSH0 SWAP1 SLOAD SWAP1 PUSH2 0x100 EXP SWAP1 DIV PUSH1 0xFF AND PUSH1 0x4 DUP2 GT ISZERO PUSH2 0x1C95 JUMPI PUSH2 0x1C94 PUSH2 0x2684 JUMP JUMPDEST JUMPDEST SUB PUSH2 0x1ECD JUMPI PUSH1 0x2 PUSH0 DUP3 DUP2 MSTORE PUSH1 0x20 ADD SWAP1 DUP2 MSTORE PUSH1 0x20 ADD PUSH0 KECCAK256 PUSH1 0x40 MLOAD DUP1 PUSH2 0x160 ADD PUSH1 0x40 MSTORE SWAP1 DUP2 PUSH0 DUP3 ADD SLOAD DUP2 MSTORE PUSH1 0x20 ADD PUSH1 0x1 DUP3 ADD PUSH1 0x40 MLOAD DUP1 PUSH1 0x60 ADD PUSH1 0x40 MSTORE SWAP1 DUP2 PUSH0 DUP3 ADD PUSH0 SWAP1 SLOAD SWAP1 PUSH2 0x100 EXP SWAP1 DIV PUSH20 0xFFFFFFFFFFFFFFFFFFFFFFFFFFFFFFFFFFFFFFFF AND PUSH20 0xFFFFFFFFFFFFFFFFFFFFFFFFFFFFFFFFFFFFFFFF AND PUSH20 0xFFFFFFFFFFFFFFFFFFFFFFFFFFFFFFFFFFFFFFFF AND DUP2 MSTORE PUSH1 0x20 ADD PUSH0 DUP3 ADD PUSH1 0x14 SWAP1 SLOAD SWAP1 PUSH2 0x100 EXP SWAP1 DIV PUSH1 0xFF AND PUSH1 0xFF AND PUSH1 0xFF AND DUP2 MSTORE PUSH1 0x20 ADD PUSH1 0x1 DUP3 ADD DUP1 SLOAD DUP1 PUSH1 0x20 MUL PUSH1 0x20 ADD PUSH1 0x40 MLOAD SWAP1 DUP2 ADD PUSH1 0x40 MSTORE DUP1 SWAP3 SWAP2 SWAP1 DUP2 DUP2 MSTORE PUSH1 0x20 ADD DUP3 DUP1 SLOAD DUP1 ISZERO PUSH2 0x1D8D JUMPI PUSH1 0x20 MUL DUP3 ADD SWAP2 SWAP1 PUSH0 MSTORE PUSH1 0x20 PUSH0 KECCAK256 SWAP1 JUMPDEST DUP2 SLOAD DUP2 MSTORE PUSH1 0x20 ADD SWAP1 PUSH1 0x1 ADD SWAP1 DUP1 DUP4 GT PUSH2 0x1D79 JUMPI JUMPDEST POP POP POP POP POP DUP2 MSTORE POP POP DUP2 MSTORE PUSH1 0x20 ADD PUSH1 0x3 DUP3 ADD PUSH0 SWAP1 SLOAD SWAP1 PUSH2 0x100 EXP SWAP1 DIV PUSH20 0xFFFFFFFFFFFFFFFFFFFFFFFFFFFFFFFFFFFFFFFF AND PUSH20 0xFFFFFFFFFFFFFFFFFFFFFFFFFFFFFFFFFFFFFFFF AND PUSH20 0xFFFFFFFFFFFFFFFFFFFFFFFFFFFFFFFFFFFFFFFF AND DUP2 MSTORE PUSH1 0x20 ADD PUSH1 0x4 DUP3 ADD SLOAD DUP2 MSTORE PUSH1 0x20 ADD PUSH1 0x5 DUP3 ADD SLOAD DUP2 MSTORE PUSH1 0x20 ADD PUSH1 0x6 DUP3 ADD SLOAD DUP2 MSTORE PUSH1 0x20 ADD PUSH1 0x7 DUP3 ADD SLOAD DUP2 MSTORE PUSH1 0x20 ADD PUSH1 0x8 DUP3 ADD SLOAD DUP2 MSTORE PUSH1 0x20 ADD PUSH1 0x9 DUP3 ADD SLOAD DUP2 MSTORE PUSH1 0x20 ADD PUSH1 0xA DUP3 ADD PUSH0 SWAP1 SLOAD SWAP1 PUSH2 0x100 EXP SWAP1 DIV PUSH1 0xFF AND PUSH1 0x4 DUP2 GT ISZERO PUSH2 0x1E4F JUMPI PUSH2 0x1E4E PUSH2 0x2684 JUMP JUMPDEST JUMPDEST PUSH1 0x4 DUP2 GT ISZERO PUSH2 0x1E61 JUMPI PUSH2 0x1E60 PUSH2 0x2684 JUMP JUMPDEST JUMPDEST DUP2 MSTORE PUSH1 0x20 ADD PUSH1 0xA DUP3 ADD PUSH1 0x1 SWAP1 SLOAD SWAP1 PUSH2 0x100 EXP SWAP1 DIV PUSH1 0xFF AND PUSH1 0x2 DUP2 GT ISZERO PUSH2 0x1E8A JUMPI PUSH2 0x1E89 PUSH2 0x2684 JUMP JUMPDEST JUMPDEST PUSH1 0x2 DUP2 GT ISZERO PUSH2 0x1E9C JUMPI PUSH2 0x1E9B PUSH2 0x2684 JUMP JUMPDEST JUMPDEST DUP2 MSTORE POP POP DUP4 DUP4 DUP2 MLOAD DUP2 LT PUSH2 0x1EB3 JUMPI PUSH2 0x1EB2 PUSH2 0x2ED8 JUMP JUMPDEST JUMPDEST PUSH1 0x20 MUL PUSH1 0x20 ADD ADD DUP2 SWAP1 MSTORE POP DUP2 DUP1 PUSH2 0x1EC9 SWAP1 PUSH2 0x2F05 JUMP JUMPDEST SWAP3 POP POP JUMPDEST DUP1 DUP1 PUSH2 0x1ED8 SWAP1 PUSH2 0x2F05 JUMP JUMPDEST SWAP2 POP POP PUSH2 0x1C45 JUMP JUMPDEST POP DUP2 DUP4 SWAP5 POP SWAP5 POP POP POP POP SWAP1 SWAP2 JUMP JUMPDEST PUSH0 PUSH0 PUSH1 0x4 DUP4 PUSH1 0xFF AND GT ISZERO PUSH2 0x1F37 JUMPI PUSH1 0x40 MLOAD PUSH32 0x8C379A000000000000000000000000000000000000000000000000000000000 DUP2 MSTORE PUSH1 0x4 ADD PUSH2 0x1F2E SWAP1 PUSH2 0x3617 JUMP JUMPDEST PUSH1 0x40 MLOAD DUP1 SWAP2 SUB SWAP1 REVERT JUMPDEST PUSH0 PUSH0 PUSH0 DUP6 PUSH1 0xFF AND SUB PUSH2 0x1F52 JUMPI PUSH2 0x7D0 SWAP2 POP PUSH2 0x1388 SWAP1 POP PUSH2 0x1FBA JUMP JUMPDEST PUSH1 0x1 DUP6 PUSH1 0xFF AND SUB PUSH2 0x1F6C JUMPI PUSH2 0x4B0 SWAP2 POP PUSH2 0xFA0 SWAP1 POP PUSH2 0x1FB9 JUMP JUMPDEST PUSH1 0x2 DUP6 PUSH1 0xFF AND SUB PUSH2 0x1F86 JUMPI PUSH2 0x3E8 SWAP2 POP PUSH2 0xDAC SWAP1 POP PUSH2 0x1FB8 JUMP JUMPDEST PUSH1 0x3 DUP6 PUSH1 0xFF AND SUB PUSH2 0x1FA0 JUMPI PUSH2 0x320 SWAP2 POP PUSH2 0x9C4 SWAP1 POP PUSH2 0x1FB7 JUMP JUMPDEST PUSH1 0x4 DUP6 PUSH1 0xFF AND LT PUSH2 0x1FB6 JUMPI PUSH2 0x258 SWAP2 POP PUSH2 0x5DC SWAP1 POP JUMPDEST JUMPDEST JUMPDEST JUMPDEST JUMPDEST DUP2 DUP2 SWAP4 POP SWAP4 POP POP POP SWAP2 POP SWAP2 JUMP JUMPDEST DUP1 PUSH1 0x2 PUSH0 DUP4 PUSH0 ADD MLOAD DUP2 MSTORE PUSH1 0x20 ADD SWAP1 DUP2 MSTORE PUSH1 0x20 ADD PUSH0 KECCAK256 PUSH0 DUP3 ADD MLOAD DUP2 PUSH0 ADD SSTORE PUSH1 0x20 DUP3 ADD MLOAD DUP2 PUSH1 0x1 ADD PUSH0 DUP3 ADD MLOAD DUP2 PUSH0 ADD PUSH0 PUSH2 0x100 EXP DUP2 SLOAD DUP2 PUSH20 0xFFFFFFFFFFFFFFFFFFFFFFFFFFFFFFFFFFFFFFFF MUL NOT AND SWAP1 DUP4 PUSH20 0xFFFFFFFFFFFFFFFFFFFFFFFFFFFFFFFFFFFFFFFF AND MUL OR SWAP1 SSTORE POP PUSH1 0x20 DUP3 ADD MLOAD DUP2 PUSH0 ADD PUSH1 0x14 PUSH2 0x100 EXP DUP2 SLOAD DUP2 PUSH1 0xFF MUL NOT AND SWAP1 DUP4 PUSH1 0xFF AND MUL OR SWAP1 SSTORE POP PUSH1 0x40 DUP3 ADD MLOAD DUP2 PUSH1 0x1 ADD SWAP1 DUP1 MLOAD SWAP1 PUSH1 0x20 ADD SWAP1 PUSH2 0x206D SWAP3 SWAP2 SWAP1 PUSH2 0x23FD JUMP JUMPDEST POP POP POP PUSH1 0x40 DUP3 ADD MLOAD DUP2 PUSH1 0x3 ADD PUSH0 PUSH2 0x100 EXP DUP2 SLOAD DUP2 PUSH20 0xFFFFFFFFFFFFFFFFFFFFFFFFFFFFFFFFFFFFFFFF MUL NOT AND SWAP1 DUP4 PUSH20 0xFFFFFFFFFFFFFFFFFFFFFFFFFFFFFFFFFFFFFFFF AND MUL OR SWAP1 SSTORE POP PUSH1 0x60 DUP3 ADD MLOAD DUP2 PUSH1 0x4 ADD SSTORE PUSH1 0x80 DUP3 ADD MLOAD DUP2 PUSH1 0x5 ADD SSTORE PUSH1 0xA0 DUP3 ADD MLOAD DUP2 PUSH1 0x6 ADD SSTORE PUSH1 0xC0 DUP3 ADD MLOAD DUP2 PUSH1 0x7 ADD SSTORE PUSH1 0xE0 DUP3 ADD MLOAD DUP2 PUSH1 0x8 ADD SSTORE PUSH2 0x100 DUP3 ADD MLOAD DUP2 PUSH1 0x9 ADD SSTORE PUSH2 0x120 DUP3 ADD MLOAD DUP2 PUSH1 0xA ADD PUSH0 PUSH2 0x100 EXP DUP2 SLOAD DUP2 PUSH1 0xFF MUL NOT AND SWAP1 DUP4 PUSH1 0x4 DUP2 GT ISZERO PUSH2 0x211E JUMPI PUSH2 0x211D PUSH2 0x2684 JUMP JUMPDEST JUMPDEST MUL OR SWAP1 SSTORE POP PUSH2 0x140 DUP3 ADD MLOAD DUP2 PUSH1 0xA ADD PUSH1 0x1 PUSH2 0x100 EXP DUP2 SLOAD DUP2 PUSH1 0xFF MUL NOT AND SWAP1 DUP4 PUSH1 0x2 DUP2 GT ISZERO PUSH2 0x214F JUMPI PUSH2 0x214E PUSH2 0x2684 JUMP JUMPDEST JUMPDEST MUL OR SWAP1 SSTORE POP SWAP1 POP POP PUSH1 0x4 PUSH0 DUP3 PUSH1 0x20 ADD MLOAD PUSH0 ADD MLOAD PUSH20 0xFFFFFFFFFFFFFFFFFFFFFFFFFFFFFFFFFFFFFFFF AND PUSH20 0xFFFFFFFFFFFFFFFFFFFFFFFFFFFFFFFFFFFFFFFF AND DUP2 MSTORE PUSH1 0x20 ADD SWAP1 DUP2 MSTORE PUSH1 0x20 ADD PUSH0 KECCAK256 DUP2 PUSH0 ADD MLOAD SWAP1 DUP1 PUSH1 0x1 DUP2 SLOAD ADD DUP1 DUP3 SSTORE DUP1 SWAP2 POP POP PUSH1 0x1 SWAP1 SUB SWAP1 PUSH0 MSTORE PUSH1 0x20 PUSH0 KECCAK256 ADD PUSH0 SWAP1 SWAP2 SWAP1 SWAP2 SWAP1 SWAP2 POP SSTORE POP JUMP JUMPDEST PUSH0 PUSH0 PUSH0 PUSH1 0x2 PUSH0 DUP6 DUP2 MSTORE PUSH1 0x20 ADD SWAP1 DUP2 MSTORE PUSH1 0x20 ADD PUSH0 KECCAK256 SWAP1 POP PUSH0 PUSH0 PUSH2 0x21F7 DUP4 PUSH1 0xA ADD PUSH1 0x1 SWAP1 SLOAD SWAP1 PUSH2 0x100 EXP SWAP1 DIV PUSH1 0xFF AND PUSH2 0x1A16 JUMP JUMPDEST SWAP1 POP PUSH0 PUSH3 0x15180 PUSH3 0x1517F DUP6 PUSH1 0x8 ADD SLOAD TIMESTAMP PUSH2 0x2212 SWAP2 SWAP1 PUSH2 0x2EA5 JUMP JUMPDEST PUSH2 0x221C SWAP2 SWAP1 PUSH2 0x2E13 JUMP JUMPDEST PUSH2 0x2226 SWAP2 SWAP1 PUSH2 0x3662 JUMP JUMPDEST SWAP1 POP PUSH0 DUP5 PUSH1 0x8 ADD SLOAD TIMESTAMP GT PUSH2 0x2251 JUMPI PUSH2 0x2247 DUP6 PUSH1 0x5 ADD SLOAD DUP7 PUSH1 0x4 ADD SLOAD DUP6 PUSH2 0x229B JUMP JUMPDEST SWAP4 POP PUSH0 SWAP1 POP PUSH2 0x228B JUMP JUMPDEST DUP5 PUSH1 0x8 ADD SLOAD TIMESTAMP GT ISZERO PUSH2 0x228A JUMPI PUSH0 PUSH2 0x2271 DUP7 PUSH1 0x5 ADD SLOAD DUP8 PUSH1 0x4 ADD SLOAD DUP7 PUSH2 0x229B JUMP JUMPDEST SWAP1 POP PUSH2 0x2282 DUP7 PUSH1 0x6 ADD SLOAD DUP3 DUP6 PUSH2 0x2304 JUMP JUMPDEST SWAP5 POP PUSH1 0x1 SWAP2 POP POP JUMPDEST JUMPDEST DUP4 DUP2 SWAP7 POP SWAP7 POP POP POP POP POP POP SWAP2 POP SWAP2 JUMP JUMPDEST PUSH0 PUSH0 PUSH2 0x16D PUSH1 0x64 DUP7 PUSH2 0x22AD SWAP2 SWAP1 PUSH2 0x3662 JUMP JUMPDEST PUSH2 0x22B7 SWAP2 SWAP1 PUSH2 0x3662 JUMP JUMPDEST SWAP1 POP PUSH0 PUSH0 SWAP1 POP JUMPDEST DUP4 DUP2 LT ISZERO PUSH2 0x22F8 JUMPI PUSH1 0x64 DUP3 PUSH2 0x22D3 SWAP2 SWAP1 PUSH2 0x3662 JUMP JUMPDEST DUP6 PUSH2 0x22DE SWAP2 SWAP1 PUSH2 0x2DD2 JUMP JUMPDEST DUP6 PUSH2 0x22E9 SWAP2 SWAP1 PUSH2 0x2E13 JUMP JUMPDEST SWAP5 POP DUP1 DUP1 PUSH1 0x1 ADD SWAP2 POP POP PUSH2 0x22BE JUMP JUMPDEST POP DUP4 SWAP2 POP POP SWAP4 SWAP3 POP POP POP JUMP JUMPDEST PUSH0 PUSH0 PUSH2 0x16D PUSH1 0x64 DUP7 PUSH2 0x2316 SWAP2 SWAP1 PUSH2 0x3662 JUMP JUMPDEST PUSH2 0x2320 SWAP2 SWAP1 PUSH2 0x3662 JUMP JUMPDEST SWAP1 POP PUSH0 PUSH0 SWAP1 POP JUMPDEST DUP4 DUP2 LT ISZERO PUSH2 0x2361 JUMPI PUSH1 0x64 DUP3 PUSH2 0x233C SWAP2 SWAP1 PUSH2 0x3662 JUMP JUMPDEST DUP6 PUSH2 0x2347 SWAP2 SWAP1 PUSH2 0x2DD2 JUMP JUMPDEST DUP6 PUSH2 0x2352 SWAP2 SWAP1 PUSH2 0x2E13 JUMP JUMPDEST SWAP5 POP DUP1 DUP1 PUSH1 0x1 ADD SWAP2 POP POP PUSH2 0x2327 JUMP JUMPDEST POP DUP4 SWAP2 POP POP SWAP4 SWAP3 POP POP POP JUMP JUMPDEST PUSH1 0x40 MLOAD DUP1 PUSH2 0x160 ADD PUSH1 0x40 MSTORE DUP1 PUSH0 DUP2 MSTORE PUSH1 0x20 ADD PUSH2 0x2387 PUSH2 0x2448 JUMP JUMPDEST DUP2 MSTORE PUSH1 0x20 ADD PUSH0 PUSH20 0xFFFFFFFFFFFFFFFFFFFFFFFFFFFFFFFFFFFFFFFF AND DUP2 MSTORE PUSH1 0x20 ADD PUSH0 DUP2 MSTORE PUSH1 0x20 ADD PUSH0 DUP2 MSTORE PUSH1 0x20 ADD PUSH0 DUP2 MSTORE PUSH1 0x20 ADD PUSH0 DUP2 MSTORE PUSH1 0x20 ADD PUSH0 DUP2 MSTORE PUSH1 0x20 ADD PUSH0 DUP2 MSTORE PUSH1 0x20 ADD PUSH0 PUSH1 0x4 DUP2 GT ISZERO PUSH2 0x23DF JUMPI PUSH2 0x23DE PUSH2 0x2684 JUMP JUMPDEST JUMPDEST DUP2 MSTORE PUSH1 0x20 ADD PUSH0 PUSH1 0x2 DUP2 GT ISZERO PUSH2 0x23F7 JUMPI PUSH2 0x23F6 PUSH2 0x2684 JUMP JUMPDEST JUMPDEST DUP2 MSTORE POP SWAP1 JUMP JUMPDEST DUP3 DUP1 SLOAD DUP3 DUP3 SSTORE SWAP1 PUSH0 MSTORE PUSH1 0x20 PUSH0 KECCAK256 SWAP1 DUP2 ADD SWAP3 DUP3 ISZERO PUSH2 0x2437 JUMPI SWAP2 PUSH1 0x20 MUL DUP3 ADD JUMPDEST DUP3 DUP2 GT ISZERO PUSH2 0x2436 JUMPI DUP3 MLOAD DUP3 SSTORE SWAP2 PUSH1 0x20 ADD SWAP2 SWAP1 PUSH1 0x1 ADD SWAP1 PUSH2 0x241B JUMP JUMPDEST JUMPDEST POP SWAP1 POP PUSH2 0x2444 SWAP2 SWAP1 PUSH2 0x2480 JUMP JUMPDEST POP SWAP1 JUMP JUMPDEST PUSH1 0x40 MLOAD DUP1 PUSH1 0x60 ADD PUSH1 0x40 MSTORE DUP1 PUSH0 PUSH20 0xFFFFFFFFFFFFFFFFFFFFFFFFFFFFFFFFFFFFFFFF AND DUP2 MSTORE PUSH1 0x20 ADD PUSH0 PUSH1 0xFF AND DUP2 MSTORE PUSH1 0x20 ADD PUSH1 0x60 DUP2 MSTORE POP SWAP1 JUMP JUMPDEST JUMPDEST DUP1 DUP3 GT ISZERO PUSH2 0x2497 JUMPI PUSH0 DUP2 PUSH0 SWAP1 SSTORE POP PUSH1 0x1 ADD PUSH2 0x2481 JUMP JUMPDEST POP SWAP1 JUMP JUMPDEST PUSH0 PUSH0 REVERT JUMPDEST PUSH0 DUP2 SWAP1 POP SWAP2 SWAP1 POP JUMP JUMPDEST PUSH2 0x24B1 DUP2 PUSH2 0x249F JUMP JUMPDEST DUP2 EQ PUSH2 0x24BB JUMPI PUSH0 PUSH0 REVERT JUMPDEST POP JUMP JUMPDEST PUSH0 DUP2 CALLDATALOAD SWAP1 POP PUSH2 0x24CC DUP2 PUSH2 0x24A8 JUMP JUMPDEST SWAP3 SWAP2 POP POP JUMP JUMPDEST PUSH0 PUSH1 0x20 DUP3 DUP5 SUB SLT ISZERO PUSH2 0x24E7 JUMPI PUSH2 0x24E6 PUSH2 0x249B JUMP JUMPDEST JUMPDEST PUSH0 PUSH2 0x24F4 DUP5 DUP3 DUP6 ADD PUSH2 0x24BE JUMP JUMPDEST SWAP2 POP POP SWAP3 SWAP2 POP POP JUMP JUMPDEST PUSH0 DUP2 MLOAD SWAP1 POP SWAP2 SWAP1 POP JUMP JUMPDEST PUSH0 DUP3 DUP3 MSTORE PUSH1 0x20 DUP3 ADD SWAP1 POP SWAP3 SWAP2 POP POP JUMP JUMPDEST PUSH0 DUP2 SWAP1 POP PUSH1 0x20 DUP3 ADD SWAP1 POP SWAP2 SWAP1 POP JUMP JUMPDEST PUSH2 0x252F DUP2 PUSH2 0x249F JUMP JUMPDEST DUP3 MSTORE POP POP JUMP JUMPDEST PUSH0 PUSH20 0xFFFFFFFFFFFFFFFFFFFFFFFFFFFFFFFFFFFFFFFF DUP3 AND SWAP1 POP SWAP2 SWAP1 POP JUMP JUMPDEST PUSH0 PUSH2 0x255E DUP3 PUSH2 0x2535 JUMP JUMPDEST SWAP1 POP SWAP2 SWAP1 POP JUMP JUMPDEST PUSH2 0x256E DUP2 PUSH2 0x2554 JUMP JUMPDEST DUP3 MSTORE POP POP JUMP JUMPDEST PUSH0 PUSH1 0xFF DUP3 AND SWAP1 POP SWAP2 SWAP1 POP JUMP JUMPDEST PUSH2 0x2589 DUP2 PUSH2 0x2574 JUMP JUMPDEST DUP3 MSTORE POP POP JUMP JUMPDEST PUSH0 DUP2 MLOAD SWAP1 POP SWAP2 SWAP1 POP JUMP JUMPDEST PUSH0 DUP3 DUP3 MSTORE PUSH1 0x20 DUP3 ADD SWAP1 POP SWAP3 SWAP2 POP POP JUMP JUMPDEST PUSH0 DUP2 SWAP1 POP PUSH1 0x20 DUP3 ADD SWAP1 POP SWAP2 SWAP1 POP JUMP JUMPDEST PUSH0 PUSH2 0x25C3 DUP4 DUP4 PUSH2 0x2526 JUMP JUMPDEST PUSH1 0x20 DUP4 ADD SWAP1 POP SWAP3 SWAP2 POP POP JUMP JUMPDEST PUSH0 PUSH1 0x20 DUP3 ADD SWAP1 POP SWAP2 SWAP1 POP JUMP JUMPDEST PUSH0 PUSH2 0x25E5 DUP3 PUSH2 0x258F JUMP JUMPDEST PUSH2 0x25EF DUP2 DUP6 PUSH2 0x2599 JUMP JUMPDEST SWAP4 POP PUSH2 0x25FA DUP4 PUSH2 0x25A9 JUMP JUMPDEST DUP1 PUSH0 JUMPDEST DUP4 DUP2 LT ISZERO PUSH2 0x262A JUMPI DUP2 MLOAD PUSH2 0x2611 DUP9 DUP3 PUSH2 0x25B8 JUMP JUMPDEST SWAP8 POP PUSH2 0x261C DUP4 PUSH2 0x25CF JUMP JUMPDEST SWAP3 POP POP PUSH1 0x1 DUP2 ADD SWAP1 POP PUSH2 0x25FD JUMP JUMPDEST POP DUP6 SWAP4 POP POP POP POP SWAP3 SWAP2 POP POP JUMP JUMPDEST PUSH0 PUSH1 0x60 DUP4 ADD PUSH0 DUP4 ADD MLOAD PUSH2 0x264C PUSH0 DUP7 ADD DUP3 PUSH2 0x2565 JUMP JUMPDEST POP PUSH1 0x20 DUP4 ADD MLOAD PUSH2 0x265F PUSH1 0x20 DUP7 ADD DUP3 PUSH2 0x2580 JUMP JUMPDEST POP PUSH1 0x40 DUP4 ADD MLOAD DUP5 DUP3 SUB PUSH1 0x40 DUP7 ADD MSTORE PUSH2 0x2677 DUP3 DUP3 PUSH2 0x25DB JUMP JUMPDEST SWAP2 POP POP DUP1 SWAP2 POP POP SWAP3 SWAP2 POP POP JUMP JUMPDEST PUSH32 0x4E487B7100000000000000000000000000000000000000000000000000000000 PUSH0 MSTORE PUSH1 0x21 PUSH1 0x4 MSTORE PUSH1 0x24 PUSH0 REVERT JUMPDEST PUSH1 0x5 DUP2 LT PUSH2 0x26C2 JUMPI PUSH2 0x26C1 PUSH2 0x2684 JUMP JUMPDEST JUMPDEST POP JUMP JUMPDEST PUSH0 DUP2 SWAP1 POP PUSH2 0x26D2 DUP3 PUSH2 0x26B1 JUMP JUMPDEST SWAP2 SWAP1 POP JUMP JUMPDEST PUSH0 PUSH2 0x26E1 DUP3 PUSH2 0x26C5 JUMP JUMPDEST SWAP1 POP SWAP2 SWAP1 POP JUMP JUMPDEST PUSH2 0x26F1 DUP2 PUSH2 0x26D7 JUMP JUMPDEST DUP3 MSTORE POP POP JUMP JUMPDEST PUSH1 0x3 DUP2 LT PUSH2 0x2708 JUMPI PUSH2 0x2707 PUSH2 0x2684 JUMP JUMPDEST JUMPDEST POP JUMP JUMPDEST PUSH0 DUP2 SWAP1 POP PUSH2 0x2718 DUP3 PUSH2 0x26F7 JUMP JUMPDEST SWAP2 SWAP1 POP JUMP JUMPDEST PUSH0 PUSH2 0x2727 DUP3 PUSH2 0x270B JUMP JUMPDEST SWAP1 POP SWAP2 SWAP1 POP JUMP JUMPDEST PUSH2 0x2737 DUP2 PUSH2 0x271D JUMP JUMPDEST DUP3 MSTORE POP POP JUMP JUMPDEST PUSH0 PUSH2 0x160 DUP4 ADD PUSH0 DUP4 ADD MLOAD PUSH2 0x2753 PUSH0 DUP7 ADD DUP3 PUSH2 0x2526 JUMP JUMPDEST POP PUSH1 0x20 DUP4 ADD MLOAD DUP5 DUP3 SUB PUSH1 0x20 DUP7 ADD MSTORE PUSH2 0x276B DUP3 DUP3 PUSH2 0x2637 JUMP JUMPDEST SWAP2 POP POP PUSH1 0x40 DUP4 ADD MLOAD PUSH2 0x2780 PUSH1 0x40 DUP7 ADD DUP3 PUSH2 0x2565 JUMP JUMPDEST POP PUSH1 0x60 DUP4 ADD MLOAD PUSH2 0x2793 PUSH1 0x60 DUP7 ADD DUP3 PUSH2 0x2526 JUMP JUMPDEST POP PUSH1 0x80 DUP4 ADD MLOAD PUSH2 0x27A6 PUSH1 0x80 DUP7 ADD DUP3 PUSH2 0x2526 JUMP JUMPDEST POP PUSH1 0xA0 DUP4 ADD MLOAD PUSH2 0x27B9 PUSH1 0xA0 DUP7 ADD DUP3 PUSH2 0x2526 JUMP JUMPDEST POP PUSH1 0xC0 DUP4 ADD MLOAD PUSH2 0x27CC PUSH1 0xC0 DUP7 ADD DUP3 PUSH2 0x2526 JUMP JUMPDEST POP PUSH1 0xE0 DUP4 ADD MLOAD PUSH2 0x27DF PUSH1 0xE0 DUP7 ADD DUP3 PUSH2 0x2526 JUMP JUMPDEST POP PUSH2 0x100 DUP4 ADD MLOAD PUSH2 0x27F4 PUSH2 0x100 DUP7 ADD DUP3 PUSH2 0x2526 JUMP JUMPDEST POP PUSH2 0x120 DUP4 ADD MLOAD PUSH2 0x2809 PUSH2 0x120 DUP7 ADD DUP3 PUSH2 0x26E8 JUMP JUMPDEST POP PUSH2 0x140 DUP4 ADD MLOAD PUSH2 0x281E PUSH2 0x140 DUP7 ADD DUP3 PUSH2 0x272E JUMP JUMPDEST POP DUP1 SWAP2 POP POP SWAP3 SWAP2 POP POP JUMP JUMPDEST PUSH0 PUSH2 0x2834 DUP4 DUP4 PUSH2 0x273D JUMP JUMPDEST SWAP1 POP SWAP3 SWAP2 POP POP JUMP JUMPDEST PUSH0 PUSH1 0x20 DUP3 ADD SWAP1 POP SWAP2 SWAP1 POP JUMP JUMPDEST PUSH0 PUSH2 0x2852 DUP3 PUSH2 0x24FD JUMP JUMPDEST PUSH2 0x285C DUP2 DUP6 PUSH2 0x2507 JUMP JUMPDEST SWAP4 POP DUP4 PUSH1 0x20 DUP3 MUL DUP6 ADD PUSH2 0x286E DUP6 PUSH2 0x2517 JUMP JUMPDEST DUP1 PUSH0 JUMPDEST DUP6 DUP2 LT ISZERO PUSH2 0x28A9 JUMPI DUP5 DUP5 SUB DUP10 MSTORE DUP2 MLOAD PUSH2 0x288A DUP6 DUP3 PUSH2 0x2829 JUMP JUMPDEST SWAP5 POP PUSH2 0x2895 DUP4 PUSH2 0x283C JUMP JUMPDEST SWAP3 POP PUSH1 0x20 DUP11 ADD SWAP10 POP POP PUSH1 0x1 DUP2 ADD SWAP1 POP PUSH2 0x2871 JUMP JUMPDEST POP DUP3 SWAP8 POP DUP8 SWAP6 POP POP POP POP POP POP SWAP3 SWAP2 POP POP JUMP JUMPDEST PUSH0 PUSH1 0x20 DUP3 ADD SWAP1 POP DUP2 DUP2 SUB PUSH0 DUP4 ADD MSTORE PUSH2 0x28D3 DUP2 DUP5 PUSH2 0x2848 JUMP JUMPDEST SWAP1 POP SWAP3 SWAP2 POP POP JUMP JUMPDEST PUSH1 0x3 DUP2 LT PUSH2 0x28E7 JUMPI PUSH0 PUSH0 REVERT JUMPDEST POP JUMP JUMPDEST PUSH0 DUP2 CALLDATALOAD SWAP1 POP PUSH2 0x28F8 DUP2 PUSH2 0x28DB JUMP JUMPDEST SWAP3 SWAP2 POP POP JUMP JUMPDEST PUSH0 PUSH1 0x20 DUP3 DUP5 SUB SLT ISZERO PUSH2 0x2913 JUMPI PUSH2 0x2912 PUSH2 0x249B JUMP JUMPDEST JUMPDEST PUSH0 PUSH2 0x2920 DUP5 DUP3 DUP6 ADD PUSH2 0x28EA JUMP JUMPDEST SWAP2 POP POP SWAP3 SWAP2 POP POP JUMP JUMPDEST PUSH0 PUSH0 PUSH1 0x40 DUP4 DUP6 SUB SLT ISZERO PUSH2 0x293F JUMPI PUSH2 0x293E PUSH2 0x249B JUMP JUMPDEST JUMPDEST PUSH0 PUSH2 0x294C DUP6 DUP3 DUP7 ADD PUSH2 0x24BE JUMP JUMPDEST SWAP3 POP POP PUSH1 0x20 PUSH2 0x295D DUP6 DUP3 DUP7 ADD PUSH2 0x28EA JUMP JUMPDEST SWAP2 POP POP SWAP3 POP SWAP3 SWAP1 POP JUMP JUMPDEST PUSH2 0x2970 DUP2 PUSH2 0x2554 JUMP JUMPDEST DUP2 EQ PUSH2 0x297A JUMPI PUSH0 PUSH0 REVERT JUMPDEST POP JUMP JUMPDEST PUSH0 DUP2 CALLDATALOAD SWAP1 POP PUSH2 0x298B DUP2 PUSH2 0x2967 JUMP JUMPDEST SWAP3 SWAP2 POP POP JUMP JUMPDEST PUSH0 PUSH1 0x20 DUP3 DUP5 SUB SLT ISZERO PUSH2 0x29A6 JUMPI PUSH2 0x29A5 PUSH2 0x249B JUMP JUMPDEST JUMPDEST PUSH0 PUSH2 0x29B3 DUP5 DUP3 DUP6 ADD PUSH2 0x297D JUMP JUMPDEST SWAP2 POP POP SWAP3 SWAP2 POP POP JUMP JUMPDEST PUSH2 0x29C5 DUP2 PUSH2 0x2554 JUMP JUMPDEST DUP3 MSTORE POP POP JUMP JUMPDEST PUSH2 0x29D4 DUP2 PUSH2 0x2574 JUMP JUMPDEST DUP3 MSTORE POP POP JUMP JUMPDEST PUSH0 PUSH1 0x40 DUP3 ADD SWAP1 POP PUSH2 0x29ED PUSH0 DUP4 ADD DUP6 PUSH2 0x29BC JUMP JUMPDEST PUSH2 0x29FA PUSH1 0x20 DUP4 ADD DUP5 PUSH2 0x29CB JUMP JUMPDEST SWAP4 SWAP3 POP POP POP JUMP JUMPDEST PUSH2 0x2A0A DUP2 PUSH2 0x249F JUMP JUMPDEST DUP3 MSTORE POP POP JUMP JUMPDEST PUSH2 0x2A19 DUP2 PUSH2 0x26D7 JUMP JUMPDEST DUP3 MSTORE POP POP JUMP JUMPDEST PUSH0 PUSH1 0x40 DUP3 ADD SWAP1 POP PUSH2 0x2A32 PUSH0 DUP4 ADD DUP6 PUSH2 0x2A01 JUMP JUMPDEST PUSH2 0x2A3F PUSH1 0x20 DUP4 ADD DUP5 PUSH2 0x2A10 JUMP JUMPDEST SWAP4 SWAP3 POP POP POP JUMP JUMPDEST PUSH0 PUSH1 0x60 DUP4 ADD PUSH0 DUP4 ADD MLOAD PUSH2 0x2A5B PUSH0 DUP7 ADD DUP3 PUSH2 0x2565 JUMP JUMPDEST POP PUSH1 0x20 DUP4 ADD MLOAD PUSH2 0x2A6E PUSH1 0x20 DUP7 ADD DUP3 PUSH2 0x2580 JUMP JUMPDEST POP PUSH1 0x40 DUP4 ADD MLOAD DUP5 DUP3 SUB PUSH1 0x40 DUP7 ADD MSTORE PUSH2 0x2A86 DUP3 DUP3 PUSH2 0x25DB JUMP JUMPDEST SWAP2 POP POP DUP1 SWAP2 POP POP SWAP3 SWAP2 POP POP JUMP JUMPDEST PUSH2 0x2A9C DUP2 PUSH2 0x271D JUMP JUMPDEST DUP3 MSTORE POP POP JUMP JUMPDEST PUSH0 PUSH2 0x160 DUP3 ADD SWAP1 POP PUSH2 0x2AB6 PUSH0 DUP4 ADD DUP15 PUSH2 0x2A01 JUMP JUMPDEST DUP2 DUP2 SUB PUSH1 0x20 DUP4 ADD MSTORE PUSH2 0x2AC8 DUP2 DUP14 PUSH2 0x2A46 JUMP JUMPDEST SWAP1 POP PUSH2 0x2AD7 PUSH1 0x40 DUP4 ADD DUP13 PUSH2 0x29BC JUMP JUMPDEST PUSH2 0x2AE4 PUSH1 0x60 DUP4 ADD DUP12 PUSH2 0x2A01 JUMP JUMPDEST PUSH2 0x2AF1 PUSH1 0x80 DUP4 ADD DUP11 PUSH2 0x2A01 JUMP JUMPDEST PUSH2 0x2AFE PUSH1 0xA0 DUP4 ADD DUP10 PUSH2 0x2A01 JUMP JUMPDEST PUSH2 0x2B0B PUSH1 0xC0 DUP4 ADD DUP9 PUSH2 0x2A01 JUMP JUMPDEST PUSH2 0x2B18 PUSH1 0xE0 DUP4 ADD DUP8 PUSH2 0x2A01 JUMP JUMPDEST PUSH2 0x2B26 PUSH2 0x100 DUP4 ADD DUP7 PUSH2 0x2A01 JUMP JUMPDEST PUSH2 0x2B34 PUSH2 0x120 DUP4 ADD DUP6 PUSH2 0x2A10 JUMP JUMPDEST PUSH2 0x2B42 PUSH2 0x140 DUP4 ADD DUP5 PUSH2 0x2A93 JUMP JUMPDEST SWAP13 SWAP12 POP POP POP POP POP POP POP POP POP POP POP POP JUMP JUMPDEST PUSH0 PUSH0 PUSH1 0x40 DUP4 DUP6 SUB SLT ISZERO PUSH2 0x2B68 JUMPI PUSH2 0x2B67 PUSH2 0x249B JUMP JUMPDEST JUMPDEST PUSH0 PUSH2 0x2B75 DUP6 DUP3 DUP7 ADD PUSH2 0x297D JUMP JUMPDEST SWAP3 POP POP PUSH1 0x20 PUSH2 0x2B86 DUP6 DUP3 DUP7 ADD PUSH2 0x24BE JUMP JUMPDEST SWAP2 POP POP SWAP3 POP SWAP3 SWAP1 POP JUMP JUMPDEST PUSH0 PUSH1 0x20 DUP3 ADD SWAP1 POP PUSH2 0x2BA3 PUSH0 DUP4 ADD DUP5 PUSH2 0x2A01 JUMP JUMPDEST SWAP3 SWAP2 POP POP JUMP JUMPDEST PUSH0 DUP3 DUP3 MSTORE PUSH1 0x20 DUP3 ADD SWAP1 POP SWAP3 SWAP2 POP POP JUMP JUMPDEST PUSH32 0x4C6F616E206E6F7420666F756E64000000000000000000000000000000000000 PUSH0 DUP3 ADD MSTORE POP JUMP JUMPDEST PUSH0 PUSH2 0x2BED PUSH1 0xE DUP4 PUSH2 0x2BA9 JUMP JUMPDEST SWAP2 POP PUSH2 0x2BF8 DUP3 PUSH2 0x2BB9 JUMP JUMPDEST PUSH1 0x20 DUP3 ADD SWAP1 POP SWAP2 SWAP1 POP JUMP JUMPDEST PUSH0 PUSH1 0x20 DUP3 ADD SWAP1 POP DUP2 DUP2 SUB PUSH0 DUP4 ADD MSTORE PUSH2 0x2C1A DUP2 PUSH2 0x2BE1 JUMP JUMPDEST SWAP1 POP SWAP2 SWAP1 POP JUMP JUMPDEST PUSH32 0x54686973206C6F616E20646F65736E2774206E6565642066756E64696E670000 PUSH0 DUP3 ADD MSTORE POP JUMP JUMPDEST PUSH0 PUSH2 0x2C55 PUSH1 0x1E DUP4 PUSH2 0x2BA9 JUMP JUMPDEST SWAP2 POP PUSH2 0x2C60 DUP3 PUSH2 0x2C21 JUMP JUMPDEST PUSH1 0x20 DUP3 ADD SWAP1 POP SWAP2 SWAP1 POP JUMP JUMPDEST PUSH0 PUSH1 0x20 DUP3 ADD SWAP1 POP DUP2 DUP2 SUB PUSH0 DUP4 ADD MSTORE PUSH2 0x2C82 DUP2 PUSH2 0x2C49 JUMP JUMPDEST SWAP1 POP SWAP2 SWAP1 POP JUMP JUMPDEST PUSH32 0x54686520616D6F756E742073656E7420646F6573206E6F74206D617463682074 PUSH0 DUP3 ADD MSTORE PUSH32 0x686520726571756573746564206C6F616E20616D6F756E740000000000000000 PUSH1 0x20 DUP3 ADD MSTORE POP JUMP JUMPDEST PUSH0 PUSH2 0x2CE3 PUSH1 0x38 DUP4 PUSH2 0x2BA9 JUMP JUMPDEST SWAP2 POP PUSH2 0x2CEE DUP3 PUSH2 0x2C89 JUMP JUMPDEST PUSH1 0x40 DUP3 ADD SWAP1 POP SWAP2 SWAP1 POP JUMP JUMPDEST PUSH0 PUSH1 0x20 DUP3 ADD SWAP1 POP DUP2 DUP2 SUB PUSH0 DUP4 ADD MSTORE PUSH2 0x2D10 DUP2 PUSH2 0x2CD7 JUMP JUMPDEST SWAP1 POP SWAP2 SWAP1 POP JUMP JUMPDEST PUSH32 0x4C656E64657220616E6420626F72726F7765722063616E6E6F74206265207468 PUSH0 DUP3 ADD MSTORE PUSH32 0x652073616D650000000000000000000000000000000000000000000000000000 PUSH1 0x20 DUP3 ADD MSTORE POP JUMP JUMPDEST PUSH0 PUSH2 0x2D71 PUSH1 0x26 DUP4 PUSH2 0x2BA9 JUMP JUMPDEST SWAP2 POP PUSH2 0x2D7C DUP3 PUSH2 0x2D17 JUMP JUMPDEST PUSH1 0x40 DUP3 ADD SWAP1 POP SWAP2 SWAP1 POP JUMP JUMPDEST PUSH0 PUSH1 0x20 DUP3 ADD SWAP1 POP DUP2 DUP2 SUB PUSH0 DUP4 ADD MSTORE PUSH2 0x2D9E DUP2 PUSH2 0x2D65 JUMP JUMPDEST SWAP1 POP SWAP2 SWAP1 POP JUMP JUMPDEST PUSH32 0x4E487B7100000000000000000000000000000000000000000000000000000000 PUSH0 MSTORE PUSH1 0x11 PUSH1 0x4 MSTORE PUSH1 0x24 PUSH0 REVERT JUMPDEST PUSH0 PUSH2 0x2DDC DUP3 PUSH2 0x249F JUMP JUMPDEST SWAP2 POP PUSH2 0x2DE7 DUP4 PUSH2 0x249F JUMP JUMPDEST SWAP3 POP DUP3 DUP3 MUL PUSH2 0x2DF5 DUP2 PUSH2 0x249F JUMP JUMPDEST SWAP2 POP DUP3 DUP3 DIV DUP5 EQ DUP4 ISZERO OR PUSH2 0x2E0C JUMPI PUSH2 0x2E0B PUSH2 0x2DA5 JUMP JUMPDEST JUMPDEST POP SWAP3 SWAP2 POP POP JUMP JUMPDEST PUSH0 PUSH2 0x2E1D DUP3 PUSH2 0x249F JUMP JUMPDEST SWAP2 POP PUSH2 0x2E28 DUP4 PUSH2 0x249F JUMP JUMPDEST SWAP3 POP DUP3 DUP3 ADD SWAP1 POP DUP1 DUP3 GT ISZERO PUSH2 0x2E40 JUMPI PUSH2 0x2E3F PUSH2 0x2DA5 JUMP JUMPDEST JUMPDEST SWAP3 SWAP2 POP POP JUMP JUMPDEST PUSH0 PUSH1 0xC0 DUP3 ADD SWAP1 POP PUSH2 0x2E59 PUSH0 DUP4 ADD DUP10 PUSH2 0x2A01 JUMP JUMPDEST PUSH2 0x2E66 PUSH1 0x20 DUP4 ADD DUP9 PUSH2 0x29BC JUMP JUMPDEST PUSH2 0x2E73 PUSH1 0x40 DUP4 ADD DUP8 PUSH2 0x29BC JUMP JUMPDEST PUSH2 0x2E80 PUSH1 0x60 DUP4 ADD DUP7 PUSH2 0x2A01 JUMP JUMPDEST PUSH2 0x2E8D PUSH1 0x80 DUP4 ADD DUP6 PUSH2 0x2A01 JUMP JUMPDEST PUSH2 0x2E9A PUSH1 0xA0 DUP4 ADD DUP5 PUSH2 0x2A01 JUMP JUMPDEST SWAP8 SWAP7 POP POP POP POP POP POP POP JUMP JUMPDEST PUSH0 PUSH2 0x2EAF DUP3 PUSH2 0x249F JUMP JUMPDEST SWAP2 POP PUSH2 0x2EBA DUP4 PUSH2 0x249F JUMP JUMPDEST SWAP3 POP DUP3 DUP3 SUB SWAP1 POP DUP2 DUP2 GT ISZERO PUSH2 0x2ED2 JUMPI PUSH2 0x2ED1 PUSH2 0x2DA5 JUMP JUMPDEST JUMPDEST SWAP3 SWAP2 POP POP JUMP JUMPDEST PUSH32 0x4E487B7100000000000000000000000000000000000000000000000000000000 PUSH0 MSTORE PUSH1 0x32 PUSH1 0x4 MSTORE PUSH1 0x24 PUSH0 REVERT JUMPDEST PUSH0 PUSH2 0x2F0F DUP3 PUSH2 0x249F JUMP JUMPDEST SWAP2 POP PUSH32 0xFFFFFFFFFFFFFFFFFFFFFFFFFFFFFFFFFFFFFFFFFFFFFFFFFFFFFFFFFFFFFFFF DUP3 SUB PUSH2 0x2F41 JUMPI PUSH2 0x2F40 PUSH2 0x2DA5 JUMP JUMPDEST JUMPDEST PUSH1 0x1 DUP3 ADD SWAP1 POP SWAP2 SWAP1 POP JUMP JUMPDEST PUSH32 0x4E487B7100000000000000000000000000000000000000000000000000000000 PUSH0 MSTORE PUSH1 0x41 PUSH1 0x4 MSTORE PUSH1 0x24 PUSH0 REVERT JUMPDEST PUSH32 0x546865206C6F616E20616D6F756E74206D757374206265206772656174657220 PUSH0 DUP3 ADD MSTORE PUSH32 0x7468616E207A65726F0000000000000000000000000000000000000000000000 PUSH1 0x20 DUP3 ADD MSTORE POP JUMP JUMPDEST PUSH0 PUSH2 0x2FD3 PUSH1 0x29 DUP4 PUSH2 0x2BA9 JUMP JUMPDEST SWAP2 POP PUSH2 0x2FDE DUP3 PUSH2 0x2F79 JUMP JUMPDEST PUSH1 0x40 DUP3 ADD SWAP1 POP SWAP2 SWAP1 POP JUMP JUMPDEST PUSH0 PUSH1 0x20 DUP3 ADD SWAP1 POP DUP2 DUP2 SUB PUSH0 DUP4 ADD MSTORE PUSH2 0x3000 DUP2 PUSH2 0x2FC7 JUMP JUMPDEST SWAP1 POP SWAP2 SWAP1 POP JUMP JUMPDEST PUSH32 0x4C6F616E206C696D697420726561636865642C20706C65617365207761697420 PUSH0 DUP3 ADD MSTORE PUSH32 0x666F722061206C6F616E20746F20636C6F73652E000000000000000000000000 PUSH1 0x20 DUP3 ADD MSTORE POP JUMP JUMPDEST PUSH0 PUSH2 0x3061 PUSH1 0x34 DUP4 PUSH2 0x2BA9 JUMP JUMPDEST SWAP2 POP PUSH2 0x306C DUP3 PUSH2 0x3007 JUMP JUMPDEST PUSH1 0x40 DUP3 ADD SWAP1 POP SWAP2 SWAP1 POP JUMP JUMPDEST PUSH0 PUSH1 0x20 DUP3 ADD SWAP1 POP DUP2 DUP2 SUB PUSH0 DUP4 ADD MSTORE PUSH2 0x308E DUP2 PUSH2 0x3055 JUMP JUMPDEST SWAP1 POP SWAP2 SWAP1 POP JUMP JUMPDEST PUSH32 0x596F752063616E6E6F7420726571756573742061206E6577206C6F616E206966 PUSH0 DUP3 ADD MSTORE PUSH32 0x20796F7520686176652070656E64696E672C206163746976652C206F72206F76 PUSH1 0x20 DUP3 ADD MSTORE PUSH32 0x6572647565206C6F616E732E0000000000000000000000000000000000000000 PUSH1 0x40 DUP3 ADD MSTORE POP JUMP JUMPDEST PUSH0 PUSH2 0x3115 PUSH1 0x4C DUP4 PUSH2 0x2BA9 JUMP JUMPDEST SWAP2 POP PUSH2 0x3120 DUP3 PUSH2 0x3095 JUMP JUMPDEST PUSH1 0x60 DUP3 ADD SWAP1 POP SWAP2 SWAP1 POP JUMP JUMPDEST PUSH0 PUSH1 0x20 DUP3 ADD SWAP1 POP DUP2 DUP2 SUB PUSH0 DUP4 ADD MSTORE PUSH2 0x3142 DUP2 PUSH2 0x3109 JUMP JUMPDEST SWAP1 POP SWAP2 SWAP1 POP JUMP JUMPDEST PUSH0 PUSH1 0x60 DUP3 ADD SWAP1 POP PUSH2 0x315C PUSH0 DUP4 ADD DUP7 PUSH2 0x2A01 JUMP JUMPDEST PUSH2 0x3169 PUSH1 0x20 DUP4 ADD DUP6 PUSH2 0x2A10 JUMP JUMPDEST PUSH2 0x3176 PUSH1 0x40 DUP4 ADD DUP5 PUSH2 0x2A93 JUMP JUMPDEST SWAP5 SWAP4 POP POP POP POP JUMP JUMPDEST PUSH32 0x4F6E6C792074686520626F72726F7765722063616E2072657061792074686973 PUSH0 DUP3 ADD MSTORE PUSH32 0x206C6F616E000000000000000000000000000000000000000000000000000000 PUSH1 0x20 DUP3 ADD MSTORE POP JUMP JUMPDEST PUSH0 PUSH2 0x31D8 PUSH1 0x25 DUP4 PUSH2 0x2BA9 JUMP JUMPDEST SWAP2 POP PUSH2 0x31E3 DUP3 PUSH2 0x317E JUMP JUMPDEST PUSH1 0x40 DUP3 ADD SWAP1 POP SWAP2 SWAP1 POP JUMP JUMPDEST PUSH0 PUSH1 0x20 DUP3 ADD SWAP1 POP DUP2 DUP2 SUB PUSH0 DUP4 ADD MSTORE PUSH2 0x3205 DUP2 PUSH2 0x31CC JUMP JUMPDEST SWAP1 POP SWAP2 SWAP1 POP JUMP JUMPDEST PUSH32 0x5468657265206973206E6F206C6F616E20746F20726570617900000000000000 PUSH0 DUP3 ADD MSTORE POP JUMP JUMPDEST PUSH0 PUSH2 0x3240 PUSH1 0x19 DUP4 PUSH2 0x2BA9 JUMP JUMPDEST SWAP2 POP PUSH2 0x324B DUP3 PUSH2 0x320C JUMP JUMPDEST PUSH1 0x20 DUP3 ADD SWAP1 POP SWAP2 SWAP1 POP JUMP JUMPDEST PUSH0 PUSH1 0x20 DUP3 ADD SWAP1 POP DUP2 DUP2 SUB PUSH0 DUP4 ADD MSTORE PUSH2 0x326D DUP2 PUSH2 0x3234 JUMP JUMPDEST SWAP1 POP SWAP2 SWAP1 POP JUMP JUMPDEST PUSH0 PUSH2 0x327E DUP3 PUSH2 0x2574 JUMP JUMPDEST SWAP2 POP PUSH2 0x3289 DUP4 PUSH2 0x2574 JUMP JUMPDEST SWAP3 POP DUP3 DUP3 ADD SWAP1 POP PUSH1 0xFF DUP2 GT ISZERO PUSH2 0x32A2 JUMPI PUSH2 0x32A1 PUSH2 0x2DA5 JUMP JUMPDEST JUMPDEST SWAP3 SWAP2 POP POP JUMP JUMPDEST PUSH0 PUSH2 0x32B2 DUP3 PUSH2 0x2574 JUMP JUMPDEST SWAP2 POP PUSH2 0x32BD DUP4 PUSH2 0x2574 JUMP JUMPDEST SWAP3 POP DUP3 DUP3 SUB SWAP1 POP PUSH1 0xFF DUP2 GT ISZERO PUSH2 0x32D6 JUMPI PUSH2 0x32D5 PUSH2 0x2DA5 JUMP JUMPDEST JUMPDEST SWAP3 SWAP2 POP POP JUMP JUMPDEST PUSH32 0x496E73756666696369656E742066756E647320746F2072657061792074686520 PUSH0 DUP3 ADD MSTORE PUSH32 0x6F766572647565206C6F616E0000000000000000000000000000000000000000 PUSH1 0x20 DUP3 ADD MSTORE POP JUMP JUMPDEST PUSH0 PUSH2 0x3336 PUSH1 0x2C DUP4 PUSH2 0x2BA9 JUMP JUMPDEST SWAP2 POP PUSH2 0x3341 DUP3 PUSH2 0x32DC JUMP JUMPDEST PUSH1 0x40 DUP3 ADD SWAP1 POP SWAP2 SWAP1 POP JUMP JUMPDEST PUSH0 PUSH1 0x20 DUP3 ADD SWAP1 POP DUP2 DUP2 SUB PUSH0 DUP4 ADD MSTORE PUSH2 0x3363 DUP2 PUSH2 0x332A JUMP JUMPDEST SWAP1 POP SWAP2 SWAP1 POP JUMP JUMPDEST PUSH0 PUSH1 0x60 DUP3 ADD SWAP1 POP PUSH2 0x337D PUSH0 DUP4 ADD DUP7 PUSH2 0x2A01 JUMP JUMPDEST PUSH2 0x338A PUSH1 0x20 DUP4 ADD DUP6 PUSH2 0x2A10 JUMP JUMPDEST PUSH2 0x3397 PUSH1 0x40 DUP4 ADD DUP5 PUSH2 0x2A01 JUMP JUMPDEST SWAP5 SWAP4 POP POP POP POP JUMP JUMPDEST PUSH32 0x4F6E6C792074686520626F72726F7765722063616E2063616E63656C20746869 PUSH0 DUP3 ADD MSTORE PUSH32 0x73206C6F616E0000000000000000000000000000000000000000000000000000 PUSH1 0x20 DUP3 ADD MSTORE POP JUMP JUMPDEST PUSH0 PUSH2 0x33F9 PUSH1 0x26 DUP4 PUSH2 0x2BA9 JUMP JUMPDEST SWAP2 POP PUSH2 0x3404 DUP3 PUSH2 0x339F JUMP JUMPDEST PUSH1 0x40 DUP3 ADD SWAP1 POP SWAP2 SWAP1 POP JUMP JUMPDEST PUSH0 PUSH1 0x20 DUP3 ADD SWAP1 POP DUP2 DUP2 SUB PUSH0 DUP4 ADD MSTORE PUSH2 0x3426 DUP2 PUSH2 0x33ED JUMP JUMPDEST SWAP1 POP SWAP2 SWAP1 POP JUMP JUMPDEST PUSH32 0x596F7520686176656E27742072656163686564206C6F616E20696D706F727400 PUSH0 DUP3 ADD MSTORE POP JUMP JUMPDEST PUSH0 PUSH2 0x3461 PUSH1 0x1F DUP4 PUSH2 0x2BA9 JUMP JUMPDEST SWAP2 POP PUSH2 0x346C DUP3 PUSH2 0x342D JUMP JUMPDEST PUSH1 0x20 DUP3 ADD SWAP1 POP SWAP2 SWAP1 POP JUMP JUMPDEST PUSH0 PUSH1 0x20 DUP3 ADD SWAP1 POP DUP2 DUP2 SUB PUSH0 DUP4 ADD MSTORE PUSH2 0x348E DUP2 PUSH2 0x3455 JUMP JUMPDEST SWAP1 POP SWAP2 SWAP1 POP JUMP JUMPDEST PUSH32 0x4E6F206C6F616E20746F2063616E63656C2E0000000000000000000000000000 PUSH0 DUP3 ADD MSTORE POP JUMP JUMPDEST PUSH0 PUSH2 0x34C9 PUSH1 0x12 DUP4 PUSH2 0x2BA9 JUMP JUMPDEST SWAP2 POP PUSH2 0x34D4 DUP3 PUSH2 0x3495 JUMP JUMPDEST PUSH1 0x20 DUP3 ADD SWAP1 POP SWAP2 SWAP1 POP JUMP JUMPDEST PUSH0 PUSH1 0x20 DUP3 ADD SWAP1 POP DUP2 DUP2 SUB PUSH0 DUP4 ADD MSTORE PUSH2 0x34F6 DUP2 PUSH2 0x34BD JUMP JUMPDEST SWAP1 POP SWAP2 SWAP1 POP JUMP JUMPDEST PUSH32 0x5265656E7472616E637947756172643A207265656E7472616E742063616C6C00 PUSH0 DUP3 ADD MSTORE POP JUMP JUMPDEST PUSH0 PUSH2 0x3531 PUSH1 0x1F DUP4 PUSH2 0x2BA9 JUMP JUMPDEST SWAP2 POP PUSH2 0x353C DUP3 PUSH2 0x34FD JUMP JUMPDEST PUSH1 0x20 DUP3 ADD SWAP1 POP SWAP2 SWAP1 POP JUMP JUMPDEST PUSH0 PUSH1 0x20 DUP3 ADD SWAP1 POP DUP2 DUP2 SUB PUSH0 DUP4 ADD MSTORE PUSH2 0x355E DUP2 PUSH2 0x3525 JUMP JUMPDEST SWAP1 POP SWAP2 SWAP1 POP JUMP JUMPDEST PUSH32 0x496E76616C6964206C6F616E206475726174696F6E0000000000000000000000 PUSH0 DUP3 ADD MSTORE POP JUMP JUMPDEST PUSH0 PUSH2 0x3599 PUSH1 0x15 DUP4 PUSH2 0x2BA9 JUMP JUMPDEST SWAP2 POP PUSH2 0x35A4 DUP3 PUSH2 0x3565 JUMP JUMPDEST PUSH1 0x20 DUP3 ADD SWAP1 POP SWAP2 SWAP1 POP JUMP JUMPDEST PUSH0 PUSH1 0x20 DUP3 ADD SWAP1 POP DUP2 DUP2 SUB PUSH0 DUP4 ADD MSTORE PUSH2 0x35C6 DUP2 PUSH2 0x358D JUMP JUMPDEST SWAP1 POP SWAP2 SWAP1 POP JUMP JUMPDEST PUSH32 0x496E76616C6964206372656469742073636F7265000000000000000000000000 PUSH0 DUP3 ADD MSTORE POP JUMP JUMPDEST PUSH0 PUSH2 0x3601 PUSH1 0x14 DUP4 PUSH2 0x2BA9 JUMP JUMPDEST SWAP2 POP PUSH2 0x360C DUP3 PUSH2 0x35CD JUMP JUMPDEST PUSH1 0x20 DUP3 ADD SWAP1 POP SWAP2 SWAP1 POP JUMP JUMPDEST PUSH0 PUSH1 0x20 DUP3 ADD SWAP1 POP DUP2 DUP2 SUB PUSH0 DUP4 ADD MSTORE PUSH2 0x362E DUP2 PUSH2 0x35F5 JUMP JUMPDEST SWAP1 POP SWAP2 SWAP1 POP JUMP JUMPDEST PUSH32 0x4E487B7100000000000000000000000000000000000000000000000000000000 PUSH0 MSTORE PUSH1 0x12 PUSH1 0x4 MSTORE PUSH1 0x24 PUSH0 REVERT JUMPDEST PUSH0 PUSH2 0x366C DUP3 PUSH2 0x249F JUMP JUMPDEST SWAP2 POP PUSH2 0x3677 DUP4 PUSH2 0x249F JUMP JUMPDEST SWAP3 POP DUP3 PUSH2 0x3687 JUMPI PUSH2 0x3686 PUSH2 0x3635 JUMP JUMPDEST JUMPDEST DUP3 DUP3 DIV SWAP1 POP SWAP3 SWAP2 POP POP JUMP INVALID LOG2 PUSH5 0x6970667358 0x22 SLT KECCAK256 0x4D 0xB7 0xFB SDIV 0xC5 SWAP9 0xB6 0xD6 PUSH17 0xD1FB2B7E611C423D407212D8134E2FFB64 SHR EXP DUP11 DUP10 RETURNDATACOPY CALLDATACOPY PUSH5 0x736F6C6343 STOP ADDMOD SHR STOP CALLER "
		},
		"gasEstimates": {
			"creation": {
				"codeDepositCost": "2804800",
				"executionCost": "25172",
				"totalCost": "2829972"
			},
			"external": {
				"borrowerLoans(address,uint256)": "infinite",
				"cancelLoan(uint256)": "infinite",
				"getLoanFunds(uint256)": "infinite",
				"getPendingLoanByDuration(uint8)": "infinite",
				"getPendingLoanDetailsByAmount()": "infinite",
				"getPendingLoanDetailsByInterestRate()": "infinite",
				"getRepayLoanInfo(uint256)": "infinite",
				"loanBorrowers(address)": "infinite",
				"loansById(uint256)": "infinite",
				"repayLoan(uint256)": "infinite",
				"requestLoan(uint256,uint8)": "infinite"
			},
			"internal": {
				"addNewLoan(struct LoanManager.Loan memory)": "infinite",
				"checkRepayLoanInfo(uint256)": "infinite",
				"getDaysOfLoanDuration(enum LoanManager.LoanDuration)": "infinite",
				"getPendingLoansArray()": "infinite",
				"loanInterestRateCalculator(uint8)": "infinite",
				"refundExcess(uint256,address)": "infinite"
			}
		},
		"methodIdentifiers": {
			"borrowerLoans(address,uint256)": "e3ed1902",
			"cancelLoan(uint256)": "bdbfa3de",
			"getLoanFunds(uint256)": "15e303f3",
			"getPendingLoanByDuration(uint8)": "6be35c6c",
			"getPendingLoanDetailsByAmount()": "3ddce5a0",
			"getPendingLoanDetailsByInterestRate()": "1a26e0b7",
			"getRepayLoanInfo(uint256)": "d46bd137",
			"loanBorrowers(address)": "b96c5cdd",
			"loansById(uint256)": "e034f3dc",
			"repayLoan(uint256)": "ab7b1c89",
			"requestLoan(uint256,uint8)": "8f2c3655"
		}
	},
	"abi": [
		{
			"anonymous": false,
			"inputs": [
				{
					"indexed": false,
					"internalType": "uint256",
					"name": "loanId",
					"type": "uint256"
				},
				{
					"indexed": true,
					"internalType": "address",
					"name": "borrower",
					"type": "address"
				},
				{
					"indexed": true,
					"internalType": "uint256",
					"name": "amount",
					"type": "uint256"
				},
				{
					"indexed": false,
					"internalType": "enum LoanManager.LoanStatus",
					"name": "previousStatus",
					"type": "uint8"
				}
			],
			"name": "LoanCanceled",
			"type": "event"
		},
		{
			"anonymous": false,
			"inputs": [
				{
					"indexed": false,
					"internalType": "uint256",
					"name": "loanId",
					"type": "uint256"
				},
				{
					"indexed": false,
					"internalType": "address",
					"name": "lender",
					"type": "address"
				},
				{
					"indexed": false,
					"internalType": "address",
					"name": "borrower",
					"type": "address"
				},
				{
					"indexed": false,
					"internalType": "uint256",
					"name": "amount",
					"type": "uint256"
				},
				{
					"indexed": false,
					"internalType": "uint256",
					"name": "startDate",
					"type": "uint256"
				},
				{
					"indexed": false,
					"internalType": "uint256",
					"name": "dueDate",
					"type": "uint256"
				}
			],
			"name": "LoanFunded",
			"type": "event"
		},
		{
			"anonymous": false,
			"inputs": [
				{
					"indexed": false,
					"internalType": "uint256",
					"name": "loanId",
					"type": "uint256"
				},
				{
					"indexed": true,
					"internalType": "address",
					"name": "borrower",
					"type": "address"
				},
				{
					"indexed": true,
					"internalType": "uint256",
					"name": "amount",
					"type": "uint256"
				},
				{
					"indexed": false,
					"internalType": "enum LoanManager.LoanStatus",
					"name": "status",
					"type": "uint8"
				},
				{
					"indexed": false,
					"internalType": "uint256",
					"name": "repayAmount",
					"type": "uint256"
				}
			],
			"name": "LoanRepaid",
			"type": "event"
		},
		{
			"anonymous": false,
			"inputs": [
				{
					"indexed": false,
					"internalType": "uint256",
					"name": "loanId",
					"type": "uint256"
				},
				{
					"indexed": true,
					"internalType": "address",
					"name": "borrower",
					"type": "address"
				},
				{
					"indexed": true,
					"internalType": "uint256",
					"name": "amount",
					"type": "uint256"
				},
				{
					"indexed": false,
					"internalType": "enum LoanManager.LoanStatus",
					"name": "status",
					"type": "uint8"
				},
				{
					"indexed": true,
					"internalType": "uint256",
					"name": "interestRate",
					"type": "uint256"
				},
				{
					"indexed": false,
					"internalType": "enum LoanManager.LoanDuration",
					"name": "duration",
					"type": "uint8"
				}
			],
			"name": "LoanRequested",
			"type": "event"
		},
		{
			"inputs": [
				{
					"internalType": "address",
					"name": "",
					"type": "address"
				},
				{
					"internalType": "uint256",
					"name": "",
					"type": "uint256"
				}
			],
			"name": "borrowerLoans",
			"outputs": [
				{
					"internalType": "uint256",
					"name": "",
					"type": "uint256"
				}
			],
			"stateMutability": "view",
			"type": "function"
		},
		{
			"inputs": [
				{
					"internalType": "uint256",
					"name": "_loanId",
					"type": "uint256"
				}
			],
			"name": "cancelLoan",
			"outputs": [],
			"stateMutability": "payable",
			"type": "function"
		},
		{
			"inputs": [
				{
					"internalType": "uint256",
					"name": "_loanId",
					"type": "uint256"
				}
			],
			"name": "getLoanFunds",
			"outputs": [],
			"stateMutability": "payable",
			"type": "function"
		},
		{
			"inputs": [
				{
					"internalType": "enum LoanManager.LoanDuration",
					"name": "_duration",
					"type": "uint8"
				}
			],
			"name": "getPendingLoanByDuration",
			"outputs": [
				{
					"components": [
						{
							"internalType": "uint256",
							"name": "loanId",
							"type": "uint256"
						},
						{
							"components": [
								{
									"internalType": "address",
									"name": "borrowerAddress",
									"type": "address"
								},
								{
									"internalType": "uint8",
									"name": "creditScore",
									"type": "uint8"
								},
								{
									"internalType": "uint256[]",
									"name": "loanHistory",
									"type": "uint256[]"
								}
							],
							"internalType": "struct LoanManager.LoanBorrower",
							"name": "borrower",
							"type": "tuple"
						},
						{
							"internalType": "address",
							"name": "lender",
							"type": "address"
						},
						{
							"internalType": "uint256",
							"name": "amount",
							"type": "uint256"
						},
						{
							"internalType": "uint256",
							"name": "interestRate",
							"type": "uint256"
						},
						{
							"internalType": "uint256",
							"name": "penaltyRate",
							"type": "uint256"
						},
						{
							"internalType": "uint256",
							"name": "startDate",
							"type": "uint256"
						},
						{
							"internalType": "uint256",
							"name": "dueDate",
							"type": "uint256"
						},
						{
							"internalType": "uint256",
							"name": "repayAmount",
							"type": "uint256"
						},
						{
							"internalType": "enum LoanManager.LoanStatus",
							"name": "status",
							"type": "uint8"
						},
						{
							"internalType": "enum LoanManager.LoanDuration",
							"name": "duration",
							"type": "uint8"
						}
					],
					"internalType": "struct LoanManager.Loan[]",
					"name": "",
					"type": "tuple[]"
				}
			],
			"stateMutability": "view",
			"type": "function"
		},
		{
			"inputs": [],
			"name": "getPendingLoanDetailsByAmount",
			"outputs": [
				{
					"components": [
						{
							"internalType": "uint256",
							"name": "loanId",
							"type": "uint256"
						},
						{
							"components": [
								{
									"internalType": "address",
									"name": "borrowerAddress",
									"type": "address"
								},
								{
									"internalType": "uint8",
									"name": "creditScore",
									"type": "uint8"
								},
								{
									"internalType": "uint256[]",
									"name": "loanHistory",
									"type": "uint256[]"
								}
							],
							"internalType": "struct LoanManager.LoanBorrower",
							"name": "borrower",
							"type": "tuple"
						},
						{
							"internalType": "address",
							"name": "lender",
							"type": "address"
						},
						{
							"internalType": "uint256",
							"name": "amount",
							"type": "uint256"
						},
						{
							"internalType": "uint256",
							"name": "interestRate",
							"type": "uint256"
						},
						{
							"internalType": "uint256",
							"name": "penaltyRate",
							"type": "uint256"
						},
						{
							"internalType": "uint256",
							"name": "startDate",
							"type": "uint256"
						},
						{
							"internalType": "uint256",
							"name": "dueDate",
							"type": "uint256"
						},
						{
							"internalType": "uint256",
							"name": "repayAmount",
							"type": "uint256"
						},
						{
							"internalType": "enum LoanManager.LoanStatus",
							"name": "status",
							"type": "uint8"
						},
						{
							"internalType": "enum LoanManager.LoanDuration",
							"name": "duration",
							"type": "uint8"
						}
					],
					"internalType": "struct LoanManager.Loan[]",
					"name": "",
					"type": "tuple[]"
				}
			],
			"stateMutability": "view",
			"type": "function"
		},
		{
			"inputs": [],
			"name": "getPendingLoanDetailsByInterestRate",
			"outputs": [
				{
					"components": [
						{
							"internalType": "uint256",
							"name": "loanId",
							"type": "uint256"
						},
						{
							"components": [
								{
									"internalType": "address",
									"name": "borrowerAddress",
									"type": "address"
								},
								{
									"internalType": "uint8",
									"name": "creditScore",
									"type": "uint8"
								},
								{
									"internalType": "uint256[]",
									"name": "loanHistory",
									"type": "uint256[]"
								}
							],
							"internalType": "struct LoanManager.LoanBorrower",
							"name": "borrower",
							"type": "tuple"
						},
						{
							"internalType": "address",
							"name": "lender",
							"type": "address"
						},
						{
							"internalType": "uint256",
							"name": "amount",
							"type": "uint256"
						},
						{
							"internalType": "uint256",
							"name": "interestRate",
							"type": "uint256"
						},
						{
							"internalType": "uint256",
							"name": "penaltyRate",
							"type": "uint256"
						},
						{
							"internalType": "uint256",
							"name": "startDate",
							"type": "uint256"
						},
						{
							"internalType": "uint256",
							"name": "dueDate",
							"type": "uint256"
						},
						{
							"internalType": "uint256",
							"name": "repayAmount",
							"type": "uint256"
						},
						{
							"internalType": "enum LoanManager.LoanStatus",
							"name": "status",
							"type": "uint8"
						},
						{
							"internalType": "enum LoanManager.LoanDuration",
							"name": "duration",
							"type": "uint8"
						}
					],
					"internalType": "struct LoanManager.Loan[]",
					"name": "",
					"type": "tuple[]"
				}
			],
			"stateMutability": "view",
			"type": "function"
		},
		{
			"inputs": [
				{
					"internalType": "uint256",
					"name": "_loanId",
					"type": "uint256"
				}
			],
			"name": "getRepayLoanInfo",
			"outputs": [
				{
					"internalType": "uint256",
					"name": "",
					"type": "uint256"
				},
				{
					"internalType": "enum LoanManager.LoanStatus",
					"name": "",
					"type": "uint8"
				}
			],
			"stateMutability": "view",
			"type": "function"
		},
		{
			"inputs": [
				{
					"internalType": "address",
					"name": "",
					"type": "address"
				}
			],
			"name": "loanBorrowers",
			"outputs": [
				{
					"internalType": "address",
					"name": "borrowerAddress",
					"type": "address"
				},
				{
					"internalType": "uint8",
					"name": "creditScore",
					"type": "uint8"
				}
			],
			"stateMutability": "view",
			"type": "function"
		},
		{
			"inputs": [
				{
					"internalType": "uint256",
					"name": "",
					"type": "uint256"
				}
			],
			"name": "loansById",
			"outputs": [
				{
					"internalType": "uint256",
					"name": "loanId",
					"type": "uint256"
				},
				{
					"components": [
						{
							"internalType": "address",
							"name": "borrowerAddress",
							"type": "address"
						},
						{
							"internalType": "uint8",
							"name": "creditScore",
							"type": "uint8"
						},
						{
							"internalType": "uint256[]",
							"name": "loanHistory",
							"type": "uint256[]"
						}
					],
					"internalType": "struct LoanManager.LoanBorrower",
					"name": "borrower",
					"type": "tuple"
				},
				{
					"internalType": "address",
					"name": "lender",
					"type": "address"
				},
				{
					"internalType": "uint256",
					"name": "amount",
					"type": "uint256"
				},
				{
					"internalType": "uint256",
					"name": "interestRate",
					"type": "uint256"
				},
				{
					"internalType": "uint256",
					"name": "penaltyRate",
					"type": "uint256"
				},
				{
					"internalType": "uint256",
					"name": "startDate",
					"type": "uint256"
				},
				{
					"internalType": "uint256",
					"name": "dueDate",
					"type": "uint256"
				},
				{
					"internalType": "uint256",
					"name": "repayAmount",
					"type": "uint256"
				},
				{
					"internalType": "enum LoanManager.LoanStatus",
					"name": "status",
					"type": "uint8"
				},
				{
					"internalType": "enum LoanManager.LoanDuration",
					"name": "duration",
					"type": "uint8"
				}
			],
			"stateMutability": "view",
			"type": "function"
		},
		{
			"inputs": [
				{
					"internalType": "uint256",
					"name": "_loanId",
					"type": "uint256"
				}
			],
			"name": "repayLoan",
			"outputs": [],
			"stateMutability": "payable",
			"type": "function"
		},
		{
			"inputs": [
				{
					"internalType": "uint256",
					"name": "_amount",
					"type": "uint256"
				},
				{
					"internalType": "enum LoanManager.LoanDuration",
					"name": "_duration",
					"type": "uint8"
				}
			],
			"name": "requestLoan",
			"outputs": [],
			"stateMutability": "nonpayable",
			"type": "function"
		}
	]
}