{
	"data": {
		"bytecode": {
			"linkReferences": {},
			"object": "608060405260966000556064600155605a6002556046600355603260045534801561002957600080fd5b50610683806100396000396000f3fe608060405234801561001057600080fd5b50600436106100a95760003560e01c806379ef967a1161007157806379ef967a1461013e57806387c6a5ee1461015a5780638d3d9da51461017857806399d9679e146101a8578063b9a85d78146101c6578063e19554dc146101e4576100a9565b806318c621db146100ae578063350e6095146100cc57806358eba0e4146100ea57806362fddd831461010657806373b7007d14610122575b600080fd5b6100b6610200565b6040516100c391906104f3565b60405180910390f35b6100d4610206565b6040516100e191906104f3565b60405180910390f35b61010460048036038101906100ff91906103d2565b61020c565b005b610120600480360381019061011b91906103d2565b610216565b005b61013c600480360381019061013791906103d2565b610220565b005b610158600480360381019061015391906103d2565b61022a565b005b610162610234565b60405161016f91906104f3565b60405180910390f35b610192600480360381019061018d91906103fb565b61023a565b60405161019f91906104f3565b60405180910390f35b6101b0610392565b6040516101bd91906104f3565b60405180910390f35b6101ce610398565b6040516101db91906104f3565b60405180910390f35b6101fe60048036038101906101f991906103d2565b61039e565b005b60005481565b60035481565b8060018190555050565b8060038190555050565b8060028190555050565b8060048190555050565b60045481565b60008060008360ff16141561026a576064600054866102599190610550565b610263919061051f565b905061035d565b60018360ff161415610297576064600154866102869190610550565b610290919061051f565b905061035c565b60028360ff1614156102c4576064600254866102b39190610550565b6102bd919061051f565b905061035b565b60038360ff1614156102f1576064600354866102e09190610550565b6102ea919061051f565b905061035a565b60048360ff16141561031e5760646004548661030d9190610550565b610317919061051f565b9050610359565b6040517f08c379a0000000000000000000000000000000000000000000000000000000008152600401610350906104d3565b60405180910390fd5b5b5b5b5b6000618e9485838961036f9190610550565b6103799190610550565b610383919061051f565b90508092505050949350505050565b60015481565b60025481565b8060008190555050565b6000813590506103b78161061f565b92915050565b6000813590506103cc81610636565b92915050565b6000602082840312156103e457600080fd5b60006103f2848285016103a8565b91505092915050565b6000806000806080858703121561041157600080fd5b600061041f878288016103a8565b9450506020610430878288016103a8565b9350506040610441878288016103a8565b9250506060610452878288016103bd565b91505092959194509250565b600061046b60228361050e565b91507f4372656469742073636f7265206465766520657373657265207472612030206560008301527f20340000000000000000000000000000000000000000000000000000000000006020830152604082019050919050565b6104cd816105aa565b82525050565b600060208201905081810360008301526104ec8161045e565b9050919050565b600060208201905061050860008301846104c4565b92915050565b600082825260208201905092915050565b600061052a826105aa565b9150610535836105aa565b925082610545576105446105f0565b5b828204905092915050565b600061055b826105aa565b9150610566836105aa565b9250817fffffffffffffffffffffffffffffffffffffffffffffffffffffffffffffffff048311821515161561059f5761059e6105c1565b5b828202905092915050565b6000819050919050565b600060ff82169050919050565b7f4e487b7100000000000000000000000000000000000000000000000000000000600052601160045260246000fd5b7f4e487b7100000000000000000000000000000000000000000000000000000000600052601260045260246000fd5b610628816105aa565b811461063357600080fd5b50565b61063f816105b4565b811461064a57600080fd5b5056fea2646970667358221220cf98b410b984129ac4cb220846d3c74c2d9bea0a3171dc9ee21e8e54c9fc703664736f6c63430008000033",
			"opcodes": "PUSH1 0x80 PUSH1 0x40 MSTORE PUSH1 0x96 PUSH1 0x0 SSTORE PUSH1 0x64 PUSH1 0x1 SSTORE PUSH1 0x5A PUSH1 0x2 SSTORE PUSH1 0x46 PUSH1 0x3 SSTORE PUSH1 0x32 PUSH1 0x4 SSTORE CALLVALUE DUP1 ISZERO PUSH2 0x29 JUMPI PUSH1 0x0 DUP1 REVERT JUMPDEST POP PUSH2 0x683 DUP1 PUSH2 0x39 PUSH1 0x0 CODECOPY PUSH1 0x0 RETURN INVALID PUSH1 0x80 PUSH1 0x40 MSTORE CALLVALUE DUP1 ISZERO PUSH2 0x10 JUMPI PUSH1 0x0 DUP1 REVERT JUMPDEST POP PUSH1 0x4 CALLDATASIZE LT PUSH2 0xA9 JUMPI PUSH1 0x0 CALLDATALOAD PUSH1 0xE0 SHR DUP1 PUSH4 0x79EF967A GT PUSH2 0x71 JUMPI DUP1 PUSH4 0x79EF967A EQ PUSH2 0x13E JUMPI DUP1 PUSH4 0x87C6A5EE EQ PUSH2 0x15A JUMPI DUP1 PUSH4 0x8D3D9DA5 EQ PUSH2 0x178 JUMPI DUP1 PUSH4 0x99D9679E EQ PUSH2 0x1A8 JUMPI DUP1 PUSH4 0xB9A85D78 EQ PUSH2 0x1C6 JUMPI DUP1 PUSH4 0xE19554DC EQ PUSH2 0x1E4 JUMPI PUSH2 0xA9 JUMP JUMPDEST DUP1 PUSH4 0x18C621DB EQ PUSH2 0xAE JUMPI DUP1 PUSH4 0x350E6095 EQ PUSH2 0xCC JUMPI DUP1 PUSH4 0x58EBA0E4 EQ PUSH2 0xEA JUMPI DUP1 PUSH4 0x62FDDD83 EQ PUSH2 0x106 JUMPI DUP1 PUSH4 0x73B7007D EQ PUSH2 0x122 JUMPI JUMPDEST PUSH1 0x0 DUP1 REVERT JUMPDEST PUSH2 0xB6 PUSH2 0x200 JUMP JUMPDEST PUSH1 0x40 MLOAD PUSH2 0xC3 SWAP2 SWAP1 PUSH2 0x4F3 JUMP JUMPDEST PUSH1 0x40 MLOAD DUP1 SWAP2 SUB SWAP1 RETURN JUMPDEST PUSH2 0xD4 PUSH2 0x206 JUMP JUMPDEST PUSH1 0x40 MLOAD PUSH2 0xE1 SWAP2 SWAP1 PUSH2 0x4F3 JUMP JUMPDEST PUSH1 0x40 MLOAD DUP1 SWAP2 SUB SWAP1 RETURN JUMPDEST PUSH2 0x104 PUSH1 0x4 DUP1 CALLDATASIZE SUB DUP2 ADD SWAP1 PUSH2 0xFF SWAP2 SWAP1 PUSH2 0x3D2 JUMP JUMPDEST PUSH2 0x20C JUMP JUMPDEST STOP JUMPDEST PUSH2 0x120 PUSH1 0x4 DUP1 CALLDATASIZE SUB DUP2 ADD SWAP1 PUSH2 0x11B SWAP2 SWAP1 PUSH2 0x3D2 JUMP JUMPDEST PUSH2 0x216 JUMP JUMPDEST STOP JUMPDEST PUSH2 0x13C PUSH1 0x4 DUP1 CALLDATASIZE SUB DUP2 ADD SWAP1 PUSH2 0x137 SWAP2 SWAP1 PUSH2 0x3D2 JUMP JUMPDEST PUSH2 0x220 JUMP JUMPDEST STOP JUMPDEST PUSH2 0x158 PUSH1 0x4 DUP1 CALLDATASIZE SUB DUP2 ADD SWAP1 PUSH2 0x153 SWAP2 SWAP1 PUSH2 0x3D2 JUMP JUMPDEST PUSH2 0x22A JUMP JUMPDEST STOP JUMPDEST PUSH2 0x162 PUSH2 0x234 JUMP JUMPDEST PUSH1 0x40 MLOAD PUSH2 0x16F SWAP2 SWAP1 PUSH2 0x4F3 JUMP JUMPDEST PUSH1 0x40 MLOAD DUP1 SWAP2 SUB SWAP1 RETURN JUMPDEST PUSH2 0x192 PUSH1 0x4 DUP1 CALLDATASIZE SUB DUP2 ADD SWAP1 PUSH2 0x18D SWAP2 SWAP1 PUSH2 0x3FB JUMP JUMPDEST PUSH2 0x23A JUMP JUMPDEST PUSH1 0x40 MLOAD PUSH2 0x19F SWAP2 SWAP1 PUSH2 0x4F3 JUMP JUMPDEST PUSH1 0x40 MLOAD DUP1 SWAP2 SUB SWAP1 RETURN JUMPDEST PUSH2 0x1B0 PUSH2 0x392 JUMP JUMPDEST PUSH1 0x40 MLOAD PUSH2 0x1BD SWAP2 SWAP1 PUSH2 0x4F3 JUMP JUMPDEST PUSH1 0x40 MLOAD DUP1 SWAP2 SUB SWAP1 RETURN JUMPDEST PUSH2 0x1CE PUSH2 0x398 JUMP JUMPDEST PUSH1 0x40 MLOAD PUSH2 0x1DB SWAP2 SWAP1 PUSH2 0x4F3 JUMP JUMPDEST PUSH1 0x40 MLOAD DUP1 SWAP2 SUB SWAP1 RETURN JUMPDEST PUSH2 0x1FE PUSH1 0x4 DUP1 CALLDATASIZE SUB DUP2 ADD SWAP1 PUSH2 0x1F9 SWAP2 SWAP1 PUSH2 0x3D2 JUMP JUMPDEST PUSH2 0x39E JUMP JUMPDEST STOP JUMPDEST PUSH1 0x0 SLOAD DUP2 JUMP JUMPDEST PUSH1 0x3 SLOAD DUP2 JUMP JUMPDEST DUP1 PUSH1 0x1 DUP2 SWAP1 SSTORE POP POP JUMP JUMPDEST DUP1 PUSH1 0x3 DUP2 SWAP1 SSTORE POP POP JUMP JUMPDEST DUP1 PUSH1 0x2 DUP2 SWAP1 SSTORE POP POP JUMP JUMPDEST DUP1 PUSH1 0x4 DUP2 SWAP1 SSTORE POP POP JUMP JUMPDEST PUSH1 0x4 SLOAD DUP2 JUMP JUMPDEST PUSH1 0x0 DUP1 PUSH1 0x0 DUP4 PUSH1 0xFF AND EQ ISZERO PUSH2 0x26A JUMPI PUSH1 0x64 PUSH1 0x0 SLOAD DUP7 PUSH2 0x259 SWAP2 SWAP1 PUSH2 0x550 JUMP JUMPDEST PUSH2 0x263 SWAP2 SWAP1 PUSH2 0x51F JUMP JUMPDEST SWAP1 POP PUSH2 0x35D JUMP JUMPDEST PUSH1 0x1 DUP4 PUSH1 0xFF AND EQ ISZERO PUSH2 0x297 JUMPI PUSH1 0x64 PUSH1 0x1 SLOAD DUP7 PUSH2 0x286 SWAP2 SWAP1 PUSH2 0x550 JUMP JUMPDEST PUSH2 0x290 SWAP2 SWAP1 PUSH2 0x51F JUMP JUMPDEST SWAP1 POP PUSH2 0x35C JUMP JUMPDEST PUSH1 0x2 DUP4 PUSH1 0xFF AND EQ ISZERO PUSH2 0x2C4 JUMPI PUSH1 0x64 PUSH1 0x2 SLOAD DUP7 PUSH2 0x2B3 SWAP2 SWAP1 PUSH2 0x550 JUMP JUMPDEST PUSH2 0x2BD SWAP2 SWAP1 PUSH2 0x51F JUMP JUMPDEST SWAP1 POP PUSH2 0x35B JUMP JUMPDEST PUSH1 0x3 DUP4 PUSH1 0xFF AND EQ ISZERO PUSH2 0x2F1 JUMPI PUSH1 0x64 PUSH1 0x3 SLOAD DUP7 PUSH2 0x2E0 SWAP2 SWAP1 PUSH2 0x550 JUMP JUMPDEST PUSH2 0x2EA SWAP2 SWAP1 PUSH2 0x51F JUMP JUMPDEST SWAP1 POP PUSH2 0x35A JUMP JUMPDEST PUSH1 0x4 DUP4 PUSH1 0xFF AND EQ ISZERO PUSH2 0x31E JUMPI PUSH1 0x64 PUSH1 0x4 SLOAD DUP7 PUSH2 0x30D SWAP2 SWAP1 PUSH2 0x550 JUMP JUMPDEST PUSH2 0x317 SWAP2 SWAP1 PUSH2 0x51F JUMP JUMPDEST SWAP1 POP PUSH2 0x359 JUMP JUMPDEST PUSH1 0x40 MLOAD PUSH32 0x8C379A000000000000000000000000000000000000000000000000000000000 DUP2 MSTORE PUSH1 0x4 ADD PUSH2 0x350 SWAP1 PUSH2 0x4D3 JUMP JUMPDEST PUSH1 0x40 MLOAD DUP1 SWAP2 SUB SWAP1 REVERT JUMPDEST JUMPDEST JUMPDEST JUMPDEST JUMPDEST PUSH1 0x0 PUSH2 0x8E94 DUP6 DUP4 DUP10 PUSH2 0x36F SWAP2 SWAP1 PUSH2 0x550 JUMP JUMPDEST PUSH2 0x379 SWAP2 SWAP1 PUSH2 0x550 JUMP JUMPDEST PUSH2 0x383 SWAP2 SWAP1 PUSH2 0x51F JUMP JUMPDEST SWAP1 POP DUP1 SWAP3 POP POP POP SWAP5 SWAP4 POP POP POP POP JUMP JUMPDEST PUSH1 0x1 SLOAD DUP2 JUMP JUMPDEST PUSH1 0x2 SLOAD DUP2 JUMP JUMPDEST DUP1 PUSH1 0x0 DUP2 SWAP1 SSTORE POP POP JUMP JUMPDEST PUSH1 0x0 DUP2 CALLDATALOAD SWAP1 POP PUSH2 0x3B7 DUP2 PUSH2 0x61F JUMP JUMPDEST SWAP3 SWAP2 POP POP JUMP JUMPDEST PUSH1 0x0 DUP2 CALLDATALOAD SWAP1 POP PUSH2 0x3CC DUP2 PUSH2 0x636 JUMP JUMPDEST SWAP3 SWAP2 POP POP JUMP JUMPDEST PUSH1 0x0 PUSH1 0x20 DUP3 DUP5 SUB SLT ISZERO PUSH2 0x3E4 JUMPI PUSH1 0x0 DUP1 REVERT JUMPDEST PUSH1 0x0 PUSH2 0x3F2 DUP5 DUP3 DUP6 ADD PUSH2 0x3A8 JUMP JUMPDEST SWAP2 POP POP SWAP3 SWAP2 POP POP JUMP JUMPDEST PUSH1 0x0 DUP1 PUSH1 0x0 DUP1 PUSH1 0x80 DUP6 DUP8 SUB SLT ISZERO PUSH2 0x411 JUMPI PUSH1 0x0 DUP1 REVERT JUMPDEST PUSH1 0x0 PUSH2 0x41F DUP8 DUP3 DUP9 ADD PUSH2 0x3A8 JUMP JUMPDEST SWAP5 POP POP PUSH1 0x20 PUSH2 0x430 DUP8 DUP3 DUP9 ADD PUSH2 0x3A8 JUMP JUMPDEST SWAP4 POP POP PUSH1 0x40 PUSH2 0x441 DUP8 DUP3 DUP9 ADD PUSH2 0x3A8 JUMP JUMPDEST SWAP3 POP POP PUSH1 0x60 PUSH2 0x452 DUP8 DUP3 DUP9 ADD PUSH2 0x3BD JUMP JUMPDEST SWAP2 POP POP SWAP3 SWAP6 SWAP2 SWAP5 POP SWAP3 POP JUMP JUMPDEST PUSH1 0x0 PUSH2 0x46B PUSH1 0x22 DUP4 PUSH2 0x50E JUMP JUMPDEST SWAP2 POP PUSH32 0x4372656469742073636F72652064657665206573736572652074726120302065 PUSH1 0x0 DUP4 ADD MSTORE PUSH32 0x2034000000000000000000000000000000000000000000000000000000000000 PUSH1 0x20 DUP4 ADD MSTORE PUSH1 0x40 DUP3 ADD SWAP1 POP SWAP2 SWAP1 POP JUMP JUMPDEST PUSH2 0x4CD DUP2 PUSH2 0x5AA JUMP JUMPDEST DUP3 MSTORE POP POP JUMP JUMPDEST PUSH1 0x0 PUSH1 0x20 DUP3 ADD SWAP1 POP DUP2 DUP2 SUB PUSH1 0x0 DUP4 ADD MSTORE PUSH2 0x4EC DUP2 PUSH2 0x45E JUMP JUMPDEST SWAP1 POP SWAP2 SWAP1 POP JUMP JUMPDEST PUSH1 0x0 PUSH1 0x20 DUP3 ADD SWAP1 POP PUSH2 0x508 PUSH1 0x0 DUP4 ADD DUP5 PUSH2 0x4C4 JUMP JUMPDEST SWAP3 SWAP2 POP POP JUMP JUMPDEST PUSH1 0x0 DUP3 DUP3 MSTORE PUSH1 0x20 DUP3 ADD SWAP1 POP SWAP3 SWAP2 POP POP JUMP JUMPDEST PUSH1 0x0 PUSH2 0x52A DUP3 PUSH2 0x5AA JUMP JUMPDEST SWAP2 POP PUSH2 0x535 DUP4 PUSH2 0x5AA JUMP JUMPDEST SWAP3 POP DUP3 PUSH2 0x545 JUMPI PUSH2 0x544 PUSH2 0x5F0 JUMP JUMPDEST JUMPDEST DUP3 DUP3 DIV SWAP1 POP SWAP3 SWAP2 POP POP JUMP JUMPDEST PUSH1 0x0 PUSH2 0x55B DUP3 PUSH2 0x5AA JUMP JUMPDEST SWAP2 POP PUSH2 0x566 DUP4 PUSH2 0x5AA JUMP JUMPDEST SWAP3 POP DUP2 PUSH32 0xFFFFFFFFFFFFFFFFFFFFFFFFFFFFFFFFFFFFFFFFFFFFFFFFFFFFFFFFFFFFFFFF DIV DUP4 GT DUP3 ISZERO ISZERO AND ISZERO PUSH2 0x59F JUMPI PUSH2 0x59E PUSH2 0x5C1 JUMP JUMPDEST JUMPDEST DUP3 DUP3 MUL SWAP1 POP SWAP3 SWAP2 POP POP JUMP JUMPDEST PUSH1 0x0 DUP2 SWAP1 POP SWAP2 SWAP1 POP JUMP JUMPDEST PUSH1 0x0 PUSH1 0xFF DUP3 AND SWAP1 POP SWAP2 SWAP1 POP JUMP JUMPDEST PUSH32 0x4E487B7100000000000000000000000000000000000000000000000000000000 PUSH1 0x0 MSTORE PUSH1 0x11 PUSH1 0x4 MSTORE PUSH1 0x24 PUSH1 0x0 REVERT JUMPDEST PUSH32 0x4E487B7100000000000000000000000000000000000000000000000000000000 PUSH1 0x0 MSTORE PUSH1 0x12 PUSH1 0x4 MSTORE PUSH1 0x24 PUSH1 0x0 REVERT JUMPDEST PUSH2 0x628 DUP2 PUSH2 0x5AA JUMP JUMPDEST DUP2 EQ PUSH2 0x633 JUMPI PUSH1 0x0 DUP1 REVERT JUMPDEST POP JUMP JUMPDEST PUSH2 0x63F DUP2 PUSH2 0x5B4 JUMP JUMPDEST DUP2 EQ PUSH2 0x64A JUMPI PUSH1 0x0 DUP1 REVERT JUMPDEST POP JUMP INVALID LOG2 PUSH5 0x6970667358 0x22 SLT KECCAK256 0xCF SWAP9 0xB4 LT 0xB9 DUP5 SLT SWAP11 0xC4 0xCB 0x22 ADDMOD CHAINID 0xD3 0xC7 0x4C 0x2D SWAP12 0xEA EXP BALANCE PUSH18 0xDC9EE21E8E54C9FC703664736F6C63430008 STOP STOP CALLER "
		},
		"gasEstimates": {
			"creation": {
				"codeDepositCost": "333400",
				"executionCost": "100404",
				"totalCost": "433804"
			},
			"external": {
				"aumentoCreditScore0()": "1130",
				"calcolaInteressi(uint256,uint256,uint256,uint8)": "infinite",
				"diminuzioneCreditScore2()": "1217",
				"diminuzioneCreditScore3()": "1152",
				"diminuzioneCreditScore4()": "1151",
				"setAumentoCreditScore0(uint256)": "20530",
				"setDiminuzioneCreditScore2(uint256)": "20509",
				"setDiminuzioneCreditScore3(uint256)": "20487",
				"setDiminuzioneCreditScore4(uint256)": "20420",
				"setTassoInvariato(uint256)": "20465",
				"tassoInvariato()": "1195"
			}
		},
		"methodIdentifiers": {
			"aumentoCreditScore0()": "18c621db",
			"calcolaInteressi(uint256,uint256,uint256,uint8)": "8d3d9da5",
			"diminuzioneCreditScore2()": "b9a85d78",
			"diminuzioneCreditScore3()": "350e6095",
			"diminuzioneCreditScore4()": "87c6a5ee",
			"setAumentoCreditScore0(uint256)": "e19554dc",
			"setDiminuzioneCreditScore2(uint256)": "73b7007d",
			"setDiminuzioneCreditScore3(uint256)": "62fddd83",
			"setDiminuzioneCreditScore4(uint256)": "79ef967a",
			"setTassoInvariato(uint256)": "58eba0e4",
			"tassoInvariato()": "99d9679e"
		}
	},
	"abi": [
		{
			"inputs": [],
			"name": "aumentoCreditScore0",
			"outputs": [
				{
					"internalType": "uint256",
					"name": "",
					"type": "uint256"
				}
			],
			"stateMutability": "view",
			"type": "function"
		},
		{
			"inputs": [
				{
					"internalType": "uint256",
					"name": "importo",
					"type": "uint256"
				},
				{
					"internalType": "uint256",
					"name": "tassoBase",
					"type": "uint256"
				},
				{
					"internalType": "uint256",
					"name": "giorni",
					"type": "uint256"
				},
				{
					"internalType": "uint8",
					"name": "creditScore",
					"type": "uint8"
				}
			],
			"name": "calcolaInteressi",
			"outputs": [
				{
					"internalType": "uint256",
					"name": "",
					"type": "uint256"
				}
			],
			"stateMutability": "view",
			"type": "function"
		},
		{
			"inputs": [],
			"name": "diminuzioneCreditScore2",
			"outputs": [
				{
					"internalType": "uint256",
					"name": "",
					"type": "uint256"
				}
			],
			"stateMutability": "view",
			"type": "function"
		},
		{
			"inputs": [],
			"name": "diminuzioneCreditScore3",
			"outputs": [
				{
					"internalType": "uint256",
					"name": "",
					"type": "uint256"
				}
			],
			"stateMutability": "view",
			"type": "function"
		},
		{
			"inputs": [],
			"name": "diminuzioneCreditScore4",
			"outputs": [
				{
					"internalType": "uint256",
					"name": "",
					"type": "uint256"
				}
			],
			"stateMutability": "view",
			"type": "function"
		},
		{
			"inputs": [
				{
					"internalType": "uint256",
					"name": "nuovoValore",
					"type": "uint256"
				}
			],
			"name": "setAumentoCreditScore0",
			"outputs": [],
			"stateMutability": "nonpayable",
			"type": "function"
		},
		{
			"inputs": [
				{
					"internalType": "uint256",
					"name": "nuovoValore",
					"type": "uint256"
				}
			],
			"name": "setDiminuzioneCreditScore2",
			"outputs": [],
			"stateMutability": "nonpayable",
			"type": "function"
		},
		{
			"inputs": [
				{
					"internalType": "uint256",
					"name": "nuovoValore",
					"type": "uint256"
				}
			],
			"name": "setDiminuzioneCreditScore3",
			"outputs": [],
			"stateMutability": "nonpayable",
			"type": "function"
		},
		{
			"inputs": [
				{
					"internalType": "uint256",
					"name": "nuovoValore",
					"type": "uint256"
				}
			],
			"name": "setDiminuzioneCreditScore4",
			"outputs": [],
			"stateMutability": "nonpayable",
			"type": "function"
		},
		{
			"inputs": [
				{
					"internalType": "uint256",
					"name": "nuovoValore",
					"type": "uint256"
				}
			],
			"name": "setTassoInvariato",
			"outputs": [],
			"stateMutability": "nonpayable",
			"type": "function"
		},
		{
			"inputs": [],
			"name": "tassoInvariato",
			"outputs": [
				{
					"internalType": "uint256",
					"name": "",
					"type": "uint256"
				}
			],
			"stateMutability": "view",
			"type": "function"
		}
	]
}